:100000000C9475060C9492060C9492060C9492062D
:100010000C9492060C9492060C9492060C94920600
:100020000C9492060C9492060C94552D0C94292E47
:100030000C9460280C9492060C9492060C949206F0
:100040000C9492060C9492060C9492060C949206D0
:100050000C9492060C94B7280C9492060C94920679
:100060000C9492060C9492060C9492060C949206B0
:100070000C9492060C9492060C9492060C949206A0
:100080000C9492060C9492060C9492060C94920690
:100090000C9492060C9492060C9492060C94920680
:1000A0000C9492060C9492060C949206000D010D8D
:1000B000020D030D040D050D000C010C020C030CC8
:1000C000040C050C000B010B020B030B040B050BBE
:1000D000000A010A020A030A040A050A00090109C2
:1000E00002090309040905090008010802080308B8
:1000F00004080508000701070207030704070507AE
:1001000000060106020603060406050600050105B1
:1001100002050305040505050004010402040304A7
:10012000040405040003010302030303040305039D
:1001300000020102020203020402050200010101A1
:100140000201030104010501000001000200030097
:10015000040005005468616E6B20796F7500646F50
:100160006E65007072656D696F696E632E636F6D89
:10017000002F70616765732F002F70726F64756355
:1001800074732F00646972207C2072656E616D65E6
:100190002D6974656D202D6E65776E616D65207BB0
:1001A000245F2E6E616D65202D7265706C616365D4
:1001B0002022227D01015001015000737472696E8A
:1001C0006700636F756C6420005468616E6B730028
:1001D0003D3E207B7D01015001012800636F6E735D
:1001E000742000796F752772652000776974682024
:1001F00000796F752000796F757220006D616B65F5
:100200002000636F6D20007468656D6520776174F0
:100210006368202D6520006769742070756C6C0020
:100220006769742070757368206F726967696E20E2
:100230000067697420636F6D6D6974202D6D2022D5
:10024000220101500067697420616464202E002738
:100250002B44454C4554455F4D4554414649454C1A
:10026000442B0068747470733A2F2F692E79746967
:100270006D672E636F6D2F76692F2F6871646566C9
:1002800061756C742E6A70670101500101500101A3
:100290005001015001015001015001015001015074
:1002A00001015001015001015001015001015001B3
:1002B0000150007374796C653D00636C6173733D2C
:1002C000222201015000636C6173734E616D653DC4
:1002D0002222010150006C6566743A20303B010116
:1002E0002800746F703A20303B010128006865696E
:1002F0006768743A20313030253B01012800776966
:100300006474683A20313030253B01012800706F59
:10031000736974696F6E3A206162736F6C7574658E
:100320003B01012800636F6E74656E743A202727C5
:100330003B010128007B252072656E6465722027D1
:10034000696D672720776974682020257D01015039
:10035000010150010150007B252072656E646572B9
:100360002020257D010150010150010150007C2019
:10037000617070656E643A2027007B25206173737D
:1003800069676E2020257D01015001015001015057
:1003900000616C69676E2D6974656D732D006A75F7
:1003A00073746966792D636F6E74656E742D0001C8
:1003B00002E0650103E0006C6974652D796F757466
:1003C0007562652E5B766964656F696420706C6127
:1003D000796C6162656C5D00636F6E736F6C652E26
:1003E0006C6F672829010150006469762E636F6E77
:1003F0007461696E657201012B0001012B00696D4A
:10040000672E5B6C6F6164696E673D226C617A79FF
:10041000222077696474683D2222206865696768D4
:10042000743D22225D00436861726C6573204368ED
:100430006175007B252020257D01015001015001BF
:10044000015000433A5C55736572735C5573657275
:100450005C736F757263655C576F726B7370616309
:1004600065735C53686F706966795C007B252065F5
:100470006E64636F6D6D656E7420257D007B252035
:10048000636F6D6D656E7420257D0029002B002A39
:1004900000E100504300001E00140004001D444F02
:1004A0004501001F001A0015001B005246B15D20D7
:1004B0000009001600060051002B612100130017EF
:1004C0000019002841390022000A00070005000039
:1004D000002A62010001000000010000004C6401DC
:1004E000000100000001000000E30023000D000BEC
:1004F000000E000000284224000F00110010002C04
:10050000002B72250018000800360031004C002630
:10051000001C000C0037002F00E4002700330012FD
:10052000003800300001002E0034002D00E50035B9
:10053000430000010001004C000100010000003CEC
:10054000043C0404111D011D0301002C001A0115B7
:10055000011B01B600010036010901160106114E0A
:100560000101004B010A0317011911010001004E9E
:10057000010F030701051300000100010001000045
:100580000001000000010001000100000001000066
:1005900000E0003F004A022F0226020000E2004B6A
:1005A000004A005000340201004A124E005200512D
:1005B000002E000100E10026024D004F0034000132
:1005C00000010027024D023002270201004D0246C1
:1005D0000001003100E500010000000100010039C8
:1005E0000001000100000001000100F10001000114
:1005F0000001000100F900EF00F2000100FE00011F
:1006000000ED00EE00F3000100FF000100FA00F031
:1006100000F100010001000100B700B60001000078
:1006200000010001000100000001000000010001C4
:100630000001000000010000000100B50001000100
:1006400000010000000100B6004A0050001901013D
:10065000000100F3005200510006010100E100B763
:10066000004D004F001B01AA0001000100010030F5
:10067000021D01A90001000F080100310001000165
:100680000000000100AB5D39000100010000003AEC
:1006900000AB5DB25DAC5D010001003B00B35DB03D
:1006A0005D0100C05D01003C00B45DAE5DA95DC1AF
:1006B0005D01003D001301AC5DAA5D010001003E3B
:1006C00000BA5DB95DB85D000001000100010000E5
:1006D0000001000000010001000100000001000015
:1006E0000001003F005400550001000000010040DF
:1006F00000240021001E000100010041002500220D
:10070000001F00270027004200260023002000379A
:10071000002E004300560057000100010001004474
:100720000045002E00010001000000010001000151
:1007300000010001000000010001000100010001B2
:1007400000010001000100B65D1A0701000100016F
:10075000000100B55D0C050100010001001301B7A7
:100760005D06050805010001000A01010001000005
:100770000001000100010000000100000001000173
:100780000001000000010000000100010001000163
:100790000001000000010001000100010001000152
:1007A0000001000100010001000100010001000141
:1007B0000001000100010001000100010001000131
:1007C0000001000100010001000100010001000121
:1007D00000000006510100010001000100000001BD
:1007E0000001000100010001000100010001000101
:1007F0000001004B01010001000100010001004E59
:1008000001010001000100010001000805010001D3
:1008100000010001000100000001000100010000D2
:1008200000010000000100010001000000010000C3
:1008300000010001000100010001000000010001B1
:1008400000010001000100010001000100010001A0
:100850000001000100010001000100010001000190
:100860000001000100010001000100010001000180
:100870000001000100010001000000010001000171
:100880000001000100000001000100010001000161
:100890000001000100010001000100010001000150
:1008A0000001004B01010001000100010001004EA8
:1008B0000101000100010001000100010001000030
:1008C0000001000100010000000100000001000122
:1008D0000001000000010000000100010001000112
:1008E0000001000000010001000100010001000101
:1008F00000010001000100010001000100010001F0
:1009000000010001000100010001000100010001DF
:1009100000010001000100005C0100010001000174
:1009200000000001000100010001000100000001C1
:10093000000100010001000100010001002400216C
:10094000001E00370001000100250022001F0027C3
:100950000001000100260023002000010001000129
:100960000001000100010000000100010001000081
:100970000001000000010001000100000001000072
:100980000001000100010001000100000001000160
:10099000000100010001000100010001000100014F
:1009A000000100010001000100010001000100013F
:1009B000000100010001000100010001000100012F
:1009C000000100010001000100000017000E001CE2
:1009D00000000007001100080000000700120017C7
:1009E0000000001300150010000000130004003880
:1009F000000000130015003800000007000C00156F
:100A00000011000800000017000E00160000000F83
:100A100000070000000600170000001C0015000081
:100A200000150008000A000000170015000800006B
:100A30000007001500080000001C00180000001846
:100A400000150000001A003800000010000E000021
:100A50000006001000000017000B0008001A00003C
:100A6000000B000C00180000000B000C001300002D
:100A7000000B000C00060000000B000C000400003E
:100A80000016000C000A000000070010000800001B
:100A9000000C00170004000000160017001C0000E6
:100AA0000006000F001B00000006000F00080000F9
:100AB0000000000000000000002A2B2800000000B9
:100AC00000000000000000000000000029000000FD
:100AD000002C1E3420212224342627252E362D37A3
:100AE00038271E1F202122232425263333362E3774
:100AF000381F0405060708090A0B0C0D0E0F10110C
:100B000012131415161718191A1B1C1D2F31302318
:100B10002D350405060708090A0B0C0D0E0F1011E0
:100B200012131415161718191A1B1C1D2F313035E6
:100B30004C00000000000000000000000000000069
:100B400000000000000000000000000000000000A5
:100B500000000000007E0F00D4FFFFFFC700000070
:100B60007816034500720067006F0044006F00783C
:100B700000200045005A00000028035A005300419D
:100B800000200054006500630068006E006F006C78
:100B9000006F006700790020004C00610062007364
:100BA0000000000403090409023B00020100A0FA4E
:100BB00009040000010301010009211101000122C3
:100BC00040000705810308000A0904010001030031
:100BD000000009211101000122B60007058203204F
:100BE000000A120100020000000897327449010057
:100BF0000102000105010902A10185020901A1000C
:100C000005091901290815002501950875018102BA
:100C10000501093009311581257F95027508810686
:100C200009381581257F950175088106050C0A385C
:100C3000021581257F950175088106C0C00501094F
:100C400080A101850319012AB700150126B7009577
:100C50000175108100C0050C0901A101850419016D
:100C60002AA002150126A002950175108100C00579
:100C7000010906A1018506050719E029E7150025E8
:100C8000019508750181020507190029EF15002556
:100C90000195F07501810205081901290595057571
:100CA000019102950175039101C005010906A10199
:100CB000050719E029E7150025019508750181024E
:100CC0009501750881010507190029FF150026FF08
:100CD0000095067508810005081901290595057517
:100CE000019102950175039101C011241FBECFEF40
:100CF000DAE0DEBFCDBF12E0A0E0B1E0E6EBF3E664
:100D000002C005900D92A635B107D9F724E0A6E5FB
:100D1000B2E001C01D92AA32B207E1F70E94B01CF6
:100D20000C947C310C9400008098889A8198899A60
:100D300084988C9A85988D9A86988E9A87988F9A9F
:100D40000895209828982198299822982A982398DD
:100D50002B9852985A9853985B983E9846980895C5
:100D6000CF93C82F873070F58091060190910701CD
:100D7000892B89F564E670E080E40E940726909351
:100D8000070180930601892BD1F464E670E082E1CB
:100D90000E9481269093070180930601892B79F4A4
:100DA00081E090E001C0880FCA95EAF764E670E040
:100DB00080950E9481269093070180930601CF9130
:100DC0000C94D4268A30B9F040F4883071F0893020
:100DD00079F0209A2898CF9108958C3091F070F096
:100DE0008D30B9F73E9A4698F6CF219A2998F3CFDD
:100DF000229A2A98F0CF239A2B98EDCF529A5A989C
:100E0000EACF539A5B98E7CFCF93873050F5809124
:100E1000060190910701C0E0892B71F464E670E04F
:100E200081E40E9407269093070180930601892B95
:100E300031F0C0E00E94D4268C2FCF91089584E633
:100E400090E00E94B02697FF05C090930701809321
:100E50000601EFCFC82FC09510920701109206012E
:100E6000E9CFCFB18FB1869586958C73C3708C2BEB
:100E7000C82FC095E1CF0E94410890E090930701F0
:100E8000809306010E94A1060C949406EF92FF92B3
:100E90000F931F93CF93DF938091060190910701E9
:100EA000892B91F0809158028F5F809358028111B5
:100EB0000BC00E94410890E09093070180930601C7
:100EC000892B11F40E94D60702EF13E0C0E0D0E0B6
:100ED00087E0E82EEC0E8C2F0E94B0068E2D0E942B
:100EE000B0068C2F0E940407F8019081F12C89171D
:100EF00019F08083FF24F3948E2D0E940407F801DB
:100F00009781891799F0878381E08F29D82B0E94D8
:100F1000A106CF5F0F5F1F4FC730D1F68D2FDF9136
:100F2000CF911F910F91FF90EF90089580E0EDCF4A
:100F30000E94410890E090930701809306010E946F
:100F4000A1060E949406E0E0F4E0119284E0EE3005
:100F5000F807D9F70895259A2D9A0895269A2E9A7A
:100F60000895279A2F9A089556985E98089525987F
:100F70002D98089526982E98089527982F980895CB
:100F80000E94B4070E94B7070E94BA070C94BD07DD
:100F900090E0909389008093880090938B008093D9
:100FA0008A0090938D0080938C0008950E94C00762
:100FB0008FEF0E94C8070E94AB072FEF80E792E0F7
:100FC000215080409040E1F700C000000E94AE0731
:100FD0002FEF80E792E0215080409040E1F700C081
:100FE00000000E94B1072FEF80E792E0215080407F
:100FF0009040E1F700C000000E94B7072FEF80E7A4
:1010000092E0215080409040E1F700C000000E9433
:10101000BA072FEF80E792E0215080409040E1F73F
:1010200000C000000E94BD070C94C00789EA8093AD
:10103000800089E08093810024982C983F988AB1A1
:101040008F7C8AB96E98479A8BB180638BB9769AF8
:101050000E9477186093EC037093ED038093EE0386
:101060009093EF0367702FEF629FC0011124959555
:101070008795959587950E94C8070E94D6070C947E
:10108000E11B80E290E0909307018093060180913C
:10109000590281110EC00E94012681E080935902FD
:1010A0002FEF83ED90E3215080409040E1F700C0A6
:1010B000000064E670E080E40E9407269093070138
:1010C00080930601892B09F04EC064E670E080E051
:1010D0000E9481269093070180930601892B09F0D5
:1010E00042C064E670E080E00E9481269093070190
:1010F00080930601892BB9F564E670E08FE30E94C6
:1011000081269093070180930601892B61F50E9447
:10111000D42664E670E080E40E94072690930701DD
:1011200080930601892BF9F464E670E08CE00E945C
:1011300081269093070180930601892BA1F464E630
:1011400070E080E00E948126909307018093060161
:10115000892B49F464E670E08FE30E948126909326
:101160000701809306010E94D4268091060108950C
:101170001092EC031092ED031092EE031092EF0325
:1011800084E080618093EC036091EC037091ED0347
:101190008091EE039091EF030E947B180C948718C6
:1011A000CF93DB01875A9D4582339105A8F4FC015A
:1011B000E258FE4C0C9403301296CC91CC2319F0DB
:1011C0000E94EB18C0E08C2FCF9108951296CC911D
:1011D0008DE794E0C11108C0C1E0F5CF1296CC9123
:1011E0008CE694E0CC23C1F30E94D90CECCF12968C
:1011F000CC9183E494E0CC2379F3F6CF1296CC9192
:1012000083E394E0CC2341F3EFCF1296CC9186E2B6
:1012100094E0CC2309F3E8CF1296CC91CC23E1F2F1
:101220008EEF93E00E94D90C8AEF93E0DDCF129607
:10123000CC91CC2389F282EE0E94DB0D8CE20E94DD
:10124000DA0E82EE0E946D0E81E10E94DA0EBBCFB3
:101250001296CC9189EE93E0CC2309F4BDCFC4CF94
:101260001296CC9188ED93E0CC2309F4B5CFBCCF96
:101270001296CC91CC2309F4AFCF87EB93E00E9478
:10128000D90C8FEA93E0B0CF1296CC91CC23A1F089
:1012900080915C02811106C081E080935C0282EE45
:1012A0000E94DB0D0E94902890935B0280935A026B
:1012B0008BE20E94DB0D87CF8BE20E946D0E8CCFFC
:1012C0001296CC918EE993E0CC2309F485CF8CCF94
:1012D0001296CC9181E993E0CC2309F47DCF84CFA1
:1012E0001296CC918AE793E0CC2309F475CF7CCF9A
:1012F0001296CC918EE693E0CC2309F46DCF74CF97
:101300001296CC9187E593E0CC2309F465CF6CCF9E
:101310001296CC9185E393E0CC2309F45DCF64CFA2
:101320001296CC91CC2309F457CF85E293E00E942A
:10133000D90C8EE093E00E94D90C8EEF92E00E94CF
:10134000D90C8DEE92E00E94D90C82EE92E00E94C0
:10135000D90C86ED92E048CF1296CC9186EC92E0C3
:10136000CC2309F439CF40CF1296CC918AEB92E08E
:10137000CC2309F431CF38CF1296CC9183EB92E095
:10138000CC2309F429CF30CF1296CC9183E692E09A
:10139000CC2309F421CF28CF1296CC918FE492E090
:1013A000CC2309F419CF20CF1296CC9185E492E09A
:1013B000CC2309F411CF18CF1296CC9181E392E09F
:1013C000CC2309F409CF10CF1296CC9180E292E0A1
:1013D000CC2309F401CF08CF1296CC9187E192E09B
:1013E000CC2309F4F9CE00CF1296CC9187E092E09D
:1013F000CC2309F4F1CEF8CE1296CC9182E092E0A3
:10140000CC2309F4E9CEF0CE1296CC918CEF91E08A
:10141000CC2309F4E1CEE8CE1296CC9186EF91E090
:10142000CC2309F4D9CEE0CE1296CC9181EF91E095
:10143000CC2309F4D1CED8CE1296CC918BEE91E08C
:10144000CC2309F4C9CED0CE1296CC9183EE91E094
:10145000CC2309F4C1CEC8CE1296CC918CED91E08C
:10146000CC2309F4B9CEC0CE1296CC9180ED91E098
:10147000CC2309F4B1CEB8CE1296CC9189EC91E090
:10148000CC2309F4A9CEB0CE1296CC9182EC91E097
:10149000CC2309F4A1CEA8CE1296CC918BEB91E08F
:1014A000CC2309F499CEA0CE1296CC9184E891E099
:1014B000CC2309F491CE98CE1296CC9189E791E095
:1014C000CC2309F489CE90CE1296CC9181E791E09D
:1014D000CC2309F481CE88CE1296CC9183E691E09C
:1014E000CC2309F479CE80CE1296CC918EE591E092
:1014F000CC2309F471CE78CE1296CC91CC2309F48A
:101500006BCE84E591E070CE80915C02882371F00F
:1015100080915A0290915B020E94A82881399140E3
:1015200028F082EE0E946D0E10925C02089581FDFB
:101530000C94B1070C94BD07CF92DF92EF92FF920B
:10154000CF936B017C010E94E60CC82F0E94B40768
:101550000E94BA070E94B707C23081F0C33061F021
:10156000C13011F40E94AB07C701B601CF91FF90C3
:10157000EF90DF90CF9008950E94AB070E94AE07D6
:10158000F3CF9C013A9521153F4150F5FC01EE2720
:10159000F170BC0166277270AC01442754709C0145
:1015A0002227387094FF0EC080E1EF2B09F480E011
:1015B000672B09F08062452B09F08064232B89F0AA
:1015C0008068089581E0EF2B09F480E0672B09F033
:1015D0008260452B09F08460232B19F08860089500
:1015E00080E00895CF93DF93EC010E94C10A9E0131
:1015F000205E31092830310510F0209739F40E941F
:10160000E20E8C2FDF91CF910C94DB0D0E94D7114D
:10161000F8CFCF93DF93EC010E946D0ECE010E94B4
:10162000C10A9E01205E31092830310510F0CD2B12
:1016300021F4DF91CF910C94E90EDF91CF910C94BE
:10164000DE11CF93DF93EC010E94F20ACE01DF910D
:10165000CF910C94090B81E008950C94D008089563
:101660000C942F0B1F93CF93DF9300D000D00F92D9
:10167000CDB7DEB749835A836B8330916B02898182
:101680009A8131111DC06623B9F02223A9F00E946E
:10169000B113182F682F89819A810E945A1369818A
:1016A0007A81812F0F900F900F900F900F90DF9104
:1016B000CF911F910C94C81A0E948813182FEFCF56
:1016C0000E94B11369817A81EDCFFC01262F8681BA
:1016D0009781009739F440815181628173818481BF
:1016E0000C94320B0895CF93DF93EC0161E00E94DC
:1016F000650BBE01DF91CF910C944C23CF93DF9308
:10170000EC0160E00E94650BBE01DF91CF910C946B
:10171000300B0E94BD1B0E94390D0E94701F0C945B
:1017200016080E9408230C94E21B80E00C943A0DEA
:10173000089508950E94FB110E94990B2FEF84E3F6
:101740009CE0215080409040E1F700C000000C94E4
:10175000DB280F931F93CF93DF938C0161E00E94EE
:10176000650BEC01B8010E942D0B8823D9F1B8015B
:10177000CE010E9428208823A9F1B801CE010E9441
:10178000AF25882379F1B801CE010E945B20882320
:1017900049F1B801CE010E941925882319F1F801F9
:1017A0008281882361F0CB35FDE5DF0721F170F4FC
:1017B000C115ECE5DE07A1F0CF3DDC45C9F0C8015D
:1017C000DF91CF911F910F910C942B0BCC358DE5B0
:1017D000D807A1F0CD35DD4591F70E943A18EFCF3B
:1017E0000E949A0B80E0DF91CF911F910F91089595
:1017F0000E94EB18F7CF0E944318E1CF0E944618D1
:10180000DECF0C94980B0E94E2260E943A0D0C94B5
:10181000010CDF92EF92FF920F931F93CF93DF9310
:10182000E82FF0E0EF54F54FD490282F2695269519
:10183000269530E0F901EF5AF44F0491877010E0DB
:10184000082E02C0159507950A94E2F7017011273A
:10185000F901EF5BF44FE490F12C082E02C0F594EF
:10186000E7940A94E2F791E0E922FF24F901EF5CA2
:10187000F44FC491D0E002C0D595C7958A95E2F7A0
:10188000C170DD270115110519F081EE0E94DB0DF5
:10189000E114F10419F086EE0E94DB0D8D2D0E94FB
:1018A000DA0EEF2819F086EE0E946D0E012B19F06A
:1018B00081EE0E946D0ECD2B51F08CE2DF91CF9125
:1018C0001F910F91FF90EF90DF900C94DA0EDF9153
:1018D000CF911F910F91FF90EF90DF900895EF92BD
:1018E000FF920F931F93CF93DF938C01F62E8AE024
:1018F000E82EF8018491882309F454C0813009F05E
:101900004DC0E8012196FE018491813091F4219629
:10191000FE0184910E94DA0E8E010F5F1F4F8F2D02
:10192000815038F3EFE9FFE03197F1F700C0000094
:10193000F7CF823039F4E8012296FE0184910E94AB
:10194000DB0DEACF833039F4E8012296FE01849161
:101950000E946D0EE1CF8430F9F6E8012296FE0177
:10196000249190E080E0FE0131962053330B2A3021
:10197000310548F0019780F2EFE9FFE03197F1F788
:1019800000C00000F7CFE89EA001E99E500D112491
:10199000C901840F951F2491EF01E5CF0E94090C26
:1019A000E801BACFDF91CF911F910F91FF90EF9097
:1019B000089560E00C946F0C982F9F709A509630A9
:1019C00018F0805D0C94090C895AFCCFCF92DF92FD
:1019D000EF92FF926C01EE24FF2420E0C114D104A9
:1019E000E104F10419F0C701B60120E1C72ED82E99
:1019F000E92EFF24C114D104E104F10419F0285F99
:101A0000C701B6016B017C0154E0F694E794D794CA
:101A1000C7945A95D1F7C114D104E104F10419F027
:101A20002C5FC701B6016B017C0142E0F694E7949C
:101A3000D794C7944A95D1F7C114D104E104F104B5
:101A400019F02E5FC701B601969587957795679532
:101A5000672B682B692B09F02F5F822FFF90EF9087
:101A6000DF90CF9008950C94970A81E008950C942C
:101A7000350D0895CF93C82F0E94330D8C2FCF9131
:101A80000C94370DCF93DF93EC012881898141E0DD
:101A900050E0022E01C0440F0A94EAF7A82FB0E0EC
:101AA000A35ABD4F9C913A813323D9F030916D02F6
:101AB0003323D1F030E066E0869F200D311D1124E4
:101AC000220F331FF901E355FF4FE491E983F90138
:101AD000E455FF4FE491E883492B4C93DF91CF917C
:101AE0000895392F3423E4CF40954923F6CFCF937F
:101AF000DF93CDB7DEB72D970FB6F894DEBF0FBEDC
:101B0000CDBF49875A876B877C878D8761110E947B
:101B100095178C859D85892B29F089859A85892340
:101B20008F3F81F51D821E821F82188685E0FE018F
:101B30003996DE01119601900D928A95E1F78C811C
:101B40009D81892B99F429813A814B815C816D813A
:101B50007E818F8198850E9487162D960FB6F89406
:101B6000DEBF0FBECDBFDF91CF91089589819A81ED
:101B700089238F3F41F3CE0101960E94730B81119F
:101B8000E2CFEBCFCE0109960E94420DCBCFFC01F4
:101B9000808191810E94F31392959F70963051F449
:101BA000863F41F080916D0291E0892780936D021C
:101BB00090936C020895CF93C82F882309F48BC0AB
:101BC0008238C1F40E94E22681FD85C089E30E942B
:101BD00027170E94B8172FEF81EE94E02150804024
:101BE0009040E1F700C0000089E30E942E17CF91DA
:101BF0000C94B8178338A1F40E94E22680FD6BC0D4
:101C000083E50E9427170E94B8172FEF81EE94E01A
:101C1000215080409040E1F700C0000083E5E5CF0F
:101C20008438A1F40E94E22682FD55C087E40E9418
:101C300027170E94B8172FEF81EE94E021508040C3
:101C40009040E1F700C0000087E4CFCF8CEF8C0F0D
:101C5000813A90F46C2F8091DC019091DD010E941B
:101C60005927882329F08C2F0E942E170E94B8171D
:101C70008C2F0E942717BBCF80E28C0F883048F44E
:101C8000C77081E001C0880FCA95EAF70E947517F6
:101C9000AECFEBE5EC0FE33040F4F0E0EE5DFD4F4E
:101CA000808190E0CF910C941927E8E5EC0FE731A3
:101CB00050F4F0E0EE0FFF1FEC50FE4F8081918159
:101CC000CF910C942F27CD3E30F08C2F0E94401DD9
:101CD000CF910C94131ECF910895882309F452C01C
:101CE000823871F40E94E22681FF4CC089E30E9491
:101CF00027170E94B81789E30E942E170C94B81773
:101D0000833859F40E94E22680FF3CC083E50E949C
:101D100027170E94B81783E5EFCF843859F40E9443
:101D2000E22682FF2FC087E40E9427170E94B8177F
:101D300087E4E2CF9CEF980F913AF0F290E2980F8F
:101D4000983050F4877091E001C0990F8A95EAF7B6
:101D5000892F0E947B17D2CF9BE5980F933020F4F8
:101D600090E080E00C94192798E5980F973120F4C3
:101D700090E080E00C942F278D3E20F00E949A1D69
:101D80000C94131E08951F93CF93DF93182FEB012C
:101D90000E94DB0D209731F4812FDF91CF911F91AD
:101DA0000C946D0E8FE99FE00197F1F700C00000E1
:101DB0002197F0CF70E060E0893311F460E570E0C6
:101DC0000C94C30E882321F00E9475170C94B81749
:101DD0000895882321F00E947B170C94B81708956A
:101DE0004F925F926F927F92BF92CF92DF92EF926B
:101DF000FF920F931F93CF93DF936C01C62F172F82
:101E0000FC01D281058102950F700E946B17E82EAC
:101E10008823D1F0DD2329F1812F807F803441F0A8
:101E200090E29C0F9830E8F0803611F4C63FC9F07C
:101E30008091F10382FD15C082E00E9409180E9482
:101E40006B1791E0E82EE926B12EB2949FE0B922FB
:101E5000FBE0FB15C0F1EB2DF0E0E055FE4C0C94DF
:101E60000330E12CF1CF012F0F70812F807F11F013
:101E70000295007FDD2399F0002359F080E28C0F5A
:101E8000883010F0C11107C0802F0E9475170E9482
:101E9000B8178C2F6EC0802F0E948817F8CF8C2F18
:101EA0000E946D0E002379F080E28C0F883010F0D4
:101EB000C11104C0802F0E947B1703C0802F0E9495
:101EC0008E170E94B8172B2D2850330B2430310564
:101ED00020F40E94E2260E943A0DDD2339F0107FA3
:101EE000103611F4C63F11F00E945E17EE2009F47F
:101EF00006C20E94411780FD02C2F60112820E94B2
:101F00003B170E94BE12C6010E94AB110E943B17F4
:101F1000DF91CF911F910F91FF90EF90DF90CF90C5
:101F2000BF907F906F905F904F900C94DF12212FA5
:101F30002F70F22E812F807F803219F0F29480EF83
:101F4000F822CC2341F0C130E9F1DD2309F444C08B
:101F50000023E9F19ECF8091F10382FF15C0DD23BC
:101F600059F0FF2029F08F2D0E9475170E94B81795
:101F700080E00E94DB0DA7CF80E00E946D0EFF2065
:101F800009F4A1CF8F2D97CFDD2381F0011106C079
:101F90000E949B178F290E94E20E95CF0130C1F756
:101FA0000E949B178F290E94A1178DCF011106C097
:101FB0000E94AE178F2D0E94E90E85CF013009F4E3
:101FC00082CFF6CFDD2329F0023008F07CCF8F2DB1
:101FD000E2CF011178CFEECF002361F3C93349F48A
:101FE0003FEF87EE93E0315080409040E1F700C032
:101FF00000008C2F0E946D0E66CF812F86958695EE
:10200000837069F0813009F05ECF8C2F912F93702F
:10201000D11102C090E080E00E942F2754CF8C2F76
:10202000912F9370D11102C090E080E00E94192797
:102030004ACF8C2FDD2329F00E94401D0E94131EE1
:1020400042CF0E949A1DFACF812F837009F043C0BE
:10205000D11139CF2C2F229526952770220F220FD0
:102060006C2F6F70462E512C712C612C022E04C0E7
:10207000440C551C661C771C0A94D2F760E070E093
:10208000CB01C4FF0FC06FE070E080E090E004C0BF
:10209000660F771F881F991F2A95D2F76095709554
:1020A00080959095212F2695269523706429752972
:1020B00086299729223049F058F4213019F00E94DE
:1020C000721201CF0E946012FECE0E948412FBCEDB
:1020D0000E945E12F8CE8695DD2311F0812F81706B
:1020E000882309F4F0CE2C2F229526952770220FF5
:1020F000220F6C2F6F70462E512C712C612C022EEA
:1021000004C0440C551C661C771C0A94D2F760E08E
:1021100070E0CB01C4FF0FC06FE070E080E090E0A2
:1021200004C0660F771F881F991F2A95D2F7609504
:10213000709580959095212F26952695237064297A
:10214000752986299729223049F058F4213019F051
:102150000E943513B8CE0E942313B5CE0E944713B8
:10216000B2CE0E949812AFCE012F0F70DD2329F05E
:10217000802F0E94BE128C2F0ECF8C2F0E94E90E52
:10218000802F0E94DF129FCEC23F39F160F4C03F22
:10219000B9F0C13F81F0DD2309F446C0011179CEC9
:1021A000812F8F711EC0C33FF9F0C43FA1F780910A
:1021B000F10382FF23C0812F8F71DD2311F311C042
:1021C000DD2339F001117FCE812F8F710E94021320
:1021D0007ACE023008F077CEF7CF812F8F71D111F0
:1021E000D0CF0E94BE126FCEDD2329F0812F8F71D8
:1021F0000E94A91268CE0E94A41265CEDD2351F080
:10220000012F0F71802F0E94BE1263E0802F0E9469
:10221000EE1759CE81E00E940918023008F453CE1F
:1022200082E00E9409184FCE002359F0C93309F00B
:10223000E0CEEFEFF7EE23E0E150F0402040E1F791
:10224000D6CE812F8F719DCFE0E1EC0FE73090F576
:10225000F0E0E454FE4C0C940330DD2309F433CE5B
:1022600080916D0291E0892780936D022CCED093EE
:102270006D0229CE81E08D27F7CFD11124CE81E0E8
:10228000F3CFD11120CE10926D021DCEDD2319F0B7
:102290000E94451718CE0E94511715CEDD2339F044
:1022A00080916C028823E1F210926C020CCE002324
:1022B000B9F209CE80916C020023A9F0882341F085
:1022C00080916D0291E0892780936D0210926C02DB
:1022D0008C2FD1114ECE0E946D0E88E0F601119226
:1022E0008A95E9F7F0CD882309F4EDCDD111EBCD36
:1022F00080916D0291E0892780936D02D5CFDF91A7
:10230000CF911F910F91FF90EF90DF90CF90BF90F2
:102310007F906F905F904F9008950F931F93CF938E
:10232000DF93EC018E819F81009779F00E94CA199A
:102330008C010E9459130E945D12B801CE01DF91F9
:10234000CF911F910F910C94F00E688179818A8151
:102350000E94FD13EDCFCF93DF93EC018B819C8125
:10236000892B29F08881998189238F3F59F4DF9146
:10237000CF910895CE010E948D11CE01DF91CF91B2
:102380000C947E0BCE010E94A90B8111F3CF0E9409
:102390006B17882361F38A81882349F38091F103C5
:1023A00082FDE5CF82E0DF91CF910C94091888235C
:1023B00021F00E9488170C94B8170895882321F003
:1023C0000E948E170C94B817089590E080E00E9448
:1023D000192790E080E00E942F270E9495170E9405
:1023E00098170E94B8170E943A1F0C94131E0E945F
:1023F00035170C94E5110E9485170C94F711E92FFD
:10240000E295EF70E250EE3070F4F0E0ED53FE4CE8
:102410000C940330803F19F020F4883E20F481E0D2
:102420000895843FE1F380E00895883EC0F3813F42
:10243000D1F7F5CF93FB882780F90895FC018681B9
:102440009781009721F00E94CA190C94FF11808196
:1024500091810E94F313F9CFCF93DF9300D000D086
:102460000F92CDB7DEB70F900F900F900F900F9097
:10247000DF91CF910895CF93DF93CDB7DEB7289743
:102480000FB6F894DEBF0FBECDBF28960FB6F894F6
:10249000DEBF0FBECDBFDF91CF91089508950C949C
:1024A0004E120E944F126093A9027093AA02809369
:1024B000AB029093AC020C94E51108950C94511268
:1024C0000F931F930091A9021091AA022091AB02D1
:1024D0003091AC02602B712B822B932B1F910F91AB
:1024E0000C9451120F931F930091A9021091AA020C
:1024F0002091AB023091AC0260237123822393239D
:102500001F910F910C9451120F931F930091A902E8
:102510001091AA022091AB023091AC026027712782
:10252000822793271F910F910C9451120C949C0AAF
:102530000E9496126093A5027093A6028093A70250
:102540009093A8020C94E51160E070E0CB010C942C
:1025500098120F931F9341E050E060E070E08A0111
:102560009B0104C0000F111F221F331F8A95D2F751
:10257000C901B8011F910F910C9498120F931F93EA
:1025800041E050E060E070E004C0440F551F661F5A
:10259000771F8A95D2F78091A5029091A602A0910B
:1025A000A702B091A8028A019B01082B192B2A2BA4
:1025B0003B2BC901B8011F910F910C9498120F93F6
:1025C0001F9341E050E060E070E004C0440F551FED
:1025D000661F771F8A95D2F7CB01BA016095709577
:1025E000809590950091A5021091A6022091A702D6
:1025F0003091A80260237123822393231F910F91AE
:102600000C9498120F931F9341E050E060E070E04B
:1026100004C0440F551F661F771F8A95D2F780911B
:10262000A5029091A602A091A702B091A8028A01EA
:102630009B01082719272A273B27C901B8011F91A9
:102640000F910C9498120F931F930091A502109173
:10265000A6022091A7023091A802602B712B822B39
:10266000932B1F910F910C9498120F931F9300912D
:10267000A5021091A6022091A7023091A802602322
:102680007123822393231F910F910C9498120F931F
:102690001F930091A5021091A6022091A7023091EC
:1026A000A80260277127822793271F910F910C940E
:1026B00098120895E92FEE0FE90FEE0F8E0F982F65
:1026C000977041E001C0440F9A95EAF78695869588
:1026D000869595E0899FF0011124E259FD4F30E085
:1026E00020E070E05191DF011197CB01022E02C072
:1026F000969587950A94E2F78170819585278423C2
:1027000085278C932F5F3F4F2530310559F708956A
:10271000E92FEE0FE90FEE0F8E0F982F9770869529
:102720008695869525E0829FF0011124E259FD4FA0
:1027300050E040E080E0219130E0092E02C0369563
:1027400027950A94E2F721703327042E01C0220F47
:102750000A94EAF7822B4F5F5F4F4530510559F7D6
:102760000895BF92CF92DF92EF92FF920F931F9343
:10277000CF93DF938C01C090A502D090A602E09089
:10278000A702F090A8028091A9029091AA02A091BC
:10279000AB02B091AC02C82AD92AEA2AFB2ACFE1BF
:1027A000D0E0BC2ED701C6010C2E04C0B695A7956B
:1027B000979587950A94D2F780FD0EC0219788F7E8
:1027C000B12C8B2DDF91CF911F910F91FF90EF9046
:1027D000DF90CF90BF900895B8018C2F0E94DC1A33
:1027E000019761F3EECFCF93DF93EC010E94B11319
:1027F000BE01DF91CF910C94DC1A1F93CF93DF932E
:10280000EB0190916B02992331F0CB01DF91CF91D5
:102810001F910C94F313882379F0CB010E94B1131C
:10282000182F682FCE010E945A13BE01812FDF910D
:10283000CF911F910C94DC1ACB010E948813182FA2
:10284000F4CFCF93DF93C091AD028091AE028C1391
:1028500003C0DF91CF910895D0E0FE0183E0EE0F39
:10286000FF1F8A95E1F7E155FD4F208131814281BB
:10287000538164817581868197810E943B122196E4
:10288000C770E3CF2091EF023091F0024091F10246
:102890005091F2026091F3027091F4028091F5027E
:1028A0009091F6020C943B120F931F93CF93DF93FA
:1028B0008091F402807FC1F48091F1028823A1F01D
:1028C0008091AD021091AE026091EF027091F00222
:1028D000A091F202B091F302062F0723C091DA0112
:1028E000D091DB01181305C0DF91CF911F910F919B
:1028F000089590E0109711F00F3F19F4019687703A
:10290000F1CF9C0143E0220F331F4A95E1F7F90113
:10291000E155FD4F41814713F1CF40814613EECF82
:1029200042814111EBCF438154814A1B5B0B4C1711
:102930005D0720F78091F4028F7080618093F4022C
:10294000F901EC54FD4F80818F70806180838FEEA0
:1029500092E00E94AB11DF91CF911F910F910C94E7
:102960002114AF92BF92CF92DF92EF92FF920F931A
:102970001F93CF93DF93CDB7DEB765970FB6F8946B
:10298000DEBF0FBECDBF8C0185E0F801DE015196A0
:1029900001900D928A95E1F7F801E2804FEEC42E86
:1029A00042E0D42E6091F2027091F302611571053C
:1029B00009F491C19091EF022091F002892F8223B6
:1029C0008F3F09F488C140815181A380B480F09089
:1029D000F102F501E61BF70BBF01E091DA01F0917E
:1029E000DB01FF2009F42CC18091F402382F307FE5
:1029F0006E177F0708F0D6C0311183C0FE2C251357
:102A00002DC094132BC06091F5027091F602F8016D
:102A1000268137816217730709F5E1101FC08F7097
:102A200080618093F4020E944214C6010E94AB119F
:102A30008091F402F80185838F2D65960FB6F89486
:102A4000DEBF0FBECDBFDF91CF911F910F91FF90E1
:102A5000EF90DF90CF90BF90AF900895AB2829F012
:102A6000842F85238F3F09F04FC180E0F82FF1704C
:102A7000DF2E80FF3CC08091AD022091AE02821318
:102A800015C0498B5A8B89899A890E94F313292F83
:102A900022952F702230F8F0243020F59F70F9F045
:102AA000F8019581907FD9F4D12C1FC090E0FC01F2
:102AB00033E0EE0FFF1F3A95E1F7E155FD4F31810D
:102AC000351306C03081341303C032813E110FC06C
:102AD00001968770D4CF9F7011F0882329F3805E10
:102AE000883010F3C8010E94AB11FD2CA5CFEE2059
:102AF00009F4A2CF8091F40281608093F402F12C5A
:102B00009BCF25131DC094131BC04091F50250911B
:102B1000F602F801268137814217530789F4E11044
:102B20000FC08583C8010E94AB1188E0F801AFEEA9
:102B3000B2E001900D928A95E1F70E9442147CCF99
:102B4000C8010E941E12882349F1EE2039F18091BC
:102B5000F4028032A0F02091EF023091F0023A8727
:102B600029871B86BD86AC868E878091F502909161
:102B7000F602988B8F87CE0109960E94AB1188E0F0
:102B8000F801AFEEB2E001900D928A95E1F70E9454
:102B900054140E944214FF24F3944ECFC8010E94A3
:102BA000AB11F9CF311113C07A2DBD8AAC8A6E2DCD
:102BB0008D890E942C128FEE92E00E94AB1188E06A
:102BC000F60111928A95E9F70E94421498CF2513D5
:102BD00018C0941316C04091F5025091F602F80106
:102BE000268137814217530761F4E1100AC08583BB
:102BF000C8010E94AB1188E0F60111928A95E9F7AD
:102C00001BCFC8010E941E12882341F2EE2031F230
:102C10008091F402803208F4B2CF2091EF0230911B
:102C2000F0023A8329831B82BD82AC828E8380911D
:102C3000F5029091F60298878F83CE0101969DCF81
:102C40006E177F07D8F5FE2CEE2009F4A7CF2513C9
:102C500027C0941325C02091F5023091F602F801A7
:102C60008681978128173907D9F49091F40290FD55
:102C70000EC0907F61F08091F4028583903F09F44B
:102C800051CF982F907F905F8F70892B4ACF88E02B
:102C9000F801AFEEB2E001900D928A95E1F7CCCE4B
:102CA000C8010E941E1281116ACF8091F4028160D6
:102CB0008093F402C8010E94AB11BECE7A2DBD8A6A
:102CC000AC8A6E2D8D890E942C1288E0F60111923B
:102CD0008A95E9F732CFEE2009F460CFC8010E944F
:102CE0001E12F82E882309F459CF88E0F801AFEEC0
:102CF000B2E001900D928A95E1F78FEE92E00E948A
:102D0000C70D0E94541419CF81E08E25AFCECF930A
:102D1000DF93CDB7DEB760970FB6F894DEBF0FBE76
:102D2000CDBF29873A874B875C876D877E878F87E2
:102D3000988BCE0109960E94B1148823D1F08C851E
:102D40009D85892B39F029853A85822F83238F3FF2
:102D500009F074C08091AD029091AE02891348C011
:102D600060960FB6F894DEBF0FBECDBFDF91CF9156
:102D7000089588E0FE013996DE01119601900D92CA
:102D80008A95E1F78C859D85892B21F389859A8524
:102D900089238F3FF9F2A091AE02B0E0CD010196F8
:102DA000877099272091AD022817190671F40E94A7
:102DB000FB111092AE021092AD0288E0EFEEF2E04D
:102DC000DF011D928A95E9F7C5CF93E0AA0FBB1FDB
:102DD0009A95E1F7A155BD4F98E0FE01319601901B
:102DE0000D929A95E1F78093AE020E942114B2CF22
:102DF000B8E08B9FC001112481559D4F0E94B114F2
:102E0000882309F4ADCFE091AD0228E0E29FF00104
:102E10001124E155FD4F208131814281538164812C
:102E20007581868197810E943B128091AD0290E06E
:102E30000196877099278093AD028CCF4B855C8576
:102E40006D857E858F8598890E943B1283CF682F80
:102E50008091DC019091DD010C94D927682F80913D
:102E6000DC019091DD010C94E4278091DC019091CC
:102E7000DD010C94EF278091F80285958595859565
:102E800008958091F8028770089582E08093F70298
:102E900081E080936D0208951092F70210926D0206
:102EA00008958091F702823021F481E08093F70247
:102EB0000895833011F40C944C1708958091F70213
:102EC000823021F483E08093F7020895813011F479
:102ED0000C944C1708959091F802977081E009F4D2
:102EE00080E0089580911C03089590911C03892B24
:102EF00080931C030895809590911C0398239093D0
:102F00001C03089580931C03089510921C030895D8
:102F100090911B03892B80931B03089580959091BA
:102F20001B03982390931B03089510921B0308958D
:102F300010921A0308958091F902089508950C944F
:102F40009E179091F10392FD08C09091F902981795
:102F500021F08093F9020C949F1708958091F90253
:102F6000882329F01092F90280E00C949F170895AD
:102F7000E091DC01F091DD0180911C038083E09100
:102F8000DC01F091DD01808190911B03892B80830E
:102F9000E091DC01F091DD01808190911A03892B91
:102FA00080839091F902992381F0E091DC01F09106
:102FB000DD018081892B80838091DC019091DD018E
:102FC0000E94452781110E94AE178091DC019091EB
:102FD000DD010C94F12608950C94EB179091F10308
:102FE00092FD10C098E0899F90011124622B60939C
:102FF000F8020E94BE128091F8028595859585950C
:103000000C94EC170C94BE121092F80280E00C9411
:10301000EC179091F802809589238093F802282F6D
:10302000277091F4282F082E000C330B92171306EB
:1030300059F09091F10392FD07C08595859585958E
:103040000E94DF120C94041808959091F10392FBF2
:10305000222720F9281769F080FB92F99093F10359
:103060008091F0039091F1030E946A1882E00C9421
:10307000091808958091F10382FB882780F991E077
:1030800089270C94251881E00C94251880E00C9475
:10309000251890E080E00E94423121E0893E9E4F59
:1030A00009F020E0822F089582E090E00C94343102
:1030B00083E090E00C943431CF9384E090E00E9460
:1030C0003431C82F82E290E00E943431982F8C2F47
:1030D000CF910895CF93C92F682F84E090E00E948C
:1030E00048316C2F82E290E0CF910C9448318FE010
:1030F00090E00C943C31AB01BC018FE090E00C946B
:103100005A31AB01BC0183E190E00C945A3160E08C
:1031100070E0CB010C94811869EE7EEF90E080E0C6
:103120000E94663160E082E090E00E94483160E0F9
:1031300083E090E00E9448311092A9021092AA0206
:103140001092AB021092AC0260E084E090E00E942A
:10315000483160E082E290E00E94483160E085E022
:1031600090E00E94483160E086E090E00E944831A3
:103170006FEF87E090E00E94483140E050E0BA01F4
:1031800088E090E00E945A3160E08DE090E00E947B
:10319000483140E050E0BA0188E190E00E945A31A5
:1031A00060E087E190E00E94483140E050E0BA01E1
:1031B0008CE190E00E945A3170E060E080E290E0A3
:1031C0000E94663140E050E0BA0188E190E00E9440
:1031D0005A310C94B8080C948C18682F8EE090E04B
:1031E0000C9448310E949C28609330037093310303
:1031F000809332039093330360932C0370932D03D9
:1032000080932E0390932F03089585B7806885BF20
:1032100085B7806885BF0895089508950C940C19AA
:1032200008950C9410190E9405198AEB9BE10E94E5
:10323000D8260E940D190C940E1981E008950C9463
:103240001D19089508950E9421190C9422190E94B5
:1032500087280E94EB1B0C941119AF92BF92CF925A
:10326000DF92EF92FF920F931F93CF93DF93CDB72F
:10327000DEB72A970FB6F894DEBF0FBECDBF0E940F
:10328000FC1B81110E94F2188EE1A82E83E0B82E5B
:1032900010E000E0C02E802F0E94E41BE82EF50114
:1032A000F1905F01F81609F44DC08091340381FD5F
:1032B0000E94EA1B8F2D8E25D12CFF24F394982F8A
:1032C0009F21D9F10E941F19882399F0DE82CF82B5
:1032D000EF2081E009F480E088870E9490288160D7
:1032E000782F9A8789874E815F8168858A850E94B9
:1032F000770DF801E25EFC4F8081F826F0820E9493
:103300002E1E0E94E22690911D03891791F10E94C2
:10331000E22680931D032A960FB6F894DEBF0FBEF7
:10332000CDBFDF91CF911F910F91FF90EF90DF9074
:10333000CF90BF90AF900C943A0DD394FF0CF6E071
:10334000DF12BDCF0F5F1F4F0E30110509F0A2CF66
:103350008FEF89838A831B820E9490288160782F57
:103360009D838C8349815A816B818D810E94770D69
:10337000C6CF2A960FB6F894DEBF0FBECDBFDF9141
:10338000CF911F910F91FF90EF90DF90CF90BF9062
:10339000AF900895CF93DF930E94E01AEC0181155E
:1033A00022E5920708F047C0811531E5930708F040
:1033B000BAC0883E910530F5803E910508F092C074
:1033C000883A910588F4853A910508F084C08130E7
:1033D000910509F487C0009709F484C0049708F0A8
:1033E00081C0D0E0C0E07EC08F3B9105D0F7C85AC5
:1033F000D0E0CC0FDD1FCB5DDD4F0990D881C02D13
:10340000D46470C08115904250F4C11581E0D80792
:1034100008F068C0CD3ED10520F3D06563C0C1156A
:1034200090E4D907F0F2C11520E5D20708F05EC09C
:10343000DF70D06A57C0811536E5930718F58115FE
:1034400045E5940708F087C0C11584E5D80708F062
:103450007DC09C2F969596959E0123703327C115AC
:10346000D34508F465C0C1E0D0E002C0CC0FDD1F39
:103470002A95E2F730E2939FC0011124C82BD92B83
:10348000DA6830C0C11589E5D80768F4C11598E538
:10349000D90708F06AC0C11527E5D20708F0A1CF07
:1034A000DD27D0661FC0C1153AE5D30708F462C016
:1034B000CE0190568115904208F093CF8D2F8F71D9
:1034C0000E94771B90E0982F882788279F719C0186
:1034D0002C2BE90148C0C55AD0E0CD5ADD4FC88138
:1034E000D0E0D064CE01DF91CF910895CE01E4E029
:1034F00096958795EA95E1F783702C2F269526956A
:10350000237090E2299F90011124382B8C2F837017
:10351000C1E0D0E002C0CC0FDD1F8A95E2F7C22BDC
:10352000D32BDC68DFCFD82FCC27C16FD06ADACF9E
:10353000C1E0D0E002C0CC0FDD1F2A95E2F720E207
:10354000929FC0011124C82BD92BEBCFDC2FCC27A5
:10355000C46FD06AC7CF0E94771BC82FD0E0DC2F82
:10356000CC27CC27DF71D062BDCFDC2FCC27C06F3A
:10357000D06AB8CF8C2F8F700E94771B34E0D6951D
:10358000C7953A95E1F7CF709C2FEC01D069AACF8F
:10359000972F70E026E0929F600D711D1124FB01B2
:1035A00094E5899FE00DF11D1124EE0FFF1FE557F3
:1035B000FB4F8591949108950E94C81A0C94CA19E2
:1035C00082389105B1F1B0F48133910509F475C0E9
:1035D00048F48932910509F469C08A32910509F4E9
:1035E00073C008958533910509F459C08933910555
:1035F00001F10895833E9105A9F138F4803E9105CB
:10360000F9F0823E910549F10895863E9105A9F1B0
:10361000873E9105C9F1843E910519F52091F1038A
:1036200021FF1FC08091F00384FD14C087EE90E05D
:1036300008952091F0032370A1F080EE90E00895AA
:103640002091F00320FD47C03091F10330FF09C005
:1036500024FF44C090E080E004C02091F00322FDEC
:10366000F7CF08952091F00322FD3BC03091F10384
:1036700030FDE3CF24FFF5CFEDCF2091F00323FF02
:10368000F0CF24FDE7CFD2CF2091F00323FD2CC053
:103690003091F10331FFEECF84EE90E00895209158
:1036A000F00325FFDECF89E290E008952091F0033A
:1036B00025FFD7CF85E390E008952091F00326FF02
:1036C000D0CF8AE290E008952091F00326FFC9CF81
:1036D00081E390E0089589E390E0089583EE90E01F
:1036E000089582EE90E0089586EE90E0089590911E
:1036F000F00392FF06C0282F28712830F9F4877F45
:10370000846093FF06C0282F28712831F1F4877E4A
:1037100084612091F10320FF06C0382F38713830C2
:10372000D9F4877F816021FF06C0282F28712831B6
:10373000D1F4877E816194FD877E0895282F2471BE
:103740002430F9F68B7F8860DCCF282F2471243158
:1037500001F78B7E8861DDCF382F3171313019F759
:103760008E7F8860E0CF282F2171213121F78E7E56
:103770008861E1CF80E0089508950E944918811181
:1037800002C00E94EB180E945418809334030E94D8
:103790005C189093F1038093F0030E94BC1B0E947D
:1037A0005818682F70E090E080E00E945E126091EF
:1037B000A5027091A6028091A7029091A8020C9494
:1037C000961208950C94840AE82FF0E0E050FC4F24
:1037D0008081089508950E943B07E2EFF3E0A0E0A6
:1037E000B4E011921D9284E0E030F807D1F78EE04A
:1037F0000E940F1C0C94890BCF9382EF93E00E94E0
:103800004607C82F282F4EE060E074E082EF93E077
:103810000E94221C0E94910B8C2FCF910895CF9370
:10382000C82F90E00E9409308093380390933903A9
:10383000282FFC018E2F821B8C1710F0CF9108953A
:103840001192F8CFDF92EF92FF920F931F93CF93D5
:10385000DF93082FF92EE62ED72E142FC22FD091EA
:103860003503DD2309F448C00E94902820913603D7
:1038700030913703AC01421B530B9A0190933703ED
:10388000809336034F3F510509F0C8F4452B99F05A
:103890001092350310923A0340913803E42FF091CF
:1038A000390390E030E08E2F841B811758F030935D
:1038B000350390933A03C1112DC0CD2F1FC02FEFB8
:1038C00030E0E6CF8081882321F0281720F0108295
:1038D0009D2F3196E8CF821B80833D2FFACF29910F
:1038E0004C91421731F04081411103C030832C9339
:1038F00081E0319611961AC0211106C080913A03D9
:103900008823D1F0C11106C00E94902890933703FC
:10391000809336039091380380913503AE2DBD2DF1
:10392000C02FDF2DE92FF09139033EE12E2F291B07
:103930002117A8F280933503DF91CF911F910F914A
:10394000FF90EF90DF9008950E94AF2A0E94271900
:103950000C94BB2A0E94BF2A0E942D190C94D92ACC
:103960000E941B280E94962A0E9413190E94A41CE0
:103970000E94AA1C0E942319FBCF8091430380FF61
:1039800012C06091E20185E0689FB0011124759535
:1039900067957595679560387105A8F5611571058E
:1039A000A1F1862F089581FF09C06091E20185E0B1
:1039B000689FB001112475956795EDCF6091E20184
:1039C00082FD0AC0809142038823D1F09091E101E9
:1039D0006091E201891728F085E0689FB001112409
:1039E000DACF869FB001112485E0869F9001879FE2
:1039F000300D1124692F70E0C9010E94EF2FCBCF49
:103A000065E070E0CECF8FE7089581E00895809162
:103A1000430380FF0CC06091DF0170E075956795EE
:103A2000759567956115710549F1862F089581FF98
:103A300006C06091DF0170E075956795F3CF6091E6
:103A4000DF0182FD0BC0909141039923A1F06091A9
:103A5000DE018091DF01961738F0682F70E0603842
:103A6000710500F38FE70895899FC001112470E06C
:103A70000E94EF2FF4CF61E070E0D7CF81E008958E
:103A80008D3E31F40E94BD1C8195809347030895BB
:103A90008E3E19F40E94BD1CF8CF8F3E31F40E9477
:103AA000BD1C8195809346030895803F19F40E94C0
:103AB000BD1CF8CF893F29F40E94071D809348035D
:103AC00008958A3F21F40E94071D8195F7CF8B3F0F
:103AD00031F40E94071D81958093490308958C3F1E
:103AE00019F40E94071DF8CF9FE0980F983070F4EA
:103AF000815F990B21E030E001C0220F8A95EAF73F
:103B000080914503822B8093450308958D3F31F4C6
:103B10008091430381608093430308958E3F21F495
:103B2000809143038260F7CF8F3FB9F780914303C1
:103B30008460F1CF409146038D3E59F48091470354
:103B400087FF0DC01092470341110BC01092420332
:103B500008C08E3E81F48091470318169CF34423DD
:103B600081F08091480390914903892B09F05AC054
:103B70001092410308958F3E49F447FFF0CF109211
:103B80004603809147038111ECCFE0CF803F19F4C9
:103B90001416ACF3E4CF90914803893F29F4191629
:103BA000F4F610924803DBCF8A3F19F497FFD7CF82
:103BB000F8CF909149038B3F29F497FFD0CF109213
:103BC0004903CDCF8C3F19F41916CCF3C8CF9FE031
:103BD000980F983090F4815F990B21E030E0B901A3
:103BE00002C0660F771F8A95E2F7CB01809590910E
:103BF0004503892380934503B2CF8D3F31F48091F3
:103C000043038E7F80934303AACF8E3F21F480919C
:103C100043038D7FF7CF8F3F09F0A1CF80914303FE
:103C20008B7FF0CF08950E9490289C0190914603CD
:103C300080914703982B21F03093400320933F035A
:103C40009091480380914903982B21F030933E03D3
:103C500020933D0384E493E00C940B27EF92FF92B2
:103C60000F931F93CF93DF9300D000D000D0CDB738
:103C7000DEB786E0E4E4F3E0DE01119601900D92F8
:103C80008A95E1F7E0904603F090470300914803DE
:103C90001091490310924603109247031092480373
:103CA000109249038E2D8F2991F080913F039091BE
:103CB00040030E94A828AC0190914203992309F483
:103CC0003FC08091E3018417150608F447C0802F98
:103CD000812B91F080913D0390913E030E94A82892
:103CE000AC0190914103992309F477C08091E001E0
:103CF0008417150608F47FC080914603909147030E
:103D0000892B90914803892B90914903892B11F0BD
:103D10000E94131E86E0FE013196A4E4B3E00190F8
:103D20000D928A95E1F726960FB6F894DEBF0FBE86
:103D3000CDBFDF91CF911F910F91FF90EF9008952C
:103D400020913C038AE0289F900111242417350715
:103D500008F0BDCF9F5F9093420302C09F3FD1F711
:103D6000EE2059F00E94BD1C9FEF1E140CF491E050
:103D7000899F802D112480934603FF2059F00E94D3
:103D8000BD1C9FEF1F140CF491E0899F802D11241E
:103D90008093470330914603332309F498CF209151
:103DA0004703222309F493CF45EB3403C0011124C8
:103DB000992359F09093460345EB24039001112475
:103DC000332339F03093470382CF81E08093460359
:103DD000F3CF81E0809347037ACF20913B038AE0C1
:103DE000289F900111242417350708F085CF9F5F85
:103DF0009093410302C09F3FD1F7002359F00E94E6
:103E0000071D9FEF10160CF491E0899F802D11245F
:103E100080934803112359F00E94071D9FEF11164C
:103E20000CF491E0899F802D1124809349033091F7
:103E30004803332309F460CF20914903222309F476
:103E40005BCF45EB3403C0011124992359F09093C3
:103E5000480345EB240390011124332339F03093B8
:103E600049034ACF81E080934803F3CF81E08093F8
:103E7000490342CF86E0E4E4F3E0DF011D928A9536
:103E8000E9F7109242031092410310924303089500
:103E9000CF93DF93EC0197FF0CC0FB018281882355
:103EA00041F00E94961FCE019F770E940D200E9434
:103EB000E51F81E0DF91CF91089590910F0492303A
:103EC00069F48A3048F490E009966AE070E00E9454
:103ED000EF2F875A0C94DA0E8650FCCF0C94DC0C32
:103EE0008CE090E00E943431482F50E070E060E0B8
:103EF00040930F04509310046093110470931204C4
:103F000010924A03843009F4089584E080930F04EA
:103F1000089560910F048CE090E00C944831109269
:103F20004A0384E080930F040C94891F0E94EE26BC
:103F300086958170809314040E94EE268170809390
:103F40000E0480910F04813039F480911404882389
:103F500019F089E30E94DA0E0E947217809313040D
:103F60000E94851780910F04813089F0882359F0D1
:103F7000823091F0843021F18FE39CE90197F1F7D1
:103F800000C00000089582EE0E94DB0DF5CF88E1AD
:103F900093E00E94210BF0CF80910E04811103C0A9
:103FA00083E50E94DA0E82EE0E94DB0D8FE39CE92E
:103FB0000197F1F700C0000087E50E94DA0EDCCF20
:103FC00086EE0E94DA0E88E1F8CF80910F048130EE
:103FD00071F0882341F08230A9F08430E1F08091C3
:103FE00013040C94821782EE0E946D0EF8CF8CE2BF
:103FF0000E94DA0E80911404882389F389E30E94D9
:10400000DA0EEDCF82EE0E946D0E80910E048111CA
:10401000E6CF83E5F4CF88E2F2CF0F931F93CF93DF
:10402000DF938C01CCE0D0E0C8010C2E02C0969545
:1040300087950A94E2F78F700E945D1F2497CC3F0A
:104040008FEFD80789F7DF91CF911F910F910895D6
:104050000F931F93CF93DF93EC018B01FB018281C0
:10406000882361F00E9472178272C13EFCE5DF076F
:10407000E1F060F4C03EECE5DE0799F0B801CE0156
:10408000DF91CF911F910F910C94481FC73EFCE523
:10409000DF07A0F78C2F825E80930F040E94891F98
:1040A000EDCF811104C081E003C08111FCCF8FEFFF
:1040B0000E948F1FE3CFCF93DF93EC01FB0182813E
:1040C000882309F420C1C430FDE5DF07C8F5CB3FE4
:1040D0009CE5D90730F49E0122503C45243131053E
:1040E00098F50E945C189093F1038093F003C0311F
:1040F000FCE5DF0709F4E0C008F061C0C8309CE5CA
:10410000D90709F4CBC088F5C430FCE5DF0709F412
:10411000B3C0E8F4C2309CE5D90709F4A7C0809188
:10412000F0038260C330DC4509F4A3C08091F00342
:104130009091F1030E946A180E94FB1180E004C074
:10414000C236EDE5DE0769F2DF91CF9108958091E7
:10415000F0038061C630FCE5DF0709F48AC008F48B
:104160008FC08091F003806284C08091F0038D7FC6
:10417000CC309CE5D90709F47CC070F48091F00341
:104180008C60CA30FCE5DF0709F473C008F48AC00C
:104190008091F0038E7F6DC08091F003877FCE30D9
:1041A0009CE5D90709F465C08091F0038B7FCF307F
:1041B000DC4508F45EC08091F0038F7E5AC0CD3F8D
:1041C000FCE5DF0709F474C040F5C4319CE5D9076C
:1041D00009F48AC058F4C231FCE5DF0709F474C061
:1041E00008F46EC08091F003837F43C0CB3F9CE511
:1041F000D90709F449C008F04DC0C531DC4509F0C4
:1042000095CF8091F00382FB992790F921E09227C6
:1042100090FB82F990FB83F92CC0C1308DE5D80763
:1042200009F458C088F48091F1038360CF3FECE536
:10423000DE0769F18091F1038D7FC115DD4538F10D
:104240008091F1038C7F23C0C3308DE5D80709F43A
:1042500058C008F452C0C236DD4509F067CF9091CE
:10426000F003892F8F7E94FF806103C08091F0035B
:1042700081608093F0035ACF8091F0038460F9CF7E
:104280008091F0038860F5CF8091F1038160809385
:10429000F1034CCF8091F1038260F9CF8091F0035C
:1042A0008064E7CF0E94FB118091F0038068E1CF2A
:1042B0008091F1038E7FEBCF8091F0038F7DD9CF7A
:1042C0008091F0038F7BD5CF0E94FB118091F0038A
:1042D0008F77CFCF8091F103982F909591708E7F3B
:1042E000892B90FB81F9D3CF0E94FB119091F003B1
:1042F000892F97FB87F98058BCCF81E00E94ED1889
:1043000015CF80E0FBCF81E01FCF08950F931F935F
:10431000CF93DF938091B603E0914B031CE08111B2
:104320001AC0DF91CF911F910F91089501E00E0FF8
:1043300000934B03CE2FD0E0E19FF0011124EA5A05
:10434000FC4F83819481892B29F08081918189237D
:104350008F3FE9F4E02F8091B603E81738F310920D
:10436000B60310924B03DDCF18968D919C918F3F31
:104370009807D1F061E00E9485211C9FF0011D9FEC
:10438000F00D1124EA5AFC4F14821382E3CF1C9FD4
:10439000D0011D9FB00D1124AA5ABC4F16968D91C5
:1043A0009C911797892B01F32081318142815381A0
:1043B00064817581868197810E948716DECF109275
:1043C000B8031092B7032091E5013091E601E8E0CF
:1043D000F1E090E080E02817390709F4089545815D
:1043E000411102C01482168201963796F4CFDC0187
:1043F0006091540380915503962F891301C008954D
:10440000292F30E0F901EE0FFF1FE45BFC4F4081E4
:1044100051814A175B07A1F487E08A9FA0018B9F17
:10442000500D1124485F5E4F81E0FA01848396139A
:10443000E6CF2F5F3F4F2370332720935403089517
:104440002F5F3F4F922F9370D8CF7F928F929F9282
:10445000AF92BF92CF92DF92EF92FF920F931F9392
:10446000CF93DF93EB012C81211165C07090B603CF
:10447000A6E5B3E030E020E0812C61E070E0271594
:1044800008F042C01A96CD90DC901B97A880B980A6
:104490004FEF5FEF912CE92CF12CF701EE0FFF1F8E
:1044A000EA0DFB1D05911491C016D10609F4A70170
:1044B000012B11F09394EFCF4F3F5407C1F1FB0153
:1044C00002C0EE0FFF1F4A95E2F78E2AAB0102C031
:1044D000440F551F9A94E2F741505109841615066E
:1044E00011F54A815B816CE0629FF001639FF00DE2
:1044F0001124EA5AFC4F578346832EEF20832183F1
:104500009187808721E02D83DF91CF911F910F91BB
:10451000FF90EF90DF90CF90BF90AF909F908F90E3
:104520007F900C94F72114961C921E9213972F5F84
:104530003F4F1C96A4CFDF91CF911F910F91FF9019
:10454000EF90DF90CF90BF90AF909F908F907F9033
:1045500008951F93CF93DF93C091540317E0809188
:1045600055038C1307C00E948621DF91CF911F91C4
:104570000C94DF21D0E0FE01EE0FFF1FE45BFC4F47
:1045800080819181189FB001199F700D1124685F7F
:104590007E4F0E9425222196C370E1CFEF92FF92B9
:1045A0001F93CF93DF93FC012081318110E040E025
:1045B00050E0E52FF0E0EE0FFF1FE20FF31FA59193
:1045C000B4911097B9F0FB01C081D18140E005C0E2
:1045D000AE15BF0509F411E04F5FE42FF0E0EE0FD8
:1045E000FF1FEC0FFD1FE590F490E114F10481F73B
:1045F0005F5FDFCF112349F0451708F4CB01DF914E
:10460000CF911F91FF90EF90089590E080E0F7CF59
:104610008091E401882341F18091B9039091BA031C
:10462000009711F10E94A8282091B7033091B80398
:1046300028173907C8F490915403809155039817AF
:1046400059F00E94A9221092B8031092B703109259
:10465000BA031092B90308950E9486211092BA03FA
:104660001092B9030C94DF2108951092BA031092AE
:10467000B9031092E40180915503809354030E9482
:10468000DF210C9486218091E40181110C94352363
:1046900081E08093E40108952F923F924F925F92C0
:1046A0006F927F928F929F92AF92BF92CF92DF9242
:1046B000EF92FF920F931F93CF93DF93CDB7DEB7A7
:1046C00029970FB6F894DEBF0FBECDBF6C013B013A
:1046D000FB011281883FFCE59F07F9F4112321F1CA
:1046E00081E08093E401812F29960FB6F894DEBF14
:1046F0000FBECDBFDF91CF911F910F91FF90EF9033
:10470000DF90CF90BF90AF909F908F907F906F90F1
:104710005F904F903F902F900895893F2CE592072E
:1047200009F04DC0111148C008E011E0F12CE12C56
:10473000198688248394912C8091E5019091E6015B
:10474000E816F90608F445C0F3018281882309F4CC
:104750005EC1F985FF2309F45AC10E949028909305
:10476000BA038093B9038091B603883008F591E0CD
:10477000980F9093B60398E0F301DE011196019033
:104780000D929A95E1F72CE0829FC00111248A5A7C
:104790009C4F28E0FE013196DC0101900D922A9594
:1047A000E1F72FEF3FEFFC0131872087D386C286E8
:1047B00011E0F9851F2797CF0E94352394CF8A3FB8
:1047C0009C4509F0B1CF112309F4AECF0E944323D9
:1047D0008ACFF80160817181AA24AA94BA2C20E0C2
:1047E000422F50E0FA01EE0FFF1FE60FF71F8591F1
:1047F0009491C816D90609F45A01892B11F02F5F3C
:10480000EFCF312CFFEFAF16BF0609F444C0F8011B
:1048100044813090E401832D411180E0F82FF17044
:104820003F2EF80155808681F3019281992309F486
:104830008DC0332009F48AC0511014C0A40101C0F6
:10484000440FAA94EAF7842BF80186838091B7037A
:104850009091B803C29730F462E370E07093B803AC
:104860006093B703C40102C0880F991F2A95E2F72D
:104870000197F80126812817190669F48091B90378
:104880009091BA03009781F00E94A828C39760F026
:1048900021E0F8012483F985F329F9872FEFE21A43
:1048A000F20A095F1F4F48CF2090540390E080E048
:1048B00020915503221215C08017910761F3A22C95
:1048C000B12CF501EE0FFF1FE45BFC4FF182E0829B
:1048D0006FEFA61AB60A73E0A722BB24A092550375
:1048E000DACFA22CB12CF501EE0FFF1FE45BFC4FD9
:1048F0002081318147E0429FC001439F900D1124E8
:10490000BC01685F7E4F2B01B801C2010E94CE221C
:104910000097A9F021E0FC0124838017910709F496
:10492000BACF2091540322120AC04816590639F40E
:1049300095012F5F3F4F23703327209354033FEFA0
:10494000A31AB30A4A2D4370242EB2CF90E051101F
:104950001FC0F40102C0EE0FFF1F2A95E2F79F016E
:10496000215031092817390731F4442309F44DC087
:10497000C7010E94F721C40101C0880FAA94EAF779
:10498000982F9095F801868189238683352C83CFD3
:104990009C010A2C02C0359527950A94E2F7A901DB
:1049A00041705527BC016150710986239723892BDB
:1049B00041F5452B31F1F80182819381892BE1F09A
:1049C0001B821C821D821E82FEEFF983FA830E94E5
:1049D00090288160582F9D838C83F8018281938178
:1049E0008F83988729813A814B816D817E810E94D6
:1049F0008716F8011582BFCF60E0C7010E948521AC
:104A0000F8CFF22FF1705F2EB6CF532CB4CF909128
:104A1000540380915503981719F00E94A922C8CE1B
:104A20000E9486211092BA031092B9030E94DF21DE
:104A3000BFCECF93DF93EB0186319C4511F50E94E9
:104A400072179A81992399F08A7A91E009F490E09B
:104A50009093BB03811109C089E20E9427170E942D
:104A6000B81780E0DF91CF91089585E3F6CF80916C
:104A7000BB03811104C089E20E942E17F0CF85E3A9
:104A8000FBCF81E0EFCF0F931F93CF93DF93C42F22
:104A9000D22FFC0182818823C9F04093BE030E947B
:104AA00090289093BD038093BC0380E28C0F8830E4
:104AB00008F050C0C77081E001C0880FCA95EAF7BE
:104AC000DF91CF911F910F910C94E20E1091BE03D4
:104AD000141335C08091BC039091BD030E94A82897
:104AE000883C910560F5C0E2CD0F1D17B9F080E25A
:104AF000810F883040F4177081E001C0880F1A954B
:104B0000EAF70E94E90EC83048F481E09D2F9770C3
:104B100001C0880F9A95EAF70E94E20E802F0E944A
:104B2000DA0EC830B8F4D77081E001C0880FDA958A
:104B3000EAF7DF91CF911F910F910C94E90E80E27B
:104B40008C0F883038F4C77081E001C0880FCA9597
:104B5000EAF7EFCFDF91CF911F910F9108950F9357
:104B60009C01CB01243F4CE5340759F1A8F4293DC1
:104B7000FCE53F0701F12A3D4CE53407D1F1283D22
:104B80003C4591F406E221EE41EE68ED7CE50E94A1
:104B9000432580E00F910895263FFCE53F07E9F0AB
:104BA000B0F0273F3C45F9F0FC018281882339F1C0
:104BB0001092BE03EFCF07E225EE45EE69ED7CE5EE
:104BC000E6CF06E221EE40EE64EF7CE5E0CF07E2BF
:104BD00025EE44EE65EF7CE5DACF06E221EE42EE0B
:104BE00066EF7CE5D4CF07E225EE46EE67EF7CE585
:104BF000CECF08E221E045EE6AED7CE5C8CF81E04A
:104C0000C9CF1092B9008CE08093B80008959F92AC
:104C1000AF92BF92CF92DF92EF92FF920F931F93CA
:104C2000CF93DF93B82EEB010E9490286C01EE2405
:104C3000E394F12CC431D10560F025E0E22EF12C93
:104C4000CF3FDC0731F0CE0164E170E00E94DB2F42
:104C50007B0184EAA82E94E8992E1092BC00A092C1
:104C6000BC000E9490288C018091BC0087FF0DC081
:104C70008091B900887F883039F18091B900887FB0
:104C8000803111F10FEF1FEF09C00E949028801BA7
:104C9000910B8E159F0540F30EEF1FEFCF3FDC0702
:104CA000E1F2C6010E94A8288C179D07B0F2C80146
:104CB000DF91CF911F910F91FF90EF90DF90CF90F8
:104CC000BF90AF909F900895B092BB009092BC00AF
:104CD0000E9490288C018091BC0087FF0AC08091BF
:104CE000B900887F883111F0803461F610E000E06F
:104CF000DECF0E949028801B910B8E159F0558F3E4
:104D0000CBCF0F931F93CF93DF93EB018093BB0027
:104D100084E88093BC000E9490288C018091BC00A4
:104D200087FF11C02091B900287F81E090E02832F0
:104D300011F490E080E0919581959109DF91CF91F8
:104D40001F910F910895CF3FDC0741F30E949028F7
:104D5000801B910B8C179D0708F38EEF9FEFEECF12
:104D60000F931F93CF93DF93EC0184E88093BC00F3
:104D70000E9490288C018091BC0087FF08C0809120
:104D8000BB0090E0DF91CF911F910F910895CF3F2D
:104D9000DC0789F30E949028801B910B8C179D07DC
:104DA00050F38EEF9FEFEECF84E98093BC0008951F
:104DB000909357028093560208959093C403809372
:104DC000C3030895E091C303F091C403309721F029
:104DD0000190F081E02D099480E008950E94E22680
:104DE0000895E091C303F091C403309799F02091A6
:104DF000F301222359F02091F00327FF07C0DC01C3
:104E00002C9111962C93119726E02C930280F3811C
:104E1000E02D09940895E091C303F091C403309705
:104E200039F022E0DC012C930480F581E02D099417
:104E300008952091C1033091C2032817390771F0FA
:104E40009093C2038093C103E091C303F091C40324
:104E5000309721F00680F781E02D09940895209184
:104E6000BF033091C0032817390771F09093C00336
:104E70008093BF03E091C303F091C403309721F006
:104E80000084F185E02D09940895FC01329680910B
:104E9000F301882321F08091F0039EE187FF96E0E3
:104EA00080E0915008F4089521912223D1F38F5F7F
:104EB000F8CF662301F12091F3012223F1F0209134
:104EC000F00327FF1AC0462F4695469546954E316A
:104ED00090F4677021E030E002C0220F331F6A9522
:104EE000E2F7840F911DFC01828190E02823392391
:104EF00081E0232B69F480E00895FC013296089646
:104F00002191261721F0E817F907D1F7F4CF81E0B6
:104F100008959C01FC0132969FEF80E04191461775
:104F200051F09F3F19F4411101C0982F8F5F8630D7
:104F3000A9F79F3F09F40895290F311D97FD3A9570
:104F4000F90162830895FC01329608962191261397
:104F500003C0DF0111971C92E817F907B9F708950C
:104F6000E62FE695E695E695EE3168F4E80FF92F21
:104F7000F11D677021E030E001C0220F6A95EAF769
:104F80008281822B82830895E62FE695E695E69549
:104F9000EE3170F4E80FF92FF11D677021E030E079
:104FA00001C0220F6A95EAF7209582812823228387
:104FB00008952091F301222329F02091F00327FD89
:104FC0000C94B0270C9489272091F301222329F017
:104FD0002091F00327FD0C94C4270C94A327FC0117
:104FE00032968091F301882351F08091F00387FF7E
:104FF00006C08EE1DF011D928A95E9F7089586E0EB
:10500000F9CF08950C940128811105C081E08093A7
:10501000C5030C94022882E0FACF83E08093C50395
:105020000C9402280C94042881E08093C5030C940E
:1050300002280C941428089580911D04843031F1C5
:105040000E94950B1092C60388E190E020E40FB611
:10505000F894A895809360000FBE2093600083B7FA
:10506000817F846083BF83B7816083BF7894889594
:1050700083B78E7F83BF0FB6F894A89580916000A8
:10508000886180936000109260000FBE08950895BB
:10509000CF930E9498070E94FC1B0E944728C0E003
:1050A0008C2F0E94E41B811105C0CF5FCE30C1F769
:1050B000CF91089581E0FCCF0E94FB110C94030C6A
:1050C0001F921FB61F9211248F939F93AF93BF938C
:1050D0008091C603811113C080911504909116042C
:1050E000A0911704B09118044196A11DB11D8093A1
:1050F000150490931604A0931704B0931804BF915D
:10510000AF919F918F911F901FBE1F90189582E0C5
:1051100084BD93E095BD9AEF97BD80936E0008958E
:105120002FB7F8948091150490911604A09117045C
:10513000B09118042FBF08952FB7F894609115040B
:105140007091160480911704909118042FBF089550
:105150009C014FB7F8948091150490911604A0918A
:105160001704B09118044FBF821B930B08957894D5
:105170001F921FB61F9211248F939F93AF93BF93DB
:105180008091150490911604A0911704B091180411
:105190000196A11DB11D8093150490931604A09350
:1051A0001704B0931804BF91AF919F918F911F90F6
:1051B0001FBE1F901895F89481E08093E00080E274
:1051C0008093D800E9ECF0E010828FE19EE4019733
:1051D000F1F700C000001DBA109268001CBC10BEA0
:1051E0001FBA10927A0010926E0010926F00109207
:1051F0007100109272001082ECEBF0E0108214B893
:1052000017B81AB81DB810BA108215B818B81BB85C
:105210001EB811BA0C94003F08958091EA030895D6
:1052200008959C0182E08093E9009FEF8091E8005F
:10523000915085FD06C085ED8A95F1F7000091112A
:10524000F5CF8091E80085FF0CC050E040E066E0BB
:1052500070E0C9010E944A2B8091E8008E7780930C
:10526000E8000895CF93DF93EC018091F301882348
:10527000B1F18091F00387FF32C060E282E0809359
:10528000E9008FEF9091E800815095FD06C095ED03
:105290009A95F1F700008111F5CF8091E80085FF24
:1052A0001BC08091F30170E050E040E0811104C028
:1052B00050E040E068E070E0CE010E944A2B80910F
:1052C000E8008E778093E80080E2FE01AAECB3E06C
:1052D00001900D928A95E1F7DF91CF91089568E0F2
:1052E00081E0CDCF8093C7037093C9036093C80357
:1052F00080911D04843001F582E08093E9008FEFF6
:105300009091E800815095FD06C095ED9A95F1F7D2
:1053100000008111F5CF8091E80085FF0DC050E0BD
:1053200040E063E070E087EC93E00E944A2B8091BC
:10533000E8008E778093E8000895BC0184E00C9427
:105340007229BC0183E00C94722980911C048111A4
:1053500009C00E94DA2C0E94372D8091E2008460FF
:105360008093E200089510921C0408950C94142870
:105370006091190481E0611101C080E00C940D2856
:1053800090911D0481E0943009F080E0609119044F
:105390000C94122842E061EC81E00E94562C42E21B
:1053A00061EC82E00E94562C90911D0481E09430C3
:1053B00009F080E0609119040C94042880911F0486
:1053C000833009F460C030F48130C9F1823009F4CF
:1053D0009CC008958A3009F488C08B3009F46EC0EF
:1053E000893009F04FC080911E04813209F04AC013
:1053F0008091220490912304029708F043C0809189
:10540000E800877F8093E8008091E80082FF36C043
:105410009091F3008091F200029731F48091F100B5
:10542000813011F0863021F48091F1008093EA03FD
:105430008091E8008B778093E8000C948A2C80910F
:105440001E04813AF9F48091E800877F8093E80098
:105450008091220490912304892B61F460E28AEC0C
:1054600093E070E00E94992B8091E8008B77809305
:10547000E800089560E090E080E0F3CF80911D04A3
:105480008111C2CF089580911E04813AD9F780918D
:10549000220490912304892BA9F78091E800877F4B
:1054A0008093E8008091E80080FFFCCF8091F301B9
:1054B0008093F1008091E8008E77BDCF80911E042B
:1054C000813201F78091220490912304892BD1F637
:1054D0008091E800877F8093E8000E948A2C809169
:1054E00020048093F3010C94FB1180911E048132FF
:1054F00049F68091E800877F8093E8000E948A2C1B
:10550000809121048093EB03089580911E04813AD9
:1055100009F0B8CF8091E800877F8093E800809100
:10552000E80080FFFCCF8091EB03C2CF84B7877F78
:1055300084BF0FB6F894A89580916000886180932D
:105540006000109260000FBE80E890E00FB6F89403
:1055500080936100909361000FBE0C9419280E9403
:10556000DA2C0E94372DE2EEF0E0808184608083A7
:1055700078940C94C02F87EE91E00C94DD268091F6
:105580001D048530A9F480911D04853011F00C9420
:105590005C280E941C2880911B048823A1F30E9490
:1055A0004828882381F30E94342B0E94FB11EBCF03
:1055B000089508950C94DC2A292F332723303105D0
:1055C00019F168F42130310509F444C02230310565
:1055D00009F445C090E080E030E020E025C02132B1
:1055E000310549F122323105A9F780E490E02AEA39
:1055F0003CE061157105C1F086EB90E024EF3BE0E3
:105600006130710589F0E6CF99278130910581F0ED
:10561000009729F00297F1F6E1E6FBE002C0E3EA29
:10562000FBE0849190E09F01FA013183208308958B
:10563000E9E7FBE0F6CF89E090E029EB3BE061157C
:10564000710591F389E090E022ED3BE06130710556
:1056500059F3C0CF82E190E022EE3BE0E5CF8BE34F
:1056600090E027EA3BE0E0CF80E189BD82E189BD9F
:1056700009B400FEFDCF8091D8008F7D8093D800C3
:105680008091E00082608093E0008091E00081FDE5
:10569000FCCF0895AF92BF92CF92DF92FF920F930B
:1056A0001F93CF93DF936C01EB018A010E94A92C19
:1056B000F82E811123C00115110539F0F801808100
:1056C0009181C81BD90BC80ED91EB12CA12C2097D3
:1056D000A9F08091E80085FD22C08091E8008E77D6
:1056E0008093E80001151105A1F0F80180819181F6
:1056F000A80EB91EB182A08285E0F82E8F2DDF9111
:10570000CF911F910F91FF90DF90CF90BF90AF90FE
:1057100008950E94A92C8823D1F2F82EEFCFF6012C
:1057200081916F018093F1002197FFEFAF1ABF0ABB
:10573000CECFFC0180912404909125048617970711
:10574000A0F06115710529F49091E8009E7790937F
:10575000E80090E06115710551F4911108C0809145
:10576000E80082FF34C080E00895BC01F2CF809150
:105770001D048823C1F18530C1F18091E80083FDCB
:1057800030C08091E80082FDEACF8091E80080FF80
:10579000E1CF8091F3002091F200382F611571055F
:1057A00019F02830310558F091E02830310509F022
:1057B00090E02091E8002E772093E800CBCF8191F4
:1057C0008093F100615071092F5F3F4FE7CF8091C7
:1057D0001D04882341F0853041F08091E80083FF6B
:1057E000BECF81E0089582E0089583E00895FC0132
:1057F000809124049091250486179707A0F06115E5
:10580000710529F48091E8008E778093E80090E09C
:105810006115710551F4911108C08091E80082FF73
:1058200035C080E00895BC01F2CF80911D0488232B
:10583000C9F18530C9F18091E80083FD31C08091C4
:10584000E80082FDEACF8091E80080FFE1CF8091FF
:10585000F3002091F200382F6115710519F02830FE
:10586000310558F091E02830310509F090E0809141
:10587000E8008E778093E800CBCF84918093F1008D
:105880003196615071092F5F3F4FE6CF80911D0423
:10589000882341F0853041F08091E80083FFBDCF3F
:1058A00081E0089582E0089583E00895982F97306D
:1058B00028F08F708093E90081E008959093E900CB
:1058C000242F762F50E0981731F07091EC00209142
:1058D000ED005091F00021FD02C09F5FE8CF3091B4
:1058E000EB003E7F3093EB003091ED003D7F309335
:1058F000ED003091EB0031603093EB007093EC00E1
:105900002093ED005093F0002091EE0027FDE5CFAD
:1059100080E0089580911E0487FF13C08091E80005
:1059200082FF06C08091E8008B778093E80004C076
:1059300080911D048111F2CF089580911D04882368
:10594000D9F38091E80080FFF8CF8091E8008E774E
:10595000ECCF2091E4003091E50095E6A90120917B
:10596000EC00822F817020FF06C08091E80080FF4C
:1059700006C080E008952091E80022FD1AC08091C1
:105980001D04882389F0853089F08091EB0085FD26
:105990000FC02091E4003091E50042175307F9F25F
:1059A0009150E1F684E0089582E0089583E008953F
:1059B00081E008950E94482D0E94502DE0EEF0E015
:1059C000808181608083E8EDF0E080818F77808343
:1059D00019BCA7EDB0E08C918E7F8C9380818F7E77
:1059E000808310921C0408950F931F93CF93DF932D
:1059F0000E94482D0E94502DC8EDD0E088818F77FD
:105A0000888388818068888388818F7D888319BC9A
:105A100010921D041092190410921B0410921A0483
:105A200000EE10E0F80180818B7F808388818160A7
:105A3000888342E060E080E00E94562CE1EEF0E0D6
:105A400080818E7F8083E2EEF0E0808181608083C0
:105A5000808188608083F80180818E7F8083888147
:105A600080618883DF91CF911F910F910895E8EDB8
:105A7000F0E080818F7E8083E7EDF0E080818160BF
:105A8000808384E082BF81E080931C040C94F42C1A
:105A9000E8EDF0E080818E7F80831092E20008952F
:105AA0001092DA001092E10008951F920F920FB643
:105AB0000F9211242F933F934F935F936F937F9394
:105AC0008F939F93AF93BF93EF93FF938091E100E8
:105AD00082FF0BC08091E20082FF07C08091E1004D
