:100000000C942C060C9449060C9449060C94490651
:100010000C9449060C9449060C9449060C94490624
:100020000C9449060C9449060C94C72C0C949B2DF7
:100030000C94D2270C9449060C9449060C9449065A
:100040000C9449060C9449060C9449060C944906F4
:100050000C9449060C9429280C9449060C944906E2
:100060000C9449060C9449060C9449060C944906D4
:100070000C9449060C9449060C9449060C944906C4
:100080000C9449060C9449060C9449060C944906B4
:100090000C9449060C9449060C9449060C944906A4
:1000A0000C9449060C9449060C944906000D010D68
:1000B000020D030D040D050D000C010C020C030CC8
:1000C000040C050C000B010B020B030B040B050BBE
:1000D000000A010A020A030A040A050A00090109C2
:1000E00002090309040905090008010802080308B8
:1000F00004080508000701070207030704070507AE
:1001000000060106020603060406050600050105B1
:1001100002050305040505050004010402040304A7
:10012000040405040003010302030303040305039D
:1001300000020102020203020402050200010101A1
:100140000201030104010501000001000200030097
:1001500004000500636F756C64007468616E6B73F6
:10016000003D3E207B7D01015001012800636F6E40
:10017000737400796F7527726500267265673B009E
:100180002674726164653B00266465673B0077698D
:10019000746800796F7500796F7572006D616B65B9
:1001A00000636F6D007468656D65207761746368C6
:1001B000202D6520006769742070756C6C0067697C
:1001C000742070757368206F726967696E200067AC
:1001D000697420636F6D6D6974202D6D202222017A
:1001E00001500067697420616464202E00272B444D
:1001F000454C4554455F4D4554414649454C442B7B
:100200000068747470733A2F2F692E7974696D6762
:100210002E636F6D2F76692F2F6871646566617527
:100220006C742E6A70670101500101500101500188
:100230000150010150010150010150010150010123
:1002400050010150010150010150010150010150C4
:10025000007374796C653D222201015000636C616A
:1002600073733D222201015000636C6173734E6110
:100270006D653D2222010150006C6566743A2030A4
:100280003B01012800746F703A20303B01012800C7
:100290006865696768743A20313030253B01012870
:1002A0000077696474683A20313030253B010128B9
:1002B00000706F736974696F6E3A206162736F6C5E
:1002C0007574653B01012800636F6E74656E743A46
:1002D0002027273B010128007B252072656E64657D
:1002E000722027696D672720776974682020257D33
:1002F000010150010150010150007B252072656E03
:100300006465722020257D010150010150010150DA
:10031000007C20617070656E643A2027007B252088
:1003200061737369676E2020257D010150010150C2
:1003300001015000616C69676E2D6974656D732DE4
:10034000006A7573746966792D636F6E74656E7477
:100350002D000102E0650103E0006C6974652D79F0
:100360006F75747562652E5B766964656F6964206C
:10037000706C61796C6162656C5D00636F6E736F48
:100380006C652E6C6F672829010150006469762E18
:10039000636F6E7461696E657201012B0001012B40
:1003A00000696D672E5B6C6F6164696E673D226CDE
:1003B000617A79222077696474683D222220686519
:1003C000696768743D22225D00436861726C6573E1
:1003D0002043686175007B252020257D01015001A7
:1003E000015001015000433A5C55736572735C55CE
:1003F0007365725C736F757263655C576F726B7354
:1004000070616365735C53686F706966795C007BCB
:100410002520656E64636F6D6D656E7420257D00AB
:100420007B2520636F6D6D656E7420257D0029002E
:100430002B002A00E100504300001E0014000400BD
:100440001D444F4501001F001A0015001B005200FB
:100450004C00200009001600060051002B6121000D
:100460001300170019002841390022000A00070074
:10047000050000002A6401000100000001000000E6
:10048000B15D01000100000001000000E300230055
:100490000D000B000E000000284224000F00110088
:1004A00010002C002B7225001800080036003100C7
:1004B0004C0026001C000C0037002F00E400270031
:1004C000330012003800300001002E0034002D00EF
:1004D000E50035430000010001004C00010001006F
:1004E00000003C043C0404011D011D0301002C001C
:1004F0001A0115011B01B6000100360109011601A0
:100500000611370301004B010A03170119113603C5
:1005100001004E010F030701051300000100010057
:1005200001000000010000000100010001000000C6
:1005300001000000E0003F004A022F0226020000F6
:10054000E2004B004A005000340201004A124E0003
:10055000520051002E000100E10026024D004F0024
:1005600034000100010027024D0230022702010081
:100570004D02460001003100E500010000000100CD
:100580000100390001000100000001000100F1003C
:100590000100010001000100F900EF00F20001007C
:1005A000FE000100ED00EE00F3000100FF0001007D
:1005B000FA00F000F100010001000100B700B600F0
:1005C0000100000001000100010000000100000026
:1005D0000100010001000000010000000100B50061
:1005E00001000100010000000100B6004A005000B7
:1005F000190101000100F300520051000601010041
:10060000E100B7004D004F001B01AA0001000100EE
:10061000010030021D01A90001000F080100310096
:100620000100010000000100AB5D39000100010084
:1006300000003A00AB5DB25DAC5D010001003B0023
:10064000B35DB05D0100C05D01003C00B45DAE5D16
:10065000A95DC15D01003D001301AC5DAA5D010013
:1006600001003E00BA5DB95DB85D00000100010007
:100670000100000001000000010001000100000075
:100680000100000001003F0054005500010000007F
:1006900001004000240021001E0001000100410073
:1006A000250022001F00270027004200260023000B
:1006B000200037002E0043005600570001000100C3
:1006C0000100440045002E0001000100000001006F
:1006D0000100010001000100000001000100010013
:1006E00001000100010001000100B65D1A070100D0
:1006F000010001000100B55D0C05010001000100D1
:100700001301B75D06050805010001000A0101009B
:1007100001000000010001000100000001000000D4
:1007200001000100010000000100000001000100C3
:1007300001000100010000000100010001000100B2
:1007400001000100010001000100010001000100A1
:100750000100010001000100010001000100010091
:100760000100010001000100010001000100010081
:10077000010001000000065101000100010001001C
:100780000000010001000100010001000100010062
:100790000100010001004B01010001000100010006
:1007A00001004E01010001000100010001000805E7
:1007B0000100010001000100010000000100010032
:1007C0000100000001000000010001000100000024
:1007D0000100000001000100010001000100000013
:1007E0000100010001000100010001000100010001
:1007F00001000100010001000100010001000100F1
:1008000001000100010001000100010001000100E0
:1008100001000100010001000100010000000100D1
:1008200001000100010001000000010001000100C1
:1008300001000100010001000100010001000100B0
:1008400001000100010001000100010001000100A0
:100850000100010001000100010001000100010090
:100860000100000001000100010000000100000083
:100870000100010001000000010000000100010072
:100880000100010001000000010001000100010061
:100890000100010001000100010001000100010050
:1008A0000100010001000100010001000100010040
:1008B00001000100010001000100005C01000100D5
:1008C0000100010000000100010001000100010021
:1008D0000000010001000100010001000100010011
:1008E000240021001E003700010001002500220025
:1008F0001F00270001000100260023002000010046
:1009000001000100010001000100000001000100E0
:1009100001000000010000000100010001000000D2
:1009200001000000010001000100010001000000C1
:1009300001000100010001000100010001000100AF
:10094000010001000100010001000100010001009F
:10095000010001000100010001000100010001008F
:10096000010001000100010001000100000006007B
:1009700012000700000017000E00160000000F0014
:10098000070000000600170000001C001500000012
:10099000150008000A0000001700150008000000FC
:1009A00007001500080000001C00180000001800D7
:1009B000150000001A003800000010000E000000B2
:1009C00006001000000017000B0008001A000000CD
:1009D0000B000C00180000000B000C0013000000BE
:1009E0000B000C00060000000B000C0004000000CF
:1009F00016000C000A0000000700100008000000AC
:100A00000C00170004000000160017001C00000076
:100A100006000F00000006000F00080000000000A4
:100A20000000000000002A2B280000000000000049
:100A300000000000000000000029000000002C1E43
:100A40003420212224342627252E362D3738271E00
:100A50001F202122232425263333362E37381F0426
:100A600005060708090A0B0C0D0E0F1011121314BE
:100A700015161718191A1B1C1D2F3130232D35047C
:100A800005060708090A0B0C0D0E0F10111213149E
:100A900015161718191A1B1C1D2F3130354C000064
:100AA0000000000000000000000000000000000046
:100AB0000000000000000000000000000000000036
:100AC00000007E0F00D4FFFFFFC700000078160370
:100AD0004500720067006F0044006F00780020003E
:100AE00045005A00000028035A005300410020002E
:100AF00054006500630068006E006F006C006F00BA
:100B00006700790020004C00610062007300000063
:100B10000403090409023B00020100A0FA090400D1
:100B20000001030101000921110100012240000719
:100B300005810308000A09040100010300000009FF
:100B4000211101000122B6000705820320000A12CC
:100B50000100020000000897327449010001020000
:100B60000105010902A10185020901A10005091978
:100B70000129081500250195087501810205010963
:100B80003009311581257F950275088106093815D0
:100B900081257F950175088106050C0A38021581AB
:100BA000257F950175088106C0C005010980A10156
:100BB000850319012AB700150126B70095017510A4
:100BC0008100C0050C0901A101850419012AA002B8
:100BD000150126A002950175108100C005010906C6
:100BE000A1018506050719E029E7150025019508EB
:100BF000750181020507190029EF1500250195F0FF
:100C000075018102050819012905950575019102F3
:100C1000950175039101C005010906A10105071998
:100C2000E029E715002501950875018102950175F8
:100C30000881010507190029FF150026FF00950608
:100C400075088100050819012905950575019102AE
:100C5000950175039101C00011241FBECFEFDAE0AA
:100C6000DEBFCDBF12E0A0E0B1E0ECE8F2E602C0EA
:100C700005900D92A433B107D9F724E0A4E3B2E0C4
:100C800001C01D92A730B207E1F70E94471C0C94E7
:100C9000EE300C9400008098889A8198899A849804
:100CA0008C9A85988D9A86988E9A87988F9A0895AF
:100CB000209828982198299822982A9823982B9848
:100CC00052985A9853985B983E9846980895CF93B7
:100CD000C82F873070F58091060190910701892B0C
:100CE00089F564E670E080E40E947925909307011D
:100CF00080930601892BD1F464E670E082E10E94C2
:100D0000F3259093070180930601892B79F481E004
:100D100090E001C0880FCA95EAF764E670E080951C
:100D20000E94F3259093070180930601CF910C94C4
:100D300046268A30B9F040F4883071F0893079F075
:100D4000209A2898CF9108958C3091F070F08D30D2
:100D5000B9F73E9A4698F6CF219A2998F3CF229A6E
:100D60002A98F0CF239A2B98EDCF529A5A98EACF2F
:100D7000539A5B98E7CFCF93873050F58091060167
:100D800090910701C0E0892B71F464E670E081E482
:100D90000E9479259093070180930601892B31F0F9
:100DA000C0E00E9446268C2FCF91089584E690E003
:100DB0000E94222697FF05C09093070180930601A9
:100DC000EFCFC82FC0951092070110920601E9CF0E
:100DD000CFB18FB1869586958C73C3708C2BC82F3D
:100DE000C095E1CF0E94F80790E0909307018093AF
:100DF00006010E9458060C944B06EF92FF920F9347
:100E00001F93CF93DF938091060190910701892B67
:100E100091F0809136028F5F8093360281110BC072
:100E20000E94F80790E09093070180930601892BB8
:100E300011F40E948D070FEC13E0C0E0D0E087E0D2
:100E4000E82EEC0E8C2F0E9467068E2D0E946706FE
:100E50008C2F0E94BB06F8019081F12C891719F0A4
:100E60008083FF24F3948E2D0E94BB06F8019781A6
:100E7000891799F0878381E08F29D82B0E94580623
:100E8000CF5F0F5F1F4FC730D1F68D2FDF91CF910E
:100E90001F910F91FF90EF90089580E0EDCF0E9499
:100EA000F80790E090930701809306010E9458068E
:100EB0000E944B06EDEDF3E0119283E0EB3EF80764
:100EC000D9F70895259A2D9A0895269A2E9A08956D
:100ED000279A2F9A089556985E98089525982D98E8
:100EE000089526982E98089527982F9808950E947F
:100EF0006B070E946E070E9471070C94740790E0C4
:100F0000909389008093880090938B0080938A004F
:100F100090938D0080938C0008950E9477078FEF47
:100F20000E947F070E9462072FEF80E792E0215026
:100F300080409040E1F700C000000E9465072FEF5D
:100F400080E792E0215080409040E1F700C000002F
:100F50000E9468072FEF80E792E021508040904088
:100F6000E1F700C000000E946E072FEF80E792E0DB
:100F7000215080409040E1F700C000000E947107BE
:100F80002FEF80E792E0215080409040E1F700C0D1
:100F900000000E9474070C94770789EA8093800010
:100FA00089E08093810024982C983F988AB18F7CA7
:100FB0008AB96E98479A8BB180638BB9769A0E94F2
:100FC0000E186093C9037093CA038093CB03909368
:100FD000CC0367702FEF629FC00111249595879510
:100FE000959587950E947F070E948D070C94781B2A
:100FF00080E290E090930701809306018091370290
:1010000081110EC00E94732581E0809337022FEF7B
:1010100083ED90E3215080409040E1F700C0000054
:1010200064E670E080E40E94792590930701809344
:101030000601892B09F04EC064E670E080E00E9452
:10104000F3259093070180930601892B09F042C094
:1010500064E670E080E00E94F3259093070180939E
:101060000601892BB9F564E670E08FE30E94F32551
:101070009093070180930601892B61F50E94462613
:1010800064E670E080E40E947925909307018093E4
:101090000601892BF9F464E670E08CE00E94F325E8
:1010A0009093070180930601892BA1F464E670E018
:1010B00080E00E94F3259093070180930601892B1D
:1010C00049F464E670E08FE30E94F32590930701F2
:1010D000809306010E944626809106010895109291
:1010E000C9031092CA031092CB031092CC0384E080
:1010F00080618093C9036091C9037091CA03809194
:10110000CB039091CC030E9412180C941E18CF931D
:10111000DB01875A9D458B329105A8F4FC01E05113
:10112000FF4C0C94752F1296CC91CC2319F00E9491
:101130008218C0E08C2FCF9108951296CC9180E256
:1011400094E0C11108C0C1E0F5CF1296CC918FE0B8
:1011500094E0CC23C1F30E94700CECCF1296CC919A
:1011600086EE93E0CC2379F3F6CF1296CC9186ED00
:1011700093E0CC2341F3EFCF1296CC9189EC93E02E
:10118000CC2309F3E8CF1296CC91CC23E1F281EA8B
:1011900093E00E94700C8DE993E0DDCF1296CC9124
:1011A000CC2389F282EE0E94720D8CE20E94710EB5
:1011B00082EE0E94040E81E10E94710EBBCF129656
:1011C000CC918CE893E0CC2309F4BDCFC4CF129628
:1011D000CC918BE793E0CC2309F4B5CFBCCF12962A
:1011E000CC91CC2309F4AFCF8AE593E00E94700C38
:1011F00082E593E0B0CF1296CC91CC23A1F0809100
:101200003A02811106C081E080933A0282EE0E9488
:10121000720D0E94022890933902809338028BE26B
:101220000E94720D87CF8BE20E94040E8CCF129623
:10123000CC9181E493E0CC2309F485CF8CCF129636
:10124000CC9184E393E0CC2309F47DCF84CF129634
:10125000CC918DE193E0CC2309F475CF7CCF12962D
:10126000CC9181E193E0CC2309F46DCF74CF129639
:10127000CC918AEF92E0CC2309F465CF6CCF129623
:10128000CC9188ED92E0CC2309F45DCF64CF129627
:10129000CC91CC2309F457CF88EC92E00E94700CDB
:1012A00081EB92E00E94700C81EA92E00E94700C47
:1012B00080E992E00E94700C85E892E00E94700C38
:1012C00089E792E048CF1296CC9189E692E0CC2350
:1012D00009F439CF40CF1296CC918DE592E0CC2322
:1012E00009F431CF38CF1296CC9181E592E0CC232E
:1012F00009F429CF30CF1296CC9181E092E0CC2333
:1013000009F421CF28CF1296CC918DEE91E0CC2319
:1013100009F419CF20CF1296CC9183EE91E0CC2323
:1013200009F411CF18CF1296CC918FEC91E0CC2319
:1013300009F409CF10CF1296CC918EEB91E0CC231B
:1013400009F401CF08CF1296CC9185EB91E0CC2324
:1013500009F4F9CE00CF1296CC9185EA91E0CC2326
:1013600009F4F1CEF8CE1296CC9181EA91E0CC232B
:1013700009F4E9CEF0CE1296CC918CE991E0CC2321
:1013800009F4E1CEE8CE1296CC9187E991E0CC2326
:1013900009F4D9CEE0CE1296CC9183E991E0CC232A
:1013A00009F4D1CED8CE1296CC918EE891E0CC2320
:1013B00009F4C9CED0CE1296CC9188E891E0CC2326
:1013C00009F4C1CEC8CE1296CC9180E891E0CC232E
:1013D00009F4B9CEC0CE1296CC918AE791E0CC2325
:1013E00009F4B1CEB8CE1296CC9183E791E0CC232C
:1013F00009F4A9CEB0CE1296CC918DE691E0CC2323
:1014000009F4A1CEA8CE1296CC9181E691E0CC232E
:1014100009F499CEA0CE1296CC918AE591E0CC2326
:1014200009F491CE98CE1296CC91CC2309F48BCEB0
:1014300084E591E090CE80913A02882371F080910A
:101440003802909139020E941A288139914028F07F
:1014500082EE0E94040E10923A02089581FD0C94CF
:1014600068070C947407CF92DF92EF92FF92CF93AC
:101470006B017C010E947D0CC82F0E946B070E94AB
:1014800071070E946E07C23081F0C33061F0C13035
:1014900011F40E946207C701B601CF91FF90EF904F
:1014A000DF90CF9008950E9462070E946507F3CFF6
:1014B0009C013A9521153F4150F5FC01EE27F17052
:1014C000BC0166277270AC01442754709C0122272E
:1014D000387094FF0EC080E1EF2B09F480E0672B99
:1014E00009F08062452B09F08064232B89F0806825
:1014F000089581E0EF2B09F480E0672B09F082600A
:10150000452B09F08460232B19F08860089580E052
:101510000895CF93DF93EC010E94580A9E01205E4C
:1015200031092830310510F0209739F40E94790EE6
:101530008C2FDF91CF910C94720D0E946E11F8CF19
:10154000CF93DF93EC010E94040ECE010E94580A53
:101550009E01205E31092830310510F0CD2B21F499
:10156000DF91CF910C94800EDF91CF910C94751187
:10157000CF93DF93EC010E94890ACE01DF91CF91D6
:101580000C94A00A81E008950C94870808950C94A7
:10159000C60A1F93CF93DF9300D000D00F92CDB730
:1015A000DEB749835A836B833091490289819A81DE
:1015B00031111DC06623B9F02223A9F00E944813FF
:1015C000182F682F89819A810E94F11269817A818E
:1015D000812F0F900F900F900F900F90DF91CF9170
:1015E0001F910C945F1A0E941F13182FEFCF0E94B7
:1015F000481369817A81EDCFFC01262F868197817E
:10160000009739F4408151816281738184810C9407
:10161000C90A0895CF93DF93EC0161E00E94FC0AB0
:10162000BE01DF91CF910C94BE22CF93DF93EC01EA
:1016300060E00E94FC0ABE01DF91CF910C94C70AC2
:101640000E94541B0E94D00C0E94071F0C94CD07CF
:101650000E947A220C94791B80E00C94D10C08959E
:1016600008950E9492110E94300B2FEF84E39CE0BA
:10167000215080409040E1F700C000000C944D28BC
:101680000F931F93CF93DF938C0161E00E94FC0ABC
:10169000EC01B8010E94C40A8823D9F1B801CE0137
:1016A0000E94AF1F8823A9F1B801CE010E94212515
:1016B000882379F1B801CE010E94CD1F882349F11A
:1016C000B801CE010E948B24882319F1F801828190
:1016D000882361F0CB35FDE5DF0721F170F4C115FA
:1016E000ECE5DE07A1F0CF3DDC45C9F0C801DF9194
:1016F000CF911F910F910C94C20ACC358DE5D8077C
:10170000A1F0CD35DD4591F70E94D117EFCF0E94B2
:10171000310B80E0DF91CF911F910F9108950E94CE
:101720008218F7CF0E94DA17E1CF0E94DD17DECFD3
:101730000C942F0B0E9454260E94D10C0C94980BF1
:10174000DF92EF92FF920F931F93CF93DF93E82FD7
:10175000F0E0E25EF54FD490282F26952695269549
:1017600030E0F901E254F54F0491877010E0082E43
:1017700002C0159507950A94E2F701701127F90147
:10178000E255F54FE490F12C082E02C0F594E79451
:101790000A94E2F791E0E922FF24F901E256F54FBD
:1017A000C491D0E002C0D595C7958A95E2F7C17083
:1017B000DD270115110519F081EE0E94720DE1146B
:1017C000F10419F086EE0E94720D8D2D0E94710EAB
:1017D000EF2819F086EE0E94040E012B19F081EE1D
:1017E0000E94040ECD2B51F08CE2DF91CF911F911E
:1017F0000F91FF90EF90DF900C94710EDF91CF91DD
:101800001F910F91FF90EF90DF900895EF92FF925C
:101810000F931F93CF93DF938C01F62E8AE0E82E6F
:10182000F8018491882309F454C0813009F04DC037
:10183000E8012196FE018491813091F42196FE0108
:1018400084910E94710E8E010F5F1F4F8F2D81506A
:1018500038F3EFE9FFE03197F1F700C00000F7CF70
:10186000823039F4E8012296FE0184910E94720DC3
:10187000EACF833039F4E8012296FE0184910E9478
:10188000040EE1CF8430F9F6E8012296FE0124919E
:1018900090E080E0FE0131962053330B2A30310571
:1018A00048F0019780F2EFE9FFE03197F1F700C0CF
:1018B0000000F7CFE89EA001E99E500D1124C90158
:1018C000840F951F2491EF01E5CF0E94A00BE80142
:1018D000BACFDF91CF911F910F91FF90EF900895B4
:1018E00060E00C94060C982F9F709A50963018F078
:1018F000805D0C94A00B895AFCCFCF92DF92EF92BF
:10190000FF926C01EE24FF2420E0C114D104E10415
:10191000F10419F0C701B60120E1C72ED82EE92E37
:10192000FF24C114D104E104F10419F0285FC701B8
:10193000B6016B017C0154E0F694E794D794C79408
:101940005A95D1F7C114D104E104F10419F02C5FC8
:10195000C701B6016B017C0142E0F694E794D7948D
:10196000C7944A95D1F7C114D104E104F10419F0E8
:101970002E5FC701B6019695879577956795672B7A
:10198000682B692B09F02F5F822FFF90EF90DF907B
:10199000CF9008950C942E0A81E008950C94CC0CFD
:1019A0000895CF93C82F0E94CA0C8C2FCF910C940E
:1019B000CE0CCF93DF93EC012881898141E050E088
:1019C000022E01C0440F0A94EAF7A82FB0E0A55CEC
:1019D000BD4F9C913A813323D9F030914B02332390
:1019E000D1F030E066E0869F200D311D1124220FDA
:1019F000331FF901E355FF4FE491E983F901E45501
:101A0000FF4FE491E883492B4C93DF91CF910895E8
:101A1000392F3423E4CF40954923F6CFCF93DF937A
:101A2000CDB7DEB72D970FB6F894DEBF0FBECDBF92
:101A300049875A876B877C878D8761110E942C1795
:101A40008C859D85892B29F089859A8589238F3FEF
:101A500081F51D821E821F82188685E0FE0139965F
:101A6000DE01119601900D928A95E1F78C819D819E
:101A7000892B99F429813A814B815C816D817E812A
:101A80008F8198850E941E162D960FB6F894DEBFA2
:101A90000FBECDBFDF91CF91089589819A818923AF
:101AA0008F3F41F3CE0101960E940A0B8111E2CFD4
:101AB000EBCFCE0109960E94D90CCBCFFC018081DF
:101AC00091810E948A1392959F70963051F4863FBF
:101AD00041F080914B0291E0892780934B029093D3
:101AE0004A020895CF93C82F882309F48BC0823807
:101AF000C1F40E94542681FD85C089E30E94BE1670
:101B00000E944F172FEF81EE94E0215080409040CB
:101B1000E1F700C0000089E30E94C516CF910C9444
:101B20004F178338A1F40E94542680FD6BC083E5D3
:101B30000E94BE160E944F172FEF81EE94E02150B5
:101B400080409040E1F700C0000083E5E5CF843895
:101B5000A1F40E94542682FD55C087E40E94BE165F
:101B60000E944F172FEF81EE94E02150804090406B
:101B7000E1F700C0000087E4CFCF8CEF8C0F813AF3
:101B800090F46C2F8091B9019091BA010E94CB26FC
:101B9000882329F08C2F0E94C5160E944F178C2F86
:101BA0000E94BE16BBCF80E28C0F883048F4C7700D
:101BB00081E001C0880FCA95EAF70E940C17AECFEA
:101BC000EBE5EC0FE33040F4F0E0E150FE4F8081B4
:101BD00090E0CF910C948B26E8E5EC0FE73150F4C0
:101BE000F0E0EE0FFF1FEF52FE4F80819181CF9109
:101BF0000C94A126CD3E30F08C2F0E94D71CCF91A3
:101C00000C94AA1DCF910895882309F452C08238FC
:101C100071F40E94542681FF4CC089E30E94BE16D5
:101C20000E944F1789E30E94C5160C944F17833802
:101C300059F40E94542680FF3CC083E50E94BE16E2
:101C40000E944F1783E5EFCF843859F40E94542641
:101C500082FF2FC087E40E94BE160E944F1787E4C0
:101C6000E2CF9CEF980F913AF0F290E2980F983003
:101C700050F4877091E001C0990F8A95EAF7892F97
:101C80000E941217D2CF9BE5980F933020F490E07A
:101C900080E00C948B2698E5980F973120F490E023
:101CA00080E00C94A1268D3E20F00E94311D0C9402
:101CB000AA1D08951F93CF93DF93182FEB010E9465
:101CC000720D209731F4812FDF91CF911F910C94E9
:101CD000040E8FE99FE00197F1F700C00000219703
:101CE000F0CF70E060E0893311F460E570E00C94AF
:101CF0005A0E882321F00E940C170C944F17089558
:101D0000882321F00E9412170C944F1708954F92C8
:101D10005F926F927F92BF92CF92DF92EF92FF928B
:101D20000F931F93CF93DF936C01C62F172FFC01E6
:101D3000D281058102950F700E940217E82E882338
:101D4000D1F0DD2329F1812F807F803441F090E2B2
:101D50009C0F9830E8F0803611F4C63FC9F08091AE
:101D6000CE0382FD15C082E00E94A0170E940217D8
:101D700091E0E82EE926B12EB2949FE0B922FBE073
:101D8000FB15C0F1EB2DF0E0E55EFE4C0C94752FD9
:101D9000E12CF1CF012F0F70812F807F11F0029580
:101DA000007FDD2399F0002359F080E28C0F88300A
:101DB00010F0C11107C0802F0E940C170E944F170E
:101DC0008C2F6EC0802F0E941F17F8CF8C2F0E947F
:101DD000040E002379F080E28C0F883010F0C111DE
:101DE00004C0802F0E94121703C0802F0E94251765
:101DF0000E944F172B2D2850330B2430310520F42F
:101E00000E9454260E94D10CDD2339F0107F103639
:101E100011F4C63F11F00E94F516EE2009F406C237
:101E20000E94D81680FD02C2F60112820E94D216CC
:101E30000E945512C6010E9442110E94D216DF91E3
:101E4000CF911F910F91FF90EF90DF90CF90BF90B7
:101E50007F906F905F904F900C947612212F2F708F
:101E6000F22E812F807F803219F0F29480EFF822D9
:101E7000CC2341F0C130E9F1DD2309F444C0002353
:101E8000E9F19ECF8091CE0382FF15C0DD2359F08A
:101E9000FF2029F08F2D0E940C170E944F1780E021
:101EA0000E94720DA7CF80E00E94040EFF2009F46B
:101EB000A1CF8F2D97CFDD2381F0011106C00E94A5
:101EC00032178F290E94790E95CF0130C1F70E94F9
:101ED00032178F290E9438178DCF011106C00E943A
:101EE00045178F2D0E94800E85CF013009F482CFD7
:101EF000F6CFDD2329F0023008F07CCF8F2DE2CF22
:101F0000011178CFEECF002361F3C93349F43FEFDD
:101F100087EE93E0315080409040E1F700C0000030
:101F20008C2F0E94040E66CF812F86958695837034
:101F300069F0813009F05ECF8C2F912F9370D11111
:101F400002C090E080E00E94A12654CF8C2F912FF8
:101F50009370D11102C090E080E00E948B264ACF9E
:101F60008C2FDD2329F00E94D71C0E94AA1D42CF8E
:101F70000E94311DFACF812F837009F043C0D11127
:101F800039CF2C2F229526952770220F220F6C2FE8
:101F90006F70462E512C712C612C022E04C0440C03
:101FA000551C661C771C0A94D2F760E070E0CB01E8
:101FB000C4FF0FC06FE070E080E090E004C0660FE7
:101FC000771F881F991F2A95D2F760957095809585
:101FD0009095212F269526952370642975298629A9
:101FE0009729223049F058F4213019F00E94091243
:101FF00001CF0E94F711FECE0E941B12FBCE0E9461
:10200000F511F8CE8695DD2311F0812F817088239C
:1020100009F4F0CE2C2F229526952770220F220F3F
:102020006C2F6F70462E512C712C612C022E04C027
:10203000440C551C661C771C0A94D2F760E070E0D3
:10204000CB01C4FF0FC06FE070E080E090E004C0FF
:10205000660F771F881F991F2A95D2F76095709594
:1020600080959095212F26952695237064297529B2
:1020700086299729223049F058F4213019F00E941E
:10208000CC12B8CE0E94BA12B5CE0E94DE12B2CEE9
:102090000E942F12AFCE012F0F70DD2329F0802F69
:1020A0000E9455128C2F0ECF8C2F0E94800E802FF5
:1020B0000E9476129FCEC23F39F160F4C03FB9F062
:1020C000C13F81F0DD2309F446C0011179CE812F93
:1020D0008F711EC0C33FF9F0C43FA1F78091CE03BA
:1020E00082FF23C0812F8F71DD2311F311C0DD2307
:1020F00039F001117FCE812F8F710E9499127ACE13
:10210000023008F077CEF7CF812F8F71D111D0CF69
:102110000E9455126FCEDD2329F0812F8F710E940E
:10212000401268CE0E943B1265CEDD2351F0012F94
:102130000F71802F0E94551263E0802F0E94851737
:1021400059CE81E00E94A017023008F453CE82E0FD
:102150000E94A0174FCE002359F0C93309F0E0CEFA
:10216000EFEFF7EE23E0E150F0402040E1F7D6CE6C
:10217000812F8F719DCFE0E1EC0FE73090F5F0E01B
:10218000E95DFE4C0C94752FDD2309F433CE80916C
:102190004B0291E0892780934B022CCED0934B02C7
:1021A00029CE81E08D27F7CFD11124CE81E0F3CF66
:1021B000D11120CE10924B021DCEDD2319F00E94CA
:1021C000DC1618CE0E94E81615CEDD2339F080917A
:1021D0004A028823E1F210924A020CCE0023B9F29F
:1021E00009CE80914A020023A9F0882341F0809112
:1021F0004B0291E0892780934B0210924A028C2F68
:10220000D1114ECE0E94040E88E0F60111928A95FB
:10221000E9F7F0CD882309F4EDCDD111EBCD809114
:102220004B0291E0892780934B02D5CFDF91CF916C
:102230001F910F91FF90EF90DF90CF90BF907F9014
:102240006F905F904F9008950F931F93CF93DF93FC
:10225000EC018E819F81009779F00E9461198C01B9
:102260000E94F0120E94F411B801CE01DF91CF91CB
:102270001F910F910C94870E688179818A810E9449
:102280009413EDCFCF93DF93EC018B819C81892B4D
:1022900029F08881998189238F3F59F4DF91CF916B
:1022A0000895CE010E942411CE01DF91CF910C94AC
:1022B000150BCE010E94400B8111F3CF0E94021733
:1022C000882361F38A81882349F38091CE0382FDBC
:1022D000E5CF82E0DF91CF910C94A017882321F005
:1022E0000E941F170C944F170895882321F00E9415
:1022F00025170C944F17089590E080E00E948B26DC
:1023000090E080E00E94A1260E942C170E942F17C7
:102310000E944F170E94D11E0C94AA1D0E94CC1639
:102320000C947C110E941C170C948E11E92FE295DD
:10233000EF70E250EE3070F4F0E0E25DFE4C0C9491
:10234000752F803F19F020F4883E20F481E0089535
:10235000843FE1F380E00895883EC0F3813FD1F7E8
:10236000F5CF93FB882780F90895FC01868197813A
:10237000009721F00E9461190C949611808191813F
:102380000E948A13F9CFCF93DF9300D000D00F9231
:10239000CDB7DEB70F900F900F900F900F90DF9199
:1023A000CF910895CF93DF93CDB7DEB728970FB6BF
:1023B000F894DEBF0FBECDBF28960FB6F894DEBFEF
:1023C0000FBECDBFDF91CF91089508950C94E51114
:1023D0000E94E611609387027093880280938902BD
:1023E00090938A020C947C1108950C94E8110F9339
:1023F0001F930091870210918802209189023091E9
:102400008A02602B712B822B932B1F910F910C94BE
:10241000E8110F931F930091870210918802209179
:10242000890230918A0260237123822393231F91B2
:102430000F910C94E8110F931F9300918702109154
:1024400088022091890230918A02602771278227B1
:1024500093271F910F910C94E8110C94330A0E945A
:102460002D1260938302709384028093850290936F
:1024700086020C947C1160E070E0CB010C942F126A
:102480000F931F9341E050E060E070E08A019B01F0
:1024900004C0000F111F221F331F8A95D2F7C901F4
:1024A000B8011F910F910C942F120F931F9341E0CD
:1024B00050E060E070E004C0440F551F661F771FB6
:1024C0008A95D2F78091830290918402A09185022F
:1024D000B09186028A019B01082B192B2A2B3B2BDA
:1024E000C901B8011F910F910C942F120F931F93E4
:1024F00041E050E060E070E004C0440F551F661FEB
:10250000771F8A95D2F7CB01BA01609570958095B7
:102510009095009183021091840220918502309160
:10252000860260237123822393231F910F910C94C1
:102530002F120F931F9341E050E060E070E004C061
:10254000440F551F661F771F8A95D2F7809183022B
:1025500090918402A0918502B09186028A019B012C
:10256000082719272A273B27C901B8011F910F9176
:102570000C942F120F931F930091830210918402E9
:102580002091850230918602602B712B822B932B38
:102590001F910F910C942F120F931F9300918302A0
:1025A000109184022091850230918602602371236C
:1025B000822393231F910F910C942F120F931F933B
:1025C000009183021091840220918502309186024D
:1025D00060277127822793271F910F910C942F1248
:1025E0000895E92FEE0FE90FEE0F8E0F982F9770D9
:1025F00041E001C0440F9A95EAF786958695869545
:1026000095E0899FF0011124E45BFD4F30E020E06C
:1026100070E05191DF011197CB01022E02C0969517
:1026200087950A94E2F78170819585278423852711
:102630008C932F5F3F4F2530310559F70895E92FCF
:10264000EE0FE90FEE0F8E0F982F977086958695F7
:10265000869525E0829FF0011124E45BFD4F50E058
:1026600040E080E0219130E0092E02C036952795A8
:102670000A94E2F721703327042E01C0220F0A9436
:10268000EAF7822B4F5F5F4F4530510559F70895A8
:10269000BF92CF92DF92EF92FF920F931F93CF934F
:1026A000DF938C01C0908302D0908402E090850279
:1026B000F09086028091870290918802A091890211
:1026C000B0918A02C82AD92AEA2AFB2ACFE1D0E0AF
:1026D000BC2ED701C6010C2E04C0B695A7959795C0
:1026E00087950A94D2F780FD0EC0219788F7B12C08
:1026F0008B2DDF91CF911F910F91FF90EF90DF9085
:10270000CF90BF900895B8018C2F0E94731A019743
:1027100061F3EECFCF93DF93EC010E944813BE012B
:10272000DF91CF910C94731A1F93CF93DF93EB013A
:1027300090914902992331F0CB01DF91CF911F9104
:102740000C948A13882379F0CB010E944813182F28
:10275000682FCE010E94F112BE01812FDF91CF912F
:102760001F910C94731ACB010E941F13182FF4CFE2
:10277000CF93DF93C0918B0280918C028C1303C0A6
:10278000DF91CF910895D0E0FE0183E0EE0FFF1FAF
:102790008A95E1F7E357FD4F2081318142815381D2
:1027A00064817581868197810E94D2112196C770BC
:1027B000E3CF2091CD023091CE024091CF025091D3
:1027C000D0026091D1027091D2028091D302909197
:1027D000D4020C94D2110F931F93CF93DF93809167
:1027E000D202807FC1F48091CF028823A1F0809132
:1027F0008B0210918C026091CD027091CE02A0915B
:10280000D002B091D102062F0723C091B701D09119
:10281000B801181305C0DF91CF911F910F91089552
:1028200090E0109711F00F3F19F401968770F1CFE7
:102830009C0143E0220F331F4A95E1F7F901E3576A
:10284000FD4F41814713F1CF40814613EECF4281C6
:102850004111EBCF438154814A1B5B0B4C175D0741
:1028600020F78091D2028F7080618093D202F901AB
:10287000EE56FD4F80818F70806180838DEC92E0F9
:102880000E944211DF91CF911F910F910C94B813C8
:10289000AF92BF92CF92DF92EF92FF920F931F936E
:1028A000CF93DF93CDB7DEB765970FB6F894DEBF51
:1028B0000FBECDBF8C0185E0F801DE01519601907D
:1028C0000D928A95E1F7F801E2804DECC42E42E0CA
:1028D000D42E6091D0027091D1026115710509F476
:1028E00091C19091CD022091CE02892F82238F3FFA
:1028F00009F488C140815181A380B480F090CF0257
:10290000F501E61BF70BBF01E091B701F091B801AB
:10291000FF2009F42CC18091D202382F307F6E172E
:102920007F0708F0D6C0311183C0FE2C25132DC0BF
:1029300094132BC06091D3027091D402F8012681C8
:1029400037816217730709F5E1101FC08F7080612E
:102950008093D2020E94D913C6010E944211809135
:10296000D202F80185838F2D65960FB6F894DEBFED
:102970000FBECDBFDF91CF911F910F91FF90EF90D0
:10298000DF90CF90BF90AF900895AB2829F0842FAF
:1029900085238F3F09F04FC180E0F82FF170DF2EC3
:1029A00080FF3CC080918B0220918C02821315C065
:1029B000498B5A8B89899A890E948A13292F2295DB
:1029C0002F702230F8F0243020F59F70F9F0F801D4
:1029D0009581907FD9F4D12C1FC090E0FC0133E0A9
:1029E000EE0FFF1F3A95E1F7E357FD4F31813513A5
:1029F00006C03081341303C032813E110FC00196EE
:102A00008770D4CF9F7011F0882329F3805E8830BF
:102A100010F3C8010E944211FD2CA5CFEE2009F44D
:102A2000A2CF8091D20281608093D202F12C9BCF01
:102A300025131DC094131BC04091D3025091D402A2
:102A4000F801268137814217530789F4E1100FC03E
:102A50008583C8010E94421188E0F801ADECB2E024
:102A600001900D928A95E1F70E94D9137CCFC8019D
:102A70000E94B511882349F1EE2039F18091D202EC
:102A80008032A0F02091CD023091CE023A87298782
:102A90001B86BD86AC868E878091D3029091D4022E
:102AA000988B8F87CE0109960E94421188E0F80129
:102AB000ADECB2E001900D928A95E1F70E94EB1324
:102AC0000E94D913FF24F3944ECFC8010E944211F3
:102AD000F9CF311113C07A2DBD8AAC8A6E2D8D8944
:102AE0000E94C3118DEC92E00E94421188E0F60131
:102AF00011928A95E9F70E94D91398CF251318C02F
:102B0000941316C04091D3025091D402F80126814B
:102B100037814217530761F4E1100AC08583C80169
:102B20000E94421188E0F60111928A95E9F71BCFC5
:102B3000C8010E94B511882341F2EE2031F2809144
:102B4000D202803208F4B2CF2091CD023091CE0271
:102B50003A8329831B82BD82AC828E838091D3020B
:102B60009091D40298878F83CE0101969DCF6E17E6
:102B70007F07D8F5FE2CEE2009F4A7CF251327C038
:102B8000941325C02091D3023091D402F80186819C
:102B9000978128173907D9F49091D20290FD0EC081
:102BA000907F61F08091D2028583903F09F451CFEC
:102BB000982F907F905F8F70892B4ACF88E0F80123
:102BC000ADECB2E001900D928A95E1F7CCCEC80150
:102BD0000E94B51181116ACF8091D20281608093E9
:102BE000D202C8010E944211BECE7A2DBD8AAC8AA3
:102BF0006E2D8D890E94C31188E0F60111928A958D
:102C0000E9F732CFEE2009F460CFC8010E94B51178
:102C1000F82E882309F459CF88E0F801ADECB2E032
:102C200001900D928A95E1F78DEC92E00E945E0D85
:102C30000E94EB1319CF81E08E25AFCECF93DF93A7
:102C4000CDB7DEB760970FB6F894DEBF0FBECDBF2D
:102C500029873A874B875C876D877E878F87988B1C
:102C6000CE0109960E9448148823D1F08C859D8559
:102C7000892B39F029853A85822F83238F3F09F0EC
:102C800074C080918B0290918C02891348C0609629
:102C90000FB6F894DEBF0FBECDBFDF91CF91089580
:102CA00088E0FE013996DE01119601900D928A9519
:102CB000E1F78C859D85892B21F389859A85892368
:102CC0008F3FF9F2A0918C02B0E0CD0101968770A0
:102CD000992720918B022817190671F40E949211EE
:102CE00010928C0210928B0288E0EDECF2E0DF0192
:102CF0001D928A95E9F7C5CF93E0AA0FBB1F9A955D
:102D0000E1F7A357BD4F98E0FE01319601900D9277
:102D10009A95E1F780938C020E94B813B2CFB8E085
:102D20008B9FC001112483579D4F0E944814882314
:102D300009F4ADCFE0918B0228E0E29FF00111246D
:102D4000E357FD4F20813181428153816481758138
:102D5000868197810E94D21180918B0290E001962A
:102D60008770992780938B028CCF4B855C856D850E
:102D70007E858F8598890E94D21183CF682F80919C
:102D8000B9019091BA010C944B27682F8091B90139
:102D90009091BA010C9456278091B9019091BA0193
:102DA0000C9461278091D602859585958595089527
:102DB0008091D6028770089582E08093D50281E0E9
:102DC00080934B0208951092D50210924B02089501
:102DD0008091D502823021F481E08093D50208955C
:102DE000833011F40C94E31608958091D50282305B
:102DF00021F483E08093D5020895813011F40C947E
:102E0000E31608959091D602977081E009F480E06E
:102E100008958091FA0208959091FA02892B809387
:102E2000FA02089580959091FA0298239093FA02FD
:102E300008958093FA0208951092FA0208959091ED
:102E4000F902892B8093F902089580959091F902F7
:102E500098239093F90208951092F9020895109220
:102E6000F80208958091D702089508950C943517BB
:102E70009091CE0392FD08C09091D702981721F04F
:102E80008093D7020C94361708958091D702882337
:102E900029F01092D70280E00C9436170895E09143
:102EA000B901F091BA018091FA028083E091B901F1
:102EB000F091BA0180819091F902892B8083E09191
:102EC000B901F091BA0180819091F802892B808339
:102ED0009091D702992381F0E091B901F091BA0164
:102EE0008081892B80838091B9019091BA010E94E1
:102EF000B72681110E9445178091B9019091BA01BE
:102F00000C94632608950C9482179091CE0392FD41
:102F100010C098E0899F90011124622B6093D60223
:102F20000E9455128091D6028595859585950C94C1
:102F300083170C9455121092D60280E00C948317DC
:102F40009091D602809589238093D602282F2770EE
:102F500091F4282F082E000C330B9217130659F00A
:102F60009091CE0392FD07C08595859585950E9429
:102F700076120C949B1708959091CE0392FB222712
:102F800020F9281769F080FB92F99093CE03809185
:102F9000CD039091CE030E94011882E00C94A017FB
:102FA00008958091CE0382FB882780F991E08927DC
:102FB0000C94BC1781E00C94BC1780E00C94BC17F7
:102FC00090E080E00E94B43021E0893E9E4F09F0FD
:102FD00020E0822F089582E090E00C94A63083E0F8
:102FE00090E00C94A630CF9384E090E00E94A6304D
:102FF000C82F82E290E00E94A630982F8C2FCF91AC
:103000000895CF93C92F682F84E090E00E94BA30D2
:103010006C2F82E290E0CF910C94BA308FE090E078
:103020000C94AE30AB01BC018FE090E00C94CC303E
:10303000AB01BC0183E190E00C94CC3060E070E027
:10304000CB010C94181869EE7EEF90E080E00E94AE
:10305000D83060E082E090E00E94BA3060E083E027
:1030600090E00E94BA30109287021092880210926B
:10307000890210928A0260E084E090E00E94BA30F7
:1030800060E082E290E00E94BA3060E085E090E08B
:103090000E94BA3060E086E090E00E94BA306FEFA4
:1030A00087E090E00E94BA3040E050E0BA0188E04A
:1030B00090E00E94CC3060E08DE090E00E94BA3059
:1030C00040E050E0BA0188E190E00E94CC3060E03E
:1030D00087E190E00E94BA3040E050E0BA018CE114
:1030E00090E00E94CC3070E060E080E290E00E94CE
:1030F000D83040E050E0BA0188E190E00E94CC3046
:103100000C946F080C942318682F8EE090E00C94B8
:10311000BA300E940E2860930E0370930F038093C1
:1031200010039093110360930A0370930B03809331
:103130000C0390930D03089585B7806885BF85B70C
:10314000806885BF0895089508950C94A318089584
:103150000C94A7180E949C1881E59BE10E944A26C6
:103160000E94A4180C94A51881E008950C94B4183A
:10317000089508950E94B8180C94B9180E94F92770
:103180000E94821B0C94A818AF92BF92CF92DF923C
:10319000EF92FF920F931F93CF93DF93CDB7DEB7DC
:1031A0002A970FB6F894DEBF0FBECDBF0E94931BC7
:1031B00081110E9489188CEFA82E82E0B82E10E0B1
:1031C00000E0C02E802F0E947B1BE82EF501F190BD
:1031D0005F01F81609F44DC08091120381FD0E9431
:1031E000811B8F2D8E25D12CFF24F394982F9F21A6
:1031F000D9F10E94B618882399F0DE82CF82EF20A1
:1032000081E009F480E088870E9402288160782F9D
:103210009A8789874E815F8168858A850E940E0D15
:10322000F801E450FD4F8081F826F0820E94C51D10
:103230000E9454269091FB02891791F10E94542616
:103240008093FB022A960FB6F894DEBF0FBECDBF67
:10325000DF91CF911F910F91FF90EF90DF90CF9072
:10326000BF90AF900C94D10CD394FF0CF6E0DF121A
:10327000BDCF0F5F1F4F0E30110509F0A2CF8FEFAA
:1032800089838A831B820E9402288160782F9D8314
:103290008C8349815A816B818D810E940E0DC6CF2E
:1032A0002A960FB6F894DEBF0FBECDBFDF91CF9147
:1032B0001F910F91FF90EF90DF90CF90BF90AF9054
:1032C0000895CF93DF930E94771AEC01811522E5D0
:1032D000920708F047C0811531E5930708F0BAC09E
:1032E000883E910530F5803E910508F092C0883AFD
:1032F000910588F4853A910508F084C081309105E4
:1033000009F487C0009709F484C0049708F081C0CD
:10331000D0E0C0E07EC08F3B9105D0F7C85AD0E026
:10332000CC0FDD1FCE5FDD4F0990D881C02DD46456
:1033300070C08115904250F4C11581E0D80708F0A3
:1033400068C0CD3ED10520F3D06563C0C11590E4BF
:10335000D907F0F2C11520E5D20708F05EC0DF7092
:10336000D06A57C0811536E5930718F5811545E5F4
:10337000940708F087C0C11584E5D80708F07DC020
:103380009C2F969596959E0123703327C115D345A2
:1033900008F465C0C1E0D0E002C0CC0FDD1F2A9563
:1033A000E2F730E2939FC0011124C82BD92BDA68D1
:1033B00030C0C11589E5D80768F4C11598E5D9076B
:1033C00008F06AC0C11527E5D20708F0A1CFDD27B4
:1033D000D0661FC0C1153AE5D30708F462C0CE011C
:1033E00090568115904208F093CF8D2F8F710E94D7
:1033F0000E1B90E0982F882788279F719C012C2B0B
:10340000E90148C0C55AD0E0C05DDD4FC881D0E0B9
:10341000D064CE01DF91CF910895CE01E4E096957E
:103420008795EA95E1F783702C2F269526952370D2
:1034300090E2299F90011124382B8C2F8370C1E0DA
:10344000D0E002C0CC0FDD1F8A95E2F7C22BD32B50
:10345000DC68DFCFD82FCC27C16FD06ADACFC1E0CC
:10346000D0E002C0CC0FDD1F2A95E2F720E2929F48
:10347000C0011124C82BD92BEBCFDC2FCC27C46F74
:10348000D06AC7CF0E940E1BC82FD0E0DC2FCC27FC
:10349000CC27DF71D062BDCFDC2FCC27C06FD06AC4
:1034A000B8CF8C2F8F700E940E1B34E0D695C79535
:1034B0003A95E1F7CF709C2FEC01D069AACF972FF6
:1034C00070E026E0929F600D711D1124FB0194E5D0
:1034D000899FE00DF11D1124EE0FFF1FE25DFB4FF0
:1034E0008591949108950E945F1A0C946119823815
:1034F0009105B1F1B0F48133910509F475C048F438
:103500008932910509F469C08A32910509F473C0C2
:1035100008958533910509F459C08933910501F166
:103520000895833E9105A9F138F4803E9105F9F0A4
:10353000823E910549F10895863E9105A9F1873EA5
:103540009105C9F1843E910519F52091CE0321FF23
:103550001FC08091CD0384FD14C087EE90E00895D4
:103560002091CD032370A1F080EE90E0089520918A
:10357000CD0320FD47C03091CE0330FF09C024FFAA
:1035800044C090E080E004C02091CD0322FDF7CF3D
:1035900008952091CD0322FD3BC03091CE0330FD34
:1035A000E3CF24FFF5CFEDCF2091CD0323FFF0CF64
:1035B00024FDE7CFD2CF2091CD0323FD2CC0309145
:1035C000CE0331FFEECF84EE90E008952091CD033D
:1035D00025FFDECF89E290E008952091CD0325FFFD
:1035E000D7CF85E390E008952091CD0326FFD0CF7B
:1035F0008AE290E008952091CD0326FFC9CF81E3B0
:1036000090E0089589E390E0089583EE90E00895B6
:1036100082EE90E0089586EE90E008959091CD03BB
:1036200092FF06C0282F28712830F9F4877F846024
:1036300093FF06C0282F28712831F1F4877E84611A
:103640002091CE0320FF06C0382F38713830D9F4CE
:10365000877F816021FF06C0282F28712831D1F48F
:10366000877E816194FD877E0895282F2471243000
:10367000F9F68B7F8860DCCF282F2471243101F785
:103680008B7E8861DDCF382F3171313019F78E7F15
:103690008860E0CF282F2171213121F78E7E88614B
:1036A000E1CF80E0089508950E94E017811102C0E3
:1036B0000E9482180E94EB17809312030E94F31756
:1036C0009093CE038093CD030E94531B0E94EF176B
:1036D000682F70E090E080E00E94F5116091830215
:1036E0007091840280918502909186020C942D1233
:1036F00008950C941B0AE82FF0E0E352FC4F808100
:10370000089508950E94F206EFECF3E0ADEDB3E00A
:1037100011921D9283E0ED3DF807D1F78EE00E94F3
:10372000A61B0C94200BCF938FEC93E00E94FD0618
:10373000C82F282F4EE06DED73E08FEC93E00E94D0
:10374000B91B0E94280B8C2FCF910895CF93C82FBF
:1037500090E00E947B2F8093160390931703282FED
:10376000FC018E2F821B8C1710F0CF9108951192BF
:10377000F8CFDF92EF92FF920F931F93CF93DF93D7
:10378000082FF92EE62ED72E142FC22FD091130317
:10379000DD2309F448C00E940228209114033091CF
:1037A0001503AC01421B530B9A01909315038093B0
:1037B00014034F3F510509F0C8F4452B99F01092BE
:1037C00013031092180340911603E42FF09117038E
:1037D00090E030E08E2F841B811758F03093130354
:1037E00090931803C1112DC0CD2F1FC02FEF30E0D3
:1037F000E6CF8081882321F0281720F010829D2FAA
:103800003196E8CF821B80833D2FFACF29914C91CE
:10381000421731F04081411103C030832C9381E085
:10382000319611961AC0211106C080911803882381
:10383000D1F0C11106C00E94022890931503809315
:1038400014039091160380911303AE2DBD2DC02F4C
:10385000DF2DE92FF09117033EE12E2F291B2117B1
:10386000A8F280931303DF91CF911F910F91FF90E6
:10387000EF90DF9008950E94212A0E94BE180C94B8
:103880002D2A0E94312A0E94C4180C944B2A0E94AF
:103890008D270E94082A0E94AA180E943B1C0E94A1
:1038A000411C0E94BA18FBCF8091210380FF12C0F7
:1038B0006091BF0185E0689FB001112475956795FF
:1038C0007595679560387105A8F561157105A1F1C9
:1038D000862F089581FF09C06091BF0185E0689F30
:1038E000B001112475956795EDCF6091BF0182FD00
:1038F0000AC0809120038823D1F09091BE0160918D
:10390000BF01891728F085E0689FB0011124DACF44
:10391000869FB001112485E0869F9001879F300D1E
:103920001124692F70E0C9010E94612FCBCF65E09F
:1039300070E0CECF8FE7089581E008958091210354
:1039400080FF0CC06091BC0170E07595679575951E
:1039500067956115710549F1862F089581FF06C0AD
:103960006091BC0170E075956795F3CF6091BC01E3
:1039700082FD0BC090911F039923A1F06091BB01C0
:103980008091BC01961738F0682F70E0603871059F
:1039900000F38FE70895899FC001112470E00E9411
:1039A000612FF4CF61E070E0D7CF81E008958D3EC4
:1039B00031F40E94541C81958093250308958E3E16
:1039C00019F40E94541CF8CF8F3E31F40E94541C0D
:1039D0008195809324030895803F19F40E94541C1C
:1039E000F8CF893F29F40E949E1C809326030895F6
:1039F0008A3F21F40E949E1C8195F7CF8B3F31F4C2
:103A00000E949E1C81958093270308958C3F19F492
:103A10000E949E1CF8CF9FE0980F983070F4815F51
:103A2000990B21E030E001C0220F8A95EAF78091DE
:103A30002303822B8093230308958D3F31F48091DB
:103A4000210381608093210308958E3F21F48091AA
:103A500021038260F7CF8F3FB9F780912103846003
:103A6000F1CF409124038D3E59F48091250387FFC7
:103A70000DC01092250341110BC01092200308C005
:103A80008E3E81F48091250318169CF3442381F027
:103A90008091260390912703892B09F05AC0109238
:103AA0001F0308958F3E49F447FFF0CF109224037F
:103AB000809125038111ECCFE0CF803F19F41416DB
:103AC000ACF3E4CF90912603893F29F41916F4F65C
:103AD00010922603DBCF8A3F19F497FFD7CFF8CF98
:103AE000909127038B3F29F497FFD0CF10922703A3
:103AF000CDCF8C3F19F41916CCF3C8CF9FE0980FA7
:103B0000983090F4815F990B21E030E0B90102C058
:103B1000660F771F8A95E2F7CB018095909123037A
:103B2000892380932303B2CF8D3F31F48091210309
:103B30008E7F80932103AACF8E3F21F480912103B1
:103B40008D7FF7CF8F3F09F0A1CF809121038B7F2D
:103B5000F0CF08950E9402289C0190912403809147
:103B60002503982B21F030931E0320931D03909181
:103B7000260380912703982B21F030931C03209378
:103B80001B0382E293E00C947D26EF92FF920F9349
:103B90001F93CF93DF9300D000D000D0CDB7DEB716
:103BA00086E0E2E2F3E0DE01119601900D928A9543
:103BB000E1F7E0902403F090250300912603109193
:103BC00027031092240310922503109226031092CB
:103BD00027038E2D8F2991F080911D0390911E0354
:103BE0000E941A28AC0190912003992309F43FC048
:103BF0008091C0018417150608F447C0802F812BDF
:103C000091F080911B0390911C030E941A28AC0133
:103C100090911F03992309F477C08091BD01841707
:103C2000150608F47FC08091240390912503892B09
:103C300090912603892B90912703892B11F00E94E4
:103C4000AA1D86E0FE013196A2E2B3E001900D923A
:103C50008A95E1F726960FB6F894DEBF0FBECDBF6A
:103C6000DF91CF911F910F91FF90EF9008952091D8
:103C70001A038AE0289F900111242417350708F0C1
:103C8000BDCF9F5F9093200302C09F3FD1F7EE20EE
:103C900059F00E94541C9FEF1E140CF491E0899F70
:103CA000802D112480932403FF2059F00E94541C7E
:103CB0009FEF1F140CF491E0899F802D11248093B5
:103CC000250330912403332309F498CF2091250351
:103CD000222309F493CF45EB3403C0011124992327
:103CE00059F09093240345EB2403900111243323CE
:103CF00039F03093250382CF81E080932403F3CF02
:103D000081E0809325037ACF209119038AE0289FD0
:103D1000900111242417350708F085CF9F5F9093F9
:103D20001F0302C09F3FD1F7002359F00E949E1C41
:103D30009FEF10160CF491E0899F802D1124809341
:103D40002603112359F00E949E1C9FEF11160CF4BC
:103D500091E0899F802D11248093270330912603C1
:103D6000332309F460CF20912703222309F45BCF8A
:103D700045EB3403C0011124992359F09093260395
:103D800045EB240390011124332339F030932703AA
:103D90004ACF81E080932603F3CF81E0809327030D
:103DA00042CF86E0E2E2F3E0DF011D928A95E9F777
:103DB0001092200310921F03109221030895CF93B5
:103DC000DF93EC0197FF0CC0FB018281882341F057
:103DD0000E941D1FCE019F770E94941F0E946C1F9E
:103DE00081E0DF91CF9108959091EC03923069F4D6
:103DF0008A3048F490E009966AE070E00E94612FF2
:103E0000875A0C94710E8650FCCF0C94730C8CE086
:103E100090E00E94A63090E0B0E0A0E08093EC0338
:103E20009093ED03A093EE03B093EF030895609198
:103E3000EC038CE090E00C94BA300E9460268695EA
:103E400081708093F1030E94602681708093EB0360
:103E50008091EC03813039F48091F103882319F0CB
:103E600089E30E94710E0E9409178093F0030E945B
:103E70001C178091EC03813089F0882359F082303F
:103E800091F0843021F18FE39CE90197F1F700C0B4
:103E90000000089582EE0E94720DF5CF88E193E054
:103EA0000E94B80AF0CF8091EB03811103C083E533
:103EB0000E94710E82EE0E94720D8FE39CE90197C1
:103EC000F1F700C0000087E50E94710EDCCF86EE9E
:103ED0000E94710E88E1F8CF8091EC03813071F07F
:103EE000882341F08230A9F08430E1F08091F00322
:103EF0000C94191782EE0E94040EF8CF8CE20E94F7
:103F0000710E8091F103882389F389E30E94710E79
:103F1000EDCF82EE0E94040E8091EB038111E6CF7B
:103F200083E5F4CF88E2F2CF0F931F93CF93DF9313
:103F30008C01CCE0D0E0C8010C2E02C0969587958C
:103F40000A94E2F78F700E94F41E2497CC3F8FEF03
:103F5000D80789F7DF91CF911F910F9108950F93A3
:103F60001F93CF93DF93EC018B01FB0182818823A8
:103F700061F00E940917CE01825E9C458530910553
:103F800020F48093EC030E94171FB801CE01DF914B
:103F9000CF911F910F910C94DF1ECF93DF93EC0113
:103FA000FB018281882309F420C1C430FDE5DF07CD
:103FB000C8F5CB3F9CE5D90730F49E0122503C4523
:103FC0002431310598F50E94F3179093CE03809326
:103FD000CD03C031FCE5DF0709F4E0C008F061C0A3
:103FE000C8309CE5D90709F4CBC088F5C430FCE59E
:103FF000DF0709F4B3C0E8F4C2309CE5D90709F43F
:10400000A7C08091CD038260C330DC4509F4A3C012
:104010008091CD039091CE030E9401180E949211CD
:1040200080E004C0C236EDE5DE0769F2DF91CF9192
:1040300008958091CD038061C630FCE5DF0709F467
:104040008AC008F48FC08091CD03806284C08091C3
:10405000CD038D7FCC309CE5D90709F47CC070F48A
:104060008091CD038C60CA30FCE5DF0709F473C092
:1040700008F48AC08091CD038E7F6DC08091CD03FE
:10408000877FCE309CE5D90709F465C08091CD03C8
:104090008B7FCF30DC4508F45EC08091CD038F7EEE
:1040A0005AC0CD3FFCE5DF0709F474C040F5C431C8
:1040B0009CE5D90709F48AC058F4C231FCE5DF0752
:1040C00009F474C008F46EC08091CD03837F43C0AF
:1040D000CB3F9CE5D90709F449C008F04DC0C53174
:1040E000DC4509F095CF8091CD0382FB992790F9AB
:1040F00021E0922790FB82F990FB83F92CC0C1301C
:104100008DE5D80709F458C088F48091CE03836008
:10411000CF3FECE5DE0769F18091CE038D7FC115BD
:10412000DD4538F18091CE038C7F23C0C3308DE50F
:10413000D80709F458C008F452C0C236DD4509F06A
:1041400067CF9091CD03892F8F7E94FF806103C04C
:104150008091CD0381608093CD035ACF8091CD03B0
:104160008460F9CF8091CD038860F5CF8091CE0334
:1041700081608093CE034CCF8091CE038260F9CFD3
:104180008091CD038064E7CF0E9492118091CD038E
:104190008068E1CF8091CE038E7FEBCF8091CD03FD
:1041A0008F7DD9CF8091CD038F7BD5CF0E94921187
:1041B0008091CD038F77CFCF8091CE03982F9095AC
:1041C00091708E7F892B90FB81F9D3CF0E94921141
:1041D0009091CD03892F97FB87F98058BCCF81E060
:1041E0000E94841815CF80E0FBCF81E01FCF089597
:1041F0000F931F93CF93DF9380919303E091280354
:104200001CE081111AC0DF91CF911F910F91089589
:1042100001E00E0F00932803CE2FD0E0E19FF001C4
:104220001124ED5CFC4F83819481892B29F08081DE
:10423000918189238F3FE9F4E02F80919303E81760
:1042400038F31092930310922803DDCF18968D91C6
:104250009C918F3F9807D1F061E00E94F7201C9F4E
:10426000F0011D9FF00D1124ED5CFC4F14821382B0
:10427000E3CF1C9FD0011D9FB00D1124AD5CBC4F3E
:1042800016968D919C911797892B01F3208131818E
:104290004281538164817581868197810E941E16B7
:1042A000DECF10929503109294032091C2013091B9
:1042B000C301E8E0F1E090E080E02817390709F455
:1042C00008954581411102C01482168201963796E5
:1042D000F4CFDC016091310380913203962F891372
:1042E00001C00895292F30E0F901EE0FFF1FE75DAF
:1042F000FC4F408151814A175B07A1F487E08A9FF8
:10430000A0018B9F500D1124485F5E4F81E0FA01A0
:1043100084839613E6CF2F5F3F4F2370332720937C
:10432000310308952F5F3F4F922F9370D8CF7F9224
:104330008F929F92AF92BF92CF92DF92EF92FF92B5
:104340000F931F93CF93DF93EB012C81211165C055
:1043500070909303A3E3B3E030E020E0812C61E0B0
:1043600070E0271508F042C01A96CD90DC901B979C
:10437000A880B9804FEF5FEF912CE92CF12CF70169
:10438000EE0FFF1FEA0DFB1D05911491C016D1061B
:1043900009F4A701012B11F09394EFCF4F3F54077D
:1043A000C1F1FB0102C0EE0FFF1F4A95E2F78E2A12
:1043B000AB0102C0440F551F9A94E2F741505109D6
:1043C0008416150611F54A815B816CE0629FF0014D
:1043D000639FF00D1124ED5CFC4F578346832EEF55
:1043E000208321839187808721E02D83DF91CF91E6
:1043F0001F910F91FF90EF90DF90CF90BF90AF9003
:104400009F908F907F900C94692114961C921E921D
:1044100013972F5F3F4F1C96A4CFDF91CF911F9131
:104420000F91FF90EF90DF90CF90BF90AF909F9053
:104430008F907F9008951F93CF93DF93C0913103A6
:1044400017E0809132038C1307C00E94F820DF919F
:10445000CF911F910C945121D0E0FE01EE0FFF1F70
:10446000E75DFC4F80819181189FB001199F700D0D
:104470001124685F7E4F0E9497212196C370E1CF7F
:10448000EF92FF921F93CF93DF93FC012081318144
:1044900010E040E050E0E52FF0E0EE0FFF1FE20FEC
:1044A000F31FA591B4911097B9F0FB01C081D181A0
:1044B00040E005C0AE15BF0509F411E04F5FE42FE1
:1044C000F0E0EE0FFF1FEC0FFD1FE590F490E114FC
:1044D000F10481F75F5FDFCF112349F0451708F43E
:1044E000CB01DF91CF911F91FF90EF90089590E065
:1044F00080E0F7CF8091C101882341F1809196033C
:1045000090919703009711F10E941A28209194032B
:104510003091950328173907C8F4909131038091A1
:104520003203981759F00E941B22109295031092A3
:104530009403109297031092960308950E94F82016
:1045400010929703109296030C94512108951092A3
:104550009703109296031092C101809132038093C9
:1045600031030E9451210C94F8208091C1018111E6
:104570000C94A72281E08093C10108952F923F926D
:104580004F925F926F927F928F929F92AF92BF9263
:10459000CF92DF92EF92FF920F931F93CF93DF930F
:1045A000CDB7DEB729970FB6F894DEBF0FBECDBFEB
:1045B0006C013B01FB011281883FFCE59F07F9F488
:1045C000112321F181E08093C101812F29960FB63B
:1045D000F894DEBF0FBECDBFDF91CF911F910F9139
:1045E000FF90EF90DF90CF90BF90AF909F908F9013
:1045F0007F906F905F904F903F902F900895893FEC
:104600002CE5920709F04DC0111148C008E011E0F7
:10461000F12CE12C198688248394912C8091C2017D
:104620009091C301E816F90608F445C0F3018281B0
:10463000882309F45EC1F985FF2309F45AC10E9459
:104640000228909397038093960380919303883078
:1046500008F591E0980F9093930398E0F301DE0141
:10466000119601900D929A95E1F72CE0829FC0017E
:1046700011248D5C9C4F28E0FE013196DC010190F5
:104680000D922A95E1F72FEF3FEFFC01318720874C
:10469000D386C28611E0F9851F2797CF0E94A722F3
:1046A00094CF8A3F9C4509F0B1CF112309F4AECFD6
:1046B0000E94B5228ACFF80160817181AA24AA9450
:1046C000BA2C20E0422F50E0FA01EE0FFF1FE60F58
:1046D000F71F85919491C816D90609F45A01892BC0
:1046E00011F02F5FEFCF312CFFEFAF16BF0609F4AB
:1046F00044C0F80144813090C101832D411180E014
:10470000F82FF1703F2EF80155808681F3019281D8
:10471000992309F48DC0332009F48AC0511014C0C4
:10472000A40101C0440FAA94EAF7842BF801868300
:104730008091940390919503C29730F462E370E006
:104740007093950360939403C40102C0880F991F6E
:104750002A95E2F70197F80126812817190669F4CE
:104760008091960390919703009781F00E941A28F8
:10477000C39760F021E0F8012483F985F329F987D4
:104780002FEFE21AF20A095F1F4F48CF2090310342
:1047900090E080E020913203221215C0801791072B
:1047A00061F3A22CB12CF501EE0FFF1FE75DFC4F6A
:1047B000F182E0826FEFA61AB60A73E0A722BB244B
:1047C000A0923203DACFA22CB12CF501EE0FFF1F1D
:1047D000E75DFC4F2081318147E0429FC001439F4C
:1047E000900D1124BC01685F7E4F2B01B801C201FE
:1047F0000E9440220097A9F021E0FC012483801749
:10480000910709F4BACF2091310322120AC0481649
:10481000590639F495012F5F3F4F237033272093BA
:1048200031033FEFA31AB30A4A2D4370242EB2CFAF
:1048300090E051101FC0F40102C0EE0FFF1F2A9537
:10484000E2F79F01215031092817390731F4442339
:1048500009F44DC0C7010E946921C40101C0880F3D
:10486000AA94EAF7982F9095F80186818923868388
:10487000352C83CF9C010A2C02C0359527950A94CC
:10488000E2F7A90141705527BC01615071098623E7
:104890009723892B41F5452B31F1F80182819381D2
:1048A000892BE1F01B821C821D821E82FEEFF983A0
:1048B000FA830E9402288160582F9D838C83F8011F
:1048C000828193818F83988729813A814B816D8181
:1048D0007E810E941E16F8011582BFCF60E0C701DD
:1048E0000E94F720F8CFF22FF1705F2EB6CF532C35
:1048F000B4CF9091310380913203981719F00E9440
:104900001B22C8CE0E94F8201092970310929603A3
:104910000E945121BFCECF93DF93EB0186319C459E
:1049200011F50E9409179A81992399F08A7A91E0EA
:1049300009F490E090939803811109C089E20E94E4
:10494000BE160E944F1780E0DF91CF91089585E356
:10495000F6CF80919803811104C089E20E94C516A8
:10496000F0CF85E3FBCF81E0EFCF0F931F93CF9381
:10497000DF93C42FD22FFC0182818823C9F040939A
:104980009B030E94022890939A038093990380E2EC
:104990008C0F883008F050C0C77081E001C0880FCC
:1049A000CA95EAF7DF91CF911F910F910C94790E80
:1049B00010919B03141335C08091990390919A0331
:1049C0000E941A28883C910560F5C0E2CD0F1D17A2
:1049D000B9F080E2810F883040F4177081E001C0A7
:1049E000880F1A95EAF70E94800EC83048F481E0DB
:1049F0009D2F977001C0880F9A95EAF70E94790E53
:104A0000802F0E94710EC830B8F4D77081E001C0C9
:104A1000880FDA95EAF7DF91CF911F910F910C94EF
:104A2000800E80E28C0F883038F4C77081E001C0BE
:104A3000880FCA95EAF7EFCFDF91CF911F910F91C1
:104A400008950F939C01CB01243F4CE5340759F1A5
:104A5000A8F4293DFCE53F0701F12A3D4CE5340768
:104A6000D1F1283D3C4591F406E221EE41EE68ED9E
:104A70007CE50E94B52480E00F910895263FFCE577
:104A80003F07E9F0B0F0273F3C45F9F0FC01828197
:104A9000882339F110929B03EFCF07E225EE45EE14
:104AA00069ED7CE5E6CF06E221EE40EE64EF7CE5C1
:104AB000E0CF07E225EE44EE65EF7CE5DACF06E2D3
:104AC00021EE42EE66EF7CE5D4CF07E225EE46EE1E
:104AD00067EF7CE5CECF08E221E045EE6AED7CE5AC
:104AE000C8CF81E0C9CF1092B9008CE08093B800A4
:104AF00008959F92AF92BF92CF92DF92EF92FF9272
:104B00000F931F93CF93DF93B82EEB010E940228DF
:104B10006C01EE24E394F12CC431D10560F025E062
:104B2000E22EF12CCF3FDC0731F0CE0164E170E0E2
:104B30000E944D2F7B0184EAA82E94E8992E1092B2
:104B4000BC00A092BC000E9402288C018091BC0095
:104B500087FF0DC08091B900887F883039F180913E
:104B6000B900887F803111F10FEF1FEF09C00E945B
:104B70000228801B910B8E159F0540F30EEF1FEF4F
:104B8000CF3FDC07E1F2C6010E941A288C179D076F
:104B9000B0F2C801DF91CF911F910F91FF90EF907C
:104BA000DF90CF90BF90AF909F900895B092BB00E0
:104BB0009092BC000E9402288C018091BC0087FF6B
:104BC0000AC08091B900887F883111F0803461F685
:104BD00010E000E0DECF0E940228801B910B8E15B2
:104BE0009F0558F3CBCF0F931F93CF93DF93EB0128
:104BF0008093BB0084E88093BC000E9402288C0153
:104C00008091BC0087FF11C02091B900287F81E00E
:104C100090E0283211F490E080E09195819591091F
:104C2000DF91CF911F910F910895CF3FDC0741F3A2
:104C30000E940228801B910B8C179D0708F38EEFB2
:104C40009FEFEECF0F931F93CF93DF93EC0184E898
:104C50008093BC000E9402288C018091BC0087FFD9
:104C600008C08091BB0090E0DF91CF911F910F9120
:104C70000895CF3FDC0789F30E940228801B910B27
:104C80008C179D0750F38EEF9FEFEECF84E9809352
:104C9000BC00089590933502809334020895909358
:104CA000A1038093A0030895E091A003F091A103D4
:104CB000309721F00190F081E02D099480E0089573
:104CC0000E9454260895E091A003F091A10330972B
:104CD00099F02091D001222359F02091CD0327FF94
:104CE00007C0DC012C9111962C93119726E02C9390
:104CF0000280F381E02D09940895E091A003F091E2
:104D0000A103309739F022E0DC012C930480F58177
:104D1000E02D0994089520919E0330919F03281758
:104D2000390771F090939F0380939E03E091A00355
:104D3000F091A103309721F00680F781E02D0994CE
:104D4000089520919C0330919D032817390771F035
:104D500090939D0380939C03E091A003F091A103A5
:104D6000309721F00084F185E02D09940895FC012D
:104D700032968091D001882321F08091CD039EE16D
:104D800087FF96E080E0915008F408952191222356
:104D9000D1F38F5FF8CF662301F12091D001222358
:104DA000F1F02091CD0327FF1AC0462F4695469576
:104DB00046954E3190F4677021E030E002C0220F3A
:104DC000331F6A95E2F7840F911DFC01828190E008
:104DD0002823392381E0232B69F480E00895FC0126
:104DE000329608962191261721F0E817F907D1F796
:104DF000F4CF81E008959C01FC0132969FEF80E0A2
:104E00004191461751F09F3F19F4411101C0982F6D
:104E10008F5F8630A9F79F3F09F40895290F311D50
:104E200097FD3A95F90162830895FC013296089640
:104E30002191261303C0DF0111971C92E817F9078F
:104E4000B9F70895E62FE695E695E695EE3168F414
:104E5000E80FF92FF11D677021E030E001C0220F4B
:104E60006A95EAF78281822B82830895E62FE69580
:104E7000E695E695EE3170F4E80FF92FF11D6770B5
:104E800021E030E001C0220F6A95EAF72095828187
:104E90002823228308952091D001222329F02091F4
:104EA000CD0327FD0C9422270C94FB262091D001E2
:104EB000222329F02091CD0327FD0C9436270C9452
:104EC0001527FC0132968091D001882351F0809102
:104ED000CD0387FF06C08EE1DF011D928A95E9F7B9
:104EE000089586E0F9CF08950C947327811105C0C9
:104EF00081E08093A2030C94742782E0FACF83E0D0
:104F00008093A2030C9474270C94762781E08093FD
:104F1000A2030C9474270C94862708958091FA03B9
:104F2000843031F10E942C0B1092A30388E190E0B1
:104F300020E40FB6F894A895809360000FBE2093EC
:104F4000600083B7817F846083BF83B7816083BF44
:104F50007894889583B78E7F83BF0FB6F894A89511
:104F600080916000886180936000109260000FBEA5
:104F700008950895CF930E944F070E94931B0E94AB
:104F8000B927C0E08C2F0E947B1B811105C0CF5F29
:104F9000CE30C1F7CF91089581E0FCCF0E949211ED
:104FA0000C949A0B1F921FB61F9211248F939F93FC
:104FB000AF93BF938091A303811113C08091F2033B
:104FC0009091F303A091F403B091F5034196A11DD4
:104FD000B11D8093F2039093F303A093F403B09375
:104FE000F503BF91AF919F918F911F901FBE1F90AE
:104FF000189582E084BD93E095BD9AEF97BD8093AC
:105000006E0008952FB7F8948091F2039091F30306
:10501000A091F403B091F5032FBF08952FB7F89432
:105020006091F2037091F3038091F4039091F50382
:105030002FBF08959C014FB7F8948091F20390918F
:10504000F303A091F403B091F5034FBF821B930BC0
:10505000089578941F921FB61F9211248F939F93E7
:10506000AF93BF938091F2039091F303A091F40367
:10507000B091F5030196A11DB11D8093F2039093A9
:10508000F303A093F403B093F503BF91AF919F9105
:105090008F911F901FBE1F901895F89481E0809308
:1050A000E00080E28093D800E9ECF0E010828FE12C
:1050B0009EE40197F1F700C000001DBA109268004D
:1050C0001CBC10BE1FBA10927A0010926E00109293
:1050D0006F0010927100109272001082ECEBF0E001
:1050E000108214B817B81AB81DB810BA108215B8C3
:1050F00018B81BB81EB811BA0C94003F08958091DF
:10510000C703089508959C0182E08093E9009FEF12
:105110008091E800915085FD06C085ED8A95F1F7F4
:1051200000009111F5CF8091E80085FF0CC050E0A0
:1051300040E066E070E0C9010E94BC2A8091E8006E
:105140008E778093E8000895CF93DF93EC018091F0
:10515000D0018823B1F18091CD0387FF32C060E296
:1051600082E08093E9008FEF9091E800815095FDF7
:1051700006C095ED9A95F1F700008111F5CF809169
:10518000E80085FF1BC08091D00170E050E040E056
:10519000811104C050E040E068E070E0CE010E9460
:1051A000BC2A8091E8008E778093E80080E2FE01BF
:1051B000A7EAB3E001900D928A95E1F7DF91CF91D4
:1051C000089568E081E0CDCF8093A4037093A60397
:1051D0006093A5038091FA03843001F582E0809307
:1051E000E9008FEF9091E800815095FD06C095EDA4
:1051F0009A95F1F700008111F5CF8091E80085FFC5
:105200000DC050E040E063E070E084EA93E00E946B
:10521000BC2A8091E8008E778093E8000895BC0155
:1052200084E00C94E428BC0183E00C94E428809191
:10523000F903811109C00E944C2C0E94A92C809175
:10524000E20084608093E20008951092F9030895CB
:105250000C9486276091F60381E0611101C080E023
:105260000C947F279091FA0381E0943009F080E05C
:105270006091F6030C94842742E061EC81E00E9487
:10528000C82B42E261EC82E00E94C82B9091FA03A5
:1052900081E0943009F080E06091F6030C94762769
:1052A0008091FC03833009F460C030F48130C9F18F
:1052B000823009F49CC008958A3009F488C08B308C
:1052C00009F46EC0893009F04FC08091FB03813230
:1052D00009F04AC08091FF0390910004029708F002
:1052E00043C08091E800877F8093E8008091E800C8
:1052F00082FF36C09091F3008091F200029731F462
:105300008091F100813011F0863021F48091F1001C
:105310008093C7038091E8008B778093E8000C941A
:10532000FC2B8091FB03813AF9F48091E800877FA0
:105330008093E8008091FF0390910004892B61F431
:1053400060E287EA93E070E00E940B2B8091E80016
:105350008B778093E800089560E090E080E0F3CFE1
:105360008091FA038111C2CF08958091FB03813AA5
:10537000D9F78091FF0390910004892BA9F78091C0
:10538000E800877F8093E8008091E80080FFFCCFF1
:105390008091D0018093F1008091E8008E77BDCF9D
:1053A0008091FB03813201F78091FF03909100040B
:1053B000892BD1F68091E800877F8093E8000E94D6
:1053C000FC2B8091FD038093D0010C94921180916D
:1053D000FB03813249F68091E800877F8093E800E3
:1053E0000E94FC2B8091FE038093C8030895809156
:1053F000FB03813A09F0B8CF8091E800877F809362
:10540000E8008091E80080FFFCCF8091C803C2CF04
:1054100084B7877F84BF0FB6F894A8958091600009
:10542000886180936000109260000FBE80E890E079
:105430000FB6F89480936100909361000FBE0C94B6
:105440008B270E944C2C0E94A92CE2EEF0E0808178
:105450008460808378940C94322F84EC91E00C94D7
:105460004F268091FA038530A9F48091FA038530A4
:1054700011F00C94CE270E948E278091F803882388
:10548000A1F30E94BA27882381F30E94A62A0E94D2
:105490009211EBCF089508950C944E2A292F3327AB
:1054A0002330310519F168F42130310509F444C085
:1054B0002230310509F445C090E080E030E020E082
:1054C00025C02132310549F122323105A9F780E4A6
:1054D00090E027E13CE061157105C1F086EB90E0BA
:1054E00021E63BE06130710589F0E6CF99278130F4
:1054F000910581F0009729F00297F1F6EEECFAE0C1
:1055000002C0E0E1FBE0849190E09F01FA01318369
:1055100020830895E6EEFAE0F6CF89E090E026E2F7
:105520003BE06115710591F389E090E02FE33BE0EA
:105530006130710559F3C0CF82E190E02FE43BE088
:10554000E5CF8BE390E024E13BE0E0CF80E189BD53
:1055500082E189BD09B400FEFDCF8091D8008F7D26
:105560008093D8008091E00082608093E000809179
:10557000E00081FDFCCF0895AF92BF92CF92DF9201
:10558000FF920F931F93CF93DF936C01EB018A017E
:105590000E941B2CF82E811123C00115110539F032
:1055A000F80180819181C81BD90BC80ED91EB12C7E
:1055B000A12C2097A9F08091E80085FD22C0809160
:1055C000E8008E778093E80001151105A1F0F8013D
:1055D00080819181A80EB91EB182A08285E0F82E4B
:1055E0008F2DDF91CF911F910F91FF90DF90CF9082
:1055F000BF90AF9008950E941B2C8823D1F2F82E03
:10560000EFCFF60181916F018093F1002197FFEFB9
:10561000AF1ABF0ACECFFC01809101049091020421
:1056200086179707A0F06115710529F49091E8009D
:105630009E779093E80090E06115710551F4911107
:1056400008C08091E80082FF34C080E00895BC016A
:10565000F2CF8091FA038823C1F18530C1F18091A6
:10566000E80083FD30C08091E80082FDEACF8091A0
:10567000E80080FFE1CF8091F3002091F200382F05
:105680006115710519F02830310558F091E0283086
:10569000310509F090E02091E8002E772093E80092
:1056A000CBCF81918093F100615071092F5F3F4F03
:1056B000E7CF8091FA03882341F0853041F0809153
:1056C000E80083FFBECF81E0089582E0089583E083
:1056D0000895FC01809101049091020486179707B8
:1056E000A0F06115710529F48091E8008E77809310
:1056F000E80090E06115710551F4911108C08091A6
:10570000E80082FF35C080E00895BC01F2CF8091AF
:10571000FA038823C9F18530C9F18091E80083FD3F
:1057200031C08091E80082FDEACF8091E80080FFDF
:10573000E1CF8091F3002091F200382F61157105BF
:1057400019F02830310558F091E02830310509F082
:1057500090E08091E8008E778093E800CBCF849131
:105760008093F1003196615071092F5F3F4FE6CF72
:105770008091FA03882341F0853041F08091E80060
:1057800083FFBDCF81E0089582E0089583E008950E
:10579000982F973028F08F708093E90081E008956A
:1057A0009093E900242F762F50E0981731F07091F4
:1057B000EC002091ED005091F00021FD02C09F5FB0
:1057C000E8CF3091EB003E7F3093EB003091ED005D
:1057D0003D7F3093ED003091EB0031603093EB0072
:1057E0007093EC002093ED005093F0002091EE00B8
:1057F00027FDE5CF80E008958091FB0387FF13C06C
:105800008091E80082FF06C08091E8008B7780934A
:10581000E80004C08091FA038111F2CF08958091CD
:10582000FA038823D9F38091E80080FFF8CF8091B4
:10583000E8008E77ECCF2091E4003091E50095E60A
:10584000A9012091EC00822F817020FF06C0809179
:10585000E80080FF06C080E008952091E80022FD66
:105860001AC08091FA03882389F0853089F08091ED
:10587000EB0085FD0FC02091E4003091E500421758
:105880005307F9F29150E1F684E0089582E008951B
:1058900083E0089581E008950E94BA2C0E94C22CF2
:1058A000E0EEF0E0808181608083E8EDF0E08081CF
:1058B0008F77808319BCA7EDB0E08C918E7F8C939D
:1058C00080818F7E80831092F90308950F931F9338
:1058D000CF93DF930E94BA2C0E94C22CC8EDD0E077
:1058E00088818F77888388818068888388818F7D8D
:1058F000888319BC1092FA031092F6031092F803F1
:105900001092F70300EE10E0F80180818B7F808316
:1059100088818160888342E060E080E00E94C82B3B
:10592000E1EEF0E080818E7F8083E2EEF0E0808126
:1059300081608083808188608083F80180818E7F90
:105940008083888180618883DF91CF911F910F913F
:105950000895E8EDF0E080818F7E8083E7EDF0E050
:1059600080818160808384E082BF81E08093F9033D
:105970000C94662CE8EDF0E080818E7F808310929D
:10598000E20008951092DA001092E10008951F924B
:105990000F920FB60F9211242F933F934F935F9363
:1059A0006F937F938F939F93AF93BF93EF93FF93E7
:1059B0008091E10082FF0BC08091E20082FF07C06E
:1059C0008091E1008B7F8093E1000E94312F8091D4
:1059D000DA0080FF19C08091D80080FF15C0809147
:1059E000DA008E7F8093DA008091D90080FF96C024
:1059F00080E189BD82E189BD09B400FEFDCF81E06F
:105A00008093FA030E9417298091E10080FF19C05A
:105A10008091E20080FF15C08091E2008E7F80932C
:105A2000E2008091E20080618093E2008091D800E2
:105A300080628093D80019BC85E08093FA030E94AD
:105A40002A298091E10084FF2BC08091E20084FF2D
:105A500027C080E189BD82E189BD89B5982F917009
:105A600080FFFBCF8091D8008F7D8093D8008091FC
:105A7000E1008F7E8093E1008091E2008F7E809331
:105A8000E2008091E20081608093E2008091F60361
:105A9000882309F449C084E08093FA030E943229E4
:105AA0008091E10083FF29C08091E20083FF25C03F
:105AB0008091E100877F8093E10082E08093FA0388
:105AC0001092F6038091E1008E7F8093E100809137
:105AD000E2008E7F8093E2008091E20080618093FB
