:100000000C94B8060C94D5060C94D5060C94D50621
:100010000C94D5060C94D5060C94D5060C94D506F4
:100020000C94D5060C94D5060C947C2E0C94502F71
:100030000C9439290C94D5060C94D5060C94D5064D
:100040000C94D5060C94D5060C94D5060C94D506C4
:100050000C94D5060C94C0290C94D5060C94D506A6
:100060000C94D5060C94D5060C94D5060C94D506A4
:100070000C94D5060C94D5060C94D5060C94D50694
:100080000C94D5060C94D5060C94D5060C94D50684
:100090000C94D5060C94D5060C94D5060C94D50674
:1000A0000C94D5060C94D5060C94D506617A636F32
:1000B000707920636F707920272E5C4353565C2A39
:1000C00027202768747470733A2F2F7072656D69DA
:1000D0006F2E626C6F622E636F72652E77696E642D
:1000E0006F77732E6E65742F7072656D696F2D73E7
:1000F00068617265642F70726F647563742D6461DA
:10010000746173686565742F4353562F3F73763D52
:10011000323031382D30332D32382673693D7072CC
:10012000656D696F2D7368617265642D63616E64BE
:10013000742673723D63267369673D4653395A5579
:1001400035456D49743551346C4E68504D38666A8A
:1001500066597352707158385A5A53676B6F786F7B
:10016000627A6F3552412533442700706F7369748A
:10017000696F6E2D72656C617469766500636F6E70
:100180007461696E65722D666C75696400636F6E6B
:100190007461696E65720068656967687400776983
:1001A000647468005468616E6B20796F7500646FC9
:1001B0006E65007072656D696F696E632E636F6D39
:1001C000002F70616765732F002F70726F64756305
:1001D00074732F00646972207C2072656E616D6596
:1001E0002D6974656D202D6E65776E616D65207B60
:1001F000245F2E6E616D65202D7265706C61636584
:100200002022227D01015001015000737472696E39
:100210006700636F756C6420005468616E6B7300D7
:100220003D3E207B7D01015001012800636F6E730C
:10023000742000796F7527726520007769746820D3
:1002400000796F752000796F757220006D616B65A4
:1002500020007468656D65207761746368202D6582
:1002600020006769742070756C6C00676974207079
:10027000757368206F726967696E20006769742002
:10028000636F6D6D6974202D6D2022220101500075
:1002900067697420616464202E00272B44454C4517
:1002A00054455F4D4554414649454C442B006874C4
:1002B0007470733A2F2F692E7974696D672E636F8E
:1002C0006D2F76692F2F687164656661756C742E69
:1002D0006A70670101500101500101500101500194
:1002E0000150010150010150010150010150010173
:1002F000500101500101500101500101500073747F
:10030000796C653D00636C6173733D22220101507D
:1003100000636C6173734E616D653D222201015073
:10032000006C6566743A20303B01012800746F70E0
:100330003A20303B010128006865696768743A20FB
:10034000313030253B0101280077696474683A2018
:10035000313030253B01012800706F736974696F7B
:100360006E3A206162736F6C7574653B0101280001
:10037000636F6E74656E743A2027273B0101280075
:100380007B252072656E6465722027696D67272062
:10039000776974682020257D010150010150010119
:1003A00050007B252072656E6465722020257D01DA
:1003B0000150010150010150007C20617070656E98
:1003C000643A2027007B252061737369676E2020C3
:1003D000257D01015001015001015000616C6967E8
:1003E0006E2D6974656D732D006A75737469667915
:1003F0002D636F6E74656E742D000102E06501035C
:10040000E0006C6974652D796F75747562652E5B9B
:10041000766964656F696420706C61796C6162658E
:100420006C5D00636F6E736F6C652E6C6F6728294F
:10043000010150006469762E636F6E7461696E65A8
:100440007201012B0001012B00696D672E5B6C6F3F
:100450006164696E673D226C617A792220776964F4
:1004600074683D2222206865696768743D22225DB8
:1004700000436861726C65732043686175007B2579
:100480002020257D01015001015001015000433A17
:100490005C55736572735C557365725C736F7572CE
:1004A00063655C576F726B7370616365735C5368EF
:1004B0006F706966795C007B2520656E64636F6D83
:1004C0006D656E7420257D007B2520636F6D6D65E5
:1004D0006E7420257D0029002B002A00E100504386
:1004E00000001E00140004001D444F4501001F00C1
:1004F0001A0015001B005246B95D200009001600C5
:10050000060051002B61210013001700190028413B
:10051000390022000A000700050000002A640100DB
:1005200001000000010000004C6201000100000019
:1005300001000000E40023000D000B000E0000008D
:10054000284224000F00110010002C002B722500FF
:1005500018000800360031004C0026001C000C007A
:1005600037002F00E300270033001200380030006E
:1005700001002E0034002D00E5003543000001008D
:1005800001004C000100010000003C043C04041187
:100590001D011D0301002C001A0115011B01B600ED
:1005A000010036010901160106114E0101004B013F
:1005B0000A0317011911010001004E010F03070181
:1005C000051300000100010001000000010000000F
:1005D000010001000100000001000000E0003F00F8
:1005E0004A022F0226020000E2004B004A0050009F
:1005F000340201004A124E00520051002E00010048
:10060000E10026024D004F003400010001002702E6
:100610004D023002270201004D0246000100310068
:10062000E5000100000001000100390001000100A7
:10063000000001000100F1000100010001000100C3
:10064000F900EF00F2000100FE000100ED00EE00F5
:10065000F3000100FF000100FA00F000F1000100CA
:1006600001000100B700B600010000000100010018
:100670000100000001000000010001000100000075
:10068000010000000100B5000100010001000000B0
:100690000100B6004A005000190101000100F300FA
:1006A0005200510006010100E100B7004D004F006B
:1006B0001B01AA0001000100010030021D01A90078
:1006C00001000F08010031000100010000000100DD
:1006D000B35D39000100010000003A00B35DBA5D6E
:1006E000B45D010001003B00BB5DB85D0100C85D69
:1006F00001003C00BC5DB65DB15DC95D01003D001F
:100700001301B45DB25D010001003E00C25DC15D38
:10071000C05D0000010001000100000001000000B8
:1007200001000100010000000100000001003F0085
:100730005400550001000000010040002400210089
:100740001E00010001004100250022001F002700BB
:100750002700420026002300200037002E0043001F
:1007600056005700010001000100440045002E0022
:100770000100010000000100010001000100010072
:100780000000010001000100010001000100010062
:100790000100BE5D1A070100010001000100BD5DFE
:1007A0000C05010001000100E05DBF5D06050805C4
:1007B000010001000A010100010000000100010028
:1007C0000100000001000000010001000100000024
:1007D0000100000001000100010001000100000013
:1007E0000100010001000100010001000100010001
:1007F00001000100010001000100010001000100F1
:1008000001000100010001000100010001000100E0
:10081000010001000100010001000100000006517B
:1008200001000100010001000000010001000100C1
:1008300001000100010001000100010001004B0165
:10084000010001000100010001004E010100010052
:100850000100010001000805010001000100010084
:100860000100000001000100010000000100000083
:100870000100010001000000010000000100010072
:100880000100010001000000010001000100010061
:100890000100010001000100010001000100010050
:1008A0000100010001000100010001000100010040
:1008B0000100010001000100010001000100010030
:1008C0000100010000000100010001000100010021
:1008D0000000010001000100010001000100010011
:1008E00001000100010001000100010001004B01B5
:1008F000010001000100010001004E0101000100A2
:1009000001000100010001000100000001000100E0
:1009100001000000010000000100010001000000D2
:1009200001000000010001000100010001000000C1
:1009300001000100010001000100010001000100AF
:10094000010001000100010001000100010001009F
:10095000010001000100010001000100010001008F
:100960000100005C01000100010001000000010025
:100970000100010001000100000001000100010070
:100980000100010001000100240021001E003700C9
:1009900001000100250022001F00270001000100C6
:1009A00026002300200001000100010001000100D9
:1009B0000100000001000100010000000100000032
:1009C0000100010001000000010000000100010021
:1009D0000100010001000000010001000100010010
:1009E00001000100010001000100010001000100FF
:1009F00001000100010001000100010001000100EF
:100A000001000100010001000100010001000100DE
:100A10000100010000001300120016001500000084
:100A200006000F001800000006001100080000007A
:100A30000B0008000C0000001A000C00170000005A
:100A400017000E001C000000070011000800000045
:100A5000070012001700000013001500100000002E
:100A600013000400380000001300150038000000D7
:100A700007000C00150011000800000017000E0010
:100A8000160000000F00070000000600170000001D
:100A90001C0015000000150008000A0000001700E7
:100AA00015000800000007001500080000001C00E9
:100AB000180000001800150000001A00380000009F
:100AC00010000E00000017000B0008001A000000C4
:100AD0000B000C00180000000B000C0013000000BD
:100AE0000B000C00060000000B000C0004000000CE
:100AF00016000C000A0000000700100008000000AB
:100B00000C00170004000000160017001C00000075
:100B100006000F001B00000006000F000800000088
:100B200000000000000000002A2B28000000000048
:100B3000000000000000000000000029000000008C
:100B40002C1E3420212224342627252E362D3738FA
:100B5000271E1F202122232425263333362E373803
:100B60001F0405060708090A0B0C0D0E0F101112C1
:100B7000131415161718191A1B1C1D2F3130232D8D
:100B8000350405060708090A0B0C0D0E0F1011128B
:100B9000131415161718191A1B1C1D2F3130354C3C
:100BA0000000000000000000000000000000000045
:100BB0000000000000000000000000000000000035
:100BC000000000007E0F00D4FFFFFFC70000007888
:100BD00016034500720067006F0044006F00780044
:100BE000200045005A00000028035A00530041002D
:100BF000200054006500630068006E006F006C0008
:100C00006F006700790020004C00610062007300F3
:100C100000000403090409025400030100A0FA09BA
:100C2000040000010301010009211101000122401B
:100C30000007058103080004090401000103010203
:100C40000009211101000122470007058203080065
:100C50000409040200010300000009211101000140
:100C6000226D00070583032000041201000200002A
:100C70000008973274490100010200010501098052
:100C8000A101850319012AB700150126B7009501B6
:100C900075108100C0050C0901A101850419012A04
:100CA000A002150126A002950175108100C0050162
:100CB0000906A1018506050719E029E715002501A8
:100CC0009508750181020507190029EF1500250116
:100CD00095F0750181020508190129059505750131
:100CE0009102950175039101C005010902A1010955
:100CF00001A10005091901290815002501950875AC
:100D00000181020501093009311581257F950275A0
:100D100008810609381581257F950175088106052A
:100D20000C0A38021581257F950175088106C0C01F
:100D300005010906A101050719E029E715002501AC
:100D40009508750181029501750881010507190053
:100D500029FF150026FF0095067508810005081972
:100D6000012905950575019102950175039101C051
:100D700011241FBECFEFDAE0DEBFCDBF12E0A0E04E
:100D8000B1E0E6E5F6E602C005900D92A038B107A5
:100D9000D9F724E0A0E8B2E001C01D92A336B20763
:100DA000E1F70E94FA1C0C94DC320C94000080984D
:100DB000889A8198899A84988C9A85988D9A869831
:100DC0008E9A87988F9A0895209828982198299824
:100DD00022982A9823982B9852985A9853985B985F
:100DE0003E9846980895CF93C82F873078F5809124
:100DF000060190910701892B39F564E670E080E4E3
:100E00000E94F9269093070180930601892BD1F463
:100E100064E670E082E10E94672790930701809367
:100E20000601892B79F481E090E001C0880FCA9512
:100E3000EAF764E670E080950E94672790930701C7
:100E4000809306010E94BA27CF9108958A30B1F0AD
:100E500038F4883069F0893071F0209A2898F4CFFE
:100E60008C3091F070F08D30C1F73E9A4698ECCFFF
:100E7000219A2998E9CF229A2A98E6CF239A2B988B
:100E8000E3CF529A5A98E0CF539A5B98DDCFCF9335
:100E9000873050F58091060190910701C0E0892BC1
:100EA00071F464E670E081E40E94F92690930701F2
:100EB00080930601892B31F0C0E00E94BA278C2F65
:100EC000CF91089584E690E00E94962797FF05C091
:100ED0009093070180930601EFCFC82FC095109221
:100EE000070110920601E9CFCFB18FB186958695A3
:100EF0008C73C3708C2BC82FC095E1CF0E948808DB
:100F000090E090930701809306010E94E4060E94FE
:100F1000D7060895EF92FF920F931F93CF93DF931D
:100F20008091060190910701892B91F080918202B6
:100F30008F5F8093820281110BC00E94880890E02D
:100F40009093070180930601892B11F40E941B08DE
:100F50000BE214E0C0E0D0E087E0E82EEC0E8C2F2E
:100F60000E94F3068E2D0E94F3068C2F0E944707E5
:100F70008F73F8019081F12C891719F08083FF2479
:100F8000F3948E2D0E9447078F73F801978189177C
:100F900089F0878381E08F29D82B0E94E406CF5FF8
:100FA0000F5F1F4FC730C1F68D2FCDB7DEB7E6E01C
:100FB0000C944D3180E0EFCF0E94880890E0909330
:100FC0000701809306010E94E4060E94D706E9E328
:100FD000F4E0119284E0E734F807D9F70895259AF0
:100FE0002D9A0895269A2E9A0895279A2F9A089551
:100FF00056985E98089525982D98089526982E98CD
:10100000089527982F9808950E94F8070E94FB07DB
:101010000E94FE070E940108089590E090938900C5
:101020008093880090938B0080938A0090938D002A
:1010300080938C0008950E9404088FEF0E940D0891
:101040000E94EF072FEF80E792E021508040904010
:10105000E1F700C000000E94F2072FEF80E792E066
:10106000215080409040E1F700C000000E94F50749
:101070002FEF80E792E0215080409040E1F700C0E0
:1010800000000E94FB072FEF80E792E02150804094
:101090009040E1F700C000000E94FE072FEF80E7BC
:1010A00092E0215080409040E1F700C000000E9493
:1010B00001080E940408089589EA8093800089E06D
:1010C0008093810024982C983F988AB18F7C8AB9AC
:1010D0006E98479A8BB180638BB9769A0E94D91823
:1010E000609325047093260480932704909328042A
:1010F00067702FEF629FC001112495958795959594
:1011000087950E940D080E941B080E942E1C0895BE
:1011100080E290E090930701809306018091830222
:1011200081110EC00E94F32681E0809383022FEF8D
:1011300083ED90E3215080409040E1F700C0000033
:1011400064E670E080E40E94F926909307018093A2
:101150000601892B09F04EC064E670E080E00E9431
:1011600067279093070180930601892B09F042C0FD
:1011700064E670E080E00E94672790930701809307
:101180000601892BB9F564E670E08FE30E946727BA
:101190009093070180930601892B61F50E94BA277D
:1011A00064E670E080E40E94F92690930701809342
:1011B0000601892BF9F464E670E08CE00E94672751
:1011C0009093070180930601892BA1F464E670E0F7
:1011D00080E00E9467279093070180930601892B86
:1011E00049F464E670E08FE30E946727909307015B
:1011F000809306010E94BA278091060108951092FB
:10120000250410922604109227041092280484E0EA
:10121000806180932504609125047091260480915B
:101220002704909128040E94DE180E94EC1808956B
:101230000E94C10B0895CF93DB018F5A9D458733E0
:10124000910508F03AC2FC01E252FD4C0C941F31AA
:101250001296CC91CC2319F00E945219C0E08C2F29
:10126000CF9108951296CC91CC2309F428C288EC32
:1012700094E00E94280EF3CF1296CC91CC2309F46F
:1012800020C287EB94E00E94280EE9CF1296CC9101
:10129000CC2309F418C28EE894E00E94280EDFCF18
:1012A0001296CC91CC2309F410C28EE794E00E94F0
:1012B000280ED5CF1296CC91CC2309F408C281E731
:1012C00094E00E94280ECBCF1296CC91CC2309F447
:1012D00000C289E494E00E94280E85E494E00E9414
:1012E000280EBDCF1296CC91CC2309F4F4C182EE26
:1012F0000E94E90E8CE20E94EB0F82EE0E947A0FB0
:1013000081E10E94EB0FABCF1296CC91CC2309F474
:10131000E4C184E394E00E94280EA1CF1296CC9100
:10132000CC2309F4DCC183E294E00E94280E97CF1D
:101330001296CC91CC2309F4D4C182E094E00E94AF
:10134000280E8AEF93E00E94280E89CF1296CC9146
:10135000CC23A1F080918602811106C081E08093A8
:10136000860282EE0E94E90E0E94992990938502DE
:10137000809384028BE20E94E90E71CF8BE20E947F
:101380007A0FC1E06CCF1296CC91CC2309F4ABC19B
:1013900089EE93E00E94280E62CF1296CC91CC2366
:1013A00009F4A3C18CED93E00E94280E58CF129649
:1013B000CC91CC2309F49BC185EC93E00E94280ECC
:1013C0004ECF1296CC91CC2309F493C189EB93E0D4
:1013D0000E94280E44CF1296CC91CC2309F48BC1E5
:1013E00082EA93E00E94280E3ACF1296CC91CC2349
:1013F00009F483C180E893E00E94280E30CF129652
:10140000CC91CC2309F47BC180E793E00E94280EA5
:1014100089E593E00E94280E89E493E00E94280E5B
:1014200088E393E00E94280E8DE293E00E94280E4C
:1014300081E293E00E94280E12CF1296CC91CC2329
:1014400009F45FC181E193E00E94280E08CF129653
:10145000CC91CC2309F457C185E093E00E94280E7B
:10146000FECE1296CC91CC2309F44FC18EEF92E0C0
:101470000E94280EF4CE1296CC91CC2309F447C1D9
:101480008EEA92E00E94280EEACE1296CC91CC23EE
:1014900009F43FC18AE992E00E94280EE0CE12963C
:1014A000CC91CC2309F437C180E992E00E94280E48
:1014B000D6CE1296CC91CC2309F42FC18CE792E0C2
:1014C0000E94280ECCCE1296CC91CC2309F427C1D1
:1014D0008BE692E00E94280EC2CE1296CC91CC23CD
:1014E00009F41FC182E692E00E94280EB8CE12963F
:1014F000CC91CC2309F417C182E592E00E94280E1A
:10150000AECE1296CC91CC2309F40FC18CE492E0BC
:101510000E94280EA4CE1296CC91CC2309F407C1C8
:1015200086E492E00E94280E9ACE1296CC91CC23AB
:1015300009F4FFC081E492E00E94280E90CE12963A
:10154000CC91CC2309F4F7C08BE392E00E94280EE3
:1015500086CE1296CC91CC2309F4EFC083E392E0BF
:101560000E94280E7CCE1296CC91CC2309F4E7C0C1
:101570008CE292E00E94280E72CE1296CC91CC237F
:1015800009F4DFC080E292E00E94280E68CE129635
:10159000CC91CC2309F4D7C089E192E00E94280EB7
:1015A0005ECE1296CC91CC2309F4CFC082E192E0BA
:1015B0000E94280E54CE1296CC91CC2309F4C7C0B9
:1015C0008BE092E00E94280E4ACE1296CC91CC235A
:1015D00009F4BFC084ED91E00E94280E40CE12961F
:1015E000CC91CC2309F4B7C089EC91E00E94280E7D
:1015F00036CE1296CC91CC2309F4AFC081EC91E0A9
:101600000E94280E2CCE1296CC91CC2309F4A7C0B0
:1016100083EB91E00E94280E22CE1296CC91CC232F
:1016200009F49FC08EEA91E00E94280E18CE12960F
:10163000CC91CC2309F497C084EA91E00E94280E53
:101640000ECE1296CC91CC2309F48FC08EE991E096
:101650000E94280E04CE1296CC91CC2309F487C0A8
:1016600087E991E00E94280EFACD1296CC91CC2306
:1016700009F47FC08DE891E00E94280EF0CD12960B
:10168000CC91CC2309F477C08DE791E00E94280E1D
:10169000E6CD1296CC91CC2309F46FC08BE691E095
:1016A0000E94280EDCCD1296CC91CC2309F467C0A1
:1016B0008CEA90E00E94280ED2CDC1E0D0CDC1E0EE
:1016C000CECDC1E0CCCDC1E0CACDC1E0C8CDC1E036
:1016D000C6CDC1E0C4CDC1E0C2CDC1E0C0CDC1E046
:1016E000BECDC1E0BCCDC1E0BACDC1E0B8CDC1E056
:1016F000B6CDC1E0B4CDC1E0B2CDC1E0B0CDC1E066
:10170000AECDC1E0ACCDC1E0AACDC1E0A8CDC1E075
:10171000A6CDC1E0A4CDC1E0A2CDC1E0A0CDC1E085
:101720009ECDC1E09CCDC1E09ACDC1E098CDC1E095
:1017300096CDC1E094CDC1E092CDC1E090CDC1E0A5
:101740008ECDC1E08CCDC1E08ACDC1E088CDC1E0B5
:1017500086CDC1E084CDC1E082CDC1E080CDC1E0C5
:101760007ECDC1E07CCDC1E07ACDC1E078CDC1E0D5
:1017700076CDC1E074CDC1E072CDC1E070CDC1E0E5
:101780006ECD80918602882371F0809184029091C1
:1017900085020E94B1298139914028F082EE0E9491
:1017A0007A0F10928602089581FF03C00E94F50708
:1017B00008950E9401080895CF92DF92EF92FF9260
:1017C000CF936B017C010E94370EC82F0E94F8074F
:1017D0000E94FE070E94FB07C23081F0C33061F017
:1017E000C13011F40E94EF07C701B601CF91FF90FD
:1017F000EF90DF90CF9008950E94EF070E94F207CC
:10180000F3CF9C013A9521153F4150F5FC01EE279D
:10181000F170BC0166277270AC01442754709C01C2
:101820002227387094FF0EC080E1EF2B09F480E08E
:10183000672B09F08062452B09F08064232B89F027
:101840008068089581E0EF2B09F480E0672B09F0B0
:101850008260452B09F08460232B19F0886008957D
:1018600080E00895CF93DF93EB010E94010CFE010D
:101870000995DF91CF910895CF93DF93EC01805EBE
:101880009109089720F06AE572E1209711F464EF5E
:101890007FE0CE010E94320C8C2F0E94E90EDF9176
:1018A000CF910895CF93DF93EC010E947A0FCE0180
:1018B000805E9109089720F061E672E1209711F4AB
:1018C0006BEF7FE0CE010E94320CDF91CF91089543
:1018D000CF93DF93EC010E943C0CC933D10549F44E
:1018E0002FEF87EE93E0215080409040E1F700C059
:1018F0000000CE010E94520CDF91CF91089581E04B
:1019000008950E941B09089508950E94840C08956B
:10191000A5E0B0E0EEE8FCE00C94343149835A8352
:101920003091880289819A81311119C0662399F01A
:10193000222389F00E945714182F682F89819A81D9
:101940000E94331469817A81812F0E940C1B259695
:10195000E3E00C9450310E944514182FF3CF0E94FD
:10196000571469817A81F1CFFC01262F86819781F6
:10197000009739F4408151816281738184810E9492
:10198000880C0895CF93DF93EC0161E00E94B40CC2
:10199000BE010E946D24DF91CF910895CF93DF9314
:1019A000EC0160E00E94B40CBE010E94850CDF9146
:1019B000CF9108950E945C0808950E941809089527
:1019C00008950E947E120E94E00C2FEF84E39CE0B9
:1019D000215080409040E1F700C0000008950E942F
:1019E000E10C0E94E42908950E94E10C0E94162A4D
:1019F00008950F931F93CF93DF938C0161E00E94B2
:101A0000B40CEC01B8010E94810C811106C080E089
:101A1000DF91CF911F910F910895B801CE010E94DF
:101A2000FF218823A1F3B801CE010E9472208823F0
:101A300071F3B801CE010E94A126882341F3B801B9
:101A4000CE010E94A620882311F3B801CE010E9486
:101A500013268823E1F2F8018281882361F0CB35D7
:101A6000FDE5DF0701F158F4C115ECE5DE0791F063
:101A7000CF3DDC4591F0C8010E947F0CC9CFCD3528
:101A80008DE5D80769F090F0C83ADD45A1F70E94CE
:101A9000F40CBDCF0E94EF0CBACF0E945219F7CFC1
:101AA0000E949618E8CF0E94A018E5CF0E94A418C3
:101AB000E2CF0E9417290E94960E08950E949A0E66
:101AC0000E941B290895B0E0A0E0E9E6FDE00C9437
:101AD0003031E82FF0E0E05EF44FD490282F2695C7
:101AE0002695269530E0F901E054F44F0491877073
:101AF00010E0082E02C0159507950A94E2F70170D0
:101B00001127F901E055F44FE490F12C082E02C0A2
:101B1000F594E7940A94E2F791E0E922FF24F901B1
:101B2000E056F44FC491D0E002C0D595C7958A9590
:101B3000E2F7C170DD270115110519F081EE0E9451
:101B4000E90EE114F10419F086EE0E94E90E8D2DE4
:101B50000E94EB0FE114F10419F086EE0E947A0F57
:101B60000115110519F081EE0E947A0FCD2B19F0A5
:101B70008CE20E94EB0FCDB7DEB7E7E00C944C315E
:101B8000EF92FF920F931F93CF93DF938C01F62E6A
:101B90008AE0E82EF8018491882309F454C081304A
:101BA00009F04DC0E8012196FE018491813091F445
:101BB0002196FE0184910E94EB0F8E010F5F1F4F53
:101BC0008F2D815038F3EFE9FFE03197F1F700C036
:101BD0000000F7CF823039F4E8012296FE018491AB
:101BE0000E94E90EEACF833039F4E8012296FE0123
:101BF00084910E947A0FE1CF8430F9F6E8012296B1
:101C0000FE01249190E080E0FE0131962053330BD9
:101C10002A30310548F0019780F2EFE9FFE0319773
:101C2000F1F700C00000F7CFE89EA001E99E500D3B
:101C30001124C901840F951F2491EF01E5CF0E9463
:101C4000630DE801BACFCDB7DEB7E6E00C944D31B5
:101C500060E00E94C00D0895982F9F709A509630B2
:101C600020F0805D0E94630D0895895AFBCFCF92CA
:101C7000DF92EF92FF926C01EE24FF2420E0C1146A
:101C8000D104E104F10419F0C701B60120E1C72E27
:101C9000D82EE92EFF24C114D104E104F10419F077
:101CA000285FC701B6016B017C0154E0F694E7940C
:101CB000D794C7945A95D1F7C114D104E104F10423
:101CC00019F02C5FC701B6016B017C0142E0F6946C
:101CD000E794D794C7944A95D1F7C114D104E1048D
:101CE000F10419F02E5FC701B60196958795779597
:101CF0006795672B682B692B09F02F5F822FFF9068
:101D0000EF90DF90CF9008950E94D40B089581E06A
:101D100008950E94870E08950895CF93C82F0E94BA
:101D2000840E8C2F0E94890ECF91089580E00E942E
:101D30008D0E08950E94C8270E948D0E08950E945E
:101D4000C82790918702981721F0809387020E94FC
:101D50008D0E0895ADE0B0E0E0EBFEE00C9435317F
:101D600049875A876B877C878D8761110E94E117AD
:101D70001D821E821F82188685E0FE013996DE01D3
:101D8000119601900D928A95E1F78C819D81892BA6
:101D900071F429813A814B815C816D817E818F81D3
:101DA00098850E94FF162D96E2E00C9451318981AE
:101DB0009A8189238F3F69F3CE0101960E94C20C5C
:101DC0008111E7CFF0CFFC01808191810E949114B5
:101DD0000895CF93C82F8823C9F08238C9F40E9490
:101DE000C82781FD13C089E30E9496170E9402183C
:101DF0002FEF81EE94E0215080409040E1F700C049
:101E0000000089E30E949E170E940218CF91089556
:101E10008338A1F40E94C82780FDF8CF83E50E9493
:101E200096170E9402182FEF81EE94E02150804017
:101E30009040E1F700C0000083E5E4CF8438A1F4CE
:101E40000E94C82782FDE2CF87E40E9496170E9475
:101E500002182FEF81EE94E0215080409040E1F78E
:101E600000C0000087E4CECF8CEF8C0F813A90F455
:101E70006C2F8091F6019091F7010E943D288823F4
:101E800029F08C2F0E949E170E9402188C2F0E940E
:101E90009617BACF80E28C0F883048F4C77081E083
:101EA00001C0880FCA95EAF70E94C117ADCFEBE5D4
:101EB000EC0FE33040F4F0E0E35CFD4F808190E014
:101EC0000E94FD27A3CFE8E5EC0FE73150F4F0E0E6
:101ED000EE0FFF1FE15FFD4F808191810E9413286B
:101EE00095CFCD3E08F492CF8C2F0E947E1D0E948C
:101EF000511E8CCF882309F455C0823879F40E9492
:101F0000C82781FF4FC089E30E9496170E940218DC
:101F100089E30E949E170E9402180895833859F49D
:101F20000E94C82780FF3EC083E50E9496170E944A
:101F3000021883E5EECF843859F40E94C82782FF47
:101F400031C087E40E9496170E94021887E4E1CF0F
:101F50009CEF980F913AE8F290E2980F983050F485
:101F6000877091E001C0990F8A95EAF7892F0E9446
:101F7000C717D1CF9BE5980F933028F490E080E00D
:101F80000E94FD27089598E5980F973128F490E076
:101F900080E00E94132808958D3E20F00E94D81DF5
:101FA0000E94511E08951F93CF93DF93182FEB01CA
:101FB0000E94E90E209739F4812F0E947A0FDF9159
:101FC000CF911F9108958FE99FE00197F1F700C02D
:101FD00000002197EFCF70E060E0893311F460E5F5
:101FE00070E00E94D30F0895882321F00E94C1174A
:101FF0000E9402180895882321F00E94C7170E94AA
:1020000002180895B0E0A0E0E8E0F0E10C942E3171
:102010006C01D62FC72FFC011281058102950F702C
:102020000E94B717E82E8823B9F0E12E1123A1F002
:102030008C2F807F803421F080E28D0F8830C8F0B3
:1020400080912A0482FF15C082E00E9465180E94D8
:10205000B71791E0E82EE926BC2EB2949FE0B92292
:10206000FBE0FB15B8F1EB2DF0E0EB5EFC4C0C94C3
:102070001F31E12CF1CF0C2F0F70C07F11F00295B2
:10208000007F112399F0002359F080E28D0F8830F2
:1020900010F0D11107C0802F0E94C1170E940218B2
:1020A0008D2F5AC0802F0E94D417F8CF8D2F0E94F9
:1020B0007A0F002379F080E28D0F883010F0D11173
:1020C00004C0802F0E94C71703C0802F0E94DA1718
:1020D0000E940218EB2DE850FF0B349720F40E9469
:1020E000C8270E948D0EEE2089F00E94B31780FD54
:1020F0000DC0F60112820E94AD170E943B13C6016B
:102100000E9430120E94AD170E945D13CDB7DEB75A
:10211000E9E00C944A312C2F2F70F22EC07FC03290
:1021200019F0F29480EFF822DD2341F0D130E9F18B
:10213000112309F444C00023E9F1B2CF80912A04AD
:1021400082FD15C0112359F0FF2029F08F2D0E9428
:10215000C1170E94021880E00E94E90EBBCF80E008
:102160000E947A0FFF2009F4B5CF8F2DABCF11233A
:1021700081F0011106C00E94E4178F290E94F40F1C
:10218000A9CF0130C1F70E94E4178F290E94EB17F5
:10219000A1CF011106C00E94F8178F2D0E94FB0FDE
:1021A00099CF013009F496CFF6CF112329F00230F0
:1021B00008F090CF8F2DE2CF01118CCFEECF00230E
:1021C00061F3D93349F43FEF87EE93E0315080401B
:1021D0009040E1F700C000008D2F0E947A0F7ACF67
:1021E0008C2F86958695837069F0813009F072CFC7
:1021F0008D2F9C2F9370111102C090E080E00E94FF
:10220000132868CF8D2F9C2F9370111102C090E07E
:1022100080E00E94FD275ECF8D2F112329F00E94C0
:102220007E1D0E94511E56CF0E94D81DFACF8C2FC2
:10223000837009F041C011114DCF4D2F4295469545
:102240004770440F440F0D2F0F7010E030E020E076
:10225000042E04C0000F111F221F331F0A94D2F74F
:1022600060E070E0CB01D4FF0FC06FE070E080E071
:1022700090E004C0660F771F881F991F4A95D2F718
:102280006095709580959095C695C695C370602BA6
:10229000712B822B932BC23049F058F4C13019F0C6
:1022A0000E94E91217CF0E94D61214CF0E94FC128E
:1022B00011CF0E94D3120ECF8695112311F08C2FCF
:1022C0008170882309F406CF4D2F429546954770BB
:1022D000440F440F0D2F0F7010E030E020E0042E6B
:1022E00004C0000F111F221F331F0A94D2F760E0B1
:1022F00070E0CB01D4FF0FC06FE070E080E090E0B1
:1023000004C0660F771F881F991F4A95D2F7609502
:10231000709580959095C695C695C370602B712B6E
:10232000822B932BC23049F058F4C13019F00E942F
:10233000B613D0CE0E94A313CDCE0E94C913CACE2D
:102340000E941213C7CECF70112329F08C2F0E9448
:102350003B138D2F13CF8D2F0E94FB0F8C2F0E94CC
:102360005D13B8CED23F39F160F4D03FB9F0D13F20
:1023700081F0112309F445C0011192CE8C2F8F7189
:102380001EC0D33FF9F0D43FA1F780912A0482FD0B
:1023900023C08C2F8F71112311F311C0112339F039
:1023A000011198CE8C2F8F710E94811393CE023031
:1023B00008F090CEF7CF8C2F8F711111D0CF0E94E3
:1023C0003B1388CE112329F08C2F8F710E94251387
:1023D00081CE0E941F137ECE112349F0CF718C2F26
:1023E0000E943B1363E08C2F0E94471873CE81E05C
:1023F0000E946518023008F46DCE82E00E946518D4
:1024000069CE002359F0D93309F0E6CEEFEFF7EEAD
:1024100023E0E150F0402040E1F7DCCE8C2F8F71BB
:102420009ECF0F931F93CF93DF93EC018E819F81FB
:10243000009781F00E94141A8C010E94DC130E9404
:10244000D212B801CE010E940210DF91CF911F91EC
:102450000F910895688179818A810E949C14ECCF44
:10246000CF93DF93EC018B819C81892B29F08881AC
:10247000998189238F3F51F4DF91CF910895CE0147
:102480000E941112CE010E94CE0CF6CFCE010E9406
:10249000F90C8111F4CF0E94B717882369F38A8160
:1024A000882351F380912A0482FFE6CF82E00E94C4
:1024B0006518E2CF882321F00E94D4170E940218E9
:1024C0000895882321F00E94DA170E9402180895C7
:1024D00090E080E00E94FD2790E080E00E941328B9
:1024E0000E94E1170E9402180E946D1E0E94511E58
:1024F00008950E94A6170E94681208950E94D1179D
:102500000E947912089592959F70963091F058F438
:10251000925F9F70923058F4803F19F030F4883EFB
:1025200030F481E008959A5FF4CF843FD1F380E0E6
:102530000895883EB0F3813FD1F7F3CFFC01868147
:102540009781009729F00E94141A0E94831208951F
:10255000808191810E949114F8CFA5E0B0E0E3EB77
:10256000F2E10C9435312596E2E00C945131A8E06B
:10257000B0E0EDEBF2E10C9435312896E2E00C94FA
:10258000513108950E94C11208950E94C2126093B1
:10259000C4027093C5028093C6029093C7020E9442
:1025A0006812089508950E94C51208950F931F930D
:1025B0000091C4021091C5022091C6023091C70259
:1025C000602B712B822B932B0E94C5121F910F91B0
:1025D00008950F931F930091C4021091C50220919A
:1025E000C6023091C70260237123822393230E9485
:1025F000C5121F910F9108950F931F930091C4026C
:102600001091C5022091C6023091C7026027712740
:10261000822793270E94C5121F910F9108950E944F
:10262000DC0B08950E940F136093C0027093C102E7
:102630008093C2029093C3020E946812089560E0E2
:1026400070E0CB010E94121308950F931F9341E095
:1026500050E060E070E08A019B0104C0000F111F90
:10266000221F331F8A95D2F7C901B8010E941213A5
:102670001F910F9108950F931F9341E050E060E088
:1026800070E004C0440F551F661F771F8A95D2F76C
:102690008091C0029091C102A091C202B091C30288
:1026A0008A019B01082B192B2A2B3B2BC901B8014E
:1026B0000E9412131F910F9108950F931F9341E0F1
:1026C00050E060E070E004C0440F551F661F771FA4
:1026D0008A95D2F7CB01BA01609570958095909557
:1026E0000091C0021091C1022091C2023091C30238
:1026F00060237123822393230E9412131F910F9151
:1027000008950F931F9341E050E060E070E004C033
:10271000440F551F661F771F8A95D2F78091C0021C
:102720009091C102A091C202B091C3028A019B01A3
:10273000082719272A273B27C901B8010E9412132D
:102740001F910F9108950F931F930091C002109154
:10275000C1022091C2023091C302602B712B822BE7
:10276000932B0E9412131F910F9108950F931F93A3
:102770000091C0021091C1022091C2023091C302A7
:1027800060237123822393230E9412131F910F91C0
:1027900008950F931F930091C0021091C1022091E0
:1027A000C2023091C30260277127822793270E94BB
:1027B00012131F910F9108950895262F277091E00D
:1027C00001C0990F2A95EAF723E0769567952A9537
:1027D000E1F725E0269FF001279FF00D1124E40F7B
:1027E000F51F50E040E0682F70E08191DF01119704
:1027F0009B01042E02C0369527950A94E2F72170BA
:1028000021952827292328272C934F5F5F4F453098
:10281000510559F70895A82FA77023E0969587953D
:102820002A95E1F725E0289FF001299FF00D11245A
:10283000E60FF71F50E040E080E0219130E00A2EE3
:1028400002C0369527950A94E2F721703327042EAB
:1028500001C0220F0A94EAF7822B4F5F5F4F453089
:10286000510559F70895262F9E3070F4863060F494
:10287000682F70E086E0989F600D711D112449E873
:1028800052E0822F0E94DD130895292F9E3068F4B4
:10289000863058F490E069E872E036E0239F800DBE
:1028A000911D11240E940B14089580E00895B0E05A
:1028B000A0E0EDE5F4E10C942E318C01C090C00253
:1028C000D090C102E090C202F090C3028091C40295
:1028D0009091C502A091C602B091C702C82AD92A18
:1028E000EA2AFB2ACFE1D0E0BC2ED701C6010C2E8C
:1028F00004C0B695A795979587950A94D2F780FD61
:1029000009C0219788F7B12C8B2DCDB7DEB7E9E050
:102910000C944A31B8018C2F0E94271B019789F330
:10292000F3CFCF93DF93EC010E945714BE010E94B6
:10293000271BDF91CF9108951F93CF93DF93EB0176
:1029400090918802992339F0CB010E949114DF9174
:10295000CF911F910895882369F0CB010E945714ED
:10296000182F682FCE010E943314BE01812F0E94C0
:10297000271BEDCFCB010E944514182FF6CFCF9324
:10298000DF93C091C8028091C9028C1303C0DF910C
:10299000CF910895D0E0FE0183E0EE0FFF1F8A95EE
:1029A000E1F7E653FD4F20813181428153816481FB
:1029B0007581868197810E94B7122196C770E3CFF7
:1029C00020910A0330910B0340910C0350910D03A9
:1029D00060910E0370910F03809110039091110389
:1029E0000E94B7120895CF93DF9380910F03807FE9
:1029F00009F049C080910C03882309F444C08091F8
:102A0000C802C091C90260910A0370910B03A091A2
:102A10000D03B0910E03D62FD723C817A1F190E074
:102A2000109711F0DF3F19F401968770F6CF9C01E3
:102A300043E0220F331F4A95E1F7F901E653FD4FBA
:102A400041814713F1CF40814613EECF42814111BE
:102A5000EBCF438154814A1B5B0B483C510520F767
:102A600080910F038F70806180930F03F901E15310
:102A7000FD4F80818F70806180838AE093E00E94A7
:102A800030120E94BF14DF91CF910895A5E1B0E00C
:102A9000ECE4F5E10C942D318C0185E0F801DE01C8
:102AA000519601900D928A95E1F7F801E2804AE093
:102AB000C42E43E0D42E60910D0370910E03611576
:102AC000710509F480C190910A0320910B03892FAD
:102AD00082238F3F09F477C140815181A380B48064
:102AE000F0900C03F501E61BF70BFF2009F420C161
:102AF00080910F03382F307FE83CF10508F0CAC001
:102B0000311177C0FE2C251320C094131EC0609194
:102B1000100370911103F801268137816217730742
:102B2000A1F4E11012C08F70806180930F030E94A6
:102B3000E014C6010E94301280910F03F8018583D2
:102B40008F2D6596EAE00C944931A114B10429F067
:102B5000842F85238F3F09F04FC180E0F82FF1705B
:102B6000DF2E80FF3CC08091C8022091C9028213F1
:102B700015C0498B5A8B89899A890E949114292FF3
:102B800022952F702230F8F0243020F59F70F9F054
:102B9000F8019581907FD9F4D12C1FC090E0FC0101
:102BA00033E0EE0FFF1F3A95E1F7E653FD4F318119
:102BB000351306C03081341303C032813E110FC07B
:102BC00001968770D4CF9F7011F0882329F3805E1F
:102BD000883010F3C8010E943012FD2CB1CFEE20D6
:102BE00009F4AECF80910F03816080930F03F12C25
:102BF000A7CF25131DC094131BC040911003509103
:102C00001103F801268137814217530789F4E11037
:102C10000FC08583C8010E94301288E0F801AAE045
:102C2000B3E001900D928A95E1F70E94E01488CFFD
:102C3000C8010E949E12882349F1EE2039F180914B
:102C40000F038032A0F020910A0330910B033A87E2
:102C500029871B86BD86AC868E8780911003909154
:102C60001103988B8F87CE0109960E94301288E05D
:102C7000F801AAE0B3E001900D928A95E1F70E9475
:102C8000F3140E94E014FF24F3945ACFC8010E9469
:102C90003012F9CF311113C07A2DBD8AAC8A6E2D56
:102CA0008D890E94AD128AE093E00E94301288E084
:102CB000F60111928A95E9F70E94E01498CF251346
:102CC00018C0941316C04091100350911103F801DD
:102CD000268137814217530761F4E1100AC08583CA
:102CE000C8010E94301288E0F60111928A95E9F736
:102CF00027CFC8010E949E12882341F2EE2031F2B4
:102D000080910F03803208F4B2CF20910A033091F2
:102D10000B033A8329831B82BD82AC828E83809110
:102D200010039091110398878F83CE0101969DCF58
:102D3000E83CF105D8F5FE2CEE2009F4A7CF2513C9
:102D400027C0941325C02091100330911103F8017E
:102D50008681978128173907D9F490910F0390FD48
:102D60000EC0907F61F080910F038583903F09F43E
:102D700051CF982F907F905F8F70892B4ACF88E03A
:102D8000F801AAE0B3E001900D928A95E1F7D8CE60
:102D9000C8010E949E1281116ACF80910F03816049
:102DA00080930F03C8010E943012CACE7A2DBD8ACB
:102DB000AC8A6E2D8D890E94AD1288E0F6011192C9
:102DC0008A95E9F732CFEE2009F460CFC8010E945E
:102DD0009E12F82E882309F459CF88E0F801AAE062
:102DE000B3E001900D928A95E1F78AE093E00E94AA
:102DF000E30E0E94F31419CF81E08E25AFCEA0E13F
:102E0000B0E0E5E0F7E10C94353129873A874B874C
:102E10005C876D877E878F87988BCE0109960E948D
:102E200046158823A9F08C859D85892B39F0298545
:102E30003A85822F83238F3F09F06FC08091C802AB
:102E40009091C902891343C06096E2E00C9451311D
:102E500088E0FE013996DE01119601900D928A9567
:102E6000E1F78C859D85892B49F389859A8589238E
:102E70008F3F21F3A091C902B0E0CD010196877088
:102E800099272091C8022817190671F40E947E1212
:102E90001092C9021092C80288E0EAE0F3E0DF0174
:102EA0001D928A95E9F7CACF93E0AA0FBB1F9A95A6
:102EB000E1F7A653BD4F98E0FE01319601900D92C7
:102EC0009A95E1F78093C9020E94BF14B7CFB8E08A
:102ED0008B9FC001112486539D4F0E944615882365
:102EE00009F4B2CFE091C80228E0E29FF00111247A
:102EF000E653FD4F20813181428153816481758188
:102F0000868197810E94B7128091C80290E0019655
:102F1000877099278093C80291CF4B855C856D851A
:102F20007E858F8598890E94B71288CF682F8091FF
:102F3000F6019091F7010E94BD280895682F8091B5
:102F4000F6019091F7010E94CB2808958091F60137
:102F50009091F7010E94D9280895809132038595B8
:102F60008595859508958091320387700895909195
:102F70003203977081E009F480E008958091550351
:102F8000089590915503892B80935503089580955A
:102F9000909155039823909355030895809355037A
:102FA000089510925503089590915403892B8093AE
:102FB000540308958095909154039823909354035B
:102FC000089510925403089580913303089508954D
:102FD0000E94E717089590912A0492FF08C09091EB
:102FE0003303981721F0809333030E94E817089564
:102FF00080913303882329F01092330380E00E94EC
:10300000E8170895CF93DF93E091F601F091F7016F
:10301000809155038083E091F601F091F701808162
:1030200090915403892B808390913303992381F0ED
:10303000E091F601F091F7018081892B80838091E6
:10304000F6019091F7010E94292881110E94F8173A
:10305000C091F601D091F70140E250E062E173E0E7
:10306000CE010E948732892B59F080E2FE01A2E155
:10307000B3E001900D928A95E1F7CE010E94D82726
:10308000DF91CF91089508950E944318089590917B
:103090002A0492FF11C098E0899F90011124622BAD
:1030A000609332030E943B1380913203859585958E
:1030B00085950E94441808950E943B13089510922C
:1030C000320380E00E944418089590913203809565
:1030D000892380933203282F277091F4282F082EFC
:1030E000000C330B9217130659F090912A0492FFAB
:1030F00007C08595859585950E945D130E945F1890
:10310000089590912A0492FB222720F9281769F04C
:1031100080FB92F990932A048091290490912A04CB
:103120000E94CB1882E00E946518089580912A04BD
:1031300082FB882780F991E089270E9481180895F1
:1031400081E00E948118089580E00E94811808950E
:1031500090E080E00E94A23221E0883E9E4F09F07C
:1031600020E0822F089582E090E00E94943208953A
:1031700083E090E00E9494320895CF9384E090E041
:103180000E949432C82F82E290E00E949432982FDD
:103190008C2FCF910895CF93C92F682F84E090E0B2
:1031A0000E94A8326C2F82E290E00E94A832CF9158
:1031B00008958FE090E00E949C320895AB01BC011D
:1031C0008FE090E00E94BA320895AB01BC0183E128
:1031D00090E00E94BA32089560E070E0CB010E9456
:1031E000E518089568EE7EEF90E080E00E94C63218
:1031F00060E082E090E00E94A83260E083E090E02E
:103200000E94A8321092C4021092C5021092C60207
:103210001092C70260E084E090E00E94A83264E06F
:1032200082E290E00E94A83260E085E090E00E9497
:10323000A83260E086E090E00E94A8326FEF87E05D
:1032400090E00E94A83240E050E0BA0188E090E0AF
:103250000E94BA3260E08DE090E00E94A83240E027
:1032600050E0BA0188E190E00E94BA3260E087E164
:1032700090E00E94A83240E050E0BA018CE190E07A
:103280000E94BA3270E060E080E290E00E94C632B4
:1032900040E050E0BA0188E190E00E94BA320E941A
:1032A000FF0808950E94F2180895682F8EE090E0BC
:1032B0000E94A83208950E94A52960936803709324
:1032C000690380936A0390936B0360936403709324
:1032D00065038093660390936703089508950895A6
:1032E0000E946F19089508950E947319089586E049
:1032F0009CE10E94BE270E946E190E9470190895D9
:1033000081E008950E9480190895089508950E940B
:1033100085190E94861908950E94091C0E948C0E2E
:103320000E94B51F08950E9490290E94361C0E9499
:103330008C190E9474190895AAE0B0E0E2EAF9E15C
:103340000C942C310E94481CC82E81110E945B19DC
:1033500086E5A82E83E0B82E10E000E0902E802FA6
:103360000E942F1CE82EF501F1905F01F816B9F1CB
:1033700080916C0381FD0E94351C8F2D8E25D12CF0
:10338000FF24F394982F9F2129F10E94821988230A
:1033900099F0DE829F82EF2081E009F480E0888747
:1033A0000E9499298160782F9A8789874E815F8151
:1033B00068858A850E94AA0EF801EA5AFC4F80812E
:1033C000F826F08281E0C11001C080E02A96EBE08F
:1033D0000C944831D394FF0CF6E0DF12D3CF0F5F8B
:1033E0001F4F0E30110509F0B9CF8FEF89838A8303
:1033F0001B820E9499298160782F9D838C8349814B
:103400005A816B818D810E94AA0EDCCF0E942624F6
:103410000E949F2208950E949C190E94061A0E94F1
:103420008F1E0E949F0E0895CF93DF930E942C1B46
:10343000EC01811521E5920708F042C0811530E5C5
:10344000930708F09DC0883E910530F5803E9105B8
:1034500008F092C0883A910588F4853A910508F001
:1034600084C08130910509F487C0009709F484C0B5
:10347000049708F081C0D0E0C0E07EC08F3B91058A
:10348000D0F7C85AD0E0CC0FDD1FC05CDD4F0990EB
:10349000D881C02DD46470C08115904250F4C115FC
:1034A00081E0D80708F068C0CD3ED10520F3D06593
:1034B00063C0C11590E4D907F0F2DF70D06A5CC038
:1034C000811525E5920700F5811534E5930708F08D
:1034D0008BC0811543E5940708F073C0C11582E5E0
:1034E000D80708F469C0CE018370992721E030E045
:1034F00002C0220F331F8A95E2F7C695C69580E277
:10350000C89FE001112454C0C11599E5D907A8F45A
:10351000C11528E5D20708F06CC0C11536E5D30700
:1035200008F0A9CF8C2F0E94C31BC82FD0E0DC2F3E
:10353000CC27CC27DF71D0621FC0C1154AE5D40764
:1035400008F45CC0CE0190568115904208F093CFEC
:103550008D2F8F710E94C31B90E0982F882788279A
:103560009F719C012C2BE901E6CFC55AD0E0C259CE
:10357000DD4FC881D0E0D064CE01DF91CF910895B6
:10358000E4E096958795EA95E1F783702C2F2695D0
:103590002695237040E2249F90011124382B8C2F14
:1035A0008370C1E0D0E002C0CC0FDD1F8A95E2F746
:1035B000C22BD32BDC68E0CFDC2FCC27C16FD06AC5
:1035C000DBCF8370992721E030E002C0220F331F48
:1035D0008A95E2F7C695C69590E2C99FE00111244D
:1035E000C22BD32BDA68C8CFD82FCC27C46FD06AB0
:1035F000C3CFDC2FCC27C06FD06ABECF8C2F8F708B
:103600000E94C31B34E0D695C7953A95E1F7CF7079
:103610009C2FEC01D069B0CF972F7E30A8F4663094
:1036200098F470E026E0929F600D711D1124FB015B
:1036300094E5899FE00DF11D1124EE0FFF1FEA5262
:10364000FB4F85919491089580E090E008950E9449
:103650000C1B0E94141A089582389105B1F1B0F440
:103660008133910509F475C048F48932910509F454
:1036700069C08A32910509F473C0089585339105B4
:1036800009F459C08933910501F10895833E9105EC
:10369000A9F138F4803E9105F9F0823E910549F197
:1036A0000895863E9105A9F1873E9105C9F1843EB2
:1036B000910519F520912A0421FF1FC0809129044A
:1036C00084FD14C087EE90E00895209129042370B2
:1036D000A1F080EE90E008952091290420FD47C0DC
:1036E00030912A0430FF09C024FF44C090E080E0FC
:1036F00004C02091290422FDF7CF089520912904C8
:1037000022FD3BC030912A0430FDE3CF24FFF5CFEA
:10371000EDCF2091290423FFF0CF24FDE7CFD2CFB6
:103720002091290423FD2CC030912A0431FFEECFD3
:1037300084EE90E008952091290425FFDECF89E2F0
:1037400090E008952091290425FFD7CF85E390E0EC
:1037500008952091290426FFD0CF8AE290E00895B1
:103760002091290426FFC9CF81E390E0089589E3E1
:1037700090E0089583EE90E0089582EE90E0089541
:1037800086EE90E008959091290492FF06C0282FBC
:1037900028712830F9F4877F846093FF06C0282FB2
:1037A00028712831F1F4877E846120912A0420FF5A
:1037B00006C0382F38713830D9F4877F816021FFF7
:1037C00006C0282F28712831D1F4877E816194FDAD
:1037D000877E0895282F24712430F9F68B7F886026
:1037E000DCCF282F2471243101F78B7E8861DDCF57
:1037F000382F3171313019F78E7F8860E0CF282F54
:103800002171213121F78E7E8861E1CF80E008951A
:1038100008950E94A818811102C00E9452190E94A6
:10382000B31880936C030E94BD1890932A04809370
:1038300029040E94081C0E94B818682F70E090E0CC
:1038400080E00E94D3126091C0027091C102809109
:10385000C2029091C3020E940F1308950895E82FA9
:10386000F0E0E75CFB4F8081089508950E947E0799
:10387000EBE2F4E0A9E3B4E011921D9284E0E933B5
:10388000F807D1F78EE00E945B1C0E94DA0C0895C5
:10389000CF938BE294E00E948A07C82F282F4EE036
:1038A00069E374E08BE294E00E946E1C0E94DD0CE0
:1038B0008C2FCF910895CF93C82F90E00E945C3158
:1038C0008093700390937103282FFC018E2F821B2D
:1038D0008C1710F0CF9108951192F8CFB0E0A0E0CE
:1038E000E4E7FCE10C943031082FF92EE62ED72EB8
:1038F000142FC22FD0916D03DD2309F448C00E941C
:10390000992920916E0330916F03AC01421B530B38
:103910009A0190936F0380936E034F3F510509F016
:10392000C8F4452B99F010926D03109272034091E8
:103930007003E42FF091710390E030E08E2F841B30
:10394000811758F030936D0390937203C1112DC00D
:10395000CD2F1FC02FEF30E0E6CF8081882321F0EC
:10396000281720F010829D2F3196E8CF821B80838C
:103970003D2FFACF29914C91421731F040814111EE
:1039800003C030832C9381E0319611961AC0211127
:1039900006C0809172038823D1F0C11106C00E9435
:1039A000992990936F0380936E0390917003809197
:1039B0006D03AE2DBD2DC02FDF2DE92FF0917103CA
:1039C0003EE12E2F291B2117A8F280936D03CDB75E
:1039D000DEB7E7E00C944C310E94D32B0E94931980
:1039E0000E94E02B08950E94E52B0E940B1A0E9472
:1039F000FF2B08950E9432290E94B92B0E9477194B
:103A00000E94EC1C0E94F31C0E948719FBCF80913E
:103A10007A0380FF0DC06091FD0170E0660F771F93
:103A20006038710570F56115710569F1862F08958B
:103A300081FF07C06091FD0184E0689FB0011124FF
:103A4000EFCF6091FD0182FD0AC080917903882348
:103A5000A9F02091FC016091FD01821710F088E02F
:103A6000ECCF869FC001112433E0880F991F3A954F
:103A7000E1F7622F70E00E940B31D2CF68E070E076
:103A8000D5CF8FE7089581E0089580917A0380FF74
:103A90000CC06091F90170E0759567957595679513
:103AA0006115710549F1862F089581FF06C0609167
:103AB000F90170E075956795F3CF6091F90182FD8A
:103AC0000BC0909178039923A1F06091F801809147
:103AD000F901961738F0682F70E06038710500F32F
:103AE0008FE70895899FC001112470E00E940B3177
:103AF000F4CF61E070E0D7CF81E008958D3E31F4DE
:103B00000E94071D819580937D0308958E3E19F4D0
:103B10000E94071DF8CF8F3E31F40E94071D81954A
:103B200080937C030895803F19F40E94071DF8CF0D
:103B3000893F29F40E94451D80937E0308958A3FA2
:103B400021F40E94451D8195F7CF8B3F31F40E94EF
:103B5000451D819580937F0308958C3F19F40E9441
:103B6000451DF8CF9FE0980F983070F4815F990B56
:103B700021E030E001C0220F8A95EAF780917B03B3
:103B8000822B80937B0308958D3F31F480917A03DB
:103B9000816080937A0308958E3F21F480917A03A7
:103BA0008260F7CF8F3FB9F780917A038460F1CFBD
:103BB00040917C038D3E59F480917D0387FF0DC0B9
:103BC00010927D0341110BC01092790308C08E3E04
:103BD00081F480917D0318169CF3442381F0809139
:103BE0007E0390917F03892B09F05AC010927803CD
:103BF00008958F3E49F447FFF0CF10927C038091E7
:103C00007D038111ECCFE0CF803F19F41416ACF3A3
:103C1000E4CF90917E03893F29F41916F4F61092AF
:103C20007E03DBCF8A3F19F497FFD7CFF8CF90916F
:103C30007F038B3F29F497FFD0CF10927F03CDCF26
:103C40008C3F19F41916CCF3C8CF9FE0980F983029
:103C500090F4815F990B21E030E0B90102C0660F5A
:103C6000771F8A95E2F7CB01809590917B0389239A
:103C700080937B03B2CF8D3F31F480917A038E7FA6
:103C800080937A03AACF8E3F21F480917A038D7FAF
:103C9000F7CF8F3F09F0A1CF80917A038B7FF0CFD0
:103CA00008950E9499299C0190917C0380917D0345
:103CB000982B21F0309377032093760390917E0325
:103CC00080917F03982B21F0309375032093740328
:103CD0008BE793E00E94F227089585E0EBE7F3E09D
:103CE000DF011D928A95E9F710927903109278030B
:103CF00010927A030895FC01818181110EC08281A6
:103D000081110BC08381811108C091E084818111F0
:103D100001C090E0892F8170089581E0FCCFA5E07B
:103D2000B0E0E5E9FEE10C94343185E0EBE7F3E047
:103D3000DE01119601900D928A95E1F710927C03B5
:103D400010927D0310927E0310927F038A819B81E3
:103D5000892B89F080917603909177030E94B12995
:103D6000AC01909179039923C9F18091FE018417E8
:103D7000150608F440C08C819D81892B91F08091BB
:103D80007403909175030E94B129AC01909178035E
:103D9000992309F471C08091FA018417150608F47B
:103DA00079C0BE016F5F7F4F8BE793E00E94EB28E5
:103DB000811105C08BE793E00E947B1E81110E9458
:103DC000511E85E0FE013196ABE7B3E001900D9204
:103DD0008A95E1F72596E3E00C9450312091730326
:103DE0008AE0289F900111242417350720F69F5F51
:103DF0009093790302C09F3FD1F71A81112359F0A4
:103E00000E94071D9FEF11160CF491E0899F802DF1
:103E1000112480937C031B81112359F00E94071DFC
:103E20009FEF11160CF491E0899F802D112480934F
:103E30007D0330917C03332309F49DCF20917D03D2
:103E4000222309F498CF45EB3403C00111249923B0
:103E500059F090937C0345EB240390011124332304
:103E600039F030937D0387CF81E080937C03F3CFDB
:103E700081E080937D037FCF2091FB018AE0289F22
:103E8000900111242417350708F08BCF9F5F909382
:103E9000780302C09F3FD1F71C81112359F00E9483
:103EA000451D9FEF11160CF491E0899F802D112480
:103EB00080937E031D81112359F00E94451D9FEFC1
:103EC00011160CF491E0899F802D112480937F03BB
:103ED00030917E03332309F464CF20917F032223A2
:103EE00009F45FCF45EB3403C0011124992359F045
:103EF00090937E0345EB240390011124332339F082
:103F000030937F034ECF81E080937E03F3CF81E037
:103F100080937F0346CFCF93DF93EC0197FF0CC0D4
:103F2000FB018281882341F00E94DD1FCE019F7733
:103F30000E9457200E942E2081E0DF91CF910895AA
:103F400090914804923071F48A3050F490E00996D0
:103F50006AE070E00E940B31875A0E94EB0F0895CF
:103F60008650FBCF0E942C0E08958CE090E00E94BA
:103F70009432482F50E070E060E040934804509342
:103F8000490460934A0470934B0410928003843078
:103F900009F4089584E080934804089560914804EA
:103FA0008CE090E00E94A83208951092800384E093
:103FB000809348040E94CE1F08950E94D5278695BD
:103FC000817080934D040E94D527817080934704AF
:103FD00080914804813039F480914D04882319F090
:103FE00089E30E94EB0F0E94BE1780934C040E944D
:103FF000D1170E94E11780914804813089F088230D
:1040000059F0823091F0843021F18FE39CE90197DF
:10401000F1F700C00000089582EE0E94E90EF5CF8E
:1040200088E193E00E94680CF0CF809147048111F1
:1040300003C083E50E94EB0F82EE0E94E90E8FE33E
:104040009CE90197F1F700C0000087E50E94EB0FA3
:10405000DCCF86EE0E94EB0F88E1F8CF8091480418
:10406000813079F0882349F08230B1F08430E9F072
:1040700080914C040E94CE17089582EE0E947A0F20
:10408000F7CF8CE20E94EB0F80914D04882381F3DF
:1040900089E30E94EB0FECCF82EE0E947A0F8091B1
:1040A00047048111E5CF83E5F4CF88E2F2CF0F9387
:1040B0001F93CF93DF938C01CCE0D0E0C8010C2E8E
:1040C00002C0969587950A94E2F78F700E94A01F10
:1040D0002497CC3F8FEFD80789F7DF91CF911F91BD
:1040E0000F9108950F931F93CF93DF93EC018B01F2
:1040F000FB018281882361F00E94BE178272C13E5B
:10410000FCE5DF07E9F068F4C03EECE5DE07A1F06E
:10411000B801CE010E948B1FDF91CF911F910F91AB
:104120000895C73EFCE5DF0798F78C2F825E8093E9
:1041300048040E94CE1FECCF811104C081E003C06F
:104140008111FCCF8FEF0E94D51FE2CFCF93DF9379
:10415000EC01FB018281882309F433C1C430FDE501
:10416000DF07C0F5CB3F9CE5D90730F49E01225014
:104170003C4524313105B0F50E94BD1890932A04C6
:1041800080932904C1318CE5D80709F4EEC008F00A
:1041900069C0C930ECE5DE0709F4D5C0C8F5C53003
:1041A0008CE5D80709F4C7C000F5C330ECE5DE079D
:1041B00009F4B9C008F0BBC0C230DC4509F4ADC099
:1041C0008091290490912A040E94CB180E947E12AB
:1041D00080E008C0C236EDE5DE0771F2C63AFDE5C3
:1041E000DF0751F2DF91CF91089580912904806219
:1041F000C7309CE5D90709F493C0809129048061F8
:10420000C830DC4508F48CC080912904806488C0E3
:10421000809129048B7FCD30FCE5DF0709F480C055
:1042200098F4809129048E7FCB309CE5D90709F45E
:1042300077C0809129048C60CC30DC4508F470C0D4
:10424000809129048D7F6CC0809129048F7ECF30AE
:10425000FCE5DF0709F464C008F47BC08091290401
:104260008F7D5EC0CE3F9CE5D90709F47AC050F53A
:10427000C531FCE5DF0709F486C098F48091290474
:10428000837FC3319CE5D90709F44AC008F471C0A3
:104290000E947E1290912904892F97FB87F98058FC
:1042A0003FC0CC3FFCE5DF0709F449C008F055C02A
:1042B00080912A048160CB3FDC4509F081CF809357
:1042C0002A047ECFC230EDE5DE0709F468C0A8F409
:1042D000C1158DE5D80709F452C080912A04836086
:1042E000C130DD4560F380912A04982F909591703C
:1042F0008E7F892B90FB81F9E2CFC236EDE5DE0798
:1043000009F451C0C63AFDE5DF0709F453C0C330D4
:10431000DD4509F055CF80E043C0809129048160DC
:10432000809329044DCF809129048260F9CF809138
:1043300029048460F5CF809129048860F1CF8091B1
:104340002A048260BCCF0E947E128091290480687A
:10435000E7CF80912904877FE3CF80912A048E7F65
:10436000AECF80912A048D7FAACF809129048F7BC4
:10437000D7CF0E947E12809129048F77D1CF809170
:104380002A048C7F9CCF8091290482FB992790F985
:1043900021E0922790FB82F990FB83F9C1CF81E065
:1043A0000E9455190DCF90912904892F8F7E94FF7B
:1043B0008061B6CF90912904892F8E7F90FF816014
:1043C000AFCF81E00FCF8832910548F48E3191054F
:1043D000A0F4049750F082E00E94D4170EC08D32F2
:1043E0009105C9F320F48A9741F080E008958C3458
:1043F000910519F08D329240C1F781E00895EF9256
:10440000FF920F931F93CF93DF93EC017B018D3AC3
:104410009D4569F4FB011281112319F00E94B1221C
:1044200010E0812FCDB7DEB7E6E00C944D310E944D
:10443000BE17082F0E94E417082B0E947E228111CC
:1044400007C0023211F011E0ECCF0E948222FBCFB4
:104450000E947522F70112811123A9F30D79D9F574
:10446000C115F5E5DF0700F5C11523E5D207C8F64C
:10447000C11580E5D80798F4C115E0E4DE0770F5B2
:10448000C63ED10571F20E94E117CE010E94E321E0
:10449000C82F882301F10E9402181C2FC2CFC1151A
:1044A000F2E5DF0780F7BDCFC11529E5D20750F44B
:1044B000C11588E5D80708F0B4CFC431E5E5DE07BB
:1044C00011F7AFCFCE01905681159042E0F6F7017B
:1044D0008581807F41F40E949222A3CFF7018581DC
:1044E000807F09F4B0CFDD27CECF0E94992988576D
:1044F0009C4E90938203809381030895809183035F
:10450000089508958091830381110BC00E94D117F3
:104510000E94F8170E94752281E0809383030E9415
:104520008122089580918303882341F082E20E94D2
:1045300061121092830380E00E948122089580918D
:104540008303882369F00E94992920918103309187
:104550008203821B930B8F3F9F4710F40E9492228D
:10456000089580918303882319F00E949222089570
:104570000E948222089508950F931F93CF93DF9393
:104580008091EF03E09184031CE081111AC0DF9158
:10459000CF911F910F91089501E00E0F00938403B6
:1045A000CE2FD0E0E19FF0011124E157FC4F838131
:1045B0009481892B29F08081918189238F3FF9F49F
:1045C000E02F8091EF03E81738F31092EF03109279
:1045D0008403DDCF18968D919C918F3F9807E1F071
:1045E00061E00E94BB221C9FF0011D9FF00D112471
:1045F000E157FC4F148213820E94E117E1CF1C9F08
:10460000D0011D9FB00D1124A157BC4F16968D915E
:104610009C911797892BF1F220813181428153813E
:1046200064817581868197810E94FF16DCCF10928C
:10463000F1031092F0032091000230910102E8E0B2
:10464000F1E090E080E02817390709F408954581EA
:10465000411102C01482168201963796F4CFDC0114
:1046600060918D0380918E03962F891301C0089568
:10467000292F30E0F901EE0FFF1FEB57FC4F40816F
:1046800051814A175B07A1F487E08A9FA0018B9FA5
:10469000500D1124485F5E4F81E0FA018483961328
:1046A000E6CF2F5F3F4F2370332720938D0308956C
:1046B0002F5F3F4F922F9370D8CFB0E0A0E0E3E69A
:1046C000F3E20C942A31EB012C81211152C070903D
:1046D000EF03AFE8B3E030E020E0812C61E070E070
:1046E000271508F044C01A96CD90DC901B97A8803F
:1046F000B9804FEF5FEF912CE92CF12CF701EE0F11
:10470000FF1FEA0DFB1D05911491C016D10609F497
:10471000A7010115110511F09394EECF4F3F5407F7
:1047200089F1FB0102C0EE0FFF1F4A95E2F78E2AC6
:10473000AB01092C02C0440F551F0A94E2F7415007
:10474000510984161506D1F44A815B816CE0629FA1
:10475000F001639FF00D1124E157FC4F578346830E
:104760002EEF208321839187808721E02D830E9473
:104770002F23CDB7DEB7EDE00C94463114961C9292
:104780001E9213972F5F3F4F1C96AACF1F93CF9374
:10479000DF93C0918D0317E080918E038C1308C0C6
:1047A0000E94BC220E941723DF91CF911F91089590
:1047B000D0E0FE01EE0FFF1FEB57FC4F808191818F
:1047C000189FB001199F700D1124685F7E4F0E94E1
:1047D0005D232196C370E0CFEF92FF921F93CF939A
:1047E000DF93FC012081318110E040E050E0E52FB3
:1047F000F0E0EE0FFF1FE20FF31FA591B4911097A9
:10480000B9F0FB01C081D18140E005C0AE15BF0504
:1048100009F411E04F5FE42FF0E0EE0FFF1FEC0F03
:10482000FD1FE590F490E114F10481F75F5FDFCFA5
:10483000112349F0451708F4CB01DF91CF911F9167
:10484000FF90EF90089590E080E0F7CF8091FF0116
:10485000882341F18091F2039091F303009711F1C5
:104860000E94B1292091F0033091F10328173907F4
:10487000C8F490918D0380918E03981759F00E948F
:10488000C6231092F1031092F0031092F3031092DA
:10489000F20308950E94BC221092F3031092F203D7
:1048A0000E94172308951092F3031092F2031092BE
:1048B000FF0180918E0380938D030E9417230E9435
:1048C000BC2208958091FF01882319F00E9453248F
:1048D000089581E08093FF010895A9E0B0E0E3E747
:1048E000F4E20C9425316C013B01FB011281883FFD
:1048F000FCE59F0751F4112379F081E08093FF01DB
:10490000812F2996E2E10C944131893F2CE59207F1
:1049100009F04DC0111148C008E011E0F12CE12C64
:10492000198688248394912C809100029091010231
:10493000E816F90608F445C0F3018281882309F4DA
:1049400060C1F985FF2309F45CC10E949929909305
:10495000F3038093F2038091EF03883008F591E030
:10496000980F9093EF0398E0F301DE011196019008
:104970000D929A95E1F72CE0829FC0011124815796
:104980009C4F28E0FE013196DC0101900D922A95A2
:10499000E1F72FEF3FEFFC0131872087D386C286F6
:1049A00011E0F9851F27ACCF0E945324A9CF8A3F7D
:1049B0009C4509F0B1CF112309F4AECF0E946224C7
:1049C0009FCFF80160817181AA24AA94BA2C20E0BB
:1049D000422F50E0FA01EE0FFF1FE60FF71F8591FF
:1049E0009491C816D90609F45A01892B11F02F5F4A
:1049F000EFCF312CFFEFAF16BF0609F445C0F80129
:104A000044813090FF01832D411180E0F82FF17037
:104A10003F2EF80155808681F3019281992309F494
:104A20008EC0332009F48BC0511015C0A4010A2C8C
:104A300001C0440F0A94EAF7842BF8018683809121
:104A4000F0039091F103C29730F462E370E0709349
:104A5000F1036093F003C40102C0880F991F2A95E7
:104A6000E2F70197F80126812817190669F4809169
:104A7000F2039091F303009781F00E94B129C3974C
:104A800060F021E0F8012483F985F329F9872FEFFD
:104A9000E21AF20A095F1F4F47CF20908D0390E082
:104AA00080E020918E03221215C08017910761F3D8
:104AB000A22CB12CF501EE0FFF1FEB57FC4FF1823A
:104AC000E0826FEFA61AB60A73E0A722BB24A09279
:104AD0008E03DACFA22CB12CF501EE0FFF1FEB579E
:104AE000FC4F2081318147E0429FC001439F900DE0
:104AF0001124BC01685F7E4F2B01B801C2010E94E6
:104B0000EC230097A9F021E0FC0124838017910792
:104B100009F4BACF20918D0322120AC04816590613
:104B200039F495012F5F3F4F2370332720938D0376
:104B30003FEFA31AB30A4A2D4370242EB2CF90E060
:104B4000511020C0F40102C0EE0FFF1F2A95E2F7BA
:104B50009F01215031092817390731F4442309F402
:104B60004EC0C7010E942F23C4010A2C01C0880F28
:104B70000A94EAF7982F9095F80186818923868315
:104B8000352C82CF9C010A2C02C0359527950A94BA
:104B9000E2F7A90141705527BC01615071098623D4
:104BA0009723892B41F5452B31F1F80182819381BF
:104BB000892BE1F01B821C821D821E82FEEFF9838D
:104BC000FA830E9499298160582F9D838C83F80174
:104BD000828193818F83988729813A814B816D816E
:104BE0007E810E94FF16F8011582BECF60E0C701EA
:104BF0000E94BB22F8CFF22FF1705F2EB5CF532C5D
:104C0000B3CF90918D0380918E03981719F00E9475
:104C1000C623C6CE0E94BC221092F3031092F20368
:104C20000E941723BDCECF93DF93EB0186319C45C5
:104C300011F50E94BE179A81992399F08A7A91E022
:104C400009F490E09093F403811109C089E20E9475
:104C500096170E94021880E0DF91CF91089585E3B6
:104C6000F6CF8091F403811104C089E20E949E175F
:104C7000F0CF85E3FBCF81E0EFCF0F931F93CF936E
:104C8000DF93C42FD22FFC0182818823C9F0409387
:104C9000F7030E9499299093F6038093F50380E22D
:104CA0008C0F883040F4C77081E001C0880FCA952E
:104CB000EAF70E94F40FDF91CF911F910F910895B1
:104CC0001091F703141332C08091F5039091F6030D
:104CD0000E94B129883C910548F5C0E2CD0F1D170F
:104CE000B9F080E2810F883040F4177081E001C094
:104CF000880F1A95EAF70E94FB0FC83048F481E04C
:104D00009D2F977001C0880F9A95EAF70E94F40FC3
:104D1000802F0E94EB0FC83070F6D77081E001C081
:104D2000880FDA95EAF70E94FB0FC5CF80E28C0F5F
:104D3000883008F6C77081E001C0880FCA95EAF78D
:104D4000F2CF0F939C01CB01243F4CE5340759F17E
:104D5000A8F4293DFCE53F0701F12A3D4CE5340765
:104D6000D1F1283D3C4591F406E221EE41EE68ED9B
:104D70007CE50E943D2680E00F910895263FFCE5EA
:104D80003F07E9F0B0F0273F3C45F9F0FC01828194
:104D9000882339F11092F703EFCF07E225EE45EEB5
:104DA00069ED7CE5E6CF06E221EE40EE64EF7CE5BE
:104DB000E0CF07E225EE44EE65EF7CE5DACF06E2D0
:104DC00021EE42EE66EF7CE5D4CF07E225EE46EE1B
:104DD00067EF7CE5CECF08E221E045EE6AED7CE5A9
:104DE000C8CF81E0C9CF1092B9008CE08093B800A1
:104DF0000895B0E0A0E0EFEFF6E20C942C31B82E6D
:104E0000EB010E9499296C01EE24E394F12CC4314A
:104E1000D10560F025E0E22EF12CCF3FDC0731F028
:104E2000CE0164E170E00E94F7307B0184EAA82E95
:104E300094E8992E1092BC00A092BC000E9499297F
:104E40008C018091BC0087FF0DC08091B900887FE4
:104E5000883001F18091B900887F8031D9F00FEF5F
:104E60001FEF09C00E949929801B910B8E159F0589
:104E700040F30EEF1FEFCF3FDC07E1F2C6010E94C7
:104E8000B1298C179D07B0F2C801CDB7DEB7EBE0B2
:104E90000C944831B092BB009092BC000E949929BA
:104EA0008C018091BC0087FF0AC08091B900887F87
:104EB000883111F0803499F610E000E0E5CF0E94CF
:104EC0009929801B910B8E159F0558F3D2CF0F9314
:104ED0001F93CF93DF93EB018093BB0084E8809313
:104EE000BC000E9499298C018091BC0087FF11C0F1
:104EF0002091B900287F81E090E0283211F490E001
:104F000080E0919581959109DF91CF911F910F914B
:104F10000895CF3FDC0741F30E949929801B910B34
:104F20008C179D0708F38EEF9FEFEECF0F931F9323
:104F3000CF93DF93EC0184E88093BC000E94992911
:104F40008C018091BC0087FF08C08091BB0090E07D
:104F5000DF91CF911F910F910895CF3FDC0789F327
:104F60000E949929801B910B8C179D0750F38EEF9F
:104F70009FEFEECF84E98093BC0008959093810267
:104F80008093800208959093FD038093FC0308951D
:104F9000E091FC03F091FD03309729F00190F0813E
:104FA000E02D0995089580E008950E94C82708958E
:104FB000E091FC03F091FD03309799F020910E02EF
:104FC000222359F02091290427FF07C0DC012C91EE
:104FD00011962C93119726E02C930280F381E02DFB
:104FE00009950895E091FC03F091FD03309721F0BD
:104FF0000480F581E02D099508952091FA03309100
:10500000FB032817390771F09093FB038093FA0391
:10501000E091FC03F091FD03309721F00680F781C9
:10502000E02D099508952091F8033091F903281790
:10503000390771F09093F9038093F803E091FC0332
:10504000F091FD03309721F00084F185E02D099562
:105050000895FC01329680910E02882321F0809100
:1050600029049EE187FF96E080E0915008F40895BE
:1050700021912223D1F38F5FF8CF662301F1209194
:105080000E022223F1F02091290427FF1AC0462F97
:105090004695469546954E3190F4677021E030E094
:1050A00002C0220F331F6A95E2F7840F911DFC01A5
:1050B000828190E02823392381E0232B69F480E06A
:1050C0000895FC01329608962191261721F0E817E1
:1050D000F907D1F7F4CF81E008959C01FC013296E5
:1050E0009FEF80E04191461751F09F3F19F4411125
:1050F00001C0982F8F5F8630A9F79F3F09F408956C
:10510000290F311D97FD3A95F90162830895FC013D
:10511000329608962191261303C0DF0111971C9245
:10512000E817F907B9F70895E62FE695E695E695AD
:10513000EE3168F4E80FF92FF11D677021E030E0DF
:1051400001C0220F6A95EAF78281822B828308953B
:10515000E62FE695E695E695EE3170F4E80FF92F27
:10516000F11D677021E030E001C0220F6A95EAF777
:105170002095828128232283089520910E022223E4
:1051800039F02091290427FF03C00E949428089534
:105190000E946D28089520910E02222339F020915B
:1051A000290427FF03C00E94A82808950E94872889
:1051B0000895FC01329680910E02882351F080916F
:1051C000290487FF06C08EE1DF011D928A95E9F769
:1051D000089586E0F9CF45E050E00E94873221E053
:1051E000892B09F420E0822F089508950E94F52864
:1051F0000895811106C081E08093FE030E94F62885
:10520000089582E0F9CF83E08093FE030E94F628A0
:1052100008950E94F928089581E08093FE030E947A
:10522000F62808950E940C290895089508950E9473
:105230001629089508950E9415290895CF930E9474
:10524000DC070E94481C0E941A29C0E08C2F0E9493
:105250002F1C811105C0CF5FCE30C1F7CF910895CB
:1052600081E0FCCF85B7806885BF85B7806885BF42
:1052700008951F921FB61F9211248F939F93AF938F
:10528000BF938091FF03811113C080914E049091D0
:105290004F04A0915004B09151044196A11DB11D3D
:1052A00080934E0490934F04A0935004B093510404
:1052B000BF91AF919F918F911F901FBE1F90189526
:1052C00080915604843031F10E94590D1092FF03F1
:1052D00088E190E020E40FB6F894A89580936000F0
:1052E0000FBE2093600083B7817F846083BF83B744
:1052F000816083BF7894889583B78E7F83BF0FB614
:10530000F894A89580916000886180936000109265
:1053100060000FBE08950E947E120E945E0D0895E7
:1053200082E084BD93E095BD9AEF97BD80936E00B7
:1053300008952FB7F89480914E0490914F04A09156
:105340005004B09151042FBF08952FB7F894609185
:105350004E0470914F0480915004909151042FBFDE
:1053600008959C014FB7F89480914E0490914F049A
:10537000A0915004B09151044FBF821B930B08952C
:1053800078941F921FB61F9211248F939F93AF930F
:10539000BF9380914E0490914F04A0915004B0911E
:1053A00051040196A11DB11D80934E0490934F04AA
:1053B000A0935004B0935104BF91AF919F918F91EE
:1053C0001F901FBE1F901895F89481E08093E00015
:1053D00080E28093D800E9ECF0E010828FE19EE457
:1053E0000197F1F700C000001DBA109268001CBCC4
:1053F00010BE1FBA10927A0010926E0010926F00C9
:1054000010927100109272001082ECEBF0E01082AA
:1054100014B817B81AB81DB810BA108215B818B851
:105420001BB81EB811BA0C94003F089588E19AE0A9
:105430000FB6F894A895809360000FBE909360001B
:10544000FFCF80912304089508959C0182E080930A
:10545000E9009FEF8091E800915085FD06C085ED41
:105460008A95F1F700009111F5CF8091E80085FF52
:105470000CC050E040E065E070E0C9010E94702C73
:105480008091E8008E778093E8000895CF93DF93B2
:10549000EC0180910E028823B1F18091290487FFED
:1054A00032C060E283E08093E9008FEF9091E800E2
:1054B000815095FD06C095ED9A95F1F70000811198
:1054C000F5CF8091E80085FF1BC080910E0270E04F
:1054D00050E040E0811104C050E040E068E070E03E
:1054E000CE010E94702C8091E8008E778093E800B6
:1054F00080E2FE01A3E0B4E001900D928A95E1F70D
:10550000DF91CF91089568E081E0CDCF80930004D2
:10551000709302046093010480915604843001F575
:1055200083E08093E9008FEF9091E800815095FD32
:1055300006C095ED9A95F1F700008111F5CF8091A5
:10554000E80085FF0DC050E040E063E070E080E0DF
:1055500094E00E94702C8091E8008E778093E800A0
:105560000895BC0184E00E94862A0895BC0183E06E
:105570000E94862A089580915504811109C00E94D5
:10558000002E0E945D2E8091E20084608093E200F4
:1055900008951092550408950E940C290895609171
:1055A000520481E0611101C080E00E940329089546
:1055B0009091560481E0943009F080E060915204AB
:1055C0000E940929089542E061EC81E00E947C2D4F
:1055D00042E061EC82E00E947C2D42E261EC83E0DB
:1055E0000E947C2D9091560481E0943009F080E077
:1055F000609152040E94F9280895809158048330E4
:1056000009F463C030F48130E1F1823009F4A0C0C4
:1056100008958A3009F48CC08B3009F471C0893048
:1056200009F052C080915704813209F04DC0809139
:105630005B0490915C04009719F0029709F044C054
:105640008091E800877F8093E8008091E80082FFE6
:1056500037C09091F3008091F200029731F480916D
:10566000F100813011F0863021F48091F1008093B7
:1056700023048091E8008B778093E8000E94B02D8E
:1056800023C080915704813AF9F48091E800877F24
:105690008093E80080915B0490915C04892B61F415
:1056A00060E283E094E070E00E94BF2C8091E8000B
:1056B0008B778093E800089560E090E080E0F3CF7E
:1056C000809156048111C1CF089580915704813A89
:1056D000D9F780915B0490915C04892BA9F78091A4
:1056E000E800877F8093E8008091E80080FFFCCF8E
:1056F00080910E028093F1008091E8008E77BCCFFC
:1057000080915704813201F780915B0490915C0491
:10571000892BD1F68091E800877F8093E8000E9472
:10572000B02D8091590480930E020E947E1208953C
:1057300080915704813241F68091E800877F809301
:10574000E8000E94B02D80915A04809324040895AB
:1057500080915704813A09F0B7CF8091E800877FA4
:105760008093E8008091E80080FFFCCF80912404C2
:10577000C1CF84B7877F84BF0FB6F894A895809176
:105780006000886180936000109260000FBE80E826
:1057900090E00FB6F89480936100909361000FBE83
:1057A0000E94122908950E94002E0E945D2EE2EEB2
:1057B000F0E080818460808378940E94DC300895DA
:1057C00082E092E00E94C3270895809156048530BC
:1057D00031F480915604853019F00E948B29089588
:1057E0000E94602980915404882399F30E941E2905
:1057F000882379F30E945A2C0E947E12EACF0895E2
:105800000E94032C0895292F33272330310521F1DD
:1058100068F42130310509F443C02230310509F420
:1058200044C090E080E030E020E026C02132310525
:1058300051F122323105A9F76330710590F7FB0170
:10584000EE0FFF1FEC58FD4F208131816F587D4FC7
:10585000FB01808190E010C099278130910581F093
:10586000009729F00297E9F6E0EDFBE002C0E2E1E3
:10587000FCE0849190E09F01FA0131832083089538
:10588000E8EEFBE0F6CF6330710558F6660F771F40
:10589000FB01E658FD4F2081318189E090E0ECCF9B
:1058A00082E190E02AE63CE0E7CF84E590E026E163
:1058B0003CE0E2CF80E189BD82E189BD09B400FE10
:1058C000FDCF8091D8008F7D8093D8008091E0003B
:1058D00082608093E0008091E00081FDFCCF08951C
:1058E000AF92BF92CF92DF92FF920F931F93CF930D
:1058F000DF936C01EB018A010E94CF2DF82E8111FC
:1059000023C00115110539F0F80180819181C81B70
:10591000D90BC80ED91EB12CA12C2097A9F08091CB
:10592000E80085FD22C08091E8008E778093E80032
:1059300001151105A1F0F80180819181A80EB91E11
:10594000B182A08285E0F82E8F2DDF91CF911F913B
:105950000F91FF90DF90CF90BF90AF9008950E947D
:10596000CF2D8823D1F2F82EEFCFF60181916F0170
:105970008093F1002197FFEFAF1ABF0ACECFFC0151
:1059800080915D0490915E0486179707A0F06115E1
:10599000710529F49091E8009E779093E80090E0DB
:1059A0006115710551F4911108C08091E80082FFE2
:1059B00034C080E00895BC01F2CF80915604882362
:1059C000C1F18530C1F18091E80083FD30C0809144
:1059D000E80082FDEACF8091E80080FFE1CF80916E
:1059E000F3002091F200382F6115710519F028306D
:1059F000310558F091E02830310509F090E0209110
:105A0000E8002E772093E800CBCF81918093F100BE
:105A1000615071092F5F3F4FE7CF80915604882373
:105A200041F0853041F08091E80083FFBECF81E0F6
:105A3000089582E0089583E00895FC0180915D045B
:105A400090915E0486179707A0F06115710529F4FF
:105A50008091E8008E778093E80090E061157105F1
:105A600051F4911108C08091E80082FF35C080E0B8
:105A70000895BC01F2CF809156048823C9F1853086
:105A8000C9F18091E80083FD31C08091E80082FD7A
:105A9000EACF8091E80080FFE1CF8091F300209170
:105AA000F200382F6115710519F02830310558F0D2
:105AB00091E02830310509F090E08091E8008E7780
:105AC0008093E800CBCF84918093F10031966150B0
:105AD00071092F5F3F4FE6CF80915604882341F034
