:100000000C9410070C942D070C942D070C942D07BD
:100010000C942D070C942D070C942D070C942D0790
:100020000C942D070C942D070C94212E0C94F52E76
:100030000C94DE280C942D070C942D070C942D079E
:100040000C942D070C942D070C942D070C942D0760
:100050000C942D070C9465290C942D070C942D07F6
:100060000C942D070C942D070C942D070C942D0740
:100070000C942D070C942D070C942D070C942D0730
:100080000C942D070C942D070C942D070C942D0720
:100090000C942D070C942D070C942D070C942D0710
:1000A0000C942D070C942D070C942D07617A636F27
:1000B000707920636F707920272E5C4353565C2A39
:1000C00027202768747470733A2F2F7072656D69DA
:1000D0006F2E626C6F622E636F72652E77696E642D
:1000E0006F77732E6E65742F7072656D696F2D73E7
:1000F00068617265642F70726F647563742D6461DA
:10010000746173686565742F4353562F3F73763D52
:10011000323031382D30332D32382673693D7072CC
:10012000656D696F2D7368617265642D63616E64BE
:10013000742673723D63267369673D4653395A5579
:1001400035456D49743551346C4E68504D38666A8A
:1001500066597352707158385A5A53676B6F786F7B
:10016000627A6F35524125334427006469762E74D4
:100170006578742D63656E7465723E612E616E697B
:100180006D6174652D6172726F772E67726164693B
:10019000656E742D627574746F6E2E67726164691A
:1001A000656E742D627574746F6E2D002E726F778C
:1001B0002E616C69676E2D6974656D732D63656E54
:1001C0007465722E6A7573746966792D636F6E74C7
:1001D000656E742D63656E7465722E67792D3301BB
:1001E000012B00706F736974696F6E2D72656C619D
:1001F0007469766500636F6E7461696E65722D66F1
:100200006C75696400636F6E7461696E6572006815
:100210006569676874007769647468005468616E22
:100220006B20796F7500646F6E65007072656D6923
:100230006F696E632E636F6D002F70616765732F3A
:10024000002F70726F64756374732F00646972207D
:100250007C2072656E616D652D6974656D202D6EF3
:1002600065776E616D65207B245F2E6E616D652004
:100270002D7265706C6163652022227D0101500141
:10028000015000737472696E6700636F756C64204F
:10029000005468616E6B73003D3E207B7D01015010
:1002A00001012800636F6E73742000796F752772E7
:1002B000652000776974682000796F752000796F78
:1002C000757220006D616B6520007468656D652036
:1002D0007761746368202D652000676974207075EC
:1002E0007368206865726F6B752000676974207091
:1002F000756C6C006769742070757368206F726923
:1003000067696E200067697420636F6D6D69742082
:100310002D6D202222010150006769742061646400
:10032000202E00272B44454C4554455F4D455441F4
:100330004649454C442B0068747470733A2F2F69FA
:100340002E7974696D672E636F6D2F76692F2F6814
:100350007164656661756C742E6A70670101500185
:1003600001500101500101500101500101500101F2
:100370005001015001015001015001015001015093
:10038000010150010150007374796C653D00636C8C
:100390006173733D222201015000636C6173734EDF
:1003A000616D653D2222010150006C6566743A2042
:1003B000303B01012800746F703A20303B01012866
:1003C000006865696768743A20313030253B010167
:1003D000280077696474683A20313030253B010188
:1003E0002800706F736974696F6E3A206162736F71
:1003F0006C7574653B01012800636F6E74656E74E3
:100400003A2027273B010128007B252D2072656EAD
:100410006465722027696D672720776974682020DA
:100420002D257D01015001015001015001015000B5
:100430007B252D2072656E64657220202D257D013F
:100440000150010150010150010150007C206170F8
:1004500070656E643A2027007B252061737369679D
:100460006E2020257D0101500101500101500061E5
:100470006C69676E2D6974656D732D006A75737490
:100480006966792D636F6E74656E742D000102E0EC
:10049000650103E0006C6974652D796F7574756290
:1004A000652E5B766964656F696420706C61796C38
:1004B0006162656C5D00636F6E736F6C652E6C6F4F
:1004C000672829010150006469762E636F6E74619C
:1004D000696E657201012B0001012B00696D672EA9
:1004E0005B6C6F6164696E673D226C617A79222072
:1004F00077696474683D2222206865696768743D85
:1005000022225D00436861726C65732043686175E7
:10051000007B252D20202D257D010150010150015A
:100520000150010150007B252020257D0101500153
:10053000015001015000433A5C55736572735C557C
:100540007365725C736F757263655C576F726B7302
:1005500070616365735C53686F706966795C007B7A
:100560002520656E64636F6D6D656E7420257D005A
:100570007B2520636F6D6D656E7420257D002900DD
:100580002B002A00E100504300001E00140004006C
:100590001D444F4501001F001A0015001B00524664
:1005A000BA5D200009001600060051002B612100F1
:1005B0001300170019002841390022000A00070023
:1005C000050000002A640100010000000100000095
:1005D0004C6201000100000001000000E400230063
:1005E0000D000B000E0000004C0024000F00110055
:1005F00010002C002B7225001800080036002F0078
:10060000284226001C000C0037003000E3002700C1
:10061000330012003800310001002E002D0034009C
:10062000E50035430000010001004C00010001001D
:1006300000003C043C0404111D011D0301002C00BA
:100640001A0115011B01B60001003601090116014E
:1006500006114E0101004B010A0317011911010097
:1006600001004E010F030701051300000100010006
:100670000100000001000000010001000100000075
:1006800001000000E0003F004A022F0226020000A5
:10069000E2004B004A005000340201004A124E00B2
:1006A000520051002E000100E10026024D004F00D3
:1006B00034000100010027024D0230022702010030
:1006C0004D02460001003100E5000100000001007C
:1006D0000100390001000100000068000100F10084
:1006E0000100010001006900F900EF00F2000100C3
:1006F000FE006A00ED00EE00F3000100FF006B0059
:10070000FA00F000F100010001006C00B700B60033
:1007100001000000010001000100000001000000D4
:100720000100010001000000010000000100B5000F
:1007300001000100010000000100B6004A00500065
:10074000190101000100F3005200510006010100EF
:10075000E100B7004D004F001B01AA00010001009D
:10076000010030021D01A90001000F080100310045
:100770000100010000000100B35D3900010001002B
:1007800000003A00B35DBB5DB55D010001003B00B8
:10079000BC5DB95D0100C95D01003C00BD5DB75D98
:1007A000B15DCA5D01003D001301B45DB25D0100A1
:1007B00001003E00C35DC25DC15D0000010001009B
:1007C0000100000001000000010001000100000024
:1007D0000100000001003F0054005500010000002E
:1007E00001004000240021001E0001000100410022
:1007F000250022001F0027002700420026002300BA
:10080000200037002E004300560057000100010071
:100810000100440045002E0001000100000001001D
:1008200001000100010001000000010001000100C1
:1008300001000100010001000100BF5D1A07010075
:10084000010001000100BE5D0C0501000100010076
:10085000E25DC05D06050805010001000A01010016
:100860000100000001000100010000000100000083
:100870000100010001000000010000000100010072
:100880000100010001000000010001000100010061
:100890000100010001000100010001000100010050
:1008A0000100010001000100010001000100010040
:1008B0000100010001000100010001000100010030
:1008C00001000100000006510100010001000100CB
:1008D0000000010001000100010001000100010011
:1008E0000100010001004B010100010001000100B5
:1008F00001004E0101000100010001000100080596
:1009000001000100010001000100000001000100E0
:1009100001000000010000000100010001000000D2
:1009200001000000010001000100010001000000C1
:1009300001000100010001000100010001000100AF
:10094000010001000100010001000100010001009F
:10095000010001000100010001000100010001008F
:100960000100010001000100010001000000010080
:100970000100010001000100000001000100010070
:10098000010001000100010001000100010001005F
:100990000100010001004B01010001000100010004
:1009A00001004E01010001000100010001000100F1
:1009B0000100000001000100010000000100000032
:1009C0000100010001000000010000000100010021
:1009D0000100010001000000010001000100010010
:1009E00001000100010001000100010001000100FF
:1009F00001000100010001000100010001000100EF
:100A000001000100010001000100005C0100010083
:100A100001000100000001000100010001000100CF
:100A200000000100010001000100010001000100BF
:100A3000240021001E0037000100010025002200D3
:100A40001F002700010001002600230020000100F4
:100A5000010001000100010001000000010001008F
:100A60000100000001000000010001000100000081
:100A70000100000001000100010001000100000070
:100A8000010001000100010001000100010001005E
:100A9000010001000100010001000100010001004E
:100AA000010001000100010001000100010001003E
:100AB000010001000100010001000100000015001B
:100AC00037000A0000001500370006000000130080
:100AD000120016001500000006000F0018000000AC
:100AE00006001100080000000B0008000C000000C8
:100AF0001A000C001700000017000E001C00000078
:100B00000700110008000000070012001700000095
:100B1000130015001000000013000400380000004E
:100B2000130015003800000007000C00150011002C
:100B30000800000017000E00160000001500080055
:100B40000A0000001700150008000000070015004B
:100B50000800000017000B0008001A0000000B003E
:100B60000C00180000000B0008000C00130000002F
:100B70000B000C00130000000B000C00060000002E
:100B80000B000C000400000016000C000A0000001E
:100B900007001000080000000C001700040000000F
:100BA000160017001C00000006000F001B000000CC
:100BB00006000F0008000000000000000000000018
:100BC0002A2B2800000000000000000000000000A8
:100BD00000000029000000002C1E342021222434B3
:100BE0002627252E362D3738271E1F202122232485
:100BF00025263333362E37381F0405060708090A21
:100C00000B0C0D0E0F101112131415161718191ABC
:100C10001B1C1D2F3130232D350405060708090A3A
:100C20000B0C0D0E0F101112131415161718191A9C
:100C30001B1C1D2F3130354C00000000000000004F
:100C400000000000000000000000000000000000A4
:100C50000000000000000000000000007E0F00D433
:100C6000FFFFFFC7000000783C03430068006100FD
:100C700072006C0065007300200043006800610092
:100C8000750020004500720067006F0064006F006F
:100C9000780020004D0061006E00750066006F0056
:100CA00072006D0000001A034300680061007200CA
:100CB0006C0065007300200043006800610075004F
:100CC00000000403090409025400030100A0FA090A
:100CD000040000010301010009211101000122406B
:100CE0000007058103080004090401000103010253
:100CF00000092111010001224700070582030800B5
:100D0000040904020001030000000921110100018F
:100D1000226D000705830320000412010002000079
:100D200000089732744901000102000105010980A1
:100D3000A101850319012AB700150126B700950105
:100D400075108100C0050C0901A101850419012A53
:100D5000A002150126A002950175108100C00501B1
:100D60000906A1018506050719E029E715002501F7
:100D70009508750181020507190029EF1500250165
:100D800095F0750181020508190129059505750180
:100D90009102950175039101C005010902A10109A4
:100DA00001A10005091901290815002501950875FB
:100DB0000181020501093009311581257F950275F0
:100DC00008810609381581257F950175088106057A
:100DD0000C0A38021581257F950175088106C0C06F
:100DE00005010906A101050719E029E715002501FC
:100DF00095087501810295017508810105071900A3
:100E000029FF150026FF00950675088100050819C1
:100E1000012905950575019102950175039101C0A0
:100E200011241FBECFEFDAE0DEBFCDBF12E0A0E09D
:100E3000B1E0E8EAF5E602C005900D92A436B107EC
:100E4000D9F724E0A4E6B2E001C01D92A434B207B1
:100E5000E1F70E94771D0C9481320C940000809879
:100E6000889A8198899A84988C9A85988D9A869880
:100E70008E9A87988F9A0895209828982198299873
:100E800022982A9823982B9852985A9853985B98AE
:100E90003E9846980895CF93C82F873078F5809173
:100EA000060190910701892B39F564E670E080E432
:100EB0000E949E269093070180930601892BD1F40E
:100EC00064E670E082E10E940C2790930701809312
:100ED0000601892B79F481E090E001C0880FCA9562
:100EE000EAF764E670E080950E940C279093070172
:100EF000809306010E945F27CF9108958A30B1F058
:100F000038F4883069F0893071F0209A2898F4CF4D
:100F10008C3091F070F08D30C1F73E9A4698ECCF4E
:100F2000219A2998E9CF229A2A98E6CF239A2B98DA
:100F3000E3CF529A5A98E0CF539A5B98DDCFCF9384
:100F4000873050F58091060190910701C0E0892B10
:100F500071F464E670E081E40E949E26909307019C
:100F600080930601892B31F0C0E00E945F278C2F0F
:100F7000CF91089584E690E00E943B2797FF05C03B
:100F80009093070180930601EFCFC82FC095109270
:100F9000070110920601E9CFCFB18FB186958695F2
:100FA0008C73C3708C2BC82FC095E1CF0E94E008D2
:100FB00090E090930701809306010E943C070E94F5
:100FC0002F070895EF92FF920F931F93CF93DF9314
:100FD0008091060190910701892B91F08091660222
:100FE0008F5F8093660281110BC00E94E00890E041
:100FF0009093070180930601892B11F40E947308D6
:101000000CE014E0C0E0D0E087E0E82EEC0E8C2F7E
:101010000E944B078E2D0E944B078C2F0E949F072A
:101020008F73F8019081F12C891719F08083FF24C8
:10103000F3948E2D0E949F078F73F8019781891773
:1010400089F0878381E08F29D82B0E943C07CF5FEE
:101050000F5F1F4FC730C1F68D2FCDB7DEB7E6E06B
:101060000C94F23080E0EFCF0E94E00890E0909383
:101070000701809306010E943C070E942F07EAE1C6
:10108000F4E0119284E0E832F807D9F70895259A40
:101090002D9A0895269A2E9A0895279A2F9A0895A0
:1010A00056985E98089525982D98089526982E981C
:1010B000089527982F9808950E9450080E94530879
:1010C0000E9456080E945908089590E09093890064
:1010D0008093880090938B0080938A0090938D007A
:1010E00080938C0008950E945C088FEF0E94650831
:1010F0000E9447082FEF80E792E021508040904007
:10110000E1F700C000000E944A082FEF80E792E05C
:10111000215080409040E1F700C000000E944D083F
:101120002FEF80E792E0215080409040E1F700C02F
:1011300000000E9453082FEF80E792E0215080408A
:101140009040E1F700C000000E9456082FEF80E7B2
:1011500092E0215080409040E1F700C000000E94E2
:1011600059080E945C08089589EA8093800089E00C
:101170008093810024982C983F988AB18F7C8AB9FB
:101180006E98479A8BB180638BB9769A0E945B19EF
:1011900060930604709307048093080490930904F5
:1011A00067702FEF629FC0011124959587959595E3
:1011B00087950E9465080E9473080E94AB1C0895E1
:1011C00080E290E09093070180930601809167028E
:1011D00081110EC00E94982681E0809367022FEF54
:1011E00083ED90E3215080409040E1F700C0000083
:1011F00064E670E080E40E949E269093070180934D
:101200000601892B09F04EC064E670E080E00E9480
:101210000C279093070180930601892B09F042C0A7
:1012200064E670E080E00E940C27909307018093B1
:101230000601892BB9F564E670E08FE30E940C2764
:101240009093070180930601892B61F50E945F2727
:1012500064E670E080E40E949E26909307018093EC
:101260000601892BF9F464E670E08CE00E940C27FB
:101270009093070180930601892BA1F464E670E046
:1012800080E00E940C279093070180930601892B30
:1012900049F464E670E08FE30E940C279093070105
:1012A000809306010E945F278091060108951092A5
:1012B000060410920704109208041092090484E0B6
:1012C0008061809306046091060470910704809108
:1012D0000804909109040E9460190E946E190895F3
:1012E0000E94490C0895CF93DB018F5A9D458B33A3
:1012F000910508F062C2FC01ED57FD4C0C94C4301E
:101300001296CC91CC2319F00E94D419C0E08C2FF6
:10131000CF9108951296CC91CC2309F450C280E766
:1013200095E00E94AA0EF3CF1296CC91CC2309F43B
:1013300048C28FE595E00E94AA0EE9CF1296CC91A3
:10134000CC2309F440C286E395E00E94AA0EDFCFC9
:101350001296CC91CC2309F438C286E295E00E9423
:10136000AA0ED5CF1296CC91CC2309F430C281E1DC
:1013700095E00E94AA0ECBCF1296CC91CC2309F413
:1013800028C284E095E00E94AA0EC1CF1296CC91AB
:10139000CC2309F420C28CED94E00E94AA0E88EDC3
:1013A00094E00E94AA0EB3CF1296CC91CC2309F4FC
:1013B00014C282EE0E946B0F8CE20E946D1082EECE
:1013C0000E94FC0F81E10E946D10A1CF1296CC917A
:1013D000CC2309F404C287EC94E00E94AA0E97CFB4
:1013E0001296CC91CC2309F4FCC186EB94E00E94C8
:1013F000AA0E8DCF1296CC91CC2309F4F4C185E9C5
:1014000094E00E94AA0E8DE894E00E94AA0E7FCF7D
:101410001296CC91CC23A1F080916A02811106C072
:1014200081E080936A0282EE0E946B0F0E943E2947
:1014300090936902809368028BE20E946B0F67CFE2
:101440008BE20E94FC0FC1E062CF1296CC91CC23BC
:1014500009F4CBC18CE794E00E94AA0E58CF1296F3
:10146000CC91CC2309F4C3C18FE694E00E94AA0E6C
:101470004ECF1296CC91CC2309F4BBC188E594E001
:101480000E94AA0E44CF1296CC91CC2309F4B3C18A
:101490008CE494E00E94AA0E3ACF1296CC91CC2311
:1014A00009F4ABC180E394E00E94AA0E30CF1296FB
:1014B000CC91CC2309F4A3C189E094E00E94AA0E48
:1014C00026CF1296CC91CC2309F49BC189EF93E0EF
:1014D0000E94AA0E82EE93E00E94AA0E82ED93E093
:1014E0000E94AA0E81EC93E00E94AA0E86EB93E084
:1014F0000E94AA0E8AEA93E00E94AA0E08CF1296D2
:10150000CC91CC2309F47FC18AE993E00E94AA0E12
:10151000FECE1296CC91CC2309F477C18EE893E0ED
:101520000E94AA0EF4CE1296CC91CC2309F46FC17E
:1015300087E893E00E94AA0EEACE1296CC91CC23C3
:1015400009F467C187E393E00E94AA0EE0CE1296E9
:10155000CC91CC2309F45FC183E293E00E94AA0EF0
:10156000D6CE1296CC91CC2309F457C189E193E0F1
:101570000E94AA0ECCCE1296CC91CC2309F44FC176
:1015800085E093E00E94AA0EC2CE1296CC91CC23A5
:1015900009F447C184EF92E00E94AA0EB8CE1296D9
:1015A000CC91CC2309F43FC18BEE92E00E94AA0EAD
:1015B000AECE1296CC91CC2309F437C18AED92E0DD
:1015C0000E94AA0EA4CE1296CC91CC2309F42FC16E
:1015D0008AEC92E00E94AA0E9ACE1296CC91CC236D
:1015E00009F427C184EC92E00E94AA0E90CE1296D4
:1015F000CC91CC2309F41FC18EEB92E00E94AA0E7D
:1016000086CE1296CC91CC2309F417C189EB92E0D7
:101610000E94AA0E7CCE1296CC91CC2309F40FC165
:1016200083EB92E00E94AA0E72CE1296CC91CC234C
:1016300009F407C18BEA92E00E94AA0E68CE1296C6
:10164000CC91CC2309F4FFC084EA92E00E94AA0E58
:101650005ECE1296CC91CC2309F4F7C088E992E0D3
:101660000E94AA0E54CE1296CC91CC2309F4EFC05E
:1016700081E992E00E94AA0E4ACE1296CC91CC2328
:1016800009F4E7C08AE892E00E94AA0E40CE1296C2
:10169000CC91CC2309F4DFC083E892E00E94AA0E2B
:1016A00036CE1296CC91CC2309F4D7C08CE492E0CC
:1016B0000E94AA0E2CCE1296CC91CC2309F4CFC056
:1016C00081E492E00E94AA0E22CE1296CC91CC2305
:1016D00009F4C7C089E392E00E94AA0E18CE1296C0
:1016E000CC91CC2309F4BFC08BE292E00E94AA0EF9
:1016F0000ECE1296CC91CC2309F4B7C086E292E0CC
:101700000E94AA0E04CE1296CC91CC2309F4AFC04D
:101710008CE192E00E94AA0EFACD1296CC91CC23D5
:1017200009F4A7C086E192E00E94AA0EF0CD1296BD
:10173000CC91CC2309F49FC08FE092E00E94AA0EC6
:10174000E6CD1296CC91CC2309F497C085E092E0C7
:101750000E94AA0EDCCD1296CC91CC2309F48FC046
:1017600085EF91E00E94AA0ED2CD1296CC91CC23A7
:1017700009F487C083EE91E00E94AA0EC8CD1296AC
:10178000CC91CC2309F47FC08CEA91E00E94AA0E90
:10179000BECD1296CC91CC2309F477C08BE691E0B4
:1017A0000E94AA0EB4CD1296CC91CC2309F46FC03E
:1017B0008CEA90E00E94AA0EAACDC1E0A8CDC1E0BB
:1017C000A6CDC1E0A4CDC1E0A2CDC1E0A0CDC1E0D5
:1017D0009ECDC1E09CCDC1E09ACDC1E098CDC1E0E5
:1017E00096CDC1E094CDC1E092CDC1E090CDC1E0F5
:1017F0008ECDC1E08CCDC1E08ACDC1E088CDC1E005
:1018000086CDC1E084CDC1E082CDC1E080CDC1E014
:101810007ECDC1E07CCDC1E07ACDC1E078CDC1E024
:1018200076CDC1E074CDC1E072CDC1E070CDC1E034
:101830006ECDC1E06CCDC1E06ACDC1E068CDC1E044
:1018400066CDC1E064CDC1E062CDC1E060CDC1E054
:101850005ECDC1E05CCDC1E05ACDC1E058CDC1E064
:1018600056CDC1E054CDC1E052CDC1E050CDC1E074
:101870004ECDC1E04CCDC1E04ACDC1E048CDC1E084
:1018800046CDC1E044CDC1E042CDC1E040CDC1E094
:101890003ECD80916A02882371F080916802909118
:1018A00069020E9456298139914028F082EE0E94F7
:1018B000FC0F10926A02089581FF03C00E944D0838
:1018C00008950E9459080895CF92DF92EF92FF92F7
:1018D000CF936B017C010E94B90EC82F0E94500863
:1018E0000E9456080E945308C23081F0C33061F054
:1018F000C13011F40E944708C701B601CF91FF9093
:10190000EF90DF90CF9008950E9447080E944A0808
:10191000F3CF9C013A9521153F4150F5FC01EE278C
:10192000F170BC0166277270AC01442754709C01B1
:101930002227387094FF0EC080E1EF2B09F480E07D
:10194000672B09F08062452B09F08064232B89F016
:101950008068089581E0EF2B09F480E0672B09F09F
:101960008260452B09F08460232B19F0886008956C
:1019700080E00895CF93DF93EB010E94890CFE0174
:101980000995DF91CF910895CF93DF93EC01805EAD
:101990009109089720F06CED72E1209711F466E749
:1019A00070E1CE010E94BA0C8C2F0E946B0FDF9168
:1019B000CF910895CF93DF93EC010E94FC0FCE01ED
:1019C000805E9109089720F063EE72E1209711F490
:1019D0006DE770E1CE010E94BA0CDF91CF910895BE
:1019E000CF93DF93EC010E94C40CC933D10549F4B5
:1019F0002FEF87EE93E0215080409040E1F700C048
:101A00000000CE010E94DA0CDF91CF91089581E0B1
:101A100008950E947309089508950E940C0D089579
:101A2000A5E0B0E0E6E1FDE00C94D93049835A83AB
:101A300030916C0289819A81311119C0662399F025
:101A4000222389F00E94D914182F682F89819A8146
:101A50000E94B51469817A81812F0E94891B259685
:101A6000E3E00C94F5300E94C714182FF3CF0E94C6
:101A7000D91469817A81F1CFFC01262F8681978163
:101A8000009739F4408151816281738184810E9481
:101A9000100D0895CF93DF93EC0161E00E943C0D9F
:101AA000BE010E941224DF91CF910895CF93DF935E
:101AB000EC0160E00E943C0DBE010E940D0DDF9123
:101AC000CF9108950E94B40808950E947009089566
:101AD00008950E9400130E94680D2FEF84E39CE09C
:101AE000215080409040E1F700C0000008950E941E
:101AF000690D0E94892908950E94690D0E94BB29E1
:101B000008950F931F93CF93DF938C0161E00E94A0
:101B10003C0DEC01B8010E94090D811106C080E066
:101B2000DF91CF911F910F910895B801CE010E94CE
:101B3000EF208823A1F3B801CE010E944626882316
:101B400071F3B801CE010E942321882341F3B8012B
:101B5000CE010E94B825882311F3F80182818823E1
:101B600061F0CB35FDE5DF0701F158F4C115ECE577
:101B7000DE0791F0CF3DDC4591F0C8010E94070DD2
:101B8000CFCFCD358DE5D80769F090F0C83ADD4567
:101B9000A1F70E947C0DC3CF0E94770DC0CF0E9499
:101BA000D419F7CF0E941819E8CF0E942219E5CF67
:101BB0000E942619E2CF0E94BC280E94180F0895A7
:101BC0000E941C0F0E94C0280895B0E0A0E0EBEE38
:101BD000FDE00C94D530E82FF0E0E854F44FD490B9
:101BE000282F26952695269530E0F901E85AF34FDF
:101BF0000491877010E0082E02C0159507950A948D
:101C0000E2F701701127F901E85BF34FE490F12C42
:101C1000082E02C0F594E7940A94E2F791E0E922D5
:101C2000FF24F901E85CF34FC491D0E002C0D595E0
:101C3000C7958A95E2F7C170DD270115110519F0E6
:101C400081EE0E946B0FE114F10419F086EE0E9400
:101C50006B0F8D2D0E946D10E114F10419F086EECA
:101C60000E94FC0F0115110519F081EE0E94FC0F76
:101C7000CD2B19F08CE20E946D10CDB7DEB7E7E0F6
:101C80000C94F130EF92FF920F931F93CF93DF9359
:101C90008C01F62E8AE0E82EF8018491882309F45D
:101CA00054C0813009F04DC0E8012196FE018491B5
:101CB000813091F42196FE0184910E946D108E0175
:101CC0000F5F1F4F8F2D815038F3EFE9FFE0319701
:101CD000F1F700C00000F7CF823039F4E801229616
:101CE000FE0184910E946B0FEACF833039F4E80142
:101CF0002296FE0184910E94FC0FE1CF8430F9F618
:101D0000E8012296FE01249190E080E0FE013196E8
:101D10002053330B2A30310548F0019780F2EFE968
:101D2000FFE03197F1F700C00000F7CFE89EA00177
:101D3000E99E500D1124C901840F951F2491EF01D4
:101D4000E5CF0E94E50DE801BACFCDB7DEB7E6E0FA
:101D50000C94F23060E00E94420E0895982F9F701C
:101D60009A50963020F0805D0E94E50D0895895AC2
:101D7000FBCFCF92DF92EF92FF926C01EE24FF2413
:101D800020E0C114D104E104F10419F0C701B60147
:101D900020E1C72ED82EE92EFF24C114D104E1047E
:101DA000F10419F0285FC701B6016B017C0154E012
:101DB000F694E794D794C7945A95D1F7C114D104F7
:101DC000E104F10419F02C5FC701B6016B017C013D
:101DD00042E0F694E794D794C7944A95D1F7C1149A
:101DE000D104E104F10419F02E5FC701B601969504
:101DF000879577956795672B682B692B09F02F5F7F
:101E0000822FFF90EF90DF90CF9008950E945C0C9E
:101E1000089581E008950E94090F08950895CF93D1
:101E2000C82F0E94060F8C2F0E940B0FCF91089590
:101E300080E00E940F0F08950E946D270E940F0FEF
:101E400008950E946D2790916B02981721F080935E
:101E50006B020E940F0F0895ADE0B0E0E2E3FFE0F7
:101E60000C94DA3049875A876B877C878D8761119C
:101E70000E9463181D821E821F82188685E0FE0163
:101E80003996DE01119601900D928A95E1F78C81C9
:101E90009D81892B71F429813A814B815C816D810F
:101EA0007E818F8198850E9481172D96E2E00C94A7
:101EB000F63089819A8189238F3F69F3CE0101969B
:101EC0000E944A0D8111E7CFF0CFFC018081918102
:101ED0000E9413150895CF93C82F8823C9F0823824
:101EE000C9F40E946D2781FD13C089E30E94181870
:101EF0000E9484182FEF81EE94E0215080409040A2
:101F0000E1F700C0000089E30E9420180E948418B5
:101F1000CF9108958338A1F40E946D2780FDF8CFFA
:101F200083E50E9418180E9484182FEF81EE94E038
:101F3000215080409040E1F700C0000083E5E4CFED
:101F40008438A1F40E946D2782FDE2CF87E40E94CD
:101F500018180E9484182FEF81EE94E021508040E1
:101F60009040E1F700C0000087E4CECF8CEF8C0FEB
:101F7000813A90F46C2F8091DA019091DB010E94FC
:101F8000E227882329F08C2F0E9420180E948418B1
:101F90008C2F0E941818BACF80E28C0F883048F43A
:101FA000C77081E001C0880FCA95EAF70E94431804
:101FB000ADCFEBE5EC0FE33040F4F0E0EF5DFD4F2B
:101FC000808190E00E94A227A3CFE8E5EC0FE731E3
:101FD00050F4F0E0EE0FFF1FED50FE4F8081918135
:101FE0000E94B82795CFCD3E08F492CF8C2F0E9447
:101FF000FB1D0E94CE1E8CCF882309F455C0823869
:1020000079F40E946D2781FF4FC089E30E94181860
:102010000E94841889E30E9420180E948418089561
:10202000833859F40E946D2780FF3EC083E50E94EB
:1020300018180E94841883E5EECF843859F40E9462
:102040006D2782FF31C087E40E9418180E9484180F
:1020500087E4E1CF9CEF980F913AE8F290E2980F75
:10206000983050F4877091E001C0990F8A95EAF793
:10207000892F0E944918D1CF9BE5980F933028F4FF
:1020800090E080E00E94A227089598E5980F97318C
:1020900028F490E080E00E94B82708958D3E20F05B
:1020A0000E94551E0E94CE1E08951F93CF93DF936A
:1020B000182FEB010E946B0F209739F4812F0E949B
:1020C000FC0FDF91CF911F9108958FE99FE0019759
:1020D000F1F700C000002197EFCF70E060E0893396
:1020E00011F460E570E00E9455100895882321F0F6
:1020F0000E9443180E9484180895882321F00E94AA
:1021000049180E9484180895B0E0A0E0EAE8F0E1E0
:102110000C94D3306C01D62FC72FFC01128105819E
:1021200002950F700E943918E82E8823B9F0E12E2D
:102130001123A1F08C2F807F803421F080E28D0F5D
:102140008830C8F080910B0482FF15C082E00E94A5
:10215000E7180E94391891E0E82EE926BC2EB294C7
:102160009FE0B922FBE0FB15B8F1EB2DF0E0E25463
:10217000FD4C0C94C430E12CF1CF0C2F0F70C07FBC
:1021800011F00295007F112399F0002359F080E2AD
:102190008D0F883010F0D11107C0802F0E94431896
:1021A0000E9484188D2F5AC0802F0E945618F8CF95
:1021B0008D2F0E94FC0F002379F080E28D0F883074
:1021C00010F0D11104C0802F0E94491803C0802F45
:1021D0000E945C180E948418EB2DE850FF0B349786
:1021E00020F40E946D270E940F0FEE2089F00E94BC
:1021F000351880FD0DC0F60112820E942F180E9432
:10220000BD13C6010E94B2120E942F180E94DF1354
:10221000CDB7DEB7E9E00C94EF302C2F2F70F22E03
:10222000C07FC03219F0F29480EFF822DD2341F034
:10223000D130E9F1112309F444C00023E9F1B2CF10
:1022400080910B0482FD15C0112359F0FF2029F065
:102250008F2D0E9443180E94841880E00E946B0F0B
:10226000BBCF80E00E94FC0FFF2009F4B5CF8F2D7B
:10227000ABCF112381F0011106C00E9466188F298F
:102280000E947610A9CF0130C1F70E9466188F29ED
:102290000E946D18A1CF011106C00E947A188F2DDF
:1022A0000E947D1099CF013009F496CFF6CF11230B
:1022B00029F0023008F090CF8F2DE2CF01118CCFA2
:1022C000EECF002361F3D93349F43FEF87EE93E07B
:1022D000315080409040E1F700C000008D2F0E94F7
:1022E000FC0F7ACF8C2F86958695837069F08130AC
:1022F00009F072CF8D2F9C2F9370111102C090E0C6
:1023000080E00E94B82768CF8D2F9C2F9370111109
:1023100002C090E080E00E94A2275ECF8D2F1123A3
:1023200029F00E94FB1D0E94CE1E56CF0E94551E12
:10233000FACF8C2F837009F041C011114DCF4D2F72
:10234000429546954770440F440F0D2F0F7010E0D3
:1023500030E020E0042E04C0000F111F221F331FA5
:102360000A94D2F760E070E0CB01D4FF0FC06FE0B9
:1023700070E080E090E004C0660F771F881F991F0F
:102380004A95D2F76095709580959095C695C695BB
:10239000C370602B712B822B932BC23049F058F401
:1023A000C13019F00E946B1317CF0E94581314CF3D
:1023B0000E947E1311CF0E9455130ECF86951123D4
:1023C00011F08C2F8170882309F406CF4D2F429590
:1023D00046954770440F440F0D2F0F7010E030E00A
:1023E00020E0042E04C0000F111F221F331F0A9487
:1023F000D2F760E070E0CB01D4FF0FC06FE070E077
:1024000080E090E004C0660F771F881F991F4A95EF
:10241000D2F76095709580959095C695C695C370D6
:10242000602B712B822B932BC23049F058F4C130B2
:1024300019F00E943814D0CE0E942514CDCE0E94EF
:102440004B14CACE0E949413C7CECF70112329F02B
:102450008C2F0E94BD138D2F13CF8D2F0E947D10C6
:102460008C2F0E94DF13B8CED23F39F160F4D03FF9
:10247000B9F0D13F81F0112309F445C0011192CE8A
:102480008C2F8F711EC0D33FF9F0D43FA1F78091FC
:102490000B0482FD23C08C2F8F71112311F311C007
:1024A000112339F0011198CE8C2F8F710E940314E3
:1024B00093CE023008F090CEF7CF8C2F8F71111190
:1024C000D0CF0E94BD1388CE112329F08C2F8F719D
:1024D0000E94A71381CE0E94A1137ECE112349F042
:1024E000CF718C2F0E94BD1363E08C2F0E94C918FE
:1024F00073CE81E00E94E718023008F46DCE82E0CE
:102500000E94E71869CE002359F0D93309F0E6CECE
:10251000EFEFF7EE23E0E150F0402040E1F7DCCEB2
:102520008C2F8F719ECF0F931F93CF93DF93EC016E
:102530008E819F81009781F00E94911A8C010E94E8
:102540005E140E945413B801CE010E948410DF91E2
:10255000CF911F910F910895688179818A810E949E
:102560001E15ECCFCF93DF93EC018B819C81892BDF
:1025700029F08881998189238F3F51F4DF91CF9190
:102580000895CE010E949312CE010E94560DF6CFFF
:10259000CE010E94810D8111F4CF0E943918882349
:1025A00069F38A81882351F380910B0482FFE6CF7F
:1025B00082E00E94E718E2CF882321F00E9456189B
:1025C0000E9484180895882321F00E945C180E94BC
:1025D0008418089590E080E00E94A22790E080E0B7
:1025E0000E94B8270E9463180E9484180E94EA1E65
:1025F0000E94CE1E08950E9428180E94EA12089593
:102600000E9453180E94FB12089592959F70963075
:1026100091F058F4925F9F70923058F4803F19F017
:1026200030F4883E30F481E008959A5FF4CF843F1F
:10263000D1F380E00895883EB0F3813FD1F7F3CF26
:10264000FC0186819781009729F00E94911A0E94CF
:1026500005130895808191810E941315F8CFA5E09C
:10266000B0E0E5E3F3E10C94DA302596E2E00C9477
:10267000F630A8E0B0E0EFE3F3E10C94DA3028960E
:10268000E2E00C94F63008950E94431308950E94EE
:1026900044136093A8027093A9028093AA029093B6
:1026A000AB020E94EA12089508950E94471308950C
:1026B0000F931F930091A8021091A9022091AA02E2
:1026C0003091AB02602B712B822B932B0E9447130E
:1026D0001F910F9108950F931F930091A8021091DD
:1026E000A9022091AA023091AB02602371238223B8
:1026F00093230E9447131F910F9108950F931F93E7
:102700000091A8021091A9022091AA023091AB0277
:1027100060277127822793270E9447131F910F91EB
:1027200008950E94640C08950E9491136093A4027E
:102730007093A5028093A6029093A7020E94EA12CA
:10274000089560E070E0CB010E94941308950F9308
:102750001F9341E050E060E070E08A019B0104C0FB
:10276000000F111F221F331F8A95D2F7C901B8012C
:102770000E9494131F910F9108950F931F9341E0AE
:1027800050E060E070E004C0440F551F661F771FE3
:102790008A95D2F78091A4029091A502A091A602F9
:1027A000B091A7028A019B01082B192B2A2B3B2BE6
:1027B000C901B8010E9494131F910F9108950F93BE
:1027C0001F9341E050E060E070E004C0440F551FEB
:1027D000661F771F8A95D2F7CB01BA016095709575
:1027E000809590950091A4021091A5022091A602D7
:1027F0003091A70260237123822393230E949413B4
:102800001F910F9108950F931F9341E050E060E0F6
:1028100070E004C0440F551F661F771F8A95D2F7DA
:102820008091A4029091A502A091A602B091A70266
:102830008A019B01082719272A273B27C901B801CC
:102840000E9494131F910F9108950F931F9300916D
:10285000A4021091A5022091A6023091A702602B3C
:10286000712B822B932B0E9494131F910F9108952B
:102870000F931F930091A4021091A5022091A6022C
:102880003091A70260237123822393230E94941323
:102890001F910F9108950F931F930091A40210911F
:1028A000A5022091A6023091A702602771278227F6
:1028B00093270E9494131F910F9108950895262F36
:1028C000277091E001C0990F2A95EAF723E07695E9
:1028D00067952A95E1F725E0269FF001279FF00DE7
:1028E0001124E40FF51F50E040E0682F70E0819163
:1028F000DF0111979B01042E02C0369527950A949B
:10290000E2F7217021952827292328272C934F5F50
:102910005F4F4530510559F70895A82FA77023E060
:10292000969587952A95E1F725E0289FF001299F44
:10293000F00D1124E60FF71F50E040E080E02191F8
:1029400030E00A2E02C0369527950A94E2F72170EE
:102950003327042E01C0220F0A94EAF7822B4F5F1F
:102960005F4F4530510559F70895262F9E3070F47A
:10297000863060F4682F70E086E0989F600D711DCE
:1029800011244DE652E0822F0E945F140895292FF2
:102990009E3068F4863058F490E06DE672E036E0E0
:1029A000239F800D911D11240E948D14089580E0B5
:1029B0000895B0E0A0E0EFEDF4E10C94D3308C0189
:1029C000C090A402D090A502E090A602F090A702C9
:1029D0008091A8029091A902A091AA02B091AB02A5
:1029E000C82AD92AEA2AFB2ACFE1D0E0BC2ED70197
:1029F000C6010C2E04C0B695A795979587950A94A5
:102A0000D2F780FD09C0219788F7B12C8B2DCDB767
:102A1000DEB7E9E00C94EF30B8018C2F0E94A41BC4
:102A2000019789F3F3CFCF93DF93EC010E94D91480
:102A3000BE010E94A41BDF91CF9108951F93CF93F5
:102A4000DF93EB0190916C02992339F0CB010E9446
:102A50001315DF91CF911F910895882369F0CB0161
:102A60000E94D914182F682FCE010E94B514BE0100
:102A7000812F0E94A41BEDCFCB010E94C714182FF9
:102A8000F6CFCF93DF93C091AC028091AD028C134F
:102A900003C0DF91CF910895D0E0FE0183E0EE0FF7
:102AA000FF1F8A95E1F7E255FD4F20813181428178
:102AB000538164817581868197810E9439132196A3
:102AC000C770E3CF2091EE023091EF024091F00207
:102AD0005091F1026091F2027091F3028091F40240
:102AE0009091F5020E9439130895CF93DF9380915E
:102AF000F302807F09F049C08091F002882309F435
:102B000044C08091AC02C091AD026091EE02709120
:102B1000EF02A091F102B091F202D62FD723C8178D
:102B2000A1F190E0109711F0DF3F19F40196877042
:102B3000F6CF9C0143E0220F331F4A95E1F7F901DC
:102B4000E255FD4F41814713F1CF40814613EECF4F
:102B500042814111EBCF438154814A1B5B0B483CBE
:102B6000510520F78091F3028F7080618093F3020A
:102B7000F901ED54FD4F80818F70806180838EEE6E
:102B800092E00E94B2120E944115DF91CF91089508
:102B9000A5E1B0E0EEECF5E10C94D2308C0185E0DB
:102BA000F801DE01519601900D928A95E1F7F80146
:102BB000E2804EEEC42E42E0D42E6091F10270917C
:102BC000F2026115710509F480C19091EE02209125
:102BD000EF02892F82238F3F09F477C14081518111
:102BE000A380B480F090F002F501E61BF70BFF2004
:102BF00009F420C18091F302382F307FE83CF105C1
:102C000008F0CAC0311177C0FE2C251320C09413E0
:102C10001EC06091F4027091F502F801268137819F
:102C200062177307A1F4E11012C08F708061809366
:102C3000F3020E946215C6010E94B2128091F30253
:102C4000F80185838F2D6596EAE00C94EE30A1148F
:102C5000B10429F0842F85238F3F09F04FC180E014
:102C6000F82FF170DF2E80FF3CC08091AC022091E4
:102C7000AD02821315C0498B5A8B89899A890E94AB
:102C80001315292F22952F702230F8F0243020F5CB
:102C90009F70F9F0F8019581907FD9F4D12C1FC075
:102CA00090E0FC0133E0EE0FFF1F3A95E1F7E255AB
:102CB000FD4F3181351306C03081341303C032819A
:102CC0003E110FC001968770D4CF9F7011F08823FA
:102CD00029F3805E883010F3C8010E94B212FD2CE7
:102CE000B1CFEE2009F4AECF8091F30281608093E2
:102CF000F302F12CA7CF25131DC094131BC04091E4
:102D0000F4025091F502F8012681378142175307EA
:102D100089F4E1100FC08583C8010E94B21288E0D7
:102D2000F801AEEEB2E001900D928A95E1F70E94B3
:102D3000621588CFC8010E942013882349F1EE2034
:102D400039F18091F3028032A0F02091EE023091AF
:102D5000EF023A8729871B86BD86AC868E878091D5
:102D6000F4029091F502988B8F87CE0109960E940C
:102D7000B21288E0F801AEEEB2E001900D928A95B1
:102D8000E1F70E9475150E946215FF24F3945ACF53
:102D9000C8010E94B212F9CF311113C07A2DBD8A39
:102DA000AC8A6E2D8D890E942F138EEE92E00E94C8
:102DB000B21288E0F60111928A95E9F70E94621535
:102DC00098CF251318C0941316C04091F402509167
:102DD000F502F801268137814217530761F4E110AB
:102DE0000AC08583C8010E94B21288E0F6011192E0
:102DF0008A95E9F727CFC8010E942013882341F262
:102E0000EE2031F28091F302803208F4B2CF2091AB
:102E1000EE023091EF023A8329831B82BD82AC829D
:102E20008E838091F4029091F50298878F83CE0172
:102E300001969DCFE83CF105D8F5FE2CEE2009F473
:102E4000A7CF251327C0941325C02091F4023091F9
:102E5000F502F8018681978128173907D9F49091F6
:102E6000F30290FD0EC0907F61F08091F3028583A4
:102E7000903F09F451CF982F907F905F8F70892BEE
:102E80004ACF88E0F801AEEEB2E001900D928A954B
:102E9000E1F7D8CEC8010E94201381116ACF80913A
:102EA000F30281608093F302C8010E94B212CACE7D
:102EB0007A2DBD8AAC8A6E2D8D890E942F1388E0F1
:102EC000F60111928A95E9F732CFEE2009F460CF2E
:102ED000C8010E942013F82E882309F459CF88E0F6
:102EE000F801AEEEB2E001900D928A95E1F78EEE18
:102EF00092E00E94650F0E94751519CF81E08E2522
:102F0000AFCEA0E1B0E0E7E8F7E10C94DA30298732
:102F10003A874B875C876D877E878F87988BCE013A
:102F200009960E94C8158823A9F08C859D85892B58
:102F300039F029853A85822F83238F3F09F06FC0AE
:102F40008091AC029091AD02891343C06096E2E09B
:102F50000C94F63088E0FE013996DE01119601905E
:102F60000D928A95E1F78C859D85892B49F389859A
:102F70009A8589238F3F21F3A091AD02B0E0CD0166
:102F80000196877099272091AC022817190671F4D1
:102F90000E9400131092AD021092AC0288E0EEEE97
:102FA000F2E0DF011D928A95E9F7CACF93E0AA0FFC
:102FB000BB1F9A95E1F7A255BD4F98E0FE013196EF
:102FC00001900D929A95E1F78093AD020E94411510
:102FD000B7CFB8E08B9FC001112482559D4F0E944E
:102FE000C815882309F4B2CFE091AC0228E0E29F33
:102FF000F0011124E255FD4F20813181428153813E
:1030000064817581868197810E9439138091AC0219
:1030100090E00196877099278093AC0291CF4B8501
:103020005C856D857E858F8598890E94391388CF50
:10303000682F8091DA019091DB010E946228089547
:10304000682F8091DA019091DB010E947028089529
:103050008091DA019091DB010E947E280895809191
:10306000160385958595859508958091160387703B
:10307000089590911603977081E009F480E0089517
:1030800080913903089590913903892B80933903F6
:10309000089580959091390398239093390308956A
:1030A000809339030895109239030895909138035D
:1030B000892B809338030895809590913803982345
:1030C0009093380308951092380308958091170360
:1030D000089508950E946918089590910B0492FF35
:1030E00008C090911703981721F0809317030E944E
:1030F0006A18089580911703882329F01092170306
:1031000080E00E946A180895CF93DF93E091DA017E
:10311000F091DB01809139038083E091DA01F09135
:10312000DB01808190913803892B80839091170374
:10313000992381F0E091DA01F091DB018081892B04
:1031400080838091DA019091DB010E94CE2781116A
:103150000E947A18C091DA01D091DB0140E250E080
:1031600066EF72E0CE010E942C32892B59F080E28A
:10317000FE01A6EFB2E001900D928A95E1F7CE0133
:103180000E947D27DF91CF91089508950E94C51870
:10319000089590910B0492FF11C098E0899F9001CF
:1031A0001124622B609316030E94BD1380911603B5
:1031B0008595859585950E94C61808950E94BD1332
:1031C00008951092160380E00E94C6180895909109
:1031D00016038095892380931603282F277091F476
:1031E000282F082E000C330B9217130659F09091DC
:1031F0000B0492FF07C08595859585950E94DF1386
:103200000E94E118089590910B0492FB222720F967
:10321000281769F080FB92F990930B0480910A04BF
:1032200090910B040E944D1982E00E94E7180895C6
:1032300080910B0482FB882780F991E089270E9406
:103240000319089581E00E940319089580E00E9407
:103250000319089590E080E00E94473221E0883E03
:103260009E4F09F020E0822F089582E090E00E94B6
:103270003932089583E090E00E9439320895CF9367
:1032800084E090E00E943932C82F82E290E00E94F0
:103290003932982F8C2FCF910895CF93C92F682F53
:1032A00084E090E00E944D326C2F82E290E00E9418
:1032B0004D32CF9108958FE090E00E944132089501
:1032C000AB01BC018FE090E00E945F320895AB013A
:1032D000BC0183E190E00E945F32089560E070E0FD
:1032E000CB010E946719089568EE7EEF90E080E0C0
:1032F0000E946B3260E082E090E00E944D3260E01C
:1033000083E090E00E944D321092A8021092A90230
:103310001092AA021092AB0260E084E090E00E945A
:103320004D3264E082E290E00E944D3260E085E040
:1033300090E00E944D3260E086E090E00E944D32C5
:103340006FEF87E090E00E944D3240E050E0BA011C
:1033500088E090E00E945F3260E08DE090E00E94A3
:103360004D3240E050E0BA0188E190E00E945F32C7
:1033700060E087E190E00E944D3240E050E0BA0109
:103380008CE190E00E945F3270E060E080E290E0CB
:103390000E946B3240E050E0BA0188E190E00E9468
:1033A0005F320E94570908950E9474190895682F8A
:1033B0008EE090E00E944D3208950E944A29609369
:1033C0004C0370934D0380934E0390934F0360938F
:1033D00048037093490380934A0390934B030895E5
:1033E000089508950E94F119089508950E94F5190D
:1033F000089583E89CE10E9463270E94F0190E94CF
:10340000F219089581E008950E94021A089508951E
:1034100008950E94071A0E94081A08950E94861CA7
:103420000E940E0F0E94322008950E9435290E94AA
:10343000B31C0E940E1A0E94F6190895AAE0B0E08B
:10344000E4E2FAE10C94D1300E94C51CC82E81112F
:103450000E94DD198AE3A82E83E0B82E10E000E078
:10346000902E802F0E94AC1CE82EF501F1905F0198
:10347000F816B9F18091500381FD0E94B21C8F2D86
:103480008E25D12CFF24F394982F9F2129F10E949F
:10349000041A882399F0DE829F82EF2081E009F4EC
:1034A00080E088870E943E298160782F9A878987EB
:1034B0004E815F8168858A850E942C0FF801E65C49
:1034C000FC4F8081F826F08281E0C11001C080E0CD
:1034D0002A96EBE00C94ED30D394FF0CF6E0DF126B
:1034E000D3CF0F5F1F4F0E30110509F0B9CF8FEF0B
:1034F00089838A831B820E943E298160782F9D8365
:103500008C8349815A816B818D810E942C0FDCCF85
:103510000E941E1A0E94CB230E940C1F0E94210FA2
:103520000895CF93DF930E94A91BEC01811521E53B
:10353000920708F042C0811530E5930708F09DC05E
:10354000883E910530F5803E910508F092C0883A9A
:10355000910588F4853A910508F084C08130910581
:1035600009F487C0009709F484C0049708F081C06B
:10357000D0E0C0E07EC08F3B9105D0F7C85AD0E0C4
:10358000CC0FDD1FCC5DDD4F0990D881C02DD464F8
:1035900070C08115904250F4C11581E0D80708F041
:1035A00068C0CD3ED10520F3D06563C0C11590E45D
:1035B000D907F0F2DF70D06A5CC0811525E592076B
:1035C00000F5811534E5930708F08BC0811543E5BC
:1035D000940708F073C0C11582E5D80708F469C0E4
:1035E000CE018370992721E030E002C0220F331F03
:1035F0008A95E2F7C695C69580E2C89FE00111243E
:1036000054C0C11599E5D907A8F4C11528E5D2071A
:1036100008F06CC0C11536E5D30708F0A9CF8C2F90
:103620000E94401CC82FD0E0DC2FCC27CC27DF71B4
:10363000D0621FC0C1154AE5D40708F45CC0CE01B2
:1036400090568115904208F093CF8D2F8F710E9474
:10365000401C90E0982F882788279F719C012C2B75
:10366000E901E6CFC55AD0E0CE5ADD4FC881D0E09F
:10367000D064CE01DF91CF910895E4E096958795CF
:10368000EA95E1F783702C2F26952695237040E26A
:10369000249F90011124382B8C2F8370C1E0D0E03F
:1036A00002C0CC0FDD1F8A95E2F7C22BD32BDC685A
:1036B000E0CFDC2FCC27C16FD06ADBCF8370992796
:1036C00021E030E002C0220F331F8A95E2F7C69551
:1036D000C69590E2C99FE0011124C22BD32BDA6872
:1036E000C8CFD82FCC27C46FD06AC3CFDC2FCC274C
:1036F000C06FD06ABECF8C2F8F700E94401C34E008
:10370000D695C7953A95E1F7CF709C2FEC01D0691B
:10371000B0CF972F7E30A8F4663098F470E026E0A2
:10372000929F600D711D1124FB0194E5899FE00DAE
:10373000F11D1124EE0FFF1FE258FA4F859194916D
:10374000089580E090E008950E94891B0E94911ADC
:10375000089582389105B1F1B0F48133910509F4EF
:1037600075C048F48932910509F469C08A3291051F
:1037700009F473C008958533910509F459C089335C
:10378000910501F10895833E9105A9F138F4803E39
:103790009105F9F0823E910549F10895863E910523
:1037A000A9F1873E9105C9F1843E910519F5209153
:1037B0000B0421FF1FC080910A0484FD14C087EE12
:1037C00090E0089520910A042370A1F080EE90E02B
:1037D000089520910A0420FD47C030910B0430FF6A
:1037E00009C024FF44C090E080E004C020910A0496
:1037F00022FDF7CF089520910A0422FD3BC03091AD
:103800000B0430FDE3CF24FFF5CFEDCF20910A0468
:1038100023FFF0CF24FDE7CFD2CF20910A0423FD70
:103820002CC030910B0431FFEECF84EE90E0089570
:1038300020910A0425FFDECF89E290E008952091CF
:103840000A0425FFD7CF85E390E0089520910A046C
:1038500026FFD0CF8AE290E0089520910A0426FF47
:10386000C9CF81E390E0089589E390E0089583EE65
:1038700090E0089582EE90E0089586EE90E008953D
:1038800090910A0492FF06C0282F28712830F9F47D
:10389000877F846093FF06C0282F28712831F1F4B8
:1038A000877E846120910B0420FF06C0382F387179
:1038B0003830D9F4877F816021FF06C0282F287116
:1038C0002831D1F4877E816194FD877E0895282F69
:1038D00024712430F9F68B7F8860DCCF282F247187
:1038E000243101F78B7E8861DDCF382F3171313083
:1038F00019F78E7F8860E0CF282F2171213121F7C1
:103900008E7E8861E1CF80E0089508950E942A1993
:10391000811102C00E94D4190E943519809350036E
:103920000E943F1990930B0480930A040E94851C07
:103930000E943A19682F70E090E080E00E945513D1
:103940006091A4027091A5028091A6029091A702B5
:103950000E94911308950895E82FF0E0E65EFB4F72
:103960008081089508950E94D607ECE0F4E0AAE172
:10397000B4E011921D9284E0EA31F807D1F78EE0AD
:103980000E94D81C0E94620D0895CF938CE094E0B1
:103990000E94E207C82F282F4EE06AE174E08CE015
:1039A00094E00E94EB1C0E94650D8C2FCF9108952E
:1039B000CF93C82F90E00E940131809354039093DD
:1039C0005503282FFC018E2F821B8C1710F0CF91EE
:1039D00008951192F8CFB0E0A0E0E1EFFCE10C9483
:1039E000D530082FF92EE62ED72E142FC22FD091C6
:1039F0005103DD2309F448C00E943E29209152035F
:103A000030915303AC01421B530B9A019093530323
:103A1000809352034F3F510509F0C8F4452B99F0AC
:103A2000109251031092560340915403E42FF091E9
:103A3000550390E030E08E2F841B811758F03093AF
:103A4000510390935603C1112DC0CD2F1FC02FEFEE
:103A500030E0E6CF8081882321F0281720F0108203
:103A60009D2F3196E8CF821B80833D2FFACF29917D
:103A70004C91421731F04081411103C030832C93A7
:103A800081E0319611961AC0211106C0809156032B
:103A90008823D1F0C11106C00E943E2990935303A0
:103AA000809352039091540380915103AE2DBD2D0C
:103AB000C02FDF2DE92FF09155033EE12E2F291B5A
:103AC0002117A8F280935103CDB7DEB7E7E00C943D
:103AD000F1300E94782B0E94151A0E94852B0895C0
:103AE0000E948A2B0E94881A0E94A42B08950E948B
:103AF000D7280E945E2B0E94F9190E94691D0E941E
:103B0000701D0E94091AFBCF80915E0380FF0DC0DB
:103B10006091E10170E0660F771F6038710570F504
:103B20006115710569F1862F089581FF07C06091C5
:103B3000E10184E0689FB0011124EFCF6091E101C1
:103B400082FD0AC080915D038823A9F02091E001E5
:103B50006091E101821710F088E0ECCF869FC001F0
:103B6000112433E0880F991F3A95E1F7622F70E036
:103B70000E94B030D2CF68E070E0D5CF8FE70895D3
:103B800081E0089580915E0380FF0CC06091DD01AB
:103B900070E075956795759567956115710549F1A3
:103BA000862F089581FF06C06091DD0170E0759554
:103BB0006795F3CF6091DD0182FD0BC090915C03AE
:103BC0009923A1F06091DC018091DD01961738F016
:103BD000682F70E06038710500F38FE70895899FC2
:103BE000C001112470E00E94B030F4CF61E070E0B9
:103BF000D7CF81E008958D3E31F40E94841D8195D8
:103C00008093610308958E3E19F40E94841DF8CFBD
:103C10008F3E31F40E94841D819580936003089546
:103C2000803F19F40E94841DF8CF893F29F40E9437
:103C3000C21D8093620308958A3F21F40E94C21D31
:103C40008195F7CF8B3F31F40E94C21D81958093FF
:103C5000630308958C3F19F40E94C21DF8CF9FE0C2
:103C6000980F983070F4815F990B21E030E001C02B
:103C7000220F8A95EAF780915F03822B80935F037E
:103C800008958D3F31F480915E03816080935E03DF
:103C900008958E3F21F480915E038260F7CF8F3FBD
:103CA000B9F780915E038460F1CF409160038D3E4F
:103CB00059F48091610387FF0DC010926103411197
:103CC0000BC010925D0308C08E3E81F480916103A9
:103CD00018169CF3442381F0809162039091630352
:103CE000892B09F05AC010925C0308958F3E49F465
:103CF00047FFF0CF10926003809161038111ECCFF8
:103D0000E0CF803F19F41416ACF3E4CF9091620336
:103D1000893F29F41916F4F610926203DBCF8A3F2B
:103D200019F497FFD7CFF8CF909163038B3F29F415
:103D300097FFD0CF10926303CDCF8C3F19F41916A3
:103D4000CCF3C8CF9FE0980F983090F4815F990B27
:103D500021E030E0B90102C0660F771F8A95E2F7D3
:103D6000CB01809590915F03892380935F03B2CF4D
:103D70008D3F31F480915E038E7F80935E03AACFE6
:103D80008E3F21F480915E038D7FF7CF8F3F09F046
:103D9000A1CF80915E038B7FF0CF08950E943E29D2
:103DA0009C019091600380916103982B21F03093E6
:103DB0005B0320935A039091620380916303982BD5
:103DC00021F030935903209358038FE593E00E942C
:103DD0009727089585E0EFE5F3E0DF011D928A95CE
:103DE000E9F710925D0310925C0310925E03089550
:103DF000FC01818181110EC0828181110BC0838100
:103E0000811108C091E08481811101C090E0892F67
:103E10008170089581E0FCCFA5E0B0E0E2E1FFE130
:103E20000C94D93085E0EFE5F3E0DE0111960190C6
:103E30000D928A95E1F7109260031092610310923F
:103E40006203109263038A819B81892B89F08091A0
:103E50005A0390915B030E945629AC0190915D0337
:103E60009923C9F18091E2018417150608F440C036
:103E70008C819D81892B91F08091580390915903F9
:103E80000E945629AC0190915C03992309F471C0FA
:103E90008091DE018417150608F479C0BE016F5FBA
:103EA0007F4F8FE593E00E949028811105C08FE538
:103EB00093E00E94F81E81110E94CE1E85E0FE0153
:103EC0003196AFE5B3E001900D928A95E1F7259622
:103ED000E3E00C94F530209157038AE0289F90018D
:103EE00011242417350720F69F5F90935D0302C0CD
:103EF0009F3FD1F71A81112359F00E94841D9FEF33
:103F000011160CF491E0899F802D11248093600399
:103F10001B81112359F00E94841D9FEF11160CF490
:103F200091E0899F802D112480936103309160037B
:103F3000332309F49DCF20916103222309F498CF04
:103F400045EB3403C0011124992359F09093600389
:103F500045EB240390011124332339F0309361039E
:103F600087CF81E080936003F3CF81E0809361038A
:103F70007FCF2091DF018AE0289F90011124241730
:103F8000350708F08BCF9F5F90935C0302C09F3F83
:103F9000D1F71C81112359F00E94C21D9FEF111609
:103FA0000CF491E0899F802D1124809362031D8180
:103FB000112359F00E94C21D9FEF11160CF491E0DD
:103FC000899F802D112480936303309162033323F2
:103FD00009F464CF20916303222309F45FCF45EBFA
:103FE0003403C0011124992359F09093620345EBE7
:103FF000240390011124332339F0309363034ECF0F
:1040000081E080936203F3CF81E08093630346CF26
:10401000CF93DF93EC0197FF0CC0FB0182818823D3
:1040200041F00E945A20CE019F770E94D4200E9426
:10403000AB2081E0DF91CF910895909129049230D7
:1040400071F48A3050F490E009966AE070E00E94C2
:10405000B030875A0E946D1008958650FBCF0E94A1
:10406000AE0E08958CE090E00E943932482F50E067
:1040700070E060E04093290450932A0460932B047D
:1040800070932C0410926403843009F4089584E042
:10409000809329040895609129048CE090E00E94A7
:1040A0004D3208951092640384E0809329040E94A5
:1040B0004B2008950E947A278695817080932E0464
:1040C0000E947A278170809328048091290481308E
:1040D00039F480912E04882319F089E30E946D1031
:1040E0000E94401880932D040E9453180E94631868
:1040F00080912904813089F0882359F0823091F031
:10410000843021F18FE39CE90197F1F700C00000B2
:10411000089582EE0E946B0FF5CF88E193E00E9434
:10412000F00CF0CF80912804811103C083E50E9438
:104130006D1082EE0E946B0F8FE39CE90197F1F7FF
:1041400000C0000087E50E946D10DCCF86EE0E9463
:104150006D1088E1F8CF80912904813079F08823AF
:1041600049F08230B1F08430E9F080912D040E9452
:104170005018089582EE0E94FC0FF7CF8CE20E9447
:104180006D1080912E04882381F389E30E946D10C5
:10419000ECCF82EE0E94FC0F809128048111E5CFC4
:1041A00083E5F4CF88E2F2CF0F931F93CF93DF9391
:1041B0008C01CCE0D0E0C8010C2E02C0969587950A
:1041C0000A94E2F78F700E941D202497CC3F8FEF56
:1041D000D80789F7DF91CF911F910F9108950F9321
:1041E0001F93CF93DF93EC018B01FB018281882326
:1041F00061F00E9440188272C13EFCE5DF07E9F0E1
:1042000068F4C03EECE5DE07A1F0B801CE010E94E3
:104210000820DF91CF911F910F910895C73EFCE5D3
:10422000DF0798F78C2F825E809329040E944B2031
:10423000ECCF811104C081E003C08111FCCF8FEF6E
:104240000E945220E2CFCF93DF93EC01FB018281E9
:10425000882309F433C1C430FDE5DF07C0F5CB3F47
:104260009CE5D90730F49E0122503C4524313105AC
:10427000B0F50E943F1990930B0480930A04C1315A
:104280008CE5D80709F4EEC008F069C0C930ECE548
:10429000DE0709F4D5C0C8F5C5308CE5D80709F4A8
:1042A000C7C000F5C330ECE5DE0709F4B9C008F07B
:1042B000BBC0C230DC4509F4ADC080910A049091C6
:1042C0000B040E944D190E94001380E008C0C23602
:1042D000EDE5DE0771F2C63AFDE5DF0751F2DF9149
:1042E000CF91089580910A048062C7309CE5D90778
:1042F00009F493C080910A048061C830DC4508F459
:104300008CC080910A04806488C080910A048B7FED
:10431000CD30FCE5DF0709F480C098F480910A04F1
:104320008E7FCB309CE5D90709F477C080910A04D1
:104330008C60CC30DC4508F470C080910A048D7F1D
:104340006CC080910A048F7ECF30FCE5DF0709F452
:1043500064C008F47BC080910A048F7D5EC0CE3FAC
:104360009CE5D90709F47AC050F5C531FCE5DF07B3
:1043700009F486C098F480910A04837FC3319CE5D8
:10438000D90709F44AC008F471C00E940013909143
:104390000A04892F97FB87F980583FC0CC3FFCE582
:1043A000DF0709F449C008F055C080910B04816013
:1043B000CB3FDC4509F081CF80930B047ECFC23028
:1043C000EDE5DE0709F468C0A8F4C1158DE5D8074E
:1043D00009F452C080910B048360C130DD4560F365
:1043E00080910B04982F909591708E7F892B90FB74
:1043F00081F9E2CFC236EDE5DE0709F451C0C63AD5
:10440000FDE5DF0709F453C0C330DD4509F055CFA2
:1044100080E043C080910A04816080930A044DCFFC
:1044200080910A048260F9CF80910A048460F5CFFC
:1044300080910A048860F1CF80910B048260BCCF28
:104440000E94001380910A048068E7CF80910A04DB
:10445000877FE3CF80910B048E7FAECF80910B04DA
:104460008D7FAACF80910A048F7BD7CF0E94001343
:1044700080910A048F77D1CF80910B048C7F9CCFE1
:1044800080910A0482FB992790F921E0922790FB02
:1044900082F990FB83F9C1CF81E00E94D7190DCF3B
:1044A00090910A04892F8F7E94FF8061B6CF9091FE
:1044B0000A04892F8E7F90FF8160AFCF81E00FCFFC
:1044C00008950F931F93CF93DF938091D003E091D2
:1044D00065031CE081111AC0DF91CF911F910F91EC
:1044E000089501E00E0F00936503CE2FD0E0E19F09
:1044F000F0011124E059FC4F83819481892B29F02C
:104500008081918189238F3FF9F4E02F8091D0033E
:10451000E81738F31092D00310926503DDCF189698
:104520008D919C918F3F9807E1F061E00E9460229D
:104530001C9FF0011D9FF00D1124E059FC4F1482C7
:1045400013820E946318E1CF1C9FD0011D9FB00D04
:104550001124A059BC4F16968D919C911797892BC9
:10456000F1F220813181428153816481758186819C
:1045700097810E948117DCCF1092D2031092D10351
:104580002091E4013091E501E8E0F1E090E080E085
:104590002817390709F408954581411102C0148292
:1045A000168201963796F4CFDC0160916E038091FC
:1045B0006F03962F891301C00895292F30E0F90168
:1045C000EE0FFF1FEA59FC4F408151814A175B07EC
:1045D000A1F487E08A9FA0018B9F500D1124485FB2
:1045E0005E4F81E0FA0184839613E6CF2F5F3F4F41
:1045F0002370332720936E0308952F5F3F4F922F30
:104600009370D8CFB0E0A0E0E8E0F3E20C94CF30B4
:10461000EB012C81211152C07090D003A0E7B3E0D0
:1046200030E020E0812C61E070E0271508F044C004
:104630001A96CD90DC901B97A880B9804FEF5FEF62
:10464000912CE92CF12CF701EE0FFF1FEA0DFB1D59
:1046500005911491C016D10609F4A70101151105A1
:1046600011F09394EECF4F3F540789F1FB0102C044
:10467000EE0FFF1F4A95E2F78E2AAB01092C02C00C
:10468000440F551F0A94E2F741505109841615064C
:10469000D1F44A815B816CE0629FF001639FF00D71
:1046A0001124E059FC4F578346832EEF208321834A
:1046B0009187808721E02D830E94D422CDB7DEB779
:1046C000EDE00C94EB3014961C921E9213972F5F22
:1046D0003F4F1C96AACF1F93CF93DF93C0916E03D9
:1046E00017E080916F038C1308C00E9461220E9422
:1046F000BC22DF91CF911F910895D0E0FE01EE0F13
:10470000FF1FEA59FC4F80819181189FB001199FCA
:10471000700D1124685F7E4F0E9402232196C370A2
:10472000E0CFEF92FF921F93CF93DF93FC012081A4
:10473000318110E040E050E0E52FF0E0EE0FFF1F88
:10474000E20FF31FA591B4911097B9F0FB01C0815E
:10475000D18140E005C0AE15BF0509F411E04F5FFF
:10476000E42FF0E0EE0FFF1FEC0FFD1FE590F4903B
:10477000E114F10481F75F5FDFCF112349F04517A2
:1047800008F4CB01DF91CF911F91FF90EF90089536
:1047900090E080E0F7CF8091E301882341F18091A0
:1047A000D3039091D403009711F10E9456292091D0
:1047B000D1033091D20328173907C8F490916E03C2
:1047C00080916F03981759F00E946B231092D203C7
:1047D0001092D1031092D4031092D30308950E9433
:1047E00061221092D4031092D3030E94BC22089538
:1047F0001092D4031092D3031092E30180916F03BF
:1048000080936E030E94BC220E94612208958091D1
:10481000E301882319F00E94F823089581E0809332
:10482000E3010895A9E0B0E0E8E1F4E20C94CA30B5
:104830006C013B01FB011281883FFCE59F0751F4AD
:10484000112379F081E08093E301812F2996E2E141
:104850000C94E630893F2CE5920709F04DC0111108
:1048600048C008E011E0F12CE12C198688248394DB
:10487000912C8091E4019091E501E816F90608F485
:1048800045C0F3018281882309F460C1F985FF23C3
:1048900009F45CC10E943E299093D4038093D30312
:1048A0008091D003883008F591E0980F9093D00361
:1048B00098E0F301DE01119601900D929A95E1F7CF
:1048C0002CE0829FC001112480599C4F28E0FE01FA
:1048D0003196DC0101900D922A95E1F72FEF3FEF21
:1048E000FC0131872087D386C28611E0F9851F2716
:1048F000ACCF0E94F823A9CF8A3F9C4509F0B1CFE5
:10490000112309F4AECF0E9407249FCFF8016081E4
:104910007181AA24AA94BA2C20E0422F50E0FA0117
:10492000EE0FFF1FE60FF71F85919491C816D90669
:1049300009F45A01892B11F02F5FEFCF312CFFEFD3
:10494000AF16BF0609F445C0F80144813090E30179
:10495000832D411180E0F82FF1703F2EF801558032
:104960008681F3019281992309F48EC0332009F4E2
:104970008BC0511015C0A4010A2C01C0440F0A9429
:10498000EAF7842BF80186838091D1039091D203BA
:10499000C29730F462E370E07093D2036093D10366
:1049A000C40102C0880F991F2A95E2F70197F80108
:1049B00026812817190669F48091D3039091D403B6
:1049C000009781F00E945629C39760F021E0F8011A
:1049D0002483F985F329F9872FEFE21AF20A095F98
:1049E0001F4F47CF20906E0390E080E020916F032F
:1049F000221215C08017910761F3A22CB12CF5018A
:104A0000EE0FFF1FEA59FC4FF182E0826FEFA61A0A
:104A1000B60A73E0A722BB24A0926F03DACFA22CC0
:104A2000B12CF501EE0FFF1FEA59FC4F20813181B7
:104A300047E0429FC001439F900D1124BC01685F75
:104A40007E4F2B01B801C2010E9491230097A9F06B
:104A500021E0FC0124838017910709F4BACF20914B
:104A60006E0322120AC04816590639F495012F5FC9
:104A70003F4F2370332720936E033FEFA31AB30AEF
:104A80004A2D4370242EB2CF90E0511020C0F40183
:104A900002C0EE0FFF1F2A95E2F79F012150310956
:104AA0002817390731F4442309F44EC0C7010E9486
:104AB000D422C4010A2C01C0880F0A94EAF7982F67
:104AC0009095F801868189238683352C82CF9C01BD
:104AD0000A2C02C0359527950A94E2F7A901417086
:104AE0005527BC016150710986239723892B41F515
:104AF000452B31F1F80182819381892BE1F01B82F2
:104B00001C821D821E82FEEFF983FA830E943E29D9
:104B10008160582F9D838C83F801828193818F83DC
:104B2000988729813A814B816D817E810E9481170E
:104B3000F8011582BECF60E0C7010E946022F8CF65
:104B4000F22FF1705F2EB5CF532CB3CF90916E033F
:104B500080916F03981719F00E946B23C6CE0E94B4
:104B600061221092D4031092D3030E94BC22BDCEC6
:104B7000CF93DF93EB0186319C4511F50E944018DD
:104B80009A81992399F08A7A91E009F490E09093C0
:104B9000D503811109C089E20E9418180E94841867
:104BA00080E0DF91CF91089585E3F6CF8091D50322
:104BB000811104C089E20E942018F0CF85E3FBCF69
:104BC00081E0EFCF0F931F93CF93DF93C42FD22FAA
:104BD000FC0182818823C9F04093D8030E943E29BA
:104BE0009093D7038093D60380E28C0F883040F4F3
:104BF000C77081E001C0880FCA95EAF70E9476105D
:104C0000DF91CF911F910F9108951091D803141344
:104C100032C08091D6039091D7030E945629883CD8
:104C2000910548F5C0E2CD0F1D17B9F080E2810F64
:104C3000883040F4177081E001C0880F1A95EAF7B8
:104C40000E947D10C83048F481E09D2F977001C00C
:104C5000880F9A95EAF70E947610802F0E946D10B7
:104C6000C83070F6D77081E001C0880FDA95EAF796
:104C70000E947D10C5CF80E28C0F883008F6C77087
:104C800081E001C0880FCA95EAF7F2CF0F939C012B
:104C9000CB01243F4CE5340759F1A8F4293DFCE54C
:104CA0003F0701F12A3D4CE53407D1F1283D3C4551
:104CB00091F406E221EE41EE68ED7CE50E94E225EA
:104CC00080E00F910895263FFCE53F07E9F0B0F042
:104CD000273F3C45F9F0FC018281882339F110928D
:104CE000D803EFCF07E225EE45EE69ED7CE5E6CF90
:104CF00006E221EE40EE64EF7CE5E0CF07E225EE30
:104D000044EE65EF7CE5DACF06E221EE42EE66EF97
:104D10007CE5D4CF07E225EE46EE67EF7CE5CECF0B
:104D200008E221E045EE6AED7CE5C8CF81E0C9CF1D
:104D30001092B9008CE08093B8000895B0E0A0E034
:104D4000E4EAF6E20C94D130B82EEB010E943E2941
:104D50006C01EE24E394F12CC431D10560F025E020
:104D6000E22EF12CCF3FDC0731F0CE0164E170E0A0
:104D70000E949C307B0184EAA82E94E8992E109220
:104D8000BC00A092BC000E943E298C018091BC0016
:104D900087FF0DC08091B900887F883001F1809134
:104DA000B900887F8031D9F00FEF1FEF09C00E9452
:104DB0003E29801B910B8E159F0540F30EEF1FEFD0
:104DC000CF3FDC07E1F2C6010E9456298C179D07F0
:104DD000B0F2C801CDB7DEB7EBE00C94ED30B09285
:104DE000BB009092BC000E943E298C018091BC00C7
:104DF00087FF0AC08091B900887F883111F0803424
:104E000099F610E000E0E5CF0E943E29801B910B4F
:104E10008E159F0558F3D2CF0F931F93CF93DF9337
:104E2000EB018093BB0084E88093BC000E943E2984
:104E30008C018091BC0087FF11C02091B900287FB0
:104E400081E090E0283211F490E080E09195819526
:104E50009109DF91CF911F910F910895CF3FDC070A
:104E600041F30E943E29801B910B8C179D0708F38C
:104E70008EEF9FEFEECF0F931F93CF93DF93EC0155
:104E800084E88093BC000E943E298C018091BC0084
:104E900087FF08C08091BB0090E0DF91CF911F9108
:104EA0000F910895CF3FDC0789F30E943E29801BB4
:104EB000910B8C179D0750F38EEF9FEFEECF84E997
:104EC0008093BC00089590936502809364020895D6
:104ED0009093DE038093DD030895E091DD03F0916C
:104EE000DE03309729F00190F081E02D09950895B7
:104EF00080E008950E946D270895E091DD03F09110
:104F0000DE03309799F02091F201222359F020918D
:104F10000A0427FF07C0DC012C9111962C931197EE
:104F200026E02C930280F381E02D09950895E0910D
:104F3000DD03F091DE03309721F00480F581E02D50
:104F4000099508952091DB033091DC032817390778
:104F500071F09093DC038093DB03E091DD03F0912B
:104F6000DE03309721F00680F781E02D0995089542
:104F70002091D9033091DA032817390771F0909303
:104F8000DA038093D903E091DD03F091DE033097DB
:104F900021F00084F185E02D09950895FC013296F9
:104FA0008091F201882321F080910A049EE187FF1D
:104FB00096E080E0915008F4089521912223D1F3E6
:104FC0008F5FF8CF662301F12091F2012223F1F0E7
:104FD00020910A0427FF1AC0462F4695469546950C
:104FE0004E3190F4677021E030E002C0220F331F91
:104FF0006A95E2F7840F911DFC01828190E02823DD
:10500000392381E0232B69F480E00895FC01329676
:1050100008962191261721F0E817F907D1F7F4CF68
:1050200081E008959C01FC0132969FEF80E0419160
:10503000461751F09F3F19F4411101C0982F8F5F1F
:105040008630A9F79F3F09F40895290F311D97FD78
:105050003A95F90162830895FC01329608962191F0
:10506000261303C0DF0111971C92E817F907B9F75F
:105070000895E62FE695E695E695EE3168F4E80F9B
:10508000F92FF11D677021E030E001C0220F6A9511
:10509000EAF78281822B82830895E62FE695E695D2
:1050A000E695EE3170F4E80FF92FF11D677021E0FD
:1050B00030E001C0220F6A95EAF72095828128230B
:1050C000228308952091F201222339F020910A04CD
:1050D00027FF03C00E94392808950E9412280895CE
:1050E0002091F201222339F020910A0427FF03C006
:1050F0000E944D2808950E942C280895FC013296A4
:105100008091F201882351F080910A0487FF06C044
:105110008EE1DF011D928A95E9F7089586E0F9CFC7
:1051200045E050E00E942C3221E0892B09F420E078
:10513000822F089508950E949A280895811106C02B
:1051400081E08093DF030E949B28089582E0F9CFDD
:1051500083E08093DF030E949B2808950E949E288D
:10516000089581E08093DF030E949B2808950E94A8
:10517000B1280895089508950E94BB2808950895C0
:105180000E94BA280895CF930E9434080E94C51C3B
:105190000E94BF28C0E08C2F0E94AC1C811105C06A
:1051A000CF5FCE30C1F7CF91089581E0FCCF85B7B6
:1051B000806885BF85B7806885BF08951F921FB638
:1051C0001F9211248F939F93AF93BF938091E0031D
:1051D000811113C080912F0490913004A09131046B
:1051E000B09132044196A11DB11D80932F0490937C
:1051F0003004A0933104B0933204BF91AF919F91DA
:105200008F911F901FBE1F90189580913704843096
:1052100031F10E94DB0D1092E00388E190E020E480
:105220000FB6F894A895809360000FBE209360009D
:1052300083B7817F846083BF83B7816083BF7894A5
:10524000889583B78E7F83BF0FB6F894A895809119
:105250006000886180936000109260000FBE089526
:105260000E9400130E94E00D089582E084BD93E047
:1052700095BD9AEF97BD80936E0008952FB7F8946F
:1052800080912F0490913004A0913104B0913204A8
:105290002FBF08952FB7F89460912F0470913004B8
:1052A00080913104909132042FBF08959C014FB733
:1052B000F89480912F0490913004A0913104B09122
:1052C00032044FBF821B930B089578941F921FB630
:1052D0001F9211248F939F93AF93BF9380912F04BC
:1052E00090913004A0913104B09132040196A11D37
:1052F000B11D80932F0490933004A0933104B09398
:105300003204BF91AF919F918F911F901FBE1F904C
:105310001895F89481E08093E00080E28093D800B3
:10532000E9ECF0E010828FE19EE40197F1F700C014
:1053300000001DBA109268001CBC10BE1FBA10926B
:105340007A0010926E0010926F001092710010920D
:1053500072001082ECEBF0E0108214B817B81AB8A3
:105360001DB810BA108215B818B81BB81EB811BAFB
:105370000C94003F089588E19AE00FB6F894A89540
:10538000809360000FBE90936000FFCF8091040473
:10539000089508959C0182E08093E9009FEF809139
:1053A000E800915085FD06C085ED8A95F1F7000073
:1053B0009111F5CF8091E80085FF0CC050E040E0EE
:1053C00065E070E0C9010E94152C8091E8008E779D
:1053D0008093E8000895CF93DF93EC018091F20170
:1053E0008823B1F180910A0487FF32C060E283E034
:1053F0008093E9008FEF9091E800815095FD06C001
:1054000095ED9A95F1F700008111F5CF8091E800B4
:1054100085FF1BC08091F20170E050E040E08111F7
:1054200004C050E040E068E070E0CE010E94152C1E
:105430008091E8008E778093E80080E2FE01A4EE80
:10544000B3E001900D928A95E1F7DF91CF91089535
:1054500068E081E0CDCF8093E1037093E303609334
:10546000E20380913704843001F583E08093E90002
:105470008FEF9091E800815095FD06C095ED9A95CB
:10548000F1F700008111F5CF8091E80085FF0DC094
:1054900050E040E063E070E081EE93E00E94152C64
:1054A0008091E8008E778093E8000895BC0184E045
:1054B0000E942B2A0895BC0183E00E942B2A0895A4
:1054C00080913604811109C00E94A52D0E94022EF0
:1054D0008091E20084608093E20008951092360487
:1054E00008950E94B12808956091330481E061110C
:1054F00001C080E00E94A82808959091370481E0BF
:10550000943009F080E0609133040E94AE28089541
:1055100042E061EC81E00E94212D42E061EC82E0FA
:105520000E94212D42E261EC83E00E94212D9091A6
:10553000370481E0943009F080E0609133040E94E8
:105540009E28089580913904833009F463C030F4B3
:105550008130E1F1823009F4A0C008958A3009F465
:105560008CC08B3009F471C0893009F052C0809131
:105570003804813209F04DC080913C0490913D0483
:10558000009719F0029709F044C08091E800877FE6
:105590008093E8008091E80082FF37C09091F3008B
:1055A0008091F200029731F48091F100813011F086
:1055B000863021F48091F100809304048091E8000A
:1055C0008B778093E8000E94552D23C0809138048A
:1055D000813AF9F48091E800877F8093E800809118
:1055E0003C0490913D04892B61F460E284EE93E0E9
:1055F00070E00E94642C8091E8008B778093E80033
:10560000089560E090E080E0F3CF8091370481114D
:10561000C1CF089580913804813AD9F780913C0434
:1056200090913D04892BA9F78091E800877F8093B2
:10563000E8008091E80080FFFCCF8091F201809328
:10564000F1008091E8008E77BCCF809138048132E0
:1056500001F780913C0490913D04892BD1F6809113
:10566000E800877F8093E8000E94552D80913A04DE
:105670008093F2010E9400130895809138048132D2
:1056800041F68091E800877F8093E8000E94552DC5
:1056900080913B0480930504089580913804813AF9
:1056A00009F0B7CF8091E800877F8093E800809170
:1056B000E80080FFFCCF80910504C1CF84B7877FCD
:1056C00084BF0FB6F894A89580916000886180939C
:1056D0006000109260000FBE80E890E00FB6F89472
:1056E00080936100909361000FBE0E94B7280895D7
:1056F0000E94A52D0E94022EE2EEF0E080818460DF
:10570000808378940E948130089586EE91E00E9413
:105710006827089580913704853031F480913704EB
:10572000853019F00E94302908950E940529809142
:105730003504882399F30E94C328882379F30E94B3
:10574000FF2B0E940013EACF08950E94A82B089512
:10575000292F33272330310521F168F42130310519
:1057600009F443C02230310509F444C090E080E0E0
:1057700030E020E026C02132310551F122323105DE
:10578000A9F76330710590F7FB01EE0FFF1FE85A90
:10579000FD4F208131816B5A7D4FFB01808190E06C
:1057A00010C099278130910581F0009729F0029768
:1057B000E9F6E8E6FCE002C0E2ECFCE0849190E06F
:1057C0009F01FA01318320830895E6EAFCE0F6CFD9
:1057D0006330710558F6660F771FFB01E25AFD4FE3
:1057E0002081318189E090E0ECCF82E190E02AE1F4
:1057F0003DE0E7CF84E590E026EC3CE0E2CF80E1BD
:1058000089BD82E189BD09B400FEFDCF8091D80039
:105810008F7D8093D8008091E00082608093E000CB
:105820008091E00081FDFCCF0895AF92BF92CF92AE
:10583000DF92FF920F931F93CF93DF936C01EB01E5
:105840008A010E94742DF82E811123C001151105C3
:1058500039F0F80180819181C81BD90BC80ED91E7F
:10586000B12CA12C2097A9F08091E80085FD22C0E1
:105870008091E8008E778093E80001151105A1F072
:10588000F80180819181A80EB91EB182A08285E0C5
:10589000F82E8F2DDF91CF911F910F91FF90DF9008
:1058A000CF90BF90AF9008950E94742D8823D1F2BD
:1058B000F82EEFCFF60181916F018093F1002197CF
:1058C000FFEFAF1ABF0ACECFFC0180913E0490914A
:1058D0003F0486179707A0F06115710529F4909190
:1058E000E8009E779093E80090E06115710551F40F
:1058F000911108C08091E80082FF34C080E00895D3
:10590000BC01F2CF809137048823C1F18530C1F109
:105910008091E80083FD30C08091E80082FDEACFED
:105920008091E80080FFE1CF8091F3002091F200A8
:10593000382F6115710519F02830310558F091E0C4
:105940002830310509F090E02091E8002E7720936F
:10595000E800CBCF81918093F100615071092F5FF6
:105960003F4FE7CF80913704882341F0853041F0E5
:105970008091E80083FFBECF81E0089582E0089522
:1059800083E00895FC0180913E0490913F048617C6
:105990009707A0F06115710529F48091E8008E77D2
:1059A0008093E80090E06115710551F4911108C0F1
:1059B0008091E80082FF35C080E00895BC01F2CFFD
:1059C000809137048823C9F18530C9F18091E800BE
:1059D00083FD31C08091E80082FDEACF8091E8002C
:1059E00080FFE1CF8091F3002091F200382F611504
:1059F000710519F02830310558F091E02830310553
:105A000009F090E08091E8008E778093E800CBCF9A
:105A100084918093F1003196615071092F5F3F4F5F
:105A2000E6CF80913704882341F0853041F08091A2
:105A3000E80083FFBDCF81E0089582E0089583E010
:105A40000895982F973028F08F708093E90081E0B7
:105A500008959093E900242F762F50E0981731F0A5
:105A60007091EC002091ED005091F00021FD02C0FA
:105A70009F5FE8CF3091EB003E7F3093EB00309199
:105A8000ED003D7F3093ED003091EB0031603093BD
:105A9000EB007093EC002093ED005093F000209108
:105AA000EE0027FDE5CF80E008958091380487FF60
:105AB00013C08091E80082FF06C08091E8008B77D8
:105AC0008093E80004C0809137048111F2CF0895DB
:105AD000809137048823D9F38091E80080FFF8CFC4
