:100000000C942E060C944B060C944B060C944B0649
:100010000C944B060C944B060C944B060C944B061C
:100020000C944B060C944B060C94C92C0C949D2DEF
:100030000C94D4270C944B060C944B060C944B0652
:100040000C944B060C944B060C944B060C944B06EC
:100050000C944B060C942B280C944B060C944B06DA
:100060000C944B060C944B060C944B060C944B06CC
:100070000C944B060C944B060C944B060C944B06BC
:100080000C944B060C944B060C944B060C944B06AC
:100090000C944B060C944B060C944B060C944B069C
:1000A0000C944B060C944B060C944B06000D010D62
:1000B000020D030D040D050D000C010C020C030CC8
:1000C000040C050C000B010B020B030B040B050BBE
:1000D000000A010A020A030A040A050A00090109C2
:1000E00002090309040905090008010802080308B8
:1000F00004080508000701070207030704070507AE
:1001000000060106020603060406050600050105B1
:1001100002050305040505050004010402040304A7
:10012000040405040003010302030303040305039D
:1001300000020102020203020402050200010101A1
:100140000201030104010501000001000200030097
:1001500004000500636F756C6420007468616E6B49
:1001600073003D3E207B7D01015001012800636F3B
:100170006E73742000796F75277265200026726592
:10018000673B002674726164653B00266465673BCB
:1001900000776974682000796F752000796F757237
:1001A00020006D616B652000636F6D2000746865D1
:1001B0006D65207761746368202D65200067697420
:1001C0002070756C6C006769742070757368206F9F
:1001D000726967696E200067697420636F6D6D696D
:1001E00074202D6D20222201015000676974206166
:1001F0006464202E00272B44454C4554455F4D45F3
:1002000054414649454C442B0068747470733A2F2E
:100210002F692E7974696D672E636F6D2F76692F44
:100220002F687164656661756C742E6A7067010170
:1002300050010150010150010150010150010150D4
:100240000101500101500101500101500101500113
:100250000150010150010150007374796C653D013A
:10026000015000636C6173733D22220101500063F1
:100270006C6173734E616D653D2222010150006C0B
:100280006566743A20303B01012800746F703A2093
:10029000303B010128006865696768743A20313095
:1002A00030253B0101280077696474683A203130B9
:1002B00030253B01012800706F736974696F6E3AD5
:1002C000206162736F6C7574653B01012800636F78
:1002D0006E74656E743A2027273B010128007B2548
:1002E0002072656E6465722027696D6727207769C3
:1002F00074682020257D010150010150010150004A
:100300007B252072656E6465722020257D01015079
:10031000010150010150007C20617070656E643AEB
:100320002027007B252061737369676E2020257D5F
:1003300001015001015001015000616C69676E2D8F
:100340006974656D732D006A7573746966792D63C0
:100350006F6E74656E742D000102E0650103E000AC
:100360006C6974652D796F75747562652E5B76693D
:1003700064656F696420706C61796C6162656C5D45
:1003800000636F6E736F6C652E6C6F6728290101B7
:1003900050006469762E636F6E7461696E657201D8
:1003A000012B0001012B00696D672E5B6C6F61648E
:1003B000696E673D226C617A79222077696474687E
:1003C0003D2222206865696768743D22225D0043F2
:1003D0006861726C65732043686175007B2520201D
:1003E000257D01015001015001015000433A5C5547
:1003F000736572735C557365725C736F7572636558
:100400005C576F726B7370616365735C53686F7078
:100410006966795C007B2520656E64636F6D6D6530
:100420006E7420257D007B2520636F6D6D656E7475
:1004300020257D0029002B002A00E1005043000008
:100440001E00140004001D444F4501001F001A0047
:1004500015001B0052464C00200009001600060043
:1004600051002B61210013001700190028413900A9
:1004700022000A000700050000002A6401000100B4
:10048000000001000000B15D01000100000001005A
:100490000000E30023000D000B000E0000002842C6
:1004A00024000F00110010002C002B7225001800F2
:1004B0000800360031004C0026001C000C003700FC
:1004C0002F00E40027003300120038003000010044
:1004D0002E0034002D00E50035430000010001002E
:1004E0004C000100010000003C043C0404111D010B
:1004F0001D0301002C001A0115011B01B6000100AB
:1005000036010901160106114B0101004B010A03D6
:10051000170119114E0101004E010F0307010513C8
:1005200000000100010001000000010000000100C6
:1005300001000100000001000000E0003F004A024D
:100540002F0226020000E2004B004A005000340255
:1005500001004A124E00520051002E000100E1003D
:1005600026024D004F0034000100010027024D0219
:100570003002270201004D02460001003100E50073
:10058000010000000100010039000100010000002D
:1005900001000100F1000100010001000100F9006B
:1005A000EF00F2000100FE000100ED00EE00F3009C
:1005B0000100FF000100FA00F000F100010001005D
:1005C0000100B700B60001000000010001000100B9
:1005D0000000010000000100010001000000010016
:1005E00000000100B5000100010001000000010051
:1005F000B6004A005000190101000100F30052004A
:10060000510006010100E100B7004D004F001B0141
:10061000AA0001000100010030021D01A900010033
:100620000F08010031000100010000000100AB5D76
:1006300039000100010000003A00AB5DB25DAC5D25
:10064000010001003B00B35DB05D0100C05D010031
:100650003C00B45DAE5DA95DC15D01003D001301CC
:10066000AC5DAA5D010001003E00BA5DB95DB85DF8
:100670000000010001000100000001000000010075
:100680000100010000000100000001003F005400D3
:1006900055000100000001004000240021001E0060
:1006A000010001004100250022001F002700270053
:1006B000420026002300200037002E004300560091
:1006C0005700010001000100440045002E00010018
:1006D0000100000001000100010001000100000014
:1006E0000100010001000100010001000100010002
:1006F000B65D1A070100010001000100B55D0C059F
:100700000100010001001301B75D060508050100A5
:1007100001000A01010001000000010001000100C8
:1007200000000100000001000100010000000100C4
:1007300000000100010001000100010000000100B3
:1007400001000100010001000100010001000100A1
:100750000100010001000100010001000100010091
:100760000100010001000100010001000100010081
:10077000010001000100010001000000065101001C
:100780000100010001000000010001000100010062
:100790000100010001000100010001004B01010006
:1007A00001000100010001004E01010001000100F3
:1007B0000100010008050100010001000100010025
:1007C0000000010001000100000001000000010024
:1007D0000100010000000100000001000100010013
:1007E0000100010000000100010001000100010002
:1007F00001000100010001000100010001000100F1
:1008000001000100010001000100010001000100E0
:1008100001000100010001000100010001000100D0
:1008200001000000010001000100010001000000C2
:1008300001000100010001000100010001000100B0
:100840000100010001000100010001004B01010055
:1008500001000100010001004E0101000100010042
:100860000100010001000100000001000100010081
:100870000000010000000100010001000000010073
:100880000000010001000100010001000000010062
:100890000100010001000100010001000100010050
:1008A0000100010001000100010001000100010040
:1008B0000100010001000100010001000100010030
:1008C000005C0100010001000100000001000100C6
:1008D0000100010001000000010001000100010011
:1008E000010001000100240021001E00370001006A
:1008F0000100250022001F00270001000100260042
:10090000230020000100010001000100010001009E
:1009100000000100010001000000010000000100D2
:1009200001000100000001000000010001000100C1
:1009300001000100000001000100010001000100B0
:10094000010001000100010001000100010001009F
:10095000010001000100010001000100010001008F
:10096000010001000100010001000100010001007F
:100970000100000009001300000017000E0016001F
:1009800000000F00070000000600170000001C0018
:1009900015000000150008000A00000017001500EF
:1009A0000800000007001500080000001C001800E7
:1009B00000001800150000001A00380000001000A8
:1009C0000E00000006001000000017000B000800D9
:1009D0001A0000000B000C00180000000B000C00B7
:1009E000130000000B000C00060000000B000C00C0
:1009F0000400000016000C000A00000007001000B0
:100A0000080000000C00170004000000160017008A
:100A10001C00000006000F00000006000F00080088
:100A2000000000000000000000002A2B2800000049
:100A3000000000000000000000000000002900008D
:100A400000002C1E3420212224342627252E362D6A
:100A50003738271E1F202122232425263333362E04
:100A600037381F0405060708090A0B0C0D0E0F1076
:100A70001112131415161718191A1B1C1D2F3130BB
:100A8000232D350405060708090A0B0C0D0E0F105F
:100A90001112131415161718191A1B1C1D2F31309B
:100AA000354C0000000000000000000000000000C5
:100AB0000000000000000000000000000000000036
:100AC0000000000000007E0F00D4FFFFFFC7000001
:100AD000007816034500720067006F0044006F0045
:100AE0007800200045005A00000028035A005300F7
:100AF0004100200054006500630068006E006F0034
:100B00006C006F006700790020004C0061006200FB
:100B1000730000000403090409023B00020100A065
:100B2000FA0904000001030101000921110100017B
:100B30002240000705810308000A0904010001039F
:100B400000000009211101000122B60007058203FF
:100B500020000A12010002000000089732744901C7
:100B6000000102000105010902A10185020901A19C
:100B7000000509190129081500250195087501814D
:100B8000020501093009311581257F95027508811B
:100B90000609381581257F950175088106050C0A1F
:100BA00038021581257F950175088106C0C00501B1
:100BB0000980A101850319012AB700150126B70094
:100BC000950175108100C0050C0901A1018504196A
:100BD000012AA002150126A002950175108100C00E
:100BE00005010906A1018506050719E029E7150099
:100BF00025019508750181020507190029EF1500E7
:100C0000250195F075018102050819012905950551
:100C100075019102950175039101C005010906A1B5
:100C200001050719E029E7150025019508750181DF
:100C3000029501750881010507190029FF15002695
:100C4000FF0095067508810005081901290595051D
:100C500075019102950175039101C00011241FBE19
:100C6000CFEFDAE0DEBFCDBF12E0A0E0B1E0E0E917
:100C7000F2E602C005900D92AA33B107D9F724E03D
:100C8000AAE3B2E001C01D92AD30B207E1F70E94C5
:100C9000491C0C94F0300C9400008098889A81983C
:100CA000899A84988C9A85988D9A86988E9A879836
:100CB0008F9A0895209828982198299822982A9800
:100CC00023982B9852985A9853985B983E98469838
:100CD0000895CF93C82F873070F5809106019091C9
:100CE0000701892B89F564E670E080E40E947B258A
:100CF0009093070180930601892BD1F464E670E09C
:100D000082E10E94F5259093070180930601892BCB
:100D100079F481E090E001C0880FCA95EAF764E6B3
:100D200070E080950E94F52590930701809306015D
:100D3000CF910C9448268A30B9F040F4883071F095
:100D4000893079F0209A2898CF9108958C3091F0CD
:100D500070F08D30B9F73E9A4698F6CF219A2998CF
:100D6000F3CF229A2A98F0CF239A2B98EDCF529A5C
:100D70005A98EACF539A5B98E7CFCF93873050F5D4
:100D80008091060190910701C0E0892B71F464E61F
:100D900070E081E40E947B25909307018093060117
:100DA000892B31F0C0E00E9448268C2FCF91089506
:100DB00084E690E00E94242697FF05C090930701E7
:100DC00080930601EFCFC82FC095109207011092B3
:100DD0000601E9CFCFB18FB1869586958C73C3702C
:100DE0008C2BC82FC095E1CF0E94FA0790E090931A
:100DF0000701809306010E945A060C944D06EF925B
:100E0000FF920F931F93CF93DF93809106019091F0
:100E10000701892B91F080913C028F5F80933C0207
:100E200081110BC00E94FA0790E090930701809314
:100E30000601892B11F40E948F0705ED13E0C0E035
:100E4000D0E087E0E82EEC0E8C2F0E9469068E2DF4
:100E50000E9469068C2F0E94BD06F8019081F12C3A
:100E6000891719F08083FF24F3948E2D0E94BD060C
:100E7000F8019781891799F0878381E08F29D82B12
:100E80000E945A06CF5F0F5F1F4FC730D1F68D2FDC
:100E9000DF91CF911F910F91FF90EF90089580E027
:100EA000EDCF0E94FA0790E090930701809306012E
:100EB0000E945A060E944D06E3EEF3E0119283E091
:100EC000E13FF807D9F70895259A2D9A0895269AB3
:100ED0002E9A0895279A2F9A089556985E98089505
:100EE00025982D98089526982E98089527982F983C
:100EF00008950E946D070E9470070E9473070C946A
:100F0000760790E0909389008093880090938B00FF
:100F100080938A0090938D0080938C0008950E94A6
:100F200079078FEF0E9481070E9464072FEF80E707
:100F300092E0215080409040E1F700C000000E9404
:100F400067072FEF80E792E0215080409040E1F763
:100F500000C000000E946A072FEF80E792E0215056
:100F600080409040E1F700C000000E9470072FEF22
:100F700080E792E0215080409040E1F700C00000FF
:100F80000E9473072FEF80E792E02150804090404D
:100F9000E1F700C000000E9476070C94790789EA07
:100FA0008093800089E08093810024982C983F985A
:100FB0008AB18F7C8AB96E98479A8BB180638BB95E
:100FC000769A0E9410186093CF037093D003809399
:100FD000D1039093D20367702FEF629FC001112459
:100FE00095958795959587950E9481070E948F0713
:100FF0000C947A1B80E290E09093070180930601A5
:1010000080913D0281110EC00E94752581E0809380
:101010003D022FEF83ED90E3215080409040E1F7B7
:1010200000C0000064E670E080E40E947B2590939D
:10103000070180930601892B09F04EC064E670E039
:1010400080E00E94F5259093070180930601892B8B
:1010500009F042C064E670E080E00E94F5259093BC
:10106000070180930601892BB9F564E670E08FE3F0
:101070000E94F5259093070180930601892B61F565
:101080000E94482664E670E080E40E947B259093ED
:10109000070180930601892BF9F464E670E08CE087
:1010A0000E94F5259093070180930601892BA1F4F6
:1010B00064E670E080E00E94F5259093070180933C
:1010C0000601892B49F464E670E08FE30E94F52560
:1010D00090930701809306010E94482680910601A3
:1010E00008951092CF031092D0031092D103109262
:1010F000D20384E080618093CF036091CF0370912D
:10110000D0038091D1039091D2030E9414180C94C3
:101110002018CF93DB01875A9D458B329105A8F4A7
:10112000FC01EE50FF4C0C94772F1296CC91CC23FF
:1011300019F00E948418C0E08C2FCF910895129668
:10114000CC9186E294E0C11108C0C1E0F5CF1296BF
:10115000CC9185E194E0CC23C1F30E94720CECCFDA
:101160001296CC918CEE93E0CC2379F3F6CF1296C5
:10117000CC918CED93E0CC2341F3EFCF1296CC9140
:101180008FEC93E0CC2309F3E8CF1296CC91CC23DB
:10119000E1F287EA93E00E94720C83EA93E0DDCFEC
:1011A0001296CC91CC2389F282EE0E94740D8CE2CF
:1011B0000E94730E82EE0E94060E81E10E94730E61
:1011C000BBCF1296CC9182E993E0CC2309F4BDCF3A
:1011D000C4CF1296CC9181E893E0CC2309F4B5CF2B
:1011E000BCCF1296CC91CC2309F4AFCF80E693E02C
:1011F0000E94720C88E593E0B0CF1296CC91CC237C
:10120000A1F080914002811106C081E080934002EC
:1012100082EE0E94740D0E94042890933F028093F6
:101220003E028BE20E94740D87CF8BE20E94060E75
:101230008CCF1296CC9187E493E0CC2309F485CF30
:101240008CCF1296CC918AE393E0CC2309F47DCF26
:1012500084CF1296CC9183E293E0CC2309F475CF2E
:101260007CCF1296CC9187E193E0CC2309F46DCF2B
:1012700074CF1296CC9180E093E0CC2309F465CF33
:101280006CCF1296CC918EED92E0CC2309F45DCF19
:1012900064CF1296CC91CC2309F457CF8EEC92E018
:1012A0000E94720C87EB92E00E94720C87EA92E037
:1012B0000E94720C86E992E00E94720C8BE892E028
:1012C0000E94720C8FE792E048CF1296CC918FE685
:1012D00092E0CC2309F439CF40CF1296CC9183E62B
:1012E00092E0CC2309F431CF38CF1296CC9189E526
:1012F00092E0CC2309F429CF30CF1296CC9189E02B
:1013000092E0CC2309F421CF28CF1296CC9185EF1F
:1013100091E0CC2309F419CF20CF1296CC918BEE1B
:1013200091E0CC2309F411CF18CF1296CC9187ED20
:1013300091E0CC2309F409CF10CF1296CC9186EC22
:1013400091E0CC2309F401CF08CF1296CC918DEB1C
:1013500091E0CC2309F4F9CE00CF1296CC918DEA1E
:1013600091E0CC2309F4F1CEF8CE1296CC9188EA24
:1013700091E0CC2309F4E9CEF0CE1296CC9182EA2A
:1013800091E0CC2309F4E1CEE8CE1296CC918CE921
:1013900091E0CC2309F4D9CEE0CE1296CC9187E926
:1013A00091E0CC2309F4D1CED8CE1296CC9181E92C
:1013B00091E0CC2309F4C9CED0CE1296CC918BE823
:1013C00091E0CC2309F4C1CEC8CE1296CC9183E82B
:1013D00091E0CC2309F4B9CEC0CE1296CC918DE722
:1013E00091E0CC2309F4B1CEB8CE1296CC9185E72A
:1013F00091E0CC2309F4A9CEB0CE1296CC918EE622
:1014000091E0CC2309F4A1CEA8CE1296CC9182E62D
:1014100091E0CC2309F499CEA0CE1296CC918BE525
:1014200091E0CC2309F491CE98CE1296CC91CC23A6
:1014300009F48BCE84E591E090CE80914002882320
:1014400071F080913E0290913F020E941C288139E8
:10145000914028F082EE0E94060E109240020895FC
:1014600081FD0C946A070C947607CF92DF92EF927D
:10147000FF92CF936B017C010E947F0CC82F0E94CA
:101480006D070E9473070E947007C23081F0C3305D
:1014900061F0C13011F40E946407C701B601CF9119
:1014A000FF90EF90DF90CF9008950E9464070E9414
:1014B0006707F3CF9C013A9521153F4150F5FC0198
:1014C000EE27F170BC0166277270AC01442754709E
:1014D0009C012227387094FF0EC080E1EF2B09F4A5
:1014E00080E0672B09F08062452B09F08064232B94
:1014F00089F08068089581E0EF2B09F480E0672B84
:1015000009F08260452B09F08460232B19F0886074
:10151000089580E00895CF93DF93EC010E945A0A6A
:101520009E01205E31092830310510F0209739F4F2
:101530000E947B0E8C2FDF91CF910C94740D0E9432
:101540007011F8CFCF93DF93EC010E94060ECE010D
:101550000E945A0A9E01205E31092830310510F0A0
:10156000CD2B21F4DF91CF910C94820EDF91CF919E
:101570000C947711CF93DF93EC010E948B0ACE017C
:10158000DF91CF910C94A20A81E008950C94890810
:1015900008950C94C80A1F93CF93DF9300D000D016
:1015A0000F92CDB7DEB749835A836B8330914F02D8
:1015B00089819A8131111DC06623B9F02223A9F0D7
:1015C0000E944A13182F682F89819A810E94F31272
:1015D00069817A81812F0F900F900F900F900F905B
:1015E000DF91CF911F910C94611A0E942113182F43
:1015F000EFCF0E944A1369817A81EDCFFC01262F3B
:1016000086819781009739F440815181628173818D
:1016100084810C94CB0A0895CF93DF93EC0161E0B1
:101620000E94FE0ABE01DF91CF910C94C022CF939D
:10163000DF93EC0160E00E94FE0ABE01DF91CF91D2
:101640000C94C90A0E94561B0E94D20C0E94091FCA
:101650000C94CF070E947C220C947B1B80E00C949E
:10166000D30C089508950E9494110E94320B2FEF1D
:1016700084E39CE0215080409040E1F700C00000EE
:101680000C944F280F931F93CF93DF938C0161E04D
:101690000E94FE0AEC01B8010E94C60A8823D9F113
:1016A000B801CE010E94B11F8823A9F1B801CE0173
:1016B0000E942325882379F1B801CE010E94CF1F13
:1016C000882349F1B801CE010E948D24882319F1A5
:1016D000F8018281882361F0CB35FDE5DF0721F138
:1016E00070F4C115ECE5DE07A1F0CF3DDC45C9F093
:1016F000C801DF91CF911F910F910C94C40ACC3592
:101700008DE5D807A1F0CD35DD4591F70E94D317BF
:10171000EFCF0E94330B80E0DF91CF911F910F91AB
:1017200008950E948418F7CF0E94DC17E1CF0E9431
:10173000DF17DECF0C94310B0E9456260E94D30C8B
:101740000C949A0BDF92EF92FF920F931F93CF931B
:10175000DF93E82FF0E0EE5DF54FD490282F26952B
:101760002695269530E0F901EE53F54F04918770E8
:1017700010E0082E02C0159507950A94E2F7017053
:101780001127F901EE54F54FE490F12C082E02C018
:10179000F594E7940A94E2F791E0E922FF24F90135
:1017A000EE55F54FC491D0E002C0D595C7958A9506
:1017B000E2F7C170DD270115110519F081EE0E94D5
:1017C000740DE114F10419F086EE0E94740D8D2D54
:1017D0000E94730EEF2819F086EE0E94060E012B70
:1017E00019F081EE0E94060ECD2B51F08CE2DF91B4
:1017F000CF911F910F91FF90EF90DF900C94730E9B
:10180000DF91CF911F910F91FF90EF90DF9008959E
:10181000EF92FF920F931F93CF93DF938C01F62EDD
:101820008AE0E82EF8018491882309F454C08130BD
:1018300009F04DC0E8012196FE018491813091F4B8
:101840002196FE0184910E94730E8E010F5F1F4F3F
:101850008F2D815038F3EFE9FFE03197F1F700C0A9
:101860000000F7CF823039F4E8012296FE0184911E
:101870000E94740DEACF833039F4E8012296FE010C
:1018800084910E94060EE1CF8430F9F6E801229699
:10189000FE01249190E080E0FE0131962053330B4D
:1018A0002A30310548F0019780F2EFE9FFE03197E7
:1018B000F1F700C00000F7CFE89EA001E99E500DAF
:1018C0001124C901840F951F2491EF01E5CF0E94D7
:1018D000A20BE801BACFDF91CF911F910F91FF903A
:1018E000EF90089560E00C94080C982F9F709A5028
:1018F000963018F0805D0C94A20B895AFCCFCF92E1
:10190000DF92EF92FF926C01EE24FF2420E0C114DD
:10191000D104E104F10419F0C701B60120E1C72E9A
:10192000D82EE92EFF24C114D104E104F10419F0EA
:10193000285FC701B6016B017C0154E0F694E7947F
:10194000D794C7945A95D1F7C114D104E104F10496
:1019500019F02C5FC701B6016B017C0142E0F694DF
:10196000E794D794C7944A95D1F7C114D104E10400
:10197000F10419F02E5FC701B6019695879577950A
:101980006795672B682B692B09F02F5F822FFF90DB
:10199000EF90DF90CF9008950C94300A81E0089585
:1019A0000C94CE0C0895CF93C82F0E94CC0C8C2F92
:1019B000CF910C94D00CCF93DF93EC0128818981D7
:1019C00041E050E0022E01C0440F0A94EAF7A82F2C
:1019D000B0E0AF5BBD4F9C913A813323D9F0309199
:1019E00051023323D1F030E066E0869F200D311D97
:1019F0001124220F331FF901E355FF4FE491E983CE
:101A0000F901E455FF4FE491E883492B4C93DF91B2
:101A1000CF910895392F3423E4CF40954923F6CF51
:101A2000CF93DF93CDB7DEB72D970FB6F894DEBF17
:101A30000FBECDBF49875A876B877C878D87611121
:101A40000E942E178C859D85892B29F089859A8582
:101A500089238F3F81F51D821E821F82188685E0B3
:101A6000FE013996DE01119601900D928A95E1F7FB
:101A70008C819D81892B99F429813A814B815C81EC
:101A80006D817E818F8198850E9420162D960FB6DC
:101A9000F894DEBF0FBECDBFDF91CF91089589814D
:101AA0009A8189238F3F41F3CE0101960E940C0B4E
:101AB0008111E2CFEBCFCE0109960E94DB0CCBCF98
:101AC000FC01808191810E948C1392959F709630C9
:101AD00051F4863F41F08091510291E08927809333
:101AE0005102909350020895CF93C82F882309F490
:101AF0008BC08238C1F40E94562681FD85C089E3DF
:101B00000E94C0160E9451172FEF81EE94E02150E1
:101B100080409040E1F700C0000089E30E94C716B2
:101B2000CF910C9451178338A1F40E94562680FD62
:101B30006BC083E50E94C0160E9451172FEF81EE03
:101B400094E0215080409040E1F700C0000083E520
:101B5000E5CF8438A1F40E94562682FD55C087E463
:101B60000E94C0160E9451172FEF81EE94E0215081
:101B700080409040E1F700C0000087E4CFCF8CEFB9
:101B80008C0F813A90F46C2F8091C0019091C1012B
:101B90000E94CD26882329F08C2F0E94C7160E9410
:101BA00051178C2F0E94C016BBCF80E28C0F88305B
:101BB00048F4C77081E001C0880FCA95EAF70E9417
:101BC0000E17AECFEBE5EC0FE33040F4F0E0EA5F48
:101BD000FD4F808190E0CF910C948D26E8E5EC0FCD
:101BE000E73150F4F0E0EE0FFF1FE852FE4F808126
:101BF0009181CF910C94A326CD3E30F08C2F0E9482
:101C0000D91CCF910C94AC1DCF910895882309F471
:101C100052C0823871F40E94562681FF4CC089E37D
:101C20000E94C0160E94511789E30E94C7160C94A7
:101C30005117833859F40E94562680FF3CC083E533
:101C40000E94C0160E94511783E5EFCF843859F4E3
:101C50000E94562682FF2FC087E40E94C0160E9471
:101C6000511787E4E2CF9CEF980F913AF0F290E29F
:101C7000980F983050F4877091E001C0990F8A95C1
:101C8000EAF7892F0E941417D2CF9BE5980F933063
:101C900020F490E080E00C948D2698E5980F973121
:101CA00020F490E080E00C94A3268D3E20F00E946A
:101CB000331D0C94AC1D08951F93CF93DF93182F01
:101CC000EB010E94740D209731F4812FDF91CF91A9
:101CD0001F910C94060E8FE99FE00197F1F700C069
:101CE00000002197F0CF70E060E0893311F460E5E7
:101CF00070E00C945C0E882321F00E940E170C9467
:101D000051170895882321F00E9414170C9451173D
:101D100008954F925F926F927F92BF92CF92DF921F
:101D2000EF92FF920F931F93CF93DF936C01C62F17
:101D3000172FFC01D281058102950F700E940417B4
:101D4000E82E8823D1F0DD2329F1812F807F803494
:101D500041F090E29C0F9830E8F0803611F4C63FD5
:101D6000C9F08091D40382FD15C082E00E94A217C1
:101D70000E94041791E0E82EE926B12EB2949FE06C
:101D8000B922FBE0FB15C0F1EB2DF0E0E35EFE4C69
:101D90000C94772FE12CF1CF012F0F70812F807FD2
:101DA00011F00295007FDD2399F0002359F080E2C5
:101DB0008C0F883010F0C11107C0802F0E940E17C1
:101DC0000E9451178C2F6EC0802F0E942117F8CFD0
:101DD0008C2F0E94060E002379F080E28C0F883051
:101DE00010F0C11104C0802F0E94141703C0802F6F
:101DF0000E9427170E9451172B2D2850330B243097
:101E0000310520F40E9456260E94D30CDD2339F0C0
:101E1000107F103611F4C63F11F00E94F716EE2025
:101E200009F406C20E94DA1680FD02C2F60112828F
:101E30000E94D4160E945712C6010E9444110E94AB
:101E4000D416DF91CF911F910F91FF90EF90DF900B
:101E5000CF90BF907F906F905F904F900C947812CE
:101E6000212F2F70F22E812F807F803219F0F29473
:101E700080EFF822CC2341F0C130E9F1DD2309F4F1
:101E800044C00023E9F19ECF8091D40382FF15C0A6
:101E9000DD2359F0FF2029F08F2D0E940E170E949C
:101EA000511780E00E94740DA7CF80E00E94060EBB
:101EB000FF2009F4A1CF8F2D97CFDD2381F00111F1
:101EC00006C00E9434178F290E947B0E95CF0130E7
:101ED000C1F70E9434178F290E943A178DCF011144
:101EE00006C00E9447178F2D0E94820E85CF0130B9
:101EF00009F482CFF6CFDD2329F0023008F07CCF41
:101F00008F2DE2CF011178CFEECF002361F3C933DB
:101F100049F43FEF87EE93E0315080409040E1F785
:101F200000C000008C2F0E94060E66CF812F869580
:101F30008695837069F0813009F05ECF8C2F912FE8
:101F40009370D11102C090E080E00E94A32654CF8C
:101F50008C2F912F9370D11102C090E080E00E94ED
:101F60008D264ACF8C2FDD2329F00E94D91C0E9498
:101F7000AC1D42CF0E94331DFACF812F837009F030
:101F800043C0D11139CF2C2F229526952770220FCF
:101F9000220F6C2F6F70462E512C712C612C022E4B
:101FA00004C0440C551C661C771C0A94D2F760E0F0
:101FB00070E0CB01C4FF0FC06FE070E080E090E004
:101FC00004C0660F771F881F991F2A95D2F7609566
:101FD000709580959095212F2695269523706429DC
:101FE000752986299729223049F058F4213019F0B3
:101FF0000E940B1201CF0E94F911FECE0E941D1209
:10200000FBCE0E94F711F8CE8695DD2311F0812FCB
:102010008170882309F4F0CE2C2F22952695277005
:10202000220F220F6C2F6F70462E512C712C612CB9
:10203000022E04C0440C551C661C771C0A94D2F76F
:1020400060E070E0CB01C4FF0FC06FE070E080E0A3
:1020500090E004C0660F771F881F991F2A95D2F75A
:102060006095709580959095212F269526952370E3
:102070006429752986299729223049F058F421309E
:1020800019F00E94CE12B8CE0E94BC12B5CE0E94AA
:10209000E012B2CE0E943112AFCE012F0F70DD23BD
:1020A00029F0802F0E9457128C2F0ECF8C2F0E9468
:1020B000820E802F0E9478129FCEC23F39F160F4C9
:1020C000C03FB9F0C13F81F0DD2309F446C00111E2
:1020D00079CE812F8F711EC0C33FF9F0C43FA1F7A5
:1020E0008091D40382FF23C0812F8F71DD2311F3F0
:1020F00011C0DD2339F001117FCE812F8F710E9435
:102100009B127ACE023008F077CEF7CF812F8F71F5
:10211000D111D0CF0E9457126FCEDD2329F0812F2D
:102120008F710E94421268CE0E943D1265CEDD235F
:1021300051F0012F0F71802F0E94571263E0802F02
:102140000E94871759CE81E00E94A217023008F43E
:1021500053CE82E00E94A2174FCE002359F0C9331C
:1021600009F0E0CEEFEFF7EE23E0E150F040204041
:10217000E1F7D6CE812F8F719DCFE0E1EC0FE730F4
:1021800090F5F0E0E75DFE4C0C94772FDD2309F429
:1021900033CE8091510291E08927809351022CCE59
:1021A000D093510229CE81E08D27F7CFD11124CED3
:1021B00081E0F3CFD11120CE109251021DCEDD234C
:1021C00019F00E94DE1618CE0E94EA1615CEDD2305
:1021D00039F0809150028823E1F2109250020CCE27
:1021E0000023B9F209CE809150020023A9F0882380
:1021F00041F08091510291E0892780935102109221
:1022000050028C2FD1114ECE0E94060E88E0F601AE
:1022100011928A95E9F7F0CD882309F4EDCDD1111B
:10222000EBCD8091510291E0892780935102D5CF67
:10223000DF91CF911F910F91FF90EF90DF90CF90A2
:10224000BF907F906F905F904F9008950F931F9372
:10225000CF93DF93EC018E819F81009779F00E94EC
:1022600063198C010E94F2120E94F611B801CE018E
:10227000DF91CF911F910F910C94890E6881798124
:102280008A810E949613EDCFCF93DF93EC018B816F
:102290009C81892B29F08881998189238F3F59F46A
:1022A000DF91CF910895CE010E942611CE01DF91DA
:1022B000CF910C94170BCE010E94420B8111F3CFEA
:1022C0000E940417882361F38A81882349F380914F
:1022D000D40382FDE5CF82E0DF91CF910C94A21769
:1022E000882321F00E9421170C9451170895882308
:1022F00021F00E9427170C945117089590E080E078
:102300000E948D2690E080E00E94A3260E942E1756
:102310000E9431170E9451170E94D31E0C94AC1DCD
:102320000E94CE160C947E110E941E170C949011E0
:10233000E92FE295EF70E250EE3070F4F0E0E05DEE
:10234000FE4C0C94772F803F19F020F4883E20F447
:1023500081E00895843FE1F380E00895883EC0F372
:10236000813FD1F7F5CF93FB882780F90895FC01D1
:1023700086819781009721F00E9463190C9498112F
:10238000808191810E948C13F9CFCF93DF9300D08D
:1023900000D00F92CDB7DEB70F900F900F900F9037
:1023A0000F90DF91CF910895CF93DF93CDB7DEB734
:1023B00028970FB6F894DEBF0FBECDBF28960FB694
:1023C000F894DEBF0FBECDBFDF91CF910895089581
:1023D0000C94E7110E94E81160938D0270938E02B5
:1023E00080938F02909390020C947E1108950C9428
:1023F000EA110F931F9300918D0210918E0220918C
:102400008F0230919002602B712B822B932B1F91A6
:102410000F910C94EA110F931F9300918D0210916C
:102420008E0220918F0230919002602371238223CB
:1024300093231F910F910C94EA110F931F93009116
:102440008D0210918E0220918F02309190026027B0
:102450007127822793271F910F910C94EA110C94F6
:10246000350A0E942F126093890270938A0280932A
:102470008B0290938C020C947E1160E070E0CB0193
:102480000C9431120F931F9341E050E060E070E034
:102490008A019B0104C0000F111F221F331F8A9560
:1024A000D2F7C901B8011F910F910C9431120F930B
:1024B0001F9341E050E060E070E004C0440F551FFE
:1024C000661F771F8A95D2F78091890290918A02C0
:1024D000A0918B02B0918C028A019B01082B192BD1
:1024E0002A2B3B2BC901B8011F910F910C9431127B
:1024F0000F931F9341E050E060E070E004C0440F90
:10250000551F661F771F8A95D2F7CB01BA016095D8
:102510007095809590950091890210918A02209182
:102520008B0230918C0260237123822393231F91AD
:102530000F910C9431120F931F9341E050E060E033
:1025400070E004C0440F551F661F771F8A95D2F7AD
:102550008091890290918A02A0918B02B0918C02A5
:102560008A019B01082719272A273B27C901B8019F
:102570001F910F910C9431120F931F9300918902B8
:1025800010918A0220918B0230918C02602B712B6A
:10259000822B932B1F910F910C9431120F931F9349
:1025A0000091890210918A0220918B0230918C0255
:1025B00060237123822393231F910F910C94311276
:1025C0000F931F930091890210918A0220918B0230
:1025D00030918C0260277127822793271F910F91DA
:1025E0000C9431120895E92FEE0FE90FEE0F8E0FC4
:1025F000982F977041E001C0440F9A95EAF78695AD
:102600008695869595E0899FF0011124EE5AFD4F3D
:1026100030E020E070E05191DF011197CB01022EF4
:1026200002C0969587950A94E2F781708195852777
:10263000842385278C932F5F3F4F2530310559F731
:102640000895E92FEE0FE90FEE0F8E0F982F977078
:1026500086958695869525E0829FF0011124EE5A95
:10266000FD4F50E040E080E0219130E0092E02C0B3
:10267000369527950A94E2F721703327042E01C07E
:10268000220F0A94EAF7822B4F5F5F4F45305105C6
:1026900059F70895BF92CF92DF92EF92FF920F9376
:1026A0001F93CF93DF938C01C0908902D0908A0250
:1026B000E0908B02F0908C0280918D0290918E02BE
:1026C000A0918F02B0919002C82AD92AEA2AFB2A47
:1026D000CFE1D0E0BC2ED701C6010C2E04C0B695C8
:1026E000A795979587950A94D2F780FD0EC02197FC
:1026F00088F7B12C8B2DDF91CF911F910F91FF9017
:10270000EF90DF90CF90BF900895B8018C2F0E947A
:10271000751A019761F3EECFCF93DF93EC010E941E
:102720004A13BE01DF91CF910C94751A1F93CF937A
:10273000DF93EB0190914F02992331F0CB01DF91B0
:10274000CF911F910C948C13882379F0CB010E94B8
:102750004A13182F682FCE010E94F312BE01812F59
:10276000DF91CF911F910C94751ACB010E94211318
:10277000182FF4CFCF93DF93C091910280919202F2
:102780008C1303C0DF91CF910895D0E0FE0183E068
:10279000EE0FFF1F8A95E1F7ED56FD4F2081318145
:1027A0004281538164817581868197810E94D41111
:1027B0002196C770E3CF2091D3023091D40240918B
:1027C000D5025091D6026091D7027091D8028091C3
:1027D000D9029091DA020C94D4110F931F93CF93E6
:1027E000DF938091D802807FC1F48091D502882345
:1027F000A1F080919102109192026091D3027091A8
:10280000D402A091D602B091D702062F0723C0911F
:10281000BE01D091BF01181305C0DF91CF911F9168
:102820000F91089590E0109711F00F3F19F4019661
:102830008770F1CF9C0143E0220F331F4A95E1F7E7
:10284000F901ED56FD4F41814713F1CF4081461309
:10285000EECF42814111EBCF438154814A1B5B0B88
:102860004C175D0720F78091D8028F7080618093AC
:10287000D802F901E856FD4F80818F708061808316
:1028800083ED92E00E944411DF91CF911F910F914F
:102890000C94BA13AF92BF92CF92DF92EF92FF9255
:1028A0000F931F93CF93DF93CDB7DEB765970FB626
:1028B000F894DEBF0FBECDBF8C0185E0F801DE01CC
:1028C000519601900D928A95E1F7F801E28043ED6F
:1028D000C42E42E0D42E6091D6027091D7026115C9
:1028E000710509F491C19091D3022091D402892FEE
:1028F00082238F3F09F488C140815181A380B48035
:10290000F090D502F501E61BF70BBF01E091BE0187
:10291000F091BF01FF2009F42CC18091D802382F1B
:10292000307F6E177F0708F0D6C0311183C0FE2CB0
:1029300025132DC094132BC06091D9027091DA0237
:10294000F801268137816217730709F5E1101FC06E
:102950008F7080618093D8020E94DB13C6010E94B1
:1029600044118091D802F80185838F2D65960FB6AA
:10297000F894DEBF0FBECDBFDF91CF911F910F91B5
:10298000FF90EF90DF90CF90BF90AF900895AB286D
:1029900029F0842F85238F3F09F04FC180E0F82F65
:1029A000F170DF2E80FF3CC0809191022091920255
:1029B000821315C0498B5A8B89899A890E948C137E
:1029C000292F22952F702230F8F0243020F59F70A7
:1029D000F9F0F8019581907FD9F4D12C1FC090E0D7
:1029E000FC0133E0EE0FFF1F3A95E1F7ED56FD4F86
:1029F0003181351306C03081341303C032813E115A
:102A00000FC001968770D4CF9F7011F0882329F3EF
:102A1000805E883010F3C8010E944411FD2CA5CFC0
:102A2000EE2009F4A2CF8091D80281608093D80271
:102A3000F12C9BCF25131DC094131BC04091D902CC
:102A40005091DA02F801268137814217530789F441
:102A5000E1100FC08583C8010E94441188E0F8018D
:102A6000A3EDB2E001900D928A95E1F70E94DB138D
:102A70007CCFC8010E94B711882349F1EE2039F1BB
:102A80008091D8028032A0F02091D3023091D402FC
:102A90003A8729871B86BD86AC868E878091D902AE
:102AA0009091DA02988B8F87CE0109960E9444118B
:102AB00088E0F801A3EDB2E001900D928A95E1F76C
:102AC0000E94ED130E94DB13FF24F3944ECFC80144
:102AD0000E944411F9CF311113C07A2DBD8AAC8AFE
:102AE0006E2D8D890E94C51183ED92E00E944411E4
:102AF00088E0F60111928A95E9F70E94DB1398CFDE
:102B0000251318C0941316C04091D9025091DA02CF
:102B1000F801268137814217530761F4E1100AC09A
:102B20008583C8010E94441188E0F60111928A95BC
:102B3000E9F71BCFC8010E94B711882341F2EE20AC
:102B400031F28091D802803208F4B2CF2091D302C2
:102B50003091D4023A8329831B82BD82AC828E835A
:102B60008091D9029091DA0298878F83CE010196E5
:102B70009DCF6E177F07D8F5FE2CEE2009F4A7CF66
:102B8000251327C0941325C02091D9023091DA0271
:102B9000F8018681978128173907D9F49091D802D6
:102BA00090FD0EC0907F61F08091D8028583903FA8
:102BB00009F451CF982F907F905F8F70892B4ACF67
:102BC00088E0F801A3EDB2E001900D928A95E1F75B
:102BD000CCCEC8010E94B71181116ACF8091D80272
:102BE00081608093D802C8010E944411BECE7A2D24
:102BF000BD8AAC8A6E2D8D890E94C51188E0F601D0
:102C000011928A95E9F732CFEE2009F460CFC8011E
:102C10000E94B711F82E882309F459CF88E0F801F3
:102C2000A3EDB2E001900D928A95E1F783ED92E079
:102C30000E94600D0E94ED1319CF81E08E25AFCE6A
:102C4000CF93DF93CDB7DEB760970FB6F894DEBFB2
:102C50000FBECDBF29873A874B875C876D877E87FC
:102C60008F87988BCE0109960E944A148823D1F051
:102C70008C859D85892B39F029853A85822F832380
:102C80008F3F09F074C08091910290919202891354
:102C900048C060960FB6F894DEBF0FBECDBFDF917F
:102CA000CF91089588E0FE013996DE0111960190DA
:102CB0000D928A95E1F78C859D85892B21F3898575
:102CC0009A8589238F3FF9F2A0919202B0E0CD015D
:102CD000019687709927209191022817190671F49F
:102CE0000E949411109292021092910288E0E3EDFA
:102CF000F2E0DF011D928A95E9F7C5CF93E0AA0FB4
:102D0000BB1F9A95E1F7AD56BD4F98E0FE01319695
:102D100001900D929A95E1F7809392020E94BA1366
:102D2000B2CFB8E08B9FC00111248D569D4F0E94F9
:102D30004A14882309F4ADCFE091910228E0E29F84
:102D4000F0011124ED56FD4F2081318142815381E4
:102D500064817581868197810E94D411809191024E
:102D600090E0019687709927809391028CCF4B85D4
:102D70005C856D857E858F8598890E94D41183CF6F
:102D8000682F8091C0019091C1010C944D27682F4C
:102D90008091C0019091C1010C9458278091C0018D
:102DA0009091C1010C9463278091DC0285958595F3
:102DB000859508958091DC028770089582E0809364
:102DC000DB0281E08093510208951092DB021092A1
:102DD000510208958091DB02823021F481E08093DA
:102DE000DB020895833011F40C94E5160895809168
:102DF000DB02823021F483E08093DB02089581308E
:102E000011F40C94E51608959091DC02977081E01E
:102E100009F480E0089580910003089590910003E3
:102E2000892B809300030895809590910003982347
:102E30009093000308958093000308951092000377
:102E400008959091FF02892B8093FF020895809549
:102E50009091FF0298239093FF0208951092FF0231
:102E600008951092FE0208958091DD02089508955C
:102E70000C9437179091D40392FD08C09091DD0215
:102E8000981721F08093DD020C94381708958091F3
:102E9000DD02882329F01092DD0280E00C943817BF
:102EA0000895E091C001F091C101809100038083F9
:102EB000E091C001F091C10180819091FF02892BC6
:102EC0008083E091C001F091C10180819091FE0268
:102ED000892B80839091DD02992381F0E091C001DC
:102EE000F091C1018081892B80838091C0019091F4
:102EF000C1010E94B92681110E9447178091C0012B
:102F00009091C1010C94652608950C9484179091BA
:102F1000D40392FD10C098E0899F90011124622B88
:102F20006093DC020E9457128091DC0285958595A2
:102F300085950C9485170C9457121092DC0280E052
:102F40000C9485179091DC02809589238093DC0294
:102F5000282F277091F4282F082E000C330B92177E
:102F6000130659F09091D40392FD07C0859585957D
:102F700085950E9478120C949D1708959091D40322
:102F800092FB222720F9281769F080FB92F9909391
:102F9000D4038091D3039091D4030E94031882E05C
:102FA0000C94A21708958091D40382FB882780F99E
:102FB00091E089270C94BE1781E00C94BE1780E045
:102FC0000C94BE1790E080E00E94B63021E0893E6C
:102FD0009E4F09F020E0822F089582E090E00C944B
:102FE000A83083E090E00C94A830CF9384E090E088
:102FF0000E94A830C82F82E290E00E94A830982F4B
:103000008C2FCF910895CF93C92F682F84E090E043
:103010000E94BC306C2F82E290E0CF910C94BC30C7
:103020008FE090E00C94B030AB01BC018FE090E0F9
:103030000C94CE30AB01BC0183E190E00C94CE3017
:1030400060E070E0CB010C941A1869EE7EEF90E01E
:1030500080E00E94DA3060E082E090E00E94BC30C4
:1030600060E083E090E00E94BC3010928D021092EC
:103070008E0210928F021092900260E084E090E045
:103080000E94BC3060E082E290E00E94BC3060E0D0
:1030900085E090E00E94BC3060E086E090E00E9415
:1030A000BC306FEF87E090E00E94BC3040E050E021
:1030B000BA0188E090E00E94CE3060E08DE090E0C0
:1030C0000E94BC3040E050E0BA0188E190E00E94EC
:1030D000CE3060E087E190E00E94BC3040E050E0FC
:1030E000BA018CE190E00E94CE3070E060E080E2B6
:1030F00090E00E94DA3040E050E0BA0188E190E0D0
:103100000E94CE300C9471080C942518682F8EE024
:1031100090E00C94BC300E941028609314037093CC
:103120001503809316039093170360931003709315
:1031300011038093120390931303089585B7806859
:1031400085BF85B7806885BF0895089508950C945C
:10315000A51808950C94A9180E949E1883E59BE178
:103160000E944C260E94A6180C94A71881E008958E
:103170000C94B618089508950E94BA180C94BB18C0
:103180000E94FB270E94841B0C94AA18AF92BF9246
:10319000CF92DF92EF92FF920F931F93CF93DF9323
:1031A000CDB7DEB72A970FB6F894DEBF0FBECDBFFE
:1031B0000E94951B81110E948B1882E0A82E83E04B
:1031C000B82E10E000E0C02E802F0E947D1BE82E5C
:1031D000F501F1905F01F81609F44DC080911803D4
:1031E00081FD0E94831B8F2D8E25D12CFF24F3940B
:1031F000982F9F21D9F10E94B818882399F0DE8278
:10320000CF82EF2081E009F480E088870E940428C3
:103210008160782F9A8789874E815F8168858A854A
:103220000E94100DF801EE5FFC4F8081F826F082BD
:103230000E94C71D0E94562690910103891791F1A3
:103240000E945626809301032A960FB6F894DEBF9B
:103250000FBECDBFDF91CF911F910F91FF90EF90E7
:10326000DF90CF90BF90AF900C94D30CD394FF0C11
:10327000F6E0DF12BDCF0F5F1F4F0E30110509F0D2
:10328000A2CF8FEF89838A831B820E9404288160EA
:10329000782F9D838C8349815A816B818D810E9417
:1032A000100DC6CF2A960FB6F894DEBF0FBECDBF65
:1032B000DF91CF911F910F91FF90EF90DF90CF9012
:1032C000BF90AF900895CF93DF930E94791AEC01DD
:1032D000811522E5920708F047C0811531E5930773
:1032E00008F0BAC0883E910530F5803E910508F09F
:1032F00092C0883A910588F4853A910508F084C017
:103300008130910509F487C0009709F484C00497BF
:1033100008F081C0D0E0C0E07EC08F3B9105D0F7BF
:10332000C85AD0E0CC0FDD1FC75FDD4F0990D881B0
:10333000C02DD46470C08115904250F4C11581E055
:10334000D80708F068C0CD3ED10520F3D06563C032
:10335000C11590E4D907F0F2C11520E5D20708F0B5
:103360005EC0DF70D06A57C0811536E5930718F547
:10337000811545E5940708F087C0C11584E5D80795
:1033800008F07DC09C2F969596959E01237033275B
:10339000C115D34508F465C0C1E0D0E002C0CC0F30
:1033A000DD1F2A95E2F730E2939FC0011124C82B5C
:1033B000D92BDA6830C0C11589E5D80768F4C11582
:1033C00098E5D90708F06AC0C11527E5D20708F0CB
:1033D000A1CFDD27D0661FC0C1153AE5D30708F499
:1033E00062C0CE0190568115904208F093CF8D2F88
:1033F0008F710E94101B90E0982F882788279F715B
:103400009C012C2BE90148C0C55AD0E0C95CDD4FB6
:10341000C881D0E0D064CE01DF91CF910895CE0174
:10342000E4E096958795EA95E1F783702C2F269531
:103430002695237090E2299F90011124382B8C2F20
:103440008370C1E0D0E002C0CC0FDD1F8A95E2F7A7
:10345000C22BD32BDC68DFCFD82FCC27C16FD06A2B
:10346000DACFC1E0D0E002C0CC0FDD1F2A95E2F731
:1034700020E2929FC0011124C82BD92BEBCFDC2F67
:10348000CC27C46FD06AC7CF0E94101BC82FD0E0D2
:10349000DC2FCC27CC27DF71D062BDCFDC2FCC272F
:1034A000C06FD06AB8CF8C2F8F700E94101B34E091
:1034B000D695C7953A95E1F7CF709C2FEC01D0696E
:1034C000AACF972F70E026E0929F600D711D112406
:1034D000FB0194E5899FE00DF11D1124EE0FFF1F04
:1034E000EC5CFB4F8591949108950E94611A0C94B5
:1034F000631982389105B1F1B0F48133910509F473
:1035000075C048F48932910509F469C08A32910581
:1035100009F473C008958533910509F459C08933BE
:10352000910501F10895833E9105A9F138F4803E9B
:103530009105F9F0823E910549F10895863E910585
:10354000A9F1873E9105C9F1843E910519F52091B5
:10355000D40321FF1FC08091D30384FD14C087EEE4
:1035600090E008952091D3032370A1F080EE90E0C5
:1035700008952091D30320FD47C03091D40330FF3C
:1035800009C024FF44C090E080E004C02091D30330
:1035900022FDF7CF08952091D30322FD3BC0309147
:1035A000D40330FDE3CF24FFF5CFEDCF2091D3033B
:1035B00023FFF0CF24FDE7CFD2CF2091D30323FD0B
:1035C0002CC03091D40331FFEECF84EE90E008950B
:1035D0002091D30325FFDECF89E290E0089520916A
:1035E000D30325FFD7CF85E390E008952091D3033F
:1035F00026FFD0CF8AE290E008952091D30326FFE2
:10360000C9CF81E390E0089589E390E0089583EEC7
:1036100090E0089582EE90E0089586EE90E008959F
:103620009091D30392FF06C0282F28712830F9F417
:10363000877F846093FF06C0282F28712831F1F41A
:10364000877E84612091D40320FF06C0382F387113
:103650003830D9F4877F816021FF06C0282F287178
:103660002831D1F4877E816194FD877E0895282FCB
:1036700024712430F9F68B7F8860DCCF282F2471E9
:10368000243101F78B7E8861DDCF382F31713130E5
:1036900019F78E7F8860E0CF282F2171213121F723
:1036A0008E7E8861E1CF80E0089508950E94E21740
:1036B000811102C00E9484180E94ED1780931803A4
:1036C0000E94F5179093D4038093D3030E94551B57
:1036D0000E94F117682F70E090E080E00E94F711DF
:1036E0006091890270918A0280918B0290918C0284
:1036F0000C942F1208950C941D0AE82FF0E0ED5160
:10370000FC4F8081089508950E94F406E5EDF3E0F2
:10371000A3EEB3E011921D9283E0E33EF807D1F7E8
:103720008EE00E94A81B0C94220BCF9385ED93E0B2
:103730000E94FF06C82F282F4EE063EE73E085ED50
:1037400093E00E94BB1B0E942A0B8C2FCF910895FF
:10375000CF93C82F90E00E947D2F80931C039093FD
:103760001D03282FFC018E2F821B8C1710F0CF9188
:1037700008951192F8CFDF92EF92FF920F931F936B
:10378000CF93DF93082FF92EE62ED72E142FC22FBA
:10379000D0911903DD2309F448C00E940428209128
:1037A0001A0330911B03AC01421B530B9A019093F7
:1037B0001B0380931A034F3F510509F0C8F4452BB2
:1037C00099F01092190310921E0340911C03E42FEC
:1037D000F0911D0390E030E08E2F841B811758F08C
:1037E0003093190390931E03C1112DC0CD2F1FC01C
:1037F0002FEF30E0E6CF8081882321F0281720F0DA
:1038000010829D2F3196E8CF821B80833D2FFACF07
:1038100029914C91421731F04081411103C030830E
:103820002C9381E0319611961AC0211106C0809127
:103830001E038823D1F0C11106C00E940428909372
:103840001B0380931A0390911C0380911903AE2DE2
:10385000BD2DC02FDF2DE92FF0911D033EE12E2F4E
:10386000291B2117A8F280931903DF91CF911F9193
:103870000F91FF90EF90DF9008950E94232A0E94FD
:10388000C0180C942F2A0E94332A0E94C6180C9448
:103890004D2A0E948F270E940A2A0E94AC180E947B
:1038A0003D1C0E94431C0E94BC18FBCF8091270343
:1038B00080FF12C06091C60185E0689FB0011124AD
:1038C000759567957595679560387105A8F56115CB
:1038D0007105A1F1862F089581FF09C06091C6018D
:1038E00085E0689FB001112475956795EDCF6091D3
:1038F000C60182FD0AC0809126038823D1F09091F1
:10390000C5016091C601891728F085E0689FB00164
:103910001124DACF869FB001112485E0869F9001A3
:10392000879F300D1124692F70E0C9010E94632F19
:10393000CBCF65E070E0CECF8FE7089581E00895AA
:103940008091270380FF0CC06091C30170E07595E2
:103950006795759567956115710549F1862F0895ED
:1039600081FF06C06091C30170E075956795F3CF44
:103970006091C30182FD0BC0909125039923A1F0B2
:103980006091C2018091C301961738F0682F70E0F2
:103990006038710500F38FE70895899FC0011124F5
:1039A00070E00E94632FF4CF61E070E0D7CF81E038
:1039B00008958D3E31F40E94561C819580932B030F
:1039C00008958E3E19F40E94561CF8CF8F3E31F4B4
:1039D0000E94561C819580932A030895803F19F414
:1039E0000E94561CF8CF893F29F40E94A01C8093A6
:1039F0002C0308958A3F21F40E94A01C8195F7CFE3
:103A00008B3F31F40E94A01C819580932D03089573
:103A10008C3F19F40E94A01CF8CF9FE0980F9830BB
:103A200070F4815F990B21E030E001C0220F8A958C
:103A3000EAF780912903822B8093290308958D3F13
:103A400031F48091270381608093270308958E3F8E
:103A500021F4809127038260F7CF8F3FB9F78091DF
:103A600027038460F1CF40912A038D3E59F4809161
:103A70002B0387FF0DC010922B0341110BC0109236
:103A8000260308C08E3E81F480912B0318169CF308
:103A9000442381F080912C0390912D03892B09F010
:103AA0005AC01092250308958F3E49F447FFF0CF86
:103AB00010922A0380912B038111ECCFE0CF803F3D
:103AC00019F41416ACF3E4CF90912C03893F29F438
:103AD0001916F4F610922C03DBCF8A3F19F497FFE6
:103AE000D7CFF8CF90912D038B3F29F497FFD0CFFC
:103AF00010922D03CDCF8C3F19F41916CCF3C8CFFB
:103B00009FE0980F983090F4815F990B21E030E0AE
:103B1000B90102C0660F771F8A95E2F7CB01809545
:103B200090912903892380932903B2CF8D3F31F4EB
:103B3000809127038E7F80932703AACF8E3F21F4A5
:103B4000809127038D7FF7CF8F3F09F0A1CF809120
:103B500027038B7FF0CF08950E9404289C01909149
:103B60002A0380912B03982B21F030932403209378
:103B7000230390912C0380912D03982B21F03093F7
:103B800022032093210388E293E00C947F26EF9296
:103B9000FF920F931F93CF93DF9300D000D000D0FC
:103BA000CDB7DEB786E0E8E2F3E0DE0111960190E2
:103BB0000D928A95E1F7E0902A03F0902B03009193
:103BC0002C0310912D0310922A0310922B031092B4
:103BD0002C0310922D038E2D8F2991F080912303B9
:103BE000909124030E941C28AC01909126039923F4
:103BF00009F43FC08091C7018417150608F447C037
:103C0000802F812B91F080912103909122030E94BB
:103C10001C28AC0190912503992309F477C0809169
:103C2000C4018417150608F47FC080912A0390917F
:103C30002B03892B90912C03892B90912D03892B99
:103C400011F00E94AC1D86E0FE013196A8E2B3E0BF
:103C500001900D928A95E1F726960FB6F894DEBF93
:103C60000FBECDBFDF91CF911F910F91FF90EF90CD
:103C70000895209120038AE0289F900111242417A1
:103C8000350708F0BDCF9F5F9093260302C09F3F8A
:103C9000D1F7EE2059F00E94561C9FEF1E140CF431
:103CA00091E0899F802D112480932A03FF2059F0F1
:103CB0000E94561C9FEF1F140CF491E0899F802DE9
:103CC000112480932B0330912A03332309F498CFD6
:103CD00020912B03222309F493CF45EB3403C00139
:103CE0001124992359F090932A0345EB2403900162
:103CF0001124332339F030932B0382CF81E080935A
:103D00002A03F3CF81E080932B037ACF20911F0306
:103D10008AE0289F900111242417350708F085CFE9
:103D20009F5F9093250302C09F3FD1F7002359F076
:103D30000E94A01C9FEF10160CF491E0899F802D2B
:103D4000112480932C03112359F00E94A01C9FEF93
:103D500011160CF491E0899F802D112480932D037E
:103D600030912C03332309F460CF20912D032223BB
:103D700009F45BCF45EB3403C0011124992359F0BA
:103D800090932C0345EB240390011124332339F045
:103D900030932D034ACF81E080932C03F3CF81E051
:103DA00080932D0342CF86E0E8E2F3E0DF011D922D
:103DB0008A95E9F7109226031092250310922703A3
:103DC0000895CF93DF93EC0197FF0CC0FB01828134
:103DD000882341F00E941F1FCE019F770E94961FEB
:103DE0000E946E1F81E0DF91CF9108959091F203C0
:103DF000923069F48A3048F490E009966AE070E005
:103E00000E94632F875A0C94730E8650FCCF0C943B
:103E1000750C8CE090E00E94A83090E0B0E0A0E04B
:103E20008093F2039093F303A093F403B093F5030C
:103E300008956091F2038CE090E00C94BC300E94F5
:103E40006226869581708093F7030E9462268170B6
:103E50008093F1038091F203813039F48091F7036C
:103E6000882319F089E30E94730E0E940B17809338
:103E7000F6030E941E178091F203813089F0882397
:103E800059F0823091F0843021F18FE39CE9019761
:103E9000F1F700C00000089582EE0E94740DF5CF86
:103EA00088E193E00E94BA0AF0CF8091F10381117A
:103EB00003C083E50E94730E82EE0E94740D8FE3AF
:103EC0009CE90197F1F700C0000087E50E94730E9E
:103ED000DCCF86EE0E94730E88E1F8CF8091F2036A
:103EE000813071F0882341F08230A9F08430E1F014
:103EF0008091F6030C941B1782EE0E94060EF8CFF9
:103F00008CE20E94730E8091F703882389F389E382
:103F10000E94730EEDCF82EE0E94060E8091F10397
:103F20008111E6CF83E5F4CF88E2F2CF0F931F93A0
:103F3000CF93DF938C01CCE0D0E0C8010C2E02C0FF
:103F4000969587950A94E2F78F700E94F61E249743
:103F5000CC3F8FEFD80789F7DF91CF911F910F9159
:103F600008950F931F93CF93DF93EC018B01FB0117
:103F70008281882361F00E940B17CE01825E9C45EE
:103F80008530910520F48093F2030E94191FB80137
:103F9000CE01DF91CF911F910F910C94E11ECF9331
:103FA000DF93EC01FB018281882309F420C1C43036
:103FB000FDE5DF07C8F5CB3F9CE5D90730F49E014E
:103FC00022503C452431310598F50E94F517909315
:103FD000D4038093D303C031FCE5DF0709F4E0C0CC
:103FE00008F061C0C8309CE5D90709F4CBC088F55A
:103FF000C430FCE5DF0709F4B3C0E8F4C2309CE547
:10400000D90709F4A7C08091D3038260C330DC458F
:1040100009F4A3C08091D3039091D4030E940318A4
:104020000E94941180E004C0C236EDE5DE0769F21B
:10403000DF91CF9108958091D3038061C630FCE574
:10404000DF0709F48AC008F48FC08091D30380622F
:1040500084C08091D3038D7FCC309CE5D90709F4CF
:104060007CC070F48091D3038C60CA30FCE5DF071C
:1040700009F473C008F48AC08091D3038E7F6DC0A9
:104080008091D303877FCE309CE5D90709F465C0C2
:104090008091D3038B7FCF30DC4508F45EC08091E4
:1040A000D3038F7E5AC0CD3FFCE5DF0709F474C00F
:1040B00040F5C4319CE5D90709F48AC058F4C231EF
:1040C000FCE5DF0709F474C008F46EC08091D303E7
:1040D000837F43C0CB3F9CE5D90709F449C008F072
:1040E0004DC0C531DC4509F095CF8091D30382FBEB
:1040F000992790F921E0922790FB82F990FB83F9B0
:104100002CC0C1308DE5D80709F458C088F48091DF
:10411000D4038360CF3FECE5DE0769F18091D403DF
:104120008D7FC115DD4538F18091D4038C7F23C08C
:10413000C3308DE5D80709F458C008F452C0C23620
:10414000DD4509F067CF9091D303892F8F7E94FFCF
:10415000806103C08091D30381608093D3035ACFE1
:104160008091D3038460F9CF8091D3038860F5CF29
:104170008091D40381608093D4034CCF8091D40389
:104180008260F9CF8091D3038064E7CF0E949411BD
:104190008091D3038068E1CF8091D4038E7FEBCFF1
:1041A0008091D3038F7DD9CF8091D3038F7BD5CFDF
:1041B0000E9494118091D3038F77CFCF8091D40345
:1041C000982F909591708E7F892B90FB81F9D3CF9A
:1041D0000E9494119091D303892F97FB87F98058FF
:1041E000BCCF81E00E94861815CF80E0FBCF81E034
:1041F0001FCF08950F931F93CF93DF93809199035F
:10420000E0912E031CE081111AC0DF91CF911F9124
:104210000F91089501E00E0F00932E03CE2FD0E0F2
:10422000E19FF0011124E75CFC4F83819481892B8D
:1042300029F08081918189238F3FE9F4E02F8091DB
:104240009903E81738F31092990310922E03DDCFEB
:1042500018968D919C918F3F9807D1F061E00E9454
:10426000F9201C9FF0011D9FF00D1124E75CFC4F0D
:1042700014821382E3CF1C9FD0011D9FB00D112427
:10428000A75CBC4F16968D919C911797892B01F3D3
:10429000208131814281538164817581868197813A
:1042A0000E942016DECF10929B0310929A03209159
:1042B000C9013091CA01E8E0F1E090E080E0281700
:1042C000390709F408954581411102C0148216820C
:1042D00001963796F4CFDC01609137038091380363
:1042E000962F891301C00895292F30E0F901EE0FB0
:1042F000FF1FE15DFC4F408151814A175B07A1F42C
:1043000087E08A9FA0018B9F500D1124485F5E4F6C
:1043100081E0FA0184839613E6CF2F5F3F4F23702D
:1043200033272093370308952F5F3F4F922F9370C9
:10433000D8CF7F928F929F92AF92BF92CF92DF920F
:10434000EF92FF920F931F93CF93DF93EB012C819A
:10435000211165C070909903A9E3B3E030E020E03B
:10436000812C61E070E0271508F042C01A96CD90CC
:10437000DC901B97A880B9804FEF5FEF912CE92C60
:10438000F12CF701EE0FFF1FEA0DFB1D05911491B3
:10439000C016D10609F4A701012B11F09394EFCFB9
:1043A0004F3F5407C1F1FB0102C0EE0FFF1F4A95BA
:1043B000E2F78E2AAB0102C0440F551F9A94E2F730
:1043C000415051098416150611F54A815B816CE054
:1043D000629FF001639FF00D1124E75CFC4F57834F
:1043E00046832EEF208321839187808721E02D83D0
:1043F000DF91CF911F910F91FF90EF90DF90CF90C1
:10440000BF90AF909F908F907F900C946B211496EB
:104410001C921E9213972F5F3F4F1C96A4CFDF91E3
:10442000CF911F910F91FF90EF90DF90CF90BF90B1
:10443000AF909F908F907F9008951F93CF93DF93BD
:10444000C091370317E0809138038C1307C00E9496
:10445000FA20DF91CF911F910C945321D0E0FE01FF
:10446000EE0FFF1FE15DFC4F80819181189FB0012D
:10447000199F700D1124685F7E4F0E94992121962B
:10448000C370E1CFEF92FF921F93CF93DF93FC01B4
:104490002081318110E040E050E0E52FF0E0EE0FA8
:1044A000FF1FE20FF31FA591B4911097B9F0FB0124
:1044B000C081D18140E005C0AE15BF0509F411E00F
:1044C0004F5FE42FF0E0EE0FFF1FEC0FFD1FE590B4
:1044D000F490E114F10481F75F5FDFCF112349F01D
:1044E000451708F4CB01DF91CF911F91FF90EF901A
:1044F000089590E080E0F7CF8091C801882341F1D2
:1045000080919C0390919D03009711F10E941C28BB
:1045100020919A0330919B0328173907C8F4909192
:10452000370380913803981759F00E941D2210928A
:104530009B0310929A0310929D0310929C0308957E
:104540000E94FA2010929D0310929C030C94532118
:10455000089510929D0310929C031092C8018091BF
:104560003803809337030E9453210C94FA208091E2
:10457000C80181110C94A92281E08093C80108959B
:104580002F923F924F925F926F927F928F929F9263
:10459000AF92BF92CF92DF92EF92FF920F931F9351
:1045A000CF93DF93CDB7DEB729970FB6F894DEBF70
:1045B0000FBECDBF6C013B01FB011281883FFCE5C2
:1045C0009F07F9F4112321F181E08093C801812F25
:1045D00029960FB6F894DEBF0FBECDBFDF91CF9105
:1045E0001F910F91FF90EF90DF90CF90BF90AF9011
:1045F0009F908F907F906F905F904F903F902F9003
:104600000895893F2CE5920709F04DC0111148C06B
:1046100008E011E0F12CE12C198688248394912C78
:104620008091C9019091CA01E816F90608F445C0C5
:10463000F3018281882309F45EC1F985FF2309F41F
:104640005AC10E94042890939D0380939C038091FB
:104650009903883008F591E0980F9093990398E0BA
:10466000F301DE01119601900D929A95E1F72CE08D
:10467000829FC0011124875C9C4F28E0FE01319687
:10468000DC0101900D922A95E1F72FEF3FEFFC013D
:1046900031872087D386C28611E0F9851F2797CFFF
:1046A0000E94A92294CF8A3F9C4509F0B1CF1123E3
:1046B00009F4AECF0E94B7228ACFF80160817181E0
:1046C000AA24AA94BA2C20E0422F50E0FA01EE0F5F
:1046D000FF1FE60FF71F85919491C816D90609F4BC
:1046E0005A01892B11F02F5FEFCF312CFFEFAF165E
:1046F000BF0609F444C0F80144813090C801832DFD
:10470000411180E0F82FF1703F2EF801558086812D
:10471000F3019281992309F48DC0332009F48AC0F2
:10472000511014C0A40101C0440FAA94EAF7842BCD
:10473000F801868380919A0390919B03C29730F48D
:1047400062E370E070939B0360939A03C40102C01C
:10475000880F991F2A95E2F70197F80126812817FB
:10476000190669F480919C0390919D03009781F054
:104770000E941C28C39760F021E0F8012483F9858A
:10478000F329F9872FEFE21AF20A095F1F4F48CF8A
:104790002090370390E080E020913803221215C06A
:1047A0008017910761F3A22CB12CF501EE0FFF1FCA
:1047B000E15DFC4FF182E0826FEFA61AB60A73E06A
:1047C000A722BB24A0923803DACFA22CB12CF5018A
:1047D000EE0FFF1FE15DFC4F2081318147E0429FDA
:1047E000C001439F900D1124BC01685F7E4F2B01D7
:1047F000B801C2010E9442220097A9F021E0FC0109
:1048000024838017910709F4BACF2091370322122D
:104810000AC04816590639F495012F5F3F4F23709F
:104820003327209337033FEFA31AB30A4A2D43706F
:10483000242EB2CF90E051101FC0F40102C0EE0F41
:10484000FF1F2A95E2F79F012150310928173907E8
:1048500031F4442309F44DC0C7010E946B21C40107
:1048600001C0880FAA94EAF7982F9095F8018681E5
:1048700089238683352C83CF9C010A2C02C0359571
:1048800027950A94E2F7A90141705527BC016150B0
:10489000710986239723892B41F5452B31F1F801C6
:1048A00082819381892BE1F01B821C821D821E82F2
:1048B000FEEFF983FA830E9404288160582F9D83BC
:1048C0008C83F801828193818F83988729813A8133
:1048D0004B816D817E810E942016F8011582BFCF29
:1048E00060E0C7010E94F920F8CFF22FF1705F2E2F
:1048F000B6CF532CB4CF90913703809138039817DB
:1049000019F00E941D22C8CE0E94FA2010929D0329
:1049100010929C030E945321BFCECF93DF93EB01F3
:1049200086319C4511F50E940B179A81992399F0C5
:104930008A7A91E009F490E090939E03811109C076
:1049400089E20E94C0160E94511780E0DF91CF914A
:10495000089585E3F6CF80919E03811104C089E21A
:104960000E94C716F0CF85E3FBCF81E0EFCF0F9316
:104970001F93CF93DF93C42FD22FFC018281882312
:10498000C9F04093A1030E9404289093A003809350
:104990009F0380E28C0F883008F050C0C77081E020
:1049A00001C0880FCA95EAF7DF91CF911F910F914F
:1049B0000C947B0E1091A103141335C080919F03BA
:1049C0009091A0030E941C28883C910560F5C0E2EC
:1049D000CD0F1D17B9F080E2810F883040F41770B9
:1049E00081E001C0880F1A95EAF70E94820EC83054
:1049F00048F481E09D2F977001C0880F9A95EAF7DF
:104A00000E947B0E802F0E94730EC830B8F4D770BE
:104A100081E001C0880FDA95EAF7DF91CF911F910D
:104A20000F910C94820E80E28C0F883038F4C7709E
:104A300081E001C0880FCA95EAF7EFCFDF91CF91EF
:104A40001F910F9108950F939C01CB01243F4CE5DA
:104A5000340759F1A8F4293DFCE53F0701F12A3D4F
:104A60004CE53407D1F1283D3C4591F406E221EEB6
:104A700041EE68ED7CE50E94B72480E00F91089537
:104A8000263FFCE53F07E9F0B0F0273F3C45F9F051
:104A9000FC018281882339F11092A103EFCF07E254
:104AA00025EE45EE69ED7CE5E6CF06E221EE40EE2F
:104AB00064EF7CE5E0CF07E225EE44EE65EF7CE5B0
:104AC000DACF06E221EE42EE66EF7CE5D4CF07E2D4
:104AD00025EE46EE67EF7CE5CECF08E221E045EE1D
:104AE0006AED7CE5C8CF81E0C9CF1092B9008CE0B7
:104AF0008093B80008959F92AF92BF92CF92DF92B9
:104B0000EF92FF920F931F93CF93DF93B82EEB0199
:104B10000E9404286C01EE24E394F12CC431D105E9
:104B200060F025E0E22EF12CCF3FDC0731F0CE0122
:104B300064E170E00E944F2F7B0184EAA82E94E884
:104B4000992E1092BC00A092BC000E9404288C01F7
:104B50008091BC0087FF0DC08091B900887F8830AC
:104B600039F18091B900887F803111F10FEF1FEF8B
:104B700009C00E940428801B910B8E159F0540F3ED
:104B80000EEF1FEFCF3FDC07E1F2C6010E941C28A9
:104B90008C179D07B0F2C801DF91CF911F910F9143
:104BA000FF90EF90DF90CF90BF90AF909F900895CF
:104BB000B092BB009092BC000E9404288C018091AE
:104BC000BC0087FF0AC08091B900887F883111F04E
:104BD000803461F610E000E0DECF0E940428801BE4
:104BE000910B8E159F0558F3CBCF0F931F93CF9347
:104BF000DF93EB018093BB0084E88093BC000E94AC
:104C000004288C018091BC0087FF11C02091B9005D
:104C1000287F81E090E0283211F490E080E09195C7
:104C200081959109DF91CF911F910F910895CF3F09
:104C3000DC0741F30E940428801B910B8C179D0711
:104C400008F38EEF9FEFEECF0F931F93CF93DF9379
:104C5000EC0184E88093BC000E9404288C018091C0
:104C6000BC0087FF08C08091BB0090E0DF91CF912E
:104C70001F910F910895CF3FDC0789F30E9404280C
:104C8000801B910B8C179D0750F38EEF9FEFEECF9B
:104C900084E98093BC00089590933B0280933A028C
:104CA00008959093A7038093A6030895E091A60327
:104CB000F091A703309721F00190F081E02D099445
:104CC00080E008950E9456260895E091A603F09191
:104CD000A703309799F02091D701222359F0209112
:104CE000D30327FF07C0DC012C9111962C93119759
:104CF00026E02C930280F381E02D09940895E09141
:104D0000A603F091A703309739F022E0DC012C9341
:104D10000480F581E02D099408952091A403309139
:104D2000A5032817390771F09093A5038093A40376
:104D3000E091A603F091A703309721F00680F78158
:104D4000E02D099408952091A2033091A303281720
:104D5000390771F09093A3038093A203E091A60317
:104D6000F091A703309721F00084F185E02D09949C
:104D70000895FC0132968091D701882321F080911B
:104D8000D3039EE187FF96E080E0915008F40895F8
:104D900021912223D1F38F5FF8CF662301F1209177
:104DA000D7012223F1F02091D30327FF1AC0462F09
:104DB0004695469546954E3190F4677021E030E077
:104DC00002C0220F331F6A95E2F7840F911DFC0188
:104DD000828190E02823392381E0232B69F480E04D
:104DE0000895FC01329608962191261721F0E817C4
:104DF000F907D1F7F4CF81E008959C01FC013296C8
:104E00009FEF80E04191461751F09F3F19F4411107
:104E100001C0982F8F5F8630A9F79F3F09F408954E
:104E2000290F311D97FD3A95F90162830895FC0120
:104E3000329608962191261303C0DF0111971C9228
:104E4000E817F907B9F70895E62FE695E695E69590
:104E5000EE3168F4E80FF92FF11D677021E030E0C2
:104E600001C0220F6A95EAF78281822B828308951E
:104E7000E62FE695E695E695EE3170F4E80FF92F0A
:104E8000F11D677021E030E001C0220F6A95EAF75A
:104E9000209582812823228308952091D7012223FF
:104EA00029F02091D30327FD0C9424270C94FD2690
:104EB0002091D701222329F02091D30327FD0C94C0
:104EC00038270C941727FC0132968091D70188234C
:104ED00051F08091D30387FF06C08EE1DF011D9260
:104EE0008A95E9F7089586E0F9CF08950C9475271F
:104EF000811105C081E08093A8030C94762782E09D
:104F0000FACF83E08093A8030C9476270C9478273B
:104F100081E08093A8030C9476270C948827089549
:104F200080910004843031F10E942E0B1092A9036D
:104F300088E190E020E40FB6F894A8958093600093
:104F40000FBE2093600083B7817F846083BF83B7E7
:104F5000816083BF7894889583B78E7F83BF0FB6B7
:104F6000F894A89580916000886180936000109209
:104F700060000FBE08950895CF930E9451070E94CC
:104F8000951B0E94BB27C0E08C2F0E947D1B8111C6
:104F900005C0CF5FCE30C1F7CF91089581E0FCCF3F
:104FA0000E9494110C949C0B1F921FB61F92112407
:104FB0008F939F93AF93BF938091A903811113C0E7
:104FC0008091F8039091F903A091FA03B091FB034B
:104FD0004196A11DB11D8093F8039093F903A0930E
:104FE000FA03B093FB03BF91AF919F918F911F90F4
:104FF0001FBE1F90189582E084BD93E095BD9AEF87
:1050000097BD80936E0008952FB7F8948091F803B0
:105010009091F903A091FA03B091FB032FBF08957B
:105020002FB7F8946091F8037091F9038091FA0317
:105030009091FB032FBF08959C014FB7F894809186
:10504000F8039091F903A091FA03B091FB034FBFCD
:10505000821B930B089578941F921FB61F92112400
:105060008F939F93AF93BF938091F8039091F9032F
:10507000A091FA03B091FB030196A11DB11D80938D
:10508000F8039093F903A093FA03B093FB03BF9145
:10509000AF919F918F911F901FBE1F901895F8940C
:1050A00081E08093E00080E28093D800E9ECF0E0BA
:1050B00010828FE19EE40197F1F700C000001DBA55
:1050C000109268001CBC10BE1FBA10927A00109299
:1050D0006E0010926F001092710010927200108298
:1050E000ECEBF0E0108214B817B81AB81DB810BA7B
:1050F000108215B818B81BB81EB811BA0C94003F2E
:1051000008958091CD03089508959C0182E08093D5
:10511000E9009FEF8091E800915085FD06C085ED84
:105120008A95F1F700009111F5CF8091E80085FF95
:105130000CC050E040E066E070E0C9010E94BE2A69
:105140008091E8008E778093E8000895CF93DF93F5
:10515000EC018091D7018823B1F18091D30387FFBF
:1051600032C060E282E08093E9008FEF9091E80026
:10517000815095FD06C095ED9A95F1F700008111DB
:10518000F5CF8091E80085FF1BC08091D70170E0CA
:1051900050E040E0811104C050E040E068E070E081
:1051A000CE010E94BE2A8091E8008E778093E800AD
:1051B00080E2FE01ADEAB3E001900D928A95E1F73D
:1051C000DF91CF91089568E081E0CDCF8093AA036D
:1051D0007093AC036093AB0380910004843001F5BD
:1051E00082E08093E9008FEF9091E800815095FD77
:1051F00006C095ED9A95F1F700008111F5CF8091E9
:10520000E80085FF0DC050E040E063E070E08AEA0E
:1052100093E00E94BE2A8091E8008E778093E80098
:105220000895BC0184E00C94E628BC0183E00C9452
:10523000E6288091FF03811109C00E944E2C0E9434
:10524000AB2C8091E20084608093E200089510927C
:10525000FF0308950C9488276091FC0381E061119D
:1052600001C080E00C9481279091000481E094308B
:1052700009F080E06091FC030C94862742E061EC29
:1052800081E00E94CA2B42E261EC82E00E94CA2BBC
:105290009091000481E0943009F080E06091FC037B
:1052A0000C94782780910204833009F460C030F4B4
:1052B0008130C9F1823009F49CC008958A3009F424
:1052C00088C08B3009F46EC0893009F04FC08091DE
:1052D0000104813209F04AC08091050490910604CE
:1052E000029708F043C08091E800877F8093E80030
:1052F0008091E80082FF36C09091F3008091F20027
:10530000029731F48091F100813011F0863021F460
:105310008091F1008093CD038091E8008B7780939A
:10532000E8000C94FE2B80910104813AF9F48091FD
:10533000E800877F8093E80080910504909106043F
:10534000892B61F460E28DEA93E070E00E940D2BFE
:105350008091E8008B778093E800089560E090E00A
:1053600080E0F3CF809100048111C2CF0895809135
:105370000104813AD9F78091050490910604892BA4
:10538000A9F78091E800877F8093E8008091E8008A
:1053900080FFFCCF8091D7018093F1008091E800DD
:1053A0008E77BDCF80910104813201F78091050491
:1053B00090910604892BD1F68091E800877F809335
:1053C000E8000E94FE2B809103048093D7010C9487
:1053D000941180910104813249F68091E800877F21
:1053E0008093E8000E94FE2B809104048093CE03FA
:1053F000089580910104813A09F0B8CF8091E800C6
:10540000877F8093E8008091E80080FFFCCF809147
:10541000CE03C2CF84B7877F84BF0FB6F894A89518
:1054200080916000886180936000109260000FBEE0
:1054300080E890E00FB6F89480936100909361004B
:105440000FBE0C948D270E944E2C0E94AB2CE2EED6
:10545000F0E080818460808378940C94342F8BEC0E
:1054600091E00C945126809100048530A9F480913C
:105470000004853011F00C94D0270E949027809171
:10548000FE038823A1F30E94BC27882381F30E9496
:10549000A82A0E949411EBCF089508950C94502AE5
:1054A000292F33272330310519F168F421303105D4
:1054B00009F444C02230310509F445C090E080E091
:1054C00030E020E025C02132310549F1223231059A
:1054D000A9F780E490E02BE13CE061157105C1F093
:1054E00086EB90E025E63BE06130710589F0E6CF80
:1054F00099278130910581F0009729F00297F1F604
:10550000E2EDFAE002C0E4E1FBE0849190E09F016B
:10551000FA01318320830895EAEEFAE0F6CF89E0BC
:1055200090E02AE23BE06115710591F389E090E09B
:1055300023E43BE06130710559F3C0CF82E190E094
:1055400023E53BE0E5CF8BE390E028E13BE0E0CFD3
:1055500080E189BD82E189BD09B400FEFDCF809163
:10556000D8008F7D8093D8008091E0008260809386
:10557000E0008091E00081FDFCCF0895AF92BF92E2
:10558000CF92DF92FF920F931F93CF93DF936C0123
:10559000EB018A010E941D2CF82E811123C00115F8
:1055A000110539F0F80180819181C81BD90BC80E13
:1055B000D91EB12CA12C2097A9F08091E80085FD7F
:1055C00022C08091E8008E778093E80001151105D4
:1055D000A1F0F80180819181A80EB91EB182A0824C
:1055E00085E0F82E8F2DDF91CF911F910F91FF90C5
:1055F000DF90CF90BF90AF9008950E941D2C88231C
:10560000D1F2F82EEFCFF60181916F018093F10076
:105610002197FFEFAF1ABF0ACECFFC01809107049C
:105620009091080486179707A0F06115710529F479
:105630009091E8009E779093E80090E061157105E5
:1056400051F4911108C08091E80082FF34C080E0DD
:105650000895BC01F2CF809100048823C1F1853008
:10566000C1F18091E80083FD30C08091E80082FDA7
:10567000EACF8091E80080FFE1CF8091F300209194
:10568000F200382F6115710519F02830310558F0F6
:1056900091E02830310509F090E02091E8002E7764
:1056A0002093E800CBCF81918093F1006150710984
:1056B0002F5F3F4FE7CF80910004882341F0853072
:1056C00041F08091E80083FFBECF81E0089582E041
:1056D000089583E00895FC018091070490910804E7
:1056E00086179707A0F06115710529F48091E800ED
:1056F0008E778093E80090E06115710551F4911167
:1057000008C08091E80082FF35C080E00895BC01A8
:10571000F2CF809100048823C9F18530C9F18091CE
:10572000E80083FD31C08091E80082FDEACF8091DE
:10573000E80080FFE1CF8091F3002091F200382F44
:105740006115710519F02830310558F091E02830C5
:10575000310509F090E08091E8008E778093E800B1
:10576000CBCF84918093F1003196615071092F5F06
:105770003F4FE6CF80910004882341F0853041F00F
:105780008091E80083FFBDCF81E0089582E0089515
:1057900083E00895982F973028F08F708093E90068
:1057A00081E008959093E900242F762F50E0981718
:1057B00031F07091EC002091ED005091F00021FD4E
:1057C00002C09F5FE8CF3091EB003E7F3093EB004B
:1057D0003091ED003D7F3093ED003091EB00316072
:1057E0003093EB007093EC002093ED005093F000A9
:1057F0002091EE0027FDE5CF80E00895809101041F
:1058000087FF13C08091E80082FF06C08091E80006
:105810008B778093E80004C0809100048111F2CF5F
:105820000895809100048823D9F38091E80080FFD7
:10583000F8CF8091E8008E77ECCF2091E400309192
:10584000E50095E6A9012091EC00822F817020FFF0
:1058500006C08091E80080FF06C080E00895209196
:10586000E80022FD1AC080910004882389F0853069
:1058700089F08091EB0085FD0FC02091E40030910C
:10588000E50042175307F9F29150E1F684E00895DC
:1058900082E0089583E0089581E008950E94BC2C81
:1058A0000E94C42CE0EEF0E0808181608083E8ED0E
:1058B000F0E080818F77808319BCA7EDB0E08C91F8
:1058C0008E7F8C9380818F7E80831092FF0308955A
:1058D0000F931F93CF93DF930E94BC2C0E94C42C84
:1058E000C8EDD0E088818F7788838881806888833D
:1058F00088818F7D888319BC109200041092FC036C
:105900001092FE031092FD0300EE10E0F80180817A
:105910008B7F808388818160888342E060E080E0C3
:105920000E94CA2BE1EEF0E080818E7F8083E2EE60
:10593000F0E0808181608083808188608083F801CD
:1059400080818E7F8083888180618883DF91CF9181
:105950001F910F910895E8EDF0E080818F7E8083A4
:10596000E7EDF0E080818160808384E082BF81E0A8
:105970008093FF030C94682CE8EDF0E080818E7F2B
:1059800080831092E20008951092DA001092E100F4
:1059900008951F920F920FB60F9211242F933F93E9
:1059A0004F935F936F937F938F939F93AF93BF9327
:1059B000EF93FF938091E10082FF0BC08091E200A2
:1059C00082FF07C08091E1008B7F8093E1000E94FD
:1059D000332F8091DA0080FF19C08091D80080FFBA
:1059E00015C08091DA008E7F8093DA008091D90013
:1059F00080FF96C080E189BD82E189BD09B400FEC7
:105A0000FDCF81E0809300040E9419298091E1007C
:105A100080FF19C08091E20080FF15C08091E200F4
:105A20008E7F8093E2008091E20080618093E200AB
:105A30008091D80080628093D80019BC85E0809363
:105A400000040E942C298091E10084FF2BC08091EA
:105A5000E20084FF27C080E189BD82E189BD89B56C
:105A6000982F917080FFFBCF8091D8008F7D80931D
:105A7000D8008091E1008F7E8093E1008091E20068
:105A80008F7E8093E2008091E20081608093E2004B
:105A90008091FC03882309F449C084E080930004CA
:105AA0000E9434298091E10083FF29C08091E200A7
:105AB00083FF25C08091E100877F8093E10082E031
:105AC000809300041092FC038091E1008E7F80930C
:105AD000E1008091E2008E7F8093E2008091E200FD
