:100000000C94D5060C94F2060C94F2060C94F206AD
:100010000C94F2060C94F2060C94F2060C94F20680
:100020000C94F2060C94F2060C94BD2D0C94912EB7
:100030000C94C8280C94F2060C94F2060C94F20668
:100040000C94F2060C94F2060C94F2060C94F20650
:100050000C94F2060C941F290C94F2060C94F206F0
:100060000C94F2060C94F2060C94F2060C94F20630
:100070000C94F2060C94F2060C94F2060C94F20620
:100080000C94F2060C94F2060C94F2060C94F20610
:100090000C94F2060C94F2060C94F2060C94F20600
:1000A0000C94F2060C94F2060C94F206000D010D6D
:1000B000020D030D040D050D000C010C020C030CC8
:1000C000040C050C000B010B020B030B040B050BBE
:1000D000000A010A020A030A040A050A00090109C2
:1000E00002090309040905090008010802080308B8
:1000F00004080508000701070207030704070507AE
:1001000000060106020603060406050600050105B1
:1001100002050305040505050004010402040304A7
:10012000040405040003010302030303040305039D
:1001300000020102020203020402050200010101A1
:100140000201030104010501000001000200030097
:1001500004000500617A636F707920636F70792005
:10016000272E5C4353565C2A2720276874747073CB
:100170003A2F2F7072656D696F2E626C6F622E63FD
:100180006F72652E77696E646F77732E6E65742F4C
:100190007072656D696F2D7368617265642F70721E
:1001A0006F647563742D6461746173686565742F21
:1001B0004353562F3F73763D323031382D30332D37
:1001C00032382673693D7072656D696F2D73686191
:1001D0007265642D63616E64742673723D63267369
:1001E00069673D4653395A5535456D497435513423
:1001F0006C4E68504D38666A665973527071583843
:100200005A5A53676B6F786F627A6F355241253354
:100210004427005468616E6B20796F7500646F6EBF
:1002200065007072656D696F696E632E636F6D0036
:100230002F70616765732F002F70726F6475637420
:10024000732F00646972207C2072656E616D652D6C
:100250006974656D202D6E65776E616D65207B24F8
:100260005F2E6E616D65202D7265706C6163652017
:1002700022227D01015001015000737472696E6782
:1002800000636F756C6420005468616E6B73003D91
:100290003E207B7D01015001012800636F6E737465
:1002A0002000796F752772652000776974682000D7
:1002B000796F752000796F757220006D616B652014
:1002C00000636F6D20007468656D652077617463ED
:1002D00068202D6520006769742070756C6C00675C
:1002E00069742070757368206F726967696E200089
:1002F00067697420636F6D6D6974202D6D202222F3
:100300000101500067697420616464202E00272B6E
:1003100044454C4554455F4D4554414649454C4440
:100320002B0068747470733A2F2F692E7974696D7D
:10033000672E636F6D2F76692F2F68716465666114
:10034000756C742E6A7067010150010150010150F3
:100350000101500101500101500101500101500102
:1003600001500101500101500101500101500101F2
:1003700050007374796C653D00636C6173733D224A
:100380002201015000636C6173734E616D653D2203
:1003900022010150006C6566743A20303B0101284F
:1003A00000746F703A20303B01012800686569676E
:1003B00068743A20313030253B01012800776964A8
:1003C00074683A20313030253B01012800706F738A
:1003D0006974696F6E3A206162736F6C7574653B06
:1003E00001012800636F6E74656E743A2027273B05
:1003F000010128007B252072656E646572202769E3
:100400006D672720776974682020257D01015001E0
:100410000150010150007B252072656E64657220D9
:1004200020257D010150010150010150007C206117
:100430007070656E643A2027007B252061737369B4
:10044000676E2020257D01015001015001015000FF
:10045000616C69676E2D6974656D732D006A7573C3
:10046000746966792D636F6E74656E742D00010278
:10047000E0650103E0006C6974652D796F75747532
:1004800062652E5B766964656F696420706C617962
:100490006C6162656C5D00636F6E736F6C652E6C72
:1004A0006F672829010150006469762E636F6E74AE
:1004B00061696E657201012B0001012B00696D6796
:1004C0002E5B6C6F6164696E673D226C617A792284
:1004D0002077696474683D222220686569676874C2
:1004E0003D22225D00436861726C65732043686140
:1004F00075007B252020257D01015001015001015F
:100500005000433A5C55736572735C557365725C59
:10051000736F757263655C576F726B73706163653F
:10052000735C53686F706966795C007B2520656E2B
:1005300064636F6D6D656E7420257D007B2520637F
:100540006F6D6D656E7420257D0029002B002A00DB
:10055000E100504300001E00140004001D444F45FC
:1005600001001F001A0015001B005246B15D20005B
:1005700009001600060051002B612100130017002E
:1005800019002841390022000A0007000500000078
:100590002A62010001000000010000004C6401001B
:1005A0000100000001000000E30023000D000B002B
:1005B0000E000000284224000F00110010002C0043
:1005C0002B72250018000800360031004C00260070
:1005D0001C000C0037002F00E4002700330012003D
:1005E0003800300001002E0034002D00E5003543B6
:1005F0000000010001004C000100010000003C046B
:100600003C0404111D011D0301002C001A011501F9
:100610001B01B600010036010901160106114E0149
:1006200001004B010A0317011911010001004E01DD
:100630000F03070105130000010001000100000085
:1006400001000000010001000100000001000000A5
:10065000E0003F004A022F0226020000E2004B00A9
:100660004A005000340201004A124E00520051006C
:100670002E000100E10026024D004F003400010071
:10068000010027024D023002270201004D02460000
:1006900001003100E5000100000001000100390007
:1006A00001000100000001000100F1000100010053
:1006B00001000100F900EF00F2000100FE0001005E
:1006C000ED00EE00F3000100FF000100FA00F00071
:1006D000F100010001000100B700B60001000000B8
:1006E0000100010001000000010000000100010004
:1006F00001000000010000000100B5000100010040
:10070000010000000100B6004A005000190101007C
:100710000100F3005200510006010100E100B700A2
:100720004D004F001B01AA00010001000100300232
:100730001D01A90001000F080100310001000100A6
:1007400000000100AB5D39000100010000003A002B
:10075000AB5DB25DAC5D010001003B00B35DB05D1F
:100760000100C05D01003C00B45DAE5DA95DC15DEE
:1007700001003D001301AC5DAA5D010001003E00D7
:10078000BA5DB95DB85D0000010001000100000024
:100790000100000001000100010000000100000054
:1007A00001003F005400550001000000010040001E
:1007B000240021001E00010001004100250022004C
:1007C0001F002700270042002600230020003700DA
:1007D0002E004300560057000100010001004400B4
:1007E00045002E0001000100000001000100010091
:1007F00001000100000001000100010001000100F2
:10080000010001000100B65D1A07010001000100AE
:100810000100B55D0C05010001000100D95DB75D67
:1008200006050805010001000A01010001000000A1
:1008300001000100010000000100000001000100B2
:1008400001000000010000000100010001000100A2
:100850000100000001000100010001000100010091
:100860000100010001000100010001000100010080
:100870000100010001000100010001000100010070
:100880000100010001000100010001000100010060
:1008900000000651010001000100010000000100FC
:1008A0000100010001000100010001000100010040
:1008B00001004B01010001000100010001004E0197
:1008C0000100010001000100010008050100010014
:1008D0000100010001000000010001000100000012
:1008E0000100000001000100010000000100000003
:1008F00001000100010001000100000001000100F1
:1009000001000100010001000100010001000100DF
:1009100001000100010001000100010001000100CF
:1009200001000100010001000100010001000100BF
:1009300001000100010001000000010001000100B0
:1009400001000100000001000100010001000100A0
:10095000010001000100010001000100010001008F
:1009600001004B01010001000100010001004E01E6
:100970000100010001000100010001000100000070
:100980000100010001000000010000000100010061
:100990000100000001000000010001000100010051
:1009A0000100000001000100010001000100010040
:1009B000010001000100010001000100010001002F
:1009C000010001000100010001000100010001001F
:1009D000010001000100005C0100010001000100B4
:1009E0000000010001000100010001000000010001
:1009F00001000100010001000100010024002100AC
:100A00001E00370001000100250022001F00270002
:100A10000100010026002300200001000100010068
:100A200001000100010000000100010001000000C0
:100A300001000000010001000100000001000000B1
:100A4000010001000100010001000000010001009F
:100A5000010001000100010001000100010001008E
:100A6000010001000100010001000100010001007E
:100A7000010001000100010001000100010001006E
:100A80000100010001000100000017000E001C0021
:100A90000000070011000800000007001200170006
:100AA00000001300150010000000130004003800BF
:100AB0000000130015003800000007000C001500AE
:100AC00011000800000017000E00160000000F00C3
:100AD000070000000600170000001C0015000000C1
:100AE000150008000A0000001700150008000000AB
:100AF00007001500080000001C0018000000180086
:100B0000150000001A003800000010000E00000060
:100B100006001000000017000B0008001A0000007B
:100B20000B000C00180000000B000C00130000006C
:100B30000B000C00060000000B000C00040000007D
:100B400016000C000A00000007001000080000005A
:100B50000C00170004000000160017001C00000025
:100B600006000F001B00000006000F000800000038
:100B700000000000000000002A2B280000000000F8
:100B8000000000000000000000000029000000003C
:100B90002C1E3420212224342627252E362D3738AA
:100BA000271E1F202122232425263333362E3738B3
:100BB0001F0405060708090A0B0C0D0E0F10111271
:100BC000131415161718191A1B1C1D2F3130232D3D
:100BD000350405060708090A0B0C0D0E0F1011123B
:100BE000131415161718191A1B1C1D2F3130354CEC
:100BF00000000000000000000000000000000000F5
:100C000000000000000000000000000000000000E4
:100C1000000000007E0F00D4FFFFFFC70000007837
:100C200016034500720067006F0044006F007800F3
:100C3000200045005A00000028035A0053004100DC
:100C4000200054006500630068006E006F006C00B7
:100C50006F006700790020004C00610062007300A3
:100C600000000403090409023B00020100A0FA0984
:100C700004000001030101000921110100012240CB
:100C800000070581030800040904010001030000B6
:100C90000009211101000122B6000705820320008E
:100CA000041201000200000008973274490100019B
:100CB00002000105010902A10185020901A1000547
:100CC00009190129081500250195087501810205FA
:100CD00001093009311581257F95027508810609C2
:100CE000381581257F950175088106050C0A3802A3
:100CF0001581257F950175088106C0C00501098011
:100D0000A101850319012AB700150126B700950135
:100D100075108100C0050C0901A101850419012A83
:100D2000A002150126A002950175108100C00501E1
:100D30000906A1018506050719E029E71500250127
:100D40009508750181020507190029EF1500250195
:100D500095F07501810205081901290595057501B0
:100D60009102950175039101C005010906A10105D4
:100D70000719E029E71500250195087501810295FD
:100D800001750881010507190029FF150026FF00DC
:100D90009506750881000508190129059505750155
:100DA0009102950175039101C00011241FBECFEF80
:100DB000DAE0DEBFCDBF12E0A0E0B1E0E8E8F4E6A3
:100DC00002C005900D92A635B107D9F724E0A6E53B
:100DD000B2E001C01D92AA32B207E1F70E94181DCD
:100DE0000C94E4310C9400008098889A8198899A38
:100DF00084988C9A85988D9A86988E9A87988F9ADF
:100E00000895209828982198299822982A9823981C
:100E10002B9852985A9853985B983E984698089504
:100E2000CF93C82F873070F580910601909107010C
:100E3000892B89F564E670E080E40E946F26909328
:100E4000070180930601892BD1F464E670E082E10A
:100E50000E94E9269093070180930601892B79F47B
:100E600081E090E001C0880FCA95EAF764E670E07F
:100E700080950E94E9269093070180930601CF9107
:100E80000C943C278A30B9F040F4883071F08930F6
:100E900079F0209A2898CF9108958C3091F070F0D5
:100EA0008D30B9F73E9A4698F6CF219A2998F3CF1C
:100EB000229A2A98F0CF239A2B98EDCF529A5A98DB
:100EC000EACF539A5B98E7CFCF93873050F5809164
:100ED000060190910701C0E0892B71F464E670E08F
:100EE00081E40E946F269093070180930601892B6D
:100EF00031F0C0E00E943C278C2FCF91089584E60A
:100F000090E00E94182797FF05C0909307018093F7
:100F10000601EFCFC82FC09510920701109206016D
:100F2000E9CFCFB18FB1869586958C73C3708C2B2A
:100F3000C82FC095E1CF0E94A10890E090930701CF
:100F4000809306010E9401070C94F406EF92FF9231
:100F50000F931F93CF93DF93809106019091070128
:100F6000892B91F0809158028F5F809358028111F4
:100F70000BC00E94A10890E09093070180930601A6
:100F8000892B11F40E94360802EF13E0C0E0D0E094
:100F900087E0E82EEC0E8C2F0E9410078E2D0E9409
:100FA00010078C2F0E946407F8019081F12C89179B
:100FB00019F08083FF24F3948E2D0E946407F801BA
:100FC0009781891799F0878381E08F29D82B0E9418
:100FD0000107CF5F0F5F1F4FC730D1F68D2FDF9115
:100FE000CF911F910F91FF90EF90089580E0EDCF8A
:100FF0000E94A10890E090930701809306010E944F
:1010000001070E94F406E0E0F4E0119284E0EE3083
:10101000F807D9F70895259A2D9A0895269A2E9AB9
:101020000895279A2F9A089556985E9808952598BE
:101030002D98089526982E98089527982F9808950A
:101040000E9414080E9417080E941A080C941D0898
:1010500090E0909389008093880090938B00809318
:101060008A0090938D0080938C0008950E94200840
:101070008FEF0E9428080E940B082FEF80E792E074
:10108000215080409040E1F700C000000E940E080F
:101090002FEF80E792E0215080409040E1F700C0C0
:1010A00000000E9411082FEF80E792E0215080405D
:1010B0009040E1F700C000000E9417082FEF80E782
:1010C00092E0215080409040E1F700C000000E9473
:1010D0001A082FEF80E792E0215080409040E1F71E
:1010E00000C000000E941D080C94200889EA80932B
:1010F000800089E08093810024982C983F988AB1E1
:101100008F7C8AB96E98479A8BB180638BB9769A37
:101110000E94DF186093EC037093ED038093EE035D
:101120009093EF0367702FEF629FC0011124959594
:101130008795959587950E9428080E9436080C94FB
:10114000491C80E290E09093070180930601809112
:10115000590281110EC00E94692681E080935902D4
:101160002FEF83ED90E3215080409040E1F700C0E5
:10117000000064E670E080E40E946F26909307010F
:1011800080930601892B09F04EC064E670E080E090
:101190000E94E9269093070180930601892B09F0AC
:1011A00042C064E670E080E00E94E9269093070167
:1011B00080930601892BB9F564E670E08FE30E9405
:1011C000E9269093070180930601892B61F50E941F
:1011D0003C2764E670E080E40E946F26909307014C
:1011E00080930601892BF9F464E670E08CE00E949C
:1011F000E9269093070180930601892BA1F464E608
:1012000070E080E00E94E926909307018093060138
:10121000892B49F464E670E08FE30E94E9269093FD
:101220000701809306010E943C27809106010895E2
:101230001092EC031092ED031092EE031092EF0364
:1012400084E080618093EC036091EC037091ED0386
:101250008091EE039091EF030E94E3180C94EF1835
:10126000CF93DB01875A9D4583339105A8F4FC0198
:10127000EA51FE4C0C946B301296CC91CC2319F0B1
:101280000E945319C0E08C2FCF9108951296CC91F3
:101290008CE395E0C11108C0C1E0F5CF1296CC9166
:1012A0008BE295E0CC23C1F30E94410DECCF129666
:1012B000CC9182E095E0CC2379F3F6CF1296CC91D5
:1012C00082EF94E0CC2341F3EFCF1296CC9185EEE0
:1012D00094E0CC2309F3E8CF1296CC91CC23E1F231
:1012E0008DEB94E00E94410D89EB94E0DDCF1296E6
:1012F000CC91CC2389F282EE0E94430E8CE20E94B4
:10130000420F82EE0E94D50E81E10E94420FBBCFB8
:101310001296CC9188EA94E0CC2309F4BDCFC4CFD7
:101320001296CC9187E994E0CC2309F4B5CFBCCFD9
:101330001296CC91CC2309F4AFCF86E794E00E94BB
:10134000410D8EE694E0B0CF1296CC91CC23A1F063
:1013500080915C02811106C081E080935C0282EE84
:101360000E94430E0E94F82890935B0280935A02D9
:101370008BE20E94430E87CF8BE20E94D50E8CCF6A
:101380001296CC918DE594E0CC2309F485CF8CCFD7
:101390001296CC9180E594E0CC2309F47DCF84CFE4
:1013A0001296CC9189E394E0CC2309F475CF7CCFDD
:1013B0001296CC918DE294E0CC2309F46DCF74CFDA
:1013C0001296CC9186E194E0CC2309F465CF6CCFE2
:1013D0001296CC9184EF93E0CC2309F45DCF64CFD7
:1013E0001296CC91CC2309F457CF84EE93E00E945F
:1013F000410D8DEC93E00E94410D8DEB93E00E9436
:10140000410D8CEA93E00E94410D81EA93E00E9435
:10141000410D85E993E048CF1296CC9185E893E0A1
:10142000CC2309F439CF40CF1296CC9189E793E0D1
:10143000CC2309F431CF38CF1296CC9182E793E0D8
:10144000CC2309F429CF30CF1296CC9182E293E0DD
:10145000CC2309F421CF28CF1296CC918EE093E0D3
:10146000CC2309F419CF20CF1296CC9184E093E0DD
:10147000CC2309F411CF18CF1296CC9180EF92E0D3
:10148000CC2309F409CF10CF1296CC918FED92E0C6
:10149000CC2309F401CF08CF1296CC9186ED92E0CF
:1014A000CC2309F4F9CE00CF1296CC9186EC92E0D1
:1014B000CC2309F4F1CEF8CE1296CC9181EC92E0D7
:1014C000CC2309F4E9CEF0CE1296CC918BEB92E0CE
:1014D000CC2309F4E1CEE8CE1296CC9185EB92E0D4
:1014E000CC2309F4D9CEE0CE1296CC9180EB92E0D9
:1014F000CC2309F4D1CED8CE1296CC918AEA92E0D0
:10150000CC2309F4C9CED0CE1296CC9182EA92E0D7
:10151000CC2309F4C1CEC8CE1296CC918BE992E0CF
:10152000CC2309F4B9CEC0CE1296CC918FE892E0CC
:10153000CC2309F4B1CEB8CE1296CC9188E892E0D3
:10154000CC2309F4A9CEB0CE1296CC9181E892E0DA
:10155000CC2309F4A1CEA8CE1296CC918AE792E0D2
:10156000CC2309F499CEA0CE1296CC9183E492E0DC
:10157000CC2309F491CE98CE1296CC9188E392E0D8
:10158000CC2309F489CE90CE1296CC9180E392E0E0
:10159000CC2309F481CE88CE1296CC9182E292E0DF
:1015A000CC2309F479CE80CE1296CC918DE192E0D5
:1015B000CC2309F471CE78CE1296CC9183E192E0DF
:1015C000CC2309F469CE70CE1296CC91CC2309F4C9
:1015D00063CE84E591E068CE80915C02882371F04F
:1015E00080915A0290915B020E94102981399140AA
:1015F00028F082EE0E94D50E10925C02089581FDC3
:101600000C9411080C941D08CF92DF92EF92FF9278
:10161000CF936B017C010E944E0DC82F0E941408CD
:101620000E941A080E941708C23081F0C33061F08E
:10163000C13011F40E940B08C701B601CF91FF9091
:10164000EF90DF90CF9008950E940B080E940E0843
:10165000F3CF9C013A9521153F4150F5FC01EE274F
:10166000F170BC0166277270AC01442754709C0174
:101670002227387094FF0EC080E1EF2B09F480E040
:10168000672B09F08062452B09F08064232B89F0D9
:101690008068089581E0EF2B09F480E0672B09F062
:1016A0008260452B09F08460232B19F0886008952F
:1016B00080E00895CF93DF93EC010E94290B9E01F7
:1016C000205E31092830310510F0209739F40E944E
:1016D0004A0F8C2FDF91CF910C94430E0E943F1242
:1016E000F8CFCF93DF93EC010E94D50ECE010E947C
:1016F000290B9E01205E31092830310510F0CD2BD9
:1017000021F4DF91CF910C94510FDF91CF910C9484
:101710004612CF93DF93EC010E945A0BCE01DF916A
:10172000CF910C94710B81E008950C9430090895C9
:101730000C94970B1F93CF93DF9300D000D00F92A0
:10174000CDB7DEB749835A836B8330916B028981B1
:101750009A8131111DC06623B9F02223A9F00E949D
:101760001914182F682F89819A810E94C2136981E8
:101770007A81812F0F900F900F900F900F90DF9133
:10178000CF911F910C94301B0E94F013182FEFCFB4
:101790000E94191469817A81EDCFFC01262F868180
:1017A0009781009739F440815181628173818481EE
:1017B0000C949A0B0895CF93DF93EC0161E00E94A3
:1017C000CD0BBE01DF91CF910C94B423CF93DF9367
:1017D000EC0160E00E94CD0BBE01DF91CF910C9433
:1017E000980B0E94251C0E94A10D0E94D81F0C94EA
:1017F00076080E9470230C944A1C80E00C94A20D81
:10180000089508950E9463120E94010C2FEF84E353
:101810009CE0215080409040E1F700C000000C9413
:1018200043290F931F93CF93DF938C0161E00E94B4
:10183000CD0BEC01B8010E94950B8823D9F1B801BA
:10184000CE010E9490208823A9F1B801CE010E9408
:101850001726882379F1B801CE010E94C32088237E
:1018600049F1B801CE010E948125882319F1F801C0
:101870008281882361F0CB35FDE5DF0721F170F42B
:10188000C115ECE5DE07A1F0CF3DDC45C9F0C8018C
:10189000DF91CF911F910F910C94930BCC358DE577
:1018A000D807A1F0CD35DD4591F70E94A218EFCF02
:1018B0000E94020C80E0DF91CF911F910F9108955B
:1018C0000E945319F7CF0E94AB18E1CF0E94AE18C7
:1018D000DECF0C94000C0E944A270E94A20D0C94AB
:1018E000690CDF92EF92FF920F931F93CF93DF93D8
:1018F000E82FF0E0E059F44FD490282F2695269554
:10190000269530E0F901E05FF34F0491877010E015
:10191000082E02C0159507950A94E2F70170112769
:10192000F901E050F44FE490F12C082E02C0F59438
:10193000E7940A94E2F791E0E922FF24F901E051EB
:10194000F44FC491D0E002C0D595C7958A95E2F7CF
:10195000C170DD270115110519F081EE0E94430EBB
:10196000E114F10419F086EE0E94430E8D2D0E94C1
:10197000420FEF2819F086EE0E94D50E012B19F0C8
:1019800081EE0E94D50ECD2B51F08CE2DF91CF91EC
:101990001F910F91FF90EF90DF900C94420FDF9119
:1019A000CF911F910F91FF90EF90DF900895EF92EC
:1019B000FF920F931F93CF93DF938C01F62E8AE053
:1019C000E82EF8018491882309F454C0813009F08D
:1019D0004DC0E8012196FE018491813091F4219659
:1019E000FE0184910E94420F8E010F5F1F4F8F2DC9
:1019F000815038F3EFE9FFE03197F1F700C00000C4
:101A0000F7CF823039F4E8012296FE0184910E94DA
:101A1000430EEACF833039F4E8012296FE01849127
:101A20000E94D50EE1CF8430F9F6E8012296FE013E
:101A3000249190E080E0FE0131962053330B2A3050
:101A4000310548F0019780F2EFE9FFE03197F1F7B7
:101A500000C00000F7CFE89EA001E99E500D1124C0
:101A6000C901840F951F2491EF01E5CF0E94710CED
:101A7000E801BACFDF91CF911F910F91FF90EF90C6
:101A8000089560E00C94D70C982F9F709A50963070
:101A900018F0805D0C94710C895AFCCFCF92DF92C4
:101AA000EF92FF926C01EE24FF2420E0C114D104D8
:101AB000E104F10419F0C701B60120E1C72ED82EC8
:101AC000E92EFF24C114D104E104F10419F0285FC8
:101AD000C701B6016B017C0154E0F694E794D794FA
:101AE000C7945A95D1F7C114D104E104F10419F057
:101AF0002C5FC701B6016B017C0142E0F694E794CC
:101B0000D794C7944A95D1F7C114D104E104F104E4
:101B100019F02E5FC701B601969587957795679561
:101B2000672B682B692B09F02F5F822FFF90EF90B6
:101B3000DF90CF9008950C94FF0A81E008950C94F3
:101B40009D0D0895CF93C82F0E949B0D8C2FCF9190
:101B50000C949F0DCF93DF93EC012881898141E0A4
:101B600050E0022E01C0440F0A94EAF7A82FB0E01B
:101B7000A35ABD4F9C913A813323D9F030916D0225
:101B80003323D1F030E066E0869F200D311D112413
:101B9000220F331FF901E355FF4FE491E983F90167
:101BA000E455FF4FE491E883492B4C93DF91CF91AB
:101BB0000895392F3423E4CF40954923F6CFCF93AE
:101BC000DF93CDB7DEB72D970FB6F894DEBF0FBE0B
:101BD000CDBF49875A876B877C878D8761110E94AB
:101BE000FD178C859D85892B29F089859A85892308
:101BF0008F3F81F51D821E821F82188685E0FE01BF
:101C00003996DE01119601900D928A95E1F78C814B
:101C10009D81892B99F429813A814B815C816D8169
:101C20007E818F8198850E94EF162D960FB6F894CD
:101C3000DEBF0FBECDBFDF91CF91089589819A811C
:101C400089238F3F41F3CE0101960E94DB0B811166
:101C5000E2CFEBCFCE0109960E94AA0DCBCFFC01BB
:101C6000808191810E945B1492959F70963051F40F
:101C7000863F41F080916D0291E0892780936D024B
:101C800090936C020895CF93C82F882309F48BC0DA
:101C90008238C1F40E944A2781FD85C089E30E94F1
:101CA0008F170E9420182FEF81EE94E02150804082
:101CB0009040E1F700C0000089E30E949617CF91A1
:101CC0000C9420188338A1F40E944A2780FD6BC031
:101CD00083E50E948F170E9420182FEF81EE94E079
:101CE000215080409040E1F700C0000083E5E5CF3F
:101CF0008438A1F40E944A2782FD55C087E40E94DF
:101D00008F170E9420182FEF81EE94E02150804021
:101D10009040E1F700C0000087E4CFCF8CEF8C0F3C
:101D2000813A90F46C2F8091DC019091DD010E944A
:101D3000C127882329F08C2F0E9496170E94201813
:101D40008C2F0E948F17BBCF80E28C0F883048F415
:101D5000C77081E001C0880FCA95EAF70E94DD17BD
:101D6000AECFEBE5EC0FE33040F4F0E0EE5DFD4F7D
:101D7000808190E0CF910C948127E8E5EC0FE7316A
:101D800050F4F0E0EE0FFF1FEC50FE4F8081918188
:101D9000CF910C949727CD3E30F08C2F0E94A81D38
:101DA000CF910C947B1ECF910895882309F452C0E3
:101DB000823871F40E944A2781FF4CC089E30E9457
:101DC0008F170E94201889E30E9496170C94201800
:101DD000833859F40E944A2780FF3CC083E50E9463
:101DE0008F170E94201883E5EFCF843859F40E94A2
:101DF0004A2782FF2FC087E40E948F170E94201875
:101E000087E4E2CF9CEF980F913AF0F290E2980FBE
:101E1000983050F4877091E001C0990F8A95EAF7E5
:101E2000892F0E94E317D2CF9BE5980F933020F4BF
:101E300090E080E00C94812798E5980F973120F48A
:101E400090E080E00C9497278D3E20F00E94021EC7
:101E50000C947B1E08951F93CF93DF93182FEB01F3
:101E60000E94430E209731F4812FDF91CF911F9173
:101E70000C94D50E8FE99FE00197F1F700C00000A8
:101E80002197F0CF70E060E0893311F460E570E0F5
:101E90000C942B0F882321F00E94DD170C9420183E
:101EA0000895882321F00E94E3170C9420180895C8
:101EB0004F925F926F927F92BF92CF92DF92EF929A
:101EC000FF920F931F93CF93DF936C01C62F172FB1
:101ED000FC01D281058102950F700E94D317E82E74
:101EE0008823D1F0DD2329F1812F807F803441F0D8
:101EF00090E29C0F9830E8F0803611F4C63FC9F0AC
:101F00008091F10382FD15C082E00E9471180E9449
:101F1000D31791E0E82EE926B12EB2949FE0B922C2
:101F2000FBE0FB15C0F1EB2DF0E0E75EFD4C0C94FF
:101F30006B30E12CF1CF012F0F70812F807F11F0DA
:101F40000295007FDD2399F0002359F080E28C0F89
:101F5000883010F0C11107C0802F0E94DD170E9449
:101F600020188C2F6EC0802F0E94F017F8CF8C2F76
:101F70000E94D50E002379F080E28C0F883010F09B
:101F8000C11104C0802F0E94E31703C0802F0E945C
:101F9000F6170E9420182B2D2850330B24303105C2
:101FA00020F40E944A270E94A20DDD2339F0107F01
:101FB000103611F4C63F11F00E94C617EE2009F446
:101FC00006C20E94A91780FD02C2F60112820E9479
:101FD000A3170E942613C6010E9413120E94A31782
:101FE000DF91CF911F910F91FF90EF90DF90CF90F5
:101FF000BF907F906F905F904F900C944713212F6C
:102000002F70F22E812F807F803219F0F29480EFB2
:10201000F822CC2341F0C130E9F1DD2309F444C0BA
:102020000023E9F19ECF8091F10382FF15C0DD23EB
:1020300059F0FF2029F08F2D0E94DD170E942018F3
:1020400080E00E94430EA7CF80E00E94D50EFF20C3
:1020500009F4A1CF8F2D97CFDD2381F0011106C0A8
:102060000E9403188F290E944A0F95CF0130C1F7B3
:102070000E9403188F290E9409188DCF011106C0F4
:102080000E9416188F2D0E94510F85CF013009F440
:1020900082CFF6CFDD2329F0023008F07CCF8F2DE0
:1020A000E2CF011178CFEECF002361F3C93349F4B9
:1020B0003FEF87EE93E0315080409040E1F700C061
:1020C00000008C2F0E94D50E66CF812F86958695B5
:1020D000837069F0813009F05ECF8C2F912F93705F
:1020E000D11102C090E080E00E94972754CF8C2F3E
:1020F000912F9370D11102C090E080E00E9481275F
:102100004ACF8C2FDD2329F00E94A81D0E947B1E40
:1021100042CF0E94021EFACF812F837009F043C084
:10212000D11139CF2C2F229526952770220F220FFF
:102130006C2F6F70462E512C712C612C022E04C016
:10214000440C551C661C771C0A94D2F760E070E0C2
:10215000CB01C4FF0FC06FE070E080E090E004C0EE
:10216000660F771F881F991F2A95D2F76095709583
:1021700080959095212F26952695237064297529A1
:1021800086299729223049F058F4213019F00E940D
:10219000DA1201CF0E94C812FECE0E94EC12FBCED2
:1021A0000E94C612F8CE8695DD2311F0812F817032
:1021B000882309F4F0CE2C2F229526952770220F24
:1021C000220F6C2F6F70462E512C712C612C022E19
:1021D00004C0440C551C661C771C0A94D2F760E0BE
:1021E00070E0CB01C4FF0FC06FE070E080E090E0D2
:1021F00004C0660F771F881F991F2A95D2F7609534
:10220000709580959095212F2695269523706429A9
:10221000752986299729223049F058F4213019F080
:102220000E949D13B8CE0E948B13B5CE0E94AF13AF
:10223000B2CE0E940013AFCE012F0F70DD2329F024
:10224000802F0E9426138C2F0ECF8C2F0E94510FAF
:10225000802F0E9447139FCEC23F39F160F4C03FE8
:10226000B9F0C13F81F0DD2309F446C0011179CEF8
:10227000812F8F711EC0C33FF9F0C43FA1F7809139
:10228000F10382FF23C0812F8F71DD2311F311C071
:10229000DD2339F001117FCE812F8F710E946A13E7
:1022A0007ACE023008F077CEF7CF812F8F71D1111F
:1022B000D0CF0E9426136FCEDD2329F0812F8F719E
:1022C0000E94111368CE0E940C1365CEDD2351F0DD
:1022D000012F0F71802F0E94261363E0802F0E9430
:1022E000561859CE81E00E947118023008F453CE7E
:1022F00082E00E9471184FCE002359F0C93309F0D3
:10230000E0CEEFEFF7EE23E0E150F0402040E1F7C0
:10231000D6CE812F8F719DCFE0E1EC0FE73090F5A5
:10232000F0E0EB5DFD4C0C946B30DD2309F433CE13
:1023300080916D0291E0892780936D022CCED0931D
:102340006D0229CE81E08D27F7CFD11124CE81E017
:10235000F3CFD11120CE10926D021DCEDD2319F0E6
:102360000E94AD1718CE0E94B91715CEDD2339F0A3
:1023700080916C028823E1F210926C020CCE002353
:10238000B9F209CE80916C020023A9F0882341F0B4
:1023900080916D0291E0892780936D0210926C020A
:1023A0008C2FD1114ECE0E94D50E88E0F6011192ED
:1023B0008A95E9F7F0CD882309F4EDCDD111EBCD65
:1023C00080916D0291E0892780936D02D5CFDF91D6
:1023D000CF911F910F91FF90EF90DF90CF90BF9022
:1023E0007F906F905F904F9008950F931F93CF93BE
:1023F000DF93EC018E819F81009779F00E94321A61
:102400008C010E94C1130E94C512B801CE01DF9158
:10241000CF911F910F910C94580F688179818A8117
:102420000E946514EDCFCF93DF93EC018B819C81EB
:10243000892B29F08881998189238F3F59F4DF9175
:10244000CF910895CE010E94F511CE01DF91CF9179
:102450000C94E60BCE010E94110C8111F3CF0E9467
:10246000D317882361F38A81882349F38091F1038C
:1024700082FDE5CF82E0DF91CF910C947118882323
:1024800021F00E94F0170C9420180895882321F061
:102490000E94F6170C942018089590E080E00E94A6
:1024A000812790E080E00E9497270E94FD170E94FC
:1024B00000180E9420180E94A21F0C947B1E0E94EC
:1024C0009D170C944D120E94ED170C945F12E92F8A
:1024D000E295EF70E250EE3070F4F0E0E45DFD4C18
:1024E0000C946B30803F19F020F4883E20F481E09A
:1024F0000895843FE1F380E00895883EC0F3813F72
:10250000D1F7F5CF93FB882780F90895FC018681E8
:102510009781009721F00E94321A0C9467128081F3
:1025200091810E945B14F9CFCF93DF9300D000D04C
:102530000F92CDB7DEB70F900F900F900F900F90C6
:10254000DF91CF910895CF93DF93CDB7DEB7289772
:102550000FB6F894DEBF0FBECDBF28960FB6F89425
:10256000DEBF0FBECDBFDF91CF91089508950C94CB
:10257000B6120E94B7126093A9027093AA028093C8
:10258000AB029093AC020C944D1208950C94B912C6
:102590000F931F930091A9021091AA022091AB0200
:1025A0003091AC02602B712B822B932B1F910F91DA
:1025B0000C94B9120F931F930091A9021091AA02D3
:1025C0002091AB023091AC026023712382239323CC
:1025D0001F910F910C94B9120F931F930091A902B0
:1025E0001091AA022091AB023091AC0260277127B2
:1025F000822793271F910F910C94B9120C94040B0E
:102600000E94FE126093A5027093A6028093A70217
:102610009093A8020C944D1260E070E0CB010C94F2
:1026200000130F931F9341E050E060E070E08A01D7
:102630009B0104C0000F111F221F331F8A95D2F780
:10264000C901B8011F910F910C9400130F931F93B0
:1026500041E050E060E070E004C0440F551F661F89
:10266000771F8A95D2F78091A5029091A602A0913A
:10267000A702B091A8028A019B01082B192B2A2BD3
:102680003B2BC901B8011F910F910C9400130F93BC
:102690001F9341E050E060E070E004C0440F551F1C
:1026A000661F771F8A95D2F7CB01BA0160957095A6
:1026B000809590950091A5021091A6022091A70205
:1026C0003091A80260237123822393231F910F91DD
:1026D0000C9400130F931F9341E050E060E070E012
:1026E00004C0440F551F661F771F8A95D2F780914B
:1026F000A5029091A602A091A702B091A8028A011A
:102700009B01082719272A273B27C901B8011F91D8
:102710000F910C9400130F931F930091A502109139
:10272000A6022091A7023091A802602B712B822B68
:10273000932B1F910F910C9400130F931F930091F3
:10274000A5021091A6022091A7023091A802602351
:102750007123822393231F910F910C9400130F93E5
:102760001F930091A5021091A6022091A70230911B
:10277000A80260277127822793271F910F910C943D
:1027800000130895E92FEE0FE90FEE0F8E0F982F2B
:10279000977041E001C0440F9A95EAF786958695B7
:1027A000869595E0899FF0011124E259FD4F30E0B4
:1027B00020E070E05191DF011197CB01022E02C0A1
:1027C000969587950A94E2F78170819585278423F1
:1027D00085278C932F5F3F4F2530310559F708959A
:1027E000E92FEE0FE90FEE0F8E0F982F9770869559
:1027F0008695869525E0829FF0011124E259FD4FD0
:1028000050E040E080E0219130E0092E02C0369592
:1028100027950A94E2F721703327042E01C0220F76
:102820000A94EAF7822B4F5F5F4F4530510559F705
:102830000895BF92CF92DF92EF92FF920F931F9372
:10284000CF93DF938C01C090A502D090A602E090B8
:10285000A702F090A8028091A9029091AA02A091EB
:10286000AB02B091AC02C82AD92AEA2AFB2ACFE1EE
:10287000D0E0BC2ED701C6010C2E04C0B695A7959A
:10288000979587950A94D2F780FD0EC0219788F717
:10289000B12C8B2DDF91CF911F910F91FF90EF9075
:1028A000DF90CF90BF900895B8018C2F0E94441BF9
:1028B000019761F3EECFCF93DF93EC010E941914DF
:1028C000BE01DF91CF910C94441B1F93CF93DF93F4
:1028D000EB0190916B02992331F0CB01DF91CF9105
:1028E0001F910C945B14882379F0CB010E9419147A
:1028F000182F682FCE010E94C213BE01812FDF91D5
:10290000CF911F910C94441BCB010E94F013182F00
:10291000F4CFCF93DF93C091AD028091AE028C13C0
:1029200003C0DF91CF910895D0E0FE0183E0EE0F68
:10293000FF1F8A95E1F7E155FD4F208131814281EA
:10294000538164817581868197810E94A3122196AB
:10295000C770E3CF2091EF023091F0024091F10275
:102960005091F2026091F3027091F4028091F502AD
:102970009091F6020C94A3120F931F93CF93DF93C1
:102980008091F402807FC1F48091F1028823A1F04C
:102990008091AD021091AE026091EF027091F00251
:1029A000A091F202B091F302062F0723C091DA0141
:1029B000D091DB01181305C0DF91CF911F910F91CA
:1029C000089590E0109711F00F3F19F40196877069
:1029D000F1CF9C0143E0220F331F4A95E1F7F90143
:1029E000E155FD4F41814713F1CF40814613EECFB2
:1029F00042814111EBCF438154814A1B5B0B4C1741
:102A00005D0720F78091F4028F7080618093F4025B
:102A1000F901EC54FD4F80818F70806180838FEECF
:102A200092E00E941312DF91CF911F910F910C94AD
:102A30008914AF92BF92CF92DF92EF92FF920F93E1
:102A40001F93CF93DF93CDB7DEB765970FB6F8949A
:102A5000DEBF0FBECDBF8C0185E0F801DE015196CF
:102A600001900D928A95E1F7F801E2804FEEC42EB5
:102A700042E0D42E6091F2027091F302611571056B
:102A800009F491C19091EF022091F002892F8223E5
:102A90008F3F09F488C140815181A380B480F090B8
:102AA000F102F501E61BF70BBF01E091DA01F091AD
:102AB000DB01FF2009F42CC18091F402382F307F14
:102AC0006E177F0708F0D6C0311183C0FE2C251386
:102AD0002DC094132BC06091F5027091F602F8019D
:102AE000268137816217730709F5E1101FC08F70C7
:102AF00080618093F4020E94AA14C6010E941312FE
:102B00008091F402F80185838F2D65960FB6F894B5
:102B1000DEBF0FBECDBFDF91CF911F910F91FF9010
:102B2000EF90DF90CF90BF90AF900895AB2829F041
:102B3000842F85238F3F09F04FC180E0F82FF1707B
:102B4000DF2E80FF3CC08091AD022091AE02821347
:102B500015C0498B5A8B89899A890E945B14292F49
:102B600022952F702230F8F0243020F59F70F9F074
:102B7000F8019581907FD9F4D12C1FC090E0FC0121
:102B800033E0EE0FFF1F3A95E1F7E155FD4F31813C
:102B9000351306C03081341303C032813E110FC09B
:102BA00001968770D4CF9F7011F0882329F3805E3F
:102BB000883010F3C8010E941312FD2CA5CFEE201F
:102BC00009F4A2CF8091F40281608093F402F12C89
:102BD0009BCF25131DC094131BC04091F50250914B
:102BE000F602F801268137814217530789F4E11074
:102BF0000FC08583C8010E94131288E0F801AFEE70
:102C0000B2E001900D928A95E1F70E94AA147CCF60
:102C1000C8010E948612882349F1EE2039F1809183
:102C2000F4028032A0F02091EF023091F0023A8756
:102C300029871B86BD86AC868E878091F502909190
:102C4000F602988B8F87CE0109960E94131288E0B6
:102C5000F801AFEEB2E001900D928A95E1F70E9483
:102C6000BC140E94AA14FF24F3944ECFC8010E9402
:102C70001312F9CF311113C07A2DBD8AAC8A6E2D93
:102C80008D890E9494128FEE92E00E94131288E0C8
:102C9000F60111928A95E9F70E94AA1498CF25139C
:102CA00018C0941316C04091F5025091F602F80135
:102CB000268137814217530761F4E1100AC08583EA
:102CC000C8010E94131288E0F60111928A95E9F773
:102CD0001BCFC8010E948612882341F2EE2031F2F8
:102CE0008091F402803208F4B2CF2091EF0230914B
:102CF000F0023A8329831B82BD82AC828E8380914D
:102D0000F5029091F60298878F83CE0101969DCFB0
:102D10006E177F07D8F5FE2CEE2009F4A7CF2513F8
:102D200027C0941325C02091F5023091F602F801D6
:102D30008681978128173907D9F49091F40290FD84
:102D40000EC0907F61F08091F4028583903F09F47A
:102D500051CF982F907F905F8F70892B4ACF88E05A
:102D6000F801AFEEB2E001900D928A95E1F7CCCE7A
:102D7000C8010E94861281116ACF8091F40281609D
:102D80008093F402C8010E941312BECE7A2DBD8A30
:102D9000AC8A6E2D8D890E94941288E0F601119202
:102DA0008A95E9F732CFEE2009F460CFC8010E947E
:102DB0008612F82E882309F459CF88E0F801AFEE87
:102DC000B2E001900D928A95E1F78FEE92E00E94B9
:102DD0002F0E0E94BC1419CF81E08E25AFCECF9369
:102DE000DF93CDB7DEB760970FB6F894DEBF0FBEA6
:102DF000CDBF29873A874B875C876D877E878F8712
:102E0000988BCE0109960E9419158823D1F08C85E4
:102E10009D85892B39F029853A85822F83238F3F21
:102E200009F074C08091AD029091AE02891348C040
:102E300060960FB6F894DEBF0FBECDBFDF91CF9185
:102E4000089588E0FE013996DE01119601900D92F9
:102E50008A95E1F78C859D85892B21F389859A8553
:102E600089238F3FF9F2A091AE02B0E0CD01019627
:102E7000877099272091AD022817190671F40E94D6
:102E800063121092AE021092AD0288E0EFEEF2E013
:102E9000DF011D928A95E9F7C5CF93E0AA0FBB1F0A
:102EA0009A95E1F7A155BD4F98E0FE01319601904A
:102EB0000D929A95E1F78093AE020E948914B2CFE9
:102EC000B8E08B9FC001112481559D4F0E941915B8
:102ED000882309F4ADCFE091AD0228E0E29FF00134
:102EE0001124E155FD4F208131814281538164815C
:102EF0007581868197810E94A3128091AD0290E036
:102F00000196877099278093AD028CCF4B855C85A5
:102F10006D857E858F8598890E94A31283CF682F47
:102F20008091DC019091DD010C944128682F809103
:102F3000DC019091DD010C944C288091DC01909192
:102F4000DD010C9457288091F8028595859585952B
:102F500008958091F8028770089582E08093F702C7
:102F600081E080936D0208951092F70210926D0235
:102F700008958091F702823021F481E08093F70276
:102F80000895833011F40C94B41708958091F702DA
:102F9000823021F483E08093F7020895813011F4A8
:102FA0000C94B41708959091F802977081E009F499
:102FB00080E0089580911C03089590911C03892B53
:102FC00080931C030895809590911C0398239093FF
:102FD0001C03089580931C03089510921C03089508
:102FE00090911B03892B80931B03089580959091EA
:102FF0001B03982390931B03089510921B030895BD
:1030000010921A0308958091F902089508950C947E
:1030100006189091F10392FD08C09091F90298175B
:1030200021F08093F9020C94071808958091F90219
:10303000882329F01092F90280E00C940718089573
:10304000E091DC01F091DD0180911C038083E0912F
:10305000DC01F091DD01808190911B03892B80833D
:10306000E091DC01F091DD01808190911A03892BC0
:1030700080839091F902992381F0E091DC01F09135
:10308000DD018081892B80838091DC019091DD01BD
:103090000E94AD2781110E9416188091DC01909149
:1030A000DD010C94592708950C9453189091F10365
:1030B00092FD10C098E0899F90011124622B6093CB
:1030C000F8020E9426138091F802859585958595D2
:1030D0000C9454180C9426131092F80280E00C946F
:1030E00054189091F802809589238093F802282F34
:1030F000277091F4282F082E000C330B921713061B
:1031000059F09091F10392FD07C0859585958595BD
:103110000E9447130C946C1808959091F10392FB50
:10312000222720F9281769F080FB92F99093F10388
:103130008091F0039091F1030E94D21882E00C94E8
:10314000711808958091F10382FB882780F991E03E
:1031500089270C948D1881E00C948D1880E00C94D4
:103160008D1890E080E00E94AA3121E0893E9E4FB8
:1031700009F020E0822F089582E090E00C949C31C9
:1031800083E090E00C949C31CF9384E090E00E9427
:103190009C31C82F82E290E00E949C31982F8C2FA6
:1031A000CF910895CF93C92F682F84E090E00E94BB
:1031B000B0316C2F82E290E0CF910C94B0318FE06F
:1031C00090E00C94A431AB01BC018FE090E00C9432
:1031D000C231AB01BC0183E190E00C94C23160E0EC
:1031E00070E0CB010C94E91869EE7EEF90E080E08E
:1031F0000E94CE3160E082E090E00E94B03160E059
:1032000083E090E00E94B0311092A9021092AA02CD
:103210001092AB021092AC0260E084E090E00E9459
:10322000B03160E082E290E00E94B03160E085E081
:1032300090E00E94B03160E086E090E00E94B03102
:103240006FEF87E090E00E94B03140E050E0BA01BB
:1032500088E090E00E94C23160E08DE090E00E9442
:10326000B03140E050E0BA0188E190E00E94C23104
:1032700060E087E190E00E94B03140E050E0BA01A8
:103280008CE190E00E94C23170E060E080E290E06A
:103290000E94CE3140E050E0BA0188E190E00E9407
:1032A000C2310C9418090C94F418682F8EE090E049
:1032B0000C94B0310E940429609330037093310361
:1032C000809332039093330360932C0370932D0308
:1032D00080932E0390932F03089585B7806885BF50
:1032E00085B7806885BF0895089508950C94741972
:1032F00008950C9478190E946D1982E29CE10E9455
:1033000040270E9475190C94761981E008950C9459
:103310008519089508950E9489190C948A190E94AC
:10332000EF280E94531C0C947919AF92BF92CF9250
:10333000DF92EF92FF920F931F93CF93DF93CDB75E
:10334000DEB72A970FB6F894DEBF0FBECDBF0E943E
:10335000641C81110E945A198EE1A82E83E0B82EB8
:1033600010E000E0C02E802F0E944C1CE82EF501DA
:10337000F1905F01F81609F44DC08091340381FD8E
:103380000E94521C8F2D8E25D12CFF24F394982F50
:103390009F21D9F10E948719882399F0DE82CF827C
:1033A000EF2081E009F480E088870E94F82881609E
:1033B000782F9A8789874E815F8168858A850E94E8
:1033C000DF0DF801E25EFC4F8081F826F0820E945A
:1033D000961E0E944A2790911D03891791F10E9421
:1033E0004A2780931D032A960FB6F894DEBF0FBEBE
:1033F000CDBFDF91CF911F910F91FF90EF90DF90A4
:10340000CF90BF90AF900C94A20DD394FF0CF6E038
:10341000DF12BDCF0F5F1F4F0E30110509F0A2CF95
:103420008FEF89838A831B820E94F8288160782F1E
:103430009D838C8349815A816B818D810E94DF0D30
:10344000C6CF2A960FB6F894DEBF0FBECDBFDF9170
:10345000CF911F910F91FF90EF90DF90CF90BF9091
:10346000AF900895CF93DF930E94481BEC01811524
:1034700022E5920708F047C0811531E5930708F06F
:10348000BAC0883E910530F5803E910508F092C0A3
:10349000883A910588F4853A910508F084C0813016
:1034A000910509F487C0009709F484C0049708F0D7
:1034B00081C0D0E0C0E07EC08F3B9105D0F7C85AF4
:1034C000D0E0CC0FDD1FCB5DDD4F0990D881C02D42
:1034D000D46470C08115904250F4C11581E0D807C2
:1034E00008F068C0CD3ED10520F3D06563C0C1159A
:1034F00090E4D907F0F2C11520E5D20708F05EC0CC
:10350000DF70D06A57C0811536E5930718F581152D
:1035100045E5940708F087C0C11584E5D80708F091
:103520007DC09C2F969596959E0123703327C115DB
:10353000D34508F465C0C1E0D0E002C0CC0FDD1F68
:103540002A95E2F730E2939FC0011124C82BD92BB2
:10355000DA6830C0C11589E5D80768F4C11598E567
:10356000D90708F06AC0C11527E5D20708F0A1CF36
:10357000DD27D0661FC0C1153AE5D30708F462C045
:10358000CE0190568115904208F093CF8D2F8F7108
:103590000E94DF1B90E0982F882788279F719C014D
:1035A0002C2BE90148C0C55AD0E0CD5ADD4FC88167
:1035B000D0E0D064CE01DF91CF910895CE01E4E058
:1035C00096958795EA95E1F783702C2F2695269599
:1035D000237090E2299F90011124382B8C2F837047
:1035E000C1E0D0E002C0CC0FDD1F8A95E2F7C22B0C
:1035F000D32BDC68DFCFD82FCC27C16FD06ADACFCE
:10360000C1E0D0E002C0CC0FDD1F2A95E2F720E236
:10361000929FC0011124C82BD92BEBCFDC2FCC27D4
:10362000C46FD06AC7CF0E94DF1BC82FD0E0DC2F49
:10363000CC27CC27DF71D062BDCFDC2FCC27C06F69
:10364000D06AB8CF8C2F8F700E94DF1B34E0D695E4
:10365000C7953A95E1F7CF709C2FEC01D069AACFBE
:10366000972F70E026E0929F600D711D1124FB01E1
:1036700094E5899FE00DF11D1124EE0FFF1FE65B1D
:10368000FA4F8591949108950E94301B0C94321A40
:1036900082389105B1F1B0F48133910509F475C018
:1036A00048F48932910509F469C08A32910509F418
:1036B00073C008958533910509F459C08933910584
:1036C00001F10895833E9105A9F138F4803E9105FA
:1036D000F9F0823E910549F10895863E9105A9F1E0
:1036E000873E9105C9F1843E910519F52091F103BA
:1036F00021FF1FC08091F00384FD14C087EE90E08D
:1037000008952091F0032370A1F080EE90E00895D9
:103710002091F00320FD47C03091F10330FF09C034
:1037200024FF44C090E080E004C02091F00322FD1B
:10373000F7CF08952091F00322FD3BC03091F103B3
:1037400030FDE3CF24FFF5CFEDCF2091F00323FF31
:10375000F0CF24FDE7CFD2CF2091F00323FD2CC082
:103760003091F10331FFEECF84EE90E00895209187
:10377000F00325FFDECF89E290E008952091F00369
:1037800025FFD7CF85E390E008952091F00326FF31
:10379000D0CF8AE290E008952091F00326FFC9CFB0
:1037A00081E390E0089589E390E0089583EE90E04E
:1037B000089582EE90E0089586EE90E0089590914D
:1037C000F00392FF06C0282F28712830F9F4877F74
:1037D000846093FF06C0282F28712831F1F4877E7A
:1037E00084612091F10320FF06C0382F38713830F2
:1037F000D9F4877F816021FF06C0282F28712831E6
:10380000D1F4877E816194FD877E0895282F2471ED
:103810002430F9F68B7F8860DCCF282F2471243187
:1038200001F78B7E8861DDCF382F3171313019F788
:103830008E7F8860E0CF282F2171213121F78E7E85
:103840008861E1CF80E0089508950E94B118811148
:1038500002C00E9453190E94BC18809334030E9436
:10386000C4189093F1038093F0030E94241C0E94DB
:10387000C018682F70E090E080E00E94C61260914E
:10388000A5027091A6028091A7029091A8020C94C3
:10389000FE1208950C94EC0AE82FF0E0E050FC4F83
:1038A0008081089508950E949B07E2EFF3E0A0E075
:1038B000B4E011921D9284E0E030F807D1F78EE079
:1038C0000E94771C0C94F10BCF9382EF93E00E943F
:1038D000A607C82F282F4EE060E074E082EF93E047
:1038E0000E948A1C0E94F90B8C2FCF910895CF93D0
:1038F000C82F90E00E947130809338039093390371
:10390000282FFC018E2F821B8C1710F0CF91089569
:103910001192F8CFDF92EF92FF920F931F93CF9304
:10392000DF93082FF92EE62ED72E142FC22FD09119
:103930003503DD2309F448C00E94F828209136039E
:1039400030913703AC01421B530B9A01909337031C
:10395000809336034F3F510509F0C8F4452B99F089
:103960001092350310923A0340913803E42FF091FE
:10397000390390E030E08E2F841B811758F030938C
:10398000350390933A03C1112DC0CD2F1FC02FEFE7
:1039900030E0E6CF8081882321F0281720F01082C4
:1039A0009D2F3196E8CF821B80833D2FFACF29913E
:1039B0004C91421731F04081411103C030832C9368
:1039C00081E0319611961AC0211106C080913A0308
:1039D0008823D1F0C11106C00E94F82890933703C4
:1039E000809336039091380380913503AE2DBD2D21
:1039F000C02FDF2DE92FF09139033EE12E2F291B37
:103A00002117A8F280933503DF91CF911F910F9179
:103A1000FF90EF90DF9008950E94172B0E948F195E
:103A20000C94232B0E94272B0E9495190C94412B58
:103A30000E9483280E94FE2A0E947B190E940C1D6E
:103A40000E94121D0E948B19FBCF8091430380FFBF
:103A500012C06091E20185E0689FB0011124759564
:103A600067957595679560387105A8F561157105BD
:103A7000A1F1862F089581FF09C06091E20185E0E0
:103A8000689FB001112475956795EDCF6091E201B3
:103A900082FD0AC0809142038823D1F09091E10118
:103AA0006091E201891728F085E0689FB001112438
:103AB000DACF869FB001112485E0869F9001879F11
:103AC000300D1124692F70E0C9010E945730CBCF0F
:103AD00065E070E0CECF8FE7089581E00895809192
:103AE000430380FF0CC06091DF0170E0759567951E
:103AF000759567956115710549F1862F089581FFC8
:103B000006C06091DF0170E075956795F3CF609115
:103B1000DF0182FD0BC0909141039923A1F06091D8
:103B2000DE018091DF01961738F0682F70E0603871
:103B3000710500F38FE70895899FC001112470E09B
:103B40000E945730F4CF61E070E0D7CF81E0089554
:103B50008D3E31F40E94251D819580934703089581
:103B60008E3E19F40E94251DF8CF8F3E31F40E943D
:103B7000251D8195809346030895803F19F40E9486
:103B8000251DF8CF893F29F40E946F1D80934803BB
:103B900008958A3F21F40E946F1D8195F7CF8B3FD6
:103BA00031F40E946F1D81958093490308958C3FE5
:103BB00019F40E946F1DF8CF9FE0980F983070F4B1
:103BC000815F990B21E030E001C0220F8A95EAF76E
:103BD00080914503822B8093450308958D3F31F4F6
:103BE0008091430381608093430308958E3F21F4C5
:103BF000809143038260F7CF8F3FB9F780914303F1
:103C00008460F1CF409146038D3E59F48091470383
:103C100087FF0DC01092470341110BC01092420361
:103C200008C08E3E81F48091470318169CF344230C
:103C300081F08091480390914903892B09F05AC083
:103C40001092410308958F3E49F447FFF0CF109240
:103C50004603809147038111ECCFE0CF803F19F4F8
:103C60001416ACF3E4CF90914803893F29F4191658
:103C7000F4F610924803DBCF8A3F19F497FFD7CFB1
:103C8000F8CF909149038B3F29F497FFD0CF109242
:103C90004903CDCF8C3F19F41916CCF3C8CF9FE060
:103CA000980F983090F4815F990B21E030E0B901D2
:103CB00002C0660F771F8A95E2F7CB01809590913D
:103CC0004503892380934503B2CF8D3F31F4809122
:103CD00043038E7F80934303AACF8E3F21F48091CC
:103CE00043038D7FF7CF8F3F09F0A1CF809143032E
:103CF0008B7FF0CF08950E94F8289C019091460395
:103D000080914703982B21F03093400320933F0389
:103D10009091480380914903982B21F030933E0302
:103D200020933D0384E493E00C947327EF92FF9279
:103D30000F931F93CF93DF9300D000D000D0CDB767
:103D4000DEB786E0E4E4F3E0DE01119601900D9227
:103D50008A95E1F7E0904603F0904703009148030D
:103D600010914903109246031092470310924803A2
:103D7000109249038E2D8F2991F080913F039091ED
:103D800040030E941029AC0190914203992309F449
:103D90003FC08091E3018417150608F447C0802FC7
:103DA000812B91F080913D0390913E030E94102958
:103DB000AC0190914103992309F477C08091E0010F
:103DC0008417150608F47FC080914603909147033D
:103DD000892B90914803892B90914903892B11F0ED
:103DE0000E947B1E86E0FE013196A4E4B3E00190C0
:103DF0000D928A95E1F726960FB6F894DEBF0FBEB6
:103E0000CDBFDF91CF911F910F91FF90EF9008955B
:103E100020913C038AE0289F900111242417350744
:103E200008F0BDCF9F5F9093420302C09F3FD1F740
:103E3000EE2059F00E94251D9FEF1E140CF491E016
:103E4000899F802D112480934603FF2059F00E9402
:103E5000251D9FEF1F140CF491E0899F802D1124E4
:103E60008093470330914603332309F498CF209180
:103E70004703222309F493CF45EB3403C0011124F7
:103E8000992359F09093460345EB240390011124A4
:103E9000332339F03093470382CF81E08093460388
:103EA000F3CF81E0809347037ACF20913B038AE0F0
:103EB000289F900111242417350708F085CF9F5FB4
:103EC0009093410302C09F3FD1F7002359F00E9415
:103ED0006F1D9FEF10160CF491E0899F802D112427
:103EE00080934803112359F00E946F1D9FEF111614
:103EF0000CF491E0899F802D112480934903309127
:103F00004803332309F460CF20914903222309F4A5
:103F10005BCF45EB3403C0011124992359F09093F2
:103F2000480345EB240390011124332339F03093E7
:103F300049034ACF81E080934803F3CF81E0809327
:103F4000490342CF86E0E4E4F3E0DF011D928A9565
:103F5000E9F710924203109241031092430308952F
:103F6000CF93DF93EC0197FF0CC0FB018281882384
:103F700041F00E94FE1FCE019F770E9475200E9493
:103F80004D2081E0DF91CF91089590910F04923000
:103F900069F48A3048F490E009966AE070E00E9483
:103FA0005730875A0C94420F8650FCCF0C94440D26
:103FB0008CE090E00E949C31482F50E070E060E07F
:103FC00040930F04509310046093110470931204F3
:103FD00010924A03843009F4089584E080930F041A
:103FE000089560910F048CE090E00C94B031109231
:103FF0004A0384E080930F040C94F11F0E9456271B
:1040000086958170809314040E9456278170809356
:104010000E0480910F04813039F4809114048823B8
:1040200019F089E30E94420F0E94DA17809313046B
:104030000E94ED1780910F04813089F0882359F098
:10404000823091F0843021F18FE39CE90197F1F700
:1040500000C00000089582EE0E94430EF5CF88E173
:1040600093E00E94890BF0CF80910E04811103C070
:1040700083E50E94420F82EE0E94430E8FE39CE98B
:104080000197F1F700C0000087E50E94420FDCCFE6
:1040900086EE0E94420F88E1F8CF80910F048130B4
:1040A00071F0882341F08230A9F08430E1F08091F2
:1040B00013040C94EA1782EE0E94D50EF8CF8CE21E
:1040C0000E94420F80911404882389F389E30E949F
:1040D000420FEDCF82EE0E94D50E80910E04811129
:1040E000E6CF83E5F4CF88E2F2CF0F931F93CF930F
:1040F000DF938C01CCE0D0E0C8010C2E02C0969575
:1041000087950A94E2F78F700E94C51F2497CC3FD1
:104110008FEFD80789F7DF91CF911F910F91089505
:104120000F931F93CF93DF93EC018B01FB018281EF
:10413000882361F00E94DA178272C13EFCE5DF0736
:10414000E1F060F4C03EECE5DE0799F0B801CE0185
:10415000DF91CF911F910F910C94B01FC73EFCE5EA
:10416000DF07A0F78C2F825E80930F040E94F11F5F
:10417000EDCF811104C081E003C08111FCCF8FEF2E
:104180000E94F71FE3CFCF93DF93EC01FB01828105
:10419000882309F420C1C430FDE5DF07C8F5CB3F13
:1041A0009CE5D90730F49E0122503C45243131056D
:1041B00098F50E94C4189093F1038093F003C031E6
:1041C000FCE5DF0709F4E0C008F061C0C8309CE5F9
:1041D000D90709F4CBC088F5C430FCE5DF0709F442
:1041E000B3C0E8F4C2309CE5D90709F4A7C08091B8
:1041F000F0038260C330DC4509F4A3C08091F00372
:104200009091F1030E94D2180E94631280E004C0D2
:10421000C236EDE5DE0769F2DF91CF910895809116
:10422000F0038061C630FCE5DF0709F48AC008F4BA
:104230008FC08091F003806284C08091F0038D7FF5
:10424000CC309CE5D90709F47CC070F48091F00370
:104250008C60CA30FCE5DF0709F473C008F48AC03B
:104260008091F0038E7F6DC08091F003877FCE3008
:104270009CE5D90709F465C08091F0038B7FCF30AE
:10428000DC4508F45EC08091F0038F7E5AC0CD3FBC
:10429000FCE5DF0709F474C040F5C4319CE5D9079B
:1042A00009F48AC058F4C231FCE5DF0709F474C090
:1042B00008F46EC08091F003837F43C0CB3F9CE540
:1042C000D90709F449C008F04DC0C531DC4509F0F3
:1042D00095CF8091F00382FB992790F921E09227F6
:1042E00090FB82F990FB83F92CC0C1308DE5D80793
:1042F00009F458C088F48091F1038360CF3FECE566
:10430000DE0769F18091F1038D7FC115DD4538F13C
:104310008091F1038C7F23C0C3308DE5D80709F469
:1043200058C008F452C0C236DD4509F067CF9091FD
:10433000F003892F8F7E94FF806103C08091F0038A
:1043400081608093F0035ACF8091F0038460F9CFAD
:104350008091F0038860F5CF8091F10381608093B4
:10436000F1034CCF8091F1038260F9CF8091F0038B
:104370008064E7CF0E9463128091F0038068E1CFF0
:104380008091F1038E7FEBCF8091F0038F7DD9CFA9
:104390008091F0038F7BD5CF0E9463128091F00350
:1043A0008F77CFCF8091F103982F909591708E7F6A
:1043B000892B90FB81F9D3CF0E9463129091F00377
:1043C000892F97FB87F98058BCCF81E00E9455194F
:1043D00015CF80E0FBCF81E01FCF08950F931F938F
:1043E000CF93DF938091B603E0914B031CE08111E2
:1043F0001AC0DF91CF911F910F91089501E00E0F28
:1044000000934B03CE2FD0E0E19FF0011124EA5A34
:10441000FC4F83819481892B29F0808191818923AC
:104420008F3FE9F4E02F8091B603E81738F310923C
:10443000B60310924B03DDCF18968D919C918F3F60
:104440009807D1F061E00E94ED211C9FF0011D9FB3
:10445000F00D1124EA5AFC4F14821382E3CF1C9F03
:10446000D0011D9FB00D1124AA5ABC4F16968D91F4
:104470009C911797892B01F32081318142815381CF
:1044800064817581868197810E94EF16DECF10923C
:10449000B8031092B7032091E5013091E601E8E0FE
:1044A000F1E090E080E02817390709F4089545818C
:1044B000411102C01482168201963796F4CFDC01B6
:1044C0006091540380915503962F891301C008957C
:1044D000292F30E0F901EE0FFF1FE45BFC4F408114
:1044E00051814A175B07A1F487E08A9FA0018B9F47
:1044F000500D1124485F5E4F81E0FA0184839613CA
:10450000E6CF2F5F3F4F2370332720935403089546
:104510002F5F3F4F922F9370D8CF7F928F929F92B1
:10452000AF92BF92CF92DF92EF92FF920F931F93C1
:10453000CF93DF93EB012C81211165C07090B603FE
:10454000A6E5B3E030E020E0812C61E070E02715C3
:1045500008F042C01A96CD90DC901B97A880B980D5
:104560004FEF5FEF912CE92CF12CF701EE0FFF1FBD
:10457000EA0DFB1D05911491C016D10609F4A7019F
:10458000012B11F09394EFCF4F3F5407C1F1FB0182
:1045900002C0EE0FFF1F4A95E2F78E2AAB0102C060
:1045A000440F551F9A94E2F741505109841615069D
:1045B00011F54A815B816CE0629FF001639FF00D11
:1045C0001124EA5AFC4F578346832EEF2083218320
:1045D0009187808721E02D83DF91CF911F910F91EB
:1045E000FF90EF90DF90CF90BF90AF909F908F9013
:1045F0007F900C945F2214961C921E9213972F5F4B
:104600003F4F1C96A4CFDF91CF911F910F91FF9048
:10461000EF90DF90CF90BF90AF909F908F907F9062
:1046200008951F93CF93DF93C091540317E08091B7
:1046300055038C1307C00E94EE21DF91CF911F918B
:104640000C944722D0E0FE01EE0FFF1FE45BFC4F0D
:1046500080819181189FB001199F700D1124685FAE
:104660007E4F0E948D222196C370E1CFEF92FF9280
:104670001F93CF93DF93FC012081318110E040E054
:1046800050E0E52FF0E0EE0FFF1FE20FF31FA591C2
:10469000B4911097B9F0FB01C081D18140E005C011
:1046A000AE15BF0509F411E04F5FE42FF0E0EE0F07
:1046B000FF1FEC0FFD1FE590F490E114F10481F76A
:1046C0005F5FDFCF112349F0451708F4CB01DF917D
:1046D000CF911F91FF90EF90089590E080E0F7CF89
:1046E0008091E401882341F18091B9039091BA034C
:1046F000009711F10E9410292091B7033091B8035F
:1047000028173907C8F490915403809155039817DE
:1047100059F00E9411231092B8031092B70310921F
:10472000BA031092B90308950E94EE211092BA03C1
:104730001092B9030C94472208951092BA03109274
:10474000B9031092E40180915503809354030E94B1
:1047500047220C94EE218091E40181110C949D2359
:1047600081E08093E40108952F923F924F925F92EF
:104770006F927F928F929F92AF92BF92CF92DF9271
:10478000EF92FF920F931F93CF93DF93CDB7DEB7D6
:1047900029970FB6F894DEBF0FBECDBF6C013B0169
:1047A000FB011281883FFCE59F07F9F4112321F1F9
:1047B00081E08093E401812F29960FB6F894DEBF43
:1047C0000FBECDBFDF91CF911F910F91FF90EF9062
:1047D000DF90CF90BF90AF909F908F907F906F9021
:1047E0005F904F903F902F900895893F2CE592075E
:1047F00009F04DC0111148C008E011E0F12CE12C86
:10480000198688248394912C8091E5019091E6018A
:10481000E816F90608F445C0F3018281882309F4FB
:104820005EC1F985FF2309F45AC10E94F8289093CC
:10483000BA038093B9038091B603883008F591E0FC
:10484000980F9093B60398E0F301DE011196019062
:104850000D929A95E1F72CE0829FC00111248A5AAB
:104860009C4F28E0FE013196DC0101900D922A95C3
:10487000E1F72FEF3FEFFC0131872087D386C28617
:1048800011E0F9851F2797CF0E949D2394CF8A3F7F
:104890009C4509F0B1CF112309F4AECF0E94AB23A0
:1048A0008ACFF80160817181AA24AA94BA2C20E0F1
:1048B000422F50E0FA01EE0FFF1FE60FF71F859120
:1048C0009491C816D90609F45A01892B11F02F5F6B
:1048D000EFCF312CFFEFAF16BF0609F444C0F8014B
:1048E00044813090E401832D411180E0F82FF17074
:1048F0003F2EF80155808681F3019281992309F4B6
:104900008DC0332009F48AC0511014C0A40101C025
:10491000440FAA94EAF7842BF80186838091B703A9
:104920009091B803C29730F462E370E07093B803DB
:104930006093B703C40102C0880F991F2A95E2F75C
:104940000197F80126812817190669F48091B903A7
:104950009091BA03009781F00E941029C39760F0EC
:1049600021E0F8012483F985F329F9872FEFE21A72
:10497000F20A095F1F4F48CF2090540390E080E077
:1049800020915503221215C08017910761F3A22CC4
:10499000B12CF501EE0FFF1FE45BFC4FF182E082CA
:1049A0006FEFA61AB60A73E0A722BB24A0925503A4
:1049B000DACFA22CB12CF501EE0FFF1FE45BFC4F08
:1049C0002081318147E0429FC001439F900D112417
:1049D000BC01685F7E4F2B01B801C2010E943623E3
:1049E0000097A9F021E0FC0124838017910709F4C6
:1049F000BACF2091540322120AC04816590639F43E
:104A000095012F5F3F4F23703327209354033FEFCF
:104A1000A31AB30A4A2D4370242EB2CF90E051104E
:104A20001FC0F40102C0EE0FFF1F2A95E2F79F019D
:104A3000215031092817390731F4442309F44DC0B6
:104A4000C7010E945F22C40101C0880FAA94EAF73F
:104A5000982F9095F801868189238683352C83CF02
:104A60009C010A2C02C0359527950A94E2F7A9010A
:104A700041705527BC016150710986239723892B0A
:104A800041F5452B31F1F80182819381892BE1F0C9
:104A90001B821C821D821E82FEEFF983FA830E9414
:104AA000F8288160582F9D838C83F801828193813F
:104AB0008F83988729813A814B816D817E810E9405
:104AC000EF16F8011582BFCF60E0C7010E94ED210B
:104AD000F8CFF22FF1705F2EB6CF532CB4CF909158
:104AE000540380915503981719F00E941123C8CEE2
:104AF0000E94EE211092BA031092B9030E9447223D
:104B0000BFCECF93DF93EB0186319C4511F50E9418
:104B1000DA179A81992399F08A7A91E009F490E062
:104B20009093BB03811109C089E20E948F170E94F4
:104B3000201880E0DF91CF91089585E3F6CF809132
:104B4000BB03811104C089E20E949617F0CF85E370
:104B5000FBCF81E0EFCF0F931F93CF93DF93C42F51
:104B6000D22FFC0182818823C9F04093BE030E94AA
:104B7000F8289093BD038093BC0380E28C0F8830AB
:104B800008F050C0C77081E001C0880FCA95EAF7ED
:104B9000DF91CF911F910F910C944A0F1091BE039A
:104BA000141335C08091BC039091BD030E9410295D
:104BB000883C910560F5C0E2CD0F1D17B9F080E289
:104BC000810F883040F4177081E001C0880F1A957A
:104BD000EAF70E94510FC83048F481E09D2F97708A
:104BE00001C0880F9A95EAF70E944A0F802F0E9411
:104BF000420FC830B8F4D77081E001C0880FDA9551
:104C0000EAF7DF91CF911F910F910C94510F80E241
:104C10008C0F883038F4C77081E001C0880FCA95C6
:104C2000EAF7EFCFDF91CF911F910F9108950F9386
:104C30009C01CB01243F4CE5340759F1A8F4293DF0
:104C4000FCE53F0701F12A3D4CE53407D1F1283D51
:104C50003C4591F406E221EE41EE68ED7CE50E94D0
:104C6000AB2580E00F910895263FFCE53F07E9F072
:104C7000B0F0273F3C45F9F0FC018281882339F1EF
:104C80001092BE03EFCF07E225EE45EE69ED7CE51D
:104C9000E6CF06E221EE40EE64EF7CE5E0CF07E2EE
:104CA00025EE44EE65EF7CE5DACF06E221EE42EE3A
:104CB00066EF7CE5D4CF07E225EE46EE67EF7CE5B4
:104CC000CECF08E221E045EE6AED7CE5C8CF81E079
:104CD000C9CF1092B9008CE08093B80008959F92DC
:104CE000AF92BF92CF92DF92EF92FF920F931F93FA
:104CF000CF93DF93B82EEB010E94F8286C01EE24CD
:104D0000E394F12CC431D10560F025E0E22EF12CC2
:104D1000CF3FDC0731F0CE0164E170E00E94433008
:104D20007B0184EAA82E94E8992E1092BC00A092F0
:104D3000BC000E94F8288C018091BC0087FF0DC048
:104D40008091B900887F883039F18091B900887FDF
:104D5000803111F10FEF1FEF09C00E94F828801B6E
:104D6000910B8E159F0540F30EEF1FEFCF3FDC0731
:104D7000E1F2C6010E9410298C179D07B0F2C8010C
:104D8000DF91CF911F910F91FF90EF90DF90CF9027
:104D9000BF90AF909F900895B092BB009092BC00DE
:104DA0000E94F8288C018091BC0087FF0AC0809186
:104DB000B900887F883111F0803461F610E000E09E
:104DC000DECF0E94F828801B910B8E159F0558F3AB
:104DD000CBCF0F931F93CF93DF93EB018093BB0057
:104DE00084E88093BC000E94F8288C018091BC006C
:104DF00087FF11C02091B900287F81E090E0283220
:104E000011F490E080E0919581959109DF91CF9127
:104E10001F910F910895CF3FDC0741F30E94F828BE
:104E2000801B910B8C179D0708F38EEF9FEFEECF41
:104E30000F931F93CF93DF93EC0184E88093BC0022
:104E40000E94F8288C018091BC0087FF08C08091E7
:104E5000BB0090E0DF91CF911F910F910895CF3F5C
:104E6000DC0789F30E94F828801B910B8C179D07A3
:104E700050F38EEF9FEFEECF84E98093BC0008954E
:104E8000909357028093560208959093C4038093A1
:104E9000C3030895E091C303F091C403309721F058
:104EA0000190F081E02D099480E008950E944A2746
:104EB0000895E091C303F091C403309799F02091D5
:104EC000F301222359F02091F00327FF07C0DC01F2
:104ED0002C9111962C93119726E02C930280F3814C
:104EE000E02D09940895E091C303F091C403309735
:104EF00039F022E0DC012C930480F581E02D099447
:104F000008952091C1033091C2032817390771F029
:104F10009093C2038093C103E091C303F091C40353
:104F2000309721F00680F781E02D099408952091B3
:104F3000BF033091C0032817390771F09093C00365
:104F40008093BF03E091C303F091C403309721F035
:104F50000084F185E02D09940895FC01329680913A
:104F6000F301882321F08091F0039EE187FF96E012
:104F700080E0915008F4089521912223D1F38F5FAE
:104F8000F8CF662301F12091F3012223F1F0209163
:104F9000F00327FF1AC0462F4695469546954E3199
:104FA00090F4677021E030E002C0220F331F6A9551
:104FB000E2F7840F911DFC01828190E028233923C0
:104FC00081E0232B69F480E00895FC013296089675
:104FD0002191261721F0E817F907D1F7F4CF81E0E6
:104FE00008959C01FC0132969FEF80E041914617A5
:104FF00051F09F3F19F4411101C0982F8F5F863007
:10500000A9F79F3F09F40895290F311D97FD3A959F
:10501000F90162830895FC013296089621912613C6
:1050200003C0DF0111971C92E817F907B9F708953B
:10503000E62FE695E695E695EE3168F4E80FF92F50
:10504000F11D677021E030E001C0220F6A95EAF798
:105050008281822B82830895E62FE695E695E69578
:10506000EE3170F4E80FF92FF11D677021E030E0A8
:1050700001C0220F6A95EAF72095828128232283B6
:1050800008952091F301222329F02091F00327FDB8
:105090000C9418280C94F1272091F301222329F075
:1050A0002091F00327FD0C942C280C940B28FC0174
:1050B00032968091F301882351F08091F00387FFAD
:1050C00006C08EE1DF011D928A95E9F7089586E01A
:1050D000F9CF08950C946928811105C081E080936F
:1050E000C5030C946A2882E0FACF83E08093C5035D
:1050F0000C946A280C946C2881E08093C5030C946E
:105100006A280C947C28089580911D04843031F124
:105110000E94FD0B1092C60388E190E020E40FB6D8
:10512000F894A895809360000FBE2093600083B729
:10513000817F846083BF83B7816083BF78948895C3
:1051400083B78E7F83BF0FB6F894A89580916000D7
:10515000886180936000109260000FBE08950895EA
:10516000CF930E94F8070E94641C0E94AF28C0E001
:105170008C2F0E944C1C811105C0CF5FCE30C1F72F
:10518000CF91089581E0FCCF0E9463120C946B0CC8
:105190001F921FB61F9211248F939F93AF93BF93BB
:1051A0008091C603811113C080911504909116045B
:1051B000A0911704B09118044196A11DB11D8093D0
:1051C000150490931604A0931704B0931804BF918C
:1051D000AF919F918F911F901FBE1F90189582E0F5
:1051E00084BD93E095BD9AEF97BD80936E000895BE
:1051F0002FB7F8948091150490911604A09117048C
:10520000B09118042FBF08952FB7F894609115043A
:105210007091160480911704909118042FBF08957F
:105220009C014FB7F8948091150490911604A091B9
:105230001704B09118044FBF821B930B0895789404
:105240001F921FB61F9211248F939F93AF93BF930A
:105250008091150490911604A0911704B091180440
:105260000196A11DB11D8093150490931604A0937F
:105270001704B0931804BF91AF919F918F911F9025
:105280001FBE1F901895F89481E08093E00080E2A3
:105290008093D800E9ECF0E010828FE19EE4019762
:1052A000F1F700C000001DBA109268001CBC10BECF
:1052B0001FBA10927A0010926E0010926F00109236
:1052C0007100109272001082ECEBF0E0108214B8C2
:1052D00017B81AB81DB810BA108215B818B81BB88C
:1052E0001EB811BA0C94003F08958091EA03089506
:1052F00008959C0182E08093E9009FEF8091E8008F
:10530000915085FD06C085ED8A95F1F70000911159
:10531000F5CF8091E80085FF0CC050E040E066E0EA
:1053200070E0C9010E94B22B8091E8008E778093D3
:10533000E8000895CF93DF93EC018091F301882377
:10534000B1F18091F00387FF32C060E282E0809388
:10535000E9008FEF9091E800815095FD06C095ED32
:105360009A95F1F700008111F5CF8091E80085FF53
:105370001BC08091F30170E050E040E0811104C057
:1053800050E040E068E070E0CE010E94B22B8091D6
:10539000E8008E778093E80080E2FE01AAECB3E09B
:1053A00001900D928A95E1F7DF91CF91089568E021
:1053B00081E0CDCF8093C7037093C9036093C80386
:1053C00080911D04843001F582E08093E9008FEF25
:1053D0009091E800815095FD06C095ED9A95F1F702
:1053E00000008111F5CF8091E80085FF0DC050E0ED
:1053F00040E063E070E087EC93E00E94B22B809184
:10540000E8008E778093E8000895BC0184E00C9456
:10541000DA29BC0183E00C94DA2980911C04811103
:1054200009C00E94422D0E949F2D8091E20084605D
:105430008093E200089510921C0408950C947C2837
:105440006091190481E0611101C080E00C9475281D
:1054500090911D0481E0943009F080E0609119047E
:105460000C947A2842E061EC81E00E94BE2C42E27A
:1054700061EC82E00E94BE2C90911D0481E094308A
:1054800009F080E0609119040C946C2880911F044D
:10549000833009F460C030F48130C9F1823009F4FE
:1054A0009CC008958A3009F488C08B3009F46EC01E
:1054B000893009F04FC080911E04813209F04AC042
:1054C0008091220490912304029708F043C08091B8
:1054D000E800877F8093E8008091E80082FF36C073
:1054E0009091F3008091F200029731F48091F100E5
:1054F000813011F0863021F48091F1008093EA032D
:105500008091E8008B778093E8000C94F22C8091D6
:105510001E04813AF9F48091E800877F8093E800C7
:105520008091220490912304892B61F460E28AEC3B
:1055300093E070E00E94012C8091E8008B778093CB
:10554000E800089560E090E080E0F3CF80911D04D2
:105550008111C2CF089580911E04813AD9F78091BC
:10556000220490912304892BA9F78091E800877F7A
:105570008093E8008091E80080FFFCCF8091F301E8
:105580008093F1008091E8008E77BDCF80911E045A
:10559000813201F78091220490912304892BD1F666
:1055A0008091E800877F8093E8000E94F22C809130
:1055B00020048093F3010C94631280911E048132C5
:1055C00049F68091E800877F8093E8000E94F22CE2
:1055D000809121048093EB03089580911E04813A09
:1055E00009F0B8CF8091E800877F8093E800809130
:1055F000E80080FFFCCF8091EB03C2CF84B7877FA8
:1056000084BF0FB6F894A89580916000886180935C
:105610006000109260000FBE80E890E00FB6F89432
:1056200080936100909361000FBE0C9481280E94CA
:10563000422D0E949F2DE2EEF0E080818460808305
:1056400078940C94283087EE91E00C944527809153
:105650001D048530A9F480911D04853011F00C944F
:10566000C4280E94842880911B048823A1F30E94EF
:10567000B028882381F30E949C2B0E946312EBCFF9
:10568000089508950C94442B292F33272330310596
:1056900019F168F42130310509F444C02230310594
:1056A00009F445C090E080E030E020E025C02132E0
:1056B000310549F122323105A9F780E490E029E66D
:1056C0003DE061157105C1F086EB90E023EB3CE015
:1056D0006130710589F0E6CF99278130910581F01D
:1056E000009729F00297F1F6E0E2FCE002C0E2E662
:1056F000FCE0849190E09F01FA01318320830895BA
:10570000E8E3FCE0F6CF89E090E028E73CE06115B3
:10571000710591F389E090E021E93CE06130710589
:1057200059F3C0CF82E190E021EA3CE0E5CF8BE382
:1057300090E026E63CE0E0CF80E189BD82E189BDD2
:1057400009B400FEFDCF8091D8008F7D8093D800F2
:105750008091E00082608093E0008091E00081FD14
:10576000FCCF0895AF92BF92CF92DF92FF920F933A
:105770001F93CF93DF936C01EB018A010E94112DDF
:10578000F82E811123C00115110539F0F80180812F
:105790009181C81BD90BC80ED91EB12CA12C209702
:1057A000A9F08091E80085FD22C08091E8008E7705
:1057B0008093E80001151105A1F0F8018081918125
:1057C000A80EB91EB182A08285E0F82E8F2DDF9140
:1057D000CF911F910F91FF90DF90CF90BF90AF902E
:1057E00008950E94112D8823D1F2F82EEFCFF601F3
:1057F00081916F018093F1002197FFEFAF1ABF0AEB
:10580000CECFFC0180912404909125048617970740
:10581000A0F06115710529F49091E8009E779093AE
:10582000E80090E06115710551F4911108C0809174
:10583000E80082FF34C080E00895BC01F2CF80917F
:105840001D048823C1F18530C1F18091E80083FDFA
:1058500030C08091E80082FDEACF8091E80080FFAF
:10586000E1CF8091F3002091F200382F611571058E
:1058700019F02830310558F091E02830310509F051
:1058800090E02091E8002E772093E800CBCF819123
:105890008093F100615071092F5F3F4FE7CF8091F6
:1058A0001D04882341F0853041F08091E80083FF9A
:1058B000BECF81E0089582E0089583E00895FC0161
:1058C000809124049091250486179707A0F0611514
:1058D000710529F48091E8008E778093E80090E0CC
:1058E0006115710551F4911108C08091E80082FFA3
:1058F00035C080E00895BC01F2CF80911D0488235B
:10590000C9F18530C9F18091E80083FD31C08091F3
:10591000E80082FDEACF8091E80080FFE1CF80912E
:10592000F3002091F200382F6115710519F028302D
:10593000310558F091E02830310509F090E0809170
:10594000E8008E778093E800CBCF84918093F100BC
:105950003196615071092F5F3F4FE6CF80911D0452
:10596000882341F0853041F08091E80083FFBDCF6E
:1059700081E0089582E0089583E00895982F97309C
:1059800028F08F708093E90081E008959093E900FA
:10599000242F762F50E0981731F07091EC00209171
:1059A000ED005091F00021FD02C09F5FE8CF3091E3
:1059B000EB003E7F3093EB003091ED003D7F309364
:1059C000ED003091EB0031603093EB007093EC0010
:1059D0002093ED005093F0002091EE0027FDE5CFDD
:1059E00080E0089580911E0487FF13C08091E80035
:1059F00082FF06C08091E8008B778093E80004C0A6
:105A000080911D048111F2CF089580911D04882397
:105A1000D9F38091E80080FFF8CF8091E8008E777D
:105A2000ECCF2091E4003091E50095E6A9012091AA
:105A3000EC00822F817020FF06C08091E80080FF7B
:105A400006C080E008952091E80022FD1AC08091F0
:105A50001D04882389F0853089F08091EB0085FD55
:105A60000FC02091E4003091E50042175307F9F28E
:105A70009150E1F684E0089582E0089583E008956E
:105A800081E008950E94B02D0E94B82DE0EEF0E074
:105A9000808181608083E8EDF0E080818F77808372
:105AA00019BCA7EDB0E08C918E7F8C9380818F7EA6
:105AB000808310921C0408950F931F93CF93DF935C
:105AC0000E94B02D0E94B82DC8EDD0E088818F775C
:105AD000888388818068888388818F7D888319BCCA
