:100000000C9408070C9425070C9425070C942507DD
:100010000C9425070C9425070C9425070C942507B0
:100020000C9425070C9425070C94E42E0C94B82FFF
:100030000C94A1290C9425070C9425070C942507F2
:100040000C9425070C9425070C9425070C94250780
:100050000C9425070C94282A0C9425070C9425074A
:100060000C9425070C9425070C9425070C94250760
:100070000C9425070C9425070C9425070C94250750
:100080000C9425070C9425070C9425070C94250740
:100090000C9425070C9425070C9425070C94250730
:1000A0000C9425070C9425070C942507617A636F3F
:1000B000707920636F707920272E5C4353565C2A39
:1000C00027202768747470733A2F2F7072656D69DA
:1000D0006F2E626C6F622E636F72652E77696E642D
:1000E0006F77732E6E65742F7072656D696F2D73E7
:1000F00068617265642F70726F647563742D6461DA
:10010000746173686565742F4353562F3F73763D52
:10011000323031382D30332D32382673693D7072CC
:10012000656D696F2D7368617265642D63616E64BE
:10013000742673723D63267369673D4653395A5579
:1001400035456D49743551346C4E68504D38666A8A
:1001500066597352707158385A5A53676B6F786F7B
:10016000627A6F35524125334427006469762E74D4
:100170006578742D63656E7465723E612E616E697B
:100180006D6174652D6172726F772E67726164693B
:10019000656E742D627574746F6E2E67726164691A
:1001A000656E742D627574746F6E2D002E726F778C
:1001B0002E616C69676E2D6974656D732D63656E54
:1001C0007465722E6A7573746966792D636F6E74C7
:1001D000656E742D63656E7465722E67792D3301BB
:1001E000012B00706F736974696F6E2D72656C619D
:1001F0007469766500636F6E7461696E65722D66F1
:100200006C75696400636F6E7461696E6572006815
:100210006569676874007769647468005468616E22
:100220006B20796F7500646F6E65007072656D6923
:100230006F696E632E636F6D002F70616765732F3A
:10024000002F70726F64756374732F00646972207D
:100250007C2072656E616D652D6974656D202D6EF3
:1002600065776E616D65207B245F2E6E616D652004
:100270002D7265706C6163652022227D0101500141
:10028000015000737472696E6700636F756C64204F
:10029000005468616E6B73003D3E207B7D01015010
:1002A00001012800636F6E73742000796F752772E7
:1002B000652000776974682000796F752000796F78
:1002C000757220006D616B6520007468656D652036
:1002D0007761746368202D652000676974207075EC
:1002E0006C6C006769742070757368206F72696741
:1002F000696E200067697420636F6D6D6974202DCD
:100300006D2022220101500067697420616464201D
:100310002E00272B44454C4554455F4D45544146DE
:1003200049454C442B0068747470733A2F2F692E22
:100330007974696D672E636F6D2F76692F2F6871E1
:1003400064656661756C742E6A7067010150010105
:1003500050010150010150010150010150010150B3
:1003600001015001015001015001015001015001F2
:100370000150010150007374796C653D00636C613C
:1003800073733D222201015000636C6173734E61EF
:100390006D653D2222010150006C6566743A203083
:1003A0003B01012800746F703A20303B01012800A6
:1003B0006865696768743A20313030253B0101284F
:1003C0000077696474683A20313030253B01012898
:1003D00000706F736974696F6E3A206162736F6C3D
:1003E0007574653B01012800636F6E74656E743A25
:1003F0002027273B010128007B252072656E64655C
:10040000722027696D672720776974682020257D11
:10041000010150010150010150007B252072656EE1
:100420006465722020257D010150010150010150B9
:10043000007C20617070656E643A2027007B252067
:1004400061737369676E2020257D010150010150A1
:1004500001015000616C69676E2D6974656D732DC3
:10046000006A7573746966792D636F6E74656E7456
:100470002D000102E0650103E0006C6974652D79CF
:100480006F75747562652E5B766964656F6964204B
:10049000706C61796C6162656C5D00636F6E736F27
:1004A0006C652E6C6F672829010150006469762EF7
:1004B000636F6E7461696E657201012B0001012B1F
:1004C00000696D672E5B6C6F6164696E673D226CBD
:1004D000617A79222077696474683D2222206865F8
:1004E000696768743D22225D00436861726C6573C0
:1004F0002043686175007B252020257D0101500186
:10050000015001015000433A5C55736572735C55AC
:100510007365725C736F757263655C576F726B7332
:1005200070616365735C53686F706966795C007BAA
:100530002520656E64636F6D6D656E7420257D008A
:100540007B2520636F6D6D656E7420257D0029000D
:100550002B002A00E100504300001E00140004009C
:100560001D444F4501001F001A0015001B00524694
:10057000B95D200009001600060051002B61210022
:100580001300170019002841390022000A00070053
:10059000050000002A6401000100000001000000C5
:1005A0004C6201000100000001000000E400230093
:1005B0000D000B000E0000004C0024000F00110085
:1005C00010002C002B7225001800080036003100A6
:1005D000284226001C000C0037002F00E3002700F3
:1005E000330012003800300001002E0034002D00CE
:1005F000E50035430000010001004C00010001004E
:1006000000003C043C0404111D011D0301002C00EA
:100610001A0115011B01B60001003601090116017E
:1006200006114E0101004B010A03170119110100C7
:1006300001004E010F030701051300000100010036
:1006400001000000010000000100010001000000A5
:1006500001000000E0003F004A022F0226020000D5
:10066000E2004B004A005000340201004A124E00E2
:10067000520051002E000100E10026024D004F0003
:1006800034000100010027024D0230022702010060
:100690004D02460001003100E500010000000100AC
:1006A0000100390001000100000001000100F1001B
:1006B0000100010001000100F900EF00F20001005B
:1006C000FE000100ED00EE00F3000100FF0001005C
:1006D000FA00F000F100010001000100B700B600CF
:1006E0000100000001000100010000000100000005
:1006F0000100010001000000010000000100B50040
:1007000001000100010000000100B6004A00500095
:10071000190101000100F30052005100060101001F
:10072000E100B7004D004F001B01AA0001000100CD
:10073000010030021D01A90001000F080100310075
:100740000100010000000100B35D3900010001005B
:1007500000003A00B35DBA5DB45D010001003B00EA
:10076000BB5DB85D0100C85D01003C00BC5DB65DCD
:10077000B15DC95D01003D001301B45DB25D0100D2
:1007800001003E00C25DC15DC05D000001000100CE
:100790000100000001000000010001000100000054
:1007A0000100000001003F0054005500010000005E
:1007B00001004000240021001E0001000100410052
:1007C000250022001F0027002700420026002300EA
:1007D000200037002E0043005600570001000100A2
:1007E0000100440045002E0001000100000001004E
:1007F00001000100010001000000010001000100F2
:1008000001000100010001000100BE5D1A070100A6
:10081000010001000100BD5D0C05010001000100A7
:10082000E05DBF5D06050805010001000A01010049
:1008300001000000010001000100000001000000B3
:1008400001000100010000000100000001000100A2
:100850000100010001000000010001000100010091
:100860000100010001000100010001000100010080
:100870000100010001000100010001000100010070
:100880000100010001000100010001000100010060
:1008900001000100000006510100010001000100FB
:1008A0000000010001000100010001000100010041
:1008B0000100010001004B010100010001000100E5
:1008C00001004E01010001000100010001000805C6
:1008D0000100010001000100010000000100010011
:1008E0000100000001000000010001000100000003
:1008F00001000000010001000100010001000000F2
:1009000001000100010001000100010001000100DF
:1009100001000100010001000100010001000100CF
:1009200001000100010001000100010001000100BF
:1009300001000100010001000100010000000100B0
:1009400001000100010001000000010001000100A0
:10095000010001000100010001000100010001008F
:100960000100010001004B01010001000100010034
:1009700001004E0101000100010001000100010021
:100980000100000001000100010000000100000062
:100990000100010001000000010000000100010051
:1009A0000100010001000000010001000100010040
:1009B000010001000100010001000100010001002F
:1009C000010001000100010001000100010001001F
:1009D00001000100010001000100005C01000100B4
:1009E0000100010000000100010001000100010000
:1009F00000000100010001000100010001000100F0
:100A0000240021001E003700010001002500220003
:100A10001F00270001000100260023002000010024
:100A200001000100010001000100000001000100BF
:100A300001000000010000000100010001000000B1
:100A400001000000010001000100010001000000A0
:100A5000010001000100010001000100010001008E
:100A6000010001000100010001000100010001007E
:100A7000010001000100010001000100010001006E
:100A8000010001000100010001000100000015004B
:100A900037000A00000015003700060000001300B0
:100AA000120016001500000006000F0018000000DC
:100AB00006001100080000000B0008000C000000F8
:100AC0001A000C001700000017000E001C000000A8
:100AD00007001100080000000700120017000000C6
:100AE000130015001000000013000400380000007F
:100AF000130015003800000007000C00150011005D
:100B00000800000017000E00160000000F0007008C
:100B100000000600170000001C0015000000150072
:100B200008000A0000001700150008000000070078
:100B30001500080000001C00180000001800150037
:100B400000001A003800000010000E00000017001E
:100B50000B0008001A0000000B000C001800000039
:100B60000B000C00130000000B000C00060000003E
:100B70000B000C000400000016000C000A0000002E
:100B800007001000080000000C001700040000001F
:100B9000160017001C00000006000F001B000000DC
:100BA00006000F0008000000000000000000000028
:100BB0002A2B2800000000000000000000000000B8
:100BC00000000029000000002C1E342021222434C3
:100BD0002627252E362D3738271E1F202122232495
:100BE00025263333362E37381F0405060708090A31
:100BF0000B0C0D0E0F101112131415161718191ACD
:100C00001B1C1D2F3130232D350405060708090A4A
:100C10000B0C0D0E0F101112131415161718191AAC
:100C20001B1C1D2F3130354C00000000000000005F
:100C300000000000000000000000000000000000B4
:100C40000000000000000000000000007E0F00D443
:100C5000FFFFFFC7000000783C034300680061000D
:100C600072006C00650073002000430068006100A2
:100C7000750020004500720067006F0064006F007F
:100C8000780020004D0061006E00750066006F0066
:100C900072006D0000001A034300680061007200DA
:100CA0006C0065007300200043006800610075005F
:100CB00000000403090409025400030100A0FA091A
:100CC000040000010301010009211101000122407B
:100CD0000007058103080004090401000103010263
:100CE00000092111010001224700070582030800C5
:100CF00004090402000103000000092111010001A0
:100D0000226D000705830320000412010002000089
:100D100000089732744901000102000105010980B1
:100D2000A101850319012AB700150126B700950115
:100D300075108100C0050C0901A101850419012A63
:100D4000A002150126A002950175108100C00501C1
:100D50000906A1018506050719E029E71500250107
:100D60009508750181020507190029EF1500250175
:100D700095F0750181020508190129059505750190
:100D80009102950175039101C005010902A10109B4
:100D900001A100050919012908150025019508750B
:100DA0000181020501093009311581257F95027500
:100DB00008810609381581257F950175088106058A
:100DC0000C0A38021581257F950175088106C0C07F
:100DD00005010906A101050719E029E7150025010C
:100DE00095087501810295017508810105071900B3
:100DF00029FF150026FF00950675088100050819D2
:100E0000012905950575019102950175039101C0B0
:100E100011241FBECFEFDAE0DEBFCDBF12E0A0E0AD
:100E2000B1E0EAE2F7E602C005900D92AE38B107F4
:100E3000D9F724E0AEE8B2E001C01D92A137B207B5
:100E4000E1F70E94621D0C9444330C9400008098DA
:100E5000889A8198899A84988C9A85988D9A869890
:100E60008E9A87988F9A0895209828982198299883
:100E700022982A9823982B9852985A9853985B98BE
:100E80003E9846980895CF93C82F873078F5809183
:100E9000060190910701892B39F564E670E080E442
:100EA0000E9461279093070180930601892BD1F45A
:100EB00064E670E082E10E94CF279093070180935F
:100EC0000601892B79F481E090E001C0880FCA9572
:100ED000EAF764E670E080950E94CF2790930701BF
:100EE000809306010E942228CF9108958A30B1F0A4
:100EF00038F4883069F0893071F0209A2898F4CF5E
:100F00008C3091F070F08D30C1F73E9A4698ECCF5E
:100F1000219A2998E9CF229A2A98E6CF239A2B98EA
:100F2000E3CF529A5A98E0CF539A5B98DDCFCF9394
:100F3000873050F58091060190910701C0E0892B20
:100F400071F464E670E081E40E94612790930701E8
:100F500080930601892B31F0C0E00E9422288C2F5B
:100F6000CF91089584E690E00E94FE2797FF05C088
:100F70009093070180930601EFCFC82FC095109280
:100F8000070110920601E9CFCFB18FB18695869502
:100F90008C73C3708C2BC82FC095E1CF0E94D808EA
:100FA00090E090930701809306010E9434070E940D
:100FB00027070895EF92FF920F931F93CF93DF932C
:100FC0008091060190910701892B91F08091900208
:100FD0008F5F8093900281110BC00E94D80890E02F
:100FE0009093070180930601892B11F40E946B08EE
:100FF00009E314E0C0E0D0E087E0E82EEC0E8C2F8F
:101000000E9443078E2D0E9443078C2F0E94970752
:101010008F73F8019081F12C891719F08083FF24D8
:10102000F3948E2D0E9497078F73F801978189178B
:1010300089F0878381E08F29D82B0E943407CF5F06
:101040000F5F1F4FC730C1F68D2FCDB7DEB7E6E07B
:101050000C94B53180E0EFCF0E94D80890E09093D7
:101060000701809306010E9434070E942707E7E4E6
:10107000F4E0119284E0E535F807D9F70895259A50
:101080002D9A0895269A2E9A0895279A2F9A0895B0
:1010900056985E98089525982D98089526982E982C
:1010A000089527982F9808950E9448080E944B0899
:1010B0000E944E080E945108089590E09093890084
:1010C0008093880090938B0080938A0090938D008A
:1010D00080938C0008950E9454088FEF0E945D0851
:1010E0000E943F082FEF80E792E02150804090401F
:1010F000E1F700C000000E9442082FEF80E792E075
:10110000215080409040E1F700C000000E94450857
:101110002FEF80E792E0215080409040E1F700C03F
:1011200000000E944B082FEF80E792E021508040A2
:101130009040E1F700C000000E944E082FEF80E7CA
:1011400092E0215080409040E1F700C000000E94F2
:1011500051080E945408089589EA8093800089E02C
:101160008093810024982C983F988AB18F7C8AB90B
:101170006E98479A8BB180638BB9769A0E94411919
:101180006093330470933404809335049093360451
:1011900067702FEF629FC0011124959587959595F3
:1011A00087950E945D080E946B080E94961C089516
:1011B00080E290E090930701809306018091910274
:1011C00081110EC00E945B2781E0809391022FEF76
:1011D00083ED90E3215080409040E1F700C0000093
:1011E00064E670E080E40E94612790930701809399
:1011F0000601892B09F04EC064E670E080E00E9491
:10120000CF279093070180930601892B09F042C0F4
:1012100064E670E080E00E94CF27909307018093FE
:101220000601892BB9F564E670E08FE30E94CF27B1
:101230009093070180930601892B61F50E94222873
:1012400064E670E080E40E94612790930701809338
:101250000601892BF9F464E670E08CE00E94CF2748
:101260009093070180930601892BA1F464E670E056
:1012700080E00E94CF279093070180930601892B7D
:1012800049F464E670E08FE30E94CF279093070152
:10129000809306010E9422288091060108951092F1
:1012A000330410923404109235041092360484E012
:1012B0008061809333046091330470913404809191
:1012C0003504909136040E9446190E9454190895DD
:1012D0000E94290C0895CF93DB018F5A9D458933D5
:1012E000910508F04EC2FC01EA5BFC4C0C9487317E
:1012F0001296CC91CC2319F00E94BA19C0E08C2F21
:10130000CF9108951296CC91CC2309F43CC280E48D
:1013100095E00E94900EF3CF1296CC91CC2309F465
:1013200034C28FE295E00E94900EE9CF1296CC91E4
:10133000CC2309F42CC286E095E00E94900EDFCF0A
:101340001296CC91CC2309F424C286EF94E00E943B
:10135000900ED5CF1296CC91CC2309F41CC289EE05
:1013600094E00E94900ECBCF1296CC91CC2309F43E
:1013700014C281EC94E00E94900E8DEB94E00E94E8
:10138000900EBDCF1296CC91CC2309F408C282EE08
:101390000E94510F8CE20E94531082EE0E94E20FD5
:1013A00081E10E945310ABCF1296CC91CC2309F46B
:1013B000F8C18CEA94E00E94900EA1CF1296CC91D5
:1013C000CC2309F4F0C18BE994E00E94900E97CFF2
:1013D0001296CC91CC2309F4E8C18AE794E00E94EC
:1013E000900E82E794E00E94900E89CF1296CC91E5
:1013F000CC23A1F080919402811106C081E08093FA
:10140000940282EE0E94510F0E94012A909393024F
:10141000809392028BE20E94510F71CF8BE20E9467
:10142000E20FC1E06CCF1296CC91CC2309F4BFC17E
:1014300081E694E00E94900E62CF1296CC91CC236C
:1014400009F4B7C184E594E00E94900E58CF12963B
:10145000CC91CC2309F4AFC18DE394E00E94900EAF
:101460004ECF1296CC91CC2309F4A7C181E394E02E
:101470000E94900E44CF1296CC91CC2309F49FC1C8
:101480008AE194E00E94900E3ACF1296CC91CC2340
:1014900009F497C188EF93E00E94900E30CF129626
:1014A000CC91CC2309F48FC188EE93E00E94900E7A
:1014B00081ED93E00E94900E81EC93E00E94900EEB
:1014C00080EB93E00E94900E85EA93E00E94900EDC
:1014D00089E993E00E94900E12CF1296CC91CC2312
:1014E00009F473C189E893E00E94900E08CF129628
:1014F000CC91CC2309F46BC18DE793E00E94900E50
:10150000FECE1296CC91CC2309F463C186E793E01A
:101510000E94900EF4CE1296CC91CC2309F45BC1BC
:1015200086E293E00E94900EEACE1296CC91CC23F4
:1015300009F453C182E193E00E94900EE0CE12962E
:10154000CC91CC2309F44BC188E093E00E94900E2B
:10155000D6CE1296CC91CC2309F443C184EF92E00D
:101560000E94900ECCCE1296CC91CC2309F43BC1B4
:1015700083EE92E00E94900EC2CE1296CC91CC23C4
:1015800009F433C18AED92E00E94900EB8CE129613
:10159000CC91CC2309F42BC18AEC92E00E94900EEE
:1015A000AECE1296CC91CC2309F423C184EC92E008
:1015B0000E94900EA4CE1296CC91CC2309F41BC1AC
:1015C0008EEB92E00E94900E9ACE1296CC91CC2394
:1015D00009F413C189EB92E00E94900E90CE12960E
:1015E000CC91CC2309F40BC183EB92E00E94900EC6
:1015F00086CE1296CC91CC2309F403C18BEA92E0FB
:101600000E94900E7CCE1296CC91CC2309F4FBC0A4
:1016100084EA92E00E94900E72CE1296CC91CC2376
:1016200009F4F3C088E992E00E94900E68CE129609
:10163000CC91CC2309F4EBC081E992E00E94900E9A
:101640005ECE1296CC91CC2309F4E3C08AE892E0F6
:101650000E94900E54CE1296CC91CC2309F4DBC09C
:1016600083E892E00E94900E4ACE1296CC91CC2351
:1016700009F4D3C08CE492E00E94900E40CE129602
:10168000CC91CC2309F4CBC081E492E00E94900E6F
:1016900036CE1296CC91CC2309F4C3C089E392E0F4
:1016A0000E94900E2CCE1296CC91CC2309F4BBC094
:1016B0008BE292E00E94900E22CE1296CC91CC2327
:1016C00009F4B3C086E292E00E94900E18CE129602
:1016D000CC91CC2309F4ABC08CE192E00E94900E37
:1016E0000ECE1296CC91CC2309F4A3C086E192E0F1
:1016F0000E94900E04CE1296CC91CC2309F49BC08C
:101700008FE092E00E94900EFACD1296CC91CC23FD
:1017100009F493C085E092E00E94900EF0CD1296FD
:10172000CC91CC2309F48BC085EF91E00E94900E00
:10173000E6CD1296CC91CC2309F483C083EE91E0E0
:101740000E94900EDCCD1296CC91CC2309F47BC084
:101750008CEA91E00E94900ED2CD1296CC91CC23CF
:1017600009F473C08BE691E00E94900EC8CD1296EA
:10177000CC91CC2309F46BC08CEA90E00E94900ECF
:10178000BECDC1E0BCCDC1E0BACDC1E0B8CDC1E0B5
:10179000B6CDC1E0B4CDC1E0B2CDC1E0B0CDC1E0C5
:1017A000AECDC1E0ACCDC1E0AACDC1E0A8CDC1E0D5
:1017B000A6CDC1E0A4CDC1E0A2CDC1E0A0CDC1E0E5
:1017C0009ECDC1E09CCDC1E09ACDC1E098CDC1E0F5
:1017D00096CDC1E094CDC1E092CDC1E090CDC1E005
:1017E0008ECDC1E08CCDC1E08ACDC1E088CDC1E015
:1017F00086CDC1E084CDC1E082CDC1E080CDC1E025
:101800007ECDC1E07CCDC1E07ACDC1E078CDC1E034
:1018100076CDC1E074CDC1E072CDC1E070CDC1E044
:101820006ECDC1E06CCDC1E06ACDC1E068CDC1E054
:1018300066CDC1E064CDC1E062CDC1E060CDC1E064
:101840005ECDC1E05CCDC1E05ACDC1E058CDC1E074
:1018500056CD80919402882371F0809192029091EC
:1018600093020E94192A8139914028F082EE0E9449
:10187000E20F10929402089581FF03C00E94450870
:1018800008950E9451080895CF92DF92EF92FF923F
:10189000CF936B017C010E949F0EC82F0E944808C5
:1018A0000E944E080E944B08C23081F0C33061F0A4
:1018B000C13011F40E943F08C701B601CF91FF90DB
:1018C000EF90DF90CF9008950E943F080E94420859
:1018D000F3CF9C013A9521153F4150F5FC01EE27CD
:1018E000F170BC0166277270AC01442754709C01F2
:1018F0002227387094FF0EC080E1EF2B09F480E0BE
:10190000672B09F08062452B09F08064232B89F056
:101910008068089581E0EF2B09F480E0672B09F0DF
:101920008260452B09F08460232B19F088600895AC
:1019300080E00895CF93DF93EB010E94690CFE01D4
:101940000995DF91CF910895CF93DF93EC01805EED
:101950009109089720F062EC72E1209711F46CE590
:1019600070E1CE010E949A0C8C2F0E94510FDF91E2
:10197000CF910895CF93DF93EC010E94E20FCE0147
:10198000805E9109089720F069EC72E1209711F4CC
:1019900063E670E1CE010E949A0CDF91CF91089529
:1019A000CF93DF93EC010E94A40CC933D10549F415
:1019B0002FEF87EE93E0215080409040E1F700C088
:1019C0000000CE010E94BA0CDF91CF91089581E012
:1019D00008950E946B09089508950E94EC0C0895E3
:1019E000A5E0B0E0E6EFFCE00C949C3149835A831B
:1019F0003091960289819A81311119C0662399F03C
:101A0000222389F00E94BF14182F682F89819A81A0
:101A10000E949B1469817A81812F0E94741B2596F4
:101A2000E3E00C94B8310E94AD14182FF3CF0E945C
:101A3000BF1469817A81F1CFFC01262F86819781BD
:101A4000009739F4408151816281738184810E94C1
:101A5000F00C0895CF93DF93EC0161E00E941C0D20
:101A6000BE010E94D524DF91CF910895CF93DF93DB
:101A7000EC0160E00E941C0DBE010E94ED0CDF91A4
:101A8000CF9108950E94AC0808950E9468090895B6
:101A900008950E94E6120E94480D2FEF84E39CE017
:101AA000215080409040E1F700C0000008950E945E
:101AB000490D0E944C2A08950E94490D0E947E2AD9
:101AC00008950F931F93CF93DF938C0161E00E94E1
:101AD0001C0DEC01B8010E94E90C811106C080E0E8
:101AE000DF91CF911F910F910895B801CE010E940F
:101AF00067228823A1F3B801CE010E94DA2088234F
:101B000071F3B801CE010E940927882341F3B8017F
:101B1000CE010E940E21882311F3B801CE010E944C
:101B20007B268823E1F2F8018281882361F0CB359E
:101B3000FDE5DF0701F158F4C115ECE5DE0791F092
:101B4000CF3DDC4591F0C8010E94E70CC9CFCD35EF
:101B50008DE5D80769F090F0C83ADD45A1F70E94FD
:101B60005C0DBDCF0E94570DBACF0E94BA19F7CFB6
:101B70000E94FE18E8CF0E940819E5CF0E940C19B8
:101B8000E2CF0E947F290E94FE0E08950E94020F5C
:101B90000E9483290895B0E0A0E0E1EDFDE00C94FF
:101BA0009831E82FF0E0E855F44FD490282F26958F
:101BB0002695269530E0F901E85BF34F0491877094
:101BC00010E0082E02C0159507950A94E2F70170FF
:101BD0001127F901E85CF34FE490F12C082E02C0C4
:101BE000F594E7940A94E2F791E0E922FF24F901E1
:101BF000E85DF34FC491D0E002C0D595C7958A95B2
:101C0000E2F7C170DD270115110519F081EE0E9480
:101C1000510FE114F10419F086EE0E94510F8D2D41
:101C20000E945310E114F10419F086EE0E94E20FB5
:101C30000115110519F081EE0E94E20FCD2B19F06C
:101C40008CE20E945310CDB7DEB7E7E00C94B431BC
:101C5000EF92FF920F931F93CF93DF938C01F62E99
:101C60008AE0E82EF8018491882309F454C0813079
:101C700009F04DC0E8012196FE018491813091F474
:101C80002196FE0184910E9453108E010F5F1F4F19
:101C90008F2D815038F3EFE9FFE03197F1F700C065
:101CA0000000F7CF823039F4E8012296FE018491DA
:101CB0000E94510FEACF833039F4E8012296FE01E9
:101CC00084910E94E20FE1CF8430F9F6E801229678
:101CD000FE01249190E080E0FE0131962053330B09
:101CE0002A30310548F0019780F2EFE9FFE03197A3
:101CF000F1F700C00000F7CFE89EA001E99E500D6B
:101D00001124C901840F951F2491EF01E5CF0E9492
:101D1000CB0DE801BACFCDB7DEB7E6E00C94B53114
:101D200060E00E94280E0895982F9F709A50963078
:101D300020F0805D0E94CB0D0895895AFBCFCF9291
:101D4000DF92EF92FF926C01EE24FF2420E0C11499
:101D5000D104E104F10419F0C701B60120E1C72E56
:101D6000D82EE92EFF24C114D104E104F10419F0A6
:101D7000285FC701B6016B017C0154E0F694E7943B
:101D8000D794C7945A95D1F7C114D104E104F10452
:101D900019F02C5FC701B6016B017C0142E0F6949B
:101DA000E794D794C7944A95D1F7C114D104E104BC
:101DB000F10419F02E5FC701B601969587957795C6
:101DC0006795672B682B692B09F02F5F822FFF9097
:101DD000EF90DF90CF9008950E943C0C089581E031
:101DE00008950E94EF0E08950895CF93C82F0E9482
:101DF000EC0E8C2F0E94F10ECF91089580E00E948E
:101E0000F50E08950E9430280E94F50E08950E9454
:101E1000302890919502981721F0809395020E94A6
:101E2000F50E0895ADE0B0E0E8E1FFE00C949D31DF
:101E300049875A876B877C878D8761110E94491873
:101E40001D821E821F82188685E0FE013996DE0102
:101E5000119601900D928A95E1F78C819D81892BD5
:101E600071F429813A814B815C816D817E818F8102
:101E700098850E9467172D96E2E00C94B93189810C
:101E80009A8189238F3F69F3CE0101960E942A0D22
:101E90008111E7CFF0CFFC01808191810E94F9147C
:101EA0000895CF93C82F8823C9F08238C9F40E94BF
:101EB000302881FD13C089E30E94FE170E946A1832
:101EC0002FEF81EE94E0215080409040E1F700C078
:101ED000000089E30E9406180E946A18CF910895B5
:101EE0008338A1F40E94302880FDF8CF83E50E945A
:101EF000FE170E946A182FEF81EE94E02150804077
:101F00009040E1F700C0000083E5E4CF8438A1F4FD
:101F10000E94302882FDE2CF87E40E94FE170E94D3
:101F20006A182FEF81EE94E0215080409040E1F755
:101F300000C0000087E4CECF8CEF8C0F813A90F484
:101F40006C2F80910402909105020E94A52888239D
:101F500029F08C2F0E9406180E946A188C2F0E946C
:101F6000FE17BACF80E28C0F883048F4C77081E04A
:101F700001C0880FCA95EAF70E942918ADCFEBE59A
:101F8000EC0FE33040F4F0E0E55BFD4F808190E042
:101F90000E946528A3CFE8E5EC0FE73150F4F0E0AC
:101FA000EE0FFF1FE35EFD4F808191810E947B2831
:101FB00095CFCD3E08F492CF8C2F0E94E61D0E9453
:101FC000B91E8CCF882309F455C0823879F40E9459
:101FD000302881FF4FC089E30E94FE170E946A18D3
:101FE00089E30E9406180E946A180895833859F4FC
:101FF0000E94302880FF3EC083E50E94FE170E94A9
:102000006A1883E5EECF843859F40E94302882FFA5
:1020100031C087E40E94FE170E946A1887E4E1CF6E
:102020009CEF980F913AE8F290E2980F983050F4B4
:10203000877091E001C0990F8A95EAF7892F0E9475
:102040002F18D1CF9BE5980F933028F490E080E0D3
:102050000E946528089598E5980F973128F490E03C
:1020600080E00E947B2808958D3E20F00E94401E53
:102070000E94B91E08951F93CF93DF93182FEB0191
:102080000E94510F209739F4812F0E94E20FDF91B7
:10209000CF911F9108958FE99FE00197F1F700C05C
:1020A00000002197EFCF70E060E0893311F460E524
:1020B00070E00E943B100895882321F00E942918A7
:1020C0000E946A180895882321F00E942F180E9408
:1020D0006A180895B0E0A0E0E0E7F0E10C949631D2
:1020E0006C01D62FC72FFC011281058102950F705C
:1020F0000E941F18E82E8823B9F0E12E1123A1F0C9
:102100008C2F807F803421F080E28D0F8830C8F0E2
:102110008091380482FF15C082E00E94CD180E9491
:102120001F1891E0E82EE926BC2EB2949FE0B92258
:10213000FBE0FB15B8F1EB2DF0E0E158FC4C0C9402
:102140008731E12CF1CF0C2F0F70C07F11F0029579
:10215000007F112399F0002359F080E28D0F883021
:1021600010F0D11107C0802F0E9429180E946A1810
:102170008D2F5AC0802F0E943C18F8CF8D2F0E94BF
:10218000E20F002379F080E28D0F883010F0D1113A
:1021900004C0802F0E942F1803C0802F0E94421875
:1021A0000E946A18EB2DE850FF0B349720F40E9430
:1021B00030280E94F50EEE2089F00E941B1880FD49
:1021C0000DC0F60112820E9415180E94A313C601C9
:1021D0000E9498120E9415180E94C513CDB7DEB751
:1021E000E9E00C94B2312C2F2F70F22EC07FC03258
:1021F00019F0F29480EFF822DD2341F0D130E9F1BB
:10220000112309F444C00023E9F1B2CF80913804CE
:1022100082FD15C0112359F0FF2029F08F2D0E9457
:1022200029180E946A1880E00E94510FBBCF80E0FD
:102230000E94E20FFF2009F4B5CF8F2DABCF112301
:1022400081F0011106C00E944C188F290E945C1079
:10225000A9CF0130C1F70E944C188F290E94531852
:10226000A1CF011106C00E9460188F2D0E9463103B
:1022700099CF013009F496CFF6CF112329F002301F
:1022800008F090CF8F2DE2CF01118CCFEECF00233D
:1022900061F3D93349F43FEF87EE93E0315080404A
:1022A0009040E1F700C000008D2F0E94E20F7ACF2E
:1022B0008C2F86958695837069F0813009F072CFF6
:1022C0008D2F9C2F9370111102C090E080E00E942E
:1022D0007B2868CF8D2F9C2F9370111102C090E046
:1022E00080E00E9465285ECF8D2F112329F00E9487
:1022F000E61D0E94B91E56CF0E94401EFACF8C2FB9
:10230000837009F041C011114DCF4D2F4295469574
:102310004770440F440F0D2F0F7010E030E020E0A5
:10232000042E04C0000F111F221F331F0A94D2F77E
:1023300060E070E0CB01D4FF0FC06FE070E080E0A0
:1023400090E004C0660F771F881F991F4A95D2F747
:102350006095709580959095C695C695C370602BD5
:10236000712B822B932BC23049F058F4C13019F0F5
:102370000E94511317CF0E943E1314CF0E94641382
:1023800011CF0E943B130ECF8695112311F08C2F95
:102390008170882309F406CF4D2F429546954770EA
:1023A000440F440F0D2F0F7010E030E020E0042E9A
:1023B00004C0000F111F221F331F0A94D2F760E0E0
:1023C00070E0CB01D4FF0FC06FE070E080E090E0E0
:1023D00004C0660F771F881F991F4A95D2F7609532
:1023E000709580959095C695C695C370602B712B9E
:1023F000822B932BC23049F058F4C13019F00E945F
:102400001E14D0CE0E940B14CDCE0E943114CACE21
:102410000E947A13C7CECF70112329F08C2F0E940F
:10242000A3138D2F13CF8D2F0E9463108C2F0E942A
:10243000C513B8CED23F39F160F4D03FB9F0D13FE7
:1024400081F0112309F445C0011192CE8C2F8F71B8
:102450001EC0D33FF9F0D43FA1F78091380482FD2C
:1024600023C08C2F8F71112311F311C0112339F068
:10247000011198CE8C2F8F710E94E91393CE0230F8
:1024800008F090CEF7CF8C2F8F711111D0CF0E9412
:10249000A31388CE112329F08C2F8F710E948D13E6
:1024A00081CE0E9487137ECE112349F0CF718C2FED
:1024B0000E94A31363E08C2F0E94AF1873CE81E0BB
:1024C0000E94CD18023008F46DCE82E00E94CD1833
:1024D00069CE002359F0D93309F0E6CEEFEFF7EEDD
:1024E00023E0E150F0402040E1F7DCCE8C2F8F71EB
:1024F0009ECF0F931F93CF93DF93EC018E819F812B
:10250000009781F00E947C1A8C010E9444140E9462
:102510003A13B801CE010E946A10DF91CF911F914A
:102520000F910895688179818A810E940415ECCF0A
:10253000CF93DF93EC018B819C81892B29F08881DB
:10254000998189238F3F51F4DF91CF910895CE0176
:102550000E947912CE010E94360DF6CFCE010E9464
:10256000610D8111F4CF0E941F18882369F38A81BD
:10257000882351F38091380482FFE6CF82E00E94E5
:10258000CD18E2CF882321F00E943C180E946A18DF
:102590000895882321F00E9442180E946A18089525
:1025A00090E080E00E94652890E080E00E947B2817
:1025B0000E9449180E946A180E94D51E0E94B91EE6
:1025C00008950E940E180E94D01208950E94391892
:1025D0000E94E112089592959F70963091F058F400
:1025E000925F9F70923058F4803F19F030F4883E2B
:1025F00030F481E008959A5FF4CF843FD1F380E016
:102600000895883EB0F3813FD1F7F3CFFC01868176
:102610009781009729F00E947C1A0E94EB1208957E
:10262000808191810E94F914F8CFA5E0B0E0EBE140
:10263000F3E10C949D312596E2E00C94B931A8E0C9
:10264000B0E0E5E2F3E10C949D312896E2E00C94D1
:10265000B93108950E94291308950E942A136093A6
:10266000D2027093D3028093D4029093D5020E9439
:10267000D012089508950E942D1308950F931F936B
:102680000091D2021091D3022091D4023091D50250
:10269000602B712B822B932B0E942D131F910F9176
:1026A00008950F931F930091D2021091D3022091AD
:1026B000D4023091D50260237123822393230E9498
:1026C0002D131F910F9108950F931F930091D20224
:1026D0001091D3022091D4023091D5026027712746
:1026E000822793270E942D131F910F9108950E9416
:1026F000440C08950E9477136093CE027093CF022A
:102700008093D0029093D1020E94D012089560E08D
:1027100070E0CB010E947A1308950F931F9341E05C
:1027200050E060E070E08A019B0104C0000F111FBF
:10273000221F331F8A95D2F7C901B8010E947A136C
:102740001F910F9108950F931F9341E050E060E0B7
:1027500070E004C0440F551F661F771F8A95D2F79B
:102760008091CE029091CF02A091D002B091D1027F
:102770008A019B01082B192B2A2B3B2BC901B8017D
:102780000E947A131F910F9108950F931F9341E0B8
:1027900050E060E070E004C0440F551F661F771FD3
:1027A0008A95D2F7CB01BA01609570958095909586
:1027B0000091CE021091CF022091D0023091D1022F
:1027C00060237123822393230E947A131F910F9118
:1027D00008950F931F9341E050E060E070E004C063
:1027E000440F551F661F771F8A95D2F78091CE023E
:1027F0009091CF02A091D002B091D1028A019B01A9
:10280000082719272A273B27C901B8010E947A13F4
:102810001F910F9108950F931F930091CE02109175
:10282000CF022091D0023091D102602B712B822BEC
:10283000932B0E947A131F910F9108950F931F936A
:102840000091CE021091CF022091D0023091D1029E
:1028500060237123822393230E947A131F910F9187
:1028600008950F931F930091CE021091CF022091F3
:10287000D0023091D10260277127822793270E94CE
:102880007A131F910F9108950895262F277091E0D4
:1028900001C0990F2A95EAF723E0769567952A9566
:1028A000E1F725E0269FF001279FF00D1124E40FAA
:1028B000F51F50E040E0682F70E08191DF01119733
:1028C0009B01042E02C0369527950A94E2F72170E9
:1028D00021952827292328272C934F5F5F4F4530C8
:1028E000510559F70895A82FA77023E0969587956D
:1028F0002A95E1F725E0289FF001299FF00D11248A
:10290000E60FF71F50E040E080E0219130E00A2E12
:1029100002C0369527950A94E2F721703327042EDA
:1029200001C0220F0A94EAF7822B4F5F5F4F4530B8
:10293000510559F70895262F9E3070F4863060F4C3
:10294000682F70E086E0989F600D711D112447E9A3
:1029500052E0822F0E9445140895292F9E3068F47A
:10296000863058F490E067E972E036E0239F800DEE
:10297000911D11240E947314089580E00895B0E021
:10298000A0E0E5ECF4E10C9496318C01C090CE020D
:10299000D090CF02E090D002F090D1028091D2028C
:1029A0009091D302A091D402B091D502C82AD92A1D
:1029B000EA2AFB2ACFE1D0E0BC2ED701C6010C2EBB
:1029C00004C0B695A795979587950A94D2F780FD90
:1029D00009C0219788F7B12C8B2DCDB7DEB7E9E080
:1029E0000C94B231B8018C2F0E948F1B019789F390
:1029F000F3CFCF93DF93EC010E94BF14BE010E947E
:102A00008F1BDF91CF9108951F93CF93DF93EB013D
:102A100090919602992339F0CB010E94F914DF912D
:102A2000CF911F910895882369F0CB010E94BF14B4
:102A3000182F682FCE010E949B14BE01812F0E9487
:102A40008F1BEDCFCB010E94AD14182FF6CFCF9383
:102A5000DF93C091D6028091D7028C1303C0DF911F
:102A6000CF910895D0E0FE0183E0EE0FFF1F8A951D
:102A7000E1F7E852FD4F2081318142815381648129
:102A80007581868197810E941F132196C770E3CFBD
:102A9000209118033091190340911A0350911B03A0
:102AA00060911C0370911D0380911E0390911F0380
:102AB0000E941F130895CF93DF9380911D03807FA1
:102AC00009F049C080911A03882309F444C0809119
:102AD000D602C091D7026091180370911903A0919A
:102AE0001B03B0911C03D62FD723C817A1F190E088
:102AF000109711F0DF3F19F401968770F6CF9C0113
:102B000043E0220F331F4A95E1F7F901E852FD4FE8
:102B100041814713F1CF40814613EECF42814111ED
:102B2000EBCF438154814A1B5B0B483C510520F796
:102B300080911D038F70806180931D03F901E35222
:102B4000FD4F80818F708061808388E193E00E94D7
:102B500098120E942715DF91CF910895A5E1B0E06A
:102B6000E4EBF5E10C9495318C0185E0F801DE0190
:102B7000519601900D928A95E1F7F801E28048E1C3
:102B8000C42E43E0D42E60911B0370911C03611589
:102B9000710509F480C19091180320911903892FC0
:102BA00082238F3F09F477C140815181A380B48093
:102BB000F0901A03F501E61BF70BFF2009F420C182
:102BC00080911D03382F307FE83CF10508F0CAC022
:102BD000311177C0FE2C251320C094131EC06091C4
:102BE0001E0370911F03F801268137816217730756
:102BF000A1F4E11012C08F70806180931D030E94C8
:102C00004815C6010E94981280911D03F801858322
:102C10008F2D6596EAE00C94B131A114B10429F02E
:102C2000842F85238F3F09F04FC180E0F82FF1708A
:102C3000DF2E80FF3CC08091D6022091D702821304
:102C400015C0498B5A8B89899A890E94F914292FBA
:102C500022952F702230F8F0243020F59F70F9F083
:102C6000F8019581907FD9F4D12C1FC090E0FC0130
:102C700033E0EE0FFF1F3A95E1F7E852FD4F318147
:102C8000351306C03081341303C032813E110FC0AA
:102C900001968770D4CF9F7011F0882329F3805E4E
:102CA000883010F3C8010E949812FD2CB1CFEE209D
:102CB00009F4AECF80911D03816080931D03F12C38
:102CC000A7CF25131DC094131BC040911E03509124
:102CD0001F03F801268137814217530789F4E11059
:102CE0000FC08583C8010E94981288E0F801A8E10E
:102CF000B3E001900D928A95E1F70E94481588CFC4
:102D0000C8010E940613882349F1EE2039F1809111
:102D10001D038032A0F020911803309119033A87E7
:102D200029871B86BD86AC868E8780911E03909175
:102D30001F03988B8F87CE0109960E94981288E016
:102D4000F801A8E1B3E001900D928A95E1F70E94A5
:102D50005B150E944815FF24F3945ACFC8010E94C6
:102D60009812F9CF311113C07A2DBD8AAC8A6E2D1D
:102D70008D890E94151388E193E00E94981288E0E3
:102D8000F60111928A95E9F70E94481598CF25130C
:102D900018C0941316C040911E0350911F03F801F0
:102DA000268137814217530761F4E1100AC08583F9
:102DB000C8010E94981288E0F60111928A95E9F7FD
:102DC00027CFC8010E940613882341F2EE2031F27A
:102DD00080911D03803208F4B2CF20911803309106
:102DE00019033A8329831B82BD82AC828E83809132
:102DF0001E0390911F0398878F83CE0101969DCF6C
:102E0000E83CF105D8F5FE2CEE2009F4A7CF2513F8
:102E100027C0941325C020911E0330911F03F80191
:102E20008681978128173907D9F490911D0390FD69
:102E30000EC0907F61F080911D038583903F09F45F
:102E400051CF982F907F905F8F70892B4ACF88E069
:102E5000F801A8E1B3E001900D928A95E1F7D8CE90
:102E6000C8010E94061381116ACF80911D03816001
:102E700080931D03C8010E949812CACE7A2DBD8A84
:102E8000AC8A6E2D8D890E94151388E0F60111928F
:102E90008A95E9F732CFEE2009F460CFC8010E948D
:102EA0000613F82E882309F459CF88E0F801A8E129
:102EB000B3E001900D928A95E1F788E193E00E94DA
:102EC0004B0F0E945B1519CF81E08E25AFCEA0E19C
:102ED000B0E0EDE6F7E10C949D3129873A874B8706
:102EE0005C876D877E878F87988BCE0109960E94BD
:102EF000AE158823A9F08C859D85892B39F029850D
:102F00003A85822F83238F3F09F06FC08091D602CC
:102F10009091D702891343C06096E2E00C94B931D6
:102F200088E0FE013996DE01119601900D928A9596
:102F3000E1F78C859D85892B49F389859A858923BD
:102F40008F3F21F3A091D702B0E0CD0101968770A9
:102F500099272091D6022817190671F40E94E612CB
:102F60001092D7021092D60288E0E8E1F3E0DF0188
:102F70001D928A95E9F7CACF93E0AA0FBB1F9A95D5
:102F8000E1F7A852BD4F98E0FE01319601900D92F5
:102F90009A95E1F78093D7020E942715B7CFB8E042
:102FA0008B9FC001112488529D4F0E94AE1588232B
:102FB00009F4B2CFE091D60228E0E29FF00111249B
:102FC000E852FD4F208131814281538164817581B6
:102FD000868197810E941F138091D60290E001960E
:102FE000877099278093D60291CF4B855C856D853C
:102FF0007E858F8598890E941F1388CF682F8091C6
:103000000402909105020E9425290895682F80915D
:103010000402909105020E943329089580910402D0
:10302000909105020E944129089580914003859561
:1030300085958595089580914003877008959091B6
:103040004003977081E009F480E008958091630364
:10305000089590916303892B80936303089580956D
:10306000909163039823909363030895809363037F
:10307000089510926303089590916203892B8093C1
:103080006203089580959091620398239093620360
:103090000895109262030895809141030895089560
:1030A0000E944F1808959091380492FF08C09091A3
:1030B0004103981721F0809341030E94501808950E
:1030C00080914103882329F01092410380E00E94FF
:1030D00050180895CF93DF93E0910402F091050218
:1030E000809163038083E0910402F0910502808166
:1030F00090916203892B808390914103992381F001
:10310000E0910402F09105028081892B80838091F7
:103110000402909105020E94912881110E9460187A
:10312000C0910402D091050240E250E060E273E0F9
:10313000CE010E94EF32892B59F080E2FE01A0E21D
:10314000B3E001900D928A95E1F7CE010E944028EC
:10315000DF91CF91089508950E94AB180895909142
:10316000380492FF11C098E0899F90011124622BCE
:10317000609340030E94A313809140038595859539
:1031800085950E94AC1808950E94A313089510928B
:10319000400380E00E94AC18089590914003809510
:1031A000892380934003282F277091F4282F082E1D
:1031B000000C330B9217130659F09091380492FFCC
:1031C00007C08595859585950E94C5130E94C718EF
:1031D00008959091380492FB222720F9281769F06E
:1031E00080FB92F9909338048091370490913804D1
:1031F0000E94331982E00E94CD180895809138040E
:1032000082FB882780F991E089270E94E9180895B8
:1032100081E00E94E918089580E00E94E91808956D
:1032200090E080E00E940A3321E0883E9E4F09F042
:1032300020E0822F089582E090E00E94FC32089501
:1032400083E090E00E94FC320895CF9384E090E008
:103250000E94FC32C82F82E290E00E94FC32982F3C
:103260008C2FCF910895CF93C92F682F84E090E0E1
:103270000E9410336C2F82E290E00E941033CF91B5
:1032800008958FE090E00E9404330895AB01BC01E3
:103290008FE090E00E9422330895AB01BC0183E1EE
:1032A00090E00E942233089560E070E0CB010E941C
:1032B0004D19089568EE7EEF90E080E00E942E3375
:1032C00060E082E090E00E94103360E083E090E0F4
:1032D0000E9410331092D2021092D3021092D402A4
:1032E0001092D50260E084E090E00E94103364E028
:1032F00082E290E00E94103360E085E090E00E945E
:10330000103360E086E090E00E9410336FEF87E0BA
:1033100090E00E94103340E050E0BA0188E090E075
:103320000E94223360E08DE090E00E94103340E084
:1033300050E0BA0188E190E00E94223360E087E12A
:1033400090E00E94103340E050E0BA018CE190E040
:103350000E94223370E060E080E290E00E942E3311
:1033600040E050E0BA0188E190E00E9422330E94E0
:103370004F0908950E945A190895682F8EE090E031
:103380000E94103308950E940D2A60937603709373
:10339000770380937803909379036093720370931B
:1033A00073038093740390937503089508950895AB
:1033B0000E94D719089508950E94DB1908958EE69A
:1033C0009CE10E9426280E94D6190E94D8190895CF
:1033D00081E008950E94E8190895089508950E94D3
:1033E000ED190E94EE1908950E94711C0E94F40EBE
:1033F0000E941D2008950E94F8290E949E1C0E9490
:10340000F4190E94DC190895AAE0B0E0EAE0FAE1BC
:103410000C9494310E94B01CC82E81110E94C319D3
:1034200084E6A82E83E0B82E10E000E0902E802FD6
:103430000E94971CE82EF501F1905F01F816B9F192
:1034400080917A0381FD0E949D1C8F2D8E25D12CA9
:10345000FF24F394982F9F2129F10E94EA198823D1
:1034600099F0DE829F82EF2081E009F480E0888776
:103470000E94012A8160782F9A8789874E815F8117
:1034800068858A850E94120FF801EC59FC4F8081F3
:10349000F826F08281E0C11001C080E02A96EBE0BE
:1034A0000C94B031D394FF0CF6E0DF12D3CF0F5F52
:1034B0001F4F0E30110509F0B9CF8FEF89838A8332
:1034C0001B820E94012A8160782F9D838C83498111
:1034D0005A816B818D810E94120FDCCF0E948E2455
:1034E0000E94072308950E94041A0E946E1A0E94E7
:1034F000F71E0E94070F0895CF93DF930E94941B3D
:10350000EC01811521E5920708F042C0811530E5F4
:10351000930708F09DC0883E910530F5803E9105E7
:1035200008F092C0883A910588F4853A910508F030
:1035300084C08130910509F487C0009709F484C0E4
:10354000049708F081C0D0E0C0E07EC08F3B9105B9
:10355000D0F7C85AD0E0CC0FDD1FC25BDD4F099019
:10356000D881C02DD46470C08115904250F4C1152B
:1035700081E0D80708F068C0CD3ED10520F3D065C2
:1035800063C0C11590E4D907F0F2DF70D06A5CC067
:10359000811525E5920700F5811534E5930708F0BC
:1035A0008BC0811543E5940708F073C0C11582E50F
:1035B000D80708F469C0CE018370992721E030E074
:1035C00002C0220F331F8A95E2F7C695C69580E2A6
:1035D000C89FE001112454C0C11599E5D907A8F48A
:1035E000C11528E5D20708F06CC0C11536E5D30730
:1035F00008F0A9CF8C2F0E942B1CC82FD0E0DC2F05
:10360000CC27CC27DF71D0621FC0C1154AE5D40793
:1036100008F45CC0CE0190568115904208F093CF1B
:103620008D2F8F710E942B1C90E0982F8827882760
:103630009F719C012C2BE901E6CFC55AD0E0C458FC
:10364000DD4FC881D0E0D064CE01DF91CF910895E5
:10365000E4E096958795EA95E1F783702C2F2695FF
:103660002695237040E2249F90011124382B8C2F43
:103670008370C1E0D0E002C0CC0FDD1F8A95E2F775
:10368000C22BD32BDC68E0CFDC2FCC27C16FD06AF4
:10369000DBCF8370992721E030E002C0220F331F77
:1036A0008A95E2F7C695C69590E2C99FE00111247C
:1036B000C22BD32BDA68C8CFD82FCC27C46FD06ADF
:1036C000C3CFDC2FCC27C06FD06ABECF8C2F8F70BA
:1036D0000E942B1C34E0D695C7953A95E1F7CF7040
:1036E0009C2FEC01D069B0CF972F7E30A8F46630C4
:1036F00098F470E026E0929F600D711D1124FB018B
:1037000094E5899FE00DF11D1124EE0FFF1FE25B90
:10371000FA4F85919491089580E090E008950E9479
:10372000741B0E947C1A089582389105B1F1B0F49F
:103730008133910509F475C048F48932910509F483
:1037400069C08A32910509F473C0089585339105E3
:1037500009F459C08933910501F10895833E91051B
:10376000A9F138F4803E9105F9F0823E910549F1C6
:103770000895863E9105A9F1873E9105C9F1843EE1
:10378000910519F52091380421FF1FC0809137045D
:1037900084FD14C087EE90E00895209137042370D3
:1037A000A1F080EE90E008952091370420FD47C0FD
:1037B0003091380430FF09C024FF44C090E080E01D
:1037C00004C02091370422FDF7CF089520913704DB
:1037D00022FD3BC03091380430FDE3CF24FFF5CF0C
:1037E000EDCF2091370423FFF0CF24FDE7CFD2CFD8
:1037F0002091370423FD2CC03091380431FFEECFE7
:1038000084EE90E008952091370425FFDECF89E211
:1038100090E008952091370425FFD7CF85E390E00D
:1038200008952091370426FFD0CF8AE290E00895D2
:103830002091370426FFC9CF81E390E0089589E302
:1038400090E0089583EE90E0089582EE90E0089570
:1038500086EE90E008959091370492FF06C0282FDD
:1038600028712830F9F4877F846093FF06C0282FE1
:1038700028712831F1F4877E84612091380420FF7B
:1038800006C0382F38713830D9F4877F816021FF26
:1038900006C0282F28712831D1F4877E816194FDDC
:1038A000877E0895282F24712430F9F68B7F886055
:1038B000DCCF282F2471243101F78B7E8861DDCF86
:1038C000382F3171313019F78E7F8860E0CF282F83
:1038D0002171213121F78E7E8861E1CF80E008954A
:1038E00008950E941019811102C00E94BA190E9405
:1038F0001B1980937A030E942519909338048093B2
:1039000037040E94701C0E942019682F70E090E01C
:1039100080E00E943B136091CE027091CF028091B3
:10392000D0029091D1020E94771308950895E82F54
:10393000F0E0E95BFB4F8081089508950E94CE0777
:10394000E9E3F4E0A7E4B4E011921D9284E0E734E7
:10395000F807D1F78EE00E94C31C0E94420D089523
:10396000CF9389E394E00E94DA07C82F282F4EE016
:1039700067E474E089E394E00E94D61C0E94450D40
:103980008C2FCF910895CF93C82F90E00E94C4311F
:1039900080937E0390937F03282FFC018E2F821B40
:1039A0008C1710F0CF9108951192F8CFB0E0A0E0FD
:1039B000ECEDFCE10C949831082FF92EE62ED72E71
:1039C000142FC22FD0917B03DD2309F448C00E943D
:1039D000012A20917C0330917D03AC01421B530BE3
:1039E0009A0190937D0380937C034F3F510509F02A
:1039F000C8F4452B99F010927B03109280034091FC
:103A00007E03E42FF0917F0390E030E08E2F841B43
:103A1000811758F030937B0390938003C1112DC020
:103A2000CD2F1FC02FEF30E0E6CF8081882321F01B
:103A3000281720F010829D2F3196E8CF821B8083BB
:103A40003D2FFACF29914C91421731F0408141111D
:103A500003C030832C9381E0319611961AC0211156
:103A600006C0809180038823D1F0C11106C00E9456
:103A7000012A90937D0380937C0390917E03809133
:103A80007B03AE2DBD2DC02FDF2DE92FF0917F03DD
:103A90003EE12E2F291B2117A8F280937B03CDB77F
:103AA000DEB7E7E00C94B4310E943B2C0E94FB1976
:103AB0000E94482C08950E944D2C0E94731A0E9467
:103AC000672C08950E949A290E94212C0E94DF19D8
:103AD0000E94541D0E945B1D0E94EF19FBCF809134
:103AE000880380FF0DC060910B0270E0660F771FA6
:103AF0006038710570F56115710569F1862F0895BB
:103B000081FF07C060910B0284E0689FB00111241F
:103B1000EFCF60910B0282FD0AC08091870388235A
:103B2000A9F020910A0260910B02821710F088E040
:103B3000ECCF869FC001112433E0880F991F3A957E
:103B4000E1F7622F70E00E947331D2CF68E070E03D
:103B5000D5CF8FE7089581E008958091880380FF95
:103B60000CC06091070270E0759567957595679533
:103B70006115710549F1862F089581FF06C0609196
:103B8000070270E075956795F3CF6091070282FD9B
:103B90000BC0909186039923A1F060910602809159
:103BA0000702961738F0682F70E06038710500F34F
:103BB0008FE70895899FC001112470E00E9473313E
:103BC000F4CF61E070E0D7CF81E008958D3E31F40D
:103BD0000E946F1D819580938B0308958E3E19F48A
:103BE0000E946F1DF8CF8F3E31F40E946F1D8195AA
:103BF00080938A030895803F19F40E946F1DF8CFC7
:103C0000893F29F40E94AD1D80938C0308958A3F5B
:103C100021F40E94AD1D8195F7CF8B3F31F40E94B6
:103C2000AD1D819580938D0308958C3F19F40E94FA
:103C3000AD1DF8CF9FE0980F983070F4815F990B1D
:103C400021E030E001C0220F8A95EAF780918903D4
:103C5000822B8093890308958D3F31F480918803EE
:103C600081608093880308958E3F21F480918803BA
:103C70008260F7CF8F3FB9F7809188038460F1CFDE
:103C800040918A038D3E59F480918B0387FF0DC0CC
:103C900010928B0341110BC01092870308C08E3E17
:103CA00081F480918B0318169CF3442381F080915A
:103CB0008C0390918D03892B09F05AC010928603D2
:103CC00008958F3E49F447FFF0CF10928A03809108
:103CD0008B038111ECCFE0CF803F19F41416ACF3C5
:103CE000E4CF90918C03893F29F41916F4F61092D1
:103CF0008C03DBCF8A3F19F497FFD7CFF8CF909191
:103D00008D038B3F29F497FFD0CF10928D03CDCF39
:103D10008C3F19F41916CCF3C8CF9FE0980F983058
:103D200090F4815F990B21E030E0B90102C0660F89
:103D3000771F8A95E2F7CB018095909189038923BB
:103D400080938903B2CF8D3F31F4809188038E7FB9
:103D500080938803AACF8E3F21F4809188038D7FC2
:103D6000F7CF8F3F09F0A1CF809188038B7FF0CFF1
:103D700008950E94012A9C0190918A0380918B03EF
:103D8000982B21F0309385032093840390918C032A
:103D900080918D03982B21F030938303209382032D
:103DA00089E893E00E945A28089585E0E9E8F3E065
:103DB000DF011D928A95E9F710928703109286031E
:103DC000109288030895FC01818181110EC08281C7
:103DD00081110BC08381811108C091E08481811120
:103DE00001C090E0892F8170089581E0FCCFA5E0AB
:103DF000B0E0EDEFFEE10C949C3185E0E9E8F3E002
:103E0000DE01119601900D928A95E1F710928A03D6
:103E100010928B0310928C0310928D038A819B81E8
:103E2000892B89F080918403909185030E94192A3F
:103E3000AC01909187039923C9F180910C028417FA
:103E4000150608F440C08C819D81892B91F08091EA
:103E50008203909183030E94192AAC0190918603FA
:103E6000992309F471C0809108028417150608F49B
:103E700079C0BE016F5F7F4F89E893E00E945329AC
:103E8000811105C089E893E00E94E31E81110E9420
:103E9000B91E85E0FE013196A9E8B3E001900D92CC
:103EA0008A95E1F72596E3E00C94B83120918103DF
:103EB0008AE0289F900111242417350720F69F5F80
:103EC0009093870302C09F3FD1F71A81112359F0C5
:103ED0000E946F1D9FEF11160CF491E0899F802DB9
:103EE000112480938A031B81112359F00E946F1DB6
:103EF0009FEF11160CF491E0899F802D112480937F
:103F00008B0330918A03332309F49DCF20918B03D7
:103F1000222309F498CF45EB3403C00111249923DF
:103F200059F090938A0345EB240390011124332325
:103F300039F030938B0387CF81E080938A03F3CFEE
:103F400081E080938B037FCF209109028AE0289F34
:103F5000900111242417350708F08BCF9F5F9093B1
:103F6000860302C09F3FD1F71C81112359F00E94A4
:103F7000AD1D9FEF11160CF491E0899F802D112447
:103F800080938C031D81112359F00E94AD1D9FEF7A
:103F900011160CF491E0899F802D112480938D03DC
:103FA00030918C03332309F464CF20918D032223B5
:103FB00009F45FCF45EB3403C0011124992359F074
:103FC00090938C0345EB240390011124332339F0A3
:103FD00030938D034ECF81E080938C03F3CF81E04B
:103FE00080938D0346CFCF93DF93EC0197FF0CC0F6
:103FF000FB018281882341F00E944520CE019F77FA
:104000000E94BF200E94962081E0DF91CF91089509
:1040100090915604923071F48A3050F490E00996F1
:104020006AE070E00E947331875A0E94531008952D
:104030008650FBCF0E94940E08958CE090E00E9481
:10404000FC32482F50E070E060E0409356045093FB
:104050005704609358047093590410928E0384306F
:1040600009F4089584E080935604089560915604FD
:104070008CE090E00E941033089510928E0384E04B
:10408000809356040E94362008950E943D2886950C
:10409000817080935B040E943D2881708093550459
:1040A00080915604813039F480915B04882319F0A3
:1040B00089E30E9453100E94261880935A040E949C
:1040C00039180E94491880915604813089F088235C
:1040D00059F0823091F0843021F18FE39CE901970F
:1040E000F1F700C00000089582EE0E94510FF5CF55
:1040F00088E193E00E94D00CF0CF809155048111AB
:1041000003C083E50E94531082EE0E94510F8FE39B
:104110009CE90197F1F700C0000087E50E94531069
:10412000DCCF86EE0E94531088E1F8CF80915604D0
:10413000813079F0882349F08230B1F08430E9F0A1
:1041400080915A040E943618089582EE0E94E20F70
:10415000F7CF8CE20E94531080915B04882381F397
:1041600089E30E945310ECCF82EE0E94E20F80910F
:1041700055048111E5CF83E5F4CF88E2F2CF0F93A8
:104180001F93CF93DF938C01CCE0D0E0C8010C2EBD
:1041900002C0969587950A94E2F78F700E940820D6
:1041A0002497CC3F8FEFD80789F7DF91CF911F91EC
:1041B0000F9108950F931F93CF93DF93EC018B0121
:1041C000FB018281882361F00E9426188272C13E21
:1041D000FCE5DF07E9F068F4C03EECE5DE07A1F09E
:1041E000B801CE010E94F31FDF91CF911F910F9173
:1041F0000895C73EFCE5DF0798F78C2F825E809319
:1042000056040E943620ECCF811104C081E003C027
:104210008111FCCF8FEF0E943D20E2CFCF93DF933F
:10422000EC01FB018281882309F433C1C430FDE530
:10423000DF07C0F5CB3F9CE5D90730F49E01225043
:104240003C4524313105B0F50E942519909338047E
:1042500080933704C1318CE5D80709F4EEC008F02B
:1042600069C0C930ECE5DE0709F4D5C0C8F5C53032
:104270008CE5D80709F4C7C000F5C330ECE5DE07CC
:1042800009F4B9C008F0BBC0C230DC4509F4ADC0C8
:1042900080913704909138040E9433190E94E612ED
:1042A00080E008C0C236EDE5DE0771F2C63AFDE5F2
:1042B000DF0751F2DF91CF9108958091370480623A
:1042C000C7309CE5D90709F493C080913704806119
:1042D000C830DC4508F48CC080913704806488C005
:1042E000809137048B7FCD30FCE5DF0709F480C077
:1042F00098F4809137048E7FCB309CE5D90709F480
:1043000077C0809137048C60CC30DC4508F470C0F5
:10431000809137048D7F6CC0809137048F7ECF30C1
:10432000FCE5DF0709F464C008F47BC08091370422
:104330008F7D5EC0CE3F9CE5D90709F47AC050F569
:10434000C531FCE5DF0709F486C098F48091370495
:10435000837FC3319CE5D90709F44AC008F471C0D2
:104360000E94E61290913704892F97FB87F98058B5
:104370003FC0CC3FFCE5DF0709F449C008F055C059
:10438000809138048160CB3FDC4509F081CF809378
:1043900038047ECFC230EDE5DE0709F468C0A8F42A
:1043A000C1158DE5D80709F452C0809138048360A7
:1043B000C130DD4560F380913804982F909591705D
:1043C0008E7F892B90FB81F9E2CFC236EDE5DE07C7
:1043D00009F451C0C63AFDE5DF0709F453C0C33004
:1043E000DD4509F055CF80E043C0809137048160FE
:1043F000809337044DCF809137048260F9CF80914C
:1044000037048460F5CF809137048860F1CF8091C4
:1044100038048260BCCF0E94E61280913704806825
:10442000E7CF80913704877FE3CF809138048E7F78
:10443000AECF809138048D7FAACF809137048F7BD7
:10444000D7CF0E94E612809137048F77D1CF809129
:1044500038048C7F9CCF8091370482FB992790F998
:1044600021E0922790FB82F990FB83F9C1CF81E094
:104470000E94BD190DCF90913704892F8F7E94FF34
:104480008061B6CF90913704892F8E7F90FF816035
:10449000AFCF81E00FCF8832910548F48E3191057E
:1044A000A0F4049750F082E00E943C180EC08D32B8
:1044B0009105C9F320F48A9741F080E008958C3487
:1044C000910519F08D329240C1F781E00895EF9285
:1044D000FF920F931F93CF93DF93EC017B018D3AF3
:1044E0009D4569F4FB011281112319F00E941923E3
:1044F00010E0812FCDB7DEB7E6E00C94B5310E9415
:104500002618082F0E944C18082B0E94E6228111C1
:1045100007C0023211F011E0ECCF0E94EA22FBCF7B
:104520000E94DD22F70112811123A9F30D79D9F53B
:10453000C115F5E5DF0700F5C11523E5D207C8F67B
:10454000C11580E5D80798F4C115E0E4DE0770F5E1
:10455000C63ED10571F20E944918CE010E944B223D
:10456000C82F882301F10E946A181C2FC2CFC115E1
:10457000F2E5DF0780F7BDCFC11529E5D20750F47A
:10458000C11588E5D80708F0B4CFC431E5E5DE07EA
:1045900011F7AFCFCE01905681159042E0F6F701AA
:1045A0008581807F41F40E94FA22A3CFF7018581A3
:1045B000807F09F4B0CFDD27CECF0E94012A885733
:1045C0009C4E9093900380938F0308958091910364
:1045D000089508958091910381110BC00E943918AC
:1045E0000E9460180E94DD2281E0809391030E9466
:1045F000E922089580919103882341F082E20E948C
:10460000C9121092910380E00E94E92208958091DE
:104610009103882369F00E94012A20918F03309131
:104620009003821B930B8F3F9F4710F40E94FA2246
:10463000089580919103882319F00E94FA22089529
:104640000E94EA22089508950F931F93CF93DF935A
:104650008091FD03E09192031CE081111AC0DF916B
:10466000CF911F910F91089501E00E0F00939203D7
:10467000CE2FD0E0E19FF0011124E356FC4F83815F
:104680009481892B29F08081918189238F3FF9F4CE
:10469000E02F8091FD03E81738F31092FD0310928C
:1046A0009203DDCF18968D919C918F3F9807E1F092
:1046B00061E00E9423231C9FF0011D9FF00D112437
:1046C000E356FC4F148213820E944918E1CF1C9FCD
:1046D000D0011D9FB00D1124A356BC4F16968D918D
:1046E0009C911797892BF1F220813181428153816E
:1046F00064817581868197810E946717DCCF109253
:10470000FF031092FE0320910E0230910F02E8E0A9
:10471000F1E090E080E02817390709F40895458119
:10472000411102C01482168201963796F4CFDC0143
:1047300060919B0380919C03962F891301C008957B
:10474000292F30E0F901EE0FFF1FED56FC4F40819D
:1047500051814A175B07A1F487E08A9FA0018B9FD4
:10476000500D1124485F5E4F81E0FA018483961357
:10477000E6CF2F5F3F4F2370332720939B0308958D
:104780002F5F3F4F922F9370D8CFB0E0A0E0EBECBB
:10479000F3E20C949231EB012C81211152C0709004
:1047A000FD03ADE9B3E030E020E0812C61E070E092
:1047B000271508F044C01A96CD90DC901B97A8806E
:1047C000B9804FEF5FEF912CE92CF12CF701EE0F40
:1047D000FF1FEA0DFB1D05911491C016D10609F4C7
:1047E000A7010115110511F09394EECF4F3F540727
:1047F00089F1FB0102C0EE0FFF1F4A95E2F78E2AF6
:10480000AB01092C02C0440F551F0A94E2F7415036
:10481000510984161506D1F44A815B816CE0629FD0
:10482000F001639FF00D1124E356FC4F578346833C
:104830002EEF208321839187808721E02D830E94A2
:104840009723CDB7DEB7EDE00C94AE3114961C92F1
:104850001E9213972F5F3F4F1C96AACF1F93CF93A3
:10486000DF93C0919B0317E080919C038C1308C0D9
:104870000E9424230E947F23DF91CF911F910895EE
:10488000D0E0FE01EE0FFF1FED56FC4F80819181BD
:10489000189FB001199F700D1124685F7E4F0E9410
:1048A000C5232196C370E0CFEF92FF921F93CF9361
:1048B000DF93FC012081318110E040E050E0E52FE2
:1048C000F0E0EE0FFF1FE20FF31FA591B4911097D8
:1048D000B9F0FB01C081D18140E005C0AE15BF0534
:1048E00009F411E04F5FE42FF0E0EE0FFF1FEC0F33
:1048F000FD1FE590F490E114F10481F75F5FDFCFD5
:10490000112349F0451708F4CB01DF91CF911F9196
:10491000FF90EF90089590E080E0F7CF80910D0236
:10492000882341F18091000490910104009711F1D6
:104930000E94192A2091FE033091FF03281739079E
:10494000C8F490919B0380919C03981759F00E94A2
:104950002E241092FF031092FE0310920104109275
:10496000000408950E942423109201041092000470
:104970000E947F2308951092010410920004109267
:104980000D0280919C0380939B030E947F230E94D1
:104990002423089580910D02882319F00E94BB24DE
:1049A000089581E080930D020895A9E0B0E0EBED59
:1049B000F4E20C948D316C013B01FB011281883FC4
:1049C000FCE59F0751F4112379F081E080930D02FB
:1049D000812F2996E2E10C94A931893F2CE59207B9
:1049E00009F04DC0111148C008E011E0F12CE12C94
:1049F000198688248394912C80910E0290910F0245
:104A0000E816F90608F445C0F3018281882309F409
:104A100060C1F985FF2309F45CC10E94012A9093CB
:104A20000104809300048091FD03883008F591E033
:104A3000980F9093FD0398E0F301DE011196019029
:104A40000D929A95E1F72CE0829FC00111248356C4
:104A50009C4F28E0FE013196DC0101900D922A95D1
:104A6000E1F72FEF3FEFFC0131872087D386C28625
:104A700011E0F9851F27ACCF0E94BB24A9CF8A3F44
:104A80009C4509F0B1CF112309F4AECF0E94CA248E
:104A90009FCFF80160817181AA24AA94BA2C20E0EA
:104AA000422F50E0FA01EE0FFF1FE60FF71F85912E
:104AB0009491C816D90609F45A01892B11F02F5F79
:104AC000EFCF312CFFEFAF16BF0609F445C0F80158
:104AD000448130900D02832D411180E0F82FF17058
:104AE0003F2EF80155808681F3019281992309F4C4
:104AF0008EC0332009F48BC0511015C0A4010A2CBC
:104B000001C0440F0A94EAF7842BF8018683809150
:104B1000FE039091FF03C29730F462E370E070935C
:104B2000FF036093FE03C40102C0880F991F2A95FA
:104B3000E2F70197F80126812817190669F4809198
:104B4000000490910104009781F00E94192AC397F4
:104B500060F021E0F8012483F985F329F9872FEF2C
:104B6000E21AF20A095F1F4F47CF20909B0390E0A3
:104B700080E020919C03221215C08017910761F3F9
:104B8000A22CB12CF501EE0FFF1FED56FC4FF18268
:104B9000E0826FEFA61AB60A73E0A722BB24A092A8
:104BA0009C03DACFA22CB12CF501EE0FFF1FED56BE
:104BB000FC4F2081318147E0429FC001439F900D0F
:104BC0001124BC01685F7E4F2B01B801C2010E9415
:104BD00054240097A9F021E0FC0124838017910759
:104BE00009F4BACF20919B0322120AC04816590635
:104BF00039F495012F5F3F4F2370332720939B0398
:104C00003FEFA31AB30A4A2D4370242EB2CF90E08F
:104C1000511020C0F40102C0EE0FFF1F2A95E2F7E9
:104C20009F01215031092817390731F4442309F431
:104C30004EC0C7010E949723C4010A2C01C0880FEF
:104C40000A94EAF7982F9095F80186818923868344
:104C5000352C82CF9C010A2C02C0359527950A94E9
:104C6000E2F7A90141705527BC0161507109862303
:104C70009723892B41F5452B31F1F80182819381EE
:104C8000892BE1F01B821C821D821E82FEEFF983BC
:104C9000FA830E94012A8160582F9D838C83F8013A
:104CA000828193818F83988729813A814B816D819D
:104CB0007E810E946717F8011582BECF60E0C701B0
:104CC0000E942323F8CFF22FF1705F2EB5CF532C23
:104CD000B3CF90919B0380919C03981719F00E9489
:104CE0002E24C6CE0E9424231092010410920004A8
:104CF0000E947F23BDCECF93DF93EB0186319C458D
:104D000011F50E9426189A81992399F08A7A91E0E8
:104D100009F490E090930204811109C089E20E9495
:104D2000FE170E946A1880E0DF91CF91089585E315
:104D3000F6CF80910204811104C089E20E94061816
:104D4000F0CF85E3FBCF81E0EFCF0F931F93CF939D
:104D5000DF93C42FD22FFC0182818823C9F04093B6
:104D600005040E94012A909304048093030480E2C6
:104D70008C0F883040F4C77081E001C0880FCA955D
:104D8000EAF70E945C10DF91CF911F910F91089577
:104D900010910504141332C080910304909104040F
:104DA0000E94192A883C910548F5C0E2CD0F1D17D5
:104DB000B9F080E2810F883040F4177081E001C0C3
:104DC000880F1A95EAF70E946310C83048F481E012
:104DD0009D2F977001C0880F9A95EAF70E945C108A
:104DE000802F0E945310C83070F6D77081E001C048
:104DF000880FDA95EAF70E946310C5CF80E28C0F26
:104E0000883008F6C77081E001C0880FCA95EAF7BC
:104E1000F2CF0F939C01CB01243F4CE5340759F1AD
:104E2000A8F4293DFCE53F0701F12A3D4CE5340794
:104E3000D1F1283D3C4591F406E221EE41EE68EDCA
:104E40007CE50E94A52680E00F910895263FFCE5B1
:104E50003F07E9F0B0F0273F3C45F9F0FC018281C3
:104E6000882339F110920504EFCF07E225EE45EED5
:104E700069ED7CE5E6CF06E221EE40EE64EF7CE5ED
:104E8000E0CF07E225EE44EE65EF7CE5DACF06E2FF
:104E900021EE42EE66EF7CE5D4CF07E225EE46EE4A
:104EA00067EF7CE5CECF08E221E045EE6AED7CE5D8
:104EB000C8CF81E0C9CF1092B9008CE08093B800D0
:104EC0000895B0E0A0E0E7E6F7E20C949431B82E44
:104ED000EB010E94012A6C01EE24E394F12CC43111
:104EE000D10560F025E0E22EF12CCF3FDC0731F058
:104EF000CE0164E170E00E945F317B0184EAA82E5C
:104F000094E8992E1092BC00A092BC000E94012A45
:104F10008C018091BC0087FF0DC08091B900887F13
:104F2000883001F18091B900887F8031D9F00FEF8E
:104F30001FEF09C00E94012A801B910B8E159F054F
:104F400040F30EEF1FEFCF3FDC07E1F2C6010E94F6
:104F5000192A8C179D07B0F2C801CDB7DEB7EBE078
:104F60000C94B031B092BB009092BC000E94012A18
:104F70008C018091BC0087FF0AC08091B900887FB6
:104F8000883111F0803499F610E000E0E5CF0E94FE
:104F9000012A801B910B8E159F0558F3D2CF0F93DA
:104FA0001F93CF93DF93EB018093BB0084E8809342
:104FB000BC000E94012A8C018091BC0087FF11C0B7
:104FC0002091B900287F81E090E0283211F490E030
:104FD00080E0919581959109DF91CF911F910F917B
:104FE0000895CF3FDC0741F30E94012A801B910BFB
:104FF0008C179D0708F38EEF9FEFEECF0F931F9353
:10500000CF93DF93EC0184E88093BC000E94012AD7
:105010008C018091BC0087FF08C08091BB0090E0AC
:10502000DF91CF911F910F910895CF3FDC0789F356
:105030000E94012A801B910B8C179D0750F38EEF65
:105040009FEFEECF84E98093BC00089590938F0288
:1050500080938E02089590930B0480930A04089520
:10506000E0910A04F0910B04309729F00190F0814F
:10507000E02D0995089580E008950E943028089554
:10508000E0910A04F0910B04309799F020911C02F2
:10509000222359F02091370427FF07C0DC012C910F
:1050A00011962C93119726E02C930280F381E02D2A
:1050B00009950895E0910A04F0910B04309721F0CE
:1050C0000480F581E02D0995089520910804309120
:1050D00009042817390771F0909309048093080494
:1050E000E0910A04F0910B04309721F00680F781DB
:1050F000E02D0995089520910604309107042817A2
:10510000390771F09093070480930604E0910A0434
:10511000F0910B04309721F00084F185E02D099582
:105120000895FC01329680911C02882321F0809121
:1051300037049EE187FF96E080E0915008F40895DF
:1051400021912223D1F38F5FF8CF662301F12091C3
:105150001C022223F1F02091370427FF1AC0462FAA
:105160004695469546954E3190F4677021E030E0C3
:1051700002C0220F331F6A95E2F7840F911DFC01D4
:10518000828190E02823392381E0232B69F480E099
:105190000895FC01329608962191261721F0E81710
:1051A000F907D1F7F4CF81E008959C01FC01329614
:1051B0009FEF80E04191461751F09F3F19F4411154
:1051C00001C0982F8F5F8630A9F79F3F09F408959B
:1051D000290F311D97FD3A95F90162830895FC016D
:1051E000329608962191261303C0DF0111971C9275
:1051F000E817F907B9F70895E62FE695E695E695DD
:10520000EE3168F4E80FF92FF11D677021E030E00E
:1052100001C0220F6A95EAF78281822B828308956A
:10522000E62FE695E695E695EE3170F4E80FF92F56
:10523000F11D677021E030E001C0220F6A95EAF7A6
:105240002095828128232283089520911C02222305
:1052500039F02091370427FF03C00E94FC280895ED
:105260000E94D528089520911C02222339F0209114
:10527000370427FF03C00E94102908950E94EF28D9
:105280000895FC01329680911C02882351F0809190
:10529000370487FF06C08EE1DF011D928A95E9F78A
:1052A000089586E0F9CF45E050E00E94EF3221E01A
:1052B000892B09F420E0822F089508950E945D292A
:1052C0000895811106C081E080930C040E945E293C
:1052D000089582E0F9CF83E080930C040E945E2958
:1052E00008950E946129089581E080930C040E9432
:1052F0005E2908950E9474290895089508950E94D2
:105300007E29089508950E947D290895CF930E94D3
:105310002C080E94B01C0E948229C0E08C2F0E94A1
:10532000971C811105C0CF5FCE30C1F7CF91089592
:1053300081E0FCCF85B7806885BF85B7806885BF71
:1053400008951F921FB61F9211248F939F93AF93BE
:10535000BF9380910D04811113C080915C049091E2
:105360005D04A0915E04B0915F044196A11DB11D42
:1053700080935C0490935D04A0935E04B0935F04FB
:10538000BF91AF919F918F911F901FBE1F90189555
:1053900080916404843031F10E94C10D10920D049B
:1053A00088E190E020E40FB6F894A895809360001F
:1053B0000FBE2093600083B7817F846083BF83B773
:1053C000816083BF7894889583B78E7F83BF0FB643
:1053D000F894A89580916000886180936000109295
:1053E00060000FBE08950E94E6120E94C60D089547
:1053F00082E084BD93E095BD9AEF97BD80936E00E7
:1054000008952FB7F89480915C0490915D04A09169
:105410005E04B0915F042FBF08952FB7F894609198
:105420005C0470915D0480915E0490915F042FBFD5
:1054300008959C014FB7F89480915C0490915D04AD
:10544000A0915E04B0915F044FBF821B930B08953F
:1054500078941F921FB61F9211248F939F93AF933E
:10546000BF9380915C0490915D04A0915E04B09123
:105470005F040196A11DB11D80935C0490935D04AF
:10548000A0935E04B0935F04BF91AF919F918F9101
:105490001F901FBE1F901895F89481E08093E00044
:1054A00080E28093D800E9ECF0E010828FE19EE486
:1054B0000197F1F700C000001DBA109268001CBCF3
:1054C00010BE1FBA10927A0010926E0010926F00F8
:1054D00010927100109272001082ECEBF0E01082DA
:1054E00014B817B81AB81DB810BA108215B818B881
:1054F0001BB81EB811BA0C94003F089588E19AE0D9
:105500000FB6F894A895809360000FBE909360004A
:10551000FFCF80913104089508959C0182E080932B
:10552000E9009FEF8091E800915085FD06C085ED70
:105530008A95F1F700009111F5CF8091E80085FF81
:105540000CC050E040E065E070E0C9010E94D82C3A
:105550008091E8008E778093E8000895CF93DF93E1
:10556000EC0180911C028823B1F18091370487FF00
:1055700032C060E283E08093E9008FEF9091E80011
:10558000815095FD06C095ED9A95F1F700008111C7
:10559000F5CF8091E80085FF1BC080911C0270E070
:1055A00050E040E0811104C050E040E068E070E06D
:1055B000CE010E94D82C8091E8008E778093E8007D
:1055C00080E2FE01A1E1B4E001900D928A95E1F73D
:1055D000DF91CF91089568E081E0CDCF80930E04F4
:1055E0007093100460930F0480916404843001F57B
:1055F00083E08093E9008FEF9091E800815095FD62
:1056000006C095ED9A95F1F700008111F5CF8091D4
:10561000E80085FF0DC050E040E063E070E08EE000
:1056200094E00E94D82C8091E8008E778093E80067
:105630000895BC0184E00E94EE2A0895BC0183E035
:105640000E94EE2A089580916304811109C00E948E
:10565000682E0E94C52E8091E20084608093E20053
:1056600008951092630408950E947429089560912A
:10567000600481E0611101C080E00E946B290895FF
:105680009091640481E0943009F080E060916004BE
:105690000E947129089542E061EC81E00E94E42DAE
:1056A00042E061EC82E00E94E42D42E261EC83E0A2
:1056B0000E94E42D9091640481E0943009F080E030
:1056C000609160040E94612908958091660483308E
:1056D00009F463C030F48130E1F1823009F4A0C0F4
:1056E00008958A3009F48CC08B3009F471C0893078
:1056F00009F052C080916504813209F04DC080915B
:10570000690490916A04009719F0029709F044C067
:105710008091E800877F8093E8008091E80082FF15
:1057200037C09091F3008091F200029731F480919C
:10573000F100813011F0863021F48091F1008093E6
:1057400031048091E8008B778093E8000E94182E46
:1057500023C080916504813AF9F48091E800877F45
:105760008093E8008091690490916A04892B61F428
:1057700060E281E194E070E00E94272D8091E800D2
:105780008B778093E800089560E090E080E0F3CFAD
:10579000809164048111C1CF089580916504813A9C
:1057A000D9F78091690490916A04892BA9F78091B7
:1057B000E800877F8093E8008091E80080FFFCCFBD
:1057C00080911C028093F1008091E8008E77BCCF1D
:1057D00080916504813201F78091690490916A0497
:1057E000892BD1F68091E800877F8093E8000E94A2
:1057F000182E8091670480931C020E94E61208957F
:1058000080916504813241F68091E800877F809322
:10581000E8000E94182E8091680480933204089555
:1058200080916504813A09F0B7CF8091E800877FC5
:105830008093E8008091E80080FFFCCF80913204E3
:10584000C1CF84B7877F84BF0FB6F894A8958091A5
:105850006000886180936000109260000FBE80E855
:1058600090E00FB6F89480936100909361000FBEB2
:105870000E947A2908950E94682E0E94C52EE2EEA9
:10588000F0E080818460808378940E9444310895A0
:1058900080E192E00E942B28089580916404853075
:1058A00031F480916404853019F00E94F329089541
:1058B0000E94C82980916204882399F30E94862956
:1058C000882379F30E94C22C0E94E612EACF089541
:1058D0000E946B2C0895292F33272330310521F1A5
:1058E00068F42130310509F443C02230310509F450
:1058F00044C090E080E030E020E026C02132310555
:1059000051F122323105A9F76330710590F7FB019F
:10591000EE0FFF1FEE57FD4F2081318161587D4F03
:10592000FB01808190E010C099278130910581F0C2
:10593000009729F00297E9F6E8E5FCE002C0E2EB07
:10594000FCE0849190E09F01FA0131832083089567
:10595000E6E9FCE0F6CF6330710558F6660F771F75
:10596000FB01E857FD4F2081318189E090E0ECCFC9
:1059700082E190E02AE03DE0E7CF84E590E026EB8D
:105980003CE0E2CF80E189BD82E189BD09B400FE3F
:10599000FDCF8091D8008F7D8093D8008091E0006A
:1059A00082608093E0008091E00081FDFCCF08954B
:1059B000AF92BF92CF92DF92FF920F931F93CF933C
:1059C000DF936C01EB018A010E94372EF82E8111C2
:1059D00023C00115110539F0F80180819181C81BA0
:1059E000D90BC80ED91EB12CA12C2097A9F08091FB
:1059F000E80085FD22C08091E8008E778093E80062
:105A000001151105A1F0F80180819181A80EB91E40
:105A1000B182A08285E0F82E8F2DDF91CF911F916A
:105A20000F91FF90DF90CF90BF90AF9008950E94AC
:105A3000372E8823D1F2F82EEFCFF60181916F0136
:105A40008093F1002197FFEFAF1ABF0ACECFFC0180
:105A500080916B0490916C0486179707A0F06115F4
:105A6000710529F49091E8009E779093E80090E00A
:105A70006115710551F4911108C08091E80082FF11
:105A800034C080E00895BC01F2CF80916404882383
:105A9000C1F18530C1F18091E80083FD30C0809173
:105AA000E80082FDEACF8091E80080FFE1CF80919D
:105AB000F3002091F200382F6115710519F028309C
:105AC000310558F091E02830310509F090E020913F
:105AD000E8002E772093E800CBCF81918093F100EE
