:100000000C9423060C9440060C9440060C94400675
:100010000C9440060C9440060C9440060C94400648
:100020000C9440060C9440060C94D32C0C94A72DF1
:100030000C94DE270C9440060C9440060C94400669
:100040000C9440060C9440060C9440060C94400618
:100050000C9440060C9435280C9440060C944006F1
:100060000C9440060C9440060C9440060C944006F8
:100070000C9440060C9440060C9440060C944006E8
:100080000C9440060C9440060C9440060C944006D8
:100090000C9440060C9440060C9440060C944006C8
:1000A0000C9440060C9440060C944006000D010D83
:1000B000020D030D040D050D000C010C020C030CC8
:1000C000040C050C000B010B020B030B040B050BBE
:1000D000000A010A020A030A040A050A00090109C2
:1000E00002090309040905090008010802080308B8
:1000F00004080508000701070207030704070507AE
:1001000000060106020603060406050600050105B1
:1001100002050305040505050004010402040304A7
:10012000040405040003010302030303040305039D
:1001300000020102020203020402050200010101A1
:100140000201030104010501000001000200030097
:1001500004000500737472696E6700636F756C64E8
:1001600020007468616E6B73003D3E207B7D010151
:100170005001012800636F6E73742000796F75273A
:1001800072652000776974682000796F75200079A6
:100190006F757220006D616B652000636F6D2000CC
:1001A0007468656D65207761746368202D65200033
:1001B0006769742070756C6C006769742070757362
:1001C00068206F726967696E200067697420636FC9
:1001D0006D6D6974202D6D20222201015000676928
:1001E0007420616464202E00272B44454C455445FF
:1001F0005F4D4554414649454C442B00687474702A
:10020000733A2F2F692E7974696D672E636F6D2F86
:1002100076692F2F687164656661756C742E6A70DB
:1002200067010150010150010150010150010150CD
:100230000101500101500101500101500101500123
:100240000150010150010150010150007374796C9B
:10025000653D00636C6173733D22220101500063B0
:100260006C6173734E616D653D2222010150006C1B
:100270006566743A20303B01012800746F703A20A3
:10028000303B010128006865696768743A203130A5
:1002900030253B0101280077696474683A203130C9
:1002A00030253B01012800706F736974696F6E3AE5
:1002B000206162736F6C7574653B01012800636F88
:1002C0006E74656E743A2027273B010128007B2558
:1002D0002072656E6465722027696D6727207769D3
:1002E00074682020257D010150010150010150005A
:1002F0007B252072656E6465722020257D0101508A
:10030000010150010150007C20617070656E643AFB
:100310002027007B252061737369676E2020257D6F
:1003200001015001015001015000616C69676E2D9F
:100330006974656D732D006A7573746966792D63D0
:100340006F6E74656E742D000102E0650103E000BC
:100350006C6974652D796F75747562652E5B76694D
:1003600064656F696420706C61796C6162656C5D55
:1003700000636F6E736F6C652E6C6F6728290101C7
:1003800050006469762E636F6E7461696E657201E8
:10039000012B0001012B00696D672E5B6C6F61649E
:1003A000696E673D226C617A79222077696474688E
:1003B0003D2222206865696768743D22225D004302
:1003C0006861726C65732043686175007B2520202D
:1003D000257D01015001015001015000433A5C5557
:1003E000736572735C557365725C736F7572636568
:1003F0005C576F726B7370616365735C53686F7089
:100400006966795C007B2520656E64636F6D6D6540
:100410006E7420257D007B2520636F6D6D656E7485
:1004200020257D0029002B002A00E1005043000018
:100430001E00140004001D444F4501001F001A0057
:1004400015001B0052464C00200009001600060053
:1004500051002B61210013001700190028413900B9
:1004600022000A000700050000002A6401000100C4
:10047000000001000000B15D01000100000001006A
:100480000000E30023000D000B000E0000002842D6
:1004900024000F00110010002C002B722500180002
:1004A0000800360031004C0026001C000C0037000C
:1004B0002F00E40027003300120038003000010054
:1004C0002E0034002D00E50035430000010001003E
:1004D0004C000100010000003C043C0404111D011B
:1004E0001D0301002C001A0115011B01B6000100BB
:1004F00036010901160106114E0101004B010A03E4
:1005000017011911010001004E010F030701051326
:1005100000000100010001000000010000000100D6
:1005200001000100000001000000E0003F004A025D
:100530002F0226020000E2004B004A005000340265
:1005400001004A124E00520051002E000100E1004D
:1005500026024D004F0034000100010027024D0229
:100560003002270201004D02460001003100E50083
:10057000010000000100010039000100010000003D
:1005800001000100F1000100010001000100F9007B
:10059000EF00F2000100FE000100ED00EE00F300AC
:1005A0000100FF000100FA00F000F100010001006D
:1005B0000100B700B60001000000010001000100C9
:1005C0000000010000000100010001000000010026
:1005D00000000100B5000100010001000000010061
:1005E000B6004A005000190101000100F30052005A
:1005F000510006010100E100B7004D004F001B0152
:10060000AA0001000100010030021D01A900010043
:100610000F08010031000100010000000100AB5D86
:1006200039000100010000003A00AB5DB25DAC5D35
:10063000010001003B00B35DB05D0100C05D010041
:100640003C00B45DAE5DA95DC15D01003D001301DC
:10065000AC5DAA5D010001003E00BA5DB95DB85D08
:100660000000010001000100000001000000010085
:100670000100010000000100000001003F005400E3
:1006800055000100000001004000240021001E0070
:10069000010001004100250022001F002700270063
:1006A000420026002300200037002E0043005600A1
:1006B0005700010001000100440045002E00010028
:1006C0000100000001000100010001000100000024
:1006D0000100010001000100010001000100010012
:1006E000B65D1A070100010001000100B55D0C05AF
:1006F0000100010001001301B75D060508050100B6
:1007000001000A01010001000000010001000100D8
:1007100000000100000001000100010000000100D4
:1007200000000100010001000100010000000100C3
:1007300001000100010001000100010001000100B1
:1007400001000100010001000100010001000100A1
:100750000100010001000100010001000100010091
:10076000010001000100010001000000065101002C
:100770000100010001000000010001000100010072
:100780000100010001000100010001004B01010016
:1007900001000100010001004E0101000100010003
:1007A0000100010008050100010001000100010035
:1007B0000000010001000100000001000000010034
:1007C0000100010000000100000001000100010023
:1007D0000100010000000100010001000100010012
:1007E0000100010001000100010001000100010001
:1007F00001000100010001000100010001000100F1
:1008000001000100010001000100010001000100E0
:1008100001000000010001000100010001000000D2
:1008200001000100010001000100010001000100C0
:100830000100010001000100010001004B01010065
:1008400001000100010001004E0101000100010052
:100850000100010001000100000001000100010091
:100860000000010000000100010001000000010083
:100870000000010001000100010001000000010072
:100880000100010001000100010001000100010060
:100890000100010001000100010001000100010050
:1008A0000100010001000100010001000100010040
:1008B000005C0100010001000100000001000100D6
:1008C0000100010001000000010001000100010021
:1008D000010001000100240021001E00370001007A
:1008E0000100250022001F00270001000100260052
:1008F00023002000010001000100010001000100AF
:1009000000000100010001000000010000000100E2
:1009100001000100000001000000010001000100D1
:1009200001000100000001000100010001000100C0
:1009300001000100010001000100010001000100AF
:10094000010001000100010001000100010001009F
:10095000010001000100010001000100010001008F
:100960000100000017000E00160000000F00070035
:1009700000000600170000001C0015000000150014
:1009800008000A000000170015000800000007001A
:100990001500080000001C001800000018001500D9
:1009A00000001A003800000010000E0000000600D1
:1009B0001000000017000B0008001A0000000B00D8
:1009C0000C00180000000B000C00130000000B00CE
:1009D0000C00060000000B000C00040000001600D4
:1009E0000C000A00000007001000080000000C00C6
:1009F000170004000000160017001C00000006008D
:100A00000F00000006000F000800000000000000BA
:100A1000000000002A2B2800000000000000000059
:100A20000000000000000029000000002C1E3420FF
:100A3000212224342627252E362D3738271E1F2025
:100A40002122232425263333362E37381F0405066A
:100A50000708090A0B0C0D0E0F10111213141516AE
:100A60001718191A1B1C1D2F3130232D35040506AC
:100A70000708090A0B0C0D0E0F101112131415168E
:100A80001718191A1B1C1D2F3130354C000000009F
:100A90000000000000000000000000000000000056
:100AA0000000000000000000000000000000000046
:100AB0007E0F00D4FFFFFFC700000078160345003B
:100AC000720067006F0044006F007800200045004E
:100AD0005A00000028035A0053004100200054002F
:100AE0006500630068006E006F006C006F006700B7
:100AF000790020004C0061006200730000000403D4
:100B0000090409023B00020100A0FA0904000001E7
:100B100003010100092111010001224000070581A4
:100B20000308000A09040100010300000009211163
:100B300001000122B6000705820320000A1201000D
:100B4000020000000897327449010001020001050B
:100B5000010902A10185020901A100050919012964
:100B60000815002501950875018102050109300964
:100B7000311581257F950275088106093815812573
:100B80007F950175088106050C0A38021581257FBD
:100B9000950175088106C0C005010980A101850382
:100BA00019012AB700150126B700950175108100BB
:100BB000C0050C0901A101850419012AA002150133
:100BC00026A002950175108100C005010906A1014A
:100BD0008506050719E029E7150025019508750127
:100BE00081020507190029EF1500250195F075010F
:100BF00081020508190129059505750191029501E4
:100C000075039101C005010906A101050719E02935
:100C1000E715002501950875018102950175088188
:100C2000010507190029FF150026FF009506750824
:100C300081000508190129059505750191029501A5
:100C400075039101C00011241FBECFEFDAE0DEBFB3
:100C5000CDBF12E0A0E0B1E0E6EAF2E602C0059006
:100C60000D92AA33B107D9F724E0AAE3B2E001C09C
:100C70001D92AE30B207E1F70E942E1C0C94FA30A0
:100C80000C9400008098889A8198899A84988C9A0C
:100C900085988D9A86988E9A87988F9A089520982D
:100CA00028982198299822982A9823982B98529826
:100CB0005A9853985B983E9846980895CF93C82FBA
:100CC000873070F58091060190910701892B89F595
:100CD00064E670E080E40E9485259093070180938C
:100CE0000601892BD1F464E670E082E10E94FF25C1
:100CF0009093070180930601892B79F481E090E0BD
:100D000001C0880FCA95EAF764E670E080950E94FA
:100D1000FF259093070180930601CF910C945226F2
:100D20008A30B9F040F4883071F0893079F0209A37
:100D30002898CF9108958C3091F070F08D30B9F7EC
:100D40003E9A4698F6CF219A2998F3CF229A2A986C
:100D5000F0CF239A2B98EDCF529A5A98EACF539A14
:100D60005B98E7CFCF93873050F580910601909143
:100D70000701C0E0892B71F464E670E081E40E9411
:100D800085259093070180930601892B31F0C0E0FF
:100D90000E9452268C2FCF91089584E690E00E9405
:100DA0002E2697FF05C09093070180930601EFCF91
:100DB000C82FC0951092070110920601E9CFCFB15C
:100DC0008FB1869586958C73C3708C2BC82FC09578
:100DD000E1CF0E94EF0790E0909307018093060116
:100DE0000E944F060C944206EF92FF920F931F93BE
:100DF000CF93DF938091060190910701892B91F0A9
:100E000080913C028F5F80933C0281110BC00E9455
:100E1000EF0790E09093070180930601892B11F46E
:100E20000E94840706ED13E0C0E0D0E087E0E82EE2
:100E3000EC0E8C2F0E945E068E2D0E945E068C2F7B
:100E40000E94B206F8019081F12C891719F0808375
:100E5000FF24F3948E2D0E94B206F8019781891722
:100E600099F0878381E08F29D82B0E944F06CF5FAE
:100E70000F5F1F4FC730D1F68D2FDF91CF911F919C
:100E80000F91FF90EF90089580E0EDCF0E94EF0763
:100E900090E090930701809306010E944F060E9404
:100EA0004206E4EEF3E0119283E0E23FF807D9F75F
:100EB0000895259A2D9A0895269A2E9A0895279A8C
:100EC0002F9A089556985E98089525982D9808951C
:100ED00026982E98089527982F9808950E946207C3
:100EE0000E9465070E9468070C946B0790E090933E
:100EF00089008093880090938B0080938A00909360
:100F00008D0080938C0008950E946E078FEF0E94E1
:100F100076070E9459072FEF80E792E0215080402A
:100F20009040E1F700C000000E945C072FEF80E7CF
:100F300092E0215080409040E1F700C000000E9404
:100F40005F072FEF80E792E0215080409040E1F76B
:100F500000C000000E9465072FEF80E792E021505B
:100F600080409040E1F700C000000E9468072FEF2A
:100F700080E792E0215080409040E1F700C00000FF
:100F80000E946B070C946E0789EA8093800089E0C9
:100F90008093810024982C983F988AB18F7C8AB9DD
:100FA0006E98479A8BB180638BB9769A0E94F51739
:100FB0006093D0037093D1038093D2039093D303B3
:100FC00067702FEF629FC0011124959587959595C5
:100FD00087950E9476070E9484070C945F1B80E22D
:100FE00090E0909307018093060180913D0281116A
:100FF0000EC00E947F2581E080933D022FEF83ED9C
:1010000090E3215080409040E1F700C0000064E68A
:1010100070E080E40E94852590930701809306018B
:10102000892B09F04EC064E670E080E00E94FF2545
:101030009093070180930601892B09F042C064E672
:1010400070E080E00E94FF259093070180930601E5
:10105000892BB9F564E670E08FE30E94FF25909339
:10106000070180930601892B61F50E94522664E6F0
:1010700070E080E40E94852590930701809306012B
:10108000892BF9F464E670E08CE00E94FF259093D0
:10109000070180930601892BA1F464E670E080E0EB
:1010A0000E94FF259093070180930601892B49F444
:1010B00064E670E08FE30E94FF2590930701809320
:1010C00006010E9452268091060108951092D003D5
:1010D0001092D1031092D2031092D30384E0806166
:1010E0008093D0036091D0037091D1038091D2039B
:1010F0009091D3030E94F9170C940518CF93DB014C
:10110000875A9D458C329105A8F4FC01E450FF4CB0
:101110000C94812F1296CC91CC2319F00E9469185F
:10112000C0E08C2FCF9108951296CC9186E194E087
:10113000C11108C0C1E0F5CF1296CC9185E094E0D2
:10114000CC23C1F30E94570CECCF1296CC918CEDBE
:1011500093E0CC2379F3F6CF1296CC918CEC93E00C
:10116000CC2341F3EFCF1296CC918FEB93E0CC23BD
:1011700009F3E8CF1296CC91CC23E1F287E993E012
:101180000E94570C83E993E0DDCF1296CC91CC23DB
:1011900089F282EE0E94590D8CE20E94580E82EE76
:1011A0000E94EB0D81E10E94580EBBCF1296CC91AC
:1011B00082E893E0CC2309F4BDCFC4CF1296CC9142
:1011C00081E793E0CC2309F4B5CFBCCF1296CC9144
:1011D000CC2309F4AFCF80E593E00E94570C88E45C
:1011E00093E0B0CF1296CC91CC23A1F08091400235
:1011F000811106C081E08093400282EE0E94590D69
:101200000E940E2890933F0280933E028BE20E9440
:10121000590D87CF8BE20E94EB0D8CCF1296CC91AB
:1012200087E393E0CC2309F485CF8CCF1296CC9141
:101230008AE293E0CC2309F47DCF84CF1296CC913F
:1012400083E193E0CC2309F475CF7CCF1296CC9147
:1012500087E093E0CC2309F46DCF74CF1296CC9144
:1012600080EF92E0CC2309F465CF6CCF1296CC913D
:101270008EEC92E0CC2309F45DCF64CF1296CC9132
:10128000CC2309F457CF8EEB92E00E94570C87EAEB
:1012900092E00E94570C87E992E00E94570C86E882
:1012A00092E00E94570C8BE792E00E94570C8FE669
:1012B00092E048CF1296CC918FE592E0CC2309F4CE
:1012C00039CF40CF1296CC9183E592E0CC2309F43C
:1012D00031CF38CF1296CC918CE492E0CC2309F434
:1012E00029CF30CF1296CC918CEF91E0CC2309F42A
:1012F00021CF28CF1296CC9188EE91E0CC2309F42F
:1013000019CF20CF1296CC918EED91E0CC2309F429
:1013100011CF18CF1296CC918AEC91E0CC2309F42E
:1013200009CF10CF1296CC9189EB91E0CC2309F430
:1013300001CF08CF1296CC9180EB91E0CC2309F439
:10134000F9CE00CF1296CC9180EA91E0CC2309F43B
:10135000F1CEF8CE1296CC918BE991E0CC2309F432
:10136000E9CEF0CE1296CC9185E991E0CC2309F438
:10137000E1CEE8CE1296CC918FE891E0CC2309F42F
:10138000D9CEE0CE1296CC918AE891E0CC2309F434
:10139000D1CED8CE1296CC9184E891E0CC2309F43A
:1013A000C9CED0CE1296CC918CE791E0CC2309F433
:1013B000C1CEC8CE1296CC9185E791E0CC2309F43A
:1013C000B9CEC0CE1296CC9189E691E0CC2309F437
:1013D000B1CEB8CE1296CC9182E691E0CC2309F43E
:1013E000A9CEB0CE1296CC918BE591E0CC2309F436
:1013F000A1CEA8CE1296CC91CC2309F49BCE84E545
:1014000091E0A0CE80914002882371F080913E024D
:1014100090913F020E9426288139914028F082EE67
:101420000E94EB0D10924002089581FD0C945F071D
:101430000C946B07CF92DF92EF92FF92CF936B01E8
:101440007C010E94640CC82F0E9462070E946807FA
:101450000E946507C23081F0C33061F0C13011F4E1
:101460000E945907C701B601CF91FF90EF90DF901E
:10147000CF9008950E9459070E945C07F3CF9C010A
:101480003A9521153F4150F5FC01EE27F170BC0162
:1014900066277270AC01442754709C012227387073
:1014A00094FF0EC080E1EF2B09F480E0672B09F078
:1014B0008062452B09F08064232B89F080680895B1
:1014C00081E0EF2B09F480E0672B09F08260452B67
:1014D00009F08460232B19F08860089580E0089556
:1014E000CF93DF93EC010E943F0A9E01205E3109F9
:1014F0002830310510F0209739F40E94600E8C2FAF
:10150000DF91CF910C94590D0E945511F8CFCF93D4
:10151000DF93EC010E94EB0DCE010E943F0A9E0179
:10152000205E31092830310510F0CD2B21F4DF91F8
:10153000CF910C94670EDF91CF910C945C11CF93F7
:10154000DF93EC010E94700ACE01DF91CF910C94E1
:10155000870A81E008950C947E0808950C94AD0AE2
:101560001F93CF93DF9300D000D00F92CDB7DEB79B
:1015700049835A836B8330914F0289819A8131115B
:101580001DC06623B9F02223A9F00E942F13182F43
:10159000682F89819A810E94D81269817A81812F6E
:1015A0000F900F900F900F900F90DF91CF911F91A0
:1015B0000C94461A0E940613182FEFCF0E942F1387
:1015C00069817A81EDCFFC01262F86819781009772
:1015D00039F4408151816281738184810C94B00A15
:1015E0000895CF93DF93EC0161E00E94E30ABE010E
:1015F000DF91CF910C94CA22CF93DF93EC0160E08E
:101600000E94E30ABE01DF91CF910C94AE0A0E94C2
:101610003B1B0E94B70C0E94EE1E0C94C4070E9454
:1016200086220C94601B80E00C94B80C08950895F9
:101630000E9479110E94170B2FEF84E39CE0215048
:1016400080409040E1F700C000000C9459280F93AF
:101650001F93CF93DF938C0161E00E94E30AEC01BA
:10166000B8010E94AB0A8823D9F1B801CE010E94CB
:10167000A61F8823A9F1B801CE010E942D25882339
:1016800079F1B801CE010E94D91F882349F1B80130
:10169000CE010E949724882319F1F80182818823C2
:1016A00061F0CB35FDE5DF0721F170F4C115ECE504
:1016B000DE07A1F0CF3DDC45C9F0C801DF91CF9135
:1016C0001F910F910C94A90ACC358DE5D807A1F094
:1016D000CD35DD4591F70E94B817EFCF0E94180B6A
:1016E00080E0DF91CF911F910F9108950E946918BA
:1016F000F7CF0E94C117E1CF0E94C417DECF0C9430
:10170000160B0E9460260E94B80C0C947F0BDF928F
:10171000EF92FF920F931F93CF93DF93E82FF0E0A8
:10172000E45FF54FD490282F26952695269530E036
:10173000F901E455F54F0491877010E0082E02C0BE
:10174000159507950A94E2F701701127F901E456FF
:10175000F54FE490F12C082E02C0F594E7940A941A
:10176000E2F791E0E922FF24F901E457F54FC49133
:10177000D0E002C0D595C7958A95E2F7C170DD2704
:101780000115110519F081EE0E94590DE114F104C3
:1017900019F086EE0E94590D8D2D0E94580EEF28EB
:1017A00019F086EE0E94EB0D012B19F081EE0E94DC
:1017B000EB0DCD2B51F08CE2DF91CF911F910F916A
:1017C000FF90EF90DF900C94580EDF91CF911F9116
:1017D0000F91FF90EF90DF900895EF92FF920F939B
:1017E0001F93CF93DF938C01F62E8AE0E82EF80149
:1017F0008491882309F454C0813009F04DC0E80178
:101800002196FE018491813091F42196FE0184910C
:101810000E94580E8E010F5F1F4F8F2D815038F39D
:10182000EFE9FFE03197F1F700C00000F7CF823019
:1018300039F4E8012296FE0184910E94590DEACF05
:10184000833039F4E8012296FE0184910E94EB0D69
:10185000E1CF8430F9F6E8012296FE01249190E070
:1018600080E0FE0131962053330B2A30310548F0D9
:10187000019780F2EFE9FFE03197F1F700C0000037
:10188000F7CFE89EA001E99E500D1124C901840FF5
:10189000951F2491EF01E5CF0E94870BE801BACF95
:1018A000DF91CF911F910F91FF90EF90089560E02D
:1018B0000C94ED0B982F9F709A50963018F0805D25
:1018C0000C94870B895AFCCFCF92DF92EF92FF9254
:1018D0006C01EE24FF2420E0C114D104E104F104E2
:1018E00019F0C701B60120E1C72ED82EE92EFF243A
:1018F000C114D104E104F10419F0285FC701B60155
:101900006B017C0154E0F694E794D794C7945A9500
:10191000D1F7C114D104E104F10419F02C5FC7011F
:10192000B6016B017C0142E0F694E794D794C7942A
:101930004A95D1F7C114D104E104F10419F02E5FE6
:10194000C701B6019695879577956795672B682BA4
:10195000692B09F02F5F822FFF90EF90DF90CF90DF
:1019600008950C94150A81E008950C94B30C089521
:10197000CF93C82F0E94B10C8C2FCF910C94B50C33
:10198000CF93DF93EC012881898141E050E0022E62
:1019900001C0440F0A94EAF7A82FB0E0AF5BBD4F37
:1019A0009C913A813323D9F0309151023323D1F005
:1019B00030E066E0869F200D311D1124220F331F79
:1019C000F901E355FF4FE491E983F901E455FF4F35
:1019D000E491E883492B4C93DF91CF910895392FFF
:1019E0003423E4CF40954923F6CFCF93DF93CDB78F
:1019F000DEB72D970FB6F894DEBF0FBECDBF498777
:101A00005A876B877C878D8761110E9413178C859D
:101A10009D85892B29F089859A8589238F3F81F5BA
:101A20001D821E821F82188685E0FE013996DE0126
:101A3000119601900D928A95E1F78C819D81892BF9
:101A400099F429813A814B815C816D817E818F81FE
:101A500098850E9405162D960FB6F894DEBF0FBE2E
:101A6000CDBFDF91CF91089589819A8189238F3FDE
:101A700041F3CE0101960E94F10A8111E2CFEBCF32
:101A8000CE0109960E94C00CCBCFFC0180819181D0
:101A90000E94711392959F70963051F4863F41F0E9
:101AA0008091510291E089278093510290935002D6
:101AB0000895CF93C82F882309F48BC08238C1F4CE
:101AC0000E94602681FD85C089E30E94A5160E94C0
:101AD00036172FEF81EE94E0215080409040E1F7DF
:101AE00000C0000089E30E94AC16CF910C94361719
:101AF0008338A1F40E94602680FD6BC083E50E94BC
:101B0000A5160E9436172FEF81EE94E021508040F9
:101B10009040E1F700C0000083E5E5CF8438A1F4F0
:101B20000E94602682FD55C087E40E94A5160E948F
:101B300036172FEF81EE94E0215080409040E1F77E
:101B400000C0000087E4CFCF8CEF8C0F813A90F477
:101B50006C2F8091C0019091C1010E94D7268823EB
:101B600029F08C2F0E94AC160E9436178C2F0E94F1
:101B7000A516BBCF80E28C0F883048F4C77081E097
:101B800001C0880FCA95EAF70E94F316AECFEBE5C5
:101B9000EC0FE33040F4F0E0EA5FFD4F808190E02D
:101BA000CF910C949726E8E5EC0FE73150F4F0E084
:101BB000EE0FFF1FE852FE4F80819181CF910C9470
:101BC000AD26CD3E30F08C2F0E94BE1CCF910C94E0
:101BD000911DCF910895882309F452C0823871F481
:101BE0000E94602681FF4CC089E30E94A5160E94D6
:101BF000361789E30E94AC160C943617833859F4D3
:101C00000E94602680FF3CC083E50E94A5160E94CA
:101C1000361783E5EFCF843859F40E94602682FF9F
:101C20002FC087E40E94A5160E94361787E4E2CFF2
:101C30009CEF980F913AF0F290E2980F983050F4A0
:101C4000877091E001C0990F8A95EAF7892F0E9469
:101C5000F916D2CF9BE5980F933020F490E080E006
:101C60000C94972698E5980F973120F490E080E047
:101C70000C94AD268D3E20F00E94181D0C94911DF1
:101C800008951F93CF93DF93182FEB010E94590DF6
:101C9000209731F4812FDF91CF911F910C94EB0DA0
:101CA0008FE99FE00197F1F700C000002197F0CF86
:101CB00070E060E0893311F460E570E00C94410E4F
:101CC000882321F00E94F3160C9436170895882378
:101CD00021F00E94F9160C94361708954F925F92E6
:101CE0006F927F92BF92CF92DF92EF92FF920F930B
:101CF0001F93CF93DF936C01C62F172FFC01D28166
:101D0000058102950F700E94E916E82E8823D1F014
:101D1000DD2329F1812F807F803441F090E29C0FF8
:101D20009830E8F0803611F4C63FC9F08091D503B1
:101D300082FD15C082E00E9487170E94E91691E09B
:101D4000E82EE926B12EB2949FE0B922FBE0FB1504
:101D5000C0F1EB2DF0E0E85DFE4C0C94812FE12CFE
:101D6000F1CF012F0F70812F807F11F00295007F3E
:101D7000DD2399F0002359F080E28C0F883010F0B9
:101D8000C11107C0802F0E94F3160E9436178C2FB6
:101D90006EC0802F0E940617F8CF8C2F0E94EB0D8B
:101DA000002379F080E28C0F883010F0C11104C05C
:101DB000802F0E94F91603C0802F0E940C170E94EA
:101DC00036172B2D2850330B2430310520F40E9478
:101DD00060260E94B80CDD2339F0107F103611F414
:101DE000C63F11F00E94DC16EE2009F406C20E94E4
:101DF000BF1680FD02C2F60112820E94B9160E942F
:101E00003C12C6010E9429110E94B916DF91CF91A0
:101E10001F910F91FF90EF90DF90CF90BF907F9038
:101E20006F905F904F900C945D12212F2F70F22EC7
:101E3000812F807F803219F0F29480EFF822CC233A
:101E400041F0C130E9F1DD2309F444C00023E9F198
:101E50009ECF8091D50382FF15C0DD2359F0FF206E
:101E600029F08F2D0E94F3160E94361780E00E9401
:101E7000590DA7CF80E00E94EB0DFF2009F4A1CF00
:101E80008F2D97CFDD2381F0011106C00E94191715
:101E90008F290E94600E95CF0130C1F70E9419175B
:101EA0008F290E941F178DCF011106C00E942C1789
:101EB0008F2D0E94670E85CF013009F482CFF6CFB7
:101EC000DD2329F0023008F07CCF8F2DE2CF011105
:101ED00078CFEECF002361F3C93349F43FEF87EEAB
:101EE00093E0315080409040E1F700C000008C2F1B
:101EF0000E94EB0D66CF812F86958695837069F0E1
:101F0000813009F05ECF8C2F912F9370D11102C0D8
:101F100090E080E00E94AD2654CF8C2F912F9370DB
:101F2000D11102C090E080E00E9497264ACF8C2F0A
:101F3000DD2329F00E94BE1C0E94911D42CF0E9409
:101F4000181DFACF812F837009F043C0D11139CF0A
:101F50002C2F229526952770220F220F6C2F6F7041
:101F6000462E512C712C612C022E04C0440C551CA1
:101F7000661C771C0A94D2F760E070E0CB01C4FFC6
:101F80000FC06FE070E080E090E004C0660F771F44
:101F9000881F991F2A95D2F7609570958095909526
:101FA000212F26952695237064297529862997293E
:101FB000223049F058F4213019F00E94F01101CF7D
:101FC0000E94DE11FECE0E940212FBCE0E94DC11A6
:101FD000F8CE8695DD2311F0812F8170882309F4D6
:101FE000F0CE2C2F229526952770220F220F6C2FD2
:101FF0006F70462E512C712C612C022E04C0440CA3
:10200000551C661C771C0A94D2F760E070E0CB0187
:10201000C4FF0FC06FE070E080E090E004C0660F86
:10202000771F881F991F2A95D2F760957095809524
:102030009095212F26952695237064297529862948
:102040009729223049F058F4213019F00E94B31238
:10205000B8CE0E94A112B5CE0E94C512B2CE0E9487
:102060001612AFCE012F0F70DD2329F0802F0E94B2
:102070003C128C2F0ECF8C2F0E94670E802F0E9457
:102080005D129FCEC23F39F160F4C03FB9F0C13F4D
:1020900081F0DD2309F446C0011179CE812F8F71C3
:1020A0001EC0C33FF9F0C43FA1F78091D50382FF62
:1020B00023C0812F8F71DD2311F311C0DD2339F08F
:1020C00001117FCE812F8F710E9480127ACE023053
:1020D00008F077CEF7CF812F8F71D111D0CF0E942A
:1020E0003C126FCEDD2329F0812F8F710E942712C1
:1020F00068CE0E94221265CEDD2351F0012F0F71B0
:10210000802F0E943C1263E0802F0E946C1759CEF2
:1021100081E00E948717023008F453CE82E00E94CB
:1021200087174FCE002359F0C93309F0E0CEEFEF07
:10213000F7EE23E0E150F0402040E1F7D6CE812FCA
:102140008F719DCFE0E1EC0FE73090F5F0E0EC5CB3
:10215000FE4C0C94812FDD2309F433CE8091510283
:1021600091E08927809351022CCED093510229CE41
:1021700081E08D27F7CFD11124CE81E0F3CFD111AB
:1021800020CE109251021DCEDD2319F00E94C316FD
:1021900018CE0E94CF1615CEDD2339F08091500263
:1021A0008823E1F2109250020CCE0023B9F209CE3E
:1021B000809150020023A9F0882341F080915102C0
:1021C00091E0892780935102109250028C2FD111F7
:1021D0004ECE0E94EB0D88E0F60111928A95E9F748
:1021E000F0CD882309F4EDCDD111EBCD80915102D2
:1021F00091E0892780935102D5CFDF91CF911F9134
:102200000F91FF90EF90DF90CF90BF907F906F90F5
:102210005F904F9008950F931F93CF93DF93EC013E
:102220008E819F81009779F00E9448198C010E944D
:10223000D7120E94DB11B801CE01DF91CF911F911F
:102240000F910C946E0E688179818A810E947B13B4
:10225000EDCFCF93DF93EC018B819C81892B29F00B
:102260008881998189238F3F59F4DF91CF91089517
:10227000CE010E940B11CE01DF91CF910C94FC0A8C
:10228000CE010E94270B8111F3CF0E94E91688230B
:1022900061F38A81882349F38091D50382FDE5CFDC
:1022A00082E0DF91CF910C948717882321F00E9460
:1022B00006170C9436170895882321F00E940C17F6
:1022C0000C943617089590E080E00E94972690E0E5
:1022D00080E00E94AD260E9413170E9416170E94EC
:1022E00036170E94B81E0C94911D0E94B3160C94D0
:1022F00063110E9403170C947511E92FE295EF709A
:10230000E250EE3070F4F0E0E55CFE4C0C94812F6E
:10231000803F19F020F4883E20F481E00895843F46
:10232000E1F380E00895883EC0F3813FD1F7F5CF17
:1023300093FB882780F90895FC0186819781009797
:1023400021F00E9448190C947D11808191810E9496
:102350007113F9CFCF93DF9300D000D00F92CDB798
:10236000DEB70F900F900F900F900F90DF91CF91ED
:102370000895CF93DF93CDB7DEB728970FB6F894C3
:10238000DEBF0FBECDBF28960FB6F894DEBF0FBEDE
:10239000CDBFDF91CF91089508950C94CC110E9488
:1023A000CD1160938D0270938E0280938F02909373
:1023B00090020C94631108950C94CF110F931F9306
:1023C00000918D0210918E0220918F023091900227
:1023D000602B712B822B932B1F910F910C94CF119B
:1023E0000F931F9300918D0210918E0220918F0206
:1023F0003091900260237123822393231F910F91C8
:102400000C94CF110F931F9300918D0210918E02A7
:1024100020918F02309190026027712782279327A5
:102420001F910F910C94CF110C941A0A0E94141250
:102430006093890270938A0280938B0290938C023E
:102440000C94631160E070E0CB010C9416120F93B2
:102450001F9341E050E060E070E08A019B0104C0FE
:10246000000F111F221F331F8A95D2F7C901B8012F
:102470001F910F910C9416120F931F9341E050E09F
:1024800060E070E004C0440F551F661F771F8A95F7
:10249000D2F78091890290918A02A0918B02B0912B
:1024A0008C028A019B01082B192B2A2B3B2BC9017B
:1024B000B8011F910F910C9416120F931F9341E0D6
:1024C00050E060E070E004C0440F551F661F771FA6
:1024D0008A95D2F7CB01BA01609570958095909559
:1024E0000091890210918A0220918B0230918C0216
:1024F00060237123822393231F910F910C94161252
:102500000F931F9341E050E060E070E004C0440F7F
:10251000551F661F771F8A95D2F780918902909187
:102520008A02A0918B02B0918C028A019B0108273C
:1025300019272A273B27C901B8011F910F910C9435
:1025400016120F931F930091890210918A02209115
:102550008B0230918C02602B712B822B932B1F915D
:102560000F910C9416120F931F93009189021091F2
:102570008A0220918B0230918C0260237123822386
:1025800093231F910F910C9416120F931F93009198
:10259000890210918A0220918B0230918C0260276F
:1025A0007127822793271F910F910C94161208957B
:1025B000E92FEE0FE90FEE0F8E0F982F977041E085
:1025C00001C0440F9A95EAF786958695869595E021
:1025D000899FF0011124EE5AFD4F30E020E070E0B9
:1025E0005191DF011197CB01022E02C0969587957C
:1025F0000A94E2F7817081958527842385278C933F
:102600002F5F3F4F2530310559F70895E92FEE0F21
:10261000E90FEE0F8E0F982F977086958695869509
:1026200025E0829FF0011124EE5AFD4F50E040E07A
:1026300080E0219130E0092E02C0369527950A945A
:10264000E2F721703327042E01C0220F0A94EAF723
:10265000822B4F5F5F4F4530510559F70895BF9268
:10266000CF92DF92EF92FF920F931F93CF93DF935E
:102670008C01C0908902D0908A02E0908B02F09089
:102680008C0280918D0290918E02A0918F02B09168
:102690009002C82AD92AEA2AFB2ACFE1D0E0BC2E30
:1026A000D701C6010C2E04C0B695A79597958795BE
:1026B0000A94D2F780FD0EC0219788F7B12C8B2D9C
:1026C000DF91CF911F910F91FF90EF90DF90CF900E
:1026D000BF900895B8018C2F0E945A1A019761F398
:1026E000EECFCF93DF93EC010E942F13BE01DF9159
:1026F000CF910C945A1A1F93CF93DF93EB019091D3
:102700004F02992331F0CB01DF91CF911F910C94AF
:102710007113882379F0CB010E942F13182F682F93
:10272000CE010E94D812BE01812FDF91CF911F915F
:102730000C945A1ACB010E940613182FF4CFCF9392
:10274000DF93C0919102809192028C1303C0DF91BC
:10275000CF910895D0E0FE0183E0EE0FFF1F8A9530
:10276000E1F7ED56FD4F2081318142815381648133
:102770007581868197810E94B9112196C770E3CF38
:102780002091D3023091D4024091D5025091D602CB
:102790006091D7027091D8028091D9029091DA02AB
:1027A0000C94B9110F931F93CF93DF938091D802AC
:1027B000807FC1F48091D5028823A1F0809191029D
:1027C000109192026091D3027091D402A091D6022E
:1027D000B091D702062F0723C091BE01D091BF014F
:1027E000181305C0DF91CF911F910F91089590E0CC
:1027F000109711F00F3F19F401968770F1CF9C01EB
:1028000043E0220F331F4A95E1F7F901ED56FD4FE2
:1028100041814713F1CF40814613EECF42814111F0
:10282000EBCF438154814A1B5B0B4C175D0720F7AC
:102830008091D8028F7080618093D802F901E856A8
:10284000FD4F80818F708061808383ED92E00E94D4
:102850002911DF91CF911F910F910C949F13AF928B
:10286000BF92CF92DF92EF92FF920F931F93CF937D
:10287000DF93CDB7DEB765970FB6F894DEBF0FBE16
:10288000CDBF8C0185E0F801DE01519601900D92DB
:102890008A95E1F7F801E28043EDC42E42E0D42EA0
:1028A0006091D6027091D7026115710509F491C14A
:1028B0009091D3022091D402892F82238F3F09F473
:1028C00088C140815181A380B480F090D502F50188
:1028D000E61BF70BBF01E091BE01F091BF01FF20A5
:1028E00009F42CC18091D802382F307F6E177F07F2
:1028F00008F0D6C0311183C0FE2C25132DC09413CF
:102900002BC06091D9027091DA02F80126813781DB
:102910006217730709F5E1101FC08F708061809303
:10292000D8020E94C013C6010E9429118091D802CA
:10293000F80185838F2D65960FB6F894DEBF0FBE24
:10294000CDBFDF91CF911F910F91FF90EF90DF905E
:10295000CF90BF90AF900895AB2829F0842F8523A6
:102960008F3F09F04FC180E0F82FF170DF2E80FF1C
:102970003CC08091910220919202821315C0498B34
:102980005A8B89899A890E947113292F22952F7059
:102990002230F8F0243020F59F70F9F0F80195818D
:1029A000907FD9F4D12C1FC090E0FC0133E0EE0FF2
:1029B000FF1F3A95E1F7ED56FD4F3181351306C003
:1029C0003081341303C032813E110FC001968770ED
:1029D000D4CF9F7011F0882329F3805E883010F3E4
:1029E000C8010E942911FD2CA5CFEE2009F4A2CF29
:1029F0008091D80281608093D802F12C9BCF25135F
:102A00001DC094131BC04091D9025091DA02F80105
:102A1000268137814217530789F4E1100FC085835F
:102A2000C8010E94291188E0F801A3EDB2E00190ED
:102A30000D928A95E1F70E94C0137CCFC8010E94D5
:102A40009C11882349F1EE2039F18091D80280321F
:102A5000A0F02091D3023091D4023A8729871B86B7
:102A6000BD86AC868E878091D9029091DA02988BD0
:102A70008F87CE0109960E94291188E0F801A3ED05
:102A8000B2E001900D928A95E1F70E94D2130E9464
:102A9000C013FF24F3944ECFC8010E942911F9CF2F
:102AA000311113C07A2DBD8AAC8A6E2D8D890E949A
:102AB000AA1183ED92E00E94291188E0F60111929B
:102AC0008A95E9F70E94C01398CF251318C0941374
:102AD00016C04091D9025091DA02F801268137815F
:102AE0004217530761F4E1100AC08583C8010E94B0
:102AF000291188E0F60111928A95E9F71BCFC801E8
:102B00000E949C11882341F2EE2031F28091D8027C
:102B1000803208F4B2CF2091D3023091D4023A83AC
:102B200029831B82BD82AC828E838091D9029091D1
:102B3000DA0298878F83CE0101969DCF6E177F07AB
:102B4000D8F5FE2CEE2009F4A7CF251327C0941347
:102B500025C02091D9023091DA02F801868197814F
:102B600028173907D9F49091D80290FD0EC0907FB4
:102B700061F08091D8028583903F09F451CF982F5E
:102B8000907F905F8F70892B4ACF88E0F801A3ED8A
:102B9000B2E001900D928A95E1F7CCCEC8010E9477
:102BA0009C1181116ACF8091D80281608093D802F4
:102BB000C8010E942911BECE7A2DBD8AAC8A6E2D25
:102BC0008D890E94AA1188E0F60111928A95E9F791
:102BD00032CFEE2009F460CFC8010E949C11F82E7C
:102BE000882309F459CF88E0F801A3EDB2E0019001
:102BF0000D928A95E1F783ED92E00E94450D0E94C7
:102C0000D21319CF81E08E25AFCECF93DF93CDB70E
:102C1000DEB760970FB6F894DEBF0FBECDBF298731
:102C20003A874B875C876D877E878F87988BCE012D
:102C300009960E942F148823D1F08C859D85892BBD
:102C400039F029853A85822F83238F3F09F074C09C
:102C50008091910290919202891348C060960FB6BC
:102C6000F894DEBF0FBECDBFDF91CF91089588E00D
:102C7000FE013996DE01119601900D928A95E1F7D9
:102C80008C859D85892B21F389859A8589238F3FA2
:102C9000F9F2A0919202B0E0CD01019687709927D8
:102CA000209191022817190671F40E94791110924F
:102CB00092021092910288E0E3EDF2E0DF011D92B2
:102CC0008A95E9F7C5CF93E0AA0FBB1F9A95E1F764
:102CD000AD56BD4F98E0FE01319601900D929A9548
:102CE000E1F7809392020E949F13B2CFB8E08B9FCE
:102CF000C00111248D569D4F0E942F14882309F482
:102D0000ADCFE091910228E0E29FF0011124ED5651
:102D1000FD4F20813181428153816481758186819B
:102D200097810E94B9118091910290E0019687707D
:102D30009927809391028CCF4B855C856D857E852C
:102D40008F8598890E94B91183CF682F8091C00127
:102D50009091C1010C945727682F8091C0019091E8
:102D6000C1010C9462278091C0019091C1010C9423
:102D70006D278091DC0285958595859508958091D4
:102D8000DC028770089582E08093DB0281E080930B
:102D9000510208951092DB02109251020895809121
:102DA000DB02823021F481E08093DB0208958330DE
:102DB00011F40C94CA1608958091DB02823021F43C
:102DC00083E08093DB020895813011F40C94CA16DD
:102DD00008959091DC02977081E009F480E00895F5
:102DE00080910003089590910003892B8093000344
:102DF000089580959091000398239093000308957F
:102E00008093000308951092000308959091FF02AB
:102E1000892B8093FF02089580959091FF0298235B
:102E20009093FF0208951092FF0208951092FE02FF
:102E300008958091DD02089508950C941C179091D7
:102E4000D50392FD08C09091DD02981721F0809380
:102E5000DD020C941D1708958091DD02882329F06E
:102E60001092DD0280E00C941D170895E091C001DE
:102E7000F091C101809100038083E091C001F09145
:102E8000C10180819091FF02892B8083E091C00174
:102E9000F091C10180819091FE02892B80839091F5
:102EA000DD02992381F0E091C001F091C1018081A0
:102EB000892B80838091C0019091C1010E94C3261B
:102EC00081110E942C178091C0019091C1010C9436
:102ED0006F2608950C9469179091D50392FD10C048
:102EE00098E0899F90011124622B6093DC020E947C
:102EF0003C128091DC028595859585950C946A1726
:102F00000C943C121092DC0280E00C946A179091B1
:102F1000DC02809589238093DC02282F277091F4AE
:102F2000282F082E000C330B9217130659F090919E
:102F3000D50392FD07C08595859585950E945D1204
:102F40000C94821708959091D50392FB222720F9C3
:102F5000281769F080FB92F99093D5038091D403F0
:102F60009091D5030E94E81782E00C94871708958A
:102F70008091D50382FB882780F991E089270C9402
:102F8000A31781E00C94A31780E00C94A31790E0A2
:102F900080E00E94C03021E0893E9E4F09F020E091
:102FA000822F089582E090E00C94B23083E090E0AC
:102FB0000C94B230CF9384E090E00E94B230C82FDE
:102FC00082E290E00E94B230982F8C2FCF9108952A
:102FD000CF93C92F682F84E090E00E94C6306C2FF9
:102FE00082E290E0CF910C94C6308FE090E00C9498
:102FF000BA30AB01BC018FE090E00C94D830AB014B
:10300000BC0183E190E00C94D83060E070E0CB012B
:103010000C94FF1769EE7EEF90E080E00E94E430B0
:1030200060E082E090E00E94C63060E083E090E0E3
:103030000E94C63010928D0210928E0210928F0262
:103040001092900260E084E090E00E94C63060E060
:1030500082E290E00E94C63060E085E090E00E944D
:10306000C63060E086E090E00E94C6306FEF87E0F7
:1030700090E00E94C63040E050E0BA0188E090E065
:103080000E94D83060E08DE090E00E94C63040E0C1
:1030900050E0BA0188E190E00E94D83060E087E11A
:1030A00090E00E94C63040E050E0BA018CE190E030
:1030B0000E94D83070E060E080E290E00E94E4304E
:1030C00040E050E0BA0188E190E00E94D8300C94D2
:1030D00066080C940A18682F8EE090E00C94C630B5
:1030E0000E941A28609314037093150380931603AB
:1030F000909317036093100370931103809312034E
:1031000090931303089585B7806885BF85B780685D
:1031100085BF0895089508950C948A1808950C9415
:103120008E180E94831888E39BE10E9456260E9415
:103130008B180C948C1881E008950C949B180895BA
:1031400008950E949F180C94A0180E9405280E94C0
:10315000691B0C948F18AF92BF92CF92DF92EF92BF
:10316000FF920F931F93CF93DF93CDB7DEB72A97CC
:103170000FB6F894DEBF0FBECDBF0E947A1B81113F
:103180000E94701882E0A82E83E0B82E10E000E0C4
:10319000C02E802F0E94621BE82EF501F1905F0186
:1031A000F81609F44DC08091180381FD0E94681B38
:1031B0008F2D8E25D12CFF24F394982F9F21D9F1A8
:1031C0000E949D18882399F0DE82CF82EF2081E053
:1031D00009F480E088870E940E288160782F9A8702
:1031E00089874E815F8168858A850E94F50CF80188
:1031F000EE5FFC4F8081F826F0820E94AC1D0E9499
:10320000602690910103891791F10E9460268093B6
:1032100001032A960FB6F894DEBF0FBECDBFDF9133
:10322000CF911F910F91FF90EF90DF90CF90BF90C3
:10323000AF900C94B80CD394FF0CF6E0DF12BDCF26
:103240000F5F1F4F0E30110509F0A2CF8FEF89835A
:103250008A831B820E940E288160782F9D838C8335
:1032600049815A816B818D810E94F50CC6CF2A96C7
:103270000FB6F894DEBF0FBECDBFDF91CF911F9187
:103280000F91FF90EF90DF90CF90BF90AF90089597
:10329000CF93DF930E945E1AEC01811522E592071D
:1032A00008F047C0811531E5930708F0BAC0883EA1
:1032B000910530F5803E910508F092C0883A91055D
:1032C00088F4853A910508F084C08130910509F4AD
:1032D00087C0009709F484C0049708F081C0D0E04B
:1032E000C0E07EC08F3B9105D0F7C85AD0E0CC0F2C
:1032F000DD1FC75FDD4F0990D881C02DD46470C039
:103300008115904250F4C11581E0D80708F068C0DB
:10331000CD3ED10520F3D06563C0C11590E4D90737
:10332000F0F2C11520E5D20708F05EC0DF70D06A68
:1033300057C0811536E5930718F5811545E59407C3
:1033400008F087C0C11584E5D80708F07DC09C2F20
:10335000969596959E0123703327C115D34508F4A1
:1033600065C0C1E0D0E002C0CC0FDD1F2A95E2F7B6
:1033700030E2939FC0011124C82BD92BDA6830C0EA
:10338000C11589E5D80768F4C11598E5D90708F093
:103390006AC0C11527E5D20708F0A1CFDD27D066A6
:1033A0001FC0C1153AE5D30708F462C0CE0190569C
:1033B0008115904208F093CF8D2F8F710E94F51ADE
:1033C00090E0982F882788279F719C012C2BE9017A
:1033D00048C0C55AD0E0C95CDD4FC881D0E0D06498
:1033E000CE01DF91CF910895CE01E4E096958795C7
:1033F000EA95E1F783702C2F26952695237090E2AD
:10340000299F90011124382B8C2F8370C1E0D0E0CC
:1034100002C0CC0FDD1F8A95E2F7C22BD32BDC68EC
:10342000DFCFD82FCC27C16FD06ADACFC1E0D0E090
:1034300002C0CC0FDD1F2A95E2F720E2929FC00167
:103440001124C82BD92BEBCFDC2FCC27C46FD06A2B
:10345000C7CF0E94F51AC82FD0E0DC2FCC27CC278D
:10346000DF71D062BDCFDC2FCC27C06FD06AB8CF60
:103470008C2F8F700E94F51A34E0D695C7953A9537
:10348000E1F7CF709C2FEC01D069AACF972F70E0A5
:1034900026E0929F600D711D1124FB0194E5899F28
:1034A000E00DF11D1124EE0FFF1FEC5DFB4F859128
:1034B000949108950E94461A0C94481982389105F7
:1034C000B1F1B0F48133910509F475C048F4893243
:1034D000910509F469C08A32910509F473C0089511
:1034E0008533910509F459C08933910501F1089597
:1034F000833E9105A9F138F4803E9105F9F0823EB2
:10350000910549F10895863E9105A9F1873E9105FF
:10351000C9F1843E910519F52091D50321FF1FC003
:103520008091D40384FD14C087EE90E0089520912B
:10353000D4032370A1F080EE90E008952091D4038D
:1035400020FD47C03091D50330FF09C024FF44C09F
:1035500090E080E004C02091D40322FDF7CF0895CD
:103560002091D40322FD3BC03091D50330FDE3CF41
:1035700024FFF5CFEDCF2091D40323FFF0CF24FD1E
:10358000E7CFD2CF2091D40323FD2CC03091D503B7
:1035900031FFEECF84EE90E008952091D40325FF13
:1035A000DECF89E290E008952091D40325FFD7CFA4
:1035B00085E390E008952091D40326FFD0CF8AE2DE
:1035C00090E008952091D40326FFC9CF81E390E0D5
:1035D000089589E390E0089583EE90E0089582EEE7
:1035E00090E0089586EE90E008959091D40392FFC4
:1035F00006C0282F28712830F9F4877F846093FF54
:1036000006C0282F28712831F1F4877E846120912B
:10361000D50320FF06C0382F38713830D9F4877FA2
:10362000816021FF06C0282F28712831D1F4877EC0
:10363000816194FD877E0895282F24712430F9F646
:103640008B7F8860DCCF282F2471243101F78B7E9B
:103650008861DDCF382F3171313019F78E7F886066
:10366000E0CF282F2171213121F78E7E8861E1CFB3
:1036700080E0089508950E94C717811102C00E943A
:1036800069180E94D217809318030E94DA1790934A
:10369000D5038093D4030E943A1B0E94D617682F4B
:1036A00070E090E080E00E94DC11609189027091EE
:1036B0008A0280918B0290918C020C9414120895CE
:1036C0000C94020AE82FF0E0EC51FC4F8081089541
:1036D00008950E94E906E6EDF3E0A4EEB3E011924E
:1036E0001D9283E0E43EF807D1F78EE00E948D1B27
:1036F0000C94070BCF9386ED93E00E94F406C82F3D
:10370000282F4EE064EE73E086ED93E00E94A01B4C
:103710000E940F0B8C2FCF910895CF93C82F90E06C
:103720000E94872F80931C0390931D03282FFC0178
:103730008E2F821B8C1710F0CF9108951192F8CF25
:10374000DF92EF92FF920F931F93CF93DF93082F97
:10375000F92EE62ED72E142FC22FD0911903DD2378
:1037600009F448C00E940E2820911A0330911B03CF
:10377000AC01421B530B9A0190931B0380931A03D5
:103780004F3F510509F0C8F4452B99F010921903E9
:1037900010921E0340911C03E42FF0911D0390E052
:1037A00030E08E2F841B811758F0309319039093CB
:1037B0001E03C1112DC0CD2F1FC02FEF30E0E6CF6B
:1037C0008081882321F0281720F010829D2F3196C8
:1037D000E8CF821B80833D2FFACF29914C9142176D
:1037E00031F04081411103C030832C9381E0319648
:1037F00011961AC0211106C080911E038823D1F0B2
:10380000C11106C00E940E2890931B0380931A03D7
:1038100090911C0380911903AE2DBD2DC02FDF2D7B
:10382000E92FF0911D033EE12E2F291B2117A8F24D
:1038300080931903DF91CF911F910F91FF90EF902B
:10384000DF9008950E942D2A0E94A5180C94392A11
:103850000E943D2A0E94AB180C94572A0E94992777
:103860000E94142A0E9491180E94221C0E94281C67
:103870000E94A118FBCF8091270380FF12C06091A6
:10388000C60185E0689FB00111247595679575950F
:10389000679560387105A8F561157105A1F1862F4E
:1038A000089581FF09C06091C60185E0689FB0015D
:1038B000112475956795EDCF6091C60182FD0AC010
:1038C000809126038823D1F09091C5016091C601B3
:1038D000891728F085E0689FB0011124DACF869F10
:1038E000B001112485E0869F9001879F300D11243F
:1038F000692F70E0C9010E946D2FCBCF65E070E0A9
:10390000CECF8FE7089581E008958091270380FF4F
:103910000CC06091C30170E07595679575956795CA
:103920006115710549F1862F089581FF06C06091E8
:10393000C30170E075956795F3CF6091C30182FD77
:103940000BC0909125039923A1F06091C201809151
:10395000C301961738F0682F70E06038710500F3E6
:103960008FE70895899FC001112470E00E946D2F98
:10397000F4CF61E070E0D7CF81E008958D3E31F45F
:103980000E943B1C819580932B0308958E3E19F471
:103990000E943B1CF8CF8F3E31F40E943B1C819566
:1039A00080932A030895803F19F40E943B1CF8CFAE
:1039B000893F29F40E94851C80932C0308958A3F37
:1039C00021F40E94851C8195F7CF8B3F31F40E9432
:1039D000851C819580932D0308958C3F19F40E94D6
:1039E000851CF8CF9FE0980F983070F4815F990B99
:1039F00021E030E001C0220F8A95EAF78091290387
:103A0000822B8093290308958D3F31F48091270301
:103A100081608093270308958E3F21F480912703CE
:103A20008260F7CF8F3FB9F7809127038460F1CF91
:103A300040912A038D3E59F480912B0387FF0DC0DE
:103A400010922B0341110BC01092260308C08E3E2A
:103A500081F480912B0318169CF3442381F080910C
:103A60002C0390912D03892B09F05AC01092250345
:103A700008958F3E49F447FFF0CF10922A038091BA
:103A80002B038111ECCFE0CF803F19F41416ACF377
:103A9000E4CF90912C03893F29F41916F4F6109283
:103AA0002C03DBCF8A3F19F497FFD7CFF8CF909143
:103AB0002D038B3F29F497FFD0CF10922D03CDCF4C
:103AC0008C3F19F41916CCF3C8CF9FE0980F9830AB
:103AD00090F4815F990B21E030E0B90102C0660FDC
:103AE000771F8A95E2F7CB0180959091290389236E
:103AF00080932903B2CF8D3F31F4809127038E7FCD
:103B000080932703AACF8E3F21F4809127038D7FD6
:103B1000F7CF8F3F09F0A1CF809127038B7FF0CFA4
:103B200008950E940E289C0190912A0380912B03F6
:103B3000982B21F0309324032093230390912C039E
:103B400080912D03982B21F03093220320932103A1
:103B500088E293E00C948926EF92FF920F931F93D3
:103B6000CF93DF9300D000D000D0CDB7DEB786E092
:103B7000E8E2F3E0DE01119601900D928A95E1F7FB
:103B8000E0902A03F0902B0300912C0310912D0359
:103B900010922A0310922B0310922C0310922D03E3
:103BA0008E2D8F2991F080912303909124030E9400
:103BB0002628AC0190912603992309F43FC08091F7
:103BC000C7018417150608F447C0802F812B91F098
:103BD00080912103909122030E942628AC019091AC
:103BE0002503992309F477C08091C4018417150631
:103BF00008F47FC080912A0390912B03892B909128
:103C00002C03892B90912D03892B11F00E94911D7B
:103C100086E0FE013196A8E2B3E001900D928A950C
:103C2000E1F726960FB6F894DEBF0FBECDBFDF9149
:103C3000CF911F910F91FF90EF9008952091200355
:103C40008AE0289F900111242417350708F0BDCF82
:103C50009F5F9093260302C09F3FD1F7EE2059F05B
:103C60000E943B1C9FEF1E140CF491E0899F802D55
:103C7000112480932A03FF2059F00E943B1C9FEFE0
:103C80001F140CF491E0899F802D112480932B0345
:103C900030912A03332309F498CF20912B03222358
:103CA00009F493CF45EB3403C0011124992359F053
:103CB00090932A0345EB240390011124332339F018
:103CC00030932B0382CF81E080932A03F3CF81E0EE
:103CD00080932B037ACF20911F038AE0289F9001C5
:103CE00011242417350708F085CF9F5F9093250393
:103CF00002C09F3FD1F7002359F00E94851C9FEF1F
:103D000010160CF491E0899F802D112480932C03D0
:103D1000112359F00E94851C9FEF11160CF491E0BD
:103D2000899F802D112480932D0330912C03332300
:103D300009F460CF20912D03222309F45BCF45EBDA
:103D40003403C0011124992359F090932C0345EBBF
:103D5000240390011124332339F030932D034ACFEB
:103D600081E080932C03F3CF81E080932D0342CF39
:103D700086E0E8E2F3E0DF011D928A95E9F7109210
:103D8000260310922503109227030895CF93DF9303
:103D9000EC0197FF0CC0FB018281882341F00E9457
:103DA000141FCE019F770E948B1F0E94631F81E02A
:103DB000DF91CF9108959091F303923069F48A30A6
:103DC00048F490E009966AE070E00E946D2F875AEF
:103DD0000C94580E8650FCCF0C945A0C8CE090E05A
:103DE0000E94B230482F50E070E060E04093F3034F
:103DF0005093F4036093F5037093F60310922E032F
:103E0000843009F4089584E08093F3030895609169
:103E1000F3038CE090E00C94C63010922E0384E003
:103E20008093F3030C94071F0E946C268695817083
:103E30008093F8030E946C2681708093F203809136
:103E4000F303813039F48091F803882319F089E372
:103E50000E94580E0E94F0168093F7030E940317E9
:103E60008091F303813089F0882359F0823091F0FA
:103E7000843021F18FE39CE90197F1F700C0000045
:103E8000089582EE0E94590DF5CF88E193E00E94DB
:103E90009F0AF0CF8091F203811103C083E50E9455
:103EA000580E82EE0E94590D8FE39CE90197F1F7BD
:103EB00000C0000087E50E94580EDCCF86EE0E940D
:103EC000580E88E1F8CF8091F303813071F0882398
:103ED00041F08230A9F08430E1F08091F7030C9436
:103EE000001782EE0E94EB0DF8CF8CE20E94580E74
:103EF0008091F803882389F389E30E94580EEDCF5F
:103F000082EE0E94EB0D8091F2038111E6CF83E5F2
:103F1000F4CF88E2F2CF0F931F93CF93DF938C01FE
:103F2000CCE0D0E0C8010C2E02C0969587950A948B
:103F3000E2F78F700E94DB1E2497CC3F8FEFD807EB
:103F400089F7DF91CF911F910F9108950F931F93E0
:103F5000CF93DF93EC018B01FB018281882361F019
:103F60000E94F0168272C13EFCE5DF07E1F060F4CA
:103F7000C03EECE5DE0799F0B801CE01DF91CF91AC
:103F80001F910F910C94C61EC73EFCE5DF07A0F7FA
:103F90008C2F825E8093F3030E94071FEDCF811167
:103FA00004C081E003C08111FCCF8FEF0E940D1F80
:103FB000E3CFCF93DF93EC01FB018281882309F4E7
:103FC00020C1C430FDE5DF07C8F5CB3F9CE5D9072C
:103FD00030F49E0122503C452431310598F50E9471
:103FE000DA179093D5038093D403C031FCE5DF0743
:103FF00009F4E0C008F061C0C8309CE5D90709F4B5
:10400000CBC088F5C430FCE5DF0709F4B3C0E8F4A1
:10401000C2309CE5D90709F4A7C08091D40382601F
:10402000C330DC4509F4A3C08091D4039091D5033B
:104030000E94E8170E94791180E004C0C236EDE5C5
:10404000DE0769F2DF91CF9108958091D4038061FA
:10405000C630FCE5DF0709F48AC008F48FC0809100
:10406000D403806284C08091D4038D7FCC309CE5E2
:10407000D90709F47CC070F48091D4038C60CA30F5
:10408000FCE5DF0709F473C008F48AC08091D4030B
:104090008E7F6DC08091D403877FCE309CE5D90799
:1040A00009F465C08091D4038B7FCF30DC4508F4E0
:1040B0005EC08091D4038F7E5AC0CD3FFCE5DF0700
:1040C00009F474C040F5C4319CE5D90709F48AC0ED
:1040D00058F4C231FCE5DF0709F474C008F46EC07F
:1040E0008091D403837F43C0CB3F9CE5D90709F47B
:1040F00049C008F04DC0C531DC4509F095CF80912D
:10410000D40382FB992790F921E0922790FB82F952
:1041100090FB83F92CC0C1308DE5D80709F458C055
:1041200088F48091D5038360CF3FECE5DE0769F129
:104130008091D5038D7FC115DD4538F18091D50380
:104140008C7F23C0C3308DE5D80709F458C008F42C
:1041500052C0C236DD4509F067CF9091D403892F54
:104160008F7E94FF806103C08091D403816080932F
:10417000D4035ACF8091D4038460F9CF8091D403C3
:104180008860F5CF8091D50381608093D5034CCFB3
:104190008091D5038260F9CF8091D4038064E7CF0A
:1041A0000E9479118091D4038068E1CF8091D5037A
:1041B0008E7FEBCF8091D4038F7DD9CF8091D403B4
:1041C0008F7BD5CF0E9479118091D4038F77CFCF89
:1041D0008091D503982F909591708E7F892B90FBBD
:1041E00081F9D3CF0E9479119091D403892F97FB45
:1041F00087F98058BCCF81E00E946B1815CF80E012
:10420000FBCF81E01FCF08950F931F93CF93DF93D0
:1042100080919A03E0912F031CE081111AC0DF9175
:10422000CF911F910F91089501E00E0F00932F037E
:10423000CE2FD0E0E19FF0011124E65CFC4F83819A
:104240009481892B29F08081918189238F3FE9F422
:10425000E02F80919A03E81738F310929A03109296
:104260002F03DDCF18968D919C918F3F9807D1F049
:1042700061E00E9403211C9FF0011D9FF00D11249D
:10428000E65CFC4F14821382E3CF1C9FD0011D9F7C
:10429000B00D1124A65CBC4F16968D919C9117977A
:1042A000892B01F3208131814281538164817581A1
:1042B000868197810E940516DECF10929C03109292
:1042C0009B032091C9013091CA01E8E0F1E090E040
:1042D00080E02817390709F408954581411102C08B
:1042E0001482168201963796F4CFDC016091380370
:1042F00080913903962F891301C00895292F30E04A
:10430000F901EE0FFF1FE05DFC4F408151814A171C
:104310005B07A1F487E08A9FA0018B9F500D1124B9
:10432000485F5E4F81E0FA0184839613E6CF2F5FEA
:104330003F4F237033272093380308952F5F3F4F5B
:10434000922F9370D8CF7F928F929F92AF92BF920D
:10435000CF92DF92EF92FF920F931F93CF93DF9351
:10436000EB012C81211165C070909A03AAE3B3E0A0
:1043700030E020E0812C61E070E0271508F042C0B9
:104380001A96CD90DC901B97A880B9804FEF5FEF15
:10439000912CE92CF12CF701EE0FFF1FEA0DFB1D0C
:1043A00005911491C016D10609F4A701012B11F053
:1043B0009394EFCF4F3F5407C1F1FB0102C0EE0FC2
:1043C000FF1F4A95E2F78E2AAB0102C0440F551F2A
:1043D0009A94E2F7415051098416150611F54A8165
:1043E0005B816CE0629FF001639FF00D1124E65C3D
:1043F000FC4F578346832EEF20832183918780874C
:1044000021E02D83DF91CF911F910F91FF90EF90CD
:10441000DF90CF90BF90AF909F908F907F900C9443
:10442000752114961C921E9213972F5F3F4F1C9676
:10443000A4CFDF91CF911F910F91FF90EF90DF906C
:10444000CF90BF90AF909F908F907F9008951F93D3
:10445000CF93DF93C091380317E0809139038C1319
:1044600007C00E940421DF91CF911F910C945D2120
:10447000D0E0FE01EE0FFF1FE05DFC4F80819181D7
:10448000189FB001199F700D1124685F7E4F0E9424
:10449000A3212196C370E1CFEF92FF921F93CF9398
:1044A000DF93FC012081318110E040E050E0E52FF6
:1044B000F0E0EE0FFF1FE20FF31FA591B4911097EC
:1044C000B9F0FB01C081D18140E005C0AE15BF0548
:1044D00009F411E04F5FE42FF0E0EE0FFF1FEC0F47
:1044E000FD1FE590F490E114F10481F75F5FDFCFE9
:1044F000112349F0451708F4CB01DF91CF911F91AB
:10450000FF90EF90089590E080E0F7CF8091C80190
:10451000882341F180919D0390919E03009711F1B2
:104520000E94262820919B0330919C03281739076D
:10453000C8F49091380380913903981759F00E947C
:10454000272210929C0310929B0310929E031092BC
:104550009D0308950E94042110929E0310929D03D2
:104560000C945D21089510929E0310929D03109269
:10457000C80180913903809338030E945D210C9417
:1045800004218091C80181110C94B32281E08093B1
:10459000C80108952F923F924F925F926F927F923F
:1045A0008F929F92AF92BF92CF92DF92EF92FF9243
:1045B0000F931F93CF93DF93CDB7DEB729970FB635
:1045C000F894DEBF0FBECDBF6C013B01FB01128131
:1045D000883FFCE59F07F9F4112321F181E08093E6
:1045E000C801812F29960FB6F894DEBF0FBECDBF4C
:1045F000DF91CF911F910F91FF90EF90DF90CF90BF
:10460000BF90AF909F908F907F906F905F904F90F2
:104610003F902F900895893F2CE5920709F04DC0F7
:10462000111148C008E011E0F12CE12C1986882412
:104630008394912C8091C9019091CA01E816F906E2
:1046400008F445C0F3018281882309F45EC1F9852D
:10465000FF2309F45AC10E940E2890939E03809371
:104660009D0380919A03883008F591E0980F90930C
:104670009A0398E0F301DE01119601900D929A954C
:10468000E1F72CE0829FC0011124865C9C4F28E05A
:10469000FE013196DC0101900D922A95E1F72FEF92
:1046A0003FEFFC0131872087D386C28611E0F98570
:1046B0001F2797CF0E94B32294CF8A3F9C4509F0D1
:1046C000B1CF112309F4AECF0E94C1228ACFF801E5
:1046D00060817181AA24AA94BA2C20E0422F50E074
:1046E000FA01EE0FFF1FE60FF71F85919491C81690
:1046F000D90609F45A01892B11F02F5FEFCF312C25
:10470000FFEFAF16BF0609F444C0F80144813090B2
:10471000C801832D411180E0F82FF1703F2EF80180
:1047200055808681F3019281992309F48DC033204D
:1047300009F48AC0511014C0A40101C0440FAA9406
:10474000EAF7842BF801868380919B0390919C0368
:10475000C29730F462E370E070939C0360939B0314
:10476000C40102C0880F991F2A95E2F70197F8014A
:1047700026812817190669F480919D0390919E0364
:10478000009781F00E942628C39760F021E0F8018D
:104790002483F985F329F9872FEFE21AF20A095FDA
:1047A0001F4F48CF2090380390E080E020913903DC
:1047B000221215C08017910761F3A22CB12CF501CC
:1047C000EE0FFF1FE05DFC4FF182E0826FEFA61A53
:1047D000B60A73E0A722BB24A0923903DACFA22C39
:1047E000B12CF501EE0FFF1FE05DFC4F2081318100
:1047F00047E0429FC001439F900D1124BC01685FB8
:104800007E4F2B01B801C2010E944C220097A9F0F3
:1048100021E0FC0124838017910709F4BACF20918D
:10482000380322120AC04816590639F495012F5F41
:104830003F4F23703327209338033FEFA31AB30A67
:104840004A2D4370242EB2CF90E051101FC0F401C6
:1048500002C0EE0FFF1F2A95E2F79F012150310998
:104860002817390731F4442309F44DC0C7010E94C9
:104870007521C40101C0880FAA94EAF7982F90957A
:10488000F801868189238683352C83CF9C010A2CED
:1048900002C0359527950A94E2F7A9014170552782
:1048A000BC016150710986239723892B41F5452B63
:1048B00031F1F80182819381892BE1F01B821C8206
:1048C0001D821E82FEEFF983FA830E940E2881600A
:1048D000582F9D838C83F801828193818F839887E1
:1048E00029813A814B816D817E810E940516F801F4
:1048F0001582BFCF60E0C7010E940321F8CFF22FDD
:10490000F1705F2EB6CF532CB4CF909138038091C5
:104910003903981719F00E942722C8CE0E9404215B
:1049200010929E0310929D030E945D21BFCECF93F3
:10493000DF93EB0186319C4511F50E94F0169A81B8
:10494000992399F08A7A91E009F490E090939F037B
:10495000811109C089E20E94A5160E94361780E0E5
:10496000DF91CF91089585E3F6CF80919F03811168
:1049700004C089E20E94AC16F0CF85E3FBCF81E052
:10498000EFCF0F931F93CF93DF93C42FD22FFC0150
:1049900082818823C9F04093A2030E940E2890933D
:1049A000A1038093A00380E28C0F883008F050C0F0
:1049B000C77081E001C0880FCA95EAF7DF91CF91F7
:1049C0001F910F910C94600E1091A203141335C027
:1049D0008091A0039091A1030E942628883C910514
:1049E00060F5C0E2CD0F1D17B9F080E2810F88306D
:1049F00040F4177081E001C0880F1A95EAF70E9411
:104A0000670EC83048F481E09D2F977001C0880F71
:104A10009A95EAF70E94600E802F0E94580EC830C7
:104A2000B8F4D77081E001C0880FDA95EAF7DF911A
:104A3000CF911F910F910C94670E80E28C0F8830FC
:104A400038F4C77081E001C0880FCA95EAF7EFCF4C
:104A5000DF91CF911F910F9108950F939C01CB018E
:104A6000243F4CE5340759F1A8F4293DFCE53F0704
:104A700001F12A3D4CE53407D1F1283D3C4591F444
:104A800006E221EE41EE68ED7CE50E94C12480E063
:104A90000F910895263FFCE53F07E9F0B0F0273F6E
:104AA0003C45F9F0FC018281882339F11092A20380
:104AB000EFCF07E225EE45EE69ED7CE5E6CF06E2B5
:104AC00021EE40EE64EF7CE5E0CF07E225EE44EE18
:104AD00065EF7CE5DACF06E221EE42EE66EF7CE59B
:104AE000D4CF07E225EE46EE67EF7CE5CECF08E2B5
:104AF00021E045EE6AED7CE5C8CF81E0C9CF109298
:104B0000B9008CE08093B80008959F92AF92BF9255
:104B1000CF92DF92EF92FF920F931F93CF93DF9389
:104B2000B82EEB010E940E286C01EE24E394F12CC8
:104B3000C431D10560F025E0E22EF12CCF3FDC0737
:104B400031F0CE0164E170E00E94592F7B0184EACC
:104B5000A82E94E8992E1092BC00A092BC000E944E
:104B60000E288C018091BC0087FF0DC08091B90098
:104B7000887F883039F18091B900887F803111F1C8
:104B80000FEF1FEF09C00E940E28801B910B8E159E
:104B90009F0540F30EEF1FEFCF3FDC07E1F2C601A8
:104BA0000E9426288C179D07B0F2C801DF91CF9193
:104BB0001F910F91FF90EF90DF90CF90BF90AF903B
:104BC0009F900895B092BB009092BC000E940E2866
:104BD0008C018091BC0087FF0AC08091B900887F5A
:104BE000883111F0803461F610E000E0DECF0E94E1
:104BF0000E28801B910B8E159F0558F3CBCF0F937A
:104C00001F93CF93DF93EB018093BB0084E88093E5
:104C1000BC000E940E288C018091BC0087FF11C04F
:104C20002091B900287F81E090E0283211F490E0D3
:104C300080E0919581959109DF91CF911F910F911E
:104C40000895CF3FDC0741F30E940E28801B910B93
:104C50008C179D0708F38EEF9FEFEECF0F931F93F6
:104C6000CF93DF93EC0184E88093BC000E940E2870
:104C70008C018091BC0087FF08C08091BB0090E050
:104C8000DF91CF911F910F910895CF3FDC0789F3FA
:104C90000E940E28801B910B8C179D0750F38EEFFE
:104CA0009FEFEECF84E98093BC00089590933B0280
:104CB00080933A0208959093A8038093A7030895E0
:104CC000E091A703F091A803309721F00190F081C3
:104CD000E02D099480E008950E9460260895E091F7
:104CE000A703F091A803309799F02091D7012223D0
:104CF00059F02091D40327FF07C0DC012C911196B5
:104D00002C93119726E02C930280F381E02D0994D7
:104D10000895E091A703F091A803309739F022E0BD
:104D2000DC012C930480F581E02D099408952091F5
:104D3000A5033091A6032817390771F09093A603B5
:104D40008093A503E091A703F091A803309721F089
:104D50000680F781E02D099408952091A3033091F6
:104D6000A4032817390771F09093A4038093A30339
:104D7000E091A703F091A803309721F00084F1851A
:104D8000E02D09940895FC0132968091D701882383
:104D900021F08091D4039EE187FF96E080E091505E
:104DA00008F4089521912223D1F38F5FF8CF662371
:104DB00001F12091D7012223F1F02091D40327FFA4
:104DC0001AC0462F4695469546954E3190F4677029
:104DD00021E030E002C0220F331F6A95E2F7840F12
:104DE000911DFC01828190E02823392381E0232B4F
:104DF00069F480E00895FC01329608962191261707
:104E000021F0E817F907D1F7F4CF81E008959C016C
:104E1000FC0132969FEF80E04191461751F09F3F91
:104E200019F4411101C0982F8F5F8630A9F79F3F79
:104E300009F40895290F311D97FD3A95F901628310
:104E40000895FC01329608962191261303C0DF01D4
:104E500011971C92E817F907B9F70895E62FE69520
:104E6000E695E695EE3168F4E80FF92FF11D6770CD
:104E700021E030E001C0220F6A95EAF78281822B9F
:104E800082830895E62FE695E695E695EE3170F477
:104E9000E80FF92FF11D677021E030E001C0220F0B
:104EA0006A95EAF72095828128232283089520912C
:104EB000D701222329F02091D40327FD0C942E271B
:104EC0000C9407272091D701222329F02091D403A5
:104ED00027FD0C9442270C942127FC0132968091E7
:104EE000D701882351F08091D40387FF06C08EE15B
:104EF000DF011D928A95E9F7089586E0F9CF0895BC
:104F00000C947F27811105C081E08093A9030C9444
:104F1000802782E0FACF83E08093A9030C94802756
:104F20000C94822781E08093A9030C9480270C9431
:104F30009227089580910104843031F10E94130B6F
:104F40001092AA0388E190E020E40FB6F894A895A7
:104F5000809360000FBE2093600083B7817F8460E0
:104F600083BF83B7816083BF7894889583B78E7F32
:104F700083BF0FB6F894A8958091600088618093F4
:104F80006000109260000FBE08950895CF930E94B4
:104F900046070E947A1B0E94C527C0E08C2F0E9402
:104FA000621B811105C0CF5FCE30C1F7CF9108954C
:104FB00081E0FCCF0E9479110C94810B1F921FB6E7
:104FC0001F9211248F939F93AF93BF938091AA0355
:104FD000811113C08091F9039091FA03A091FB0312
:104FE000B091FC034196A11DB11D8093F9039093EC
:104FF000FA03A093FB03B093FC03BF91AF919F9181
:105000008F911F901FBE1F90189582E084BD93E082
:1050100095BD9AEF97BD80936E0008952FB7F894D1
:105020008091F9039091FA03A091FB03B091FC03E6
:105030002FBF08952FB7F8946091F9037091FA0388
:105040008091FB039091FC032FBF08959C014FB703
:10505000F8948091F9039091FA03A091FB03B09129
:10506000FC034FBF821B930B089578941F921FB6C9
:105070001F9211248F939F93AF93BF938091F90355
:105080009091FA03A091FB03B091FC030196A11D3E
:10509000B11D8093F9039093FA03A093FB03B0939F
:1050A000FC03BF91AF919F918F911F901FBE1F90E6
:1050B0001895F89481E08093E00080E28093D80016
:1050C000E9ECF0E010828FE19EE40197F1F700C077
:1050D00000001DBA109268001CBC10BE1FBA1092CE
:1050E0007A0010926E0010926F0010927100109270
:1050F00072001082ECEBF0E0108214B817B81AB806
:105100001DB810BA108215B818B81BB81EB811BA5D
:105110000C94003F08958091CE03089508959C015A
:1051200082E08093E9009FEF8091E800915085FD37
:1051300006C085ED8A95F1F700009111F5CF8091B9
:10514000E80085FF0CC050E040E066E070E0C90177
:105150000E94C82A8091E8008E778093E800089525
:10516000CF93DF93EC018091D7018823B1F1809137
:10517000D40387FF32C060E282E08093E9008FEFC2
:105180009091E800815095FD06C095ED9A95F1F754
:1051900000008111F5CF8091E80085FF1BC0809150
:1051A000D70170E050E040E0811104C050E040E0E1
:1051B00068E070E0CE010E94C82A8091E8008E77F6
:1051C0008093E80080E2FE01AEEAB3E001900D9228
:1051D0008A95E1F7DF91CF91089568E081E0CDCF26
:1051E0008093AB037093AD036093AC038091010493
:1051F000843001F582E08093E9008FEF9091E80020
:10520000815095FD06C095ED9A95F1F7000081114A
:10521000F5CF8091E80085FF0DC050E040E063E0ED
:1052200070E08BEA93E00E94C82A8091E8008E77B4
:105230008093E8000895BC0184E00C94F028BC0140
:1052400083E00C94F02880910004811109C00E9431
:10525000582C0E94B52C8091E20084608093E2007B
:1052600008951092000408950C9492276091FD0314
:1052700081E0611101C080E00C948B2790910104C2
:1052800081E0943009F080E06091FD030C94902758
:1052900042E061EC81E00E94D42B42E261EC82E0CA
:1052A0000E94D42B9091010481E0943009F080E0B9
:1052B0006091FD030C94822780910304833009F4EC
:1052C00060C030F48130C9F1823009F49CC0089587
:1052D0008A3009F488C08B3009F46EC0893009F037
:1052E0004FC080910204813209F04AC080910604C7
:1052F00090910704029708F043C08091E800877FEF
:105300008093E8008091E80082FF36C09091F3001E
:105310008091F200029731F48091F100813011F018
:10532000863021F48091F1008093CE038091E800D3
:105330008B778093E8000C94082C80910204813ACA
:10534000F9F48091E800877F8093E800809106045B
:1053500090910704892B61F460E28EEA93E070E09B
:105360000E94172B8091E8008B778093E8000895C6
:1053700060E090E080E0F3CF809101048111C2CF22
:10538000089580910204813AD9F7809106049091A2
:105390000704892BA9F78091E800877F8093E800B4
:1053A0008091E80080FFFCCF8091D7018093F100CD
:1053B0008091E8008E77BDCF80910204813201F7A1
:1053C0008091060490910704892BD1F68091E80022
:1053D000877F8093E8000E94082C809104048093CA
:1053E000D7010C94791180910204813249F68091A1
:1053F000E800877F8093E8000E94082C80910504D4
:105400008093CF03089580910204813A09F0B8CFC8
:105410008091E800877F8093E8008091E80080FF1A
:10542000FCCF8091CF03C2CF84B7877F84BF0FB6F4
:10543000F894A89580916000886180936000109234
:1054400060000FBE80E890E00FB6F8948093610092
:10545000909361000FBE0C9497270E94582C0E94D5
:10546000B52CE2EEF0E080818460808378940C9427
:105470003E2F8BEC91E00C945B26809101048530EB
:10548000A9F480910104853011F00C94DA270E9470
:105490009A278091FF038823A1F30E94C6278823BF
:1054A00081F30E94B22A0E947911EBCF08950895EA
:1054B0000C945A2A292F33272330310519F168F427
:1054C0002130310509F444C02230310509F445C0CA
:1054D00090E080E030E020E025C02132310549F144
:1054E00022323105A9F780E490E025E03CE0611527
:1054F0007105C1F086EB90E02FE43BE0613071056F
:1055000089F0E6CF99278130910581F0009729F045
:105510000297F1F6ECEBFAE002C0EEEFFAE08491CC
:1055200090E09F01FA01318320830895E4EDFAE0D1
:10553000F6CF89E090E024E13BE06115710591F33D
:1055400089E090E02DE23BE06130710559F3C0CF76
:1055500082E190E02DE33BE0E5CF8BE390E022E0B9
:105560003BE0E0CF80E189BD82E189BD09B400FE66
:10557000FDCF8091D8008F7D8093D8008091E0008E
:1055800082608093E0008091E00081FDFCCF08956F
:10559000AF92BF92CF92DF92FF920F931F93CF9360
:1055A000DF936C01EB018A010E94272CF82E8111F8
:1055B00023C00115110539F0F80180819181C81BC4
:1055C000D90BC80ED91EB12CA12C2097A9F080911F
:1055D000E80085FD22C08091E8008E778093E80086
:1055E00001151105A1F0F80180819181A80EB91E65
:1055F000B182A08285E0F82E8F2DDF91CF911F918F
:105600000F91FF90DF90CF90BF90AF9008950E94D0
:10561000272C8823D1F2F82EEFCFF60181916F016C
:105620008093F1002197FFEFAF1ABF0ACECFFC01A4
:10563000809108049091090486179707A0F06115DE
:10564000710529F49091E8009E779093E80090E02E
:105650006115710551F4911108C08091E80082FF35
:1056600034C080E00895BC01F2CF8091010488230A
:10567000C1F18530C1F18091E80083FD30C0809197
:10568000E80082FDEACF8091E80080FFE1CF8091C1
:10569000F3002091F200382F6115710519F02830C0
:1056A000310558F091E02830310509F090E0209163
:1056B000E8002E772093E800CBCF81918093F10012
:1056C000615071092F5F3F4FE7CF8091010488231C
:1056D00041F0853041F08091E80083FFBECF81E04A
:1056E000089582E0089583E00895FC018091080404
:1056F0009091090486179707A0F06115710529F4A8
:105700008091E8008E778093E80090E06115710544
:1057100051F4911108C08091E80082FF35C080E00B
:105720000895BC01F2CF809101048823C9F185302E
:10573000C9F18091E80083FD31C08091E80082FDCD
:10574000EACF8091E80080FFE1CF8091F3002091C3
:10575000F200382F6115710519F02830310558F025
:1057600091E02830310509F090E08091E8008E77D3
:105770008093E800CBCF84918093F1003196615003
:1057800071092F5F3F4FE6CF80910104882341F0DC
:10579000853041F08091E80083FFBDCF81E008951E
:1057A00082E0089583E00895982F973028F08F7055
:1057B0008093E90081E008959093E900242F762FEB
:1057C00050E0981731F07091EC002091ED0050916D
:1057D000F00021FD02C09F5FE8CF3091EB003E7FDB
:1057E0003093EB003091ED003D7F3093ED00309130
:1057F000EB0031603093EB007093EC002093ED00F0
:105800005093F0002091EE0027FDE5CF80E0089551
:105810008091020487FF13C08091E80082FF06C0D8
:105820008091E8008B778093E80004C080910104A8
:105830008111F2CF0895809101048823D9F38091DA
:10584000E80080FFF8CF8091E8008E77ECCF2091C0
:10585000E4003091E50095E6A9012091EC00822F4B
:10586000817020FF06C08091E80080FF06C080E0C4
:1058700008952091E80022FD1AC080910104882338
:1058800089F0853089F08091EB0085FD0FC0209173
:10589000E4003091E50042175307F9F29150E1F628
:1058A00084E0089582E0089583E0089581E00895FA
:1058B0000E94C62C0E94CE2CE0EEF0E08081816038
:1058C0008083E8EDF0E080818F77808319BCA7EDBD
:1058D000B0E08C918E7F8C9380818F7E808310923C
:1058E000000408950F931F93CF93DF930E94C62C5B
:1058F0000E94CE2CC8EDD0E088818F778883888184
:105900008068888388818F7D888319BC1092010408
:105910001092FD031092FF031092FE0300EE10E0C0
:10592000F80180818B7F808388818160888342E059
:1059300060E080E00E94D42BE1EEF0E080818E7F79
:105940008083E2EEF0E080818160808380818860E6
:105950008083F80180818E7F808388818061888345
:10596000DF91CF911F910F910895E8EDF0E08081D4
:105970008F7E8083E7EDF0E080818160808384E02A
:1059800082BF81E0809300040C94722CE8EDF0E07B
:1059900080818E7F80831092E20008951092DA0059
:1059A0001092E10008951F920F920FB60F921124EA
:1059B0002F933F934F935F936F937F938F939F9317
:1059C000AF93BF93EF93FF938091E10082FF0BC0F1
:1059D0008091E20082FF07C08091E1008B7F80937D
:1059E000E1000E943D2F8091DA0080FF19C0809174
:1059F000D80080FF15C08091DA008E7F8093DA0096
:105A00008091D90080FF96C080E189BD82E189BD87
:105A100009B400FEFDCF81E0809301040E94232998
:105A20008091E10080FF19C08091E20080FF15C0E5
:105A30008091E2008E7F8093E2008091E20080619D
:105A40008093E2008091D80080628093D80019BCD6
:105A500085E0809301040E9436298091E10084FF53
:105A60002BC08091E20084FF27C080E189BD82E1E4
:105A700089BD89B5982F917080FFFBCF8091D800A8
:105A80008F7D8093D8008091E1008F7E8093E1002C
:105A90008091E2008F7E8093E2008091E20081603D
:105AA0008093E2008091FD03882309F449C084E0DB
:105AB000809301040E943E298091E10083FF29C068
:105AC0008091E20083FF25C08091E100877F809371
:105AD000E10082E0809301041092FD038091E100D7
