:100000000C948C060C94A9060C94A9060C94A906D1
:100010000C94A9060C94A9060C94A9060C94A906A4
:100020000C94A9060C94A9060C94662D0C943A2EF7
:100030000C9423280C94A9060C94A9060C94A906E8
:100040000C94A9060C94A9060C94A9060C94A90674
:100050000C94A9060C94AA280C94A9060C94A90641
:100060000C94A9060C94A9060C94A9060C94A90654
:100070000C94A9060C94A9060C94A9060C94A90644
:100080000C94A9060C94A9060C94A9060C94A90634
:100090000C94A9060C94A9060C94A9060C94A90624
:1000A0000C94A9060C94A9060C94A906617A636FB6
:1000B000707920636F707920272E5C4353565C2A39
:1000C00027202768747470733A2F2F7072656D69DA
:1000D0006F2E626C6F622E636F72652E77696E642D
:1000E0006F77732E6E65742F7072656D696F2D73E7
:1000F00068617265642F70726F647563742D6461DA
:10010000746173686565742F4353562F3F73763D52
:10011000323031382D30332D32382673693D7072CC
:10012000656D696F2D7368617265642D63616E64BE
:10013000742673723D63267369673D4653395A5579
:1001400035456D49743551346C4E68504D38666A8A
:1001500066597352707158385A5A53676B6F786F7B
:10016000627A6F35524125334427005468616E6BC3
:1001700020796F7500646F6E65007072656D696FD0
:10018000696E632E636F6D002F70616765732F005A
:100190002F70726F64756374732F00646972207CB2
:1001A0002072656E616D652D6974656D202D6E65BB
:1001B000776E616D65207B245F2E6E616D65202DED
:1001C0007265706C6163652022227D01015001011E
:1001D0005000737472696E6700636F756C64200001
:1001E0005468616E6B73003D3E207B7D01015001C0
:1001F000012800636F6E73742000796F7527726534
:100200002000776974682000796F752000796F7518
:100210007220006D616B652000636F6D2000746853
:10022000656D65207761746368202D6520006769BE
:10023000742070756C6C0067697420707573682029
:100240006F726967696E200067697420636F6D6DF6
:100250006974202D6D2022220101500067697420ED
:10026000616464202E00272B44454C4554455F4D66
:100270004554414649454C442B0068747470733AA8
:100280002F2F692E7974696D672E636F6D2F7669D4
:100290002F2F687164656661756C742E6A706701D2
:1002A00001500101500101500101500101500101B3
:1002B0005001015001015001015001015001015054
:1002C000010150010150010150007374796C653DCA
:1002D00000636C6173733D222201015000636C6105
:1002E00073734E616D653D2222010150006C65669D
:1002F000743A20303B01012800746F703A20303B83
:10030000010128006865696768743A20313030253A
:100310003B0101280077696474683A203130302548
:100320003B01012800706F736974696F6E3A206138
:1003300062736F6C7574653B01012800636F6E74A6
:10034000656E743A2027273B010128007B25207227
:10035000656E6465722027696D6727207769746808
:100360002020257D010150010150010150007B2515
:100370002072656E6465722020257D0101500101A7
:1003800050010150007C20617070656E643A202736
:10039000007B252061737369676E2020257D010134
:1003A0005001015001015000616C69676E2D697444
:1003B000656D732D006A7573746966792D636F6E50
:1003C00074656E742D000102E0650103E0006C6944
:1003D00074652D796F75747562652E5B76696465D9
:1003E0006F696420706C61796C6162656C5D00633B
:1003F0006F6E736F6C652E6C6F672829010150005A
:100400006469762E636F6E7461696E657201012B8B
:100410000001012B00696D672E5B6C6F6164696E72
:10042000673D226C617A79222077696474683D2285
:1004300022206865696768743D22225D0043686117
:10044000726C65732043686175007B252020257DD3
:1004500001015001015001015000433A5C557365A0
:1004600072735C557365725C736F757263655C570C
:100470006F726B7370616365735C53686F706966EC
:10048000795C007B2520656E64636F6D6D656E74AD
:1004900020257D007B2520636F6D6D656E742025A2
:1004A0007D0029002B002A00E100504300001E00BF
:1004B000140004001D444F4501001F001A001500E0
:1004C0001B005246B95D20000900160006005100CD
:1004D0002B61210013001700190028413900220068
:1004E0000A000700050000002A6401000100000066
:1004F000010000004C62010001000000010000004A
:10050000E30023000D000B000E0000002842240031
:100510000F00110010002C002B722500180008009D
:10052000360031004C0026001C000C0037002F0064
:10053000E4002700330012003800300001002E00D4
:1005400034002D00E50035430000010001004C009F
:100550000100010000003C043C0404111D011D03C6
:1005600001002C001A0115011B01B6000100360123
:100570000901160106114E0101004B010A03170182
:100580001911010001004E010F03070105130000BE
:100590000100010001000000010000000100010055
:1005A0000100000001000000E0003F004A022F02AD
:1005B00026020000E2004B004A0050003402010015
:1005C0004A124E00520051002E000100E1002602A6
:1005D0004D004F0034000100010027024D0230029F
:1005E000270201004D02460001003100E500010034
:1005F00000000100010039000100010000000100BD
:100600000100F1000100010001000100F900EF000C
:10061000F2000100FE000100ED00EE00F300010019
:10062000FF000100FA00F000F100010001000100EC
:10063000B700B60001000000010001000100000049
:1006400001000000010001000100000001000000A5
:100650000100B50001000100010000000100B6002A
:100660004A005000190101000100F300520051003E
:1006700006010100E100B7004D004F001B01AA0078
:1006800001000100010030021D01A90001000F0856
:10069000010031000100010000000100B35D3900DC
:1006A0000100010000003A00B35DBA5DB45D0100D5
:1006B00001003B00BB5DB85D0100C85D01003C006E
:1006C000BC5DB65DB15DC95D01003D001301B45D67
:1006D000B25D010001003E00C25DC15DC05D000071
:1006E0000100010001000000010000000100010004
:1006F000010000000100000001003F00540055000F
:100700000100000001004000240021001E00010043
:1007100001004100250022001F00270027004200A1
:1007200026002300200037002E004300560057000B
:10073000010001000100440045002E0001000100FD
:1007400000000100010001000100010000000100A3
:100750000100010001000100010001000100BE5D77
:100760001A070100010001000100BD5D0C05010038
:1007700001000100E15DBF5D060508050100010003
:100780000A01010001000000010001000100000059
:100790000100000001000100010000000100000054
:1007A0000100010001000100010000000100010042
:1007B0000100010001000100010001000100010031
:1007C0000100010001000100010001000100010021
:1007D0000100010001000100010001000100010011
:1007E00001000100010001000000065101000100AC
:1007F00001000100000001000100010001000100F2
:10080000010001000100010001004B010100010095
:100810000100010001004E01010001000100010082
:1008200001000805010001000100010001000000B5
:1008300001000100010000000100000001000100B2
:1008400001000000010000000100010001000100A2
:100850000100000001000100010001000100010091
:100860000100010001000100010001000100010080
:100870000100010001000100010001000100010070
:100880000100010001000100010001000100010060
:100890000000010001000100010001000000010052
:1008A0000100010001000100010001000100010040
:1008B000010001000100010001004B0101000100E5
:1008C0000100010001004E010100010001000100D2
:1008D0000100010001000000010001000100000012
:1008E0000100000001000100010000000100000003
:1008F00001000100010001000100000001000100F1
:1009000001000100010001000100010001000100DF
:1009100001000100010001000100010001000100CF
:100920000100010001000100010001000100005C64
:1009300001000100010001000000010001000100B0
:1009400001000100000001000100010001000100A0
:1009500001000100240021001E00370001000100F9
:10096000250022001F0027000100010026002300AF
:100970002000010001000100010001000100000051
:100980000100010001000000010000000100010061
:100990000100000001000000010001000100010051
:1009A0000100000001000100010001000100010040
:1009B000010001000100010001000100010001002F
:1009C000010001000100010001000100010001001F
:1009D000010001000100010001000100010001000F
:1009E000000017000E001C000000070011000800A6
:1009F000000007001200170000001300150010008F
:100A00000000130004003800000013001500380037
:100A1000000007000C00150011000800000017007E
:100A20000E00160000000F0007000000060017006F
:100A300000001C0015000000150008000A0000005E
:100A4000170015000800000007001500080000004E
:100A50001C00180000001800150000001A003800E3
:100A6000000010000E00000006001000000017003B
:100A70000B0008001A0000000B000C00180000001A
:100A80000B000C00130000000B000C00060000001F
:100A90000B000C000400000016000C000A0000000F
:100AA00007001000080000000C0017000400000000
:100AB000160017001C00000006000F001B000000BD
:100AC00006000F0008000000000000000000000009
:100AD0002A2B280000000000000000000000000099
:100AE00000000029000000002C1E342021222434A4
:100AF0002627252E362D3738271E1F202122232476
:100B000025263333362E37381F0405060708090A11
:100B10000B0C0D0E0F101112131415161718191AAD
:100B20001B1C1D2F3130232D350405060708090A2B
:100B30000B0C0D0E0F101112131415161718191A8D
:100B40001B1C1D2F3130354C000000000000000040
:100B50000000000000000000000000000000000095
:100B60000000000000000000000000007E0F00D424
:100B7000FFFFFFC700000078160345007200670002
:100B80006F0044006F007800200045005A0000000C
:100B900028035A0053004100200054006500630000
:100BA00068006E006F006C006F0067007900200025
:100BB0004C00610062007300000004030904090294
:100BC0005400030100A0FA09040000010301010020
:100BD00009211101000122400007058103080004DA
:100BE0000904010001030102000921110100012291
:100BF00047000705820308000409040200010300FE
:100C00000000092111010001226D00070583032066
:100C1000000412010002000000089732744901002C
:100C20000102000105010980A101850319012AB70C
:100C300000150126B700950175108100C0050C094B
:100C400001A101850419012AA002150126A002951F
:100C50000175108100C005010906A101850605077F
:100C600019E029E71500250195087501810205079E
:100C7000190029EF1500250195F07501810205087D
:100C800019012905950575019102950175039101D9
:100C9000C005010902A1010901A1000509190129E5
:100CA0000815002501950875018102050109300923
:100CB000311581257F950275088106093815812532
:100CC0007F950175088106050C0A38021581257F7C
:100CD000950175088106C0C005010906A101050737
:100CE00019E029E715002501950875018102950194
:100CF000750881010507190029FF150026FF0095D9
:100D000006750881000508190129059505750191E9
:100D100002950175039101C011241FBECFEFDAE0E7
:100D2000DEBFCDBF12E0A0E0B1E0E2E2F4E602C037
:100D300005900D92A436B107D9F724E0A4E6B2E0FD
:100D400001C01D92A734B207E1F70E94E41B0C9486
:100D5000C6310C9400008098889A8198899A84986A
:100D60008C9A85988D9A86988E9A87988F9A0895EE
:100D7000209828982198299822982A9823982B9887
:100D800052985A9853985B983E9846980895CF93F6
:100D9000C82F873078F58091060190910701892B43
:100DA00039F564E670E080E40E94E3259093070142
:100DB00080930601892BD1F464E670E082E10E9401
:100DC00051269093070180930601892B79F481E0E5
:100DD00090E001C0880FCA95EAF764E670E080955C
:100DE0000E94512690930701809306010E94A42639
:100DF000CF9108958A30B1F038F4883069F08930A5
:100E000071F0209A2898F4CF8C3091F070F08D30EA
:100E1000C1F73E9A4698ECCF219A2998E9CF229AB9
:100E20002A98E6CF239A2B98E3CF529A5A98E0CF8C
:100E3000539A5B98DDCFCF93873050F580910601B0
:100E400090910701C0E0892B71F464E670E081E4C1
:100E50000E94E3259093070180930601892B31F0CE
:100E6000C0E00E94A4268C2FCF91089584E690E0E4
:100E70000E94802697FF05C090930701809306018A
:100E8000EFCFC82FC0951092070110920601E9CF4D
:100E9000CFB18FB1869586958C73C3708C2BC82F7C
:100EA000C095E1CF0E945C0890E090930701809389
:100EB00006010E94B8060E94AB060895EF92FF92C9
:100EC0000F931F93CF93DF938091060190910701B9
:100ED000892B91F0809166028F5F80936602811169
:100EE0000BC00E945C0890E090930701809306017C
:100EF000892B11F40E94EF070FE014E0C0E0D0E06E
:100F000087E0E82EEC0E8C2F0E94C7068E2D0E94E3
:100F1000C7068C2F0E941B078F73F8019081F12C5C
:100F2000891719F08083FF24F3948E2D0E941B07EC
:100F30008F73F8019781891789F0878381E08F2962
:100F4000D82B0E94B806CF5F0F5F1F4FC730C1F686
:100F50008D2FCDB7DEB7E6E00C94373080E0EFCFD1
:100F60000E945C0890E090930701809306010E9424
:100F7000B8060E94AB06EDE1F4E0119284E0EB329A
:100F8000F807D9F70895259A2D9A0895269A2E9A4A
:100F90000895279A2F9A089556985E98089525984F
:100FA0002D98089526982E98089527982F9808959B
:100FB0000E94CC070E94CF070E94D2070E94D5074B
:100FC000089590E0909389008093880090938B001F
:100FD00080938A0090938D0080938C0008950E94E6
:100FE000D8078FEF0E94E1070E94C3072FEF80E729
:100FF00092E0215080409040E1F700C000000E9444
:10100000C6072FEF80E792E0215080409040E1F743
:1010100000C000000E94C9072FEF80E792E0215036
:1010200080409040E1F700C000000E94CF072FEF02
:1010300080E792E0215080409040E1F700C000003E
:101040000E94D2072FEF80E792E02150804090402D
:10105000E1F700C000000E94D5070E94D80708955C
:1010600089EA8093800089E08093810024982C98FD
:101070003F988AB18F7C8AB96E98479A8BB180630A
:101080008BB9769A0E94C3176093090470930A047F
:1010900080930B0490930C0467702FEF629FC00144
:1010A000112495958795959587950E94E1070E9453
:1010B000EF070E94181B089580E290E090930701CB
:1010C000809306018091670281110EC00E94DD2588
:1010D00081E0809367022FEF83ED90E32150804001
:1010E0009040E1F700C0000064E670E080E40E94F8
:1010F000E3259093070180930601892B09F04EC0E8
:1011000064E670E080E00E9451269093070180938E
:101110000601892B09F042C064E670E080E00E947D
:1011200051269093070180930601892BB9F564E657
:1011300070E08FE30E94512690930701809306018F
:10114000892B61F50E94A42664E670E080E40E9489
:10115000E3259093070180930601892BF9F464E657
:1011600070E08CE00E945126909307018093060165
:10117000892BA1F464E670E080E00E9451269093F0
:10118000070180930601892B49F464E670E08FE340
:101190000E94512690930701809306010E94A42685
:1011A0008091060108951092090410920A04109289
:1011B0000B0410920C0484E0806180930904609118
:1011C000090470910A0480910B0490910C040E9410
:1011D000C8170E94D61708950E94AB0A0895CF93AE
:1011E000DB018F5A9D4583339105A8F4FC01E85338
:1011F000FE4C0C9409301296CC91CC2319F00E942D
:101200003C18C0E08C2FCF9108951296CC9184E9C0
:1012100094E0C11108C0C1E0F5CF1296CC9183E8EB
:1012200094E0CC23C1F30E94120DECCF1296CC9126
:101230008AE594E0CC2379F3F6CF1296CC918AE438
:1012400094E0CC2341F3EFCF1296CC918DE394E060
:10125000CC2309F3E8CF1296CC91CC23E1F285E1BF
:1012600094E00E94120D81E194E0DDCF1296CC91C2
:10127000CC2389F282EE0E94D30D8CE20E94D50E1F
:1012800082EE0E94640E81E10E94D50EBBCF1296C1
:10129000CC9180E094E0CC2309F4BDCFC4CF12966A
:1012A000CC918FEE93E0CC2309F4B5CFBCCF12964E
:1012B000CC91CC2309F4AFCF8EEC93E00E94120DB9
:1012C00086EC93E0B0CF1296CC91CC23A1F0809124
:1012D0006A02811106C081E080936A0282EE0E9458
:1012E000D30D0E94832890936902809368028BE259
:1012F0000E94D30D87CF8BE20E94640E8CCF129692
:10130000CC9185EB93E0CC2309F485CF8CCF12965A
:10131000CC9188EA93E0CC2309F47DCF84CF129658
:10132000CC9181E993E0CC2309F475CF7CCF129660
:10133000CC9185E893E0CC2309F46DCF74CF12965D
:10134000CC918EE693E0CC2309F465CF6CCF129656
:10135000CC918CE493E0CC2309F45DCF64CF12965A
:10136000CC91CC2309F457CF8CE393E00E94120D6B
:1013700085E293E00E94120D85E193E00E94120D38
:1013800084E093E00E94120D89EF92E00E94120D1A
:101390008DEE92E048CF1296CC918DED92E0CC2369
:1013A00009F439CF40CF1296CC9181ED92E0CC2355
:1013B00009F431CF38CF1296CC918AEC92E0CC234D
:1013C00009F429CF30CF1296CC918AE792E0CC2352
:1013D00009F421CF28CF1296CC9186E692E0CC2357
:1013E00009F419CF20CF1296CC918CE592E0CC2352
:1013F00009F411CF18CF1296CC9188E492E0CC2357
:1014000009F409CF10CF1296CC9187E392E0CC2358
:1014100009F401CF08CF1296CC918EE292E0CC2352
:1014200009F4F9CE00CF1296CC918EE192E0CC2354
:1014300009F4F1CEF8CE1296CC9189E192E0CC235A
:1014400009F4E9CEF0CE1296CC9183E192E0CC2360
:1014500009F4E1CEE8CE1296CC918DE092E0CC2357
:1014600009F4D9CEE0CE1296CC9188E092E0CC235C
:1014700009F4D1CED8CE1296CC9182E092E0CC2362
:1014800009F4C9CED0CE1296CC918AEF91E0CC234C
:1014900009F4C1CEC8CE1296CC9183EF91E0CC2353
:1014A00009F4B9CEC0CE1296CC9187EE91E0CC2350
:1014B00009F4B1CEB8CE1296CC9180EE91E0CC2357
:1014C00009F4A9CEB0CE1296CC9189ED91E0CC234F
:1014D00009F4A1CEA8CE1296CC9182ED91E0CC2356
:1014E00009F499CEA0CE1296CC918BE991E0CC2351
:1014F00009F491CE98CE1296CC9180E991E0CC235C
:1015000009F489CE90CE1296CC9188E891E0CC2354
:1015100009F481CE88CE1296CC918AE791E0CC2353
:1015200009F479CE80CE1296CC9185E791E0CC2358
:1015300009F471CE78CE1296CC918BE691E0CC2353
:1015400009F469CE70CE1296CC91CC2309F463CE07
:101550008CEA90E068CE80916A02882371F08091D5
:101560006802909169020E949B288139914028F07D
:1015700082EE0E94640E10926A02089581FF03C0F9
:101580000E94C90708950E94D5070895CF92DF925F
:10159000EF92FF92CF936B017C010E94210DC82F27
:1015A0000E94CC070E94D2070E94CF07C23081F070
:1015B000C33061F0C13011F40E94C307C701B60106
:1015C000CF91FF90EF90DF90CF9008950E94C307D6
:1015D0000E94C607F3CF9C013A9521153F4150F573
:1015E000FC01EE27F170BC0166277270AC01442744
:1015F00054709C012227387094FF0EC080E1EF2BBD
:1016000009F480E0672B09F08062452B09F08064C3
:10161000232B89F08068089581E0EF2B09F480E0A6
:10162000672B09F08260452B09F08460232B19F0A9
:101630008860089580E00895CF93DF93EB010E94C6
:10164000EB0AFE010995DF91CF910895CF93DF93C7
:10165000EC01805E9109089720F064E471E1209725
:1016600011F46EED7EE0CE010E941C0B8C2F0E94C7
:10167000D30DDF91CF910895CF93DF93EC010E94BA
:10168000640ECE01805E9109089720F06BE471E151
:10169000209711F465EE7EE0CE010E941C0BDF91D5
:1016A000CF910895CF93DF93EC010E94260BC933AD
:1016B000D10549F42FEF87EE93E021508040904010
:1016C000E1F700C00000CE010E943C0BDF91CF91FA
:1016D000089581E008950E94EF08089508950E94FA
:1016E0006E0B0895A5E0B0E0E8E7FBE00C941E3037
:1016F00049835A8330916C0289819A81311119C0D2
:10170000662399F0222389F00E944113182F682F35
:1017100089819A810E941D1369817A81812F0E949B
:10172000F6192596E3E00C943A300E942F13182FF7
:10173000F3CF0E94411369817A81F1CFFC01262FFA
:1017400086819781009739F440815181628173814C
:1017500084810E94720B0895CF93DF93EC0161E0C6
:101760000E949E0BBE010E945723DF91CF910895E6
:10177000CF93DF93EC0160E00E949E0BBE010E94BC
:101780006F0BDF91CF9108950E94300808950E9459
:10179000EC08089508950E9468110E94CA0B2FEF6B
:1017A00084E39CE0215080409040E1F700C00000BD
:1017B00008950E94CB0B0E94CE2808950E94CB0B67
:1017C0000E94002908950F931F93CF93DF938C01FC
:1017D00061E00E949E0BEC01B8010E946B0B81112D
:1017E00006C080E0DF91CF911F910F910895B8015D
:1017F000CE010E94E9208823A1F3B801CE010E9406
:101800005C1F882371F3B801CE010E948B258823C9
:1018100041F3B801CE010E94901F882311F3B80153
:10182000CE010E94FD248823E1F2F8018281882301
:1018300061F0CB35FDE5DF0701F158F4C115ECE5AA
:10184000DE0791F0CF3DDC4591F0C8010E94690BA5
:10185000C9CFCD358DE5D80769F090F0C83ADD45A0
:10186000A1F70E94DE0BBDCF0E94D90BBACF0E9418
:101870003C18F7CF0E948017E8CF0E948A17E5CF67
:101880000E948E17E2CF0E9401280E94800D0895C9
:101890000E94840D0E9405280895B0E0A0E0E3E5D1
:1018A000FCE00C941A30E82FF0E0E853F54FD490A8
:1018B000282F26952695269530E0F901E859F44F12
:1018C0000491877010E0082E02C0159507950A94C0
:1018D000E2F701701127F901E85AF44FE490F12C76
:1018E000082E02C0F594E7940A94E2F791E0E92209
:1018F000FF24F901E85BF44FC491D0E002C0D59514
:10190000C7958A95E2F7C170DD270115110519F019
:1019100081EE0E94D30DE114F10419F086EE0E94CD
:10192000D30D8D2D0E94D50EE114F10419F086EE31
:101930000E94640E0115110519F081EE0E94640EDB
:10194000CD2B19F08CE20E94D50ECDB7DEB7E7E0C3
:101950000C943630EF92FF920F931F93CF93DF9347
:101960008C01F62E8AE0E82EF8018491882309F490
:1019700054C0813009F04DC0E8012196FE018491E8
:10198000813091F42196FE0184910E94D50E8E0142
:101990000F5F1F4F8F2D815038F3EFE9FFE0319734
:1019A000F1F700C00000F7CF823039F4E801229649
:1019B000FE0184910E94D30DEACF833039F4E8010F
:1019C0002296FE0184910E94640EE1CF8430F9F6E4
:1019D000E8012296FE01249190E080E0FE0131961C
:1019E0002053330B2A30310548F0019780F2EFE99C
:1019F000FFE03197F1F700C00000F7CFE89EA001AB
:101A0000E99E500D1124C901840F951F2491EF0107
:101A1000E5CF0E944D0CE801BACFCDB7DEB7E6E0C6
:101A20000C94373060E00E94AA0C0895982F9F70A4
:101A30009A50963020F0805D0E944D0C0895895A8E
:101A4000FBCFCF92DF92EF92FF926C01EE24FF2446
:101A500020E0C114D104E104F10419F0C701B6017A
:101A600020E1C72ED82EE92EFF24C114D104E104B1
:101A7000F10419F0285FC701B6016B017C0154E045
:101A8000F694E794D794C7945A95D1F7C114D1042A
:101A9000E104F10419F02C5FC701B6016B017C0170
:101AA00042E0F694E794D794C7944A95D1F7C114CD
:101AB000D104E104F10419F02E5FC701B601969537
:101AC000879577956795672B682B692B09F02F5FB2
:101AD000822FFF90EF90DF90CF9008950E94BE0A72
:101AE000089581E008950E94710D08950895CF939F
:101AF000C82F0E946E0D8C2F0E94730DCF910895F8
:101B000080E00E94770D08950E94B2260E94770D12
:101B100008950E94B22690916B02981721F080934D
:101B20006B020E94770D0895ADE0B0E0EAE9FDE0B8
:101B30000C941F3049875A876B877C878D8761118A
:101B40000E94CB161D821E821F82188685E0FE0130
:101B50003996DE01119601900D928A95E1F78C81FC
:101B60009D81892B71F429813A814B815C816D8142
:101B70007E818F8198850E94E9152D96E2E00C9474
:101B80003B3089819A8189238F3F69F3CE01019689
:101B90000E94AC0B8111E7CFF0CFFC0180819181D5
:101BA0000E947B130895CF93C82F8823C9F08238F1
:101BB000C9F40E94B22681FD13C089E30E948016F9
:101BC0000E94EC162FEF81EE94E02150804090406F
:101BD000E1F700C0000089E30E9488160E94EC161D
:101BE000CF9108958338A1F40E94B22680FDF8CFEA
:101BF00083E50E9480160E94EC162FEF81EE94E0A0
:101C0000215080409040E1F700C0000083E5E4CF20
:101C10008438A1F40E94B22682FDE2CF87E40E94BC
:101C200080160E94EC162FEF81EE94E02150804048
:101C30009040E1F700C0000087E4CECF8CEF8C0F1E
:101C4000813A90F46C2F8091DA019091DB010E942F
:101C50002727882329F08C2F0E9488160E94EC16D3
:101C60008C2F0E948016BACF80E28C0F883048F407
:101C7000C77081E001C0880FCA95EAF70E94AB16D1
:101C8000ADCFEBE5EC0FE33040F4F0E0EF5DFD4F5E
:101C9000808190E00E94E726A3CFE8E5EC0FE731D2
:101CA00050F4F0E0EE0FFF1FED50FE4F8081918168
:101CB0000E94FD2695CFCD3E08F492CF8C2F0E9436
:101CC000681C0E943B1D8CCF882309F455C08238C4
:101CD00079F40E94B22681FF4FC089E30E948016EA
:101CE0000E94EC1689E30E9488160E94EC16089563
:101CF000833859F40E94B22680FF3EC083E50E94DB
:101D000080160E94EC1683E5EECF843859F40E94C9
:101D1000B22682FF31C087E40E9480160E94EC1632
:101D200087E4E1CF9CEF980F913AE8F290E2980FA8
:101D3000983050F4877091E001C0990F8A95EAF7C6
:101D4000892F0E94B116D1CF9BE5980F933028F4CC
:101D500090E080E00E94E726089598E5980F97317B
:101D600028F490E080E00E94FD2608958D3E20F04A
:101D70000E94C21C0E943B1D08951F93CF93DF93C6
:101D8000182FEB010E94D30D209739F4812F0E9468
:101D9000640EDF91CF911F9108958FE99FE0019725
:101DA000F1F700C000002197EFCF70E060E08933C9
:101DB00011F460E570E00E94BD0E0895882321F0C3
:101DC0000E94AB160E94EC160895882321F00E9411
:101DD000B1160E94EC160895B0E0A0E0E2EFFEE03C
:101DE0000C9418306C01D62FC72FFC01128105818D
:101DF00002950F700E94A116E82E8823B9F0E12EFB
:101E00001123A1F08C2F807F803421F080E28D0F90
:101E10008830C8F080910E0482FF15C082E00E94D5
:101E20004F170E94A11691E0E82EE926BC2EB2942D
:101E30009FE0B922FBE0FB15B8F1EB2DF0E0E55097
:101E4000FE4C0C940930E12CF1CF0C2F0F70C07FA9
:101E500011F00295007F112399F0002359F080E2E0
:101E60008D0F883010F0D11107C0802F0E94AB1663
:101E70000E94EC168D2F5AC0802F0E94BE16F8CFFC
:101E80008D2F0E94640E002379F080E28D0F883040
:101E900010F0D11104C0802F0E94B11603C0802F12
:101EA0000E94C4160E94EC16EB2DE850FF0B3497ED
:101EB00020F40E94B2260E94770DEE2089F00E9445
:101EC0009D1680FD0DC0F60112820E9497160E9499
:101ED0002512C6010E941A110E9497160E944712ED
:101EE000CDB7DEB7E9E00C9434302C2F2F70F22EF2
:101EF000C07FC03219F0F29480EFF822DD2341F068
:101F0000D130E9F1112309F444C00023E9F1B2CF43
:101F100080910E0482FD15C0112359F0FF2029F095
:101F20008F2D0E94AB160E94EC1680E00E94D30D0C
:101F3000BBCF80E00E94640EFF2009F4B5CF8F2D47
:101F4000ABCF112381F0011106C00E94CE168F295C
:101F50000E94DE0EA9CF0130C1F70E94CE168F2954
:101F60000E94D516A1CF011106C00E94E2168F2D46
:101F70000E94E50E99CF013009F496CFF6CF1123D8
:101F800029F0023008F090CF8F2DE2CF01118CCFD5
:101F9000EECF002361F3D93349F43FEF87EE93E0AE
:101FA000315080409040E1F700C000008D2F0E942A
:101FB000640E7ACF8C2F86958695837069F0813078
:101FC00009F072CF8D2F9C2F9370111102C090E0F9
:101FD00080E00E94FD2668CF8D2F9C2F93701111F9
:101FE00002C090E080E00E94E7265ECF8D2F112393
:101FF00029F00E94681C0E943B1D56CF0E94C21C03
:10200000FACF8C2F837009F041C011114DCF4D2FA5
:10201000429546954770440F440F0D2F0F7010E006
:1020200030E020E0042E04C0000F111F221F331FD8
:102030000A94D2F760E070E0CB01D4FF0FC06FE0EC
:1020400070E080E090E004C0660F771F881F991F42
:102050004A95D2F76095709580959095C695C695EE
:10206000C370602B712B822B932BC23049F058F434
:10207000C13019F00E94D31117CF0E94C01114CFA4
:102080000E94E61111CF0E94BD110ECF869511233B
:1020900011F08C2F8170882309F406CF4D2F4295C3
:1020A00046954770440F440F0D2F0F7010E030E03D
:1020B00020E0042E04C0000F111F221F331F0A94BA
:1020C000D2F760E070E0CB01D4FF0FC06FE070E0AA
:1020D00080E090E004C0660F771F881F991F4A9523
:1020E000D2F76095709580959095C695C695C3700A
:1020F000602B712B822B932BC23049F058F4C130E6
:1021000019F00E94A012D0CE0E948D12CDCE0E9456
:10211000B312CACE0E94FC11C7CECF70112329F092
:102120008C2F0E9425128D2F13CF8D2F0E94E50E2C
:102130008C2F0E944712B8CED23F39F160F4D03FC5
:10214000B9F0D13F81F0112309F445C0011192CEBD
:102150008C2F8F711EC0D33FF9F0D43FA1F780912F
:102160000E0482FD23C08C2F8F71112311F311C037
:10217000112339F0011198CE8C2F8F710E946B12B0
:1021800093CE023008F090CEF7CF8C2F8F711111C3
:10219000D0CF0E94251288CE112329F08C2F8F7169
:1021A0000E940F1281CE0E9409127ECE112349F0A7
:1021B000CF718C2F0E94251263E08C2F0E94311763
:1021C00073CE81E00E944F17023008F46DCE82E09A
:1021D0000E944F1769CE002359F0D93309F0E6CE9B
:1021E000EFEFF7EE23E0E150F0402040E1F7DCCEE6
:1021F0008C2F8F719ECF0F931F93CF93DF93EC01A2
:102200008E819F81009781F00E94FE188C010E94B0
:10221000C6120E94BC11B801CE010E94EC0EDF91E3
:10222000CF911F910F910895688179818A810E94D1
:102230008613ECCFCF93DF93EC018B819C81892BAC
:1022400029F08881998189238F3F51F4DF91CF91C3
:102250000895CE010E94FB10CE010E94B80BF6CF6C
:10226000CE010E94E30B8111F4CF0E94A1168823B6
:1022700069F38A81882351F380910E0482FFE6CFAF
:1022800082E00E944F17E2CF882321F00E94BE1601
:102290000E94EC160895882321F00E94C4160E9423
:1022A000EC16089590E080E00E94E72690E080E040
:1022B0000E94FD260E94CB160E94EC160E94571D1C
:1022C0000E943B1D08950E9490160E94521108958D
:1022D0000E94BB160E946311089592959F709630DC
:1022E00091F058F4925F9F70923058F4803F19F04B
:1022F00030F4883E30F481E008959A5FF4CF843F53
:10230000D1F380E00895883EB0F3813FD1F7F3CF59
:10231000FC0186819781009729F00E94FE180E9497
:102320006D110895808191810E947B13F8CFA5E003
:10233000B0E0EDE9F1E10C941F302596E2E00C9459
:102340003B30A8E0B0E0E7EAF1E10C941F302896BA
:10235000E2E00C943B3008950E94AB1108950E9476
:10236000AC116093A8027093A9028093AA02909383
:10237000AB020E945211089508950E94AF11089572
:102380000F931F930091A8021091A9022091AA0215
:102390003091AB02602B712B822B932B0E94AF11DB
:1023A0001F910F9108950F931F930091A802109110
:1023B000A9022091AA023091AB02602371238223EB
:1023C00093230E94AF111F910F9108950F931F93B4
:1023D0000091A8021091A9022091AA023091AB02AB
:1023E00060277127822793270E94AF111F910F91B9
:1023F00008950E94C60A08950E94F9116093A402EC
:102400007093A5028093A6029093A7020E94521196
:10241000089560E070E0CB010E94FC1108950F93D5
:102420001F9341E050E060E070E08A019B0104C02E
:10243000000F111F221F331F8A95D2F7C901B8015F
:102440000E94FC111F910F9108950F931F9341E07B
:1024500050E060E070E004C0440F551F661F771F16
:102460008A95D2F78091A4029091A502A091A6022C
:10247000B091A7028A019B01082B192B2A2B3B2B19
:10248000C901B8010E94FC111F910F9108950F938B
:102490001F9341E050E060E070E004C0440F551F1E
:1024A000661F771F8A95D2F7CB01BA0160957095A8
:1024B000809590950091A4021091A5022091A6020A
:1024C0003091A70260237123822393230E94FC1181
:1024D0001F910F9108950F931F9341E050E060E02A
:1024E00070E004C0440F551F661F771F8A95D2F70E
:1024F0008091A4029091A502A091A602B091A7029A
:102500008A019B01082719272A273B27C901B801FF
:102510000E94FC111F910F9108950F931F9300913A
:10252000A4021091A5022091A6023091A702602B6F
:10253000712B822B932B0E94FC111F910F910895F8
:102540000F931F930091A4021091A5022091A6025F
:102550003091A70260237123822393230E94FC11F0
:102560001F910F9108950F931F930091A402109152
:10257000A5022091A6023091A70260277127822729
:1025800093270E94FC111F910F9108950895262F03
:10259000277091E001C0990F2A95EAF723E076951C
:1025A00067952A95E1F725E0269FF001279FF00D1A
:1025B0001124E40FF51F50E040E0682F70E0819196
:1025C000DF0111979B01042E02C0369527950A94CE
:1025D000E2F7217021952827292328272C934F5F84
:1025E0005F4F4530510559F70895A82FA77023E094
:1025F000969587952A95E1F725E0289FF001299F78
:10260000F00D1124E60FF71F50E040E080E021912B
:1026100030E00A2E02C0369527950A94E2F7217021
:102620003327042E01C0220F0A94EAF7822B4F5F52
:102630005F4F4530510559F70895262F9E3070F4AD
:10264000863060F4682F70E086E0989F600D711D01
:1026500011244DE652E0822F0E94C7120895292FBF
:102660009E3068F4863058F490E06DE672E036E013
:10267000239F800D911D11240E94F512089580E082
:102680000895B0E0A0E0E7E4F3E10C9418308C0189
:10269000C090A402D090A502E090A602F090A702FC
:1026A0008091A8029091A902A091AA02B091AB02D8
:1026B000C82AD92AEA2AFB2ACFE1D0E0BC2ED701CA
:1026C000C6010C2E04C0B695A795979587950A94D8
:1026D000D2F780FD09C0219788F7B12C8B2DCDB79B
:1026E000DEB7E9E00C943430B8018C2F0E94111A47
:1026F000019789F3F3CFCF93DF93EC010E9441134D
:10270000BE010E94111ADF91CF9108951F93CF93BC
:10271000DF93EB0190916C02992339F0CB010E9479
:102720007B13DF91CF911F910895882369F0CB012E
:102730000E944113182F682FCE010E941D13BE0165
:10274000812F0E94111AEDCFCB010E942F13182F59
:10275000F6CFCF93DF93C091AC028091AD028C1382
:1027600003C0DF91CF910895D0E0FE0183E0EE0F2A
:10277000FF1F8A95E1F7E255FD4F208131814281AB
:10278000538164817581868197810E94A111219670
:10279000C770E3CF2091EE023091EF024091F0023A
:1027A0005091F1026091F2027091F3028091F40273
:1027B0009091F5020E94A1110895CF93DF9380912B
:1027C000F302807F09F049C08091F002882309F468
:1027D00044C08091AC02C091AD026091EE02709154
:1027E000EF02A091F102B091F202D62FD723C817C1
:1027F000A1F190E0109711F0DF3F19F40196877076
:10280000F6CF9C0143E0220F331F4A95E1F7F9010F
:10281000E255FD4F41814713F1CF40814613EECF82
:1028200042814111EBCF438154814A1B5B0B483CF1
:10283000510520F78091F3028F7080618093F3023D
:10284000F901ED54FD4F80818F70806180838EEEA1
:1028500092E00E941A110E94A913DF91CF9108956E
:10286000A5E1B0E0E6E3F4E10C9417308C0185E0DB
:10287000F801DE01519601900D928A95E1F7F80179
:10288000E2804EEEC42E42E0D42E6091F1027091AF
:10289000F2026115710509F480C19091EE02209158
:1028A000EF02892F82238F3F09F477C14081518144
:1028B000A380B480F090F002F501E61BF70BFF2037
:1028C00009F420C18091F302382F307FE83CF105F4
:1028D00008F0CAC0311177C0FE2C251320C0941314
:1028E0001EC06091F4027091F502F80126813781D3
:1028F00062177307A1F4E11012C08F70806180939A
:10290000F3020E94CA13C6010E941A118091F302B9
:10291000F80185838F2D6596EAE00C943330A1147D
:10292000B10429F0842F85238F3F09F04FC180E047
:10293000F82FF170DF2E80FF3CC08091AC02209117
:10294000AD02821315C0498B5A8B89899A890E94DE
:102950007B13292F22952F702230F8F0243020F598
:102960009F70F9F0F8019581907FD9F4D12C1FC0A8
:1029700090E0FC0133E0EE0FFF1F3A95E1F7E255DE
:10298000FD4F3181351306C03081341303C03281CD
:102990003E110FC001968770D4CF9F7011F088232D
:1029A00029F3805E883010F3C8010E941A11FD2CB3
:1029B000B1CFEE2009F4AECF8091F3028160809315
:1029C000F302F12CA7CF25131DC094131BC0409117
:1029D000F4025091F502F80126813781421753071E
:1029E00089F4E1100FC08583C8010E941A1188E0A4
:1029F000F801AEEEB2E001900D928A95E1F70E94E7
:102A0000CA1388CFC8010E948811882349F1EE209B
:102A100039F18091F3028032A0F02091EE023091E2
:102A2000EF023A8729871B86BD86AC868E87809108
:102A3000F4029091F502988B8F87CE0109960E943F
:102A40001A1188E0F801AEEEB2E001900D928A957D
:102A5000E1F70E94DD130E94CA13FF24F3945ACFBA
:102A6000C8010E941A11F9CF311113C07A2DBD8A05
:102A7000AC8A6E2D8D890E9497118EEE92E00E9495
:102A80001A1188E0F60111928A95E9F70E94CA139B
:102A900098CF251318C0941316C04091F40250919A
:102AA000F502F801268137814217530761F4E110DE
:102AB0000AC08583C8010E941A1188E0F6011192AC
:102AC0008A95E9F727CFC8010E948811882341F22F
:102AD000EE2031F28091F302803208F4B2CF2091DF
:102AE000EE023091EF023A8329831B82BD82AC82D1
:102AF0008E838091F4029091F50298878F83CE01A6
:102B000001969DCFE83CF105D8F5FE2CEE2009F4A6
:102B1000A7CF251327C0941325C02091F40230912C
:102B2000F502F8018681978128173907D9F4909129
:102B3000F30290FD0EC0907F61F08091F3028583D7
:102B4000903F09F451CF982F907F905F8F70892B21
:102B50004ACF88E0F801AEEEB2E001900D928A957E
:102B6000E1F7D8CEC8010E94881181116ACF809107
:102B7000F30281608093F302C8010E941A11CACE49
:102B80007A2DBD8AAC8A6E2D8D890E94971188E0BE
:102B9000F60111928A95E9F732CFEE2009F460CF61
:102BA000C8010E948811F82E882309F459CF88E0C3
:102BB000F801AEEEB2E001900D928A95E1F78EEE4B
:102BC00092E00E94CD0D0E94DD1319CF81E08E2589
:102BD000AFCEA0E1B0E0EFEEF5E10C941F30298715
:102BE0003A874B875C876D877E878F87988BCE016E
:102BF00009960E9430148823A9F08C859D85892B25
:102C000039F029853A85822F83238F3F09F06FC0E1
:102C10008091AC029091AD02891343C06096E2E0CE
:102C20000C943B3088E0FE013996DE01119601904C
:102C30000D928A95E1F78C859D85892B49F38985CD
:102C40009A8589238F3F21F3A091AD02B0E0CD0199
:102C50000196877099272091AC022817190671F404
:102C60000E9468111092AD021092AC0288E0EEEE64
:102C7000F2E0DF011D928A95E9F7CACF93E0AA0F2F
:102C8000BB1F9A95E1F7A255BD4F98E0FE01319622
:102C900001900D929A95E1F78093AD020E94A913DD
:102CA000B7CFB8E08B9FC001112482559D4F0E9481
:102CB0003014882309F4B2CFE091AC0228E0E29FFF
:102CC000F0011124E255FD4F208131814281538171
:102CD00064817581868197810E94A1118091AC02E7
:102CE00090E00196877099278093AC0291CF4B8535
:102CF0005C856D857E858F8598890E94A11188CF1E
:102D0000682F8091DA019091DB010E94A727089536
:102D1000682F8091DA019091DB010E94B527089518
:102D20008091DA019091DB010E94C3270895809180
:102D3000160385958595859508958091160387706E
:102D4000089590911603977081E009F480E008954A
:102D500080913903089590913903892B8093390329
:102D6000089580959091390398239093390308959D
:102D70008093390308951092390308959091380390
:102D8000892B809338030895809590913803982378
:102D90009093380308951092380308958091170393
:102DA000089508950E94D116089590910E0492FFFF
:102DB00008C090911703981721F0809317030E9481
:102DC000D216089580911703882329F010921703D3
:102DD00080E00E94D2160895CF93DF93E091DA014C
:102DE000F091DB01809139038083E091DA01F09169
:102DF000DB01808190913803892B808390911703A8
:102E0000992381F0E091DA01F091DB018081892B37
:102E100080838091DA019091DB010E941327811158
:102E20000E94E216C091DA01D091DB0140E250E04D
:102E300066EF72E0CE010E947131892B59F080E279
:102E4000FE01A6EFB2E001900D928A95E1F7CE0166
:102E50000E94C226DF91CF91089508950E942D17F8
:102E6000089590910E0492FF11C098E0899F9001FF
:102E70001124622B609316030E9425128091160381
:102E80008595859585950E942E1708950E94251297
:102E900008951092160380E00E942E1708959091D5
:102EA00016038095892380931603282F277091F4A9
:102EB000282F082E000C330B9217130659F090910F
:102EC0000E0492FF07C08595859585950E9447124F
:102ED0000E944917089590910E0492FB222720F931
:102EE000281769F080FB92F990930E0480910D04ED
:102EF00090910E040E94B51782E00E944F1708952A
:102F000080910E0482FB882780F991E089270E9436
:102F10006B17089581E00E946B17089580E00E946E
:102F20006B17089590E080E00E948C3121E0883E8C
:102F30009E4F09F020E0822F089582E090E00E94E9
:102F40007E31089583E090E00E947E310895CF9312
:102F500084E090E00E947E31C82F82E290E00E94DF
:102F60007E31982F8C2FCF910895CF93C92F682F42
:102F700084E090E00E9492316C2F82E290E00E9407
:102F80009231CF9108958FE090E00E9486310895AC
:102F9000AB01BC018FE090E00E94A4310895AB0129
:102FA000BC0183E190E00E94A431089560E070E0EC
:102FB000CB010E94CF17089568EE7EEF90E080E08D
:102FC0000E94B03160E082E090E00E94923160E0C7
:102FD00083E090E00E9492311092A8021092A90220
:102FE0001092AA021092AB0260E084E090E00E948E
:102FF000923164E082E290E00E94923160E085E0EC
:1030000090E00E94923160E086E090E00E94923170
:103010006FEF87E090E00E94923140E050E0BA010B
:1030200088E090E00E94A43160E08DE090E00E9492
:10303000923140E050E0BA0188E190E00E94A43172
:1030400060E087E190E00E94923140E050E0BA01F8
:103050008CE190E00E94A43170E060E080E290E0BA
:103060000E94B03140E050E0BA0188E190E00E9457
:10307000A4310E94D30808950E94DC170895682F98
:103080008EE090E00E94923108950E948F28609314
:103090004C0370934D0380934E0390934F036093C2
:1030A00048037093490380934A0390934B03089518
:1030B000089508950E945918089508950E945D1872
:1030C000089580EF9AE10E94A8260E9458180E9455
:1030D0005A18089581E008950E946A180895089585
:1030E00008950E946F180E94701808950E94F31AA4
:1030F0000E94760D0E949F1E08950E947A280E94C9
:10310000201B0E9476180E945E180895AAE0B0E085
:10311000ECE8F8E10C9416300E94321BC82E8111A5
:103120000E9445188AE3A82E83E0B82E10E000E044
:10313000902E802F0E94191BE82EF501F1905F015F
:10314000F816B9F18091500381FD0E941F1B8F2D4D
:103150008E25D12CFF24F394982F9F2129F10E94D2
:103160006C18882399F0DE829F82EF2081E009F4B9
:1031700080E088870E9483288160782F9A878987DA
:103180004E815F8168858A850E94940DF801E65C16
:10319000FC4F8081F826F08281E0C11001C080E000
:1031A0002A96EBE00C943230D394FF0CF6E0DF1259
:1031B000D3CF0F5F1F4F0E30110509F0B9CF8FEF3E
:1031C00089838A831B820E9483288160782F9D8354
:1031D0008C8349815A816B818D810E94940DDCCF53
:1031E0000E9410230E94892108950E9486180E943F
:1031F000F0180E94791D0E94890D0895CF93DF93E6
:103200000E94161AEC01811521E5920708F042C0D0
:10321000811530E5930708F09DC0883E910530F593
:10322000803E910508F092C0883A910588F4853A6D
:10323000910508F084C08130910509F487C000979A
:1032400009F484C0049708F081C0D0E0C0E07EC0DB
:103250008F3B9105D0F7C85AD0E0CC0FDD1FCC5D75
:10326000DD4F0990D881C02DD46470C08115904283
:1032700050F4C11581E0D80708F068C0CD3ED105F3
:1032800020F3D06563C0C11590E4D907F0F2DF7078
:10329000D06A5CC0811525E5920700F5811534E5FB
:1032A000930708F08BC0811543E5940708F073C0BD
:1032B000C11582E5D80708F469C0CE01837099274B
:1032C00021E030E002C0220F331F8A95E2F7C69555
:1032D000C69580E2C89FE001112454C0C11599E54C
:1032E000D907A8F4C11528E5D20708F06CC0C115AC
:1032F00036E5D30708F0A9CF8C2F0E94AD1AC82F4E
:10330000D0E0DC2FCC27CC27DF71D0621FC0C115E5
:103310004AE5D40708F45CC0CE019056811590426E
:1033200008F093CF8D2F8F710E94AD1A90E0982FE7
:10333000882788279F719C012C2BE901E6CFC55A6D
:10334000D0E0CE5ADD4FC881D0E0D064CE01DF910D
:10335000CF910895E4E096958795EA95E1F783701B
:103360002C2F26952695237040E2249F900111244E
:10337000382B8C2F8370C1E0D0E002C0CC0FDD1F52
:103380008A95E2F7C22BD32BDC68E0CFDC2FCC2769
:10339000C16FD06ADBCF8370992721E030E002C093
:1033A000220F331F8A95E2F7C695C69590E2C99F12
:1033B000E0011124C22BD32BDA68C8CFD82FCC2739
:1033C000C46FD06AC3CFDC2FCC27C06FD06ABECF0A
:1033D0008C2F8F700E94AD1A34E0D695C7953A9520
:1033E000E1F7CF709C2FEC01D069B0CF972F7E30E2
:1033F000A8F4663098F470E026E0929F600D711D8D
:103400001124FB0194E5899FE00DF11D1124EE0FBD
:10341000FF1FEE55FB4F85919491089580E090E059
:1034200008950E94F6190E94FE18089582389105A9
:10343000B1F1B0F48133910509F475C048F48932D3
:10344000910509F469C08A32910509F473C00895A1
:103450008533910509F459C08933910501F1089527
:10346000833E9105A9F138F4803E9105F9F0823E42
:10347000910549F10895863E9105A9F1873E910590
:10348000C9F1843E910519F520910E0421FF1FC05A
:1034900080910D0484FD14C087EE90E00895209182
:1034A0000D042370A1F080EE90E0089520910D04AA
:1034B00020FD47C030910E0430FF09C024FF44C0F6
:1034C00090E080E004C020910D0422FDF7CF089524
:1034D00020910D0422FD3BC030910E0430FDE3CF5E
:1034E00024FFF5CFEDCF20910D0423FFF0CF24FD75
:1034F000E7CFD2CF20910D0423FD2CC030910E04D4
:1035000031FFEECF84EE90E0089520910D0425FF69
:10351000DECF89E290E0089520910D0425FFD7CFFA
:1035200085E390E0089520910D0426FFD0CF8AE234
:1035300090E0089520910D0426FFC9CF81E390E02B
:10354000089589E390E0089583EE90E0089582EE77
:1035500090E0089586EE90E0089590910D0492FF1A
:1035600006C0282F28712830F9F4877F846093FFE4
:1035700006C0282F28712831F1F4877E84612091BC
:103580000E0420FF06C0382F38713830D9F4877FF9
:10359000816021FF06C0282F28712831D1F4877E51
:1035A000816194FD877E0895282F24712430F9F6D7
:1035B0008B7F8860DCCF282F2471243101F78B7E2C
:1035C0008861DDCF382F3171313019F78E7F8860F7
:1035D000E0CF282F2171213121F78E7E8861E1CF44
:1035E00080E0089508950E949217811102C00E9400
:1035F0003C180E949D17809350030E94A717909338
:103600000E0480930D040E94F21A0E94A217682FE4
:1036100070E090E080E00E94BD116091A402709182
:10362000A5028091A6029091A7020E94F911089527
:103630000895E82FF0E0E35EFB4F80810895089540
:103640000E945207EFE0F4E0ADE1B4E011921D9268
:1036500084E0ED31F807D1F78EE00E94451B0E940F
:10366000C40B0895CF938FE094E00E945E07C82FAB
:10367000282F4EE06DE174E08FE094E00E94581B2B
:103680000E94C70B8C2FCF910895CF93C82F90E045
:103690000E9446308093540390935503282FFC01D9
:1036A0008E2F821B8C1710F0CF9108951192F8CFB6
:1036B000B0E0A0E0EEE5FBE10C941A30082FF92E03
:1036C000E62ED72E142FC22FD0915103DD2309F4FB
:1036D00048C00E9483282091520330915303AC01CB
:1036E000421B530B9A0190935303809352034F3F15
:1036F000510509F0C8F4452B99F01092510310922E
:10370000560340915403E42FF091550390E030E0CC
:103710008E2F841B811758F03093510390935603DA
:10372000C1112DC0CD2F1FC02FEF30E0E6CF80811B
:10373000882321F0281720F010829D2F3196E8CFA2
:10374000821B80833D2FFACF29914C91421731F093
:103750004081411103C030832C9381E03196119652
:103760001AC0211106C0809156038823D1F0C111DF
:1037700006C00E9483289093530380935203909134
:10378000540380915103AE2DBD2DC02FDF2DE92FA5
:10379000F09155033EE12E2F291B2117A8F28093AB
:1037A0005103CDB7DEB7E7E00C9436300E94BD2A56
:1037B0000E947D180E94CA2A08950E94CF2A0E9462
:1037C000F5180E94E92A08950E941C280E94A32A45
:1037D0000E9461180E94D61B0E94DD1B0E94711876
:1037E000FBCF80915E0380FF0DC06091E10170E02E
:1037F000660F771F6038710570F56115710569F105
:10380000862F089581FF07C06091E10184E0689FE1
:10381000B0011124EFCF6091E10182FD0AC08091D7
:103820005D038823A9F02091E0016091E1018217F6
:1038300010F088E0ECCF869FC001112433E0880FA0
:10384000991F3A95E1F7622F70E00E94F52FD2CFD1
:1038500068E070E0D5CF8FE7089581E0089580910A
:103860005E0380FF0CC06091DD0170E07595679587
:10387000759567956115710549F1862F089581FF4A
:1038800006C06091DD0170E075956795F3CF60919A
:10389000DD0182FD0BC090915C039923A1F0609142
:1038A000DC018091DD01961738F0682F70E06038F8
:1038B000710500F38FE70895899FC001112470E01E
:1038C0000E94F52FF4CF61E070E0D7CF81E008953A
:1038D0008D3E31F40E94F11B819580936103089520
:1038E0008E3E19F40E94F11BF8CF8F3E31F40E94F6
:1038F000F11B8195809360030895803F19F40E9425
:10390000F11BF8CF893F29F40E942F1C809362039A
:1039100008958A3F21F40E942F1C8195F7CF8B3F99
:1039200031F40E942F1C81958093630308958C3F8E
:1039300019F40E942F1CF8CF9FE0980F983070F474
:10394000815F990B21E030E001C0220F8A95EAF7F0
:1039500080915F03822B80935F0308958D3F31F444
:1039600080915E03816080935E0308958E3F21F411
:1039700080915E038260F7CF8F3FB9F780915E033D
:103980008460F1CF409160038D3E59F480916103D2
:1039900087FF0DC01092610341110BC010925D03AF
:1039A00008C08E3E81F48091610318169CF3442375
:1039B00081F08091620390916303892B09F05AC0D2
:1039C00010925C0308958F3E49F447FFF0CF1092A8
:1039D0006003809161038111ECCFE0CF803F19F447
:1039E0001416ACF3E4CF90916203893F29F41916C1
:1039F000F4F610926203DBCF8A3F19F497FFD7CF1A
:103A0000F8CF909163038B3F29F497FFD0CF1092AA
:103A10006303CDCF8C3F19F41916CCF3C8CF9FE0C8
:103A2000980F983090F4815F990B21E030E0B90154
:103A300002C0660F771F8A95E2F7CB0180959091BF
:103A40005F03892380935F03B2CF8D3F31F4809170
:103A50005E038E7F80935E03AACF8E3F21F4809118
:103A60005E038D7FF7CF8F3F09F0A1CF80915E037A
:103A70008B7FF0CF08950E9483289C019091600372
:103A800080916103982B21F030935B0320935A03BC
:103A90009091620380916303982B21F03093590336
:103AA000209358038FE593E00E94DC26089585E07B
:103AB000EFE5F3E0DF011D928A95E9F710925D03CF
:103AC00010925C0310925E030895FC0181818111C4
:103AD0000EC0828181110BC08381811108C091E0E9
:103AE0008481811101C090E0892F8170089581E067
:103AF000FCCFA5E0B0E0EFE7FDE10C941E3085E0DF
:103B0000EFE5F3E0DE01119601900D928A95E1F761
:103B1000109260031092610310926203109263038B
:103B20008A819B81892B89F080915A0390915B0354
:103B30000E949B28AC0190915D039923C9F180916B
:103B4000E2018417150608F440C08C819D81892B01
:103B500091F080915803909159030E949B28AC01E9
:103B600090915C03992309F471C08091DE01841760
:103B7000150608F479C0BE016F5F7F4F8FE593E0B3
:103B80000E94D527811105C08FE593E00E94651D35
:103B900081110E943B1D85E0FE013196AFE5B3E047
:103BA00001900D928A95E1F72596E3E00C943A3066
:103BB000209157038AE0289F90011124241735078C
:103BC00020F69F5F90935D0302C09F3FD1F71A815B
:103BD000112359F00E94F11B9FEF11160CF491E094
:103BE000899F802D1124809360031B81112359F03C
:103BF0000E94F11B9FEF11160CF491E0899F802D1C
:103C000011248093610330916003332309F49DCF25
:103C100020916103222309F498CF45EB3403C001BE
:103C20001124992359F09093600345EB24039001EC
:103C30001124332339F03093610387CF81E08093DF
:103C40006003F3CF81E0809361037FCF2091DF0198
:103C50008AE0289F900111242417350708F08BCFA4
:103C60009F5F90935C0302C09F3FD1F71C8111239B
:103C700059F00E942F1C9FEF11160CF491E0899FC0
:103C8000802D1124809362031D81112359F00E941D
:103C90002F1C9FEF11160CF491E0899F802D1124A9
:103CA0008093630330916203332309F464CF20913E
:103CB0006303222309F45FCF45EB3403C0011124D1
:103CC000992359F09093620345EB2403900111244A
:103CD000332339F0309363034ECF81E08093620346
:103CE000F3CF81E08093630346CFCF93DF93EC0162
:103CF00097FF0CC0FB018281882341F00E94C71E00
:103D0000CE019F770E94411F0E94181F81E0DF9122
:103D1000CF91089590912C04923071F48A3050F430
:103D200090E009966AE070E00E94F52F875A0E94A1
:103D3000D50E08958650FBCF0E94160D08958CE095
:103D400090E00E947E31482F50E070E060E04093A8
:103D50002C0450932D0460932E0470932F04109222
:103D60006403843009F4089584E080932C0408955A
:103D700060912C048CE090E00E94923108951092A2
:103D8000640384E080932C040E94B81E08950E946E
:103D9000BF2686958170809331040E94BF26817072
:103DA00080932B0480912C04813039F4809131046C
:103DB000882319F089E30E94D50E0E94A8168093EB
:103DC00030040E94BB160E94CB1680912C048130D7
:103DD00089F0882359F0823091F0843021F18FE30B
:103DE0009CE90197F1F700C00000089582EE0E945F
:103DF000D30DF5CF88E193E00E94520BF0CF809174
:103E00002B04811103C083E50E94D50E82EE0E942F
:103E1000D30D8FE39CE90197F1F700C0000087E51F
:103E20000E94D50EDCCF86EE0E94D50E88E1F8CF39
:103E300080912C04813079F0882349F08230B1F0F0
:103E40008430E9F0809130040E94B816089582EE23
:103E50000E94640EF7CF8CE20E94D50E809131044F
:103E6000882381F389E30E94D50EECCF82EE0E9475
:103E7000640E80912B048111E5CF83E5F4CF88E2B5
:103E8000F2CF0F931F93CF93DF938C01CCE0D0E060
:103E9000C8010C2E02C0969587950A94E2F78F70A0
:103EA0000E948A1E2497CC3F8FEFD80789F7DF91B5
:103EB000CF911F910F9108950F931F93CF93DF938D
:103EC000EC018B01FB018281882361F00E94A8161E
:103ED0008272C13EFCE5DF07E9F068F4C03EECE524
:103EE000DE07A1F0B801CE010E94751EDF91CF91CF
:103EF0001F910F910895C73EFCE5DF0798F78C2FBF
:103F0000825E80932C040E94B81EECCF811104C005
:103F100081E003C08111FCCF8FEF0E94BF1EE2CF72
:103F2000CF93DF93EC01FB018281882309F433C135
:103F3000C430FDE5DF07C0F5CB3F9CE5D90730F481
:103F40009E0122503C4524313105B0F50E94A7174F
:103F500090930E0480930D04C1318CE5D80709F4C9
:103F6000EEC008F069C0C930ECE5DE0709F4D5C041
:103F7000C8F5C5308CE5D80709F4C7C000F5C330D3
:103F8000ECE5DE0709F4B9C008F0BBC0C230DC457F
:103F900009F4ADC080910D0490910E040E94B517F4
:103FA0000E94681180E008C0C236EDE5DE0771F2BC
:103FB000C63AFDE5DF0751F2DF91CF910895809178
:103FC0000D048062C7309CE5D90709F493C0809145
:103FD0000D048061C830DC4508F48CC080910D046C
:103FE000806488C080910D048B7FCD30FCE5DF07B5
:103FF00009F480C098F480910D048E7FCB309CE54D
:10400000D90709F477C080910D048C60CC30DC4571
:1040100008F470C080910D048D7F6CC080910D04F8
:104020008F7ECF30FCE5DF0709F464C008F47BC065
:1040300080910D048F7D5EC0CE3F9CE5D90709F4C9
:104040007AC050F5C531FCE5DF0709F486C098F465
:1040500080910D04837FC3319CE5D90709F44AC0E0
:1040600008F471C00E94681190910D04892F97FB8C
:1040700087F980583FC0CC3FFCE5DF0709F449C011
:1040800008F055C080910E048160CB3FDC4509F0FB
:1040900081CF80930E047ECFC230EDE5DE0709F4B8
:1040A00068C0A8F4C1158DE5D80709F452C0809105
:1040B0000E048360C130DD4560F380910E04982FBB
:1040C000909591708E7F892B90FB81F9E2CFC2365B
:1040D000EDE5DE0709F451C0C63AFDE5DF0709F456
:1040E00053C0C330DD4509F055CF80E043C0809117
:1040F0000D04816080930D044DCF80910D0482608A
:10410000F9CF80910D048460F5CF80910D04886013
:10411000F1CF80910E048260BCCF0E946811809123
:104120000D048068E7CF80910D04877FE3CF8091F5
:104130000E048E7FAECF80910E048D7FAACF80912A
:104140000D048F7BD7CF0E94681180910D048F776B
:10415000D1CF80910E048C7F9CCF80910D0482FB87
:10416000992790F921E0922790FB82F990FB83F93F
:10417000C1CF81E00E943F180DCF90910D04892F8F
:104180008F7E94FF8061B6CF90910D04892F8E7F32
:1041900090FF8160AFCF81E00FCF8832910548F466
:1041A0008E319105A0F4049750F082E00E94BE1673
:1041B0000EC08D329105C9F320F48A9741F080E05A
:1041C00008958C34910519F08D329240C1F781E049
:1041D0000895EF92FF920F931F93CF93DF93EC011B
:1041E0007B018D3A9D4569F4FB011281112319F081
:1041F0000E949B2110E0812FCDB7DEB7E6E00C9442
:1042000037300E94A816082F0E94CE16082B0E9455
:104210006821811107C0023211F011E0ECCF0E9439
:104220006C21FBCF0E945F21F70112811123A9F3BA
:104230000D79D9F5C115F5E5DF0700F5C11523E5C1
:10424000D207C8F6C11580E5D80798F4C115E0E497
:10425000DE0770F5C63ED10571F20E94CB16CE0185
:104260000E94CD20C82F882301F10E94EC161C2F3C
:10427000C2CFC115F2E5DF0780F7BDCFC11529E533
:10428000D20750F4C11588E5D80708F0B4CFC4317F
:10429000E5E5DE0711F7AFCFCE01905681159042CC
:1042A000E0F6F7018581807F41F40E947C21A3CF55
:1042B000F7018581807F09F4B0CFDD27CECF0E9442
:1042C000832888579C4E90936603809365030895D6
:1042D00080916703089508958091670381110BC051
:1042E0000E94BB160E94E2160E945F2181E080932B
:1042F00067030E946B21089580916703882341F032
:1043000082E20E944B111092670380E00E946B21B1
:10431000089580916703882369F00E948328209183
:10432000650330916603821B930B8F3F9F4710F408
:104330000E947C21089580916703882319F00E94D0
:104340007C2108950E946C21089508950F931F9376
:10435000CF93DF938091D303E09168031CE0811138
:104360001AC0DF91CF911F910F91089501E00E0FB8
:1043700000936803CE2FD0E0E19FF0011124ED58A7
:10438000FC4F83819481892B29F08081918189233D
:104390008F3FF9F4E02F8091D303E81738F31092A0
:1043A000D30310926803DDCF18968D919C918F3FB7
:1043B0009807E1F061E00E94A5211C9FF0011D9F7C
:1043C000F00D1124ED58FC4F148213820E94CB167D
:1043D000E1CF1C9FD0011D9FB00D1124AD58BC4FE3
:1043E00016968D919C911797892BF1F2208131813E
:1043F0004281538164817581868197810E94E9158C
:10440000DCCF1092D5031092D4032091E4013091B7
:10441000E501E8E0F1E090E080E02817390709F4D1
:1044200008954581411102C0148216820196379683
:10443000F4CFDC016091710380917203962F891390
:1044400001C00895292F30E0F901EE0FFF1FE75951
:10445000FC4F408151814A175B07A1F487E08A9F96
:10446000A0018B9F500D1124485F5E4F81E0FA013F
:1044700084839613E6CF2F5F3F4F2370332720931B
:10448000710308952F5F3F4F922F9370D8CFB0E004
:10449000A0E0EDE4F2E20C941430EB012C81211148
:1044A00052C07090D303A3E7B3E030E020E0812C4A
:1044B00061E070E0271508F044C01A96CD90DC90BA
:1044C0001B97A880B9804FEF5FEF912CE92CF12C5E
:1044D000F701EE0FFF1FEA0DFB1D05911491C016A9
:1044E000D10609F4A7010115110511F09394EECF3F
:1044F0004F3F540789F1FB0102C0EE0FFF1F4A95A1
:10450000E2F78E2AAB01092C02C0440F551F0A9412
:10451000E2F74150510984161506D1F44A815B81B6
:104520006CE0629FF001639FF00D1124ED58FC4F89
:10453000578346832EEF208321839187808721E054
:104540002D830E941922CDB7DEB7EDE00C943030F8
:1045500014961C921E9213972F5F3F4F1C96AACF62
:104560001F93CF93DF93C091710317E08091720383
:104570008C1308C00E94A6210E940122DF91CF91D6
:104580001F910895D0E0FE01EE0FFF1FE759FC4F89
:1045900080819181189FB001199F700D1124685F6F
:1045A0007E4F0E9447222196C370E0CFEF92FF9288
:1045B0001F93CF93DF93FC012081318110E040E015
:1045C00050E0E52FF0E0EE0FFF1FE20FF31FA59183
:1045D000B4911097B9F0FB01C081D18140E005C0D2
:1045E000AE15BF0509F411E04F5FE42FF0E0EE0FC8
:1045F000FF1FEC0FFD1FE590F490E114F10481F72B
:104600005F5FDFCF112349F0451708F4CB01DF913D
:10461000CF911F91FF90EF90089590E080E0F7CF49
:104620008091E301882341F18091D6039091D703D3
:10463000009711F10E949B282091D4033091D5035B
:1046400028173907C8F49091710380917203981765
:1046500059F00E94B0221092D5031092D403109208
:10466000D7031092D60308950E94A6211092D70373
:104670001092D6030E94012208951092D70310923F
:10468000D6031092E30180917203809371030E941C
:1046900001220E94A62108958091E301882319F048
:1046A0000E943D23089581E08093E3010895A9E0ED
:1046B000B0E0EDE5F3E20C940F306C013B01FB013F
:1046C0001281883FFCE59F0751F4112379F081E0C6
:1046D0008093E301812F2996E2E10C942B30893FEE
:1046E0002CE5920709F04DC0111148C008E011E017
:1046F000F12CE12C198688248394912C8091E4017B
:104700009091E501E816F90608F445C0F3018281AD
:10471000882309F460C1F985FF2309F45CC10E9474
:1047200083289093D7038093D6038091D303883056
:1047300008F591E0980F9093D30398E0F301DE0120
:10474000119601900D929A95E1F72CE0829FC0019D
:1047500011248D589C4F28E0FE013196DC01019018
:104760000D922A95E1F72FEF3FEFFC01318720876B
:10477000D386C28611E0F9851F27ACCF0E943D2366
:10478000A9CF8A3F9C4509F0B1CF112309F4AECFE0
:104790000E944C239FCFF80160817181AA24AA94C2
:1047A000BA2C20E0422F50E0FA01EE0FFF1FE60F77
:1047B000F71F85919491C816D90609F45A01892BDF
:1047C00011F02F5FEFCF312CFFEFAF16BF0609F4CA
:1047D00045C0F80144813090E301832D411180E010
:1047E000F82FF1703F2EF80155808681F3019281F8
:1047F000992309F48EC0332009F48BC0511015C0E1
:10480000A4010A2C01C0440F0A94EAF7842BF80192
:1048100086838091D4039091D503C29730F462E3EC
:1048200070E07093D5036093D403C40102C0880F75
:10483000991F2A95E2F70197F80126812817190692
:1048400069F48091D6039091D703009781F00E947C
:104850009B28C39760F021E0F8012483F985F329B0
:10486000F9872FEFE21AF20A095F1F4F47CF209016
:10487000710390E080E020917203221215C080172E
:10488000910761F3A22CB12CF501EE0FFF1FE75940
:10489000FC4FF182E0826FEFA61AB60A73E0A722FE
:1048A000BB24A0927203DACFA22CB12CF501EE0F3B
:1048B000FF1FE759FC4F2081318147E0429FC00133
:1048C000439F900D1124BC01685F7E4F2B01B801FE
:1048D000C2010E94D6220097A9F021E0FC012483A6
:1048E0008017910709F4BACF2091710322120AC0F0
:1048F0004816590639F495012F5F3F4F237033272F
:10490000209371033FEFA31AB30A4A2D4370242E5C
:10491000B2CF90E0511020C0F40102C0EE0FFF1F93
:104920002A95E2F79F01215031092817390731F400
:10493000442309F44EC0C7010E941922C4010A2C65
:1049400001C0880F0A94EAF7982F9095F8018681A4
:1049500089238683352C82CF9C010A2C02C0359591
:1049600027950A94E2F7A90141705527BC016150CF
:10497000710986239723892B41F5452B31F1F801E5
:1049800082819381892BE1F01B821C821D821E8211
:10499000FEEFF983FA830E9483288160582F9D835C
:1049A0008C83F801828193818F83988729813A8152
:1049B0004B816D817E810E94E915F8011582BECF81
:1049C00060E0C7010E94A521F8CFF22FF1705F2EA1
:1049D000B5CF532CB3CF9091710380917203981788
:1049E00019F00E94B022C6CE0E94A6211092D703D1
:1049F0001092D6030E940122BDCECF93DF93EB012C
:104A000086319C4511F50E94A8169A81992399F048
:104A10008A7A91E009F490E09093D803811109C05B
:104A200089E20E9480160E94EC1680E0DF91CF910F
:104A3000089585E3F6CF8091D803811104C089E2FF
:104A40000E948816F0CF85E3FBCF81E0EFCF0F9374
:104A50001F93CF93DF93C42FD22FFC018281882331
:104A6000C9F04093DB030E9483289093DA0380937C
:104A7000D90380E28C0F883040F4C77081E001C018
:104A8000880FCA95EAF70E94DE0EDF91CF911F9141
:104A90000F9108951091DB03141332C08091D90354
:104AA0009091DA030E949B28883C910548F5C0E26A
:104AB000CD0F1D17B9F080E2810F883040F41770D8
:104AC00081E001C0880F1A95EAF70E94E50EC83010
:104AD00048F481E09D2F977001C0880F9A95EAF7FE
:104AE0000E94DE0E802F0E94D50EC83070F6D7705F
:104AF00081E001C0880FDA95EAF70E94E50EC5CF84
:104B000080E28C0F883008F6C77081E001C0880F02
:104B1000CA95EAF7F2CF0F939C01CB01243F4CE5F5
:104B2000340759F1A8F4293DFCE53F0701F12A3D7E
:104B30004CE53407D1F1283D3C4591F406E221EEE5
:104B400041EE68ED7CE50E94272580E00F910895F5
:104B5000263FFCE53F07E9F0B0F0273F3C45F9F080
:104B6000FC018281882339F11092DB03EFCF07E249
:104B700025EE45EE69ED7CE5E6CF06E221EE40EE5E
:104B800064EF7CE5E0CF07E225EE44EE65EF7CE5DF
:104B9000DACF06E221EE42EE66EF7CE5D4CF07E203
:104BA00025EE46EE67EF7CE5CECF08E221E045EE4C
:104BB0006AED7CE5C8CF81E0C9CF1092B9008CE0E6
:104BC0008093B8000895B0E0A0E0E9EEF5E20C941F
:104BD0001630B82EEB010E9483286C01EE24E3947A
:104BE000F12CC431D10560F025E0E22EF12CCF3F4D
:104BF000DC0731F0CE0164E170E00E94E12F7B011F
:104C000084EAA82E94E8992E1092BC00A092BC00D1
:104C10000E9483288C018091BC0087FF0DC0809189
:104C2000B900887F883001F18091B900887F803198
:104C3000D9F00FEF1FEF09C00E948328801B910B52
:104C40008E159F0540F30EEF1FEFCF3FDC07E1F21B
:104C5000C6010E949B288C179D07B0F2C801CDB7F2
:104C6000DEB7EBE00C943230B092BB009092BC0007
:104C70000E9483288C018091BC0087FF0AC080912C
:104C8000B900887F883111F0803499F610E000E097
:104C9000E5CF0E948328801B910B8E159F0558F34A
:104CA000D2CF0F931F93CF93DF93EB018093BB0081
:104CB00084E88093BC000E9483288C018091BC0012
:104CC00087FF11C02091B900287F81E090E0283251
:104CD00011F490E080E0919581959109DF91CF9159
:104CE0001F910F910895CF3FDC0741F30E94832865
:104CF000801B910B8C179D0708F38EEF9FEFEECF73
:104D00000F931F93CF93DF93EC0184E88093BC0053
:104D10000E9483288C018091BC0087FF08C080918D
:104D2000BB0090E0DF91CF911F910F910895CF3F8D
:104D3000DC0789F30E948328801B910B8C179D0749
:104D400050F38EEF9FEFEECF84E98093BC0008957F
:104D5000909365028093640208959093E103809399
:104D6000E0030895E091E003F091E103309729F02A
:104D70000190F081E02D0995089580E008950E944A
:104D8000B2260895E091E003F091E103309799F0A5
:104D90002091F201222359F020910D0427FF07C032
:104DA000DC012C9111962C93119726E02C93028014
:104DB000F381E02D09950895E091E003F091E1037E
:104DC000309721F00480F581E02D09950895209118
:104DD000DE033091DF032817390771F09093DF036A
:104DE0008093DE03E091E003F091E103309721F03E
:104DF0000680F781E02D099508952091DC0330911C
:104E0000DD032817390771F09093DD038093DC03ED
:104E1000E091E003F091E103309721F00084F18507
:104E2000E02D09950895FC0132968091F2018823C6
:104E300021F080910D049EE187FF96E080E0915083
:104E400008F4089521912223D1F38F5FF8CF6623D0
:104E500001F12091F2012223F1F020910D0427FFAE
:104E60001AC0462F4695469546954E3190F4677088
:104E700021E030E002C0220F331F6A95E2F7840F71
:104E8000911DFC01828190E02823392381E0232BAE
:104E900069F480E00895FC01329608962191261766
:104EA00021F0E817F907D1F7F4CF81E008959C01CC
:104EB000FC0132969FEF80E04191461751F09F3FF1
:104EC00019F4411101C0982F8F5F8630A9F79F3FD9
:104ED00009F40895290F311D97FD3A95F901628370
:104EE0000895FC01329608962191261303C0DF0134
:104EF00011971C92E817F907B9F70895E62FE69580
:104F0000E695E695EE3168F4E80FF92FF11D67702C
:104F100021E030E001C0220F6A95EAF78281822BFE
:104F200082830895E62FE695E695E695EE3170F4D6
:104F3000E80FF92FF11D677021E030E001C0220F6A
:104F40006A95EAF72095828128232283089520918B
:104F5000F201222339F020910D0427FF03C00E94A3
:104F60007E2708950E94572708952091F201222359
:104F700039F020910D0427FF03C00E949227089565
:104F80000E9471270895FC0132968091F2018823D6
:104F900051F080910D0487FF06C08EE1DF011D9264
:104FA0008A95E9F7089586E0F9CF45E050E00E9440
:104FB000713121E0892B09F420E0822F08950895B2
:104FC0000E94DF270895811106C081E08093E203EB
:104FD0000E94E027089582E0F9CF83E08093E20306
:104FE0000E94E02708950E94E327089581E08093BE
:104FF000E2030E94E02708950E94F627089508958D
:1050000008950E940028089508950E94FF2708959A
:10501000CF930E94B0070E94321B0E940428C0E078
:105020008C2F0E94191B811105C0CF5FCE30C1F7B4
:10503000CF91089581E0FCCF85B7806885BF85B7A3
:10504000806885BF08951F921FB61F9211248F9309
:105050009F93AF93BF938091E303811113C080911D
:10506000320490913304A0913404B09135044196F8
:10507000A11DB11D8093320490933304A093340496
:10508000B0933504BF91AF919F918F911F901FBE38
:105090001F90189580913A04843031F10E94430C9E
:1050A0001092E30388E190E020E40FB6F894A8950D
:1050B000809360000FBE2093600083B7817F84607F
:1050C00083BF83B7816083BF7894889583B78E7FD1
:1050D00083BF0FB6F894A895809160008861809393
:1050E0006000109260000FBE08950E9468110E9437
:1050F000480C089582E084BD93E095BD9AEF97BD7A
:1051000080936E0008952FB7F894809132049091A7
:105110003304A0913404B09135042FBF08952FB704
:10512000F89460913204709133048091340490912A
:1051300035042FBF08959C014FB7F8948091320435
:1051400090913304A0913404B09135044FBF821B79
:10515000930B089578941F921FB61F9211248F937A
:105160009F93AF93BF938091320490913304A091A9
:105170003404B09135040196A11DB11D8093320411
:1051800090933304A0933404B0933504BF91AF914E
:105190009F918F911F901FBE1F901895F89481E0EA
:1051A0008093E00080E28093D800E9ECF0E0108288
:1051B0008FE19EE40197F1F700C000001DBA109244
:1051C00068001CBC10BE1FBA10927A0010926E00CC
:1051D00010926F0010927100109272001082ECEB2E
:1051E000F0E0108214B817B81AB81DB810BA1082BF
:1051F00015B818B81BB81EB811BA0C94003F089522
:1052000088E19AE00FB6F894A895809360000FBEED
:1052100090936000FFCF80910704089508959C014A
:1052200082E08093E9009FEF8091E800915085FD36
:1052300006C085ED8A95F1F700009111F5CF8091B8
:10524000E80085FF0CC050E040E065E070E0C90177
:105250000E945A2B8091E8008E778093E800089591
:10526000CF93DF93EC018091F2018823B1F180911B
:105270000D0487FF32C060E283E08093E9008FEF86
:105280009091E800815095FD06C095ED9A95F1F753
:1052900000008111F5CF8091E80085FF1BC080914F
:1052A000F20170E050E040E0811104C050E040E0C5
:1052B00068E070E0CE010E945A2B8091E8008E7762
:1052C0008093E80080E2FE01A7EEB3E001900D922A
:1052D0008A95E1F7DF91CF91089568E081E0CDCF25
:1052E0008093E4037093E6036093E50380913A04AE
:1052F000843001F583E08093E9008FEF9091E8001E
:10530000815095FD06C095ED9A95F1F70000811149
:10531000F5CF8091E80085FF0DC050E040E063E0EC
:1053200070E084EE93E00E945A2B8091E8008E7723
:105330008093E8000895BC0184E00E9470290895DC
:10534000BC0183E00E947029089580913904811185
:1053500009C00E94EA2C0E94472D8091E2008460DF
:105360008093E20008951092390408950E94F62770
:1053700008956091360481E0611101C080E00E94CF
:10538000ED27089590913A0481E0943009F080E08F
:10539000609136040E94F327089542E061EC81E0B9
:1053A0000E94662C42E061EC82E00E94662C42E2A0
:1053B00061EC83E00E94662C90913A0481E0943085
:1053C00009F080E0609136040E94E32708958091FF
:1053D0003C04833009F463C030F48130E1F1823061
:1053E00009F4A0C008958A3009F48CC08B3009F408
:1053F00071C0893009F052C080913B04813209F0BC
:105400004DC080913F0490914004009719F002979D
:1054100009F044C08091E800877F8093E800809184
:10542000E80082FF37C09091F3008091F20002976C
:1054300031F48091F100813011F0863021F48091B7
:10544000F100809307048091E8008B778093E80057
:105450000E949A2C23C080913B04813AF9F48091F8
:10546000E800877F8093E80080913F04909140049A
:10547000892B61F460E287EE93E070E00E94A92B33
:105480008091E8008B778093E800089560E090E0D9
:1054900080E0F3CF80913A048111C1CF08958091CB
:1054A0003B04813AD9F780913F0490914004892BC5
:1054B000A9F78091E800877F8093E8008091E80059
:1054C00080FFFCCF8091F2018093F1008091E80091
:1054D0008E77BCCF80913B04813201F780913F04ED
:1054E00090914004892BD1F68091E800877F8093CA
:1054F000E8000E949A2C80913D048093F2010E9462
:105500006811089580913B04813241F68091E80052
:10551000877F8093E8000E949A2C80913E048093BC
:105520000804089580913B04813A09F0B7CF809137
:10553000E800877F8093E8008091E80080FFFCCF3F
:1055400080910804C1CF84B7877F84BF0FB6F894D9
:10555000A89580916000886180936000109260003F
:105560000FBE80E890E00FB6F894809361009093AE
:1055700061000FBE0E94FC2708950E94EA2C0E9441
:10558000472DE2EEF0E080818460808378940E9471
:10559000C62F089586EE91E00E94AD260895809171
:1055A0003A04853031F480913A04853019F00E9434
:1055B000752808950E944A2880913804882399F319
:1055C0000E940828882379F30E94442B0E946811C6
:1055D000EACF08950E94ED2A0895292F332723301A
:1055E000310521F168F42130310509F443C022303E
:1055F000310509F444C090E080E030E020E026C0AE
:105600002132310551F122323105A9F7633071059C
:1056100090F7FB01EE0FFF1FE85AFD4F208131810B
:105620006B5A7D4FFB01808190E010C0992781303B
:10563000910581F0009729F00297E9F6E8E7FBE091
:1056400002C0EAEBFBE0849190E09F01FA01318314
:1056500020830895E0E9FBE0F6CF6330710558F64A
:10566000660F771FFB01E25AFD4F2081318189E0EF
:1056700090E0ECCF82E190E022E13CE0E7CF84E5EE
:1056800090E02EEB3BE0E2CF80E189BD82E189BD75
:1056900009B400FEFDCF8091D8008F7D8093D800A3
:1056A0008091E00082608093E0008091E00081FDC5
:1056B000FCCF0895AF92BF92CF92DF92FF920F93EB
:1056C0001F93CF93DF936C01EB018A010E94B92CE9
:1056D000F82E811123C00115110539F0F8018081E0
:1056E0009181C81BD90BC80ED91EB12CA12C2097B3
:1056F000A9F08091E80085FD22C08091E8008E77B6
:105700008093E80001151105A1F0F80180819181D5
:10571000A80EB91EB182A08285E0F82E8F2DDF91F0
:10572000CF911F910F91FF90DF90CF90BF90AF90DE
:1057300008950E94B92C8823D1F2F82EEFCFF601FC
:1057400081916F018093F1002197FFEFAF1ABF0A9B
:10575000CECFFC01809141049091420486179707B7
:10576000A0F06115710529F49091E8009E7790935F
:10577000E80090E06115710551F4911108C0809125
:10578000E80082FF34C080E00895BC01F2CF809130
:105790003A048823C1F18530C1F18091E80083FD8E
:1057A00030C08091E80082FDEACF8091E80080FF60
:1057B000E1CF8091F3002091F200382F611571053F
:1057C00019F02830310558F091E02830310509F002
:1057D00090E02091E8002E772093E800CBCF8191D4
:1057E0008093F100615071092F5F3F4FE7CF8091A7
:1057F0003A04882341F0853041F08091E80083FF2E
:10580000BECF81E0089582E0089583E00895FC0111
:10581000809141049091420486179707A0F061158A
:10582000710529F48091E8008E778093E80090E07C
:105830006115710551F4911108C08091E80082FF53
:1058400035C080E00895BC01F2CF80913A048823EE
:10585000C9F18530C9F18091E80083FD31C08091A4
:10586000E80082FDEACF8091E80080FFE1CF8091DF
:10587000F3002091F200382F6115710519F02830DE
:10588000310558F091E02830310509F090E0809121
:10589000E8008E778093E800CBCF84918093F1006D
:1058A0003196615071092F5F3F4FE6CF80913A04E6
:1058B000882341F0853041F08091E80083FFBDCF1F
:1058C00081E0089582E0089583E00895982F97304D
:1058D00028F08F708093E90081E008959093E900AB
:1058E000242F762F50E0981731F07091EC00209122
:1058F000ED005091F00021FD02C09F5FE8CF309194
:10590000EB003E7F3093EB003091ED003D7F309314
:10591000ED003091EB0031603093EB007093EC00C0
:105920002093ED005093F0002091EE0027FDE5CF8D
:1059300080E0089580913B0487FF13C08091E800C8
:1059400082FF06C08091E8008B778093E80004C056
:1059500080913A048111F2CF089580913A0488230E
:10596000D9F38091E80080FFF8CF8091E8008E772E
:10597000ECCF2091E4003091E50095E6A90120915B
:10598000EC00822F817020FF06C08091E80080FF2C
:1059900006C080E008952091E80022FD1AC08091A1
:1059A0003A04882389F0853089F08091EB0085FDE9
:1059B0000FC02091E4003091E50042175307F9F23F
:1059C0009150E1F684E0089582E0089583E008951F
:1059D00081E008950E94592D0E94612DE0EEF0E0D3
:1059E000808181608083E8EDF0E080818F77808323
:1059F00019BCA7EDB0E08C918E7F8C9380818F7E57
:105A000080831092390408950F931F93CF93DF93EF
:105A10000E94592D0E94612DC8EDD0E088818F77BA
:105A2000888388818068888388818F7D888319BC7A
:105A300010923A04109236041092380410923704EF
:105A400000EE10E0F80180818B7F80838881816087
:105A5000888342E060E080E00E94662CE1EEF0E0A6
:105A600080818E7F8083E2EEF0E0808181608083A0
:105A7000808188608083F80180818E7F8083888127
:105A800080618883DF91CF911F910F910895E8ED98
:105A9000F0E080818F7E8083E7EDF0E0808181609F
:105AA000808384E082BF81E0809339040E94042DCA
:105AB0000895E8EDF0E080818E7F80831092E2000F
:105AC00008951092DA001092E10008951F920F924B
:105AD0000FB60F9211242F933F934F935F936F93C1
