:100000000C9421070C943E070C943E070C943E0779
:100010000C943E070C943E070C943E070C943E074C
:100020000C943E070C943E070C943E2E0C94122F19
:100030000C94FB280C943E070C943E070C943E074E
:100040000C943E070C943E070C943E070C943E071C
:100050000C943E070C9482290C943E070C943E07A6
:100060000C943E070C943E070C943E070C943E07FC
:100070000C943E070C943E070C943E070C943E07EC
:100080000C943E070C943E070C943E070C943E07DC
:100090000C943E070C943E070C943E070C943E07CC
:1000A0000C943E070C943E070C943E07617A636FF4
:1000B000707920636F707920272E5C4353565C2A39
:1000C00027202768747470733A2F2F7072656D69DA
:1000D0006F2E626C6F622E636F72652E77696E642D
:1000E0006F77732E6E65742F7072656D696F2D73E7
:1000F00068617265642F70726F647563742D6461DA
:10010000746173686565742F4353562F3F73763D52
:10011000323031382D30332D32382673693D7072CC
:10012000656D696F2D7368617265642D63616E64BE
:10013000742673723D63267369673D4653395A5579
:1001400035456D49743551346C4E68504D38666A8A
:1001500066597352707158385A5A53676B6F786F7B
:10016000627A6F35524125334427007C2066696CE2
:10017000655F696D675F75726C3A20226D6173749B
:1001800065722220006469762E746578742D63652B
:100190006E7465723E612E616E696D6174652D616C
:1001A00072726F772E6772616469656E742D627505
:1001B00074746F6E2E6772616469656E742D6275FA
:1001C00074746F6E2D002E726F772E616C69676E7E
:1001D0002D6974656D732D63656E7465722E6A7515
:1001E00073746966792D636F6E74656E742D6365C3
:1001F0006E7465722E67792D3301012B00706F7359
:100200006974696F6E2D72656C61746976650063DF
:100210006F6E7461696E65722D666C7569640063DA
:100220006F6E7461696E65720068656967687400F5
:100230007769647468005468616E6B20796F75002B
:10024000646F6E65007072656D696F696E632E63B1
:100250006F6D002F70616765732F002F70726F6470
:10026000756374732F00646972207C2072656E61FF
:100270006D652D6974656D202D6E65776E616D6598
:10028000207B245F2E6E616D65202D7265706C6120
:1002900063652022227D01015001015000737472B8
:1002A000696E6700636F756C6420005468616E6BE3
:1002B00073003D3E207B7D01015001012800636FEA
:1002C0006E73742000796F752772652000776974EA
:1002D000682000796F752000796F757220006D615C
:1002E0006B6520007468656D6520776174636820B4
:1002F0002D652000676974207075736820686572C9
:100300006F6B7520006769742070756C6C0067698D
:10031000742070757368206F726967696E2000675A
:10032000697420636F6D6D6974202D6D2022220128
:1003300001500067697420616464202E00272B44FB
:10034000454C4554455F4D4554414649454C442B29
:100350000068747470733A2F2F692E7974696D6711
:100360002E636F6D2F76692F2F68716465666175D6
:100370006C742E6A70670101500101500101500137
:1003800001500101500101500101500101500101D2
:100390005001015001015001015001015001015073
:1003A000007374796C653D00636C6173733D222248
:1003B00001015000636C6173734E616D653D2222D3
:1003C000010150006C6566743A20303B0101280041
:1003D000746F703A20303B010128006865696768D6
:1003E000743A20313030253B01012800776964746C
:1003F000683A20313030253B01012800706F736965
:1004000074696F6E3A206162736F6C7574653B013D
:10041000012800636F6E74656E743A2027273B01D4
:100420000128007B252D2072656E64657220276986
:100430006D6727207769746820202D257D01015084
:10044000010150010150010150007B252D207265F2
:100450006E64657220202D257D010150010150013F
:100460000150010150007C20617070656E643A207B
:1004700027007B252061737369676E2020257D012D
:10048000015001015001015000616C69676E2D69D6
:1004900074656D732D006A7573746966792D636F69
:1004A0006E74656E742D000102E0650103E0006C5E
:1004B0006974652D796F75747562652E5B766964F4
:1004C000656F696420706C61796C6162656C5D0058
:1004D000636F6E736F6C652E6C6F67282901015016
:1004E000006469762E636F6E7461696E65720101D6
:1004F0002B0001012B00696D672E5B6C6F616469D5
:100500006E673D226C617A79222077696474683D58
:100510002222206865696768743D22225D00436875
:1005200061726C65732043686175007B252D202006
:100530002D257D01015001015001015001015000A4
:100540007B252020257D0101500101500101500033
:10055000433A5C55736572735C557365725C736F77
:10056000757263655C576F726B7370616365735C02
:1005700053686F706966795C007B2520656E6463E3
:100580006F6D6D656E7420257D007B2520636F6D1A
:100590006D656E7420257D0029002B002A00E10086
:1005A000504300001E00140004001D444F4501008C
:1005B0001F001A0015001B005246BA5D20000900FA
:1005C0001600060051002B612100130017001900CE
:1005D0002841390022000A000700050000002A64B3
:1005E000010001000000010000004C620100010058
:1005F000000001000000E40023000D000B000E00CD
:1006000000004C0024000F00110010002C002B7281
:1006100025001800080036002F00284226001C0084
:100620000C0037003000E3002700330012003800D0
:10063000310001002E0034002D00E500354300009C
:10064000010001004C000100010000003C043C04DA
:1006500004111D011D0301002C001A0115011B01CD
:10066000B600010036010901160106114E01010014
:100670004B010A0317011911010001004E010F037C
:100680000701051300000100010001000000010046
:100690000000010001000100000001000000E00076
:1006A0003F004A022F020E010000E2004B004A0008
:1006B0005000340201004A124E00520051002E0038
:1006C0000100E10026024D004F003400010001004E
:1006D00027024D023002270201004D0246000100B0
:1006E0003100E500010000000100010039000100B7
:1006F0000100000068000100F1000100010001009C
:100700006900F900EF00F2000100FE006A00ED0050
:10071000EE00F3000100FF006B00FA00F000F100B2
:10072000010001006C00B700B600010000000100EC
:1007300001000100000001000000010001000100B3
:100740000000010000000100B500010001000100EF
:1007500000000100B6004A0050001901010001002C
:10076000F3005200510006010100E100B7004D0006
:100770004F001B01AA0001000100010030021D0111
:10078000A90001000F080100310001000100000074
:100790000100B35D39000100010000003A00B35DC3
:1007A000BB5DB55D010001003B00BC5DB95D0100B2
:1007B000C95D01003C00BD5DB75DB15DCA5D010072
:1007C0003D001301B45DB25D010001003E00C35D58
:1007D000C25DC15D000001000100010000000100D8
:1007E0000000010001000100000001000000010004
:1007F0003F005400550001000000010040002400AB
:1008000021001E00010001004100250022001F0000
:1008100027002700420026002300200037002E007A
:10082000430056005700010001000100440045004C
:100830002E00010001000000010001000100010084
:1008400001000000010001000100010001000100A1
:1008500001000100BF5D1A07010001000100010055
:10086000BE5D0C05010001000100E25DC05D0605F2
:100870000805010001000A0101000100000001005B
:100880000100010000000100000001000100010062
:100890000000010000000100010001000100010052
:1008A0000000010001000100010001000100010041
:1008B0000100010001000100010001000100010030
:1008C0000100010001000100010001000100010020
:1008D0000100010001000100010001000100000011
:1008E00006510100010001000100000001000100AB
:1008F00001000100010001000100010001000100F0
:100900004B01010001000100010001004E01010046
:1009100001000100010001000805010001000100C3
:1009200001000100000001000100010000000100C1
:1009300000000100010001000000010000000100B2
:1009400001000100010001000000010001000100A0
:10095000010001000100010001000100010001008F
:10096000010001000100010001000100010001007F
:10097000010001000100010001000100010001006F
:100980000100010001000000010001000100010060
:100990000100000001000100010001000100010050
:1009A000010001000100010001000100010001003F
:1009B0004B01010001000100010001004E01010096
:1009C0000100010001000100010001000000010020
:1009D0000100010000000100000001000100010011
:1009E0000000010000000100010001000100010001
:1009F00000000100010001000100010001000100F0
:100A000001000100010001000100010001000100DE
:100A100001000100010001000100010001000100CE
:100A200001000100005C0100010001000100000064
:100A300001000100010001000100000001000100AF
:100A400001000100010001000100240021001E003E
:100A5000370001000100250022001F0027000100CF
:100A60000100260023002000010001000100010018
:100A70000100010000000100010001000000010070
:100A80000000010001000100000001000000010061
:100A9000010001000100010000000100010001004F
:100AA000010001000100010001000100010001003E
:100AB000010001000100010001000100010001002E
:100AC000010001000100010001000100010001001E
:100AD000010001000100000009000F0018000000E3
:100AE000150037000A00000015003700060000005E
:100AF0001300120016001500000006000F00180079
:100B0000000006001100080000000B0008000C00A7
:100B100000001A000C001700000017000E001C0057
:100B20000000070011000800000007001200170075
:100B3000000013001500100000001300040038002E
:100B40000000130015003800000007000C0015001D
:100B500011000800000017000E001600000015002C
:100B600008000A0000001700150008000000070038
:100B700015000800000017000B0008001A00000014
:100B80000B000C00180000000B0008000C00130004
:100B900000000B000C00130000000B000C0006000E
:100BA00000000B000C000400000016000C000A00FE
:100BB000000007001000080000000C0017000400EF
:100BC0000000160017001C00000006000F001B00AC
:100BD000000006000F0008000000000000000000F8
:100BE00000002A2B28000000000000000000000088
:100BF000000000000029000000002C1E34202122EB
:100C000024342627252E362D3738271E1F20212253
:100C1000232425263333362E37381F0405060708CC
:100C2000090A0B0C0D0E0F101112131415161718BC
:100C3000191A1B1C1D2F3130232D350405060708FA
:100C4000090A0B0C0D0E0F1011121314151617189C
:100C5000191A1B1C1D2F3130354C000000000000FC
:100C60000000000000000000000000000000000084
:100C700000000000000000000000000000007E0FE7
:100C800000D4FFFFFFC7000000783C03430068006A
:100C9000610072006C006500730020004300680072
:100CA0006100750020004500720067006F0064005D
:100CB0006F00780020004D0061006E007500660036
:100CC0006F0072006D0000001A03430068006100AD
:100CD00072006C0065007300200043006800610032
:100CE000750000000403090409025400030100A078
:100CF000FA090400000103010100092111010001AA
:100D000022400007058103080004090401000103D3
:100D10000102000921110100012247000705820399
:100D20000800040904020001030000000921110168
:100D30000001226D00070583032000041201000258
:100D4000000000089732744901000102000105010A
:100D50000980A101850319012AB700150126B700F2
:100D6000950175108100C0050C0901A101850419C8
:100D7000012AA002150126A002950175108100C06C
:100D800005010906A1018506050719E029E71500F7
:100D900025019508750181020507190029EF150045
:100DA000250195F0750181020508190129059505B0
:100DB00075019102950175039101C005010902A118
:100DC000010901A10005091901290815002501954E
:100DD00008750181020501093009311581257F95CA
:100DE000027508810609381581257F9501750881EE
:100DF00006050C0A38021581257F950175088106C4
:100E0000C0C005010906A101050719E029E7150081
:100E10002501950875018102950175088101050775
:100E2000190029FF150026FF0095067508810005A9
:100E30000819012905950575019102950175039120
:100E400001C011241FBECFEFDAE0DEBFCDBF12E03C
:100E5000A0E0B1E0E4EEF5E602C005900D92AC36FC
:100E6000B107D9F724E0ACE6B2E001C01D92AC3482
:100E7000B207E1F70E94941D0C949E320C9400007E
:100E80008098889A8198899A84988C9A85988D9A66
:100E900086988E9A87988F9A0895209828982198F6
:100EA000299822982A9823982B9852985A985398C0
:100EB0005B983E9846980895CF93C82F873078F571
:100EC0008091060190910701892B39F564E670E065
:100ED00080E40E94BB269093070180930601892B32
:100EE000D1F464E670E082E10E9429279093070123
:100EF00080930601892B79F481E090E001C0880F8E
:100F0000CA95EAF764E670E080950E9429279093DD
:100F10000701809306010E947C27CF9108958A30B3
:100F2000B1F038F4883069F0893071F0209A28984F
:100F3000F4CF8C3091F070F08D30C1F73E9A469826
:100F4000ECCF219A2998E9CF229A2A98E6CF239AC2
:100F50002B98E3CF529A5A98E0CF539A5B98DDCF03
:100F6000CF93873050F58091060190910701C0E042
:100F7000892B71F464E670E081E40E94BB269093B3
:100F8000070180930601892B31F0C0E00E947C2785
:100F90008C2FCF91089584E690E00E94582797FF08
:100FA00005C09093070180930601EFCFC82FC0952D
:100FB0001092070110920601E9CFCFB18FB186954B
:100FC00086958C73C3708C2BC82FC095E1CF0E947F
:100FD000F10890E090930701809306010E944D076D
:100FE0000E9440070895EF92FF920F931F93CF93B3
:100FF000DF938091060190910701892B91F08091F8
:101000006E028F5F80936E0281110BC00E94F10807
:1010100090E09093070180930601892B11F40E94C0
:10102000840804E114E0C0E0D0E087E0E82EEC0E94
:101030008C2F0E945C078E2D0E945C078C2F0E94D3
:10104000B0078F73F8019081F12C891719F0808314
:10105000FF24F3948E2D0E94B0078F73F8019781BF
:10106000891789F0878381E08F29D82B0E944D074B
:10107000CF5F0F5F1F4FC730C1F68D2FCDB7DEB7E3
:10108000E6E00C940F3180E0EFCF0E94F10890E091
:1010900090930701809306010E944D070E9440072C
:1010A000E2E2F4E0119284E0E033F807D9F7089522
:1010B000259A2D9A0895269A2E9A0895279A2F9A5E
:1010C000089556985E98089525982D980895269825
:1010D0002E98089527982F9808950E9461080E94DD
:1010E00064080E9467080E946A08089590E090933F
:1010F00089008093880090938B0080938A0090935E
:101100008D0080938C0008950E946D088FEF0E94DF
:1011100076080E9458082FEF80E792E02150804027
:101120009040E1F700C000000E945B082FEF80E7CD
:1011300092E0215080409040E1F700C000000E9402
:101140005E082FEF80E792E0215080409040E1F769
:1011500000C000000E9464082FEF80E792E0215059
:1011600080409040E1F700C000000E9467082FEF28
:1011700080E792E0215080409040E1F700C00000FD
:101180000E946A080E946D08089589EA8093800091
:1011900089E08093810024982C983F988AB18F7CB5
:1011A0008AB96E98479A8BB180638BB9769A0E9400
:1011B000781960930E0470930F0480931004909339
:1011C000110467702FEF629FC001112495958795D8
:1011D000959587950E9476080E9484080E94C81CF5
:1011E000089580E290E0909307018093060180913A
:1011F0006F0281110EC00E94B52681E080936F02BC
:101200002FEF83ED90E3215080409040E1F700C044
:10121000000064E670E080E40E94BB269093070122
:1012200080930601892B09F04EC064E670E080E0EF
:101230000E9429279093070180930601892B09F0CA
:1012400042C064E670E080E00E9429279093070185
:1012500080930601892BB9F564E670E08FE30E9464
:1012600029279093070180930601892B61F50E943D
:101270007C2764E670E080E40E94BB26909307011F
:1012800080930601892BF9F464E670E08CE00E94FB
:1012900029279093070180930601892BA1F464E626
:1012A00070E080E00E942927909307018093060157
:1012B000892B49F464E670E08FE30E94292790931C
:1012C0000701809306010E947C2780910601089502
:1012D00010920E0410920F04109210041092110438
:1012E00084E0806180930E0460910E0470910F047D
:1012F00080911004909111040E947D190E948B1915
:1013000008950E94660C0895CF93DB018F5A9D4586
:101310008C33910508F06CC2FC01E056FD4C0C9436
:10132000E1301296CC91CC2319F00E94F119C0E063
:101330008C2FCF9108951296CC91CC2309F45AC2E8
:101340008AE895E00E94C70EF3CF1296CC91CC2389
:1013500009F452C289E795E00E94C70EE9CF1296C0
:10136000CC91CC2309F44AC280E595E00E94C70ED7
:10137000DFCF1296CC91CC2309F442C280E495E0F1
:101380000E94C70ED5CF1296CC91CC2309F43AC255
:101390008BE295E00E94C70ECBCF1296CC91CC2366
:1013A00009F432C28EE195E00E94C70EC1CF1296B9
:1013B000CC91CC2309F42AC286EF94E00E94C70E98
:1013C00082EF94E00E94C70EB3CF1296CC91CC234B
:1013D00009F41EC282EE0E94880F8CE20E948A10DD
:1013E00082EE0E94191081E10E948A10A1CF12960C
:1013F000CC91CC2309F40EC281EE94E00E94C70E7A
:1014000097CF1296CC91CC2309F406C280ED94E0DC
:101410000E94C70E8DCF1296CC91CC2309F4FEC149
:101420008FEA94E00E94C70E87EA94E00E94C70EFC
:101430007FCF1296CC91CC23A1F0809172028111C2
:1014400006C081E08093720282EE0E94880F0E94A3
:101450005B2990937102809370028BE20E94880F47
:1014600067CF8BE20E941910C1E062CF1296CC9137
:10147000CC2309F4D5C186E994E00E94C70E58CF69
:101480001296CC91CC2309F4CDC189E894E00E9456
:10149000C70E4ECF1296CC91CC2309F4C5C182E77A
:1014A00094E00E94C70E44CF1296CC91CC2309F44D
:1014B000BDC186E694E00E94C70E3ACF1296CC9149
:1014C000CC2309F4B5C18AE494E00E94C70E30CF62
:1014D0001296CC91CC2309F4ADC183E294E00E9432
:1014E000C70E26CF1296CC91CC2309F4A5C183E177
:1014F00094E00E94C70E8CEF93E00E94C70E8CEE22
:1015000093E00E94C70E8BED93E00E94C70E80ED22
:1015100093E00E94C70E84EC93E00E94C70E08CFB0
:101520001296CC91CC2309F489C184EB93E00E94FC
:10153000C70EFECE1296CC91CC2309F481C188EA65
:1015400093E00E94C70EF4CE1296CC91CC2309F4FE
:1015500079C181EA93E00E94C70EEACE1296CC913F
:10156000CC2309F471C181E593E00E94C70EE0CE5F
:101570001296CC91CC2309F469C18DE393E00E94CB
:10158000C70ED6CE1296CC91CC2309F461C183E369
:1015900093E00E94C70ECCCE1296CC91CC2309F4D6
:1015A00059C18FE193E00E94C70EC2CE1296CC9132
:1015B000CC2309F451C18EE093E00E94C70EB8CE4F
:1015C0001296CC91CC2309F449C185E093E00E94A6
:1015D000C70EAECE1296CC91CC2309F441C184EF54
:1015E00092E00E94C70EA4CE1296CC91CC2309F4AF
:1015F00039C184EE92E00E94C70E9ACE1296CC9129
:10160000CC2309F431C18EED92E00E94C70E90CE3A
:101610001296CC91CC2309F429C188ED92E00E9466
:10162000C70E86CE1296CC91CC2309F421C183ED4E
:1016300092E00E94C70E7CCE1296CC91CC2309F486
:1016400019C18DEC92E00E94C70E72CE1296CC9119
:10165000CC2309F411C185EC92E00E94C70E68CE3C
:101660001296CC91CC2309F409C18EEB92E00E9432
:10167000C70E5ECE1296CC91CC2309F401C182EB49
:1016800092E00E94C70E54CE1296CC91CC2309F45E
:10169000F9C08BEA92E00E94C70E4ACE1296CC9116
:1016A000CC2309F4F1C084EA92E00E94C70E40CE38
:1016B0001296CC91CC2309F4E9C08DE992E00E9406
:1016C000C70E36CE1296CC91CC2309F4E1C086E643
:1016D00092E00E94C70E2CCE1296CC91CC2309F436
:1016E000D9C08BE592E00E94C70E22CE1296CC9113
:1016F000CC2309F4D1C083E592E00E94C70E18CE36
:101700001296CC91CC2309F4C9C085E492E00E94E2
:10171000C70E0ECE1296CC91CC2309F4C1C080E442
:1017200092E00E94C70E04CE1296CC91CC2309F40D
:10173000B9C086E392E00E94C70EFACD1296CC9112
:10174000CC2309F4B1C080E392E00E94C70EF0CD33
:101750001296CC91CC2309F4A9C089E292E00E94B0
:10176000C70EE6CD1296CC91CC2309F4A1C08FE12F
:1017700092E00E94C70EDCCD1296CC91CC2309F4E6
:1017800099C08FE092E00E94C70ED2CD1296CC9104
:10179000CC2309F491C08DEF91E00E94C70EC8CD13
:1017A0001296CC91CC2309F489C086EC91E00E947A
:1017B000C70EBECD1296CC91CC2309F481C085E82A
:1017C00091E00E94C70EB4CD1296CC91CC2309F4BF
:1017D00079C08BE691E00E94C70EAACD1296CC91FB
:1017E000CC2309F471C08CEA90E00E94C70EA0CD12
:1017F000C1E09ECDC1E09CCDC1E09ACDC1E098CDC5
:10180000C1E096CDC1E094CDC1E092CDC1E090CDD4
:10181000C1E08ECDC1E08CCDC1E08ACDC1E088CDE4
:10182000C1E086CDC1E084CDC1E082CDC1E080CDF4
:10183000C1E07ECDC1E07CCDC1E07ACDC1E078CD04
:10184000C1E076CDC1E074CDC1E072CDC1E070CD14
:10185000C1E06ECDC1E06CCDC1E06ACDC1E068CD24
:10186000C1E066CDC1E064CDC1E062CDC1E060CD34
:10187000C1E05ECDC1E05CCDC1E05ACDC1E058CD44
:10188000C1E056CDC1E054CDC1E052CDC1E050CD54
:10189000C1E04ECDC1E04CCDC1E04ACDC1E048CD64
:1018A000C1E046CDC1E044CDC1E042CDC1E040CD74
:1018B000C1E03ECDC1E03CCDC1E03ACDC1E038CD84
:1018C000C1E036CDC1E034CDC1E032CD80917202AD
:1018D000882371F080917002909171020E947329A7
:1018E0008139914028F082EE0E9419101092720204
:1018F000089581FF03C00E945E0808950E946A084F
:101900000895CF92DF92EF92FF92CF936B017C010B
:101910000E94D60EC82F0E9461080E9467080E948C
:101920006408C23081F0C33061F0C13011F40E940C
:101930005808C701B601CF91FF90EF90DF90CF908C
:1019400008950E9458080E945B08F3CF9C013A95C5
:1019500021153F4150F5FC01EE27F170BC016627CF
:101960007270AC01442754709C012227387094FF98
:101970000EC080E1EF2B09F480E0672B09F0806254
:10198000452B09F08064232B89F08068089581E05D
:10199000EF2B09F480E0672B09F08260452B09F0FA
:1019A0008460232B19F08860089580E00895CF9318
:1019B000DF93EB010E94A60CFE010995DF91CF9108
:1019C0000895CF93DF93EC01805E9109089720F092
:1019D00069EF72E1209711F463E970E1CE010E9492
:1019E000D70C8C2F0E94880FDF91CF910895CF9351
:1019F000DF93EC010E941910CE01805E91090897D7
:101A000020F060E073E1209711F46AE970E1CE0103
:101A10000E94D70CDF91CF910895CF93DF93EC0113
:101A20000E94E10CC933D10549F42FEF87EE93E012
:101A3000215080409040E1F700C00000CE010E949C
:101A4000F70CDF91CF91089581E008950E948409F9
:101A5000089508950E94290D0895A5E0B0E0E3E3FC
:101A6000FDE00C94F63049835A83309174028981E9
:101A70009A81311119C0662399F0222389F00E94BE
:101A8000F614182F682F89819A810E94D2146981D7
:101A90007A81812F0E94A61B2596E3E00C941231D7
:101AA0000E94E414182FF3CF0E94F61469817A8102
:101AB000F1CFFC01262F86819781009739F4408170
:101AC00051816281738184810E942D0D0895CF938D
:101AD000DF93EC0161E00E94590DBE010E942F24AA
:101AE000DF91CF910895CF93DF93EC0160E00E94E6
:101AF000590DBE010E942A0DDF91CF9108950E94D9
:101B0000C50808950E948109089508950E941D1333
:101B10000E94850D2FEF84E39CE02150804090408F
:101B2000E1F700C0000008950E94860D0E94A629DA
:101B300008950E94860D0E94D82908950F931F933F
:101B4000CF93DF938C0161E00E94590DEC01B80145
:101B50000E94260D811106C080E0DF91CF911F9178
:101B60000F910895B801CE010E940C218823A1F3A2
:101B7000B801CE010E946326882371F3B801CE011B
:101B80000E944021882341F3B801CE010E94D5254F
:101B9000882311F3F8018281882361F0CB35FDE5BC
:101BA000DF0701F158F4C115ECE5DE0791F0CF3DF8
:101BB000DC4591F0C8010E94240DCFCFCD358DE5D5
:101BC000D80769F090F0C83ADD45A1F70E94990D59
:101BD000C3CF0E94940DC0CF0E94F119F7CF0E948D
:101BE0003519E8CF0E943F19E5CF0E944319E2CF93
:101BF0000E94D9280E94350F08950E94390F0E9433
:101C0000DD280895B0E0A0E0E8E0FEE00C94F230BA
:101C1000E82FF0E0E652F44FD490282F2695269531
:101C2000269530E0F901E658F34F0491877010E0F3
:101C3000082E02C0159507950A94E2F70170112746
:101C4000F901E659F34FE490F12C082E02C0F59407
:101C5000E7940A94E2F791E0E922FF24F901E65AB9
:101C6000F34FC491D0E002C0D595C7958A95E2F7AD
:101C7000C170DD270115110519F081EE0E94880F52
:101C8000E114F10419F086EE0E94880F8D2D0E9458
:101C90008A10E114F10419F086EE0E941910011562
:101CA000110519F081EE0E941910CD2B19F08CE26C
:101CB0000E948A10CDB7DEB7E7E00C940E31EF92A8
:101CC000FF920F931F93CF93DF938C01F62E8AE040
:101CD000E82EF8018491882309F454C0813009F07A
:101CE0004DC0E8012196FE018491813091F4219646
:101CF000FE0184910E948A108E010F5F1F4F8F2D6D
:101D0000815038F3EFE9FFE03197F1F700C00000B0
:101D1000F7CF823039F4E8012296FE0184910E94C7
:101D2000880FEACF833039F4E8012296FE018491CE
:101D30000E941910E1CF8430F9F6E8012296FE01E5
:101D4000249190E080E0FE0131962053330B2A303D
:101D5000310548F0019780F2EFE9FFE03197F1F7A4
:101D600000C00000F7CFE89EA001E99E500D1124AD
:101D7000C901840F951F2491EF01E5CF0E94020E47
:101D8000E801BACFCDB7DEB7E6E00C940F3160E0E2
:101D90000E945F0E0895982F9F709A50963020F001
:101DA000805D0E94020E0895895AFBCFCF92DF9288
:101DB000EF92FF926C01EE24FF2420E0C114D104C5
:101DC000E104F10419F0C701B60120E1C72ED82EB5
:101DD000E92EFF24C114D104E104F10419F0285FB5
:101DE000C701B6016B017C0154E0F694E794D794E7
:101DF000C7945A95D1F7C114D104E104F10419F044
:101E00002C5FC701B6016B017C0142E0F694E794B8
:101E1000D794C7944A95D1F7C114D104E104F104D1
:101E200019F02E5FC701B60196958795779567954E
:101E3000672B682B692B09F02F5F822FFF90EF90A3
:101E4000DF90CF9008950E94790C089581E0089565
:101E50000E94260F08950895CF93C82F0E94230F44
:101E60008C2F0E94280FCF91089580E00E942C0FA4
:101E700008950E948A270E942C0F08950E948A27A5
:101E800090917302981721F0809373020E942C0F97
:101E90000895ADE0B0E0EFE4FFE00C94F73049873F
:101EA0005A876B877C878D8761110E9480181D82FD
:101EB0001E821F82188685E0FE013996DE0111968A
:101EC00001900D928A95E1F78C819D81892B71F4A7
:101ED00029813A814B815C816D817E818F819885DA
:101EE0000E949E172D96E2E00C94133189819A810D
:101EF00089238F3F69F3CE0101960E94670D8111FE
:101F0000E7CFF0CFFC01808191810E9430150895C8
:101F1000CF93C82F8823C9F08238C9F40E948A273A
:101F200081FD13C089E30E9435180E94A1182FEF8C
:101F300081EE94E0215080409040E1F700C0000025
:101F400089E30E943D180E94A118CF91089583381B
:101F5000A1F40E948A2780FDF8CF83E50E943518FE
:101F60000E94A1182FEF81EE94E021508040904014
:101F7000E1F700C0000083E5E4CF8438A1F40E94BB
:101F80008A2782FDE2CF87E40E9435180E94A118BB
:101F90002FEF81EE94E0215080409040E1F700C0A7
:101FA000000087E4CECF8CEF8C0F813A90F46C2F39
:101FB0008091E1019091E2010E94FF27882329F09E
:101FC0008C2F0E943D180E94A1188C2F0E9435185A
:101FD000BACF80E28C0F883048F4C77081E001C02E
:101FE000880FCA95EAF70E946018ADCFEBE5EC0FB9
:101FF000E33040F4F0E0E85DFD4F808190E00E9426
:10200000BF27A3CFE8E5EC0FE73150F4F0E0EE0F87
:10201000FF1FE650FE4F808191810E94D52795CF0A
:10202000CD3E08F492CF8C2F0E94181E0E94EB1E0A
:102030008CCF882309F455C0823879F40E948A270E
:1020400081FF4FC089E30E9435180E94A11889E3DF
:102050000E943D180E94A1180895833859F40E94E7
:102060008A2780FF3EC083E50E9435180E94A11890
:1020700083E5EECF843859F40E948A2782FF31C06D
:1020800087E40E9435180E94A11887E4E1CF9CEFF5
:10209000980F913AE8F290E2980F983050F48770D8
:1020A00091E001C0990F8A95EAF7892F0E9466187E
:1020B000D1CF9BE5980F933028F490E080E00E9408
:1020C000BF27089598E5980F973128F490E080E0B5
:1020D0000E94D52708958D3E20F00E94721E0E9416
:1020E000EB1E08951F93CF93DF93182FEB010E94EF
:1020F000880F209739F4812F0E941910DF91CF911A
:102100001F9108958FE99FE00197F1F700C000004B
:102110002197EFCF70E060E0893311F460E570E063
:102120000E9472100895882321F00E9460180E9476
:10213000A1180895882321F00E9466180E94A11812
:102140000895B0E0A0E0E7EAF0E10C94F0306C0113
:10215000D62FC72FFC011281058102950F700E94B6
:102160005618E82E8823B9F0E12E1123A1F08C2F08
:10217000807F803421F080E28D0F8830C8F080911C
:10218000130482FF15C082E00E9404190E945618B1
:1021900091E0E82EE926BC2EB2949FE0B922FBE044
:1021A000FB15B8F1EB2DF0E0E452FD4C0C94E1305E
:1021B000E12CF1CF0C2F0F70C07F11F00295007F42
:1021C000112399F0002359F080E28D0F883010F030
:1021D000D11107C0802F0E9460180E94A1188D2F76
:1021E0005AC0802F0E947318F8CF8D2F0E941910AB
:1021F000002379F080E28D0F883010F0D11104C0F7
:10220000802F0E94661803C0802F0E9479180E94B8
:10221000A118EB2DE850FF0B349720F40E948A2779
:102220000E942C0FEE2089F00E94521880FD0DC0F4
:10223000F60112820E944C180E94DA13C6010E9415
:10224000CF120E944C180E94FC13CDB7DEB7E9E014
:102250000C940C312C2F2F70F22EC07FC03219F04D
:10226000F29480EFF822DD2341F0D130E9F111231F
:1022700009F444C00023E9F1B2CF8091130482FD38
:1022800015C0112359F0FF2029F08F2D0E946018EE
:102290000E94A11880E00E94880FBBCF80E00E94BE
:1022A0001910FF2009F4B5CF8F2DABCF112381F08A
:1022B000011106C00E9483188F290E949310A9CF94
:1022C0000130C1F70E9483188F290E948A18A1CF7C
:1022D000011106C00E9497188F2D0E949A1099CF65
:1022E000013009F496CFF6CF112329F0023008F01F
:1022F00090CF8F2DE2CF01118CCFEECF002361F371
:10230000D93349F43FEF87EE93E03150804090405D
:10231000E1F700C000008D2F0E9419107ACF8C2F9A
:1023200086958695837069F0813009F072CF8D2F84
:102330009C2F9370111102C090E080E00E94D5277D
:1023400068CF8D2F9C2F9370111102C090E080E018
:102350000E94BF275ECF8D2F112329F00E94181EE7
:102360000E94EB1E56CF0E94721EFACF8C2F8370F4
:1023700009F041C011114DCF4D2F42954695477040
:10238000440F440F0D2F0F7010E030E020E0042EBA
:1023900004C0000F111F221F331F0A94D2F760E000
:1023A00070E0CB01D4FF0FC06FE070E080E090E000
:1023B00004C0660F771F881F991F4A95D2F7609552
:1023C000709580959095C695C695C370602B712BBE
:1023D000822B932BC23049F058F4C13019F00E947F
:1023E000881317CF0E94751314CF0E949B1311CF2F
:1023F0000E9472130ECF8695112311F08C2F8170DD
:10240000882309F406CF4D2F429546954770440F17
:10241000440F0D2F0F7010E030E020E0042E04C0B8
:10242000000F111F221F331F0A94D2F760E070E0E3
:10243000CB01D4FF0FC06FE070E080E090E004C0FB
:10244000660F771F881F991F4A95D2F76095709580
:1024500080959095C695C695C370602B712B822B85
:10246000932BC23049F058F4C13019F00E94551432
:10247000D0CE0E944214CDCE0E946814CACE0E94D3
:10248000B113C7CECF70112329F08C2F0E94DA131D
:102490008D2F13CF8D2F0E949A108C2F0E94FC132A
:1024A000B8CED23F39F160F4D03FB9F0D13F81F0DE
:1024B000112309F445C0011192CE8C2F8F711EC0DB
:1024C000D33FF9F0D43FA1F78091130482FD23C0DC
:1024D0008C2F8F71112311F311C0112339F00111C9
:1024E00098CE8C2F8F710E94201493CE023008F06A
:1024F00090CEF7CF8C2F8F711111D0CF0E94DA13AD
:1025000088CE112329F08C2F8F710E94C41381CEA5
:102510000E94BE137ECE112349F0CF718C2F0E94F2
:10252000DA1363E08C2F0E94E61873CE81E00E94DC
:102530000419023008F46DCE82E00E94041969CEBD
:10254000002359F0D93309F0E6CEEFEFF7EE23E0A0
:10255000E150F0402040E1F7DCCE8C2F8F719ECF10
:102560000F931F93CF93DF93EC018E819F81009790
:1025700081F00E94AE1A8C010E947B140E9471139C
:10258000B801CE010E94A110DF91CF911F910F9150
:102590000895688179818A810E943B15ECCFCF93A1
:1025A000DF93EC018B819C81892B29F088819981B3
:1025B00089238F3F51F4DF91CF910895CE010E947E
:1025C000B012CE010E94730DF6CFCE010E949E0D77
:1025D0008111F4CF0E945618882369F38A818823D9
:1025E00051F38091130482FFE6CF82E00E94041928
:1025F000E2CF882321F00E9473180E94A118089549
:10260000882321F00E9479180E94A118089590E073
:1026100080E00E94BF2790E080E00E94D5270E94C2
:1026200080180E94A1180E94071F0E94EB1E0895A7
:102630000E9445180E94071308950E9470180E9476
:102640001813089592959F70963091F058F4925F08
:102650009F70923058F4803F19F030F4883E30F487
:1026600081E008959A5FF4CF843FD1F380E008952C
:10267000883EB0F3813FD1F7F3CFFC01868197818B
:10268000009729F00E94AE1A0E94221308958081BB
:1026900091810E943015F8CFA5E0B0E0E2E5F3E1CA
:1026A0000C94F7302596E2E00C941331A8E0B0E0EA
:1026B000ECE5F3E10C94F7302896E2E00C9413314A
:1026C00008950E94601308950E9461136093B00200
:1026D0007093B1028093B2029093B3020E940713E9
:1026E000089508950E94641308950F931F93009115
:1026F000B0021091B1022091B2023091B302602B6E
:10270000712B822B932B0E9464131F910F910895BC
:102710000F931F930091B0021091B1022091B20269
:102720003091B30260237123822393230E946413A8
:102730001F910F9108950F931F930091B002109174
:10274000B1022091B2023091B30260277127822733
:1027500093270E9464131F910F9108950E94810C8A
:1027600008950E94AE136093AC027093AD02809303
:10277000AE029093AF020E940713089560E070E0EC
:10278000CB010E94B11308950F931F9341E050E0D5
:1027900060E070E08A019B0104C0000F111F221F3E
:1027A000331F8A95D2F7C901B8010E94B1131F9156
:1027B0000F9108950F931F9341E050E060E070E0A7
:1027C00004C0440F551F661F771F8A95D2F780916A
:1027D000AC029091AD02A091AE02B091AF028A011D
:1027E0009B01082B192B2A2B3B2BC901B8010E94F6
:1027F000B1131F910F9108950F931F9341E050E083
:1028000060E070E004C0440F551F661F771F8A9573
:10281000D2F7CB01BA0160957095809590950091A3
:10282000AC021091AD022091AE023091AF02602354
:102830007123822393230E94B1131F910F91089556
:102840000F931F9341E050E060E070E004C0440F3C
:10285000551F661F771F8A95D2F78091AC02909121
:10286000AD02A091AE02B091AF028A019B01082790
:1028700019272A273B27C901B8010E94B1131F91CC
:102880000F9108950F931F930091AC021091AD0228
:102890002091AE023091AF02602B712B822B932BD3
:1028A0000E94B1131F910F9108950F931F930091F0
:1028B000AC021091AD022091AE023091AF026023C4
:1028C0007123822393230E94B1131F910F910895C6
:1028D0000F931F930091AC021091AD022091AE02B4
:1028E0003091AF0260277127822793270E94B1138E
:1028F0001F910F9108950895262F277091E001C030
:10290000990F2A95EAF723E0769567952A95E1F7DE
:1029100025E0269FF001279FF00D1124E40FF51FFD
:1029200050E040E0682F70E08191DF0111979B013A
:10293000042E02C0369527950A94E2F7217021955E
:102940002827292328272C934F5F5F4F45305105B7
:1029500059F70895A82FA77023E0969587952A9593
:10296000E1F725E0289FF001299FF00D1124E60FE3
:10297000F71F50E040E080E0219130E00A2E02C0D5
:10298000369527950A94E2F721703327042E01C06B
:10299000220F0A94EAF7822B4F5F5F4F45305105B3
:1029A00059F70895262F9E3070F4863060F4682F12
:1029B00070E086E0989F600D711D112445E752E09C
:1029C000822F0E947C140895292F9E3068F486304F
:1029D00058F490E065E772E036E0239F800D911D8A
:1029E00011240E94AA14089580E00895B0E0A0E0A8
:1029F000ECEFF4E10C94F0308C01C090AC02D0907C
:102A0000AD02E090AE02F090AF028091B0029091E2
:102A1000B102A091B202B091B302C82AD92AEA2A1F
:102A2000FB2ACFE1D0E0BC2ED701C6010C2E04C09A
:102A3000B695A795979587950A94D2F780FD09C01A
:102A4000219788F7B12C8B2DCDB7DEB7E9E00C9438
:102A50000C31B8018C2F0E94C11B019789F3F3CF71
:102A6000CF93DF93EC010E94F614BE010E94C11BBC
:102A7000DF91CF9108951F93CF93DF93EB01909156
:102A80007402992339F0CB010E943015DF91CF9168
:102A90001F910895882369F0CB010E94F614182F26
:102AA000682FCE010E94D214BE01812F0E94C11B4B
:102AB000EDCFCB010E94E414182FF6CFCF93DF9314
:102AC000C091B4028091B5028C1303C0DF91CF9105
:102AD0000895D0E0FE0183E0EE0FFF1F8A95E1F735
:102AE000EA54FD4F20813181428153816481758197
:102AF000868197810E9456132196C770E3CF20915B
:102B0000F6023091F7024091F8025091F90260917B
:102B1000FA027091FB028091FC029091FD020E94EA
:102B200056130895CF93DF938091FB02807F09F0C5
:102B300049C08091F802882309F444C08091B4020E
:102B4000C091B5026091F6027091F702A091F9026E
:102B5000B091FA02D62FD723C817A1F190E01097B1
:102B600011F0DF3F19F401968770F6CF9C0143E026
:102B7000220F331F4A95E1F7F901EA54FD4F4181D5
:102B80004713F1CF40814613EECF42814111EBCF85
:102B9000438154814A1B5B0B483C510520F78091CF
:102BA000FB028F7080618093FB02F901E554FD4FB9
:102BB00080818F708061808386EF92E00E94CF12C7
:102BC0000E945E15DF91CF910895A5E1B0E0EBEE94
:102BD000F5E10C94EF308C0185E0F801DE015196AF
:102BE00001900D928A95E1F7F801E28046EFC42E3C
:102BF00042E0D42E6091F9027091FA0261157105DC
:102C000009F480C19091F6022091F702892F822366
:102C10008F3F09F477C140815181A380B480F09047
:102C2000F802F501E61BF70BFF2009F420C18091A3
:102C3000FB02382F307FE83CF10508F0CAC03111A3
:102C400077C0FE2C251320C094131EC06091FC0297
:102C50007091FD02F8012681378162177307A1F494
:102C6000E11012C08F7080618093FB020E947F157B
:102C7000C6010E94CF128091FB02F80185838F2D3F
:102C80006596EAE00C940B31A114B10429F0842F6D
:102C900085238F3F09F04FC180E0F82FF170DF2EC0
:102CA00080FF3CC08091B4022091B502821315C010
:102CB000498B5A8B89899A890E943015292F229530
:102CC0002F702230F8F0243020F59F70F9F0F801D1
:102CD0009581907FD9F4D12C1FC090E0FC0133E0A6
:102CE000EE0FFF1F3A95E1F7EA54FD4F318135139E
:102CF00006C03081341303C032813E110FC00196EB
:102D00008770D4CF9F7011F0882329F3805E8830BC
:102D100010F3C8010E94CF12FD2CB1CFEE2009F4B0
:102D2000AECF8091FB0281608093FB02F12CA7CF94
:102D300025131DC094131BC04091FC025091FD024D
:102D4000F801268137814217530789F4E1100FC03B
:102D50008583C8010E94CF1288E0F801A6EFB2E097
:102D600001900D928A95E1F70E947F1588CFC801E6
:102D70000E943D13882349F1EE2039F18091FB0236
:102D80008032A0F02091F6023091F7023A8729872D
:102D90001B86BD86AC868E878091FC029091FD02D9
:102DA000988B8F87CE0109960E94CF1288E0F80198
:102DB000A6EFB2E001900D928A95E1F70E9492157C
:102DC0000E947F15FF24F3945ACFC8010E94CF12AE
:102DD000F9CF311113C07A2DBD8AAC8A6E2D8D8941
:102DE0000E944C1386EF92E00E94CF1288E0F60119
:102DF00011928A95E9F70E947F1598CF251318C084
:102E0000941316C04091FC025091FD02F8012681F6
:102E100037814217530761F4E1100AC08583C80166
:102E20000E94CF1288E0F60111928A95E9F727CF28
:102E3000C8010E943D13882341F2EE2031F28091B7
:102E4000FB02803208F4B2CF2091F6023091F702F3
:102E50003A8329831B82BD82AC828E838091FC02DF
:102E60009091FD0298878F83CE0101969DCFE83C1B
:102E7000F105D8F5FE2CEE2009F4A7CF251327C0C5
:102E8000941325C02091FC023091FD02F801868147
:102E9000978128173907D9F49091FB0290FD0EC055
:102EA000907F61F08091FB028583903F09F451CFC0
:102EB000982F907F905F8F70892B4ACF88E0F80120
:102EC000A6EFB2E001900D928A95E1F7D8CEC80145
:102ED0000E943D1381116ACF8091FB028160809333
:102EE000FB02C8010E94CF12CACE7A2DBD8AAC8ADD
:102EF0006E2D8D890E944C1388E0F60111928A95FF
:102F0000E9F732CFEE2009F460CFC8010E943D13EB
:102F1000F82E882309F459CF88E0F801A6EFB2E033
:102F200001900D928A95E1F786EF92E00E94820F60
:102F30000E94921519CF81E08E25AFCEA0E1B0E0BE
:102F4000E4EAF7E10C94F73029873A874B875C87EE
:102F50006D877E878F87988BCE0109960E94E51535
:102F60008823A9F08C859D85892B39F029853A85A0
:102F7000822F83238F3F09F06FC08091B40290911C
:102F8000B502891343C06096E2E00C94133188E0E7
:102F9000FE013996DE01119601900D928A95E1F7B6
:102FA0008C859D85892B49F389859A8589238F3F57
:102FB00021F3A091B502B0E0CD0101968770992769
:102FC0002091B4022817190671F40E941D13109263
:102FD000B5021092B40288E0E6EFF2E0DF011D9244
:102FE0008A95E9F7CACF93E0AA0FBB1F9A95E1F73C
:102FF000AA54BD4F98E0FE01319601900D929A952A
:10300000E1F78093B5020E945E15B7CFB8E08B9FC1
:10301000C00111248A549D4F0E94E515882309F4AC
:10302000B2CFE091B40228E0E29FF0011124EA540B
:10303000FD4F208131814281538164817581868178
:1030400097810E9456138091B40290E00196877098
:1030500099278093B40291CF4B855C856D857E85E1
:103060008F8598890E94561388CF682F8091E1013F
:103070009091E2010E947F280895682F8091E101DC
:103080009091E2010E948D2808958091E101909134
:10309000E2010E949B28089580911E0385958595E5
:1030A0008595089580911E038770089590911E0361
:1030B000977081E009F480E00895809141030895BC
:1030C00090914103892B80934103089580959091BD
:1030D00041039823909341030895809341030895F9
:1030E00010924103089590914003892B80934003EF
:1030F00008958095909140039823909340030895FC
:1031000010924003089580911F03089508950E942E
:10311000861808959091130492FF08C090911F03A0
:10312000981721F080931F030E94871808958091BB
:103130001F03882329F010921F0380E00E94871844
:103140000895CF93DF93E091E101F091E201809146
:1031500041038083E091E101F091E201808190914F
:103160004003892B808390911F03992381F0E09184
:10317000E101F091E2018081892B80838091E1015E
:103180009091E2010E94EB2781110E949718C09153
:10319000E101D091E20140E250E06EEF72E0CE0139
:1031A0000E944932892B59F080E2FE01AEEFB2E075
:1031B00001900D928A95E1F7CE010E949A27DF9146
:1031C000CF91089508950E94E218089590911304F4
:1031D00092FF11C098E0899F90011124622B6093A7
:1031E0001E030E94DA1380911E03859585958595AF
:1031F0000E94E31808950E94DA13089510921E03A6
:1032000080E00E94E318089590911E038095892321
:1032100080931E03282F277091F4282F082E000C6E
:10322000330B9217130659F09091130492FF07C0C5
:103230008595859585950E94FC130E94FE1808953A
:103240009091130492FB222720F9281769F080FB44
:1032500092F99093130480911204909113040E94A8
:103260006A1982E00E94041908958091130482FB78
:10327000882780F991E089270E942019089581E02C
:103280000E942019089580E00E942019089590E07E
:1032900080E00E94643221E0883E9E4F09F020E0E9
:1032A000822F089582E090E00E945632089583E0D4
:1032B00090E00E9456320895CF9384E090E00E94FF
:1032C0005632C82F82E290E00E945632982F8C2FFF
:1032D000CF910895CF93C92F682F84E090E00E948A
:1032E0006A326C2F82E290E00E946A32CF91089598
:1032F0008FE090E00E945E320895AB01BC018FE048
:1033000090E00E947C320895AB01BC0183E190E023
:103310000E947C32089560E070E0CB010E94841925
:10332000089568EE7EEF90E080E00E94883260E0D1
:1033300082E090E00E946A3260E083E090E00E94C8
:103340006A321092B0021092B1021092B202109240
:10335000B30260E084E090E00E946A3264E082E2BE
:1033600090E00E946A3260E085E090E00E946A325C
:1033700060E086E090E00E946A326FEF87E090E0C4
:103380000E946A3240E050E0BA0188E090E00E947A
:103390007C3260E08DE090E00E946A3240E050E0D4
:1033A000BA0188E190E00E947C3260E087E190E021
:1033B0000E946A3240E050E0BA018CE190E00E9445
:1033C0007C3270E060E080E290E00E94883240E071
:1033D00050E0BA0188E190E00E947C320E946809C6
:1033E00008950E9491190895682F8EE090E00E9440
:1033F0006A3208950E9467296093540370935503BD
:103400008093560390935703609350037093510336
:1034100080935203909353030895089508950E9452
:103420000E1A089508950E94121A089580EA9CE1E8
:103430000E9480270E940D1A0E940F1A089581E0B1
:1034400008950E941F1A0895089508950E94241A4D
:103450000E94251A08950E94A31C0E942B0F0E940F
:103460004F2008950E9452290E94D01C0E942B1ABE
:103470000E94131A0895AAE0B0E0E1E4FAE10C9486
:10348000EE300E94E21CC82E81110E94FA1982E4DB
:10349000A82E83E0B82E10E000E0902E802F0E942E
:1034A000C91CE82EF501F1905F01F816B9F1809181
:1034B000580381FD0E94CF1C8F2D8E25D12CFF2417
:1034C000F394982F9F2129F10E94211A882399F0C3
:1034D000DE829F82EF2081E009F480E088870E94ED
:1034E0005B298160782F9A8789874E815F81688503
:1034F0008A850E94490FF801EE5BFC4F8081F82617
:10350000F08281E0C11001C080E02A96EBE00C94CB
:103510000A31D394FF0CF6E0DF12D3CF0F5F1F4FB9
:103520000E30110509F0B9CF8FEF89838A831B8292
:103530000E945B298160782F9D838C8349815A8109
:103540006B818D810E94490FDCCF0E943B1A0E9443
:10355000E8230E94291F0E943E0F0895CF93DF9316
:103560000E94C61BEC01811521E5920708F042C0BC
:10357000811530E5930708F09DC0883E910530F530
:10358000803E910508F092C0883A910588F4853A0A
:10359000910508F084C08130910509F487C0009737
:1035A00009F484C0049708F081C0D0E0C0E07EC078
:1035B0008F3B9105D0F7C85AD0E0CC0FDD1FC55D19
:1035C000DD4F0990D881C02DD46470C08115904220
:1035D00050F4C11581E0D80708F068C0CD3ED10590
:1035E00020F3D06563C0C11590E4D907F0F2DF7015
:1035F000D06A5CC0811525E5920700F5811534E598
:10360000930708F08BC0811543E5940708F073C059
:10361000C11582E5D80708F469C0CE0183709927E7
:1036200021E030E002C0220F331F8A95E2F7C695F1
:10363000C69580E2C89FE001112454C0C11599E5E8
:10364000D907A8F4C11528E5D20708F06CC0C11548
:1036500036E5D30708F0A9CF8C2F0E945D1CC82F38
:10366000D0E0DC2FCC27CC27DF71D0621FC0C11582
:103670004AE5D40708F45CC0CE019056811590420B
:1036800008F093CF8D2F8F710E945D1C90E0982FD2
:10369000882788279F719C012C2BE901E6CFC55A0A
:1036A000D0E0C75ADD4FC881D0E0D064CE01DF91B1
:1036B000CF910895E4E096958795EA95E1F78370B8
:1036C0002C2F26952695237040E2249F90011124EB
:1036D000382B8C2F8370C1E0D0E002C0CC0FDD1FEF
:1036E0008A95E2F7C22BD32BDC68E0CFDC2FCC2706
:1036F000C16FD06ADBCF8370992721E030E002C030
:10370000220F331F8A95E2F7C695C69590E2C99FAE
:10371000E0011124C22BD32BDA68C8CFD82FCC27D5
:10372000C46FD06AC3CFDC2FCC27C06FD06ABECFA6
:103730008C2F8F700E945D1C34E0D695C7953A950A
:10374000E1F7CF709C2FEC01D069B0CF972F7E307E
:10375000A8F4663098F470E026E0929F600D711D29
:103760001124FB0194E5899FE00DF11D1124EE0F5A
:10377000FF1FE856FA4F85919491089580E090E0FC
:1037800008950E94A61B0E94AE1A089582389105E2
:10379000B1F1B0F48133910509F475C048F4893270
:1037A000910509F469C08A32910509F473C008953E
:1037B0008533910509F459C08933910501F10895C4
:1037C000833E9105A9F138F4803E9105F9F0823EDF
:1037D000910549F10895863E9105A9F1873E91052D
:1037E000C9F1843E910519F52091130421FF1FC0F2
:1037F0008091120484FD14C087EE90E0089520911A
:1038000012042370A1F080EE90E00895209112043C
:1038100020FD47C03091130430FF09C024FF44C08D
:1038200090E080E004C02091120422FDF7CF0895BB
:103830002091120422FD3BC03091130430FDE3CFF0
:1038400024FFF5CFEDCF2091120423FFF0CF24FD0C
:10385000E7CFD2CF2091120423FD2CC03091130466
:1038600031FFEECF84EE90E008952091120425FF01
:10387000DECF89E290E008952091120425FFD7CF92
:1038800085E390E008952091120426FFD0CF8AE2CC
:1038900090E008952091120426FFC9CF81E390E0C3
:1038A000089589E390E0089583EE90E0089582EE14
:1038B00090E0089586EE90E008959091120492FFB2
:1038C00006C0282F28712830F9F4877F846093FF81
:1038D00006C0282F28712831F1F4877E8461209159
:1038E000130420FF06C0382F38713830D9F4877F91
:1038F000816021FF06C0282F28712831D1F4877EEE
:10390000816194FD877E0895282F24712430F9F673
:103910008B7F8860DCCF282F2471243101F78B7EC8
:103920008861DDCF382F3171313019F78E7F886093
:10393000E0CF282F2171213121F78E7E8861E1CFE0
:1039400080E0089508950E944719811102C00E94E5
:10395000F1190E945219809358030E945C199093A8
:103960001304809312040E94A21C0E945719682F0E
:1039700070E090E080E00E9472136091AC02709160
:10398000AD028091AE029091AF020E94AE130895F5
:103990000895E82FF0E0EE5DFB4F808108950895D3
:1039A0000E94E707E4E1F4E0A2E2B4E011921D9284
:1039B00084E0E232F807D1F78EE00E94F51C0E9405
:1039C0007F0D0895CF9384E194E00E94F307C82F00
:1039D000282F4EE062E274E084E194E00E94081D2A
:1039E0000E94820D8C2FCF910895CF93C82F90E025
:1039F0000E941E3180935C0390935D03282FFC018D
:103A00008E2F821B8C1710F0CF9108951192F8CF52
:103A1000B0E0A0E0EEE0FDE10C94F230082FF92ECA
:103A2000E62ED72E142FC22FD0915903DD2309F48F
:103A300048C00E945B2920915A0330915B03AC017E
:103A4000421B530B9A0190935B0380935A034F3FA1
:103A5000510509F0C8F4452B99F0109259031092C2
:103A60005E0340915C03E42FF0915D0390E030E051
:103A70008E2F841B811758F03093590390935E0367
:103A8000C1112DC0CD2F1FC02FEF30E0E6CF8081B8
:103A9000882321F0281720F010829D2F3196E8CF3F
:103AA000821B80833D2FFACF29914C91421731F030
:103AB0004081411103C030832C9381E031961196EF
:103AC0001AC0211106C080915E038823D1F0C11174
:103AD00006C00E945B2990935B0380935A039091E8
:103AE0005C0380915903AE2DBD2DC02FDF2DE92F32
:103AF000F0915D033EE12E2F291B2117A8F2809340
:103B00005903CDB7DEB7E7E00C940E310E94952B38
:103B10000E94321A0E94A22B08950E94A72B0E9495
:103B2000A51A0E94C12B08950E94F4280E947B2BA5
:103B30000E94161A0E94861D0E948D1D0E94261A40
:103B4000FBCF8091660380FF0DC06091E80170E0BB
:103B5000660F771F6038710570F56115710569F1A1
:103B6000862F089581FF07C06091E80184E0689F77
:103B7000B0011124EFCF6091E80182FD0AC080916D
:103B800065038823A9F02091E7016091E80182177D
:103B900010F088E0ECCF869FC001112433E0880F3D
:103BA000991F3A95E1F7622F70E00E94CD30D2CF95
:103BB00068E070E0D5CF8FE7089581E008958091A7
:103BC000660380FF0CC06091E40170E07595679515
:103BD000759567956115710549F1862F089581FFE7
:103BE00006C06091E40170E075956795F3CF609130
:103BF000E40182FD0BC0909164039923A1F06091D0
:103C0000E3018091E401961738F0682F70E0603886
:103C1000710500F38FE70895899FC001112470E0BA
:103C20000E94CD30F4CF61E070E0D7CF81E00895FD
:103C30008D3E31F40E94A11D819580936903089502
:103C40008E3E19F40E94A11DF8CF8F3E31F40E94E0
:103C5000A11D8195809368030895803F19F40E9407
:103C6000A11DF8CF893F29F40E94DF1D80936A03CC
:103C700008958A3F21F40E94DF1D8195F7CF8B3F85
:103C800031F40E94DF1D819580936B0308958C3F72
:103C900019F40E94DF1DF8CF9FE0980F983070F460
:103CA000815F990B21E030E001C0220F8A95EAF78D
:103CB00080916703822B8093670308958D3F31F4D1
:103CC0008091660381608093660308958E3F21F49E
:103CD000809166038260F7CF8F3FB9F780916603CA
:103CE0008460F1CF409168038D3E59F4809169035F
:103CF00087FF0DC01092690341110BC0109265033C
:103D000008C08E3E81F48091690318169CF3442309
:103D100081F080916A0390916B03892B09F05AC05E
:103D20001092640308958F3E49F447FFF0CF10923C
:103D30006803809169038111ECCFE0CF803F19F4D3
:103D40001416ACF3E4CF90916A03893F29F4191655
:103D5000F4F610926A03DBCF8A3F19F497FFD7CFAE
:103D6000F8CF90916B038B3F29F497FFD0CF10923F
:103D70006B03CDCF8C3F19F41916CCF3C8CF9FE05D
:103D8000980F983090F4815F990B21E030E0B901F1
:103D900002C0660F771F8A95E2F7CB01809590915C
:103DA0006703892380936703B2CF8D3F31F48091FD
:103DB00066038E7F80936603AACF8E3F21F48091A5
:103DC00066038D7FF7CF8F3F09F0A1CF8091660307
:103DD0008B7FF0CF08950E945B299C01909168032E
:103DE00080916903982B21F0309363032093620341
:103DF00090916A0380916B03982B21F030936103BB
:103E00002093600387E693E00E94B427089585E03D
:103E1000E7E6F3E0DF011D928A95E9F7109265036A
:103E200010926403109266030895FC018181811150
:103E30000EC0828181110BC08381811108C091E085
:103E40008481811101C090E0892F8170089581E003
:103E5000FCCFA5E0B0E0EFE2FFE10C94F63085E0A6
:103E6000E7E6F3E0DE01119601900D928A95E1F705
:103E7000109268031092690310926A0310926B0308
:103E80008A819B81892B89F08091620390916303E1
:103E90000E947329AC01909165039923C9F1809127
:103EA000E9018417150608F440C08C819D81892B97
:103EB00091F080916003909161030E947329AC019D
:103EC00090916403992309F471C08091E5018417EE
:103ED000150608F479C0BE016F5F7F4F87E693E057
:103EE0000E94AD28811105C087E693E00E94151F4E
:103EF00081110E94EB1E85E0FE013196A7E6B3E03A
:103F000001900D928A95E1F72596E3E00C94123129
:103F100020915F038AE0289F900111242417350720
:103F200020F69F5F9093650302C09F3FD1F71A81EF
:103F3000112359F00E94A11D9FEF11160CF491E07E
:103F4000899F802D1124809368031B81112359F0D0
:103F50000E94A11D9FEF11160CF491E0899F802D06
:103F600011248093690330916803332309F49DCFB2
:103F700020916903222309F498CF45EB3403C00153
:103F80001124992359F09093680345EB2403900181
:103F90001124332339F03093690387CF81E0809374
:103FA0006803F3CF81E0809369037FCF2091E6011E
:103FB0008AE0289F900111242417350708F08BCF41
:103FC0009F5F9093640302C09F3FD1F71C81112330
:103FD00059F00E94DF1D9FEF11160CF491E0899FAC
:103FE000802D112480936A031D81112359F00E94B2
:103FF000DF1D9FEF11160CF491E0899F802D112495
:1040000080936B0330916A03332309F464CF2091CA
:104010006B03222309F45FCF45EB3403C001112465
:10402000992359F090936A0345EB240390011124DE
:10403000332339F030936B034ECF81E080936A03D2
:10404000F3CF81E080936B0346CFCF93DF93EC01F6
:1040500097FF0CC0FB018281882341F00E947720EA
:10406000CE019F770E94F1200E94C82081E0DF915D
:10407000CF91089590913104923071F48A3050F4C8
:1040800090E009966AE070E00E94CD30875A0E9465
:104090008A1008958650FBCF0E94CB0E08958CE0C5
:1040A00090E00E945632482F50E070E060E040936C
:1040B00031045093320460933304709334041092AB
:1040C0006C03843009F4089584E0809331040895EA
:1040D000609131048CE090E00E946A320895109261
:1040E0006C0384E0809331040E94682008950E944C
:1040F000972786958170809336040E949727817058
:104100008093300480913104813039F480913604F9
:10411000882319F089E30E948A100E945D18809319
:1041200035040E9470180E948018809131048130FB
:1041300089F0882359F0823091F0843021F18FE3A7
:104140009CE90197F1F700C00000089582EE0E94FB
:10415000880FF5CF88E193E00E940D0DF0CF80919C
:104160003004811103C083E50E948A1082EE0E9410
:10417000880F8FE39CE90197F1F700C0000087E505
:104180000E948A10DCCF86EE0E948A1088E1F8CF68
:1041900080913104813079F0882349F08230B1F088
:1041A0008430E9F0809135040E946D18089582EE04
:1041B0000E941910F7CF8CE20E948A108091360479
:1041C000882381F389E30E948A10ECCF82EE0E945B
:1041D0001910809130048111E5CF83E5F4CF88E296
:1041E000F2CF0F931F93CF93DF938C01CCE0D0E0FD
:1041F000C8010C2E02C0969587950A94E2F78F703D
:104200000E943A202497CC3F8FEFD80789F7DF919F
:10421000CF911F910F9108950F931F93CF93DF9329
:10422000EC018B01FB018281882361F00E945D1803
:104230008272C13EFCE5DF07E9F068F4C03EECE5C0
:10424000DE07A1F0B801CE010E942520DF91CF91B9
:104250001F910F910895C73EFCE5DF0798F78C2F5B
:10426000825E809331040E946820ECCF811104C0EB
:1042700081E003C08111FCCF8FEF0E946F20E2CF5D
:10428000CF93DF93EC01FB018281882309F433C1D2
:10429000C430FDE5DF07C0F5CB3F9CE5D90730F41E
:1042A0009E0122503C4524313105B0F50E945C1935
:1042B0009093130480931204C1318CE5D80709F45C
:1042C000EEC008F069C0C930ECE5DE0709F4D5C0DE
:1042D000C8F5C5308CE5D80709F4C7C000F5C33070
:1042E000ECE5DE0709F4B9C008F0BBC0C230DC451C
:1042F00009F4ADC080911204909113040E946A19D0
:104300000E941D1380E008C0C236EDE5DE0771F2A1
:10431000C63AFDE5DF0751F2DF91CF910895809114
:1043200012048062C7309CE5D90709F493C08091DC
:1043300012048061C830DC4508F48CC080911204FE
:10434000806488C0809112048B7FCD30FCE5DF074C
:1043500009F480C098F4809112048E7FCB309CE5E4
:10436000D90709F477C0809112048C60CC30DC4509
:1043700008F470C0809112048D7F6CC0809112048B
:104380008F7ECF30FCE5DF0709F464C008F47BC002
:10439000809112048F7D5EC0CE3F9CE5D90709F461
:1043A0007AC050F5C531FCE5DF0709F486C098F402
:1043B00080911204837FC3319CE5D90709F44AC078
:1043C00008F471C00E941D1390911204892F97FB6D
:1043D00087F980583FC0CC3FFCE5DF0709F449C0AE
:1043E00008F055C0809113048160CB3FDC4509F093
:1043F00081CF809313047ECFC230EDE5DE0709F450
:1044000068C0A8F4C1158DE5D80709F452C08091A1
:1044100013048360C130DD4560F380911304982F4D
:10442000909591708E7F892B90FB81F9E2CFC236F7
:10443000EDE5DE0709F451C0C63AFDE5DF0709F4F2
:1044400053C0C330DD4509F055CF80E043C08091B3
:1044500012048160809312044DCF80911204826017
:10446000F9CF809112048460F5CF809112048860A6
:10447000F1CF809113048260BCCF0E941D13809104
:1044800012048068E7CF80911204877FE3CF809188
:1044900013048E7FAECF809113048D7FAACF8091BD
:1044A00012048F7BD7CF0E941D13809112048F7747
:1044B000D1CF809113048C7F9CCF8091120482FB1A
:1044C000992790F921E0922790FB82F990FB83F9DC
:1044D000C1CF81E00E94F4190DCF90911204892F71
:1044E0008F7E94FF8061B6CF90911204892F8E7FCA
:1044F00090FF8160AFCF81E00FCF08950F931F939E
:10450000CF93DF938091D803E0916D031CE081117C
:104510001AC0DF91CF911F910F91089501E00E0F06
:1045200000936D03CE2FD0E0E19FF0011124E858F5
:10453000FC4F83819481892B29F08081918189238B
:104540008F3FF9F4E02F8091D803E81738F31092E9
:10455000D80310926D03DDCF18968D919C918F3FFB
:104560009807E1F061E00E947D221C9FF0011D9FF1
:10457000F00D1124E858FC4F148213820E94801819
:10458000E1CF1C9FD0011D9FB00D1124A858BC4F36
:1045900016968D919C911797892BF1F2208131818C
:1045A0004281538164817581868197810E949E1723
:1045B000DCCF1092DA031092D9032091EB013091F5
:1045C000EC01E8E0F1E090E080E02817390709F419
:1045D00008954581411102C01482168201963796D2
:1045E000F4CFDC016091760380917703962F8913D5
:1045F00001C00895292F30E0F901EE0FFF1FE259A5
:10460000FC4F408151814A175B07A1F487E08A9FE4
:10461000A0018B9F500D1124485F5E4F81E0FA018D
:1046200084839613E6CF2F5F3F4F23703327209369
:10463000760308952F5F3F4F922F9370D8CFB0E04D
:10464000A0E0E5E2F3E20C94EC30EB012C812111C7
:1046500052C07090D803A8E7B3E030E020E0812C8E
:1046600061E070E0271508F044C01A96CD90DC9008
:104670001B97A880B9804FEF5FEF912CE92CF12CAC
:10468000F701EE0FFF1FEA0DFB1D05911491C016F7
:10469000D10609F4A7010115110511F09394EECF8D
:1046A0004F3F540789F1FB0102C0EE0FFF1F4A95EF
:1046B000E2F78E2AAB01092C02C0440F551F0A9461
:1046C000E2F74150510984161506D1F44A815B8105
:1046D0006CE0629FF001639FF00D1124E858FC4FDD
:1046E000578346832EEF208321839187808721E0A3
:1046F0002D830E94F122CDB7DEB7EDE00C94083196
:1047000014961C921E9213972F5F3F4F1C96AACFB0
:104710001F93CF93DF93C091760317E080917703C7
:104720008C1308C00E947E220E94D922DF91CF9173
:104730001F910895D0E0FE01EE0FFF1FE259FC4FDC
:1047400080819181189FB001199F700D1124685FBD
:104750007E4F0E941F232196C370E0CFEF92FF92FD
:104760001F93CF93DF93FC012081318110E040E063
:1047700050E0E52FF0E0EE0FFF1FE20FF31FA591D1
:10478000B4911097B9F0FB01C081D18140E005C020
:10479000AE15BF0509F411E04F5FE42FF0E0EE0F16
:1047A000FF1FEC0FFD1FE590F490E114F10481F779
:1047B0005F5FDFCF112349F0451708F4CB01DF918C
:1047C000CF911F91FF90EF90089590E080E0F7CF98
:1047D0008091EA01882341F18091DB039091DC0311
:1047E000009711F10E9473292091D9033091DA03C7
:1047F00028173907C8F490917603809177039817AA
:1048000059F00E9488231092DA031092D903109273
:10481000DC031092DB0308950E947E221092DC03D9
:104820001092DB030E94D92208951092DC031092AB
:10483000DB031092EA0180917703809376030E9454
:10484000D9220E947E2208958091EA01882319F0DE
:104850000E941524089581E08093EA010895A9E05B
:10486000B0E0E5E3F4E20C94E7306C013B01FB01BE
:104870001281883FFCE59F0751F4112379F081E014
:104880008093EA01812F2996E2E10C940331893F5C
:104890002CE5920709F04DC0111148C008E011E065
:1048A000F12CE12C198688248394912C8091EB01C2
:1048B0009091EC01E816F90608F445C0F3018281F5
:1048C000882309F460C1F985FF2309F45CC10E94C3
:1048D0005B299093DC038093DB038091D8038830BD
:1048E00008F591E0980F9093D80398E0F301DE016A
:1048F000119601900D929A95E1F72CE0829FC001EC
:10490000112488589C4F28E0FE013196DC0101906B
:104910000D922A95E1F72FEF3FEFFC0131872087B9
:10492000D386C28611E0F9851F27ACCF0E941524DB
:10493000A9CF8A3F9C4509F0B1CF112309F4AECF2E
:104940000E9424249FCFF80160817181AA24AA9437
:10495000BA2C20E0422F50E0FA01EE0FFF1FE60FC5
:10496000F71F85919491C816D90609F45A01892B2D
:1049700011F02F5FEFCF312CFFEFAF16BF0609F418
:1049800045C0F80144813090EA01832D411180E057
:10499000F82FF1703F2EF80155808681F301928146
:1049A000992309F48EC0332009F48BC0511015C02F
:1049B000A4010A2C01C0440F0A94EAF7842BF801E1
:1049C00086838091D9039091DA03C29730F462E331
:1049D00070E07093DA036093D903C40102C0880FBA
:1049E000991F2A95E2F70197F801268128171906E1
:1049F00069F48091DB039091DC03009781F00E94C1
:104A00007329C39760F021E0F8012483F985F32925
:104A1000F9872FEFE21AF20A095F1F4F47CF209064
:104A2000760390E080E020917703221215C0801772
:104A3000910761F3A22CB12CF501EE0FFF1FE25993
:104A4000FC4FF182E0826FEFA61AB60A73E0A7224C
:104A5000BB24A0927703DACFA22CB12CF501EE0F84
:104A6000FF1FE259FC4F2081318147E0429FC00186
:104A7000439F900D1124BC01685F7E4F2B01B8014C
:104A8000C2010E94AE230097A9F021E0FC0124831B
:104A90008017910709F4BACF2091760322120AC039
:104AA0004816590639F495012F5F3F4F237033277D
:104AB000209376033FEFA31AB30A4A2D4370242EA6
:104AC000B2CF90E0511020C0F40102C0EE0FFF1FE2
:104AD0002A95E2F79F01215031092817390731F44F
:104AE000442309F44EC0C7010E94F122C4010A2CDC
:104AF00001C0880F0A94EAF7982F9095F8018681F3
:104B000089238683352C82CF9C010A2C02C03595DF
:104B100027950A94E2F7A90141705527BC0161501D
:104B2000710986239723892B41F5452B31F1F80133
:104B300082819381892BE1F01B821C821D821E825F
:104B4000FEEFF983FA830E945B298160582F9D83D1
:104B50008C83F801828193818F83988729813A81A0
:104B60004B816D817E810E949E17F8011582BECF18
:104B700060E0C7010E947D22F8CFF22FF1705F2E16
:104B8000B5CF532CB3CF90917603809177039817CC
:104B900019F00E948823C6CE0E947E221092DC0368
:104BA0001092DB030E94D922BDCECF93DF93EB019D
:104BB00086319C4511F50E945D189A81992399F0E0
:104BC0008A7A91E009F490E09093DD03811109C0A5
:104BD00089E20E9435180E94A11880E0DF91CF91F0
:104BE000089585E3F6CF8091DD03811104C089E249
:104BF0000E943D18F0CF85E3FBCF81E0EFCF0F930C
:104C00001F93CF93DF93C42FD22FFC01828188237F
:104C1000C9F04093E0030E945B299093DF038093E7
:104C2000DE0380E28C0F883040F4C77081E001C061
:104C3000880FCA95EAF70E949310DF91CF911F91D8
:104C40000F9108951091E003141332C08091DE0398
:104C50009091DF030E947329883C910548F5C0E2DA
:104C6000CD0F1D17B9F080E2810F883040F4177026
:104C700081E001C0880F1A95EAF70E949A10C830A7
:104C800048F481E09D2F977001C0880F9A95EAF74C
:104C90000E949310802F0E948A10C83070F6D7703F
:104CA00081E001C0880FDA95EAF70E949A10C5CF1B
:104CB00080E28C0F883008F6C77081E001C0880F51
:104CC000CA95EAF7F2CF0F939C01CB01243F4CE544
:104CD000340759F1A8F4293DFCE53F0701F12A3DCD
:104CE0004CE53407D1F1283D3C4591F406E221EE34
:104CF00041EE68ED7CE50E94FF2580E00F9108956C
:104D0000263FFCE53F07E9F0B0F0273F3C45F9F0CE
:104D1000FC018281882339F11092E003EFCF07E292
:104D200025EE45EE69ED7CE5E6CF06E221EE40EEAC
:104D300064EF7CE5E0CF07E225EE44EE65EF7CE52D
:104D4000DACF06E221EE42EE66EF7CE5D4CF07E251
:104D500025EE46EE67EF7CE5CECF08E221E045EE9A
:104D60006AED7CE5C8CF81E0C9CF1092B9008CE034
:104D70008093B8000895B0E0A0E0E1ECF6E20C9476
:104D8000EE30B82EEB010E945B296C01EE24E39417
:104D9000F12CC431D10560F025E0E22EF12CCF3F9B
:104DA000DC0731F0CE0164E170E00E94B9307B0194
:104DB00084EAA82E94E8992E1092BC00A092BC0020
:104DC0000E945B298C018091BC0087FF0DC08091FF
:104DD000B900887F883001F18091B900887F8031E7
:104DE000D9F00FEF1FEF09C00E945B29801B910BC8
:104DF0008E159F0540F30EEF1FEFCF3FDC07E1F26A
:104E0000C6010E9473298C179D07B0F2C801CDB767
:104E1000DEB7EBE00C940A31B092BB009092BC007C
:104E20000E945B298C018091BC0087FF0AC08091A1
:104E3000B900887F883111F0803499F610E000E0E5
:104E4000E5CF0E945B29801B910B8E159F0558F3BF
:104E5000D2CF0F931F93CF93DF93EB018093BB00CF
:104E600084E88093BC000E945B298C018091BC0087
:104E700087FF11C02091B900287F81E090E028329F
:104E800011F490E080E0919581959109DF91CF91A7
:104E90001F910F910895CF3FDC0741F30E945B29DA
:104EA000801B910B8C179D0708F38EEF9FEFEECFC1
:104EB0000F931F93CF93DF93EC0184E88093BC00A2
:104EC0000E945B298C018091BC0087FF08C0809103
:104ED000BB0090E0DF91CF911F910F910895CF3FDC
:104EE000DC0789F30E945B29801B910B8C179D07BF
:104EF00050F38EEF9FEFEECF84E98093BC000895CE
:104F000090936D0280936C0208959093E6038093D2
:104F1000E5030895E091E503F091E603309729F069
:104F20000190F081E02D0995089580E008950E9498
:104F30008A270895E091E503F091E603309799F010
:104F40002091F901222359F02091120427FF07C074
:104F5000DC012C9111962C93119726E02C93028062
:104F6000F381E02D09950895E091E503F091E603C2
:104F7000309721F00480F581E02D09950895209166
:104F8000E3033091E4032817390771F09093E403A9
:104F90008093E303E091E503F091E603309721F07D
:104FA0000680F781E02D099508952091E103309165
:104FB000E2032817390771F09093E2038093E1032D
:104FC000E091E503F091E603309721F00084F1854C
:104FD000E02D09950895FC0132968091F90188230E
:104FE00021F0809112049EE187FF96E080E09150CD
:104FF00008F4089521912223D1F38F5FF8CF66231F
:1050000001F12091F9012223F1F02091120427FFF0
:105010001AC0462F4695469546954E3190F46770D6
:1050200021E030E002C0220F331F6A95E2F7840FBF
:10503000911DFC01828190E02823392381E0232BFC
:1050400069F480E00895FC013296089621912617B4
:1050500021F0E817F907D1F7F4CF81E008959C011A
:10506000FC0132969FEF80E04191461751F09F3F3F
:1050700019F4411101C0982F8F5F8630A9F79F3F27
:1050800009F40895290F311D97FD3A95F9016283BE
:105090000895FC01329608962191261303C0DF0182
:1050A00011971C92E817F907B9F70895E62FE695CE
:1050B000E695E695EE3168F4E80FF92FF11D67707B
:1050C00021E030E001C0220F6A95EAF78281822B4D
:1050D00082830895E62FE695E695E695EE3170F425
:1050E000E80FF92FF11D677021E030E001C0220FB9
:1050F0006A95EAF7209582812823228308952091DA
:10510000F901222339F02091120427FF03C00E94E5
:10511000562808950E942F2808952091F9012223EE
:1051200039F02091120427FF03C00E946A280895D5
:105130000E9449280895FC0132968091F901882344
:1051400051F08091120487FF06C08EE1DF011D92AD
:105150008A95E9F7089586E0F9CF45E050E00E948E
:10516000493221E0892B09F420E0822F0895089527
:105170000E94B7280895811106C081E08093E7035B
:105180000E94B828089582E0F9CF83E08093E70376
:105190000E94B82808950E94BB28089581E080935A
:1051A000E7030E94B82808950E94CE280895089524
:1051B00008950E94D828089508950E94D728089538
:1051C000CF930E9445080E94E21C0E94DC28C0E0A8
:1051D0008C2F0E94C91C811105C0CF5FCE30C1F752
:1051E000CF91089581E0FCCF85B7806885BF85B7F2
:1051F000806885BF08951F921FB61F9211248F9358
:105200009F93AF93BF938091E803811113C0809166
:10521000370490913804A0913904B0913A04419632
:10522000A11DB11D8093370490933804A0933904D5
:10523000B0933A04BF91AF919F918F911F901FBE81
:105240001F90189580913F04843031F10E94F80D31
:105250001092E80388E190E020E40FB6F894A89556
:10526000809360000FBE2093600083B7817F8460CD
:1052700083BF83B7816083BF7894889583B78E7F1F
:1052800083BF0FB6F894A8958091600088618093E1
:105290006000109260000FBE08950E941D130E94CE
:1052A000FD0D089582E084BD93E095BD9AEF97BD12
:1052B00080936E0008952FB7F894809137049091F1
:1052C0003804A0913904B0913A042FBF08952FB744
:1052D000F89460913704709138048091390490916A
:1052E0003A042FBF08959C014FB7F894809137047A
:1052F00090913804A0913904B0913A044FBF821BB9
:10530000930B089578941F921FB61F9211248F93C8
:105310009F93AF93BF938091370490913804A091ED
:105320003904B0913A040196A11DB11D8093370450
:1053300090933804A0933904B0933A04BF91AF918D
:105340009F918F911F901FBE1F901895F89481E038
:105350008093E00080E28093D800E9ECF0E01082D6
:105360008FE19EE40197F1F700C000001DBA109292
:1053700068001CBC10BE1FBA10927A0010926E001A
:1053800010926F0010927100109272001082ECEB7C
:10539000F0E0108214B817B81AB81DB810BA10820D
:1053A00015B818B81BB81EB811BA0C94003F089570
:1053B00088E19AE00FB6F894A895809360000FBE3C
:1053C00090936000FFCF80910C04089508959C0194
:1053D00082E08093E9009FEF8091E800915085FD85
:1053E00006C085ED8A95F1F700009111F5CF809107
:1053F000E80085FF0CC050E040E065E070E0C901C6
:105400000E94322C8091E8008E778093E800089506
:10541000CF93DF93EC018091F9018823B1F1809162
:10542000120487FF32C060E283E08093E9008FEFCF
:105430009091E800815095FD06C095ED9A95F1F7A1
:1054400000008111F5CF8091E80085FF1BC080919D
:10545000F90170E050E040E0811104C050E040E00C
:1054600068E070E0CE010E94322C8091E8008E77D7
:105470008093E80080E2FE01ACEEB3E001900D9273
:105480008A95E1F7DF91CF91089568E081E0CDCF73
:105490008093E9037093EB036093EA0380913F04E8
:1054A000843001F583E08093E9008FEF9091E8006C
:1054B000815095FD06C095ED9A95F1F70000811198
:1054C000F5CF8091E80085FF0DC050E040E063E03B
:1054D00070E089EE93E00E94322C8091E8008E7794
:1054E0008093E8000895BC0184E00E94482A089552
:1054F000BC0183E00E94482A089580913E048111F6
:1055000009C00E94C22D0E941F2E8091E20084607B
:105510008093E200089510923E0408950E94CE28E0
:10552000089560913B0481E0611101C080E00E9418
:10553000C528089590913F0481E0943009F080E0FF
:1055400060913B040E94CB28089542E061EC81E029
:105550000E943E2D42E061EC82E00E943E2D42E23C
:1055600061EC83E00E943E2D90913F0481E09430F5
:1055700009F080E060913B040E94BB28089580916F
:105580004104833009F463C030F48130E1F18230AA
:1055900009F4A0C008958A3009F48CC08B3009F456
:1055A00071C0893009F052C080914004813209F005
:1055B0004DC08091440490914504009719F00297E2
:1055C00009F044C08091E800877F8093E8008091D3
:1055D000E80082FF37C09091F3008091F2000297BB
:1055E00031F48091F100813011F0863021F4809106
:1055F000F10080930C048091E8008B778093E800A1
:105600000E94722D23C080914004813AF9F4809168
:10561000E800877F8093E8008091440490914504DE
:10562000892B61F460E28CEE93E070E00E94812CA3
:105630008091E8008B778093E800089560E090E027
:1056400080E0F3CF80913F048111C1CF0895809114
:105650004004813AD9F78091440490914504892B04
:10566000A9F78091E800877F8093E8008091E800A7
:1056700080FFFCCF8091F9018093F1008091E800D8
:105680008E77BCCF80914004813201F78091440431
:1056900090914504892BD1F68091E800877F809313
:1056A000E8000E94722D809142048093F9010E94CB
:1056B0001D13089580914004813241F68091E800E5
:1056C000877F8093E8000E94722D8091430480932D
:1056D0000D04089580914004813A09F0B7CF80917C
:1056E000E800877F8093E8008091E80080FFFCCF8E
:1056F00080910D04C1CF84B7877F84BF0FB6F89423
:10570000A89580916000886180936000109260008D
:105710000FBE80E890E00FB6F894809361009093FC
:1057200061000FBE0E94D42808950E94C22D0E94DD
:105730001F2EE2EEF0E080818460808378940E94E6
:105740009E3008958DEE91E00E9485270895809106
:105750003F04853031F480913F04853019F00E9478
:105760004D2908950E94222980913D04882399F3B0
:105770000E94E028882379F30E941C2C0E941D13AC
:10578000EACF08950E94C52B0895292F332723308F
:10579000310521F168F42130310509F443C022308C
:1057A000310509F444C090E080E030E020E026C0FC
:1057B0002132310551F122323105A9F763307105EB
:1057C00090F7FB01EE0FFF1FE15AFD4F2081318161
:1057D000645A7D4FFB01808190E010C09927813091
:1057E000910581F0009729F00297E9F6EAE8FCE0DC
:1057F00002C0E4EEFCE0849190E09F01FA01318365
:1058000020830895E8ECFCE0F6CF6330710558F68C
:10581000660F771FFB01EB59FD4F2081318189E035
:1058200090E0ECCF82E190E02CE33DE0E7CF84E52F
:1058300090E028EE3CE0E2CF80E189BD82E189BDC5
:1058400009B400FEFDCF8091D8008F7D8093D800F1
:105850008091E00082608093E0008091E00081FD13
:10586000FCCF0895AF92BF92CF92DF92FF920F9339
:105870001F93CF93DF936C01EB018A010E94912D5E
:10588000F82E811123C00115110539F0F80180812E
:105890009181C81BD90BC80ED91EB12CA12C209701
:1058A000A9F08091E80085FD22C08091E8008E7704
:1058B0008093E80001151105A1F0F8018081918124
:1058C000A80EB91EB182A08285E0F82E8F2DDF913F
:1058D000CF911F910F91FF90DF90CF90BF90AF902D
:1058E00008950E94912D8823D1F2F82EEFCFF60172
:1058F00081916F018093F1002197FFEFAF1ABF0AEA
:10590000CECFFC01809146049091470486179707FB
:10591000A0F06115710529F49091E8009E779093AD
:10592000E80090E06115710551F4911108C0809173
:10593000E80082FF34C080E00895BC01F2CF80917E
:105940003F048823C1F18530C1F18091E80083FDD7
:1059500030C08091E80082FDEACF8091E80080FFAE
:10596000E1CF8091F3002091F200382F611571058D
:1059700019F02830310558F091E02830310509F050
:1059800090E02091E8002E772093E800CBCF819122
:105990008093F100615071092F5F3F4FE7CF8091F5
:1059A0003F04882341F0853041F08091E80083FF77
:1059B000BECF81E0089582E0089583E00895FC0160
:1059C000809146049091470486179707A0F06115CF
:1059D000710529F48091E8008E778093E80090E0CB
:1059E0006115710551F4911108C08091E80082FFA2
:1059F00035C080E00895BC01F2CF80913F04882338
:105A0000C9F18530C9F18091E80083FD31C08091F2
:105A1000E80082FDEACF8091E80080FFE1CF80912D
:105A2000F3002091F200382F6115710519F028302C
:105A3000310558F091E02830310509F090E080916F
:105A4000E8008E778093E800CBCF84918093F100BB
:105A50003196615071092F5F3F4FE6CF80913F042F
:105A6000882341F0853041F08091E80083FFBDCF6D
:105A700081E0089582E0089583E00895982F97309B
:105A800028F08F708093E90081E008959093E900F9
:105A9000242F762F50E0981731F07091EC00209170
:105AA000ED005091F00021FD02C09F5FE8CF3091E2
:105AB000EB003E7F3093EB003091ED003D7F309363
:105AC000ED003091EB0031603093EB007093EC000F
:105AD0002093ED005093F0002091EE0027FDE5CFDC
