:100000000C9462060C947F060C947F060C947F0679
:100010000C947F060C947F060C947F060C947F064C
:100020000C947F060C947F060C94322D0C94062EB3
:100030000C943D280C947F060C947F060C947F064C
:100040000C947F060C947F060C947F060C947F061C
:100050000C947F060C9494280C947F060C947F06D5
:100060000C947F060C947F060C947F060C947F06FC
:100070000C947F060C947F060C947F060C947F06EC
:100080000C947F060C947F060C947F060C947F06DC
:100090000C947F060C947F060C947F060C947F06CC
:1000A0000C947F060C947F060C947F06000D010DC6
:1000B000020D030D040D050D000C010C020C030CC8
:1000C000040C050C000B010B020B030B040B050BBE
:1000D000000A010A020A030A040A050A00090109C2
:1000E00002090309040905090008010802080308B8
:1000F00004080508000701070207030704070507AE
:1001000000060106020603060406050600050105B1
:1001100002050305040505050004010402040304A7
:10012000040405040003010302030303040305039D
:1001300000020102020203020402050200010101A1
:100140000201030104010501000001000200030097
:10015000040005007072656D696F696E632E636FD0
:100160006D002F70616765732F002F70726F64755B
:100170006374732F00646972207C2072656E616DF8
:10018000652D6974656D202D6E65776E616D6520D6
:100190007B245F2E6E616D65202D7265706C6163CE
:1001A000652022227D0101500101500073747269A3
:1001B0006E6700636F756C6420005468616E6B73CA
:1001C000003D3E207B7D01015001012800636F6EE0
:1001D00073742000796F75277265200077697468E1
:1001E0002000796F752000796F757220006D616B4A
:1001F000652000636F6D20007468656D6520776110
:10020000746368202D6520006769742070756C6CBC
:10021000006769742070757368206F726967696E12
:10022000200067697420636F6D6D6974202D6D20E7
:1002300022220101500067697420616464202E004D
:10024000272B44454C4554455F4D4554414649454F
:100250004C442B0068747470733A2F2F692E797494
:10026000696D672E636F6D2F76692F2F68716465D6
:100270006661756C742E6A7067010150010150014E
:1002800001500101500101500101500101500101D3
:100290005001015001015001015001015001015074
:1002A000010150007374796C653D00636C61737378
:1002B0003D222201015000636C6173734E616D65D4
:1002C0003D2222010150006C6566743A20303B01EA
:1002D000012800746F703A20303B010128006865E6
:1002E000696768743A20313030253B010128007776
:1002F000696474683A20313030253B010128007070
:100300006F736974696F6E3A206162736F6C757494
:10031000653B01012800636F6E74656E743A202797
:10032000273B010128007B252072656E64657220E1
:1003300027696D672720776974682020257D010172
:1003400050010150010150007B252072656E6465EB
:10035000722020257D010150010150010150007CD7
:1003600020617070656E643A2027007B25206173E0
:100370007369676E2020257D010150010150010144
:100380005000616C69676E2D6974656D732D006A2C
:100390007573746966792D636F6E74656E742D0064
:1003A0000102E0650103E0006C6974652D796F75E9
:1003B000747562652E5B766964656F696420706C24
:1003C00061796C6162656C5D00636F6E736F6C6503
:1003D0002E6C6F672829010150006469762E636FC7
:1003E0006E7461696E657201012B0001012B006959
:1003F0006D672E5B6C6F6164696E673D226C617A1C
:1004000079222077696474683D22222068656967D3
:1004100068743D22225D00436861726C65732043FD
:10042000686175007B252020257D01015001015068
:1004300001015000433A5C55736572735C557365F6
:10044000725C736F757263655C576F726B7370610A
:100450006365735C53686F706966795C007B252007
:10046000656E64636F6D6D656E7420257D007B2500
:1004700020636F6D6D656E7420257D0029002B0053
:100480002A00E100504300001E00140004001D4437
:100490004F4501001F001A0015001B005246B15DB8
:1004A000200009001600060051002B6121001300F6
:1004B000170019002841390022000A000700050032
:1004C00000002A62010001000000010000004C64ED
:1004D00001000100000001000000E30023000D0006
:1004E0000B000E000000284224000F001100100035
:1004F0002C002B72250018000800360031004C003B
:1005000026001C000C0037002F00E40027003300F9
:1005100012003800300001002E0034002D00E500EC
:1005200035430000010001004C0001000100000003
:100530003C043C0404111D011D0301002C001A01A0
:1005400015011B01B6000100360109011601061153
:100550004E0101004B010A031701191101000100AE
:100560004E010F0307010513000001000100010007
:100570000000010000000100010001000000010076
:100580000000E0003F004A022F0226020000E200C5
:100590004B004A005000340201004A124E00520043
:1005A00051002E000100E10026024D004F003400F2
:1005B0000100010027024D023002270201004D0216
:1005C000460001003100E5000100000001000100CB
:1005D000390001000100000001000100F1000100EC
:1005E000010001000100F900EF00F2000100FE002F
:1005F0000100ED00EE00F3000100FF000100FA0031
:10060000F000F100010001000100B700B600010098
:1006100000000100010001000000010000000100D5
:10062000010001000000010000000100B500010010
:100630000100010000000100B6004A00500019014D
:1006400001000100F3005200510006010100E10029
:10065000B7004D004F001B01AA000100010001007E
:1006600030021D01A90001000F0801003100010046
:10067000010000000100AB5D390001000100000035
:100680003A00AB5DB25DAC5D010001003B00B35DC3
:10069000B05D0100C05D01003C00B45DAE5DA95DD0
:1006A000C15D01003D001301AC5DAA5D01000100C8
:1006B0003E00BA5DB95DB85D0000010001000100B7
:1006C0000000010000000100010001000000010025
:1006D000000001003F00540055000100000001002F
:1006E0004000240021001E000100010041002500FF
:1006F00022001F00270027004200260023002000C0
:1007000037002E0043005600570001000100010091
:10071000440045002E00010001000000010001001E
:1007200001000100010000000100010001000100C2
:100730000100010001000100B65D1A07010001007F
:1007400001000100B55D0C0501000100010013016D
:10075000B75D06050805010001000A01010001005E
:100760000000010001000100000001000000010084
:100770000100010000000100000001000100010073
:100780000100010000000100010001000100010062
:100790000100010001000100010001000100010051
:1007A0000100010001000100010001000100010041
:1007B0000100010001000100010001000100010031
:1007C00001000000065101000100010001000000CD
:1007D0000100010001000100010001000100010011
:1007E000010001004B0101000100010001000100B6
:1007F0004E01010001000100010001000805010097
:1008000001000100010001000000010001000100E1
:1008100000000100000001000100010000000100D3
:1008200000000100010001000100010000000100C2
:1008300001000100010001000100010001000100B0
:1008400001000100010001000100010001000100A0
:100850000100010001000100010001000100010090
:100860000100010001000100010000000100010081
:100870000100010001000000010001000100010071
:100880000100010001000100010001000100010060
:10089000010001004B010100010001000100010005
:1008A0004E010100010001000100010001000100F2
:1008B0000000010001000100000001000000010033
:1008C0000100010000000100000001000100010022
:1008D0000100010000000100010001000100010011
:1008E0000100010001000100010001000100010000
:1008F00001000100010001000100010001000100F0
:100900000100010001000100005C01000100010084
:1009100001000000010001000100010001000000D1
:10092000010001000100010001000100010024009C
:1009300021001E00370001000100250022001F00D9
:100940002700010001002600230020000100010013
:100950000100010001000100000001000100010090
:100960000000010000000100010001000000010082
:100970000000010001000100010001000000010071
:10098000010001000100010001000100010001005F
:10099000010001000100010001000100010001004F
:1009A000010001000100010001000100010001003F
:1009B000010001000100010001000000130015000A
:1009C00010000000130004000800000013001500D0
:1009D0001200000007000C001500110008000000C4
:1009E00017000E00160000000F00070000000600B0
:1009F000170000001C0015000000150008000A0088
:100A0000000017001500080000000700150008008E
:100A100000001C00180000001800150000001A005B
:100A20003800000010000E0000000600100000005A
:100A300017000B0008001A0000000B000C00180043
:100A400000000B000C00130000000B000C0006005F
:100A500000000B000C000400000016000C000A004F
:100A6000000007001000080000000C001700040040
:100A70000000160017001C00000006000F001B00FD
:100A8000000006000F000800000000000000000049
:100A900000002A2B280000000000000000000000D9
:100AA000000000000029000000002C1E342021223C
:100AB00024342627252E362D3738271E1F202122A5
:100AC000232425263333362E37381F04050607081E
:100AD000090A0B0C0D0E0F1011121314151617180E
:100AE000191A1B1C1D2F3130232D3504050607084C
:100AF000090A0B0C0D0E0F101112131415161718EE
:100B0000191A1B1C1D2F3130354C0000000000004D
:100B100000000000000000000000000000000000D5
:100B200000000000000000000000000000007E0F38
:100B300000D4FFFFFFC700000078160345007200D5
:100B400067006F0044006F007800200045005A00E5
:100B5000000028035A0053004100200054006500A3
:100B6000630068006E006F006C006F006700790022
:100B700020004C00610062007300000004030904BF
:100B800009023B00020100A0FA0904000001030170
:100B9000010009211101000122400007058103081D
:100BA000000A0904010001030000000921110100ED
:100BB0000122B6000705820320000A12010002008C
:100BC0000000089732744901000102000105010983
:100BD00002A10185020901A10005091901290815D1
:100BE00000250195087501810205010930093115BB
:100BF00081257F95027508810609381581257F9525
:100C00000175088106050C0A38021581257F9501BA
:100C100075088106C0C005010980A101850319017D
:100C20002AB700150126B700950175108100C0058F
:100C30000C0901A101850419012AA002150126A0B1
:100C400002950175108100C005010906A101850604
:100C5000050719E029E715002501950875018102AE
:100C60000507190029EF1500250195F0750181028E
:100C7000050819012905950575019102950175036E
:100C80009101C005010906A101050719E029E71531
:100C900000250195087501810295017508810105FE
:100CA00007190029FF150026FF0095067508810029
:100CB000050819012905950575019102950175032E
:100CC0009101C00011241FBECFEFDAE0DEBFCDBF1F
:100CD00012E0A0E0B1E0ECE6F3E602C005900D9270
:100CE000A035B107D9F724E0A0E5B2E001C01D921C
:100CF000A432B207E1F70E948D1C0C9459310C9478
:100D000000008098889A8198899A84988C9A85980E
:100D10008D9A86988E9A87988F9A08952098289809
:100D20002198299822982A9823982B9852985A9873
:100D300053985B983E9846980895CF93C82F873074
:100D400070F58091060190910701892B89F564E681
:100D500070E080E40E94E4259093070180930601EF
:100D6000892BD1F464E670E082E10E945E269093C4
:100D7000070180930601892B79F481E090E001C09E
:100D8000880FCA95EAF764E670E080950E945E26B7
:100D90009093070180930601CF910C94B1268A307D
:100DA000B9F040F4883071F0893079F0209A2898B1
:100DB000CF9108958C3091F070F08D30B9F73E9A54
:100DC0004698F6CF219A2998F3CF229A2A98F0CF05
:100DD000239A2B98EDCF529A5A98EACF539A5B9860
:100DE000E7CFCF93873050F58091060190910701AE
:100DF000C0E0892B71F464E670E081E40E94E42590
:100E00009093070180930601892B31F0C0E00E9486
:100E1000B1268C2FCF91089584E690E00E948D2614
:100E200097FF05C09093070180930601EFCFC82F6D
:100E3000C0951092070110920601E9CFCFB18FB192
:100E4000869586958C73C3708C2BC82FC095E1CF87
:100E50000E942E0890E090930701809306010E9463
:100E60008E060C948106EF92FF920F931F93CF93FF
:100E7000DF938091060190910701892B91F0809179
:100E800052028F5F8093520281110BC00E942E0884
:100E900090E09093070180930601892B11F40E9442
:100EA000C3070CEE13E0C0E0D0E087E0E82EEC0EC4
:100EB0008C2F0E949D068E2D0E949D068C2F0E94D5
:100EC000F106F8019081F12C891719F08083FF2435
:100ED000F3948E2D0E94F106F8019781891799F0FD
:100EE000878381E08F29D82B0E948E06CF5F0F5F0A
:100EF0001F4FC730D1F68D2FDF91CF911F910F91EA
:100F0000FF90EF90089580E0EDCF0E942E0890E0D2
:100F100090930701809306010E948E060E9481062D
:100F2000EAEFF3E0119284E0E830F807D9F708958A
:100F3000259A2D9A0895269A2E9A0895279A2F9ADF
:100F4000089556985E98089525982D9808952698A6
:100F50002E98089527982F9808950E94A1070E941F
:100F6000A4070E94A7070C94AA0790E09093890019
:100F70008093880090938B0080938A0090938D00DB
:100F800080938C0008950E94AD078FEF0E94B507F3
:100F90000E9498072FEF80E792E021508040904018
:100FA000E1F700C000000E949B072FEF80E792E06E
:100FB000215080409040E1F700C000000E949E0751
:100FC0002FEF80E792E0215080409040E1F700C091
:100FD00000000E94A4072FEF80E792E0215080409C
:100FE0009040E1F700C000000E94A7072FEF80E7C4
:100FF00092E0215080409040E1F700C000000E9444
:10100000AA070C94AD0789EA8093800089E0809359
:10101000810024982C983F988AB18F7C8AB96E9869
:10102000479A8BB180638BB9769A0E94541860936B
:10103000E6037093E7038093E8039093E9036770F6
:101040002FEF629FC00111249595879595958795FF
:101050000E94B5070E94C3070C94BE1B80E290E07B
:1010600090930701809306018091530281110EC075
:101070000E94DE2581E0809353022FEF83ED90E301
:10108000215080409040E1F700C0000064E670E02D
:1010900080E40E94E4259093070180930601892B48
:1010A00009F04EC064E670E080E00E945E269093F6
:1010B000070180930601892B09F042C064E670E0C5
:1010C00080E00E945E269093070180930601892BA1
:1010D000B9F564E670E08FE30E945E269093070105
:1010E00080930601892B61F50E94B12664E670E0C9
:1010F00080E40E94E4259093070180930601892BE8
:10110000F9F464E670E08CE00E945E26909307019B
:1011100080930601892BA1F464E670E080E00E94D0
:101120005E269093070180930601892B49F464E6BB
:1011300070E08FE30E945E26909307018093060182
:101140000E94B1268091060108951092E603109244
:10115000E7031092E8031092E90384E08061809332
:10116000E6036091E6037091E7038091E8039091B4
:10117000E9030E9458180C946418CF93DB01875A36
:101180009D4580339105A8F4FC01E55AFE4C0C9472
:10119000E02F1296CC91CC2319F00E94C818C0E021
:1011A0008C2FCF9108951296CC918EE694E0C111C8
:1011B00008C0C1E0F5CF1296CC918DE594E0CC2328
:1011C000C1F30E94B60CECCF1296CC9184E394E06C
:1011D000CC2379F3F6CF1296CC9184E294E0CC2321
:1011E00041F3EFCF1296CC9187E194E0CC2309F341
:1011F000E8CF1296CC91CC23E1F28FEE93E00E94DF
:10120000B60C8BEE93E0DDCF1296CC91CC2389F215
:1012100082EE0E94B80D8CE20E94B70E82EE0E9410
:101220004A0E81E10E94B70EBBCF1296CC918AED97
:1012300093E0CC2309F4BDCFC4CF1296CC9189ECB6
:1012400093E0CC2309F4B5CFBCCF1296CC91CC233C
:1012500009F4AFCF88EA93E00E94B60C80EA93E0ED
:10126000B0CF1296CC91CC23A1F08091560281117F
:1012700006C081E08093560282EE0E94B80D0E9463
:101280006D2890935502809354028BE20E94B80D12
:1012900087CF8BE20E944A0E8CCF1296CC918FE8BA
:1012A00093E0CC2309F485CF8CCF1296CC9182E8C1
:1012B00093E0CC2309F47DCF84CF1296CC918BE6BA
:1012C00093E0CC2309F475CF7CCF1296CC918FE5B7
:1012D00093E0CC2309F46DCF74CF1296CC9188E4BF
:1012E00093E0CC2309F465CF6CCF1296CC9186E2C3
:1012F00093E0CC2309F45DCF64CF1296CC91CC233C
:1013000009F457CF86E193E00E94B60C8FEF92E08C
:101310000E94B60C8FEE92E00E94B60C8EED92E029
:101320000E94B60C83ED92E00E94B60C87EC92E02E
:1013300048CF1296CC9187EB92E0CC2309F439CFB9
:1013400040CF1296CC918BEA92E0CC2309F431CFB6
:1013500038CF1296CC9184EA92E0CC2309F429CFBD
:1013600030CF1296CC9184E592E0CC2309F421CFC2
:1013700028CF1296CC9180E492E0CC2309F419CFC7
:1013800020CF1296CC9186E392E0CC2309F411CFC2
:1013900018CF1296CC9182E292E0CC2309F409CFC7
:1013A00010CF1296CC9181E192E0CC2309F401CFC9
:1013B00008CF1296CC9188E092E0CC2309F4F9CEC4
:1013C00000CF1296CC9188EF91E0CC2309F4F1CEB6
:1013D000F8CE1296CC9183EF91E0CC2309F4E9CEBC
:1013E000F0CE1296CC918DEE91E0CC2309F4E1CEB3
:1013F000E8CE1296CC9187EE91E0CC2309F4D9CEB9
:10140000E0CE1296CC9182EE91E0CC2309F4D1CEBD
:10141000D8CE1296CC918CED91E0CC2309F4C9CEB4
:10142000D0CE1296CC9184ED91E0CC2309F4C1CEBC
:10143000C8CE1296CC918DEC91E0CC2309F4B9CEB4
:10144000C0CE1296CC9181EC91E0CC2309F4B1CEC0
:10145000B8CE1296CC918AEB91E0CC2309F4A9CEB8
:10146000B0CE1296CC9183EB91E0CC2309F4A1CEBF
:10147000A8CE1296CC918CEA91E0CC2309F499CEB7
:10148000A0CE1296CC9185E791E0CC2309F491CEC1
:1014900098CE1296CC918AE691E0CC2309F489CEBD
:1014A00090CE1296CC9182E691E0CC2309F481CEC5
:1014B00088CE1296CC91CC2309F47BCE84E591E0C2
:1014C00080CE80915602882371F0809154029091D1
:1014D00055020E9485288139914028F082EE0E94B1
:1014E0004A0E10925602089581FD0C949E070C94AA
:1014F000AA07CF92DF92EF92FF92CF936B017C010C
:101500000E94C30CC82F0E94A1070E94A7070E9437
:10151000A407C23081F0C33061F0C13011F40E94E1
:101520009807C701B601CF91FF90EF90DF90CF9061
:1015300008950E9498070E949B07F3CF9C013A955B
:1015400021153F4150F5FC01EE27F170BC016627E3
:101550007270AC01442754709C012227387094FFAC
:101560000EC080E1EF2B09F480E0672B09F0806268
:10157000452B09F08064232B89F08068089581E071
:10158000EF2B09F480E0672B09F08260452B09F00E
:101590008460232B19F08860089580E00895CF932C
:1015A000DF93EC010E949E0A9E01205E31092830E3
:1015B000310510F0209739F40E94BF0E8C2FDF9177
:1015C000CF910C94B80D0E94B411F8CFCF93DF9354
:1015D000EC010E944A0ECE010E949E0A9E01205EEE
:1015E00031092830310510F0CD2B21F4DF91CF9156
:1015F0000C94C60EDF91CF910C94BB11CF93DF9367
:10160000EC010E94CF0ACE01DF91CF910C94E60A43
:1016100081E008950C94BD0808950C940C0B1F9361
:10162000CF93DF9300D000D00F92CDB7DEB74983C0
:101630005A836B833091650289819A8131111DC073
:101640006623B9F02223A9F00E948E13182F682F69
:1016500089819A810E94371369817A81812F0F9045
:101660000F900F900F900F90DF91CF911F910C94DE
:10167000A51A0E946513182FEFCF0E948E1369815F
:101680007A81EDCFFC01262F86819781009739F46E
:10169000408151816281738184810C940F0B089584
:1016A000CF93DF93EC0161E00E94420BBE01DF911A
:1016B000CF910C942923CF93DF93EC0160E00E943B
:1016C000420BBE01DF91CF910C940D0B0E949A1B2F
:1016D0000E94160D0E944D1F0C9403080E94E522E3
:1016E0000C94BF1B80E00C94170D089508950E9480
:1016F000D8110E94760B2FEF84E39CE021508040AC
:101700009040E1F700C000000C94B8280F931F939D
:10171000CF93DF938C0161E00E94420BEC01B80192
:101720000E940A0B8823D9F1B801CE010E9405203E
:101730008823A9F1B801CE010E948C25882379F174
:10174000B801CE010E943820882349F1B801CE01AA
:101750000E94F624882319F1F8018281882361F020
:10176000CB35FDE5DF0721F170F4C115ECE5DE07AF
:10177000A1F0CF3DDC45C9F0C801DF91CF911F91A9
:101780000F910C94080BCC358DE5D807A1F0CD3521
:10179000DD4591F70E941718EFCF0E94770B80E08C
:1017A000DF91CF911F910F9108950E94C818F7CF34
:1017B0000E942018E1CF0E942318DECF0C94750BF5
:1017C0000E94BF260E94170D0C94DE0BDF92EF9251
:1017D000FF920F931F93CF93DF93E82FF0E0E6572C
:1017E000F54FD490282F26952695269530E0F901BF
:1017F000E65DF44F0491877010E0082E02C0159545
:1018000007950A94E2F701701127F901E65EF44F9B
:10181000E490F12C082E02C0F594E7940A94E2F7C4
:1018200091E0E922FF24F901E65FF44FC491D0E092
:1018300002C0D595C7958A95E2F7C170DD270115DD
:10184000110519F081EE0E94B80DE114F10419F0B0
:1018500086EE0E94B80D8D2D0E94B70EEF2819F06C
:1018600086EE0E944A0E012B19F081EE0E944A0E6C
:10187000CD2B51F08CE2DF91CF911F910F91FF9012
:10188000EF90DF900C94B70EDF91CF911F910F91E5
:10189000FF90EF90DF900895EF92FF920F931F93C8
:1018A000CF93DF938C01F62E8AE0E82EF801849125
:1018B000882309F454C0813009F04DC0E801219615
:1018C000FE018491813091F42196FE0184910E9461
:1018D000B70E8E010F5F1F4F8F2D815038F3EFE948
:1018E000FFE03197F1F700C00000F7CF823039F404
:1018F000E8012296FE0184910E94B80DEACF833060
:1019000039F4E8012296FE0184910E944A0EE1CF4B
:101910008430F9F6E8012296FE01249190E080E0FF
:10192000FE0131962053330B2A30310548F00197E0
:1019300080F2EFE9FFE03197F1F700C00000F7CF48
:10194000E89EA001E99E500D1124C901840F951F46
:101950002491EF01E5CF0E94E60BE801BACFDF91B9
:10196000CF911F910F91FF90EF90089560E00C943C
:101970004C0C982F9F709A50963018F0805D0C9404
:10198000E60B895AFCCFCF92DF92EF92FF926C0167
:10199000EE24FF2420E0C114D104E104F10419F085
:1019A000C701B60120E1C72ED82EE92EFF24C114AD
:1019B000D104E104F10419F0285FC701B6016B01FD
:1019C0007C0154E0F694E794D794C7945A95D1F7E4
:1019D000C114D104E104F10419F02C5FC701B60170
:1019E0006B017C0142E0F694E794D794C7944A9542
:1019F000D1F7C114D104E104F10419F02E5FC7013D
:101A0000B6019695879577956795672B682B692B17
:101A100009F02F5F822FFF90EF90DF90CF90089515
:101A20000C94740A81E008950C94120D0895CF93DC
:101A3000C82F0E94100D8C2FCF910C94140DCF93B2
:101A4000DF93EC012881898141E050E0022E01C042
:101A5000440F0A94EAF7A82FB0E0A95ABD4F9C9111
:101A60003A813323D9F0309167023323D1F030E04B
:101A700066E0869F200D311D1124220F331FF901CE
:101A8000E355FF4FE491E983F901E455FF4FE491F9
:101A9000E883492B4C93DF91CF910895392F34235C
:101AA000E4CF40954923F6CFCF93DF93CDB7DEB790
:101AB0002D970FB6F894DEBF0FBECDBF49875A876A
:101AC0006B877C878D8761110E9472178C859D853D
:101AD000892B29F089859A8589238F3F81F51D827D
:101AE0001E821F82188685E0FE013996DE0111965E
:101AF00001900D928A95E1F78C819D81892B99F453
:101B000029813A814B815C816D817E818F819885AD
:101B10000E9464162D960FB6F894DEBF0FBECDBF9F
:101B2000DF91CF91089589819A8189238F3F41F375
:101B3000CE0101960E94500B8111E2CFEBCFCE0176
:101B400009960E941F0DCBCFFC01808191810E94DC
:101B5000D01392959F70963051F4863F41F080915A
:101B6000670291E089278093670290936602089547
:101B7000CF93C82F882309F48BC08238C1F40E9408
:101B8000BF2681FD85C089E30E9404170E94951736
:101B90002FEF81EE94E0215080409040E1F700C0AB
:101BA000000089E30E940B17CF910C94951783389E
:101BB000A1F40E94BF2680FD6BC083E50E9404173C
:101BC0000E9495172FEF81EE94E0215080409040C5
:101BD000E1F700C0000083E5E5CF8438A1F40E945E
:101BE000BF2682FD55C087E40E9404170E94951706
:101BF0002FEF81EE94E0215080409040E1F700C04B
:101C0000000087E4CFCF8CEF8C0F813A90F46C2FDB
:101C10008091D5019091D6010E943627882329F022
:101C20008C2F0E940B170E9495178C2F0E9404176F
:101C3000BBCF80E28C0F883048F4C77081E001C0D0
:101C4000880FCA95EAF70E945217AECFEBE5EC0F6A
:101C5000E33040F4F0E0E55EFD4F808190E0CF910D
:101C60000C94F626E8E5EC0FE73150F4F0E0EE0FC7
:101C7000FF1FE351FE4F80819181CF910C940C277F
:101C8000CD3E30F08C2F0E941D1DCF910C94F01D85
:101C9000CF910895882309F452C0823871F40E94CC
:101CA000BF2681FF4CC089E30E9404170E9495174C
:101CB00089E30E940B170C949517833859F40E94FE
:101CC000BF2680FF3CC083E50E9404170E94951741
:101CD00083E5EFCF843859F40E94BF2682FF2FC0DE
:101CE00087E40E9404170E94951787E4E2CF9CEFD7
:101CF000980F913AF0F290E2980F983050F4877074
:101D000091E001C0990F8A95EAF7892F0E94581730
:101D1000D2CF9BE5980F933020F490E080E00C94B4
:101D2000F62698E5980F973120F490E080E00C9427
:101D30000C278D3E20F00E94771D0C94F01D089515
:101D40001F93CF93DF93182FEB010E94B80D2097BC
:101D500031F4812FDF91CF911F910C944A0E8FE9BE
:101D60009FE00197F1F700C000002197F0CF70E0ED
:101D700060E0893311F460E570E00C94A00E8823D4
:101D800021F00E9452170C9495170895882321F092
:101D90000E9458170C94951708954F925F926F9276
:101DA0007F92BF92CF92DF92EF92FF920F931F9399
:101DB000CF93DF936C01C62F172FFC01D2810581D1
:101DC00002950F700E944817E82E8823D1F0DD237A
:101DD00029F1812F807F803441F090E29C0F983070
:101DE000E8F0803611F4C63FC9F08091EB0382FD24
:101DF00015C082E00E94E6170E94481791E0E82E85
:101E0000E926B12EB2949FE0B922FBE0FB15C0F1A8
:101E1000EB2DF0E0E557FE4C0C94E02FE12CF1CFD8
:101E2000012F0F70812F807F11F00295007FDD233D
:101E300099F0002359F080E28C0F883010F0C11126
:101E400007C0802F0E9452170E9495178C2F6EC0DA
:101E5000802F0E946517F8CF8C2F0E944A0E002316
:101E600079F080E28C0F883010F0C11104C0802F0F
:101E70000E94581703C0802F0E946B170E9495176D
:101E80002B2D2850330B2430310520F40E94BF261F
:101E90000E94170DDD2339F0107F103611F4C63F74
:101EA00011F00E943B17EE2009F406C20E941E1793
:101EB00080FD02C2F60112820E9418170E949B1236
:101EC000C6010E9488110E941817DF91CF911F91BF
:101ED0000F91FF90EF90DF90CF90BF907F906F9029
:101EE0005F904F900C94BC12212F2F70F22E812FF7
:101EF000807F803219F0F29480EFF822CC2341F0F9
:101F0000C130E9F1DD2309F444C00023E9F19ECF9B
:101F10008091EB0382FF15C0DD2359F0FF2029F0EB
:101F20008F2D0E9452170E94951780E00E94B80DD5
:101F3000A7CF80E00E944A0EFF2009F4A1CF8F2D89
:101F400097CFDD2381F0011106C00E9478178F29F9
:101F50000E94BF0E95CF0130C1F70E9478178F29DC
:101F60000E947E178DCF011106C00E948B178F2D06
:101F70000E94C60E85CF013009F482CFF6CFDD2353
:101F800029F0023008F07CCF8F2DE2CF011178CFFD
:101F9000EECF002361F3C93349F43FEF87EE93E0BE
:101FA000315080409040E1F700C000008C2F0E942B
:101FB0004A0E66CF812F86958695837069F08130B1
:101FC00009F05ECF8C2F912F9370D11102C090E059
:101FD00080E00E940C2754CF8C2F912F9370D11149
:101FE00002C090E080E00E94F6264ACF8C2FDD23CD
:101FF00029F00E941D1D0E94F01D42CF0E94771DF6
:10200000FACF812F837009F043C0D11139CF2C2F23
:10201000229526952770220F220F6C2F6F70462E67
:10202000512C712C612C022E04C0440C551C661CD2
:10203000771C0A94D2F760E070E0CB01C4FF0FC0B8
:102040006FE070E080E090E004C0660F771F881FAB
:10205000991F2A95D2F76095709580959095212FBC
:10206000269526952370642975298629972922307B
:1020700049F058F4213019F00E944F1201CF0E940C
:102080003D12FECE0E946112FBCE0E943B12F8CEA2
:102090008695DD2311F0812F8170882309F4F0CE1D
:1020A0002C2F229526952770220F220F6C2F6F70F0
:1020B000462E512C712C612C022E04C0440C551C50
:1020C000661C771C0A94D2F760E070E0CB01C4FF75
:1020D0000FC06FE070E080E090E004C0660F771FF3
:1020E000881F991F2A95D2F76095709580959095D5
:1020F000212F2695269523706429752986299729ED
:10210000223049F058F4213019F00E941213B8CE51
:102110000E940013B5CE0E942413B2CE0E94751205
:10212000AFCE012F0F70DD2329F0802F0E949B126C
:102130008C2F0ECF8C2F0E94C60E802F0E94BC12B7
:102140009FCEC23F39F160F4C03FB9F0C13F81F08A
:10215000DD2309F446C0011179CE812F8F711EC095
:10216000C33FF9F0C43FA1F78091EB0382FF23C086
:10217000812F8F71DD2311F311C0DD2339F001119F
:102180007FCE812F8F710E94DF127ACE023008F04D
:1021900077CEF7CF812F8F71D111D0CF0E949B12B4
:1021A0006FCEDD2329F0812F8F710E94861268CEB9
:1021B0000E94811265CEDD2351F0012F0F71802F17
:1021C0000E949B1263E0802F0E94CB1759CE81E0C2
:1021D0000E94E617023008F453CE82E00E94E61710
:1021E0004FCE002359F0C93309F0E0CEEFEFF7EE00
:1021F00023E0E150F0402040E1F7D6CE812F8F71EF
:102200009DCFE0E1EC0FE73090F5F0E0E956FE4CB1
:102210000C94E02FDD2309F433CE8091670291E026
:102220008927809367022CCED093670229CE81E064
:102230008D27F7CFD11124CE81E0F3CFD11120CE5D
:10224000109267021DCEDD2319F00E94221718CECE
:102250000E942E1715CEDD2339F080916602882367
:10226000E1F2109266020CCE0023B9F209CE809101
:1022700066020023A9F0882341F08091670291E073
:10228000892780936702109266028C2FD1114ECE5F
:102290000E944A0E88E0F60111928A95E9F7F0CD86
:1022A000882309F4EDCDD111EBCD8091670291E047
:1022B000892780936702D5CFDF91CF911F910F912E
:1022C000FF90EF90DF90CF90BF907F906F905F90E6
:1022D0004F9008950F931F93CF93DF93EC018E815E
:1022E0009F81009779F00E94A7198C010E943613F4
:1022F0000E943A12B801CE01DF91CF911F910F9148
:102300000C94CD0E688179818A810E94DA13EDCF19
:10231000CF93DF93EC018B819C81892B29F08881FD
:10232000998189238F3F59F4DF91CF910895CE0190
:102330000E946A11CE01DF91CF910C945B0BCE010C
:102340000E94860B8111F3CF0E944817882361F306
:102350008A81882349F38091EB0382FDE5CF82E0F7
:10236000DF91CF910C94E617882321F00E94651726
:102370000C9495170895882321F00E946B170C94F4
:102380009517089590E080E00E94F62690E080E0A6
:102390000E940C270E9472170E9475170E949517C1
:1023A0000E94171F0C94F01D0E9412170C94C2116A
:1023B0000E9462170C94D411E92FE295EF70E2505D
:1023C000EE3070F4F0E0E256FE4C0C94E02F803FCB
:1023D00019F020F4883E20F481E00895843FE1F371
:1023E00080E00895883EC0F3813FD1F7F5CF93FB9D
:1023F000882780F90895FC0186819781009721F054
:102400000E94A7190C94DC11808191810E94D01345
:10241000F9CFCF93DF9300D000D00F92CDB7DEB7C6
:102420000F900F900F900F900F90DF91CF91089524
:10243000CF93DF93CDB7DEB728970FB6F894DEBF02
:102440000FBECDBF28960FB6F894DEBF0FBECDBF2E
:10245000DF91CF91089508950C942B120E942C12B5
:102460006093A3027093A4028093A5029093A602A6
:102470000C94C21108950C942E120F931F93009187
:10248000A3021091A4022091A5023091A602602B14
:10249000712B822B932B1F910F910C942E120F9363
:1024A0001F930091A3021091A4022091A5023091E4
:1024B000A60260237123822393231F910F910C9412
:1024C0002E120F931F930091A3021091A40220914A
:1024D000A5023091A60260277127822793271F91BA
:1024E0000F910C942E120C94790A0E94731260932F
:1024F0009F027093A0028093A1029093A2020C9479
:10250000C21160E070E0CB010C9475120F931F9321
:1025100041E050E060E070E08A019B0104C0000FE0
:10252000111F221F331F8A95D2F7C901B8011F91CD
:102530000F910C9475120F931F9341E050E060E0EF
:1025400070E004C0440F551F661F771F8A95D2F7AD
:1025500080919F029091A002A091A102B091A2024D
:102560008A019B01082B192B2A2B3B2BC901B8018F
:102570001F910F910C9475120F931F9341E050E03F
:1025800060E070E004C0440F551F661F771F8A95F6
:10259000D2F7CB01BA016095709580959095009126
:1025A0009F021091A0022091A1023091A20260230B
:1025B0007123822393231F910F910C9475120F9313
:1025C0001F9341E050E060E070E004C0440F551FED
:1025D000661F771F8A95D2F780919F029091A00283
:1025E000A091A102B091A2028A019B01082719279C
:1025F0002A273B27C901B8011F910F910C9475122E
:102600000F931F9300919F021091A0022091A102AD
:102610003091A202602B712B822B932B1F910F9173
:102620000C9475120F931F9300919F021091A002BA
:102630002091A1023091A20260237123822393236F
:102640001F910F910C9475120F931F9300919F028D
:102650001091A0022091A1023091A202602771275F
:10266000822793271F910F910C9475120895E92FDB
:10267000EE0FE90FEE0F8E0F982F977041E001C01B
:10268000440F9A95EAF786958695869595E0899FF9
:10269000F0011124E859FD4F30E020E070E0519145
:1026A000DF011197CB01022E02C0969587950A94FF
:1026B000E2F7817081958527842385278C932F5F8E
:1026C0003F4F2530310559F70895E92FEE0FE90FF7
:1026D000EE0F8E0F982F977086958695869525E03C
:1026E000829FF0011124E859FD4F50E040E080E066
:1026F000219130E0092E02C0369527950A94E2F721
:1027000021703327042E01C0220F0A94EAF7822B8E
:102710004F5F5F4F4530510559F70895BF92CF92F3
:10272000DF92EF92FF920F931F93CF93DF938C0171
:10273000C0909F02D090A002E090A102F090A2026F
:102740008091A3029091A402A091A502B091A6024B
:10275000C82AD92AEA2AFB2ACFE1D0E0BC2ED70129
:10276000C6010C2E04C0B695A795979587950A9437
:10277000D2F780FD0EC0219788F7B12C8B2DDF9109
:10278000CF911F910F91FF90EF90DF90CF90BF906E
:102790000895B8018C2F0E94B91A019761F3EECF0A
:1027A000CF93DF93EC010E948E13BE01DF91CF9196
:1027B0000C94B91A1F93CF93DF93EB0190916502AC
:1027C000992331F0CB01DF91CF911F910C94D0135D
:1027D000882379F0CB010E948E13182F682FCE0129
:1027E0000E943713BE01812FDF91CF911F910C946E
:1027F000B91ACB010E946513182FF4CFCF93DF9342
:10280000C091A7028091A8028C1303C0DF91CF91E1
:102810000895D0E0FE0183E0EE0FFF1F8A95E1F7F7
:10282000E755FD4F2081318142815381648175815B
:10283000868197810E9418122196C770E3CF20915C
:10284000E9023091EA024091EB025091EC02609172
:10285000ED027091EE028091EF029091F0020C94E3
:1028600018120F931F93CF93DF938091EE02807F16
:10287000C1F48091EB028823A1F08091A70210910E
:10288000A8026091E9027091EA02A091EC02B09175
:10289000ED02062F0723C091D301D091D401181364
:1028A00005C0DF91CF911F910F91089590E010978F
:1028B00011F00F3F19F401968770F1CF9C0143E0AE
:1028C000220F331F4A95E1F7F901E755FD4F41818A
:1028D0004713F1CF40814613EECF42814111EBCF38
:1028E000438154814A1B5B0B4C175D0720F7809195
:1028F000EE028F7080618093EE02F901E255FD4F88
:1029000080818F708061808389EE92E00E948811BF
:10291000DF91CF911F910F910C94FE13AF92BF9254
:10292000CF92DF92EF92FF920F931F93CF93DF939B
:10293000CDB7DEB765970FB6F894DEBF0FBECDBF3B
:102940008C0185E0F801DE01519601900D928A9587
:10295000E1F7F801E28049EEC42E42E0D42E609106
:10296000EC027091ED026115710509F491C190912D
:10297000E9022091EA02892F82238F3F09F488C15E
:1029800040815181A380B480F090EB02F501E61BF9
:10299000F70BBF01E091D301F091D401FF2009F4BE
:1029A0002CC18091EE02382F307F6E177F0708F020
:1029B000D6C0311183C0FE2C25132DC094132BC01B
:1029C0006091EF027091F002F80126813781621761
:1029D000730709F5E1101FC08F7080618093EE02CC
:1029E0000E941F14C6010E9488118091EE02F80116
:1029F00085838F2D65960FB6F894DEBF0FBECDBFD1
:102A0000DF91CF911F910F91FF90EF90DF90CF90CA
:102A1000BF90AF900895AB2829F0842F85238F3F76
:102A200009F04FC180E0F82FF170DF2E80FF3CC02D
:102A30008091A7022091A802821315C0498B5A8B5E
:102A400089899A890E94D013292F22952F702230CC
:102A5000F8F0243020F59F70F9F0F8019581907F0F
:102A6000D9F4D12C1FC090E0FC0133E0EE0FFF1F22
:102A70003A95E1F7E755FD4F3181351306C03081B6
:102A8000341303C032813E110FC001968770D4CF3A
:102A90009F7011F0882329F3805E883010F3C801FD
:102AA0000E948811FD2CA5CFEE2009F4A2CF8091C1
:102AB000EE0281608093EE02F12C9BCF25131DC0A6
:102AC00094131BC04091EF025091F002F80126814F
:102AD00037814217530789F4E1100FC08583C8017D
:102AE0000E94881188E0F801A9EEB2E001900D92F1
:102AF0008A95E1F70E941F147CCFC8010E94FB1148
:102B0000882349F1EE2039F18091EE028032A0F065
:102B10002091E9023091EA023A8729871B86BD8617
:102B2000AC868E878091EF029091F002988B8F8710
:102B3000CE0109960E94881188E0F801A9EEB2E062
:102B400001900D928A95E1F70E9431140E941F14A2
:102B5000FF24F3944ECFC8010E948811F9CF3111A0
:102B600013C07A2DBD8AAC8A6E2D8D890E94091200
:102B700089EE92E00E94881188E0F60111928A9510
:102B8000E9F70E941F1498CF251318C0941316C09C
:102B90004091EF025091F002F801268137814217EF
:102BA000530761F4E1100AC08583C8010E948811AF
:102BB00088E0F60111928A95E9F71BCFC8010E94BF
:102BC000FB11882341F2EE2031F28091EE02803237
:102BD00008F4B2CF2091E9023091EA023A832983C6
:102BE0001B82BD82AC828E838091EF029091F002B5
:102BF00098878F83CE0101969DCF6E177F07D8F5FA
:102C0000FE2CEE2009F4A7CF251327C0941325C06E
:102C10002091EF023091F002F80186819781281708
:102C20003907D9F49091EE0290FD0EC0907F61F0CB
:102C30008091EE028583903F09F451CF982F907FC9
:102C4000905F8F70892B4ACF88E0F801A9EEB2E03F
:102C500001900D928A95E1F7CCCEC8010E94FB113C
:102C600081116ACF8091EE0281608093EE02C801EB
:102C70000E948811BECE7A2DBD8AAC8A6E2D8D89B8
:102C80000E94091288E0F60111928A95E9F732CF85
:102C9000EE2009F460CFC8010E94FB11F82E8823B2
:102CA00009F459CF88E0F801A9EEB2E001900D9245
:102CB0008A95E1F789EE92E00E94A40D0E943114FA
:102CC00019CF81E08E25AFCECF93DF93CDB7DEB79E
:102CD00060970FB6F894DEBF0FBECDBF29873A8745
:102CE0004B875C876D877E878F87988BCE0109968F
:102CF0000E948E148823D1F08C859D85892B39F014
:102D000029853A85822F83238F3F09F074C08091F3
:102D1000A7029091A802891348C060960FB6F89454
:102D2000DEBF0FBECDBFDF91CF91089588E0FE01D9
:102D30003996DE01119601900D928A95E1F78C8506
:102D40009D85892B21F389859A8589238F3FF9F207
:102D5000A091A802B0E0CD0101968770992720913B
:102D6000A7022817190671F40E94D8111092A80220
:102D70001092A70288E0E9EEF2E0DF011D928A9549
:102D8000E9F7C5CF93E0AA0FBB1F9A95E1F7A755C6
:102D9000BD4F98E0FE01319601900D929A95E1F7B2
:102DA0008093A8020E94FE13B2CFB8E08B9FC001AF
:102DB000112487559D4F0E948E14882309F4ADCFAE
:102DC000E091A70228E0E29FF0011124E755FD4FB2
:102DD000208131814281538164817581868197810F
:102DE0000E9418128091A70290E00196877099279F
:102DF0008093A7028CCF4B855C856D857E858F8502
:102E000098890E94181283CF682F8091D5019091E4
:102E1000D6010C94B627682F8091D5019091D601E8
:102E20000C94C1278091D5019091D6010C94CC27A8
:102E30008091F20285958595859508958091F2029D
:102E40008770089582E08093F10281E080936702A9
:102E500008951092F1021092670208958091F10294
:102E6000823021F481E08093F1020895833011F4DF
:102E70000C94291708958091F102823021F483E0A7
:102E80008093F1020895813011F40C94291708956C
:102E90009091F202977081E009F480E008958091AA
:102EA0001603089590911603892B809316030895B5
:102EB000809590911603982390931603089580931C
:102EC0001603089510921603089590911503892B07
:102ED00080931503089580959091150398239093FE
:102EE0001503089510921503089510921403089580
:102EF0008091F302089508950C947B179091EB0351
:102F000092FD08C09091F302981721F08093F3028C
:102F10000C947C1708958091F302882329F0109275
:102F2000F30280E00C947C170895E091D501F091B4
:102F3000D601809116038083E091D501F091D601EE
:102F4000808190911503892B8083E091D501F091C8
:102F5000D601808190911403892B80839091F30294
:102F6000992381F0E091D501F091D6018081892BE0
:102F700080838091D5019091D6010E9422278111F2
:102F80000E948B178091D5019091D6010C94CE268A
:102F900008950C94C8179091EB0392FD10C098E02F
:102FA000899F90011124622B6093F2020E949B1270
:102FB0008091F2028595859585950C94C9170C949E
:102FC0009B121092F20280E00C94C9179091F202C9
:102FD000809589238093F202282F277091F4282F5F
:102FE000082E000C330B9217130659F09091EB0347
:102FF00092FD07C08595859585950E94BC120C941D
:10300000E11708959091EB0392FB222720F92817EE
:1030100069F080FB92F99093EB038091EA03909121
:10302000EB030E94471882E00C94E6170895809104
:10303000EB0382FB882780F991E089270C94021822
:1030400081E00C94021880E00C94021890E080E07B
:103050000E941F3121E0893E9E4F09F020E0822F1F
:10306000089582E090E00C94113183E090E00C949C
:103070001131CF9384E090E00E941131C82F82E299
:1030800090E00E941131982F8C2FCF910895CF930B
:10309000C92F682F84E090E00E9425316C2F82E2D6
:1030A00090E0CF910C9425318FE090E00C94193191
:1030B000AB01BC018FE090E00C943731AB01BC0157
:1030C00083E190E00C94373160E070E0CB010C9428
:1030D0005E1869EE7EEF90E080E00E94433160E090
:1030E00082E090E00E94253160E083E090E00E9461
:1030F00025311092A3021092A4021092A502109200
:10310000A60260E084E090E00E94253160E082E267
:1031100090E00E94253160E085E090E00E9425313A
:1031200060E086E090E00E9425316FEF87E090E05C
:103130000E94253140E050E0BA0188E090E00E9412
:10314000373160E08DE090E00E94253140E050E0B2
:10315000BA0188E190E00E94373160E087E190E0B9
:103160000E94253140E050E0BA018CE190E00E94DD
:10317000373170E060E080E290E00E94433140E04F
:1031800050E0BA0188E190E00E9437310C94A50824
:103190000C946918682F8EE090E00C9425310E9401
:1031A000792860932A0370932B0380932C039093C8
:1031B0002D03609326037093270380932803909335
:1031C0002903089585B7806885BF85B7806885BF66
:1031D0000895089508950C94E91808950C94ED1835
:1031E0000E94E21887E99BE10E94B5260E94EA1836
:1031F0000C94EB1881E008950C94FA180895089542
:103200000E94FE180C94FF180E9464280E94C81B9C
:103210000C94EE18AF92BF92CF92DF92EF92FF9292
:103220000F931F93CF93DF93CDB7DEB72A970FB6D7
:10323000F894DEBF0FBECDBF0E94D91B81110E9442
:10324000CF1888E1A82E83E0B82E10E000E0C02E51
:10325000802F0E94C11BE82EF501F1905F01F81646
:1032600009F44DC080912E0381FD0E94C71B8F2D54
:103270008E25D12CFF24F394982F9F21D9F10E9401
:10328000FC18882399F0DE82CF82EF2081E009F4D8
:1032900080E088870E946D288160782F9A878987CF
:1032A0004E815F8168858A850E94540DF801E85E31
:1032B000FC4F8081F826F0820E940B1E0E94BF26E0
:1032C00090911703891791F10E94BF2680931703ED
:1032D0002A960FB6F894DEBF0FBECDBFDF91CF9117
:1032E0001F910F91FF90EF90DF90CF90BF90AF9024
:1032F0000C94170DD394FF0CF6E0DF12BDCF0F5FD7
:103300001F4F0E30110509F0A2CF8FEF89838A83FA
:103310001B820E946D288160782F9D838C83498158
:103320005A816B818D810E94540DC6CF2A960FB6AB
:10333000F894DEBF0FBECDBFDF91CF911F910F91EB
:10334000FF90EF90DF90CF90BF90AF900895CF9314
:10335000DF930E94BD1AEC01811522E5920708F067
:1033600047C0811531E5930708F0BAC0883E910542
:1033700030F5803E910508F092C0883A910588F4B6
:10338000853A910508F084C08130910509F487C021
:10339000009709F484C0049708F081C0D0E0C0E031
:1033A0007EC08F3B9105D0F7C85AD0E0CC0FDD1F0F
:1033B000C25EDD4F0990D881C02DD46470C08115E4
:1033C000904250F4C11581E0D80708F068C0CD3EA6
:1033D000D10520F3D06563C0C11590E4D907F0F2A0
:1033E000C11520E5D20708F05EC0DF70D06A57C073
:1033F000811536E5930718F5811545E5940708F022
:1034000087C0C11584E5D80708F07DC09C2F96952C
:1034100096959E0123703327C115D34508F465C0E6
:10342000C1E0D0E002C0CC0FDD1F2A95E2F730E208
:10343000939FC0011124C82BD92BDA6830C0C11565
:1034400089E5D80768F4C11598E5D90708F06AC07E
:10345000C11527E5D20708F0A1CFDD27D0661FC030
:10346000C1153AE5D30708F462C0CE019056811524
:10347000904208F093CF8D2F8F710E94541B90E0E3
:10348000982F882788279F719C012C2BE90148C021
:10349000C55AD0E0C45BDD4FC881D0E0D064CE0116
:1034A000DF91CF910895CE01E4E096958795EA9556
:1034B000E1F783702C2F26952695237090E2299FA3
:1034C00090011124382B8C2F8370C1E0D0E002C012
:1034D000CC0FDD1F8A95E2F7C22BD32BDC68DFCF40
:1034E000D82FCC27C16FD06ADACFC1E0D0E002C0BC
:1034F000CC0FDD1F2A95E2F720E2929FC001112434
:10350000C82BD92BEBCFDC2FCC27C46FD06AC7CF09
:103510000E94541BC82FD0E0DC2FCC27CC27DF71B2
:10352000D062BDCFDC2FCC27C06FD06AB8CF8C2F34
:103530008F700E94541B34E0D695C7953A95E1F7F9
:10354000CF709C2FEC01D069AACF972F70E026E0B6
:10355000929F600D711D1124FB0194E5899FE00D80
:10356000F11D1124EE0FFF1FE458FB4F859194913C
:1035700008950E94A51A0C94A71982389105B1F1FB
:10358000B0F48133910509F475C048F4893291058E
:1035900009F469C08A32910509F473C0089585332E
:1035A000910509F459C08933910501F10895833ECD
:1035B0009105A9F138F4803E9105F9F0823E91051C
:1035C00049F10895863E9105A9F1873E9105C9F11B
:1035D000843E910519F52091EB0321FF1FC08091D6
:1035E000EA0384FD14C087EE90E008952091EA0379
:1035F0002370A1F080EE90E008952091EA0320FD71
:1036000047C03091EB0330FF09C024FF44C090E075
:1036100080E004C02091EA0322FDF7CF08952091B5
:10362000EA0322FD3BC03091EB0330FDE3CF24FFE2
:10363000F5CFEDCF2091EA0323FFF0CF24FDE7CFB4
:10364000D2CF2091EA0323FD2CC03091EB0331FF50
:10365000EECF84EE90E008952091EA0325FFDECFBF
:1036600089E290E008952091EA0325FFD7CF85E312
:1036700090E008952091EA0326FFD0CF8AE290E0FF
:1036800008952091EA0326FFC9CF81E390E00895D1
:1036900089E390E0089583EE90E0089582EE90E053
:1036A000089586EE90E008959091EA0392FF06C097
:1036B000282F28712830F9F4877F846093FF06C093
:1036C000282F28712831F1F4877E84612091EB0343
:1036D00020FF06C0382F38713830D9F4877F8160D9
:1036E00021FF06C0282F28712831D1F4877E8161FF
:1036F00094FD877E0895282F24712430F9F68B7F5E
:103700008860DCCF282F2471243101F78B7E8861FB
:10371000DDCF382F3171313019F78E7F8860E0CFDF
:10372000282F2171213121F78E7E8861E1CF80E041
:10373000089508950E942618811102C00E94C81899
:103740000E94311880932E030E9439189093EB0346
:103750008093EA030E94991B0E943518682F70E03D
:1037600090E080E00E943B1260919F027091A00265
:103770008091A1029091A2020C94731208950C946E
:10378000610AE82FF0E0E650FC4F8081089508952B
:103790000E942807ECEEF3E0AAEFB3E011921D922D
:1037A00083E0EA3FF807D1F78EE00E94EC1B0C940F
:1037B000660BCF938CEE93E00E943307C82F282F1F
:1037C0004EE06AEF73E08CEE93E00E94FF1B0E94D4
:1037D0006E0B8C2FCF910895CF93C82F90E00E944D
:1037E000E62F8093320390933303282FFC018E2F12
:1037F000821B8C1710F0CF9108951192F8CFDF92B1
:10380000EF92FF920F931F93CF93DF93082FF92E20
:10381000E62ED72E142FC22FD0912F03DD2309F4CB
:1038200048C00E946D282091300330913103AC01D3
:10383000421B530B9A0190933103809330034F3F07
:10384000510509F0C8F4452B99F010922F031092FE
:10385000340340913203E42FF091330390E030E0E1
:103860008E2F841B811758F030932F0390933403CD
:10387000C1112DC0CD2F1FC02FEF30E0E6CF8081CA
:10388000882321F0281720F010829D2F3196E8CF51
:10389000821B80833D2FFACF29914C91421731F042
:1038A0004081411103C030832C9381E03196119601
:1038B0001AC0211106C0809134038823D1F0C111B0
:1038C00006C00E946D28909331038093300390913D
:1038D000320380912F03AE2DBD2DC02FDF2DE92F98
:1038E000F09133033EE12E2F291B2117A8F280937C
:1038F0002F03DF91CF911F910F91FF90EF90DF90F9
:1039000008950E948C2A0E9404190C94982A0E94FF
:103910009C2A0E940A190C94B62A0E94F8270E9439
:10392000732A0E94F0180E94811C0E94871C0E942A
:103930000019FBCF80913D0380FF12C06091DB0135
:1039400085E0689FB0011124759567957595679519
:1039500060387105A8F561157105A1F1862F0895EC
:1039600081FF09C06091DB0185E0689FB0011124EF
:1039700075956795EDCF6091DB0182FD0AC080915E
:103980003C038823D1F09091DA016091DB01891723
:1039900028F085E0689FB0011124DACF869FB0013E
:1039A000112485E0869F9001879F300D1124692F97
:1039B00070E0C9010E94CC2FCBCF65E070E0CECF84
:1039C0008FE7089581E0089580913D0380FF0CC04A
:1039D0006091D80170E0759567957595679561154B
:1039E000710549F1862F089581FF06C06091D801C5
:1039F00070E075956795F3CF6091D80182FD0BC09B
:103A000090913B039923A1F06091D7018091D80157
:103A1000961738F0682F70E06038710500F38FE773
:103A20000895899FC001112470E00E94CC2FF4CF2B
:103A300061E070E0D7CF81E008958D3E31F40E94BF
:103A40009A1C81958093410308958E3E19F40E943B
:103A50009A1CF8CF8F3E31F40E949A1C8195809376
:103A600040030895803F19F40E949A1CF8CF893FC3
:103A700029F40E94E41C8093420308958A3F21F4B4
:103A80000E94E41C8195F7CF8B3F31F40E94E41C27
:103A900081958093430308958C3F19F40E94E41CA0
:103AA000F8CF9FE0980F983070F4815F990B21E078
:103AB00030E001C0220F8A95EAF780913F03822B04
:103AC00080933F0308958D3F31F480913D038160E1
:103AD00080933D0308958E3F21F480913D038260E1
:103AE000F7CF8F3FB9F780913D038460F1CF4091CC
:103AF00040038D3E59F48091410387FF0DC0109221
:103B0000410341110BC010923C0308C08E3E81F46A
:103B10008091410318169CF3442381F08091420365
:103B200090914303892B09F05AC010923B030895EA
:103B30008F3E49F447FFF0CF10924003809141033C
:103B40008111ECCFE0CF803F19F41416ACF3E4CF31
:103B500090914203893F29F41916F4F6109242031A
:103B6000DBCF8A3F19F497FFD7CFF8CF909143036B
:103B70008B3F29F497FFD0CF10924303CDCF8C3FDA
:103B800019F41916CCF3C8CF9FE0980F983090F431
:103B9000815F990B21E030E0B90102C0660F771F09
:103BA0008A95E2F7CB01809590913F03892380931A
:103BB0003F03B2CF8D3F31F480913D038E7F8093E0
:103BC0003D03AACF8E3F21F480913D038D7FF7CF37
:103BD0008F3F09F0A1CF80913D038B7FF0CF0895F7
:103BE0000E946D289C019091400380914103982B85
:103BF00021F030933A03209339039091420380914E
:103C00004303982B21F030933803209337038EE33E
:103C100093E00C94E826EF92FF920F931F93CF93BB
:103C2000DF9300D000D000D0CDB7DEB786E0EEE362
:103C3000F3E0DE01119601900D928A95E1F7E09094
:103C40004003F0904103009142031091430310920E
:103C500040031092410310924203109243038E2DB1
:103C60008F2991F08091390390913A030E94852821
:103C7000AC0190913C03992309F43FC08091DC0191
:103C80008417150608F447C0802F812B91F080918E
:103C90003703909138030E948528AC0190913B0333
:103CA000992309F477C08091D9018417150608F487
:103CB0007FC08091400390914103892B90914203F2
:103CC000892B90914303892B11F00E94F01D86E00F
:103CD000FE013196AEE3B3E001900D928A95E1F7D3
:103CE00026960FB6F894DEBF0FBECDBFDF91CF9101
:103CF0001F910F91FF90EF900895209136038AE075
:103D0000289F900111242417350708F0BDCF9F5F2D
:103D100090933C0302C09F3FD1F7EE2059F00E94E0
:103D20009A1C9FEF1E140CF491E0899F802D1124A2
:103D300080934003FF2059F00E949A1C9FEF1F14AC
:103D40000CF491E0899F802D1124809341033091E0
:103D50004003332309F498CF20914103222309F42F
:103D600093CF45EB3403C0011124992359F090936C
:103D7000400345EB240390011124332339F03093A1
:103D8000410382CF81E080934003F3CF81E08093B1
:103D900041037ACF209135038AE0289F90011124B6
:103DA0002417350708F085CF9F5F90933B0302C02F
:103DB0009F3FD1F7002359F00E94E41C9FEF10169B
:103DC0000CF491E0899F802D1124809342031123EC
:103DD00059F00E94E41C9FEF11160CF491E0899FAA
:103DE000802D11248093430330914203332309F43F
:103DF00060CF20914303222309F45BCF45EB3403CA
:103E0000C0011124992359F09093420345EB2403F8
:103E100090011124332339F0309343034ACF81E0DA
:103E200080934203F3CF81E08093430342CF86E047
:103E3000EEE3F3E0DF011D928A95E9F710923C036F
:103E400010923B0310923D030895CF93DF93EC0152
:103E500097FF0CC0FB018281882341F00E94731FF1
:103E6000CE019F770E94EA1F0E94C21F81E0DF916E
:103E7000CF91089590910904923069F48A3048F402
:103E800090E009966AE070E00E94CC2F875A0C946B
:103E9000B70E8650FCCF0C94B90C8CE090E00E94D9
:103EA0001131482F50E070E060E0409309045093D6
:103EB0000A0460930B0470930C0410924403843042
:103EC00009F4089584E08093090408956091090439
:103ED0008CE090E00C9425311092440384E08093B0
:103EE00009040C94661F0E94CB26869581708093EE
:103EF0000E040E94CB2681708093080480910904EF
:103F0000813039F480910E04882319F089E30E94EE
:103F1000B70E0E944F1780930D040E946217809184
:103F20000904813089F0882359F0823091F084307F
:103F300021F18FE39CE90197F1F700C0000008959B
:103F400082EE0E94B80DF5CF88E193E00E94FE0A50
:103F5000F0CF80910804811103C083E50E94B70E61
:103F600082EE0E94B80D8FE39CE90197F1F700C043
:103F7000000087E50E94B70EDCCF86EE0E94B70EE8
:103F800088E1F8CF80910904813071F0882341F0F5
:103F90008230A9F08430E1F080910D040C945F1719
:103FA00082EE0E944A0EF8CF8CE20E94B70E8091FA
:103FB0000E04882389F389E30E94B70EEDCF82EEC9
:103FC0000E944A0E809108048111E6CF83E5F4CF68
:103FD00088E2F2CF0F931F93CF93DF938C01CCE055
:103FE000D0E0C8010C2E02C0969587950A94E2F79E
:103FF0008F700E943A1F2497CC3F8FEFD80789F724
:10400000DF91CF911F910F9108950F931F93CF933D
:10401000DF93EC018B01FB018281882361F00E9418
:104020004F178272C13EFCE5DF07E1F060F4C03E4D
:10403000ECE5DE0799F0B801CE01DF91CF911F9139
:104040000F910C94251FC73EFCE5DF07A0F78C2FCE
:10405000825E809309040E94661FEDCF811104C027
:1040600081E003C08111FCCF8FEF0E946C1FE3CF72
:10407000CF93DF93EC01FB018281882309F420C1F7
:10408000C430FDE5DF07C8F5CB3F9CE5D90730F428
:104090009E0122503C452431310598F50E94391883
:1040A0009093EB038093EA03C031FCE5DF0709F44A
:1040B000E0C008F061C0C8309CE5D90709F4CBC066
:1040C00088F5C430FCE5DF0709F4B3C0E8F4C2307A
:1040D0009CE5D90709F4A7C08091EA038260C33048
:1040E000DC4509F4A3C08091EA039091EB030E94A0
:1040F00047180E94D81180E004C0C236EDE5DE0703
:1041000069F2DF91CF9108958091EA038061C63012
:10411000FCE5DF0709F48AC008F48FC08091EA0348
:10412000806284C08091EA038D7FCC309CE5D90702
:1041300009F47CC070F48091EA038C60CA30FCE51D
:10414000DF0709F473C008F48AC08091EA038E7F08
:104150006DC08091EA03877FCE309CE5D90709F4D2
:1041600065C08091EA038B7FCF30DC4508F45EC0E8
:104170008091EA038F7E5AC0CD3FFCE5DF0709F44A
:1041800074C040F5C4319CE5D90709F48AC058F4DD
:10419000C231FCE5DF0709F474C008F46EC08091F9
:1041A000EA03837F43C0CB3F9CE5D90709F449C0AC
:1041B00008F04DC0C531DC4509F095CF8091EA0388
:1041C00082FB992790F921E0922790FB82F990FBDE
:1041D00083F92CC0C1308DE5D80709F458C088F4A4
:1041E0008091EB038360CF3FECE5DE0769F18091BE
:1041F000EB038D7FC115DD4538F18091EB038C7F9A
:1042000023C0C3308DE5D80709F458C008F452C064
:10421000C236DD4509F067CF9091EA03892F8F7E82
:1042200094FF806103C08091EA0381608093EA0378
:104230005ACF8091EA038460F9CF8091EA038860C5
:10424000F5CF8091EB0381608093EB034CCF80919D
:10425000EB038260F9CF8091EA038064E7CF0E948C
:10426000D8118091EA038068E1CF8091EB038E7FC3
:10427000EBCF8091EA038F7DD9CF8091EA038F7BCA
:10428000D5CF0E94D8118091EA038F77CFCF80914C
:10429000EB03982F909591708E7F892B90FB81F97D
:1042A000D3CF0E94D8119091EA03892F97FB87F909
:1042B0008058BCCF81E00E94CA1815CF80E0FBCFA8
:1042C00081E01FCF08950F931F93CF93DF938091C9
:1042D000B003E09145031CE081111AC0DF91CF913A
:1042E0001F910F91089501E00E0F00934503CE2F0B
:1042F000D0E0E19FF0011124E05BFC4F83819481C9
:10430000892B29F08081918189238F3FE9F4E02F67
:104310008091B003E81738F31092B0031092450370
:10432000DDCF18968D919C918F3F9807D1F061E079
:104330000E9462211C9FF0011D9FF00D1124E05B83
:10434000FC4F14821382E3CF1C9FD0011D9FB00D40
:104350001124A05BBC4F16968D919C911797892BC9
:1043600001F320813181428153816481758186818D
:1043700097810E946416DECF1092B2031092B103AF
:104380002091DE013091DF01E8E0F1E090E080E093
:104390002817390709F408954581411102C0148294
:1043A000168201963796F4CFDC0160914E0380911E
:1043B0004F03962F891301C00895292F30E0F9018A
:1043C000EE0FFF1FEA5BFC4F408151814A175B07EC
:1043D000A1F487E08A9FA0018B9F500D1124485FB4
:1043E0005E4F81E0FA0184839613E6CF2F5F3F4F43
:1043F0002370332720934E0308952F5F3F4F922F52
:104400009370D8CF7F928F929F92AF92BF92CF92AC
:10441000DF92EF92FF920F931F93CF93DF93EB0105
:104420002C81211165C07090B003A0E5B3E030E0AD
:1044300020E0812C61E070E0271508F042C01A9658
:10444000CD90DC901B97A880B9804FEF5FEF912C47
:10445000E92CF12CF701EE0FFF1FEA0DFB1D059172
:104460001491C016D10609F4A701012B11F0939401
:10447000EFCF4F3F5407C1F1FB0102C0EE0FFF1F0A
:104480004A95E2F78E2AAB0102C0440F551F9A9459
:10449000E2F7415051098416150611F54A815B81F6
:1044A0006CE0629FF001639FF00D1124E05BFC4F14
:1044B000578346832EEF208321839187808721E0D5
:1044C0002D83DF91CF911F910F91FF90EF90DF909F
:1044D000CF90BF90AF909F908F907F900C94D421FD
:1044E00014961C921E9213972F5F3F4F1C96A4CFD9
:1044F000DF91CF911F910F91FF90EF90DF90CF90C0
:10450000BF90AF909F908F907F9008951F93CF930F
:10451000DF93C0914E0317E080914F038C1307C0C7
:104520000E946321DF91CF911F910C94BC21D0E0B8
:10453000FE01EE0FFF1FEA5BFC4F80819181189F07
:10454000B001199F700D1124685F7E4F0E940222F6
:104550002196C370E1CFEF92FF921F93CF93DF9329
:10456000FC012081318110E040E050E0E52FF0E0D7
:10457000EE0FFF1FE20FF31FA591B4911097B9F052
:10458000FB01C081D18140E005C0AE15BF0509F433
:1045900011E04F5FE42FF0E0EE0FFF1FEC0FFD1F67
:1045A000E590F490E114F10481F75F5FDFCF112310
:1045B00049F0451708F4CB01DF91CF911F91FF908F
:1045C000EF90089590E080E0F7CF8091DD0188239F
:1045D00041F18091B3039091B403009711F10E94CF
:1045E00085282091B1033091B20328173907C8F408
:1045F00090914E0380914F03981759F00E948622A4
:104600001092B2031092B1031092B4031092B3034C
:1046100008950E9463211092B4031092B3030C9486
:10462000BC2108951092B4031092B3031092DD01DF
:1046300080914F0380934E030E94BC210C94632110
:104640008091DD0181110C94122381E08093DD01C2
:1046500008952F923F924F925F926F927F928F9226
:104660009F92AF92BF92CF92DF92EF92FF920F9301
:104670001F93CF93DF93CDB7DEB729970FB6F8948A
:10468000DEBF0FBECDBF6C013B01FB011281883F35
:10469000FCE59F07F9F4112321F181E08093DD010E
:1046A000812F29960FB6F894DEBF0FBECDBFDF91E4
:1046B000CF911F910F91FF90EF90DF90CF90BF901F
:1046C000AF909F908F907F906F905F904F903F90B2
:1046D0002F900895893F2CE5920709F04DC01111E4
:1046E00048C008E011E0F12CE12C1986882483945D
:1046F000912C8091DE019091DF01E816F90608F413
:1047000045C0F3018281882309F45EC1F985FF2346
:1047100009F45AC10E946D289093B4038093B303A7
:104720008091B003883008F591E0980F9093B00322
:1047300098E0F301DE01119601900D929A95E1F750
:104740002CE0829FC0011124805B9C4F28E0FE0179
:104750003196DC0101900D922A95E1F72FEF3FEFA2
:10476000FC0131872087D386C28611E0F9851F2797
:1047700097CF0E94122394CF8A3F9C4509F0B1CF76
:10478000112309F4AECF0E9420238ACFF801608163
:104790007181AA24AA94BA2C20E0422F50E0FA0199
:1047A000EE0FFF1FE60FF71F85919491C816D906EB
:1047B00009F45A01892B11F02F5FEFCF312CFFEF55
:1047C000AF16BF0609F444C0F80144813090DD0102
:1047D000832D411180E0F82FF1703F2EF8015580B4
:1047E0008681F3019281992309F48DC0332009F465
:1047F0008AC0511014C0A40101C0440FAA94EAF762
:10480000842BF80186838091B1039091B203C29703
:1048100030F462E370E07093B2036093B103C401BB
:1048200002C0880F991F2A95E2F70197F8012681A7
:104830002817190669F48091B3039091B403009787
:1048400081F00E948528C39760F021E0F80124835D
:10485000F985F329F9872FEFE21AF20A095F1F4F52
:1048600048CF20904E0390E080E020914F03221229
:1048700015C08017910761F3A22CB12CF501EE0F42
:10488000FF1FEA5BFC4FF182E0826FEFA61AB60AC7
:1048900073E0A722BB24A0924F03DACFA22CB12C45
:1048A000F501EE0FFF1FEA5BFC4F2081318147E0ED
:1048B000429FC001439F900D1124BC01685F7E4F51
:1048C0002B01B801C2010E94AB220097A9F021E0A0
:1048D000FC0124838017910709F4BACF20914E037D
:1048E00022120AC04816590639F495012F5F3F4F2E
:1048F0002370332720934E033FEFA31AB30A4A2DA8
:104900004370242EB2CF90E051101FC0F40102C0BA
:10491000EE0FFF1F2A95E2F79F012150310928175A
:10492000390731F4442309F44DC0C7010E94D42152
:10493000C40101C0880FAA94EAF7982F9095F80156
:10494000868189238683352C83CF9C010A2C02C063
:10495000359527950A94E2F7A90141705527BC01C6
:104960006150710986239723892B41F5452B31F13D
:10497000F80182819381892BE1F01B821C821D82C8
:104980001E82FEEFF983FA830E946D288160582F02
:104990009D838C83F801828193818F8398872981FD
:1049A0003A814B816D817E810E946416F8011582E7
:1049B000BFCF60E0C7010E946221F8CFF22FF170F3
:1049C0005F2EB6CF532CB4CF90914E0380914F03FE
:1049D000981719F00E948622C8CE0E946321109277
:1049E000B4031092B3030E94BC21BFCECF93DF93D8
:1049F000EB0186319C4511F50E944F179A8199234E
:104A000099F08A7A91E009F490E09093B5038111CE
:104A100009C089E20E9404170E94951780E0DF9187
:104A2000CF91089585E3F6CF8091B503811104C03D
:104A300089E20E940B17F0CF85E3FBCF81E0EFCF37
:104A40000F931F93CF93DF93C42FD22FFC0182814A
:104A50008823C9F04093B8030E946D289093B70350
:104A60008093B60380E28C0F883008F050C0C77086
:104A700081E001C0880FCA95EAF7DF91CF911F91BD
:104A80000F910C94BF0E1091B803141335C0809190
:104A9000B6039091B7030E948528883C910560F584
:104AA000C0E2CD0F1D17B9F080E2810F883040F4CD
:104AB000177081E001C0880F1A95EAF70E94C60EB0
:104AC000C83048F481E09D2F977001C0880F9A95F7
:104AD000EAF70E94BF0E802F0E94B70EC830B8F4CC
:104AE000D77081E001C0880FDA95EAF7DF91CF91A6
:104AF0001F910F910C94C60E80E28C0F883038F411
:104B0000C77081E001C0880FCA95EAF7EFCFDF9147
:104B1000CF911F910F9108950F939C01CB01243FDA
:104B20004CE5340759F1A8F4293DFCE53F0701F1B4
:104B30002A3D4CE53407D1F1283D3C4591F406E28D
:104B400021EE41EE68ED7CE50E94202580E00F918A
:104B50000895263FFCE53F07E9F0B0F0273F3C45CC
:104B6000F9F0FC018281882339F11092B803EFCF6C
:104B700007E225EE45EE69ED7CE5E6CF06E221EEA3
:104B800040EE64EF7CE5E0CF07E225EE44EE65EF12
:104B90007CE5DACF06E221EE42EE66EF7CE5D4CF8B
:104BA00007E225EE46EE67EF7CE5CECF08E221E096
:104BB00045EE6AED7CE5C8CF81E0C9CF1092B9001F
:104BC0008CE08093B80008959F92AF92BF92CF92ED
:104BD000DF92EF92FF920F931F93CF93DF93B82E44
:104BE000EB010E946D286C01EE24E394F12CC4319A
:104BF000D10560F025E0E22EF12CCF3FDC0731F04B
:104C0000CE0164E170E00E94B82F7B0184EAA82EF7
:104C100094E8992E1092BC00A092BC000E946D28CE
:104C20008C018091BC0087FF0DC08091B900887F06
:104C3000883039F18091B900887F803111F10FEF10
:104C40001FEF09C00E946D28801B910B8E159F05D8
:104C500040F30EEF1FEFCF3FDC07E1F2C6010E94E9
:104C600085288C179D07B0F2C801DF91CF911F9165
:104C70000F91FF90EF90DF90CF90BF90AF909F90FB
:104C80000895B092BB009092BC000E946D288C01E8
:104C90008091BC0087FF0AC08091B900887F88316D
:104CA00011F0803461F610E000E0DECF0E946D2844
:104CB000801B910B8E159F0558F3CBCF0F931F933D
:104CC000CF93DF93EB018093BB0084E88093BC001B
:104CD0000E946D288C018091BC0087FF11C020913B
:104CE000B900287F81E090E0283211F490E080E064
:104CF000919581959109DF91CF911F910F91089521
:104D0000CF3FDC0741F30E946D28801B910B8C176D
:104D10009D0708F38EEF9FEFEECF0F931F93CF9376
:104D2000DF93EC0184E88093BC000E946D288C0125
:104D30008091BC0087FF08C08091BB0090E0DF91AC
:104D4000CF911F910F910895CF3FDC0789F30E9407
:104D50006D28801B910B8C179D0750F38EEF9FEFF2
:104D6000EECF84E98093BC00089590935102809324
:104D7000500208959093BE038093BD030895E0917F
:104D8000BD03F091BE03309721F00190F081E02D3A
:104D9000099480E008950E94BF260895E091BD0324
:104DA000F091BE03309799F02091EC01222359F045
:104DB0002091EA0327FF07C0DC012C9111962C9368
:104DC000119726E02C930280F381E02D0994089539
:104DD000E091BD03F091BE03309739F022E0DC0191
:104DE0002C930480F581E02D099408952091BB0354
:104DF0003091BC032817390771F09093BC0380935E
:104E0000BB03E091BD03F091BE03309721F0068013
:104E1000F781E02D099408952091B9033091BA03E8
:104E20002817390771F09093BA038093B903E09182
:104E3000BD03F091BE03309721F00084F185E02D91
:104E400009940895FC0132968091EC01882321F0A9
:104E50008091EA039EE187FF96E080E0915008F49C
:104E6000089521912223D1F38F5FF8CF662301F1BA
:104E70002091EC012223F1F02091EA0327FF1AC0D0
:104E8000462F4695469546954E3190F4677021E041
:104E900030E002C0220F331F6A95E2F7840F911DA4
:104EA000FC01828190E02823392381E0232B69F4DF
:104EB00080E00895FC01329608962191261721F092
:104EC000E817F907D1F7F4CF81E008959C01FC01C0
:104ED00032969FEF80E04191461751F09F3F19F4C1
:104EE000411101C0982F8F5F8630A9F79F3F09F4C9
:104EF0000895290F311D97FD3A95F90162830895B0
:104F0000FC01329608962191261303C0DF01119708
:104F10001C92E817F907B9F70895E62FE695E6958C
:104F2000E695EE3168F4E80FF92FF11D677021E086
:104F300030E001C0220F6A95EAF78281822B8283DA
:104F40000895E62FE695E695E695EE3170F4E80FC4
:104F5000F92FF11D677021E030E001C0220F6A9542
:104F6000EAF7209582812823228308952091EC017D
:104F7000222329F02091EA0327FD0C948D270C941D
:104F800066272091EC01222329F02091EA0327FDD6
:104F90000C94A1270C948027FC0132968091EC019F
:104FA000882351F08091EA0387FF06C08EE1DF017C
:104FB0001D928A95E9F7089586E0F9CF08950C943B
:104FC000DE27811105C081E08093BF030C94DF27A9
:104FD00082E0FACF83E08093BF030C94DF270C9428
:104FE000E12781E08093BF030C94DF270C94F12725
:104FF000089580911704843031F10E94720B109251
:10500000C00388E190E020E40FB6F894A89580935F
:1050100060000FBE2093600083B7817F846083BFF0
:1050200083B7816083BF7894889583B78E7F83BF71
:105030000FB6F894A8958091600088618093600015
:10504000109260000FBE08950895CF930E948507C7
:105050000E94D91B0E942428C0E08C2F0E94C11BF3
:10506000811105C0CF5FCE30C1F7CF91089581E0A7
:10507000FCCF0E94D8110C94E00B1F921FB61F9218
:1050800011248F939F93AF93BF938091C00381119D
:1050900013C080910F0490911004A0911104B0915D
:1050A00012044196A11DB11D80930F04909310042A
:1050B000A0931104B0931204BF91AF919F918F916F
:1050C0001F901FBE1F90189582E084BD93E095BD90
:1050D0009AEF97BD80936E0008952FB7F894809152
:1050E0000F0490911004A0911104B09112042FBFED
:1050F00008952FB7F89460910F0470911004809177
:105100001104909112042FBF08959C014FB7F89499
:1051100080910F0490911004A0911104B091120499
:105120004FBF821B930B089578941F921FB61F9256
:1051300011248F939F93AF93BF9380910F0490910D
:105140001004A0911104B09112040196A11DB11D8B
:1051500080930F0490931004A0931104B093120451
:10516000BF91AF919F918F911F901FBE1F90189577
:10517000F89481E08093E00080E28093D800E9EC2D
:10518000F0E010828FE19EE40197F1F700C000008B
:105190001DBA109268001CBC10BE1FBA10927A0093
:1051A00010926E0010926F001092710010927200B7
:1051B0001082ECEBF0E0108214B817B81AB81DB8E2
:1051C00010BA108215B818B81BB81EB811BA0C94D2
:1051D000003F08958091E403089508959C0182E0C2
:1051E0008093E9009FEF8091E800915085FD06C013
:1051F00085ED8A95F1F700009111F5CF8091E800D7
:1052000085FF0CC050E040E066E070E0C9010E94FC
:10521000272B8091E8008E778093E8000895CF9344
:10522000DF93EC018091EC018823B1F18091EA03D6
:1052300087FF32C060E282E08093E9008FEF9091B7
:10524000E800815095FD06C095ED9A95F1F70000B4
:105250008111F5CF8091E80085FF1BC08091EC01A2
:1052600070E050E040E0811104C050E040E068E0B0
:1052700070E0CE010E94272B8091E8008E7780930A
:10528000E80080E2FE01A4ECB3E001900D928A9563
:10529000E1F7DF91CF91089568E081E0CDCF809371
:1052A000C1037093C3036093C203809117048430D9
:1052B00001F582E08093E9008FEF9091E800815042
:1052C00095FD06C095ED9A95F1F700008111F5CF97
:1052D0008091E80085FF0DC050E040E063E070E0A1
:1052E00081EC93E00E94272B8091E8008E778093D9
:1052F000E8000895BC0184E00C944F29BC0183E0D0
:105300000C944F2980911604811109C00E94B72C7A
:105310000E94142D8091E20084608093E200089541
:105320001092160408950C94F1276091130481E003
:10533000611101C080E00C94EA279091170481E08C
:10534000943009F080E0609113040C94EF2742E060
:1053500061EC81E00E94332C42E261EC82E00E9429
:10536000332C9091170481E0943009F080E0609133
:1053700013040C94E12780911904833009F460C070
:1053800030F48130C9F1823009F49CC008958A302C
:1053900009F488C08B3009F46EC0893009F04FC021
:1053A00080911804813209F04AC080911C049091C8
:1053B0001D04029708F043C08091E800877F809326
:1053C000E8008091E80082FF36C09091F300809160
:1053D000F200029731F48091F100813011F08630B3
:1053E00021F48091F1008093E4038091E8008B77B1
:1053F0008093E8000C94672C80911804813AF9F4AA
:105400008091E800877F8093E80080911C04909150
:105410001D04892B61F460E284EC93E070E00E944B
:10542000762B8091E8008B778093E800089560E008
:1054300090E080E0F3CF809117048111C2CF0895EE
:1054400080911804813AD9F780911C0490911D0431
:10545000892BA9F78091E800877F8093E8008091ED
:10546000E80080FFFCCF8091EC018093F1008091F7
:10547000E8008E77BDCF80911804813201F78091CA
:105480001C0490911D04892BD1F68091E800877F40
:105490008093E8000E94672C80911A048093EC01AD
:1054A0000C94D81180911804813249F68091E8005B
:1054B000877F8093E8000E94672C80911B04809373
:1054C000E503089580911804813A09F0B8CF8091DE
:1054D000E800877F8093E8008091E80080FFFCCFA0
:1054E0008091E503C2CF84B7877F84BF0FB6F8945D
:1054F000A8958091600088618093600010926000A0
:105500000FBE80E890E00FB6F8948093610090930E
:1055100061000FBE0C94F6270E94B72C0E94142D38
:10552000E2EEF0E080818460808378940C949D2F7B
:1055300080EE91E00C94BA26809117048530A9F48E
:1055400080911704853011F00C9439280E94F927B6
:10555000809115048823A1F30E942528882381F3D4
:105560000E94112B0E94D811EBCF089508950C943E
:10557000B92A292F33272330310519F168F4213056
:10558000310509F444C02230310509F445C090E0EA
:1055900080E030E020E025C02132310549F122329F
:1055A0003105A9F780E490E023E83CE0611571053E
:1055B000C1F086EB90E02DEC3BE06130710589F0A5
:1055C000E6CF99278130910581F0009729F0029765
:1055D000F1F6EAE3FBE002C0ECE7FBE0849190E047
:1055E0009F01FA01318320830895E2E5FBE0F6CFC5
:1055F00089E090E022E93BE06115710591F389E0D3
:1056000090E02BEA3BE06130710559F3C0CF82E1B5
:1056100090E02BEB3BE0E5CF8BE390E020E83BE034
:10562000E0CF80E189BD82E189BD09B400FEFDCFF4
:105630008091D8008F7D8093D8008091E0008260B7
:105640008093E0008091E00081FDFCCF0895AF924F
:10565000BF92CF92DF92FF920F931F93CF93DF936E
:105660006C01EB018A010E94862CF82E811123C067
:105670000115110539F0F80180819181C81BD90B02
:10568000C80ED91EB12CA12C2097A9F08091E8005A
:1056900085FD22C08091E8008E778093E800011597
:1056A0001105A1F0F80180819181A80EB91EB18287
:1056B000A08285E0F82E8F2DDF91CF911F910F9161
:1056C000FF90DF90CF90BF90AF9008950E94862CFE
:1056D0008823D1F2F82EEFCFF60181916F018093EC
:1056E000F1002197FFEFAF1ABF0ACECFFC018091E6
:1056F0001E0490911F0486179707A0F0611571058D
:1057000029F49091E8009E779093E80090E061156D
:10571000710551F4911108C08091E80082FF34C0F6
:1057200080E00895BC01F2CF809117048823C1F175
:105730008530C1F18091E80083FD30C08091E800A0
:1057400082FDEACF8091E80080FFE1CF8091F300F5
:105750002091F200382F6115710519F028303105BC
:1057600058F091E02830310509F090E02091E800F0
:105770002E772093E800CBCF81918093F100615088
:1057800071092F5F3F4FE7CF80911704882341F0C5
:10579000853041F08091E80083FFBECF81E008951D
:1057A00082E0089583E00895FC0180911E049091A9
:1057B0001F0486179707A0F06115710529F48091E1
:1057C000E8008E778093E80090E06115710551F450
:1057D000911108C08091E80082FF35C080E00895F3
:1057E000BC01F2CF809117048823C9F18530C9F13B
:1057F0008091E80083FD31C08091E80082FDEACF0E
:105800008091E80080FFE1CF8091F3002091F200C9
:10581000382F6115710519F02830310558F091E0E5
:105820002830310509F090E08091E8008E77809370
:10583000E800CBCF84918093F100319661507109DB
:105840002F5F3F4FE6CF80911704882341F08530CA
:1058500041F08091E80083FFBDCF81E0089582E0B0
:10586000089583E00895982F973028F08F708093E3
:10587000E90081E008959093E900242F762F50E00D
:10588000981731F07091EC002091ED005091F000EC
:1058900021FD02C09F5FE8CF3091EB003E7F309347
:1058A000EB003091ED003D7F3093ED003091EB0047
:1058B00031603093EB007093EC002093ED00509337
:1058C000F0002091EE0027FDE5CF80E00895809163
:1058D000180487FF13C08091E80082FF06C0809102
:1058E000E8008B778093E80004C080911704811151
:1058F000F2CF0895809117048823D9F38091E800AE
:1059000080FFF8CF8091E8008E77ECCF2091E40003
:105910003091E50095E6A9012091EC00822F81707D
:1059200020FF06C08091E80080FF06C080E0089557
:105930002091E80022FD1AC080911704882389F085
:10594000853089F08091EB0085FD0FC02091E40047
:105950003091E50042175307F9F29150E1F684E0E7
:10596000089582E0089583E0089581E008950E94FB
:10597000252D0E942D2DE0EEF0E080818160808356
:10598000E8EDF0E080818F77808319BCA7EDB0E06F
:105990008C918E7F8C9380818F7E808310921604F1
:1059A00008950F931F93CF93DF930E94252D0E949C
:1059B0002D2DC8EDD0E088818F778883888180681D
:1059C000888388818F7D888319BC10921704109278
:1059D0001304109215041092140400EE10E0F80164
:1059E00080818B7F808388818160888342E060E052
:1059F00080E00E94332CE1EEF0E080818E7F808396
:105A0000E2EEF0E080818160808380818860808325
:105A1000F80180818E7F8083888180618883DF9117
:105A2000CF911F910F910895E8EDF0E080818F7E76
:105A30008083E7EDF0E080818160808384E082BF35
:105A400081E0809316040C94D12CE8EDF0E0808185
:105A50008E7F80831092E20008951092DA001092F7
:105A6000E10008951F920F920FB60F9211242F9309
:105A70003F934F935F936F937F938F939F93AF93D6
:105A8000BF93EF93FF938091E10082FF0BC0809161
:105A9000E20082FF07C08091E1008B7F8093E100EC
:105AA0000E949C2F8091DA0080FF19C08091D8005D
:105AB00080FF15C08091DA008E7F8093DA0080919C
:105AC000D90080FF96C080E189BD82E189BD09B41B
:105AD00000FEFDCF81E0809317040E94822980910F
