:100000000C9425060C9442060C9442060C9442066D
:100010000C9442060C9442060C9442060C94420640
:100020000C9442060C9442060C94B82C0C948C2D23
:100030000C94C3270C9442060C9442060C9442067E
:100040000C9442060C9442060C9442060C94420610
:100050000C9442060C941A280C9442060C94420606
:100060000C9442060C9442060C9442060C944206F0
:100070000C9442060C9442060C9442060C944206E0
:100080000C9442060C9442060C9442060C944206D0
:100090000C9442060C9442060C9442060C944206C0
:1000A0000C9442060C9442060C944206000D010D7D
:1000B000020D030D040D050D000C010C020C030CC8
:1000C000040C050C000B010B020B030B040B050BBE
:1000D000000A010A020A030A040A050A00090109C2
:1000E00002090309040905090008010802080308B8
:1000F00004080508000701070207030704070507AE
:1001000000060106020603060406050600050105B1
:1001100002050305040505050004010402040304A7
:10012000040405040003010302030303040305039D
:1001300000020102020203020402050200010101A1
:100140000201030104010501000001000200030097
:10015000040005007468616E6B73003D3E207B7D7A
:1001600001015001012800636F6E737400796F758F
:1001700027726500267265673B00267472616465AC
:100180003B00266465673B007769746800796F758A
:1001900000796F7572006D616B6500636F6D00743F
:1001A00068656D65207761746368202D6520006740
:1001B00069742070756C6C00676974207075736861
:1001C000206F726967696E200067697420636F6DC4
:1001D0006D6974202D6D2022220101500067697421
:1001E00020616464202E00272B44454C4554455F14
:1001F0004D4554414649454C442B00687474707316
:100200003A2F2F692E7974696D672E636F6D2F7683
:10021000692F2F687164656661756C742E6A7067EA
:100220000101500101500101500101500101500133
:100230000150010150010150010150010150010123
:1002400050010150010150010150007374796C6537
:100250003D222201015000636C6173733D22220133
:10026000015000636C6173734E616D653D22220124
:100270000150006C6566743A20303B01012800741F
:100280006F703A20303B0101280068656967687427
:100290003A20313030253B010128007769647468C9
:1002A0003A20313030253B01012800706F736974AA
:1002B000696F6E3A206162736F6C7574653B010102
:1002C0002800636F6E74656E743A2027273B010126
:1002D00028007B252072656E6465722027696D6732
:1002E0002720776974682020257D01015001015085
:1002F000010150007B252072656E64657220202507
:100300007D010150010150010150007C206170709D
:10031000656E643A2027007B252061737369676EE0
:100320002020257D01015001015001015000616C28
:1003300069676E2D6974656D732D006A75737469D4
:1003400066792D636F6E74656E742D000102E06531
:100350000103E0006C6974652D796F7574756265D1
:100360002E5B766964656F696420706C61796C617D
:1003700062656C5D00636F6E736F6C652E6C6F678A
:100380002829010150006469762E636F6E746169DB
:100390006E657201012B0001012B00696D672E5BF8
:1003A0006C6F6164696E673D226C617A7922207797
:1003B000696474683D2222206865696768743D221B
:1003C000225D00436861726C65732043686175004B
:1003D0007B252020257D01015001015001015000A5
:1003E000433A5C55736572735C557365725C736FE9
:1003F000757263655C576F726B7370616365735C74
:1004000053686F706966795C007B2520656E646354
:100410006F6D6D656E7420257D007B2520636F6D8B
:100420006D656E7420257D0029002B002A00E100F7
:10043000504300001E00140004001D444F450100FD
:100440001F001A0015001B0052004C00200009007C
:100450001600060051002B6121001300170019003F
:100460002841390022000A000700050000002A6424
:1004700001000100000001000000B15D0100010069
:10048000000001000000E30023000D000B000E003F
:100490000000284224000F00110010002C002B72D5
:1004A000250018000800360031004C0026001C0012
:1004B0000C0037002F00E400270033001200380042
:1004C000300001002E0034002D00E500354300000F
:1004D000010001004C000100010000003C043C044C
:1004E00004011D011D0301002C001A0115011B014F
:1004F000B60001003601090116010611370301009B
:100500004B010A0317011911360301004E010F03B5
:1005100007010513000001000100010000000100B7
:100520000000010001000100000001000000E000E7
:100530003F002F002F0226020000E2004B004A007D
:100540005000340201004A124E00520051002E00A9
:100550000100E10026024D004F00340001000100BF
:10056000270230003002270201004D024600010040
:100570003100E50001000000010001003900010028
:100580000100000001000100F10001000100010074
:100590000100F900EF00F2000100FE000100ED0093
:1005A000EE00F3000100FF000100FA00F000F1008E
:1005B000010001000100B700B600010000000100C9
:1005C0000100010000000100000001000100010025
:1005D0000000010000000100B50001000100010061
:1005E00000000100B6004A0050001901010001009E
:1005F000F3005200510006010100E100B7004D0078
:100600004F001B01AA0001000100010030021D0182
:10061000A90001000F0801003100010001000000E5
:100620000100AB5D39000100010000003A00AB5D44
:10063000B25DAC5D010001003B00B35DB05D010047
:10064000C05D01003C00B45DAE5DA95DC15D01000F
:100650003D001301AC5DAA5D010001003E00BA5DE2
:10066000B95DB85D0000010001000100000001005B
:100670000000010001000100000001000000010075
:100680003F0054005500010000000100400024001C
:1006900021001E00010001004100250022001F0072
:1006A00027002700420026002300200037002E00EC
:1006B00043005600570001000100010044004500BE
:1006C0002E000100010000000100010001000100F6
:1006D0000100000001000100010001000100010013
:1006E00001000100B65D1A070100010001000100D0
:1006F000B55D0C050100010001001301B75D0605A1
:100700000805010001000A010100010000000100CC
:1007100001000100000001000000010001000100D3
:1007200000000100000001000100010001000100C3
:1007300000000100010001000100010001000100B2
:1007400001000100010001000100010001000100A1
:100750000100010001000100010001000100010091
:100760000100010001000100010001000100000082
:10077000065101000100010001000000010001001C
:100780000100010001000100010001000100010061
:100790004B01010001000100010001004E010100B8
:1007A0000100010001000100080501000100010035
:1007B0000100010000000100010001000000010033
:1007C0000000010001000100000001000000010024
:1007D0000100010001000100000001000100010012
:1007E0000100010001000100010001000100010001
:1007F00001000100010001000100010001000100F1
:1008000001000100010001000100010001000100E0
:1008100001000100010000000100010001000100D1
:1008200001000000010001000100010001000100C1
:1008300001000100010001000100010001000100B0
:1008400001000100010001000100010001000100A0
:100850000100010001000100010001000000010091
:100860000100010000000100000001000100010082
:100870000000010000000100010001000100010072
:100880000000010001000100010001000100010061
:100890000100010001000100010001000100010050
:1008A0000100010001000100010001000100010040
:1008B00001000100005C01000100010001000000D6
:1008C0000100010001000100010000000100010021
:1008D00001000100010001000100240021001E00B0
:1008E000370001000100250022001F002700010041
:1008F000010026002300200001000100010001008A
:1009000001000100000001000100010000000100E1
:1009100000000100010001000000010000000100D2
:1009200001000100010001000000010001000100C0
:1009300001000100010001000100010001000100AF
:10094000010001000100010001000100010001009F
:10095000010001000100010001000100010001008F
:10096000010001000100000017000E001600000049
:100970000F00070000000600170000001C00150013
:100980000000150008000A0000001700150008000C
:10099000000007001500080000001C0018000000FF
:1009A0001800150000001A003800000010000E00AA
:1009B000000006001000000017000B0008001A00DD
:1009C00000000B000C00180000000B000C001300CE
:1009D00000000B000C00060000000B000C000400DF
:1009E000000016000C000A000000070010000800BC
:1009F00000000C00170004000000160017001C0087
:100A0000000006000F00000006000F0008000000B4
:100A100000000000000000002A2B28000000000059
:100A2000000000000000000000000029000000009D
:100A30002C1E3420212224342627252E362D37380B
:100A4000271E1F202122232425263333362E373814
:100A50001F0405060708090A0B0C0D0E0F101112D2
:100A6000131415161718191A1B1C1D2F3130232D9E
:100A7000350405060708090A0B0C0D0E0F1011129C
:100A8000131415161718191A1B1C1D2F3130354C4D
:100A90000000000000000000000000000000000056
:100AA0000000000000000000000000000000000046
:100AB000000000007E0F00D4FFFFFFC70000007899
:100AC00016034500720067006F0044006F00780055
:100AD000200045005A00000028035A00530041003E
:100AE000200054006500630068006E006F006C0019
:100AF0006F006700790020004C0061006200730005
:100B000000000403090409023B00020100A0FA09E5
:100B1000040000010301010009211101000122402C
:100B2000000705810308000A090401000103000011
:100B30000009211101000122B600070582032000EF
:100B40000A120100020000000897327449010001F6
:100B500002000105010902A10185020901A10005A8
:100B6000091901290815002501950875018102055B
:100B700001093009311581257F9502750881060923
:100B8000381581257F950175088106050C0A380204
:100B90001581257F950175088106C0C00501098072
:100BA000A101850319012AB700150126B700950197
:100BB00075108100C0050C0901A101850419012AE5
:100BC000A002150126A002950175108100C0050143
:100BD0000906A1018506050719E029E71500250189
:100BE0009508750181020507190029EF15002501F7
:100BF00095F0750181020508190129059505750112
:100C00009102950175039101C005010906A1010535
:100C10000719E029E715002501950875018102955E
:100C200001750881010507190029FF150026FF003D
:100C300095067508810005081901290595057501B6
:100C40009102950175039101C00011241FBECFEFE1
:100C5000DAE0DEBFCDBF12E0A0E0B1E0ECE6F2E604
:100C600002C005900D92AC32B107D9F723E0ACE297
:100C7000B2E001C01D92AF3FB207E1F70E94381CFD
:100C80000C94DF300C9400008098889A8198899A9F
:100C900084988C9A85988D9A86988E9A87988F9A40
:100CA0000895209828982198299822982A9823987E
:100CB0002B9852985A9853985B983E984698089566
:100CC000CF93C82F873070F580910601909107016E
:100CD000892B89F564E670E080E40E946A25909390
:100CE000070180930601892BD1F464E670E082E16C
:100CF0000E94E4259093070180930601892B79F4E3
:100D000081E090E001C0880FCA95EAF764E670E0E0
:100D100080950E94E4259093070180930601CF916E
:100D20000C9437268A30B9F040F4883071F089305D
:100D300079F0209A2898CF9108958C3091F070F036
:100D40008D30B9F73E9A4698F6CF219A2998F3CF7D
:100D5000229A2A98F0CF239A2B98EDCF529A5A983C
:100D6000EACF539A5B98E7CFCF93873050F58091C5
:100D7000060190910701C0E0892B71F464E670E0F0
:100D800081E40E946A259093070180930601892BD4
:100D900031F0C0E00E9437268C2FCF91089584E671
:100DA00090E00E94132697FF05C09093070180935F
:100DB0000601EFCFC82FC0951092070110920601CF
:100DC000E9CFCFB18FB1869586958C73C3708C2B8C
:100DD000C82FC095E1CF0E94F10790E090930701E2
:100DE000809306010E9451060C944406EF92FF92F4
:100DF0000F931F93CF93DF9380910601909107018A
:100E0000892B91F080912E028F5F80932E028111A9
:100E10000BC00E94F10790E09093070180930601B8
:100E2000892B11F40E94860707EC13E0C0E0D0E0A4
:100E300087E0E82EEC0E8C2F0E9460068E2D0E941B
:100E400060068C2F0E94B406F8019081F12C89175E
:100E500019F08083FF24F3948E2D0E94B406F801CC
:100E60009781891799F0878381E08F29D82B0E9479
:100E70005106CF5F0F5F1F4FC730D1F68D2FDF9127
:100E8000CF911F910F91FF90EF90089580E0EDCFEB
:100E90000E94F10790E090930701809306010E9461
:100EA00051060E944406E5EDF3E0119283E0E33E33
:100EB000F807D9F70895259A2D9A0895269A2E9A1B
:100EC0000895279A2F9A089556985E980895259820
:100ED0002D98089526982E98089527982F9808956C
:100EE0000E9464070E9467070E946A070C946D07BE
:100EF00090E0909389008093880090938B0080937A
:100F00008A0090938D0080938C0008950E94700752
:100F10008FEF0E9478070E945B072FEF80E792E037
:100F2000215080409040E1F700C000000E945E0721
:100F30002FEF80E792E0215080409040E1F700C021
:100F400000000E9461072FEF80E792E0215080406F
:100F50009040E1F700C000000E9467072FEF80E794
:100F600092E0215080409040E1F700C000000E94D4
:100F70006A072FEF80E792E0215080409040E1F730
:100F800000C000000E946D070C94700789EA8093EE
:100F9000800089E08093810024982C983F988AB142
:100FA0008F7C8AB96E98479A8BB180638BB9769A99
:100FB0000E94FF176093C1037093C2038093C30321
:100FC0009093C40367702FEF629FC0011124959521
:100FD0008795959587950E9478070E9486070C94BF
:100FE000691B80E290E09093070180930601809155
:100FF0002F0281110EC00E94642581E080932F0290
:101000002FEF83ED90E3215080409040E1F700C046
:10101000000064E670E080E40E946A259093070176
:1010200080930601892B09F04EC064E670E080E0F1
:101030000E94E4259093070180930601892B09F013
:1010400042C064E670E080E00E94E42590930701CE
:1010500080930601892BB9F564E670E08FE30E9466
:10106000E4259093070180930601892B61F50E9486
:10107000372664E670E080E40E946A2590930701B9
:1010800080930601892BF9F464E670E08CE00E94FD
:10109000E4259093070180930601892BA1F464E66F
:1010A00070E080E00E94E4259093070180930601A0
:1010B000892B49F464E670E08FE30E94E425909365
:1010C0000701809306010E9437268091060108954A
:1010D0001092C1031092C2031092C3031092C40372
:1010E00084E080618093C1036091C1037091C20369
:1010F0008091C3039091C4030E9403180C940F18AD
:10110000CF93DB01875A9D458A329105A8F4FC01F3
:10111000EF51FF4C0C94662F1296CC91CC2319F012
:101120000E947318C0E08C2FCF9108951296CC9135
:101130008AE194E0C11108C0C1E0F5CF1296CC91CC
:1011400089E094E0CC23C1F30E94610CECCF1296AD
:10115000CC9180EE93E0CC2379F3F6CF1296CC912C
:1011600080ED93E0CC2341F3EFCF1296CC9183EC4A
:1011700093E0CC2309F3E8CF1296CC91CC23E1F293
:101180008BE993E00E94610C87E993E0DDCF129632
:10119000CC91CC2389F282EE0E94630D8CE20E94F6
:1011A000620E82EE0E94F50D81E10E94620EBBCFBD
:1011B0001296CC9186E893E0CC2309F4BDCFC4CF3E
:1011C0001296CC9185E793E0CC2309F4B5CFBCCF40
:1011D0001296CC91CC2309F4AFCF84E593E00E9422
:1011E000610C8CE493E0B0CF1296CC91CC23A1F0AB
:1011F00080913202811106C081E08093320282EE3A
:101200000E94630D0E94F327909331028093300275
:101210008BE20E94630D87CF8BE20E94F50D8CCF8D
:101220001296CC918BE393E0CC2309F485CF8CCF3D
:101230001296CC918EE293E0CC2309F47DCF84CF3B
:101240001296CC9187E193E0CC2309F475CF7CCF43
:101250001296CC918BE093E0CC2309F46DCF74CF40
:101260001296CC9184EF92E0CC2309F465CF6CCF39
:101270001296CC9182ED92E0CC2309F45DCF64CF3D
:101280001296CC91CC2309F457CF82EC92E00E94C5
:10129000610C8BEA92E00E94610C8BE992E00E9463
:1012A000610C8AE892E00E94610C8FE792E00E9454
:1012B000610C83E792E048CF1296CC9183E692E0EE
:1012C000CC2309F439CF40CF1296CC9187E592E038
:1012D000CC2309F431CF38CF1296CC918BE492E035
:1012E000CC2309F429CF30CF1296CC918BEF91E02B
:1012F000CC2309F421CF28CF1296CC9187EE91E030
:10130000CC2309F419CF20CF1296CC918DED91E02A
:10131000CC2309F411CF18CF1296CC9189EC91E02F
:10132000CC2309F409CF10CF1296CC9188EB91E031
:10133000CC2309F401CF08CF1296CC918FEA91E02B
:10134000CC2309F4F9CE00CF1296CC918FE991E02D
:10135000CC2309F4F1CEF8CE1296CC918BE991E032
:10136000CC2309F4E9CEF0CE1296CC9186E991E037
:10137000CC2309F4E1CEE8CE1296CC9181E991E03C
:10138000CC2309F4D9CEE0CE1296CC918DE891E031
:10139000CC2309F4D1CED8CE1296CC9188E891E036
:1013A000CC2309F4C9CED0CE1296CC9182E891E03C
:1013B000CC2309F4C1CEC8CE1296CC918AE791E035
:1013C000CC2309F4B9CEC0CE1296CC9184E791E03B
:1013D000CC2309F4B1CEB8CE1296CC918DE691E033
:1013E000CC2309F4A9CEB0CE1296CC9187E691E039
:1013F000CC2309F4A1CEA8CE1296CC918BE591E036
:10140000CC2309F499CEA0CE1296CC91CC2309F42A
:1014100093CE84E591E098CE80913202882371F0DA
:1014200080913002909131020E940B2881399140C5
:1014300028F082EE0E94F50D10923202089581FD8F
:101440000C9461070C946D07CF92DF92EF92FF929C
:10145000CF936B017C010E946E0CC82F0E94640721
:101460000E946A070E946707C23081F0C33061F0B2
:10147000C13011F40E945B07C701B601CF91FF9004
:10148000EF90DF90CF9008950E945B070E945E0767
:10149000F3CF9C013A9521153F4150F5FC01EE2711
:1014A000F170BC0166277270AC01442754709C0136
:1014B0002227387094FF0EC080E1EF2B09F480E002
:1014C000672B09F08062452B09F08064232B89F09B
:1014D0008068089581E0EF2B09F480E0672B09F024
:1014E0008260452B09F08460232B19F088600895F1
:1014F00080E00895CF93DF93EC010E94490A9E019A
:10150000205E31092830310510F0209739F40E940F
:101510006A0E8C2FDF91CF910C94630D0E945F11A6
:10152000F8CFCF93DF93EC010E94F50DCE010E941E
:10153000490A9E01205E31092830310510F0CD2B7B
:1015400021F4DF91CF910C94710EDF91CF910C9427
:101550006611CF93DF93EC010E947A0ACE01DF91EE
:10156000CF910C94910A81E008950C94800808951D
:101570000C94B70A1F93CF93DF9300D000D00F9243
:10158000CDB7DEB749835A836B833091410289819D
:101590009A8131111DC06623B9F02223A9F00E945F
:1015A0003913182F682F89819A810E94E21269816C
:1015B0007A81812F0F900F900F900F900F90DF91F5
:1015C000CF911F910C94501A0E941013182FEFCF37
:1015D0000E94391369817A81EDCFFC01262F868123
:1015E0009781009739F440815181628173818481B0
:1015F0000C94BA0A0895CF93DF93EC0161E00E9446
:10160000ED0ABE01DF91CF910C94AF22CF93DF930F
:10161000EC0160E00E94ED0ABE01DF91CF910C94D5
:10162000B80A0E94451B0E94C10C0E94F81E0C942F
:10163000C6070E946B220C946A1B80E00C94C20CBB
:10164000089508950E9483110E94210B2FEF84E3D7
:101650009CE0215080409040E1F700C000000C94D5
:101660003E280F931F93CF93DF938C0161E00E947C
:10167000ED0AEC01B8010E94B50A8823D9F1B8013E
:10168000CE010E94A01F8823A9F1B801CE010E94BB
:101690001225882379F1B801CE010E94BE1F88234C
:1016A00049F1B801CE010E947C24882319F1F80188
:1016B0008281882361F0CB35FDE5DF0721F170F4ED
:1016C000C115ECE5DE07A1F0CF3DDC45C9F0C8014E
:1016D000DF91CF911F910F910C94B30ACC358DE51A
:1016E000D807A1F0CD35DD4591F70E94C217EFCFA5
:1016F0000E94220B80E0DF91CF911F910F910895FE
:101700000E947318F7CF0E94CB17E1CF0E94CE172B
:10171000DECF0C94200B0E9445260E94C20C0C9434
:10172000890BDF92EF92FF920F931F93CF93DF937A
:10173000E82FF0E0E05FF54FD490282F269526950E
:10174000269530E0F901E055F54F0491877010E0DF
:10175000082E02C0159507950A94E2F7017011272B
:10176000F901E056F54FE490F12C082E02C0F594F3
:10177000E7940A94E2F791E0E922FF24F901E057A7
:10178000F54FC491D0E002C0D595C7958A95E2F790
:10179000C170DD270115110519F081EE0E94630D5E
:1017A000E114F10419F086EE0E94630D8D2D0E9464
:1017B000620EEF2819F086EE0E94F50D012B19F04C
:1017C00081EE0E94F50DCD2B51F08CE2DF91CF918F
:1017D0001F910F91FF90EF90DF900C94620EDF91BC
:1017E000CF911F910F91FF90EF90DF900895EF92AE
:1017F000FF920F931F93CF93DF938C01F62E8AE015
:10180000E82EF8018491882309F454C0813009F04E
:101810004DC0E8012196FE018491813091F421961A
:10182000FE0184910E94620E8E010F5F1F4F8F2D6B
:10183000815038F3EFE9FFE03197F1F700C0000085
:10184000F7CF823039F4E8012296FE0184910E949C
:10185000630DEACF833039F4E8012296FE018491CA
:101860000E94F50DE1CF8430F9F6E8012296FE01E1
:10187000249190E080E0FE0131962053330B2A3012
:10188000310548F0019780F2EFE9FFE03197F1F779
:1018900000C00000F7CFE89EA001E99E500D112482
:1018A000C901840F951F2491EF01E5CF0E94910B90
:1018B000E801BACFDF91CF911F910F91FF90EF9088
:1018C000089560E00C94F70B982F9F709A50963013
:1018D00018F0805D0C94910B895AFCCFCF92DF9267
:1018E000EF92FF926C01EE24FF2420E0C114D1049A
:1018F000E104F10419F0C701B60120E1C72ED82E8A
:10190000E92EFF24C114D104E104F10419F0285F89
:10191000C701B6016B017C0154E0F694E794D794BB
:10192000C7945A95D1F7C114D104E104F10419F018
:101930002C5FC701B6016B017C0142E0F694E7948D
:10194000D794C7944A95D1F7C114D104E104F104A6
:1019500019F02E5FC701B601969587957795679523
:10196000672B682B692B09F02F5F822FFF90EF9078
:10197000DF90CF9008950C941F0A81E008950C9495
:10198000BD0C0895CF93C82F0E94BB0C8C2FCF9114
:101990000C94BF0CCF93DF93EC012881898141E047
:1019A00050E0022E01C0440F0A94EAF7A82FB0E0DD
:1019B000AD5CBD4F9C913A813323D9F03091430205
:1019C0003323D1F030E066E0869F200D311D1124D5
:1019D000220F331FF901E355FF4FE491E983F90129
:1019E000E455FF4FE491E883492B4C93DF91CF916D
:1019F0000895392F3423E4CF40954923F6CFCF9370
:101A0000DF93CDB7DEB72D970FB6F894DEBF0FBECC
:101A1000CDBF49875A876B877C878D8761110E946C
:101A20001D178C859D85892B29F089859A858923A9
:101A30008F3F81F51D821E821F82188685E0FE0180
:101A40003996DE01119601900D928A95E1F78C810D
:101A50009D81892B99F429813A814B815C816D812B
:101A60007E818F8198850E940F162D960FB6F8946F
:101A7000DEBF0FBECDBFDF91CF91089589819A81DE
:101A800089238F3F41F3CE0101960E94FB0A811109
:101A9000E2CFEBCFCE0109960E94CA0CCBCFFC015E
:101AA000808191810E947B1392959F70963051F4B2
:101AB000863F41F08091430291E089278093430261
:101AC000909342020895CF93C82F882309F48BC0C6
:101AD0008238C1F40E94452681FD85C089E30E94B9
:101AE000AF160E9440172FEF81EE94E02150804006
:101AF0009040E1F700C0000089E30E94B616CF9144
:101B00000C9440178338A1F40E94452680FD6BC0D9
:101B100083E50E94AF160E9440172FEF81EE94E0FC
:101B2000215080409040E1F700C0000083E5E5CF00
:101B30008438A1F40E94452682FD55C087E40E94A6
:101B4000AF160E9440172FEF81EE94E021508040A5
:101B50009040E1F700C0000087E4CFCF8CEF8C0FFE
:101B6000813A90F46C2F8091B2019091B3010E9460
:101B7000BC26882329F08C2F0E94B6160E9440179D
:101B80008C2F0E94AF16BBCF80E28C0F883048F4B8
:101B9000C77081E001C0880FCA95EAF70E94FD1660
:101BA000AECFEBE5EC0FE33040F4F0E0E850FE4F51
:101BB000808190E0CF910C947C26E8E5EC0FE73132
:101BC00050F4F0E0EE0FFF1FE653FE4F808191814D
:101BD000CF910C949226CD3E30F08C2F0E94C81CE1
:101BE000CF910C949B1DCF910895882309F452C086
:101BF000823871F40E94452681FF4CC089E30E941F
:101C0000AF160E94401789E30E94B6160C94401745
:101C1000833859F40E94452680FF3CC083E50E942A
:101C2000AF160E94401783E5EFCF843859F40E9425
:101C3000452682FF2FC087E40E94AF160E944017FE
:101C400087E4E2CF9CEF980F913AF0F290E2980F80
:101C5000983050F4877091E001C0990F8A95EAF7A7
:101C6000892F0E940317D2CF9BE5980F933020F461
:101C700090E080E00C947C2698E5980F973120F452
:101C800090E080E00C9492268D3E20F00E94221D70
:101C90000C949B1D08951F93CF93DF93182FEB0196
:101CA0000E94630D209731F4812FDF91CF911F9116
:101CB0000C94F50D8FE99FE00197F1F700C000004B
:101CC0002197F0CF70E060E0893311F460E570E0B7
:101CD0000C944B0E882321F00E94FD160C944017A3
:101CE0000895882321F00E9403170C94401708954B
:101CF0004F925F926F927F92BF92CF92DF92EF925C
:101D0000FF920F931F93CF93DF936C01C62F172F72
:101D1000FC01D281058102950F700E94F316E82E16
:101D20008823D1F0DD2329F1812F807F803441F099
:101D300090E29C0F9830E8F0803611F4C63FC9F06D
:101D40008091C60382FD15C082E00E9491170E9417
:101D5000F31691E0E82EE926B12EB2949FE0B92265
:101D6000FBE0FB15C0F1EB2DF0E0E55FFE4C0C94C1
:101D7000662FE12CF1CF012F0F70812F807F11F0A2
:101D80000295007FDD2399F0002359F080E28C0F4B
:101D9000883010F0C11107C0802F0E94FD160E94EC
:101DA00040178C2F6EC0802F0E941017F8CF8C2FF9
:101DB0000E94F50D002379F080E28C0F883010F03E
:101DC000C11104C0802F0E94031703C0802F0E94FE
:101DD00016170E9440172B2D2850330B2430310545
:101DE00020F40E9445260E94C20CDD2339F0107FAA
:101DF000103611F4C63F11F00E94E616EE2009F4E9
:101E000006C20E94C91680FD02C2F60112820E941B
:101E1000C3160E944612C6010E9433110E94C316C7
:101E2000DF91CF911F910F91FF90EF90DF90CF90B6
:101E3000BF907F906F905F904F900C946712212F0E
:101E40002F70F22E812F807F803219F0F29480EF74
:101E5000F822CC2341F0C130E9F1DD2309F444C07C
:101E60000023E9F19ECF8091C60382FF15C0DD23D8
:101E700059F0FF2029F08F2D0E94FD160E94401777
:101E800080E00E94630DA7CF80E00E94F50DFF2047
:101E900009F4A1CF8F2D97CFDD2381F0011106C06A
:101EA0000E9423178F290E946A0E95CF0130C1F737
:101EB0000E9423178F290E9429178DCF011106C078
:101EC0000E9436178F2D0E94710E85CF013009F4C4
:101ED00082CFF6CFDD2329F0023008F07CCF8F2DA2
:101EE000E2CF011178CFEECF002361F3C93349F47B
:101EF0003FEF87EE93E0315080409040E1F700C023
:101F000000008C2F0E94F50D66CF812F8695869557
:101F1000837069F0813009F05ECF8C2F912F937020
:101F2000D11102C090E080E00E94922654CF8C2F05
:101F3000912F9370D11102C090E080E00E947C2626
:101F40004ACF8C2FDD2329F00E94C81C0E949B1DC4
:101F500042CF0E94221DFACF812F837009F043C027
:101F6000D11139CF2C2F229526952770220F220FC1
:101F70006C2F6F70462E512C712C612C022E04C0D8
:101F8000440C551C661C771C0A94D2F760E070E084
:101F9000CB01C4FF0FC06FE070E080E090E004C0B0
:101FA000660F771F881F991F2A95D2F76095709545
:101FB00080959095212F2695269523706429752963
:101FC00086299729223049F058F4213019F00E94CF
:101FD000FA1101CF0E94E811FECE0E940C12FBCE36
:101FE0000E94E611F8CE8695DD2311F0812F8170D5
:101FF000882309F4F0CE2C2F229526952770220FE6
:10200000220F6C2F6F70462E512C712C612C022EDA
:1020100004C0440C551C661C771C0A94D2F760E07F
:1020200070E0CB01C4FF0FC06FE070E080E090E093
:1020300004C0660F771F881F991F2A95D2F76095F5
:10204000709580959095212F26952695237064296B
:10205000752986299729223049F058F4213019F042
:102060000E94BD12B8CE0E94AB12B5CE0E94CF1214
:10207000B2CE0E942012AFCE012F0F70DD2329F0C7
:10208000802F0E9446128C2F0ECF8C2F0E94710E33
:10209000802F0E9467129FCEC23F39F160F4C03F8B
:1020A000B9F0C13F81F0DD2309F446C0011179CEBA
:1020B000812F8F711EC0C33FF9F0C43FA1F78091FB
:1020C000C60382FF23C0812F8F71DD2311F311C05E
:1020D000DD2339F001117FCE812F8F710E948A128A
:1020E0007ACE023008F077CEF7CF812F8F71D111E1
:1020F000D0CF0E9446126FCEDD2329F0812F8F7141
:102100000E94311268CE0E942C1265CEDD2351F060
:10211000012F0F71802F0E94461263E0802F0E94D2
:10212000761759CE81E00E949117023008F453CE01
:1021300082E00E9491174FCE002359F0C93309F075
:10214000E0CEEFEFF7EE23E0E150F0402040E1F782
:10215000D6CE812F8F719DCFE0E1EC0FE73090F567
:10216000F0E0E95EFE4C0C94662FDD2309F433CEDB
:102170008091430291E08927809343022CCED09333
:10218000430229CE81E08D27F7CFD11124CE81E003
:10219000F3CFD11120CE109243021DCEDD2319F0D2
:1021A0000E94CD1618CE0E94D91615CEDD2339F027
:1021B000809142028823E1F2109242020CCE002369
:1021C000B9F209CE809142020023A9F0882341F0A0
:1021D0008091430291E0892780934302109242024A
:1021E0008C2FD1114ECE0E94F50D88E0F601119290
:1021F0008A95E9F7F0CD882309F4EDCDD111EBCD27
:102200008091430291E0892780934302D5CFDF91EB
:10221000CF911F910F91FF90EF90DF90CF90BF90E3
:102220007F906F905F904F9008950F931F93CF937F
:10223000DF93EC018E819F81009779F00E94521903
:102240008C010E94E1120E94E511B801CE01DF91DC
:10225000CF911F910F910C94780E688179818A81BA
:102260000E948513EDCFCF93DF93EC018B819C818E
:10227000892B29F08881998189238F3F59F4DF9137
:10228000CF910895CE010E941511CE01DF91CF911B
:102290000C94060BCE010E94310B8111F3CF0E94EA
:1022A000F316882361F38A81882349F38091C6035A
:1022B00082FDE5CF82E0DF91CF910C9491178823C6
:1022C00021F00E9410170C9440170895882321F0E4
:1022D0000E9416170C944017089590E080E00E9429
:1022E0007C2690E080E00E9492260E941D170E94AA
:1022F00020170E9440170E94C21E0C949B1D0E9432
:10230000BD160C946D110E940D170C947F11E92FCE
:10231000E295EF70E250EE3070F4F0E0E25EFE4CD9
:102320000C94662F803F19F020F4883E20F481E061
:102330000895843FE1F380E00895883EC0F3813F33
:10234000D1F7F5CF93FB882780F90895FC018681AA
:102350009781009721F00E9452190C948711808177
:1023600091810E947B13F9CFCF93DF9300D000D0EF
:102370000F92CDB7DEB70F900F900F900F900F9088
:10238000DF91CF910895CF93DF93CDB7DEB7289734
:102390000FB6F894DEBF0FBECDBF28960FB6F894E7
:1023A000DEBF0FBECDBFDF91CF91089508950C948D
:1023B000D6110E94D71160937F02709380028093A0
:1023C0008102909382020C946D1108950C94D9119E
:1023D0000F931F9300917F02109180022091810240
:1023E00030918202602B712B822B932B1F910F91C6
:1023F0000C94D9110F931F9300917F0210918002CA
:1024000020918102309182026023712382239323E1
:102410001F910F910C94D9110F931F9300917F027C
:1024200010918002209181023091820260277127F1
:10243000822793271F910F910C94D9110C94240A91
:102440000E941E1260937B0270937C0280937D0237
:1024500090937E020C946D1160E070E0CB010C94BF
:1024600020120F931F9341E050E060E070E08A017A
:102470009B0104C0000F111F221F331F8A95D2F742
:10248000C901B8011F910F910C9420120F931F9353
:1024900041E050E060E070E004C0440F551F661F4B
:1024A000771F8A95D2F780917B0290917C02A09150
:1024B0007D02B0917E028A019B01082B192B2A2BE9
:1024C0003B2BC901B8011F910F910C9420120F935F
:1024D0001F9341E050E060E070E004C0440F551FDE
:1024E000661F771F8A95D2F7CB01BA016095709568
:1024F0008095909500917B0210917C0220917D0245
:1025000030917E0260237123822393231F910F91C8
:102510000C9420120F931F9341E050E060E070E0B4
:1025200004C0440F551F661F771F8A95D2F780910C
:102530007B0290917C02A0917D02B0917E028A0183
:102540009B01082719272A273B27C901B8011F919A
:102550000F910C9420120F931F9300917B02109106
:102560007C0220917D0230917E02602B712B822BA8
:10257000932B1F910F910C9420120F931F93009196
:102580007B0210917C0220917D0230917E026023BB
:102590007123822393231F910F910C9420120F9388
:1025A0001F9300917B0210917C0220917D0230915B
:1025B0007E0260277127822793271F910F910C9429
:1025C00020120895E92FEE0FE90FEE0F8E0F982FCE
:1025D000977041E001C0440F9A95EAF78695869579
:1025E000869595E0899FF0011124EC5BFD4F30E06A
:1025F00020E070E05191DF011197CB01022E02C063
:10260000969587950A94E2F78170819585278423B2
:1026100085278C932F5F3F4F2530310559F708955B
:10262000E92FEE0FE90FEE0F8E0F982F977086951A
:102630008695869525E0829FF0011124EC5BFD4F85
:1026400050E040E080E0219130E0092E02C0369554
:1026500027950A94E2F721703327042E01C0220F38
:102660000A94EAF7822B4F5F5F4F4530510559F7C7
:102670000895BF92CF92DF92EF92FF920F931F9334
:10268000CF93DF938C01C0907B02D0907C02E090CE
:102690007D02F0907E0280917F0290918002A09155
:1026A0008102B0918202C82AD92AEA2AFB2ACFE104
:1026B000D0E0BC2ED701C6010C2E04C0B695A7955C
:1026C000979587950A94D2F780FD0EC0219788F7D9
:1026D000B12C8B2DDF91CF911F910F91FF90EF9037
:1026E000DF90CF90BF900895B8018C2F0E94641A9C
:1026F000019761F3EECFCF93DF93EC010E94391382
:10270000BE01DF91CF910C94641A1F93CF93DF9396
:10271000EB0190914102992331F0CB01DF91CF91F0
:102720001F910C947B13882379F0CB010E943913FD
:10273000182F682FCE010E94E212BE01812FDF9177
:10274000CF911F910C94641ACB010E941013182F83
:10275000F4CFCF93DF93C0918302809184028C13D6
:1027600003C0DF91CF910895D0E0FE0183E0EE0F2A
:10277000FF1F8A95E1F7EB57FD4F208131814281A0
:10278000538164817581868197810E94C31121964E
:10279000C770E3CF2091C5023091C6024091C702B5
:1027A0005091C8026091C9027091CA028091CB0217
:1027B0009091CC020C94C3110F931F93CF93DF938E
:1027C0008091CA02807FC1F48091C7028823A1F062
:1027D00080918302109184026091C5027091C602BB
:1027E000A091C802B091C902062F0723C091B00181
:1027F000D091B101181305C0DF91CF911F910F91B6
:10280000089590E0109711F00F3F19F4019687702A
:10281000F1CF9C0143E0220F331F4A95E1F7F90104
:10282000EB57FD4F41814713F1CF40814613EECF67
:1028300042814111EBCF438154814A1B5B0B4C1702
:102840005D0720F78091CA028F7080618093CA0271
:10285000F901E657FD4F80818F708061808385ECA0
:1028600092E00E943311DF91CF911F910F910C9450
:10287000A913AF92BF92CF92DF92EF92FF920F9384
:102880001F93CF93DF93CDB7DEB765970FB6F8945C
:10289000DEBF0FBECDBF8C0185E0F801DE01519691
:1028A00001900D928A95E1F7F801E28045ECC42E83
:1028B00042E0D42E6091C8027091C9026115710581
:1028C00009F491C19091C5022091C602892F8223FB
:1028D0008F3F09F488C140815181A380B480F0907A
:1028E000C702F501E61BF70BBF01E091B001F091C3
:1028F000B101FF2009F42CC18091CA02382F307F2A
:102900006E177F0708F0D6C0311183C0FE2C251347
:102910002DC094132BC06091CB027091CC02F801B2
:10292000268137816217730709F5E1101FC08F7088
:1029300080618093CA020E94CA13C6010E943311AB
:102940008091CA02F80185838F2D65960FB6F894A1
:10295000DEBF0FBECDBFDF91CF911F910F91FF90D2
:10296000EF90DF90CF90BF90AF900895AB2829F003
:10297000842F85238F3F09F04FC180E0F82FF1703D
:10298000DF2E80FF3CC0809183022091840282135D
:1029900015C0498B5A8B89899A890E947B13292FEC
:1029A00022952F702230F8F0243020F59F70F9F036
:1029B000F8019581907FD9F4D12C1FC090E0FC01E3
:1029C00033E0EE0FFF1F3A95E1F7EB57FD4F3181F2
:1029D000351306C03081341303C032813E110FC05D
:1029E00001968770D4CF9F7011F0882329F3805E01
:1029F000883010F3C8010E943311FD2CA5CFEE20C2
:102A000009F4A2CF8091CA0281608093CA02F12C9E
:102A10009BCF25131DC094131BC04091CB02509136
:102A2000CC02F801268137814217530789F4E1105F
:102A30000FC08583C8010E94331188E0F801A5EC1E
:102A4000B2E001900D928A95E1F70E94CA137CCF03
:102A5000C8010E94A611882349F1EE2039F1809126
:102A6000CA028032A0F02091C5023091C6023A8796
:102A700029871B86BD86AC868E878091CB0290917C
:102A8000CC02988B8F87CE0109960E94331188E083
:102A9000F801A5ECB2E001900D928A95E1F70E9451
:102AA000DC130E94CA13FF24F3944ECFC8010E9486
:102AB0003311F9CF311113C07A2DBD8AAC8A6E2D36
:102AC0008D890E94B41185EC92E00E94331188E058
:102AD000F60111928A95E9F70E94CA1398CF25133F
:102AE00018C0941316C04091CB025091CC02F8014B
:102AF000268137814217530761F4E1100AC08583AC
:102B0000C8010E94331188E0F60111928A95E9F715
:102B10001BCFC8010E94A611882341F2EE2031F29A
:102B20008091CA02803208F4B2CF2091C502309160
:102B3000C6023A8329831B82BD82AC828E83809138
:102B4000CB029091CC0298878F83CE0101969DCFC6
:102B50006E177F07D8F5FE2CEE2009F4A7CF2513BA
:102B600027C0941325C02091CB023091CC02F801EC
:102B70008681978128173907D9F49091CA0290FD70
:102B80000EC0907F61F08091CA028583903F09F466
:102B900051CF982F907F905F8F70892B4ACF88E01C
:102BA000F801A5ECB2E001900D928A95E1F7CCCE48
:102BB000C8010E94A61181116ACF8091CA0281606A
:102BC0008093CA02C8010E943311BECE7A2DBD8AFD
:102BD000AC8A6E2D8D890E94B41188E0F6011192A5
:102BE0008A95E9F732CFEE2009F460CFC8010E9440
:102BF000A611F82E882309F459CF88E0F801A5EC36
:102C0000B2E001900D928A95E1F785EC92E00E9486
:102C10004F0D0E94DC1319CF81E08E25AFCECF93EC
:102C2000DF93CDB7DEB760970FB6F894DEBF0FBE67
:102C3000CDBF29873A874B875C876D877E878F87D3
:102C4000988BCE0109960E9439148823D1F08C8587
:102C50009D85892B39F029853A85822F83238F3FE3
:102C600009F074C08091830290918402891348C056
:102C700060960FB6F894DEBF0FBECDBFDF91CF9147
:102C8000089588E0FE013996DE01119601900D92BB
:102C90008A95E1F78C859D85892B21F389859A8515
:102CA00089238F3FF9F2A0918402B0E0CD01019613
:102CB00087709927209183022817190671F40E94C2
:102CC0008311109284021092830288E0E5ECF2E016
:102CD000DF011D928A95E9F7C5CF93E0AA0FBB1FCC
:102CE0009A95E1F7AB57BD4F98E0FE013196019000
:102CF0000D929A95E1F7809384020E94A913B2CFB6
:102D0000B8E08B9FC00111248B579D4F0E9439144E
:102D1000882309F4ADCFE091830228E0E29FF0011F
:102D20001124EB57FD4F2081318142815381648111
:102D30007581868197810E94C3118091830290E002
:102D4000019687709927809383028CCF4B855C8591
:102D50006D857E858F8598890E94C31183CF682FEA
:102D60008091B2019091B3010C943C27682F80911F
:102D7000B2019091B3010C9447278091B2019091D8
:102D8000B3010C9452278091CE0285958595859547
:102D900008958091CE028770089582E08093CD02DD
:102DA00081E08093430208951092CD021092430275
:102DB00008958091CD02823021F481E08093CD028C
:102DC0000895833011F40C94D41608958091CD02A7
:102DD000823021F483E08093CD020895813011F494
:102DE0000C94D41608959091CE02977081E009F466
:102DF00080E008958091F20208959091F202892B6B
:102E00008093F202089580959091F2029823909316
:102E1000F20208958093F20208951092F20208954A
:102E20009091F102892B8093F10208958095909101
:102E3000F10298239093F10208951092F1020895FF
:102E40001092F00208958091CF02089508950C9495
:102E500026179091C60392FD08C09091CF02981753
:102E600021F08093CF020C94271708958091CF0210
:102E7000882329F01092CF0280E00C942717089540
:102E8000E091B201F091B3018091F2028083E09170
:102E9000B201F091B30180819091F102892B80837E
:102EA000E091B201F091B30180819091F002892B01
:102EB00080839091CF02992381F0E091B201F0914B
:102EC000B3018081892B80838091B2019091B301FD
:102ED0000E94A82681110E9436178091B20190911C
:102EE000B3010C94542608950C9473179091C60363
:102EF00092FD10C098E0899F90011124622B60938D
:102F0000CE020E9446128091CE02859585958595C8
:102F10000C9474170C9446121092CE0280E00C941C
:102F200074179091CE02809589238093CE02282F2A
:102F3000277091F4282F082E000C330B92171306DC
:102F400059F09091C60392FD07C0859585958595AA
:102F50000E9467120C948C1708959091C60392FBFF
:102F6000222720F9281769F080FB92F99093C60375
:102F70008091C5039091C6030E94F21782E00C94E1
:102F8000911708958091C60382FB882780F991E00C
:102F900089270C94AD1781E00C94AD1780E00C9458
:102FA000AD1790E080E00E94A53021E0893E9E4F61
:102FB00009F020E0822F089582E090E00C94973091
:102FC00083E090E00C949730CF9384E090E00E94EF
:102FD0009730C82F82E290E00E949730982F8C2F74
:102FE000CF910895CF93C92F682F84E090E00E947D
:102FF000AB306C2F82E290E0CF910C94AB308FE03D
:1030000090E00C949F30AB01BC018FE090E00C94F9
:10301000BD30AB01BC0183E190E00C94BD3060E0B9
:1030200070E0CB010C94091869EE7EEF90E080E02F
:103030000E94C93060E082E090E00E94AB3060E026
:1030400083E090E00E94AB3010927F0210928002E9
:10305000109281021092820260E084E090E00E946F
:10306000AB3060E082E290E00E94AB3060E085E04F
:1030700090E00E94AB3060E086E090E00E94AB30D0
:103080006FEF87E090E00E94AB3040E050E0BA0183
:1030900088E090E00E94BD3060E08DE090E00E940A
:1030A000AB3040E050E0BA0188E190E00E94BD30D2
:1030B00060E087E190E00E94AB3040E050E0BA0170
:1030C0008CE190E00E94BD3070E060E080E290E032
:1030D0000E94C93040E050E0BA0188E190E00E94CF
:1030E000BD300C9468080C941418682F8EE090E0A2
:1030F0000C94AB300E94FF27609306037093070384
:103100008093080390930903609302037093030371
:103110008093040390930503089585B7806885BF65
:1031200085B7806885BF0895089508950C94941814
:1031300008950C9498180E948D1882E49BE10E94D7
:103140003B260E9495180C94961881E008950C94E3
:10315000A518089508950E94A9180C94AA180E9411
:10316000EA270E94731B0C949918AF92BF92CF92DA
:10317000DF92EF92FF920F931F93CF93DF93CDB720
:10318000DEB72A970FB6F894DEBF0FBECDBF0E9400
:10319000841B81110E947A1884EFA82E82E0B82E39
:1031A00010E000E0C02E802F0E946C1BE82EF5017D
:1031B000F1905F01F81609F44DC080910A0381FD7A
:1031C0000E94721B8F2D8E25D12CFF24F394982FF3
:1031D0009F21D9F10E94A718882399F0DE82CF821F
:1031E000EF2081E009F480E088870E94F327816066
:1031F000782F9A8789874E815F8168858A850E94AA
:10320000FF0CF801EC50FD4F8081F826F0820E94FF
:10321000B61D0E9445269091F302891791F10E94F4
:1032200045268093F3022A960FB6F894DEBF0FBEB0
:10323000CDBFDF91CF911F910F91FF90EF90DF9065
:10324000CF90BF90AF900C94C20CD394FF0CF6E0DB
:10325000DF12BDCF0F5F1F4F0E30110509F0A2CF57
:103260008FEF89838A831B820E94F3278160782FE6
:103270009D838C8349815A816B818D810E94FF0CD3
:10328000C6CF2A960FB6F894DEBF0FBECDBFDF9132
:10329000CF911F910F91FF90EF90DF90CF90BF9053
:1032A000AF900895CF93DF930E94681AEC018115C7
:1032B00022E5920708F047C0811531E5930708F031
:1032C000BAC0883E910530F5803E910508F092C065
:1032D000883A910588F4853A910508F084C08130D8
:1032E000910509F487C0009709F484C0049708F099
:1032F00081C0D0E0C0E07EC08F3B9105D0F7C85AB6
:10330000D0E0CC0FDD1FC550DE4F0990D881C02D15
:10331000D46470C08115904250F4C11581E0D80783
:1033200008F068C0CD3ED10520F3D06563C0C1155B
:1033300090E4D907F0F2C11520E5D20708F05EC08D
:10334000DF70D06A57C0811536E5930718F58115EF
:1033500045E5940708F087C0C11584E5D80708F053
:103360007DC09C2F969596959E0123703327C1159D
:10337000D34508F465C0C1E0D0E002C0CC0FDD1F2A
:103380002A95E2F730E2939FC0011124C82BD92B74
:10339000DA6830C0C11589E5D80768F4C11598E529
:1033A000D90708F06AC0C11527E5D20708F0A1CFF8
:1033B000DD27D0661FC0C1153AE5D30708F462C007
:1033C000CE0190568115904208F093CF8D2F8F71CA
:1033D0000E94FF1A90E0982F882788279F719C01F0
:1033E0002C2BE90148C0C55AD0E0C75DDD4FC8812C
:1033F000D0E0D064CE01DF91CF910895CE01E4E01A
:1034000096958795EA95E1F783702C2F269526955A
:10341000237090E2299F90011124382B8C2F837008
:10342000C1E0D0E002C0CC0FDD1F8A95E2F7C22BCD
:10343000D32BDC68DFCFD82FCC27C16FD06ADACF8F
:10344000C1E0D0E002C0CC0FDD1F2A95E2F720E2F8
:10345000929FC0011124C82BD92BEBCFDC2FCC2796
:10346000C46FD06AC7CF0E94FF1AC82FD0E0DC2FEC
:10347000CC27CC27DF71D062BDCFDC2FCC27C06F2B
:10348000D06AB8CF8C2F8F700E94FF1A34E0D69587
:10349000C7953A95E1F7CF709C2FEC01D069AACF80
:1034A000972F70E026E0929F600D711D1124FB01A3
:1034B00094E5899FE00DF11D1124EE0FFF1FE85DDB
:1034C000FB4F8591949108950E94501A0C945219C3
:1034D00082389105B1F1B0F48133910509F475C0DA
:1034E00048F48932910509F469C08A32910509F4DA
:1034F00073C008958533910509F459C08933910546
:1035000001F10895833E9105A9F138F4803E9105BB
:10351000F9F0823E910549F10895863E9105A9F1A1
:10352000873E9105C9F1843E910519F52091C603A6
:1035300021FF1FC08091C50384FD14C087EE90E079
:1035400008952091C5032370A1F080EE90E00895C6
:103550002091C50320FD47C03091C60330FF09C04C
:1035600024FF44C090E080E004C02091C50322FD08
:10357000F7CF08952091C50322FD3BC03091C603CB
:1035800030FDE3CF24FFF5CFEDCF2091C50323FF1E
:10359000F0CF24FDE7CFD2CF2091C50323FD2CC06F
:1035A0003091C60331FFEECF84EE90E00895209174
:1035B000C50325FFDECF89E290E008952091C50381
:1035C00025FFD7CF85E390E008952091C50326FF1E
:1035D000D0CF8AE290E008952091C50326FFC9CF9D
:1035E00081E390E0089589E390E0089583EE90E010
:1035F000089582EE90E0089586EE90E0089590910F
:10360000C50392FF06C0282F28712830F9F4877F60
:10361000846093FF06C0282F28712831F1F4877E3B
:1036200084612091C60320FF06C0382F38713830DE
:10363000D9F4877F816021FF06C0282F28712831A7
:10364000D1F4877E816194FD877E0895282F2471AF
:103650002430F9F68B7F8860DCCF282F2471243149
:1036600001F78B7E8861DDCF382F3171313019F74A
:103670008E7F8860E0CF282F2171213121F78E7E47
:103680008861E1CF80E0089508950E94D1178111EB
:1036900002C00E9473180E94DC1780930A030E94E4
:1036A000E4179093C6038093C5030E94441B0E94B5
:1036B000E017682F70E090E080E00E94E6116091D2
:1036C0007B0270917C0280917D0290917E020C942D
:1036D0001E1208950C940C0AE82FF0E0EB52FC4FF8
:1036E0008081089508950E94EB06E7ECF3E0A5EDD4
:1036F000B3E011921D9283E0E53DF807D1F78EE02B
:103700000E94971B0C94110BCF9387EC93E00E94BF
:10371000F606C82F282F4EE065ED73E087EC93E0A6
:103720000E94AA1B0E94190B8C2FCF910895CF9352
:10373000C82F90E00E946C2F80930E0390930F038C
:10374000282FFC018E2F821B8C1710F0CF9108952B
:103750001192F8CFDF92EF92FF920F931F93CF93C6
:10376000DF93082FF92EE62ED72E142FC22FD091DB
:103770000B03DD2309F448C00E94F32720910C03BA
:1037800030910D03AC01421B530B9A0190930D0332
:1037900080930C034F3F510509F0C8F4452B99F075
:1037A00010920B031092100340910E03E42FF0913E
:1037B0000F0390E030E08E2F841B811758F0309378
:1037C0000B0390931003C1112DC0CD2F1FC02FEFFD
:1037D00030E0E6CF8081882321F0281720F0108286
:1037E0009D2F3196E8CF821B80833D2FFACF299100
:1037F0004C91421731F04081411103C030832C932A
:1038000081E0319611961AC0211106C080911003F3
:103810008823D1F0C11106C00E94F32790930D03B5
:1038200080930C0390910E0380910B03AE2DBD2D60
:10383000C02FDF2DE92FF0910F033EE12E2F291B22
:103840002117A8F280930B03DF91CF911F910F9165
:10385000FF90EF90DF9008950E94122A0E94AF1807
:103860000C941E2A0E94222A0E94B5180C943C2A0D
:103870000E947E270E94F9290E949B180E942C1CFE
:103880000E94321C0E94AB18FBCF8091190380FF6D
:1038900012C06091B80185E0689FB0011124759550
:1038A00067957595679560387105A8F5611571057F
:1038B000A1F1862F089581FF09C06091B80185E0CC
:1038C000689FB001112475956795EDCF6091B8019F
:1038D00082FD0AC0809118038823D1F09091B7012E
:1038E0006091B801891728F085E0689FB001112424
:1038F000DACF869FB001112485E0869F9001879FD3
:10390000300D1124692F70E0C9010E94522FCBCFD6
:1039100065E070E0CECF8FE7089581E00895809153
:10392000190380FF0CC06091B50170E07595679533
:10393000759567956115710549F1862F089581FF89
:1039400006C06091B50170E075956795F3CF609101
:10395000B50182FD0BC0909117039923A1F06091EE
:10396000B4018091B501961738F0682F70E0603887
:10397000710500F38FE70895899FC001112470E05D
:103980000E94522FF4CF61E070E0D7CF81E008951C
:103990008D3E31F40E94451C819580931D0308954E
:1039A0008E3E19F40E94451CF8CF8F3E31F40E94E0
:1039B000451C819580931C030895803F19F40E9453
:1039C000451CF8CF893F29F40E948F1C80931E0369
:1039D00008958A3F21F40E948F1C8195F7CF8B3F79
:1039E00031F40E948F1C819580931F0308958C3FB2
:1039F00019F40E948F1CF8CF9FE0980F983070F454
:103A0000815F990B21E030E001C0220F8A95EAF72F
:103A100080911B03822B80931B0308958D3F31F40B
:103A20008091190381608093190308958E3F21F4DA
:103A3000809119038260F7CF8F3FB9F78091190306
:103A40008460F1CF40911C038D3E59F480911D0399
:103A500087FF0DC010921D0341110BC01092180377
:103A600008C08E3E81F480911D0318169CF34423F8
:103A700081F080911E0390911F03892B09F05AC099
:103A80001092170308958F3E49F447FFF0CF10922C
:103A90001C0380911D038111ECCFE0CF803F19F40E
:103AA0001416ACF3E4CF90911E03893F29F4191644
:103AB000F4F610921E03DBCF8A3F19F497FFD7CF9D
:103AC000F8CF90911F038B3F29F497FFD0CF10922E
:103AD0001F03CDCF8C3F19F41916CCF3C8CF9FE04C
:103AE000980F983090F4815F990B21E030E0B90194
:103AF00002C0660F771F8A95E2F7CB0180959091FF
:103B00001B03892380931B03B2CF8D3F31F4809137
:103B100019038E7F80931903AACF8E3F21F48091E1
:103B200019038D7FF7CF8F3F09F0A1CF8091190343
:103B30008B7FF0CF08950E94F3279C0190911C0386
:103B400080911D03982B21F03093160320931503C9
:103B500090911E0380911F03982B21F03093140342
:103B6000209313038AE193E00C946E26EF92FF9268
:103B70000F931F93CF93DF9300D000D000D0CDB729
:103B8000DEB786E0EAE1F3E0DE01119601900D92E6
:103B90008A95E1F7E0901C03F0901D0300911E034D
:103BA00010911F0310921C0310921D0310921E030C
:103BB00010921F038E2D8F2991F080911503909103
:103BC00016030E940B28AC0190911803992309F465
:103BD0003FC08091B9018417150608F447C0802FB3
:103BE000812B91F080911303909114030E940B2874
:103BF000AC0190911703992309F477C08091B60125
:103C00008417150608F47FC080911C0390911D0352
:103C1000892B90911E03892B90911F03892B11F002
:103C20000E949B1D86E0FE013196AAE1B3E001905F
:103C30000D928A95E1F726960FB6F894DEBF0FBE77
:103C4000CDBFDF91CF911F910F91FF90EF9008951D
:103C5000209112038AE0289F900111242417350730
:103C600008F0BDCF9F5F9093180302C09F3FD1F72C
:103C7000EE2059F00E94451C9FEF1E140CF491E0B9
:103C8000899F802D112480931C03FF2059F00E94EE
:103C9000451C9FEF1F140CF491E0899F802D112487
:103CA00080931D0330911C03332309F498CF209196
:103CB0001D03222309F493CF45EB3403C0011124E3
:103CC000992359F090931C0345EB24039001112490
:103CD000332339F030931D0382CF81E080931C039E
:103CE000F3CF81E080931D037ACF209111038AE006
:103CF000289F900111242417350708F085CF9F5F76
:103D00009093170302C09F3FD1F7002359F00E9400
:103D10008F1C9FEF10160CF491E0899F802D1124C9
:103D200080931E03112359F00E948F1C9FEF1116E0
:103D30000CF491E0899F802D112480931F03309112
:103D40001E03332309F460CF20911F03222309F4BB
:103D50005BCF45EB3403C0011124992359F09093B4
:103D60001E0345EB240390011124332339F03093D3
:103D70001F034ACF81E080931E03F3CF81E080933D
:103D80001F0342CF86E0EAE1F3E0DF011D928A954E
:103D9000E9F710921803109217031092190308956F
:103DA000CF93DF93EC0197FF0CC0FB018281882346
:103DB00041F00E940E1FCE019F770E94851F0E9436
:103DC0005D1F81E0DF91CF9108959091E4039230DF
:103DD00069F48A3048F490E009966AE070E00E9445
:103DE000522F875A0C94620E8650FCCF0C94640CB0
:103DF0008CE090E00E94973090E0B0E0A0E08093EB
:103E0000E4039093E503A093E603B093E7030895DA
:103E10006091E4038CE090E00C94AB300E9451265A
:103E2000869581708093E9030E945126817080936A
:103E3000E3038091E403813039F48091E90388231E
:103E400019F089E30E94620E0E94FA168093E8033B
:103E50000E940D178091E403813089F0882359F086
:103E6000823091F0843021F18FE39CE90197F1F7E2
:103E700000C00000089582EE0E94630DF5CF88E136
:103E800093E00E94A90AF0CF8091E303811103C05F
:103E900083E50E94620E82EE0E94630D8FE39CE92F
:103EA0000197F1F700C0000087E50E94620EDCCFA9
:103EB00086EE0E94620E88E1F8CF8091E4038130A3
:103EC00071F0882341F08230A9F08430E1F08091D4
:103ED000E8030C940A1782EE0E94F50DF8CF8CE2ED
:103EE0000E94620E8091E903882389F389E30E948E
:103EF000620EEDCF82EE0E94F50D8091E3038111F9
:103F0000E6CF83E5F4CF88E2F2CF0F931F93CF93F0
:103F1000DF938C01CCE0D0E0C8010C2E02C0969556
:103F200087950A94E2F78F700E94E51E2497CC3F94
:103F30008FEFD80789F7DF91CF911F910F910895E7
:103F40000F931F93CF93DF93EC018B01FB018281D1
:103F5000882361F00E94FA16CE01825E9C4585306E
:103F6000910520F48093E4030E94081FB801CE015C
:103F7000DF91CF911F910F910C94D01ECF93DF93BF
:103F8000EC01FB018281882309F420C1C430FDE5E6
:103F9000DF07C8F5CB3F9CE5D90730F49E012250DE
:103FA0003C452431310598F50E94E4179093C603EF
:103FB0008093C503C031FCE5DF0709F4E0C008F0D9
:103FC00061C0C8309CE5D90709F4CBC088F5C4307E
:103FD000FCE5DF0709F4B3C0E8F4C2309CE5D9077B
:103FE00009F4A7C08091C5038260C330DC4509F4A1
:103FF000A3C08091C5039091C6030E94F2170E944E
:10400000831180E004C0C236EDE5DE0769F2DF917E
:10401000CF9108958091C5038061C630FCE5DF072C
:1040200009F48AC008F48FC08091C503806284C0FF
:104030008091C5038D7FCC309CE5D90709F47CC005
:1040400070F48091C5038C60CA30FCE5DF0709F489
:1040500073C008F48AC08091C5038E7F6DC08091C3
:10406000C503877FCE309CE5D90709F465C08091F0
:10407000C5038B7FCF30DC4508F45EC08091C5035B
:104080008F7E5AC0CD3FFCE5DF0709F474C040F5D0
:10409000C4319CE5D90709F48AC058F4C231FCE563
:1040A000DF0709F474C008F46EC08091C503837FF4
:1040B00043C0CB3F9CE5D90709F449C008F04DC087
:1040C000C531DC4509F095CF8091C50382FB992766
:1040D00090F921E0922790FB82F990FB83F92CC0A4
:1040E000C1308DE5D80709F458C088F48091C60323
:1040F0008360CF3FECE5DE0769F18091C6038D7FD9
:10410000C115DD4538F18091C6038C7F23C0C330D3
:104110008DE5D80709F458C008F452C0C236DD4511
:1041200009F067CF9091C503892F8F7E94FF80613E
:1041300003C08091C50381608093C5035ACF8091ED
:10414000C5038460F9CF8091C5038860F5CF809165
:10415000C60381608093C6034CCF8091C603826002
:10416000F9CF8091C5038064E7CF0E9483118091CD
:10417000C5038068E1CF8091C6038E7FEBCF80912D
:10418000C5038F7DD9CF8091C5038F7BD5CF0E948A
:1041900083118091C5038F77CFCF8091C603982F6D
:1041A000909591708E7F892B90FB81F9D3CF0E94DF
:1041B00083119091C503892F97FB87F98058BCCF55
:1041C00081E00E94751815CF80E0FBCF81E01FCF02
:1041D00008950F931F93CF93DF9380918B03E0910A
:1041E00020031CE081111AC0DF91CF911F910F9124
:1041F000089501E00E0F00932003CE2FD0E0E19F41
:10420000F0011124E55DFC4F83819481892B29F015
:104210008081918189238F3FE9F4E02F80918B0386
:10422000E81738F310928B0310922003DDCF189615
:104230008D919C918F3F9807D1F061E00E94E8201A
:104240001C9FF0011D9FF00D1124E55DFC4F1482B1
:104250001382E3CF1C9FD0011D9FB00D1124A55DDB
:10426000BC4F16968D919C911797892B01F3208155
:1042700031814281538164817581868197810E9459
:104280000F16DECF10928D0310928C032091BB018C
:104290003091BC01E8E0F1E090E080E028173907B8
:1042A00009F408954581411102C0148216820196D5
:1042B0003796F4CFDC016091290380912A03962F71
:1042C000891301C00895292F30E0F901EE0FFF1F77
:1042D000EF5DFC4F408151814A175B07A1F487E0F5
:1042E0008A9FA0018B9F500D1124485F5E4F81E093
:1042F000FA0184839613E6CF2F5F3F4F2370332755
:104300002093290308952F5F3F4F922F9370D8CFAA
:104310007F928F929F92AF92BF92CF92DF92EF9255
:10432000FF920F931F93CF93DF93EB012C81211109
:1043300065C070908B03ABE2B3E030E020E0812CED
:1043400061E070E0271508F042C01A96CD90DC902D
:104350001B97A880B9804FEF5FEF912CE92CF12CCF
:10436000F701EE0FFF1FEA0DFB1D05911491C0161A
:10437000D10609F4A701012B11F09394EFCF4F3F21
:104380005407C1F1FB0102C0EE0FFF1F4A95E2F78F
:104390008E2AAB0102C0440F551F9A94E2F7415098
:1043A00051098416150611F54A815B816CE0629F04
:1043B000F001639FF00D1124E55DFC4F57834683A8
:1043C0002EEF208321839187808721E02D83DF9149
:1043D000CF911F910F91FF90EF90DF90CF90BF9002
:1043E000AF909F908F907F900C945A2114961C92BE
:1043F0001E9213972F5F3F4F1C96A4CFDF91CF9152
:104400001F910F91FF90EF90DF90CF90BF90AF90F2
:104410009F908F907F9008951F93CF93DF93C091CB
:10442000290317E080912A038C1307C00E94E9201A
:10443000DF91CF911F910C944221D0E0FE01EE0F4D
:10444000FF1FEF5DFC4F80819181189FB001199F84
:10445000700D1124685F7E4F0E9488212196C370E1
:10446000E1CFEF92FF921F93CF93DF93FC01208166
:10447000318110E040E050E0E52FF0E0EE0FFF1F4B
:10448000E20FF31FA591B4911097B9F0FB01C08121
:10449000D18140E005C0AE15BF0509F411E04F5FC2
:1044A000E42FF0E0EE0FFF1FEC0FFD1FE590F490FE
:1044B000E114F10481F75F5FDFCF112349F0451765
:1044C00008F4CB01DF91CF911F91FF90EF900895F9
:1044D00090E080E0F7CF8091BA01882341F180918C
:1044E0008E0390918F03009711F10E940B28209169
:1044F0008C0330918D0328173907C8F49091290354
:1045000080912A03981759F00E940C2210928D0373
:1045100010928C0310928F0310928E0308950E94C4
:10452000E92010928F0310928E030C94422108957B
:1045300010928F0310928E031092BA0180912A0379
:10454000809329030E9442210C94E9208091BA01B2
:1045500081110C94982281E08093BA0108952F92E2
:104560003F924F925F926F927F928F929F92AF9203
:10457000BF92CF92DF92EF92FF920F931F93CF9350
:10458000DF93CDB7DEB729970FB6F894DEBF0FBE25
:10459000CDBF6C013B01FB011281883FFCE59F0709
:1045A000F9F4112321F181E08093BA01812F29963A
:1045B0000FB6F894DEBF0FBECDBFDF91CF911F9134
:1045C0000F91FF90EF90DF90CF90BF90AF909F90B2
:1045D0008F907F906F905F904F903F902F900895B5
:1045E000893F2CE5920709F04DC0111148C008E041
:1045F00011E0F12CE12C198688248394912C809170
:10460000BB019091BC01E816F90608F445C0F3011E
:104610008281882309F45EC1F985FF2309F45AC118
:104620000E94F32790938F0380938E0380918B03D6
:10463000883008F591E0980F90938B0398E0F30190
:10464000DE01119601900D929A95E1F72CE0829F80
:10465000C0011124855D9C4F28E0FE013196DC01EC
:1046600001900D922A95E1F72FEF3FEFFC01318782
:104670002087D386C28611E0F9851F2797CF0E9435
:10468000982294CF8A3F9C4509F0B1CF112309F4B9
:10469000AECF0E94A6228ACFF80160817181AA2440
:1046A000AA94BA2C20E0422F50E0FA01EE0FFF1F2F
:1046B000E60FF71F85919491C816D90609F45A019F
:1046C000892B11F02F5FEFCF312CFFEFAF16BF0614
:1046D00009F444C0F80144813090BA01832D41119E
:1046E00080E0F82FF1703F2EF80155808681F301AC
:1046F0009281992309F48DC0332009F48AC05110A6
:1047000014C0A40101C0440FAA94EAF7842BF80155
:10471000868380918C0390918D03C29730F462E37D
:1047200070E070938D0360938C03C40102C0880F06
:10473000991F2A95E2F70197F80126812817190693
:1047400069F480918E0390918F03009781F00E940D
:104750000B28C39760F021E0F8012483F985F32941
:10476000F9872FEFE21AF20A095F1F4F48CF209016
:10477000290390E080E020912A03221215C08017BF
:10478000910761F3A22CB12CF501EE0FFF1FEF5D35
:10479000FC4FF182E0826FEFA61AB60A73E0A722FF
:1047A000BB24A0922A03DACFA22CB12CF501EE0F84
:1047B000FF1FEF5DFC4F2081318147E0429FC00128
:1047C000439F900D1124BC01685F7E4F2B01B801FF
:1047D000C2010E9431220097A9F021E0FC0124834C
:1047E0008017910709F4BACF2091290322120AC039
:1047F0004816590639F495012F5F3F4F2370332730
:10480000209329033FEFA31AB30A4A2D4370242EA5
:10481000B2CF90E051101FC0F40102C0EE0FFF1F95
:104820002A95E2F79F01215031092817390731F401
:10483000442309F44DC0C7010E945A21C40101C09C
:10484000880FAA94EAF7982F9095F801868189231A
:104850008683352C83CF9C010A2C02C03595279581
:104860000A94E2F7A90141705527BC016150710912
:1048700086239723892B41F5452B31F1F80182815D
:104880009381892BE1F01B821C821D821E82FEEF28
:10489000F983FA830E94F3278160582F9D838C83CC
:1048A000F801828193818F83988729813A814B8196
:1048B0006D817E810E940F16F8011582BFCF60E0E6
:1048C000C7010E94E820F8CFF22FF1705F2EB6CF1B
:1048D000532CB4CF9091290380912A03981719F093
:1048E0000E940C22C8CE0E94E92010928F031092E1
:1048F0008E030E944221BFCECF93DF93EB0186311E
:104900009C4511F50E94FA169A81992399F08A7AAA
:1049100091E009F490E090939003811109C089E23D
:104920000E94AF160E94401780E0DF91CF9108955A
:1049300085E3F6CF80919003811104C089E20E9443
:10494000B616F0CF85E3FBCF81E0EFCF0F931F9337
:10495000CF93DF93C42FD22FFC0182818823C9F02B
:10496000409393030E94F3279093920380939103C3
:1049700080E28C0F883008F050C0C77081E001C021
:10498000880FCA95EAF7DF91CF911F910F910C9490
:104990006A0E10919303141335C080919103909186
:1049A00092030E940B28883C910560F5C0E2CD0F70
:1049B0001D17B9F080E2810F883040F4177081E054
:1049C00001C0880F1A95EAF70E94710EC83048F4AA
:1049D00081E09D2F977001C0880F9A95EAF70E9499
:1049E0006A0E802F0E94620EC830B8F4D77081E042
:1049F00001C0880FDA95EAF7DF91CF911F910F91EF
:104A00000C94710E80E28C0F883038F4C77081E00E
:104A100001C0880FCA95EAF7EFCFDF91CF911F91C0
:104A20000F9108950F939C01CB01243F4CE534076F
:104A300059F1A8F4293DFCE53F0701F12A3D4CE579
:104A40003407D1F1283D3C4591F406E221EE41EED8
:104A500068ED7CE50E94A62480E00F910895263F32
:104A6000FCE53F07E9F0B0F0273F3C45F9F0FC01D9
:104A70008281882339F110929303EFCF07E225EE6C
:104A800045EE69ED7CE5E6CF06E221EE40EE64EF0F
:104A90007CE5E0CF07E225EE44EE65EF7CE5DACF7A
:104AA00006E221EE42EE66EF7CE5D4CF07E225EE8A
:104AB00046EE67EF7CE5CECF08E221E045EE6AEDF9
:104AC0007CE5C8CF81E0C9CF1092B9008CE080931B
:104AD000B80008959F92AF92BF92CF92DF92EF926B
:104AE000FF920F931F93CF93DF93B82EEB010E9499
:104AF000F3276C01EE24E394F12CC431D10560F06E
:104B000025E0E22EF12CCF3FDC0731F0CE0164E14D
:104B100070E00E943E2F7B0184EAA82E94E8992E33
:104B20001092BC00A092BC000E94F3278C018091DF
:104B3000BC0087FF0DC08091B900887F883039F1B3
:104B40008091B900887F803111F10FEF1FEF09C00C
:104B50000E94F327801B910B8E159F0540F30EEFEB
:104B60001FEFCF3FDC07E1F2C6010E940B288C1734
:104B70009D07B0F2C801DF91CF911F910F91FF9077
:104B8000EF90DF90CF90BF90AF909F900895B0923C
:104B9000BB009092BC000E94F3278C018091BC0066
:104BA00087FF0AC08091B900887F883111F0803476
:104BB00061F610E000E0DECF0E94F327801B910B2E
:104BC0008E159F0558F3CBCF0F931F93CF93DF9391
:104BD000EB018093BB0084E88093BC000E94F32724
:104BE0008C018091BC0087FF11C02091B900287F03
:104BF00081E090E0283211F490E080E09195819579
:104C00009109DF91CF911F910F910895CF3FDC075C
:104C100041F30E94F327801B910B8C179D0708F32B
:104C20008EEF9FEFEECF0F931F93CF93DF93EC01A7
:104C300084E88093BC000E94F3278C018091BC0023
:104C400087FF08C08091BB0090E0DF91CF911F915A
:104C50000F910895CF3FDC0789F30E94F327801B53
:104C6000910B8C179D0750F38EEF9FEFEECF84E9E9
:104C70008093BC00089590932D0280932C02089598
:104C800090939903809398030895E0919803F0918D
:104C90009903309721F00190F081E02D099480E094
:104CA00008950E9445260895E0919803F091990394
:104CB000309799F02091C901222359F02091C50322
:104CC00027FF07C0DC012C9111962C93119726E049
:104CD0002C930280F381E02D09940895E0919803CC
:104CE000F0919903309739F022E0DC012C93048095
:104CF000F581E02D09940895209196033091970352
:104D00002817390771F09093970380939603E091E9
:104D10009803F0919903309721F00680F781E02DF8
:104D20000994089520919403309195032817390729
:104D300071F09093950380939403E0919803F09120
:104D40009903309721F00084F185E02D09940895AE
:104D5000FC0132968091C901882321F08091C5031E
:104D60009EE187FF96E080E0915008F4089521913C
:104D70002223D1F38F5FF8CF662301F12091C9017F
:104D80002223F1F02091C50327FF1AC0462F469534
:104D9000469546954E3190F4677021E030E002C0B0
:104DA000220F331F6A95E2F7840F911DFC01828167
:104DB00090E02823392381E0232B69F480E00895D3
:104DC000FC01329608962191261721F0E817F90781
:104DD000D1F7F4CF81E008959C01FC0132969FEF5A
:104DE00080E04191461751F09F3F19F4411101C0F5
:104DF000982F8F5F8630A9F79F3F09F40895290FF8
:104E0000311D97FD3A95F90162830895FC013296B0
:104E100008962191261303C0DF0111971C92E81711
:104E2000F907B9F70895E62FE695E695E695EE3190
:104E300068F4E80FF92FF11D677021E030E001C040
:104E4000220F6A95EAF78281822B82830895E62FEA
:104E5000E695E695E695EE3170F4E80FF92FF11D31
:104E6000677021E030E001C0220F6A95EAF72095D3
:104E700082812823228308952091C901222329F0C9
:104E80002091C50327FD0C9413270C94EC26209148
:104E9000C901222329F02091C50327FD0C9427275F
:104EA0000C940627FC0132968091C901882351F0A9
:104EB0008091C50387FF06C08EE1DF011D928A95B0
:104EC000E9F7089586E0F9CF08950C9464278111DD
:104ED00005C081E080939A030C94652782E0FACFA5
:104EE00083E080939A030C9465270C94672781E0F4
:104EF00080939A030C9465270C94772708958091EA
:104F0000F203843031F10E941D0B10929B0388E163
:104F100090E020E40FB6F894A895809360000FBE4F
:104F20002093600083B7817F846083BF83B78160F3
:104F300083BF7894889583B78E7F83BF0FB6F8942C
:104F4000A895809160008861809360001092600055
:104F50000FBE08950895CF930E9448070E94841BB6
:104F60000E94AA27C0E08C2F0E946C1B811105C0F3
:104F7000CF5FCE30C1F7CF91089581E0FCCF0E9482
:104F800083110C948B0B1F921FB61F9211248F93C9
:104F90009F93AF93BF9380919B03811113C0809126
:104FA000EA039091EB03A091EC03B091ED034196DD
:104FB000A11DB11D8093EA039093EB03A093EC0332
:104FC000B093ED03BF91AF919F918F911F901FBE42
:104FD0001F90189582E084BD93E095BD9AEF97BD30
:104FE00080936E0008952FB7F8948091EA03909112
:104FF000EB03A091EC03B091ED032FBF08952FB701
:10500000F8946091EA037091EB038091EC03909126
:10501000ED032FBF08959C014FB7F8948091EA03E8
:105020009091EB03A091EC03B091ED034FBF821B75
:10503000930B089578941F921FB61F9211248F939B
:105040009F93AF93BF938091EA039091EB03A0915C
:10505000EC03B091ED030196A11DB11D8093EA030D
:105060009093EB03A093EC03B093ED03BF91AF914A
:105070009F918F911F901FBE1F901895F89481E00B
:105080008093E00080E28093D800E9ECF0E01082A9
:105090008FE19EE40197F1F700C000001DBA109265
:1050A00068001CBC10BE1FBA10927A0010926E00ED
:1050B00010926F0010927100109272001082ECEB4F
:1050C000F0E0108214B817B81AB81DB810BA1082E0
:1050D00015B818B81BB81EB811BA0C94003F089543
:1050E0008091BF03089508959C0182E08093E900B8
:1050F0009FEF8091E800915085FD06C085ED8A956F
:10510000F1F700009111F5CF8091E80085FF0CC008
:1051100050E040E066E070E0C9010E94AD2A809155
:10512000E8008E778093E8000895CF93DF93EC0139
:105130008091C9018823B1F18091C50387FF32C0F6
:1051400060E282E08093E9008FEF9091E800815067
:1051500095FD06C095ED9A95F1F700008111F5CF08
:105160008091E80085FF1BC08091C90170E050E08C
:1051700040E0811104C050E040E068E070E0CE0102
:105180000E94AD2A8091E8008E778093E80080E24B
:10519000FE01AFE9B3E001900D928A95E1F7DF914E
:1051A000CF91089568E081E0CDCF80939C03709308
:1051B0009E0360939D038091F203843001F582E0A9
:1051C0008093E9008FEF9091E800815095FD06C033
:1051D00095ED9A95F1F700008111F5CF8091E800E7
:1051E00085FF0DC050E040E063E070E08CE993E0A3
:1051F0000E94AD2A8091E8008E778093E8000895A0
:10520000BC0184E00C94D528BC0183E00C94D52823
:105210008091F103811109C00E943D2C0E949A2CBB
:105220008091E20084608093E20008951092F1037F
:1052300008950C9477276091EE0381E0611101C01D
:1052400080E00C9470279091F20381E0943009F093
:1052500080E06091EE030C94752742E061EC81E000
:105260000E94B92B42E261EC82E00E94B92B90913E
:10527000F20381E0943009F080E06091EE030C9439
:1052800067278091F403833009F460C030F48130E3
:10529000C9F1823009F49CC008958A3009F488C0AD
:1052A0008B3009F46EC0893009F04FC08091F30350
:1052B000813209F04AC08091F7039091F803029778
:1052C00008F043C08091E800877F8093E8008091D8
:1052D000E80082FF36C09091F3008091F2000297BF
:1052E00031F48091F100813011F0863021F4809109
:1052F000F1008093BF038091E8008B778093E800F2
:105300000C94ED2B8091F303813AF9F48091E8003D
:10531000877F8093E8008091F7039091F803892BB1
:1053200061F460E28FE993E070E00E94FC2A8091D2
:10533000E8008B778093E800089560E090E080E0DB
:10534000F3CF8091F2038111C2CF08958091F303CE
:10535000813AD9F78091F7039091F803892BA9F747
:105360008091E800877F8093E8008091E80080FFCB
:10537000FCCF8091C9018093F1008091E8008E7785
:10538000BDCF8091F303813201F78091F7039091B3
:10539000F803892BD1F68091E800877F8093E8009D
:1053A0000E94ED2B8091F5038093C9010C94831129
:1053B0008091F303813249F68091E800877F8093E2
:1053C000E8000E94ED2B8091F6038093C0030895BE
:1053D0008091F303813A09F0B8CF8091E800877F8C
:1053E0008093E8008091E80080FFFCCF8091C003AB
:1053F000C2CF84B7877F84BF0FB6F894A8958091F9
:105400006000886180936000109260000FBE80E8A9
:1054100090E00FB6F89480936100909361000FBE06
:105420000C947C270E943D2C0E949A2CE2EEF0E026
:1054300080818460808378940C94232F8DEB91E09D
:105440000C9440268091F2038530A9F48091F203F8
:10545000853011F00C94BF270E947F278091F003C4
:105460008823A1F30E94AB27882381F30E94972A07
:105470000E948311EBCF089508950C943F2A292FA1
:1054800033272330310519F168F42130310509F44F
:1054900044C02230310509F445C090E080E030E09E
:1054A00020E025C02132310549F122323105A9F72A
:1054B00080E490E029E03CE061157105C1F086EBE5
:1054C00090E023E53BE06130710589F0E6CF992754
:1054D0008130910581F0009729F00297F1F6E0EC18
:1054E000FAE002C0E2E0FBE0849190E09F01FA0163
:1054F000318320830895E8EDFAE0F6CF89E090E06B
:1055000028E13BE06115710591F389E090E021E32A
:105510003BE06130710559F3C0CF82E190E021E4B6
:105520003BE0E5CF8BE390E026E03BE0E0CF80E19D
:1055300089BD82E189BD09B400FEFDCF8091D8000C
:105540008F7D8093D8008091E00082608093E0009E
:105550008091E00081FDFCCF0895AF92BF92CF9281
:10556000DF92FF920F931F93CF93DF936C01EB01B8
:105570008A010E940C2CF82E811123C001151105FF
:1055800039F0F80180819181C81BD90BC80ED91E52
:10559000B12CA12C2097A9F08091E80085FD22C0B4
:1055A0008091E8008E778093E80001151105A1F045
:1055B000F80180819181A80EB91EB182A08285E098
:1055C000F82E8F2DDF91CF911F910F91FF90DF90DB
:1055D000CF90BF90AF9008950E940C2C8823D1F2F9
:1055E000F82EEFCFF60181916F018093F1002197A2
:1055F000FFEFAF1ABF0ACECFFC018091F903909163
:10560000FA0386179707A0F06115710529F49091A8
:10561000E8009E779093E80090E06115710551F4E1
:10562000911108C08091E80082FF34C080E00895A5
:10563000BC01F2CF8091F2038823C1F18530C1F122
:105640008091E80083FD30C08091E80082FDEACFC0
:105650008091E80080FFE1CF8091F3002091F2007B
:10566000382F6115710519F02830310558F091E097
:105670002830310509F090E02091E8002E77209342
:10568000E800CBCF81918093F100615071092F5FC9
:105690003F4FE7CF8091F203882341F0853041F0FE
:1056A0008091E80083FFBECF81E0089582E00895F5
:1056B00083E00895FC018091F9039091FA03861725
:1056C0009707A0F06115710529F48091E8008E77A5
:1056D0008093E80090E06115710551F4911108C0C4
:1056E0008091E80082FF35C080E00895BC01F2CFD0
:1056F0008091F2038823C9F18530C9F18091E800D7
:1057000083FD31C08091E80082FDEACF8091E800FE
:1057100080FFE1CF8091F3002091F200382F6115D6
:10572000710519F02830310558F091E02830310525
:1057300009F090E08091E8008E778093E800CBCF6D
:1057400084918093F1003196615071092F5F3F4F32
:10575000E6CF8091F203882341F0853041F08091BB
:10576000E80083FFBDCF81E0089582E0089583E0E3
:105770000895982F973028F08F708093E90081E08A
:1057800008959093E900242F762F50E0981731F078
:105790007091EC002091ED005091F00021FD02C0CD
:1057A0009F5FE8CF3091EB003E7F3093EB0030916C
:1057B000ED003D7F3093ED003091EB003160309390
:1057C000EB007093EC002093ED005093F0002091DB
:1057D000EE0027FDE5CF80E008958091F30387FF79
:1057E00013C08091E80082FF06C08091E8008B77AB
:1057F0008093E80004C08091F2038111F2CF0895F4
:105800008091F2038823D9F38091E80080FFF8CFDC
:105810008091E8008E77ECCF2091E4003091E50094
:1058200095E6A9012091EC00822F817020FF06C02F
:105830008091E80080FF06C080E008952091E80094
:1058400022FD1AC08091F203882389F0853089F007
:105850008091EB0085FD0FC02091E4003091E500C0
:1058600042175307F9F29150E1F684E0089582E07F
:10587000089583E0089581E008950E94AB2C0E9472
:10588000B32CE0EEF0E0808181608083E8EDF0E011
:1058900080818F77808319BCA7EDB0E08C918E7FDB
:1058A0008C9380818F7E80831092F10308950F93F3
:1058B0001F93CF93DF930E94AB2C0E94B32CC8EDB3
:1058C000D0E088818F778883888180688883888109
:1058D0008F7D888319BC1092F2031092EE03109210
:1058E000F0031092EF0300EE10E0F80180818B7F4F
:1058F000808388818160888342E060E080E00E944C
:10590000B92BE1EEF0E080818E7F8083E2EEF0E063
:10591000808181608083808188608083F8018081BC
:105920008E7F8083888180618883DF91CF911F91F2
:105930000F910895E8EDF0E080818F7E8083E7EDA0
:10594000F0E080818160808384E082BF81E0809389
:10595000F1030C94572CE8EDF0E080818E7F80837A
:105960001092E20008951092DA001092E10008957A
:105970001F920F920FB60F9211242F933F934F93C4
:105980005F936F937F938F939F93AF93BF93EF93A7
:10599000FF938091E10082FF0BC08091E20082FFC3
:1059A00007C08091E1008B7F8093E1000E94222F4D
:1059B0008091DA0080FF19C08091D80080FF15C067
:1059C0008091DA008E7F8093DA008091D90080FF89
:1059D00096C080E189BD82E189BD09B400FEFDCF9A
:1059E00081E08093F2030E9408298091E10080FF0A
:1059F00019C08091E20080FF15C08091E2008E7F87
:105A00008093E2008091E20080618093E2008091C7
:105A1000D80080628093D80019BC85E08093F2039F
:105A20000E941B298091E10084FF2BC08091E2003D
:105A300084FF27C080E189BD82E189BD89B5982FA7
:105A4000917080FFFBCF8091D8008F7D8093D8002C
:105A50008091E1008F7E8093E1008091E2008F7E53
:105A60008093E2008091E20081608093E200809167
:105A7000EE03882309F449C084E08093F2030E9476
:105A800023298091E10083FF29C08091E20083FFF8
:105A900025C08091E100877F8093E10082E08093C0
:105AA000F2031092EE038091E1008E7F8093E1007B
:105AB0008091E2008E7F8093E2008091E20080611D
:105AC0008093E20042E060E080E00E94B92B809188
:105AD000F00088608093F0000E941929FF91EF91F7
